{
  "contractName": "PlasmaFramework",
  "abi": [
    {
      "constant": true,
      "inputs": [],
      "name": "isChildChainActivated",
      "outputs": [
        {
          "internalType": "bool",
          "name": "",
          "type": "bool"
        }
      ],
      "payable": false,
      "stateMutability": "view",
      "type": "function"
    },
    {
      "constant": false,
      "inputs": [
        {
          "internalType": "bytes32",
          "name": "_outputId",
          "type": "bytes32"
        }
      ],
      "name": "flagOutputFinalized",
      "outputs": [],
      "payable": false,
      "stateMutability": "nonpayable",
      "type": "function"
    },
    {
      "constant": true,
      "inputs": [
        {
          "internalType": "uint256",
          "name": "vaultId",
          "type": "uint256"
        },
        {
          "internalType": "address",
          "name": "token",
          "type": "address"
        }
      ],
      "name": "getNextExit",
      "outputs": [
        {
          "internalType": "uint256",
          "name": "",
          "type": "uint256"
        }
      ],
      "payable": false,
      "stateMutability": "view",
      "type": "function"
    },
    {
      "constant": true,
      "inputs": [
        {
          "internalType": "bytes32[]",
          "name": "_outputIds",
          "type": "bytes32[]"
        }
      ],
      "name": "isAnyOutputFinalized",
      "outputs": [
        {
          "internalType": "bool",
          "name": "",
          "type": "bool"
        }
      ],
      "payable": false,
      "stateMutability": "view",
      "type": "function"
    },
    {
      "constant": true,
      "inputs": [
        {
          "internalType": "bytes32",
          "name": "",
          "type": "bytes32"
        }
      ],
      "name": "exitsQueues",
      "outputs": [
        {
          "internalType": "contract PriorityQueue",
          "name": "",
          "type": "address"
        }
      ],
      "payable": false,
      "stateMutability": "view",
      "type": "function"
    },
    {
      "constant": true,
      "inputs": [],
      "name": "childBlockInterval",
      "outputs": [
        {
          "internalType": "uint256",
          "name": "",
          "type": "uint256"
        }
      ],
      "payable": false,
      "stateMutability": "view",
      "type": "function"
    },
    {
      "constant": false,
      "inputs": [
        {
          "internalType": "uint256",
          "name": "vaultId",
          "type": "uint256"
        },
        {
          "internalType": "address",
          "name": "token",
          "type": "address"
        }
      ],
      "name": "addExitQueue",
      "outputs": [],
      "payable": false,
      "stateMutability": "nonpayable",
      "type": "function"
    },
    {
      "constant": true,
      "inputs": [],
      "name": "nextChildBlock",
      "outputs": [
        {
          "internalType": "uint256",
          "name": "",
          "type": "uint256"
        }
      ],
      "payable": false,
      "stateMutability": "view",
      "type": "function"
    },
    {
      "constant": false,
      "inputs": [],
      "name": "deactivateNonReentrant",
      "outputs": [],
      "payable": false,
      "stateMutability": "nonpayable",
      "type": "function"
    },
    {
      "constant": true,
      "inputs": [],
      "name": "version",
      "outputs": [
        {
          "internalType": "string",
          "name": "",
          "type": "string"
        }
      ],
      "payable": false,
      "stateMutability": "view",
      "type": "function"
    },
    {
      "constant": true,
      "inputs": [
        {
          "internalType": "address",
          "name": "_contract",
          "type": "address"
        }
      ],
      "name": "isExitGameSafeToUse",
      "outputs": [
        {
          "internalType": "bool",
          "name": "",
          "type": "bool"
        }
      ],
      "payable": false,
      "stateMutability": "view",
      "type": "function"
    },
    {
      "constant": false,
      "inputs": [
        {
          "internalType": "uint256",
          "name": "_vaultId",
          "type": "uint256"
        },
        {
          "internalType": "address",
          "name": "_vaultAddress",
          "type": "address"
        }
      ],
      "name": "registerVault",
      "outputs": [],
      "payable": false,
      "stateMutability": "nonpayable",
      "type": "function"
    },
    {
      "constant": false,
      "inputs": [
        {
          "internalType": "uint256",
          "name": "vaultId",
          "type": "uint256"
        },
        {
          "internalType": "address",
          "name": "token",
          "type": "address"
        },
        {
          "internalType": "uint64",
          "name": "exitableAt",
          "type": "uint64"
        },
        {
          "components": [
            {
              "internalType": "uint64",
              "name": "blockNum",
              "type": "uint64"
            },
            {
              "internalType": "uint16",
              "name": "txIndex",
              "type": "uint16"
            },
            {
              "internalType": "uint16",
              "name": "outputIndex",
              "type": "uint16"
            }
          ],
          "internalType": "struct PosLib.Position",
          "name": "txPos",
          "type": "tuple"
        },
        {
          "internalType": "uint160",
          "name": "exitId",
          "type": "uint160"
        },
        {
          "internalType": "contract IExitProcessor",
          "name": "exitProcessor",
          "type": "address"
        }
      ],
      "name": "enqueue",
      "outputs": [
        {
          "internalType": "uint256",
          "name": "",
          "type": "uint256"
        }
      ],
      "payable": false,
      "stateMutability": "nonpayable",
      "type": "function"
    },
    {
      "constant": true,
      "inputs": [],
      "name": "nextDepositBlock",
      "outputs": [
        {
          "internalType": "uint256",
          "name": "",
          "type": "uint256"
        }
      ],
      "payable": false,
      "stateMutability": "view",
      "type": "function"
    },
    {
      "constant": true,
      "inputs": [
        {
          "internalType": "uint256",
          "name": "_txType",
          "type": "uint256"
        }
      ],
      "name": "protocols",
      "outputs": [
        {
          "internalType": "uint8",
          "name": "",
          "type": "uint8"
        }
      ],
      "payable": false,
      "stateMutability": "view",
      "type": "function"
    },
    {
      "constant": true,
      "inputs": [
        {
          "internalType": "uint256",
          "name": "_vaultId",
          "type": "uint256"
        }
      ],
      "name": "vaults",
      "outputs": [
        {
          "internalType": "address",
          "name": "",
          "type": "address"
        }
      ],
      "payable": false,
      "stateMutability": "view",
      "type": "function"
    },
    {
      "constant": true,
      "inputs": [
        {
          "internalType": "bytes32",
          "name": "",
          "type": "bytes32"
        }
      ],
      "name": "isOutputFinalized",
      "outputs": [
        {
          "internalType": "bool",
          "name": "",
          "type": "bool"
        }
      ],
      "payable": false,
      "stateMutability": "view",
      "type": "function"
    },
    {
      "constant": false,
      "inputs": [],
      "name": "activateChildChain",
      "outputs": [],
      "payable": false,
      "stateMutability": "nonpayable",
      "type": "function"
    },
    {
      "constant": true,
      "inputs": [
        {
          "internalType": "address",
          "name": "_exitGame",
          "type": "address"
        }
      ],
      "name": "exitGameToTxType",
      "outputs": [
        {
          "internalType": "uint256",
          "name": "",
          "type": "uint256"
        }
      ],
      "payable": false,
      "stateMutability": "view",
      "type": "function"
    },
    {
      "constant": true,
      "inputs": [],
      "name": "CHILD_BLOCK_INTERVAL",
      "outputs": [
        {
          "internalType": "uint256",
          "name": "",
          "type": "uint256"
        }
      ],
      "payable": false,
      "stateMutability": "view",
      "type": "function"
    },
    {
      "constant": true,
      "inputs": [],
      "name": "nextDeposit",
      "outputs": [
        {
          "internalType": "uint256",
          "name": "",
          "type": "uint256"
        }
      ],
      "payable": false,
      "stateMutability": "view",
      "type": "function"
    },
    {
      "constant": true,
      "inputs": [
        {
          "internalType": "uint256",
          "name": "_txType",
          "type": "uint256"
        }
      ],
      "name": "exitGames",
      "outputs": [
        {
          "internalType": "address",
          "name": "",
          "type": "address"
        }
      ],
      "payable": false,
      "stateMutability": "view",
      "type": "function"
    },
    {
      "constant": false,
      "inputs": [
        {
          "internalType": "bytes32",
          "name": "_blockRoot",
          "type": "bytes32"
        }
      ],
      "name": "submitBlock",
      "outputs": [],
      "payable": false,
      "stateMutability": "nonpayable",
      "type": "function"
    },
    {
      "constant": false,
      "inputs": [
        {
          "internalType": "bytes32",
          "name": "_blockRoot",
          "type": "bytes32"
        }
      ],
      "name": "submitDepositBlock",
      "outputs": [
        {
          "internalType": "uint256",
          "name": "",
          "type": "uint256"
        }
      ],
      "payable": false,
      "stateMutability": "nonpayable",
      "type": "function"
    },
    {
      "constant": true,
      "inputs": [],
      "name": "authority",
      "outputs": [
        {
          "internalType": "address",
          "name": "",
          "type": "address"
        }
      ],
      "payable": false,
      "stateMutability": "view",
      "type": "function"
    },
    {
      "constant": true,
      "inputs": [
        {
          "internalType": "uint256",
          "name": "vaultId",
          "type": "uint256"
        },
        {
          "internalType": "address",
          "name": "token",
          "type": "address"
        }
      ],
      "name": "hasExitQueue",
      "outputs": [
        {
          "internalType": "bool",
          "name": "",
          "type": "bool"
        }
      ],
      "payable": false,
      "stateMutability": "view",
      "type": "function"
    },
    {
      "constant": true,
      "inputs": [
        {
          "internalType": "bytes32",
          "name": "",
          "type": "bytes32"
        }
      ],
      "name": "delegations",
      "outputs": [
        {
          "internalType": "contract IExitProcessor",
          "name": "",
          "type": "address"
        }
      ],
      "payable": false,
      "stateMutability": "view",
      "type": "function"
    },
    {
      "constant": true,
      "inputs": [],
      "name": "minExitPeriod",
      "outputs": [
        {
          "internalType": "uint256",
          "name": "",
          "type": "uint256"
        }
      ],
      "payable": false,
      "stateMutability": "view",
      "type": "function"
    },
    {
      "constant": false,
      "inputs": [
        {
          "internalType": "uint256",
          "name": "vaultId",
          "type": "uint256"
        },
        {
          "internalType": "address",
          "name": "token",
          "type": "address"
        },
        {
          "internalType": "uint160",
          "name": "topExitId",
          "type": "uint160"
        },
        {
          "internalType": "uint256",
          "name": "maxExitsToProcess",
          "type": "uint256"
        }
      ],
      "name": "processExits",
      "outputs": [],
      "payable": false,
      "stateMutability": "nonpayable",
      "type": "function"
    },
    {
      "constant": false,
      "inputs": [
        {
          "internalType": "bytes32[]",
          "name": "_outputIds",
          "type": "bytes32[]"
        }
      ],
      "name": "batchFlagOutputsFinalized",
      "outputs": [],
      "payable": false,
      "stateMutability": "nonpayable",
      "type": "function"
    },
    {
      "constant": true,
      "inputs": [
        {
          "internalType": "address",
          "name": "_vaultAddress",
          "type": "address"
        }
      ],
      "name": "vaultToId",
      "outputs": [
        {
          "internalType": "uint256",
          "name": "",
          "type": "uint256"
        }
      ],
      "payable": false,
      "stateMutability": "view",
      "type": "function"
    },
    {
      "constant": true,
      "inputs": [
        {
          "internalType": "uint256",
          "name": "blockNum",
          "type": "uint256"
        }
      ],
      "name": "isDeposit",
      "outputs": [
        {
          "internalType": "bool",
          "name": "",
          "type": "bool"
        }
      ],
      "payable": false,
      "stateMutability": "view",
      "type": "function"
    },
    {
      "constant": true,
      "inputs": [
        {
          "internalType": "uint256",
          "name": "",
          "type": "uint256"
        }
      ],
      "name": "blocks",
      "outputs": [
        {
          "internalType": "bytes32",
          "name": "root",
          "type": "bytes32"
        },
        {
          "internalType": "uint256",
          "name": "timestamp",
          "type": "uint256"
        }
      ],
      "payable": false,
      "stateMutability": "view",
      "type": "function"
    },
    {
      "constant": false,
      "inputs": [
        {
          "internalType": "uint256",
          "name": "_txType",
          "type": "uint256"
        },
        {
          "internalType": "address",
          "name": "_contract",
          "type": "address"
        },
        {
          "internalType": "uint8",
          "name": "_protocol",
          "type": "uint8"
        }
      ],
      "name": "registerExitGame",
      "outputs": [],
      "payable": false,
      "stateMutability": "nonpayable",
      "type": "function"
    },
    {
      "constant": false,
      "inputs": [],
      "name": "activateNonReentrant",
      "outputs": [],
      "payable": false,
      "stateMutability": "nonpayable",
      "type": "function"
    },
    {
      "inputs": [
        {
          "internalType": "uint256",
          "name": "_minExitPeriod",
          "type": "uint256"
        },
        {
          "internalType": "uint256",
          "name": "_initialImmuneVaults",
          "type": "uint256"
        },
        {
          "internalType": "uint256",
          "name": "_initialImmuneExitGames",
          "type": "uint256"
        },
        {
          "internalType": "address",
          "name": "_authority",
          "type": "address"
        },
        {
          "internalType": "address",
          "name": "_maintainer",
          "type": "address"
        }
      ],
      "payable": false,
      "stateMutability": "nonpayable",
      "type": "constructor"
    },
    {
      "anonymous": false,
      "inputs": [
        {
          "indexed": false,
          "internalType": "uint256",
          "name": "blknum",
          "type": "uint256"
        }
      ],
      "name": "BlockSubmitted",
      "type": "event"
    },
    {
      "anonymous": false,
      "inputs": [
        {
          "indexed": false,
          "internalType": "address",
          "name": "authority",
          "type": "address"
        }
      ],
      "name": "ChildChainActivated",
      "type": "event"
    },
    {
      "anonymous": false,
      "inputs": [
        {
          "indexed": false,
          "internalType": "uint256",
          "name": "vaultId",
          "type": "uint256"
        },
        {
          "indexed": false,
          "internalType": "address",
          "name": "token",
          "type": "address"
        }
      ],
      "name": "ExitQueueAdded",
      "type": "event"
    },
    {
      "anonymous": false,
      "inputs": [
        {
          "indexed": false,
          "internalType": "uint256",
          "name": "processedNum",
          "type": "uint256"
        },
        {
          "indexed": false,
          "internalType": "uint256",
          "name": "vaultId",
          "type": "uint256"
        },
        {
          "indexed": false,
          "internalType": "address",
          "name": "token",
          "type": "address"
        }
      ],
      "name": "ProcessedExitsNum",
      "type": "event"
    },
    {
      "anonymous": false,
      "inputs": [
        {
          "indexed": true,
          "internalType": "uint160",
          "name": "exitId",
          "type": "uint160"
        },
        {
          "indexed": false,
          "internalType": "uint256",
          "name": "priority",
          "type": "uint256"
        }
      ],
      "name": "ExitQueued",
      "type": "event"
    },
    {
      "anonymous": false,
      "inputs": [
        {
          "indexed": false,
          "internalType": "uint256",
          "name": "txType",
          "type": "uint256"
        },
        {
          "indexed": false,
          "internalType": "address",
          "name": "exitGameAddress",
          "type": "address"
        },
        {
          "indexed": false,
          "internalType": "uint8",
          "name": "protocol",
          "type": "uint8"
        }
      ],
      "name": "ExitGameRegistered",
      "type": "event"
    },
    {
      "anonymous": false,
      "inputs": [
        {
          "indexed": false,
          "internalType": "uint256",
          "name": "vaultId",
          "type": "uint256"
        },
        {
          "indexed": false,
          "internalType": "address",
          "name": "vaultAddress",
          "type": "address"
        }
      ],
      "name": "VaultRegistered",
      "type": "event"
    },
    {
      "constant": true,
      "inputs": [],
      "name": "getMaintainer",
      "outputs": [
        {
          "internalType": "address",
          "name": "",
          "type": "address"
        }
      ],
      "payable": false,
      "stateMutability": "view",
      "type": "function"
    },
    {
      "constant": true,
      "inputs": [],
      "name": "getVersion",
      "outputs": [
        {
          "internalType": "string",
          "name": "",
          "type": "string"
        }
      ],
      "payable": false,
      "stateMutability": "view",
      "type": "function"
    },
    {
      "constant": false,
      "inputs": [
        {
          "internalType": "string",
          "name": "_version",
          "type": "string"
        }
      ],
      "name": "setVersion",
      "outputs": [],
      "payable": false,
      "stateMutability": "nonpayable",
      "type": "function"
    }
  ],
  "bytecode": "0x6080604052600e805460ff191690553480156200001b57600080fd5b5060405162003a8538038062003a858339810160408190526200003e91620000d5565b600285026003556004938455928402600955600a91909155600e8054610100600160a81b0319166101006001600160a01b03938416021790556103e8600f81905560105560016011556012805460ff19169055601492909255601580546001600160a01b031916929091169190911790556200018f565b8051620000c2816200016a565b92915050565b8051620000c28162000184565b600080600080600060a08688031215620000ee57600080fd5b6000620000fc8888620000c8565b95505060206200010f88828901620000c8565b94505060406200012288828901620000c8565b93505060606200013588828901620000b5565b92505060806200014888828901620000b5565b9150509295509295909350565b60006001600160a01b038216620000c2565b90565b620001758162000155565b81146200018157600080fd5b50565b620001758162000167565b6138e6806200019f6000396000f3fe60806040523480156200001157600080fd5b5060043610620002685760003560e01c80638e29be31116200014d578063c77b1ed611620000c9578063dfb494f01162000087578063dfb494f01462000520578063ebde2ec91462000537578063f25b3f99146200054e578063f2e208e71462000575578063ff27b189146200058c5762000268565b8063c77b1ed614620004ba578063cf049cad14620004d1578063d4a2b4ef14620004e8578063d9aa4b2414620004f2578063dbe3913214620005095762000268565b8063a8cabcd51162000117578063a8cabcd51462000461578063af079764146200046b578063baa476941462000482578063be5ac6981462000499578063bf7e214f14620004b05762000268565b80638e29be31146200041f578063a11dcc341462000436578063a239e5a21462000440578063a831fa0714620004575762000268565b80634ca8714f11620001e9578063788bc78c11620001a7578063788bc78c14620003aa5780637f8523d114620003c15780638701fc5d14620003d85780638c39622014620003e25780638c64ea4a14620004085762000268565b80634ca8714f146200035e5780634e0f7436146200036857806354fd4d5014620003725780635a102dae146200037c5780636a51fd6314620003935762000268565b80632f75f18711620002375780632f75f18714620002e75780633701b5ca14620002fe57806338a9e0bc146200032457806345f20935146200032e5780634b0a72bc14620003455762000268565b80630d8e6e2c146200026d5780630e71ee02146200028f57806317d73e1b14620002a8578063296d542714620002c1575b600080fd5b6200027762000596565b60405162000286919062002ac1565b60405180910390f35b6200029962000631565b60405162000286919062002a82565b620002bf620002b936600462001f0a565b6200063a565b005b620002d8620002d236600462001fa6565b620006e0565b60405162000286919062002d26565b62000299620002f836600462001ec4565b62000785565b620003156200030f36600462001f0a565b620007e9565b60405162000286919062002ab1565b620002d862000804565b620002bf6200033f36600462001fa6565b6200080a565b6200034f620008ff565b60405162000286919062002a72565b620002d86200090e565b620002bf62000914565b620002776200098f565b620002996200038d36600462001ea3565b62000a21565b620002bf620003a436600462001fa6565b62000a5e565b620002bf620003bb36600462001f2b565b62000bc5565b620002d8620003d23660046200204f565b62000c14565b620002d862000e0e565b620003f9620003f336600462001f0a565b62000e1c565b60405162000286919062002d93565b6200034f6200041936600462001f0a565b62000e31565b620002996200043036600462001f0a565b62000e4c565b620002bf62000e61565b620002d86200045136600462001ea3565b62000f17565b620002d862000f32565b620002d862000f38565b6200034f6200047c36600462001f0a565b62000f3e565b620002bf6200049336600462001f0a565b62000f59565b620002d8620004aa36600462001f0a565b62001027565b6200034f62001124565b62000299620004cb36600462001fa6565b62001138565b62000315620004e236600462001f0a565b62001154565b620002d86200116f565b620002bf6200050336600462001fe5565b62001175565b620002bf6200051a36600462001ec4565b62001652565b620002d86200053136600462001ea3565b6200173b565b620002996200054836600462001f0a565b62001756565b620005656200055f36600462001f0a565b6200179c565b6040516200028692919062002a92565b620002bf62000586366004620020e4565b620017b5565b620002bf6200196f565b60168054604080516020601f6002600019610100600188161502019095169490940493840181900481028201810190925282815260609390929091830182828015620006265780601f10620005fa5761010080835404028352916020019162000626565b820191906000526020600020905b8154815290600101906020018083116200060857829003601f168201915b505050505090505b90565b60125460ff1681565b33600090815260066020526040902054620006725760405162461bcd60e51b8152600401620006699062002b88565b60405180910390fd5b6200068560083363ffffffff62001a0616565b15620006a55760405162461bcd60e51b8152600401620006699062002b52565b80620006c55760405162461bcd60e51b8152600401620006699062002b9a565b6000908152600d60205260409020805460ff19166001179055565b600080620006ef848462001a24565b6000818152600c602090815260409182902054825163d6362e9760e01b815292519394506001600160a01b03169263d6362e97926004808201939291829003018186803b1580156200074057600080fd5b505afa15801562000755573d6000803e3d6000fd5b505050506040513d601f19601f820116820180604052506200077b919081019062001f85565b9150505b92915050565b6000805b82811015620007df57600d6000858584818110620007a357fe5b602090810292909201358352508101919091526040016000205460ff16151560011415620007d65760019150506200077f565b60010162000789565b5060009392505050565b600c602052600090815260409020546001600160a01b031681565b600f5481565b816200082a5760405162461bcd60e51b8152600401620006699062002cde565b600062000838838362001a24565b9050620008458162001a59565b15620008655760405162461bcd60e51b8152600401620006699062002ad4565b604051620008739062001c66565b604051809103906000f08015801562000890573d6000803e3d6000fd5b506000828152600c60205260409081902080546001600160a01b0319166001600160a01b039390931692909217909155517f0a925273fd754a41a580f8214815d5ae8a37367f561b3bd9d91a96730a418a1790620008f2908590859062002d36565b60405180910390a1505050565b6015546001600160a01b031690565b60105481565b33600090815260066020526040902054620009435760405162461bcd60e51b8152600401620006699062002b88565b6200095660083363ffffffff62001a0616565b15620009765760405162461bcd60e51b8152600401620006699062002b52565b600e5460ff166200098357fe5b600e805460ff19169055565b6016805460408051602060026001851615610100026000190190941693909304601f8101849004840282018401909252818152929183018282801562000a195780601f10620009ed5761010080835404028352916020019162000a19565b820191906000526020600020905b815481529060010190602001808311620009fb57829003601f168201915b505050505081565b6001600160a01b038116600090815260066020526040812054158015906200077f575062000a5760088363ffffffff62001a0616565b1592915050565b62000a68620008ff565b336001600160a01b0382161462000a935760405162461bcd60e51b8152600401620006699062002bf4565b8262000ab35760405162461bcd60e51b8152600401620006699062002bbe565b62000abe8262001a76565b62000add5760405162461bcd60e51b8152600401620006699062002c72565b6000838152602081905260409020546001600160a01b03161562000b155760405162461bcd60e51b8152600401620006699062002cba565b6001600160a01b0382166000908152600160205260409020541562000b4e5760405162461bcd60e51b8152600401620006699062002c84565b60008381526020818152604080832080546001600160a01b0319166001600160a01b03871690811790915583526001909152902083905562000b9260028362001a7c565b7f7051aac27f9b76ec8f37bd5796f2dcf402bd840a1c45c952a6eeb0e11bde09968383604051620008f292919062002d36565b62000bcf620008ff565b336001600160a01b0382161462000bfa5760405162461bcd60e51b8152600401620006699062002bf4565b815162000c0f90601690602085019062001c74565b505050565b3360009081526006602052604081205462000c435760405162461bcd60e51b8152600401620006699062002b88565b62000c5660083363ffffffff62001a0616565b1562000c765760405162461bcd60e51b8152600401620006699062002b52565b600062000c84888862001a24565b905062000c918162001a59565b62000cb05760405162461bcd60e51b8152600401620006699062002b40565b6000818152600c60205260408120546001600160a01b03169062000ce68862000cdf368a90038a018a62001f64565b8862001b22565b6040516390b5561d60e01b81529091506001600160a01b038316906390b5561d9062000d1790849060040162002d26565b600060405180830381600087803b15801562000d3257600080fd5b505af115801562000d47573d6000803e3d6000fd5b50505050600062000d5a828c8c62001b58565b6000818152600b60205260409020549091506001600160a01b03161562000d955760405162461bcd60e51b8152600401620006699062002b2e565b6000818152600b60205260409081902080546001600160a01b0319166001600160a01b03898116919091179091559051908816907fe15a4f223f922b625f5fdd941101a23fa0c097e522233d47a7cbea2167e927019062000df890859062002d26565b60405180910390a2509998505050505050505050565b601154600f54601054030190565b60009081526007602052604090205460ff1690565b6000908152602081905260409020546001600160a01b031690565b600d6020526000908152604090205460ff1681565b600e5461010090046001600160a01b031633811462000e945760405162461bcd60e51b8152600401620006699062002bf4565b60125460ff161562000eba5760405162461bcd60e51b8152600401620006699062002c06565b60128054600160ff19909116179055600e546040517fb8421a1acb5f1e701a4f11ecaad76fa438b3947e8dfd6960b6086130e68e0aed9162000f0c916101009091046001600160a01b03169062002a72565b60405180910390a150565b6001600160a01b031660009081526006602052604090205490565b6103e881565b60115481565b6000908152600560205260409020546001600160a01b031690565b600e5461010090046001600160a01b031633811462000f8c5760405162461bcd60e51b8152600401620006699062002bf4565b60125460ff16151560011462000fb65760405162461bcd60e51b8152600401620006699062002b1c565b60108054604080518082018252858152426020808301918252600085815260139091528390209151825551600191820155600f5484540190935560119290925590517f5a978f4723b249ccf79cd7a658a8601ce1ff8b89fc770251a6be35216351ce3290620008f290839062002d26565b33600090815260016020526040812054620010565760405162461bcd60e51b8152600401620006699062002c18565b6200106960023363ffffffff62001a0616565b15620010895760405162461bcd60e51b8152600401620006699062002ccc565b60125460ff161515600114620010b35760405162461bcd60e51b8152600401620006699062002b1c565b600f5460115410620010d95760405162461bcd60e51b8152600401620006699062002ca8565b6000620010e562000e0e565b60408051808201825294855242602080870191825260008481526013909152919091209451855551600194850155601180549094019093555090919050565b600e5461010090046001600160a01b031681565b60008062001147848462001a24565b90506200077b8162001a59565b600b602052600090815260409020546001600160a01b031681565b60145481565b600e5460ff16156200119b5760405162461bcd60e51b8152600401620006699062002c2a565b600e805460ff191660011790556000620011b6858562001a24565b9050620011c38162001a59565b620011e25760405162461bcd60e51b8152600401620006699062002c60565b6000818152600c6020908152604080832054815163bda1504b60e01b815291516001600160a01b039091169392849263bda1504b9260048083019392829003018186803b1580156200123357600080fd5b505afa15801562001248573d6000803e3d6000fd5b505050506040513d601f19601f820116820180604052506200126e919081019062001f85565b116200128e5760405162461bcd60e51b8152600401620006699062002c96565b6000816001600160a01b031663d6362e976040518163ffffffff1660e01b815260040160206040518083038186803b158015620012ca57600080fd5b505afa158015620012df573d6000803e3d6000fd5b505050506040513d601f19601f8201168201806040525062001305919081019062001f85565b9050600062001314826200062e565b90506001600160a01b03861615806200133e5750856001600160a01b0316816001600160a01b0316145b6200135d5760405162461bcd60e51b8152600401620006699062002bac565b60006200136c838a8a62001b58565b6000818152600b60205260408120549192506001600160a01b03909116905b8781108015620013ae575042620013a28662001b90565b67ffffffffffffffff16105b15620015ef576000838152600b6020908152604080832080546001600160a01b03191690558051632c1d5dab60e21b815290516001600160a01b038a169363b07576ac93600480850194919392918390030190829087803b1580156200141357600080fd5b505af115801562001428573d6000803e3d6000fd5b505050506040513d601f19601f820116820180604052506200144e919081019062001f85565b50604051636849635160e01b81526001909101906001600160a01b03831690636849635190620014879087908f908f9060040162002cf0565b600060405180830381600087803b158015620014a257600080fd5b505af1158015620014b7573d6000803e3d6000fd5b50505050856001600160a01b031663bda1504b6040518163ffffffff1660e01b815260040160206040518083038186803b158015620014f557600080fd5b505afa1580156200150a573d6000803e3d6000fd5b505050506040513d601f19601f8201168201806040525062001530919081019062001f85565b6200153b57620015ef565b856001600160a01b031663d6362e976040518163ffffffff1660e01b815260040160206040518083038186803b1580156200157557600080fd5b505afa1580156200158a573d6000803e3d6000fd5b505050506040513d601f19601f82011682018060405250620015b0919081019062001f85565b9450620015bf858c8c62001b58565b9250620015cc856200062e565b6000848152600b60205260409020549094506001600160a01b031691506200138b565b7f7e35599fe450e626673ce6c37179ef9820aed16f76c1b350618ef7a612d13005818c8c604051620016249392919062002d83565b60405180910390a15050600e5460ff16945062001642935050505057fe5b5050600e805460ff191690555050565b33600090815260066020526040902054620016815760405162461bcd60e51b8152600401620006699062002b88565b6200169460083363ffffffff62001a0616565b15620016b45760405162461bcd60e51b8152600401620006699062002b52565b60005b8181101562000c0f576000838383818110620016cf57fe5b905060200201351415620016f75760405162461bcd60e51b8152600401620006699062002b9a565b6001600d60008585858181106200170a57fe5b60209081029290920135835250810191909152604001600020805460ff1916911515919091179055600101620016b7565b6001600160a01b031660009081526001602052604090205490565b600081815260136020526040812060010154620017875760405162461bcd60e51b8152600401620006699062002ae6565b600f5482816200179357fe5b06151592915050565b6013602052600090815260409020805460019091015482565b620017bf620008ff565b336001600160a01b03821614620017ea5760405162461bcd60e51b8152600401620006699062002bf4565b836200180a5760405162461bcd60e51b8152600401620006699062002bd0565b620018158362001a76565b620018345760405162461bcd60e51b8152600401620006699062002c72565b6000848152600560205260409020546001600160a01b0316156200186c5760405162461bcd60e51b8152600401620006699062002c3c565b6001600160a01b03831660009081526006602052604090205415620018a55760405162461bcd60e51b8152600401620006699062002af8565b620018b08262001b96565b620018cf5760405162461bcd60e51b8152600401620006699062002b0a565b600084815260056020908152604080832080546001600160a01b0319166001600160a01b03881690811790915583526006825280832087905586835260079091529020805460ff191660ff84161790556200192c60088462001a7c565b7f0ceb02f7474c01f5959171cead2f5fb2a44d9c16fe480725a2110b601b19db82848484604051620019619392919062002d55565b60405180910390a150505050565b336000908152600660205260409020546200199e5760405162461bcd60e51b8152600401620006699062002b88565b620019b160083363ffffffff62001a0616565b15620019d15760405162461bcd60e51b8152600401620006699062002b52565b600e5460ff1615620019f75760405162461bcd60e51b8152600401620006699062002c2a565b600e805460ff19166001179055565b6001600160a01b031660009081526020919091526040902054421090565b6000828260405160200162001a3b92919062002a0b565b60405160208183030381529060405280519060200120905092915050565b6000908152600c60205260409020546001600160a01b0316151590565b3b151590565b6001600160a01b03811662001aa55760405162461bcd60e51b8152600401620006699062002be2565b6001600160a01b0381166000908152602083905260409020541562001ade5760405162461bcd60e51b8152600401620006699062002b64565b600282015462001b115760018201546001600160a01b038216600090815260208490526040902042909101905562001b1e565b6002820180546000190190555b5050565b6000816001600160a01b031660a062001b3b8562001bb0565b901b60d68667ffffffffffffffff16901b171790505b9392505050565b600083838360405160200162001b719392919062002a35565b6040516020818303038152906040528051906020012090509392505050565b60d61c90565b600060ff8216600114806200077f57505060ff1660021490565b600061271062001bc08362001bcf565b8162001bc857fe5b0492915050565b6000600161271003826040015161ffff16111562001c015760405162461bcd60e51b8152600401620006699062002b76565b81516429f16b11c667ffffffffffffffff909116111562001c365760405162461bcd60e51b8152600401620006699062002c4e565b5060408101516020820151825167ffffffffffffffff16633b9aca000261ffff9182166127100201911601919050565b61099e8062002f0683390190565b828054600181600116156101000203166002900490600052602060002090601f016020900481019282601f1062001cb757805160ff191683800117855562001ce7565b8280016001018555821562001ce7579182015b8281111562001ce757825182559160200191906001019062001cca565b5062001cf592915062001cf9565b5090565b6200062e91905b8082111562001cf5576000815560010162001d00565b80356200077f8162002ea9565b60008083601f84011262001d3657600080fd5b50813567ffffffffffffffff81111562001d4f57600080fd5b60208301915083602082028301111562001d6857600080fd5b9250929050565b80356200077f8162002ec3565b80356200077f8162002ece565b600082601f83011262001d9b57600080fd5b813562001db262001dac8262002dcb565b62002da3565b9150808252602083016020830185838301111562001dcf57600080fd5b62001ddc83828462002e46565b50505092915050565b60006060828403121562001df857600080fd5b50919050565b60006060828403121562001e1157600080fd5b62001e1d606062002da3565b9050600062001e2d848462001e89565b825250602062001e408484830162001e62565b602083015250604062001e568482850162001e62565b60408301525092915050565b80356200077f8162002ed9565b80356200077f8162002ee4565b80516200077f8162002ec3565b80356200077f8162002eef565b80356200077f8162002efa565b60006020828403121562001eb657600080fd5b60006200077b848462001d16565b6000806020838503121562001ed857600080fd5b823567ffffffffffffffff81111562001ef057600080fd5b62001efe8582860162001d23565b92509250509250929050565b60006020828403121562001f1d57600080fd5b60006200077b848462001d6f565b60006020828403121562001f3e57600080fd5b813567ffffffffffffffff81111562001f5657600080fd5b6200077b8482850162001d89565b60006060828403121562001f7757600080fd5b60006200077b848462001dfe565b60006020828403121562001f9857600080fd5b60006200077b848462001e7c565b6000806040838503121562001fba57600080fd5b600062001fc8858562001d6f565b925050602062001fdb8582860162001d16565b9150509250929050565b6000806000806080858703121562001ffc57600080fd5b60006200200a878762001d6f565b94505060206200201d8782880162001d16565b9350506040620020308782880162001e6f565b9250506060620020438782880162001d6f565b91505092959194509250565b60008060008060008061010087890312156200206a57600080fd5b600062002078898962001d6f565b96505060206200208b89828a0162001d16565b95505060406200209e89828a0162001e89565b9450506060620020b189828a0162001de5565b93505060c0620020c489828a0162001e6f565b92505060e0620020d789828a0162001d7c565b9150509295509295509295565b600080600060608486031215620020fa57600080fd5b600062002108868662001d6f565b93505060206200211b8682870162001d16565b92505060406200212e8682870162001e96565b9150509250925092565b620021438162002e01565b82525050565b62002143620021588262002e01565b62002e85565b620021438162002e0e565b62002143816200062e565b620021438162002e13565b60006200218c8262002df4565b62002198818562002df8565b9350620021aa81856020860162002e52565b620021b58162002e99565b9093019392505050565b6000620021ce60118362002df8565b70457869742071756575652065786973747360781b815260200192915050565b6000620021fd60148362002df8565b73109b1bd8dac8191bd95cc81b9bdd08195e1a5cdd60621b815260200192915050565b60006200222f602c8362002df8565b7f54686520657869742067616d6520636f6e747261637420697320616c7265616481526b1e481c9959da5cdd195c995960a21b602082015260400192915050565b60006200227f60168362002df8565b75496e76616c69642070726f746f636f6c2076616c756560501b815260200192915050565b6000620022b3603b8362002df8565b7f4368696c6420636861696e20686173206e6f74206265656e206163746976617481527f656420627920617574686f726974792061646472657373207965740000000000602082015260400192915050565b60006200231460258362002df8565b7f5468652073616d65207072696f7269747920697320616c726561647920656e718152641d595d595960da1b602082015260400192915050565b60006200235d60508362002df8565b7f54686520717565756520666f722074686520287661756c7449642c20746f6b6581527f6e292070616972206973206e6f742079657420616464656420746f207468652060208201526f506c61736d61206672616d65776f726b60801b604082015260600192915050565b6000620023d760178362002df8565b7f4578697447616d652069732071756172616e74696e6564000000000000000000815260200192915050565b60006200241260238362002df8565b7f54686520636f6e747261637420697320616c72656164792071756172616e74698152621b995960ea1b602082015260400192915050565b60006200245960148362002df8565b73092dcecc2d8d2c840deeae8e0eae840d2dcc8caf60631b815260200192915050565b60006200248b60348362002df8565b7f5468652063616c6c206973206e6f742066726f6d2061207265676973746572658152731908195e1a5d0819d85b594818dbdb9d1c9858dd60621b602082015260400192915050565b6000620024e360238362002df8565b7f53686f756c64206e6f7420666c6167207769746820656d707479206f757470758152621d125960ea1b602082015260400192915050565b60006200252a603a8362002df8565b7f546f702065786974204944206f6620746865207175657565206973206469666681527f6572656e7420746f20746865206f6e6520737065636966696564000000000000602082015260400192915050565b60006200258b60238362002df8565b7f53686f756c64206e6f742072656769737465722077697468207661756c74204981526204420360ec1b602082015260400192915050565b6000620025d260228362002df8565b7f53686f756c64206e6f7420726567697374657220776974682074782074797065815261020360f41b602082015260400192915050565b60006200261860268362002df8565b7f416e20656d70747920616464726573732063616e6e6f742062652071756172618152651b9d1a5b995960d21b602082015260400192915050565b600062002662601e8362002df8565b7f43616c6c6572206164647265737320697320756e617574686f72697a65640000815260200192915050565b60006200269d601d8362002df8565b7f4368696c6420636861696e20616c726561647920616374697661746564000000815260200192915050565b6000620026d860278362002df8565b7f5468652063616c6c206973206e6f742066726f6d20612072656769737465726581526619081d985d5b1d60ca1b602082015260400192915050565b600062002723600e8362002df8565b6d1499595b9d1c985b9d0818d85b1b60921b815260200192915050565b60006200274f60218362002df8565b7f546865207478207479706520697320616c7265616479207265676973746572658152601960fa1b602082015260400192915050565b60006200279460148362002df8565b7324b73b30b634b210313637b1b590373ab6b132b960611b815260200192915050565b6000620027c660328362002df8565b7f54686520746f6b656e206973206e6f742079657420616464656420746f2074688152716520506c61736d61206672616d65776f726b60701b602082015260400192915050565b60006200281c602f8362002df8565b7f53686f756c64206e6f7420726567697374657220776974682061206e6f6e2d6381526e6f6e7472616374206164647265737360881b602082015260400192915050565b60006200286f60288362002df8565b7f546865207661756c7420636f6e747261637420697320616c726561647920726581526719da5cdd195c995960c21b602082015260400192915050565b6000620028bb60138362002df8565b724578697420717565756520697320656d70747960681b815260200192915050565b6000620028ec60338362002df8565b7f4578636565646564206c696d6974206f66206465706f736974732070657220638152721a1a5b1908189b1bd8dac81a5b9d195c9d985b606a1b602082015260400192915050565b60006200294360228362002df8565b7f546865207661756c7420494420697320616c7265616479207265676973746572815261195960f21b602082015260400192915050565b60006200298960148362002df8565b7315985d5b1d081a5cc81c5d585c985b9d1a5b995960621b815260200192915050565b6000620029bb60168362002df8565b7505661756c74204944206d757374206e6f7420626520360541b815260200192915050565b620021438162002e27565b62002143620029fa826200062e565b6200062e565b620021438162002e40565b600062002a198285620029eb565b60208201915062002a2b828462002149565b5060140192915050565b600062002a438286620029eb565b60208201915062002a558285620029eb565b60208201915062002a67828462002149565b506014019392505050565b602081016200077f828462002138565b602081016200077f82846200215e565b6040810162002aa2828562002169565b62001b51602083018462002169565b602081016200077f828462002174565b6020808252810162001b5181846200217f565b602080825281016200077f81620021bf565b602080825281016200077f81620021ee565b602080825281016200077f8162002220565b602080825281016200077f8162002270565b602080825281016200077f81620022a4565b602080825281016200077f8162002305565b602080825281016200077f816200234e565b602080825281016200077f81620023c8565b602080825281016200077f8162002403565b602080825281016200077f816200244a565b602080825281016200077f816200247c565b602080825281016200077f81620024d4565b602080825281016200077f816200251b565b602080825281016200077f816200257c565b602080825281016200077f81620025c3565b602080825281016200077f8162002609565b602080825281016200077f8162002653565b602080825281016200077f816200268e565b602080825281016200077f81620026c9565b602080825281016200077f8162002714565b602080825281016200077f8162002740565b602080825281016200077f8162002785565b602080825281016200077f81620027b7565b602080825281016200077f816200280d565b602080825281016200077f8162002860565b602080825281016200077f81620028ac565b602080825281016200077f81620028dd565b602080825281016200077f8162002934565b602080825281016200077f816200297a565b602080825281016200077f81620029ac565b6060810162002d008286620029e0565b62002d0f602083018562002169565b62002d1e604083018462002138565b949350505050565b602081016200077f828462002169565b6040810162002d46828562002169565b62001b51602083018462002138565b6060810162002d65828662002169565b62002d74602083018562002138565b62002d1e604083018462002a00565b6060810162002d00828662002169565b602081016200077f828462002a00565b60405181810167ffffffffffffffff8111828210171562002dc357600080fd5b604052919050565b600067ffffffffffffffff82111562002de357600080fd5b506020601f91909101601f19160190565b5190565b90815260200190565b60006200077f8262002e27565b151590565b60006200077f8262002e01565b61ffff1690565b6001600160a01b031690565b67ffffffffffffffff1690565b60ff1690565b82818337506000910152565b60005b8381101562002e6f57818101518382015260200162002e55565b8381111562002e7f576000848401525b50505050565b60006200077f8260006200077f8262002ea3565b601f01601f191690565b60601b90565b62002eb48162002e01565b811462002ec057600080fd5b50565b62002eb4816200062e565b62002eb48162002e13565b62002eb48162002e20565b62002eb48162002e27565b62002eb48162002e33565b62002eb48162002e4056fe608060405234801561001057600080fd5b506040805160208101909152600080825261002c916001610049565b506000600155600280546001600160a01b031916331790556100b6565b828054828255906000526020600020908101928215610089579160200282015b82811115610089578251829060ff16905591602001919060010190610069565b50610095929150610099565b5090565b6100b391905b80821115610095576000815560010161009f565b90565b6108d9806100c56000396000f3fe608060405234801561001057600080fd5b506004361061007d5760003560e01c8063bda1504b1161005b578063bda1504b14610113578063d6362e971461011b578063e10d29ee14610123578063e9de55531461012b5761007d565b8063446b2f881461008257806390b5561d146100da578063b07576ac146100f9575b600080fd5b61008a61014f565b60408051602080825283518183015283519192839290830191858101910280838360005b838110156100c65781810151838201526020016100ae565b505050509050019250505060405180910390f35b6100f7600480360360208110156100f057600080fd5b50356101aa565b005b610101610263565b60408051918252519081900360200190f35b6101016103c5565b6101016103cb565b610101610432565b610133610438565b604080516001600160a01b039092168252519081900360200190f35b60606000800180548060200260200160405190810160405280929190818152602001828054801561019f57602002820191906000526020600020905b81548152602001906001019080831161018b575b505050505090505b90565b6002546001600160a01b031633811461020a576040805162461bcd60e51b815260206004820152601e60248201527f43616c6c6572206164647265737320697320756e617574686f72697a65640000604482015290519081900360640190fd5b60008054600181810183559180527f290decd9548b62a8d60345a988386fc84ba6bc95484008f6362f93160ef3e56301839055805461024e9163ffffffff61044716565b600181905561025f906000906104aa565b5050565b6002546000906001600160a01b03163381146102c6576040805162461bcd60e51b815260206004820152601e60248201527f43616c6c6572206164647265737320697320756e617574686f72697a65640000604482015290519081900360640190fd5b60015461030b576040805162461bcd60e51b815260206004820152600e60248201526d517565756520697320656d70747960901b604482015290519081900360640190fd5b60008060000160018154811061031d57fe5b6000918252602082200154600154825491935090811061033957fe5b90600052602060002001546000800160018154811061035457fe5b60009182526020822001919091556001548154811061036f57fe5b60009182526020822001556001805461038d9163ffffffff61058016565b600190815561039e906000906105dd565b6000546103b290600163ffffffff61058016565b6103bd600082610840565b5091505b5090565b60015490565b600154600090610413576040805162461bcd60e51b815260206004820152600e60248201526d517565756520697320656d70747960901b604482015290519081900360640190fd5b60008054600190811061042257fe5b9060005260206000200154905090565b60015481565b6002546001600160a01b031681565b6000828201838110156104a1576040805162461bcd60e51b815260206004820152601b60248201527f536166654d6174683a206164646974696f6e206f766572666c6f770000000000604482015290519081900360640190fd5b90505b92915050565b8154819081906000908590839081106104bf57fe5b906000526020600020015490505b846104df84600263ffffffff6106b416565b815481106104e957fe5b9060005260206000200154811015610555578461050d84600263ffffffff6106b416565b8154811061051757fe5b906000526020600020015485600001848154811061053157fe5b60009182526020909120015561054e83600263ffffffff6106b416565b92506104cd565b818314610579578085600001848154811061056c57fe5b6000918252602090912001555b5050505050565b6000828211156105d7576040805162461bcd60e51b815260206004820152601e60248201527f536166654d6174683a207375627472616374696f6e206f766572666c6f770000604482015290519081900360640190fd5b50900390565b8154819081906000908590839081106105f257fe5b90600052602060002001549050600061060b868561071e565b90505b8560010154811115801561063a575085600001818154811061062c57fe5b906000526020600020015482115b156106885785600001818154811061064e57fe5b906000526020600020015486600001858154811061066857fe5b600091825260209091200155925082610681868261071e565b905061060e565b8284146106ac578186600001858154811061069f57fe5b6000918252602090912001555b505050505050565b600080821161070a576040805162461bcd60e51b815260206004820152601a60248201527f536166654d6174683a206469766973696f6e206279207a65726f000000000000604482015290519081900360640190fd5b600082848161071557fe5b04949350505050565b6001808301546000916107489061073c85600263ffffffff6107e716565b9063ffffffff61044716565b11156107665761075f82600263ffffffff6107e716565b90506104a4565b8261077d600161073c85600263ffffffff6107e716565b8154811061078757fe5b600091825260209091200154836107a584600263ffffffff6107e716565b815481106107af57fe5b906000526020600020015410156107d15761075f82600263ffffffff6107e716565b61075f600161073c84600263ffffffff6107e716565b6000826107f6575060006104a4565b8282028284828161080357fe5b04146104a15760405162461bcd60e51b81526004018080602001828103825260218152602001806108846021913960400191505060405180910390fd5b81548183558181111561086457600083815260209020610864918101908301610869565b505050565b6101a791905b808211156103c1576000815560010161086f56fe536166654d6174683a206d756c7469706c69636174696f6e206f766572666c6f77a265627a7a72315820c6d093e3cb861c2f3d7e0da0c41de597c3612f1688360db1a528767863989fe064736f6c634300050b0032a365627a7a7231582029fa75913584421d44582899a7748de9451b9a6ab336a09dce3dc63df0fe8fff6c6578706572696d656e74616cf564736f6c634300050b0040",
  "source": "pragma solidity 0.5.11;\npragma experimental ABIEncoderV2;\n\nimport \"./BlockController.sol\";\nimport \"./ExitGameController.sol\";\nimport \"./registries/VaultRegistry.sol\";\nimport \"./registries/ExitGameRegistry.sol\";\n\ncontract PlasmaFramework is VaultRegistry, ExitGameRegistry, ExitGameController, BlockController {\n    uint256 public constant CHILD_BLOCK_INTERVAL = 1000;\n\n    /**\n     * The minimum finalization period is the Plasma guarantee that all exits are safe provided the user takes action within the specified time period\n     * When the child chain is rogue, user should start their exit and challenge any invalid exit within this period\n     * An exit can be processed/finalized after minimum two finalization periods from its inclusion position, unless it is an exit for a deposit,\n     * which would use one finalization period, instead of two\n     *\n     * For the Abstract Layer Design, OmiseGO also uses some multitude of this period to update its framework\n     * See also ExitGameRegistry.sol, VaultRegistry.sol, and Vault.sol for more information on the update waiting time (the quarantined period)\n     *\n     * MVP: https://ethresear.ch/t/minimal-viable-plasma/426\n     * MoreVP: https://github.com/omisego/elixir-omg/blob/master/docs/morevp.md#timeline\n     * Special period for deposit: https://git.io/JecCV\n     */\n    uint256 public minExitPeriod;\n    address private maintainer;\n    string public version;\n\n    constructor(\n        uint256 _minExitPeriod,\n        uint256 _initialImmuneVaults,\n        uint256 _initialImmuneExitGames,\n        address _authority,\n        address _maintainer\n    )\n        public\n        BlockController(CHILD_BLOCK_INTERVAL, _minExitPeriod, _initialImmuneVaults, _authority)\n        ExitGameController(_minExitPeriod, _initialImmuneExitGames)\n    {\n        minExitPeriod = _minExitPeriod;\n        maintainer = _maintainer;\n    }\n\n    function getMaintainer() public view returns (address) {\n        return maintainer;\n    }\n\n    /**\n     * @notice Gets the semantic version of the current deployed contracts\n    */\n    function getVersion() external view returns (string memory) {\n        return version;\n    }\n    \n    /**\n     * @notice Sets the semantic version of the current deployed contracts\n     * @param _version is semver string\n     */\n    function setVersion(string memory _version) public onlyFrom(getMaintainer()) {\n        version = _version;\n    }\n}",
  "sourcePath": "/Users/nocholas/plasma-contracts/plasma_framework/contracts/src/framework/PlasmaFramework.sol",
  "compiler": {
    "name": "solc",
    "version": "0.5.11+commit.c082d0b4.Emscripten.clang"
  },
  "schemaVersion": "3.0.16",
  "updatedAt": "2020-02-19T07:32:14.963Z",
  "devdoc": {
    "methods": {
      "activateChildChain()": {
        "details": "This is a preserved action for authority account to start its nonce with 1.     Child chain rely ethereum nonce to protect re-org: https://git.io/JecDG     see discussion: https://git.io/JenaT, https://git.io/JecDO"
      },
      "activateNonReentrant()": {
        "details": "Accessible only from non quarantined exit games, uses a mutex"
      },
      "addExitQueue(uint256,address)": {
        "details": "The queue is created as a new contract instance",
        "params": {
          "token": "Address of the token",
          "vaultId": "ID of the vault"
        }
      },
      "batchFlagOutputsFinalized(bytes32[])": {
        "params": {
          "_outputIds": "Output IDs to flag"
        }
      },
      "deactivateNonReentrant()": {
        "details": "Accessible only from non quarantined exit games, uses a mutex"
      },
      "enqueue(uint256,address,uint64,(uint64,uint16,uint16),uint160,address)": {
        "details": "emits ExitQueued event, which can be used to back trace the priority inside the queueCaller of this function should add \"pragma experimental ABIEncoderV2;\" on top of filePriority (exitableAt, txPos, exitId) must be unique per queue. Do not enqueue when the same priority is already in the queue.",
        "params": {
          "exitId": "ID used by the exit processor contract to determine how to process the exit",
          "exitProcessor": "The exit processor contract, called during \"processExits\"",
          "exitableAt": "The earliest time a specified exit can be processed",
          "token": "Token for the exit",
          "txPos": "Transaction position for the exit priority. For SE it should be the exit tx, for IFE it should be the youngest input tx position.",
          "vaultId": "Vault ID of the vault that stores exiting funds"
        },
        "return": "A unique priority number computed for the exit"
      },
      "flagOutputFinalized(bytes32)": {
        "params": {
          "_outputId": "The output ID to flag as spent"
        }
      },
      "hasExitQueue(uint256,address)": {
        "params": {
          "token": "Address of the token",
          "vaultId": "ID of the vault that handles the token"
        },
        "return": "bool Defines whether the queue for a token was created"
      },
      "isAnyOutputFinalized(bytes32[])": {
        "params": {
          "_outputIds": "Output IDs to check"
        }
      },
      "isExitGameSafeToUse(address)": {
        "details": "Exposes information about exit games quarantine",
        "params": {
          "_contract": "Address of the exit game contract"
        },
        "return": "boolean Whether the contract is safe to use and is not under quarantine"
      },
      "processExits(uint256,address,uint160,uint256)": {
        "details": "Emits ProcessedExitsNum event",
        "params": {
          "maxExitsToProcess": "Maximum number of exits to process",
          "token": "The token type to process",
          "topExitId": "Unique identifier for prioritizing the first exit to process. Set to zero to skip this check.",
          "vaultId": "Vault ID of the vault that stores exiting funds"
        },
        "return": "Total number of processed exits"
      },
      "registerExitGame(uint256,address,uint8)": {
        "details": "Emits ExitGameRegistered event to notify clients",
        "params": {
          "_contract": "Address of the exit game contract",
          "_protocol": "The transaction protocol, either 1 for MVP or 2 for MoreVP",
          "_txType": "The tx type where the exit game wants to register"
        }
      },
      "registerVault(uint256,address)": {
        "details": "emits VaultRegistered event to notify clients",
        "params": {
          "_vaultAddress": "Address of the vault contract",
          "_vaultId": "The ID for the vault contract to register"
        }
      },
      "setVersion(string)": {
        "params": {
          "_version": "is semver string"
        }
      },
      "submitBlock(bytes32)": {
        "details": "emit BlockSubmitted eventBlock number jumps 'childBlockInterval' per submissionSee discussion in https://github.com/omisego/plasma-contracts/issues/233",
        "params": {
          "_blockRoot": "Merkle root of the Plasma block"
        }
      },
      "submitDepositBlock(bytes32)": {
        "details": "Block number adds 1 per submission; it's possible to have at most 'childBlockInterval' deposit blocks between two child chain blocks",
        "params": {
          "_blockRoot": "Merkle root of the Plasma block"
        },
        "return": "The deposit block number"
      }
    }
  },
  "userdoc": {
    "methods": {
      "activateChildChain()": {
        "notice": "Activates the child chain so that child chain can start to submit child blocks to root chainCan only be called once by the authority.Sets isChildChainActivated to true and emits the ChildChainActivated event."
      },
      "activateNonReentrant()": {
        "notice": "Activates non reentrancy mode        Guards against reentering into publicly accessible code that modifies state related to exits"
      },
      "addExitQueue(uint256,address)": {
        "notice": "Adds queue to the Plasma framework"
      },
      "batchFlagOutputsFinalized(bytes32[])": {
        "notice": "Batch flags already spent outputs"
      },
      "deactivateNonReentrant()": {
        "notice": "Deactivates non reentrancy mode"
      },
      "enqueue(uint256,address,uint64,(uint64,uint16,uint16),uint160,address)": {
        "notice": "Enqueue exits from exit game contracts is a function that places the exit into the        priority queue to enforce the priority of exit during 'processExits'"
      },
      "exitGameToTxType(address)": {
        "notice": "Public getter for retrieving tx type with exit game address"
      },
      "exitGames(uint256)": {
        "notice": "Public getter for retrieving exit game address with tx type"
      },
      "flagOutputFinalized(bytes32)": {
        "notice": "Flags a single output as spent"
      },
      "getVersion()": {
        "notice": "Gets the semantic version of the current deployed contracts"
      },
      "hasExitQueue(uint256,address)": {
        "notice": "Checks if the queue for a specified token was created"
      },
      "isAnyOutputFinalized(bytes32[])": {
        "notice": "Checks whether any of the output with the given outputIds is already spent"
      },
      "isExitGameSafeToUse(address)": {
        "notice": "Checks whether the contract is safe to use and is not under quarantine"
      },
      "processExits(uint256,address,uint160,uint256)": {
        "notice": "Processes any exits that have completed the challenge period. Exits are processed according to the exit priority."
      },
      "protocols(uint256)": {
        "notice": "Public getter for retrieving protocol with tx type"
      },
      "registerExitGame(uint256,address,uint8)": {
        "notice": "Registers an exit game within the PlasmaFramework. Only the maintainer can call the function."
      },
      "registerVault(uint256,address)": {
        "notice": "Register a vault within the PlasmaFramework. Only a maintainer can make the call."
      },
      "setVersion(string)": {
        "notice": "Sets the semantic version of the current deployed contracts"
      },
      "submitBlock(bytes32)": {
        "notice": "Allows the authority to submit the Merkle root of a Plasma block"
      },
      "submitDepositBlock(bytes32)": {
        "notice": "Submits a block for deposit"
      },
      "vaultToId(address)": {
        "notice": "Public getter for retrieving vault ID with vault address"
      },
      "vaults(uint256)": {
        "notice": "Public getter for retrieving vault address with vault ID"
      }
    }
  }
}