{
  "contractName": "Erc20Vault",
  "abi": [
    {
      "constant": true,
      "inputs": [
        {
          "internalType": "uint256",
          "name": "",
          "type": "uint256"
        }
      ],
      "name": "depositVerifiers",
      "outputs": [
        {
          "internalType": "address",
          "name": "",
          "type": "address"
        }
      ],
      "payable": false,
      "stateMutability": "view",
      "type": "function"
    },
    {
      "constant": false,
      "inputs": [
        {
          "internalType": "address",
          "name": "_verifier",
          "type": "address"
        }
      ],
      "name": "setDepositVerifier",
      "outputs": [],
      "payable": false,
      "stateMutability": "nonpayable",
      "type": "function"
    },
    {
      "constant": true,
      "inputs": [],
      "name": "getEffectiveDepositVerifier",
      "outputs": [
        {
          "internalType": "address",
          "name": "",
          "type": "address"
        }
      ],
      "payable": false,
      "stateMutability": "view",
      "type": "function"
    },
    {
      "constant": true,
      "inputs": [],
      "name": "newDepositVerifierMaturityTimestamp",
      "outputs": [
        {
          "internalType": "uint256",
          "name": "",
          "type": "uint256"
        }
      ],
      "payable": false,
      "stateMutability": "view",
      "type": "function"
    },
    {
      "inputs": [
        {
          "internalType": "contract PlasmaFramework",
          "name": "_framework",
          "type": "address"
        }
      ],
      "payable": false,
      "stateMutability": "nonpayable",
      "type": "constructor"
    },
    {
      "anonymous": false,
      "inputs": [
        {
          "indexed": true,
          "internalType": "address",
          "name": "receiver",
          "type": "address"
        },
        {
          "indexed": true,
          "internalType": "address",
          "name": "token",
          "type": "address"
        },
        {
          "indexed": false,
          "internalType": "uint256",
          "name": "amount",
          "type": "uint256"
        }
      ],
      "name": "Erc20Withdrawn",
      "type": "event"
    },
    {
      "anonymous": false,
      "inputs": [
        {
          "indexed": true,
          "internalType": "address",
          "name": "depositor",
          "type": "address"
        },
        {
          "indexed": true,
          "internalType": "uint256",
          "name": "blknum",
          "type": "uint256"
        },
        {
          "indexed": true,
          "internalType": "address",
          "name": "token",
          "type": "address"
        },
        {
          "indexed": false,
          "internalType": "uint256",
          "name": "amount",
          "type": "uint256"
        }
      ],
      "name": "DepositCreated",
      "type": "event"
    },
    {
      "anonymous": false,
      "inputs": [
        {
          "indexed": false,
          "internalType": "address",
          "name": "nextDepositVerifier",
          "type": "address"
        }
      ],
      "name": "SetDepositVerifierCalled",
      "type": "event"
    },
    {
      "constant": false,
      "inputs": [
        {
          "internalType": "bytes",
          "name": "depositTx",
          "type": "bytes"
        }
      ],
      "name": "deposit",
      "outputs": [],
      "payable": false,
      "stateMutability": "nonpayable",
      "type": "function"
    },
    {
      "constant": false,
      "inputs": [
        {
          "internalType": "address payable",
          "name": "receiver",
          "type": "address"
        },
        {
          "internalType": "address",
          "name": "token",
          "type": "address"
        },
        {
          "internalType": "uint256",
          "name": "amount",
          "type": "uint256"
        }
      ],
      "name": "withdraw",
      "outputs": [],
      "payable": false,
      "stateMutability": "nonpayable",
      "type": "function"
    }
  ],
  "bytecode": "0x60806040527f800000000000000000000000000000000000000000000000000000000000000060135534801561003457600080fd5b5060405162000dc638038062000dc68339818101604052602081101561005957600080fd5b5051600080546001600160a01b0319166001600160a01b0383161790558061007f610095565b61008d90600190601061015b565b5050506101d2565b61009d610199565b6100a5610199565b6040805160006020808301829052602180840183905284518085039091018152604190930190935281519190920120905b601081101561015257818382601081106100ec57fe5b60209081029190910191909152604080517f010000000000000000000000000000000000000000000000000000000000000081840152602181018590526041808201959095528151808203909501855260610190528251920191909120906001016100d6565b50909150505b90565b8260108101928215610189579160200282015b8281111561018957825182559160200191906001019061016e565b506101959291506101b8565b5090565b6040518061020001604052806010906020820280388339509192915050565b61015891905b8082111561019557600081556001016101be565b610be480620001e26000396000f3fe608060405234801561001057600080fd5b50600436106100625760003560e01c806302e9b07b146100675780632c6ce78b146100a057806352518b7f146100c857806398b1e06a146100d0578063a7e5994f14610140578063d9caed121461015a575b600080fd5b6100846004803603602081101561007d57600080fd5b5035610190565b604080516001600160a01b039092168252519081900360200190f35b6100c6600480360360208110156100b657600080fd5b50356001600160a01b03166101ad565b005b6100846103df565b6100c6600480360360208110156100e657600080fd5b81019060208101813564010000000081111561010157600080fd5b82018360208201111561011357600080fd5b8035906020019184600183028401116401000000008311171561013557600080fd5b50909250905061040e565b6101486105d7565b60408051918252519081900360200190f35b6100c66004803603606081101561017057600080fd5b506001600160a01b038135811691602081013590911690604001356105dd565b6011816002811061019d57fe5b01546001600160a01b0316905081565b6000809054906101000a90046001600160a01b03166001600160a01b0316634b0a72bc6040518163ffffffff1660e01b815260040160206040518083038186803b1580156101fa57600080fd5b505afa15801561020e573d6000803e3d6000fd5b505050506040513d602081101561022457600080fd5b5051336001600160a01b03821614610283576040805162461bcd60e51b815260206004820152601e60248201527f43616c6c6572206164647265737320697320756e617574686f72697a65640000604482015290519081900360640190fd5b6001600160a01b0382166102c85760405162461bcd60e51b815260040180806020018281038252602f815260200180610af8602f913960400191505060405180910390fd5b6011546001600160a01b031615610383576102e16103df565b601180546001600160a01b03199081166001600160a01b0393841617909155601280549091168483161790556000546040805163d4a2b4ef60e01b81529051919092169163d4a2b4ef916004808301926020929190829003018186803b15801561034a57600080fd5b505afa15801561035e573d6000803e3d6000fd5b505050506040513d602081101561037457600080fd5b5051600202420160135561039f565b601180546001600160a01b0319166001600160a01b0384161790555b604080516001600160a01b038416815290517f11e5a7570e0de4b31179f8c9cf5e8a1e6cfd23731ec7a5a06e3006d71dd321fd9181900360200190a15050565b600060135442101561040257601160005b01546001600160a01b0316905061040b565b601160016103f0565b90565b60006104186103df565b90506001600160a01b03811661045f5760405162461bcd60e51b8152600401808060200182810382526021815260200180610b276021913960400191505060405180910390fd5b604051635970e69f60e11b81523360248201819052306044830181905260606004840190815260648401869052600093849384936001600160a01b0388169363b2e1cd3e938b938b93909290918190608401868680828437600081840152601f19601f8201169050808301925050509550505050505060606040518083038186803b1580156104ed57600080fd5b505afa158015610501573d6000803e3d6000fd5b505050506040513d606081101561051757600080fd5b508051602082015160409092015190945090925090506105486001600160a01b03831684308463ffffffff6106f916565b600061058987878080601f01602080910402602001604051908101604052809392919081815260200183838082843760009201919091525061075992505050565b6040805184815290519192506001600160a01b03851691839133917f18569122d84f30025bb8dffb33563f1bdbfb9637f21552b11b8305686e9cb3079181900360200190a450505050505050565b60135481565b60005460408051632d0816d760e11b815233600482015290516001600160a01b0390921691635a102dae91602480820192602092909190829003018186803b15801561062857600080fd5b505afa15801561063c573d6000803e3d6000fd5b505050506040513d602081101561065257600080fd5b505161068f5760405162461bcd60e51b815260040180806020018281038252603e815260200180610b72603e913960400191505060405180910390fd5b6106a96001600160a01b038316848363ffffffff6107eb16565b816001600160a01b0316836001600160a01b03167fcd43b20ab5058a2a0a057681c9d3754aa8971fe74dacc8b6e4be0a49dae13101836040518082815260200191505060405180910390a3505050565b604080516001600160a01b0385811660248301528416604482015260648082018490528251808303909101815260849091019091526020810180516001600160e01b03166323b872dd60e01b179052610753908590610842565b50505050565b600080610765836109fa565b60008054604080516317cb58d360e31b815260048101859052905193945091926001600160a01b039091169163be5ac69891602480830192602092919082900301818787803b1580156107b757600080fd5b505af11580156107cb573d6000803e3d6000fd5b505050506040513d60208110156107e157600080fd5b5051949350505050565b604080516001600160a01b038416602482015260448082018490528251808303909101815260649091019091526020810180516001600160e01b031663a9059cbb60e01b17905261083d908490610842565b505050565b610854826001600160a01b0316610af1565b6108a5576040805162461bcd60e51b815260206004820152601f60248201527f5361666545524332303a2063616c6c20746f206e6f6e2d636f6e747261637400604482015290519081900360640190fd5b60006060836001600160a01b0316836040518082805190602001908083835b602083106108e35780518252601f1990920191602091820191016108c4565b6001836020036101000a0380198251168184511680821785525050505050509050019150506000604051808303816000865af19150503d8060008114610945576040519150601f19603f3d011682016040523d82523d6000602084013e61094a565b606091505b5091509150816109a1576040805162461bcd60e51b815260206004820181905260248201527f5361666545524332303a206c6f772d6c6576656c2063616c6c206661696c6564604482015290519081900360640190fd5b805115610753578080602001905160208110156109bd57600080fd5b50516107535760405162461bcd60e51b815260040180806020018281038252602a815260200180610b48602a913960400191505060405180910390fd5b60405160006020808301828152845192938493849387939260210191908401908083835b60208310610a3d5780518252601f199092019160209182019101610a1e565b6001836020036101000a0380198251168184511680821785525050505050509050019250505060405160208183030381529060405280519060200120905060008090505b6010811015610aea57600160f81b8260018360108110610a9d57fe5b0154604080516001600160f81b0319909416602080860191909152602185019390935260418085019290925280518085039092018252606190930190925281519101209150600101610a81565b5092915050565b3b15159056fe43616e6e6f742073657420616e20656d7074792061646472657373206173206465706f7369742076657269666965724465706f73697420766572696669657220686173206e6f74206265656e207365745361666545524332303a204552433230206f7065726174696f6e20646964206e6f74207375636365656443616c6c65642066726f6d2061206e6f6e2d72656769737465726564206f722071756172616e74696e656420657869742067616d6520636f6e7472616374a265627a7a72315820d4721643914d9c9467d58a7c07c954744db9a6e57c08baa5ffb697370d311b9f64736f6c634300050b0032",
  "source": "pragma solidity 0.5.11;\n\nimport \"./Vault.sol\";\nimport \"./verifiers/IErc20DepositVerifier.sol\";\nimport \"../framework/PlasmaFramework.sol\";\n\nimport \"openzeppelin-solidity/contracts/token/ERC20/IERC20.sol\";\nimport \"openzeppelin-solidity/contracts/token/ERC20/SafeERC20.sol\";\n\ncontract Erc20Vault is Vault {\n    using SafeERC20 for IERC20;\n\n    event Erc20Withdrawn(\n        address indexed receiver,\n        address indexed token,\n        uint256 amount\n    );\n\n    event DepositCreated(\n        address indexed depositor,\n        uint256 indexed blknum,\n        address indexed token,\n        uint256 amount\n    );\n\n    constructor(PlasmaFramework _framework) public Vault(_framework) {}\n\n    /**\n     * @notice Deposits approved amount of ERC20 token(s) into the contract\n     * Once the deposit is recognized, the owner (depositor) can transact on the OmiseGO Network\n     * The approve function of the ERC20 token contract must be called before calling this function\n     * for at least the amount that is deposited into the contract\n     * @param depositTx RLP-encoded transaction to act as the deposit\n     */\n    function deposit(bytes calldata depositTx) external {\n        address depositVerifier = super.getEffectiveDepositVerifier();\n        require(depositVerifier != address(0), \"Deposit verifier has not been set\");\n\n        (address depositor, address token, uint256 amount) = IErc20DepositVerifier(depositVerifier)\n            .verify(depositTx, msg.sender, address(this));\n\n        IERC20(token).safeTransferFrom(depositor, address(this), amount);\n\n        uint256 blknum = super.submitDepositBlock(depositTx);\n\n        emit DepositCreated(msg.sender, blknum, token, amount);\n    }\n\n    /**\n    * @notice Withdraw ERC20 tokens that have successfully exited from the OmiseGO Network\n    * @param receiver Address of the recipient\n    * @param token Address of ERC20 token contract\n    * @param amount Amount to transfer\n    */\n    function withdraw(address payable receiver, address token, uint256 amount) external onlyFromNonQuarantinedExitGame {\n        IERC20(token).safeTransfer(receiver, amount);\n        emit Erc20Withdrawn(receiver, token, amount);\n    }\n}\n",
  "sourcePath": "/Users/nocholas/plasma-contracts/plasma_framework/contracts/src/vaults/Erc20Vault.sol",
  "compiler": {
    "name": "solc",
    "version": "0.5.11+commit.c082d0b4.Emscripten.clang"
  },
  "schemaVersion": "3.0.16",
  "updatedAt": "2019-12-18T05:37:47.258Z",
  "devdoc": {
    "methods": {
      "deposit(bytes)": {
        "params": {
          "depositTx": "RLP-encoded transaction to act as the deposit"
        }
      },
      "getEffectiveDepositVerifier()": {
        "return": "Contract address of the deposit verifier"
      },
      "setDepositVerifier(address)": {
        "details": "emit SetDepositVerifierCalledWhen one contract is already set, the next one is effective after 2 * MIN_EXIT_PERIOD.     This is to protect deposit transactions already in mempool,     and also make sure user only needs to SE within first week when invalid vault is registered.     *      see: https://github.com/omisego/plasma-contracts/issues/412          https://github.com/omisego/plasma-contracts/issues/173",
        "params": {
          "_verifier": "Address of the verifier contract"
        }
      },
      "withdraw(address,address,uint256)": {
        "params": {
          "amount": "Amount to transfer",
          "receiver": "Address of the recipient",
          "token": "Address of ERC20 token contract"
        }
      }
    }
  },
  "userdoc": {
    "methods": {
      "deposit(bytes)": {
        "notice": "Deposits approved amount of ERC20 token(s) into the contract Once the deposit is recognized, the owner (depositor) can transact on the OmiseGO Network The approve function of the ERC20 token contract must be called before calling this function for at least the amount that is deposited into the contract"
      },
      "getEffectiveDepositVerifier()": {
        "notice": "Retrieves the currently effective deposit verifier contract address"
      },
      "setDepositVerifier(address)": {
        "notice": "Sets the deposit verifier contract, which may be called only by the operator"
      },
      "withdraw(address,address,uint256)": {
        "notice": "Withdraw ERC20 tokens that have successfully exited from the OmiseGO Network"
      }
    }
  }
}