{
  "contractName": "Erc20Vault",
  "abi": [
    {
      "constant": true,
      "inputs": [
        {
          "internalType": "uint256",
          "name": "",
          "type": "uint256"
        }
      ],
      "name": "depositVerifiers",
      "outputs": [
        {
          "internalType": "address",
          "name": "",
          "type": "address"
        }
      ],
      "payable": false,
      "stateMutability": "view",
      "type": "function"
    },
    {
      "constant": false,
      "inputs": [
        {
          "internalType": "address",
          "name": "_verifier",
          "type": "address"
        }
      ],
      "name": "setDepositVerifier",
      "outputs": [],
      "payable": false,
      "stateMutability": "nonpayable",
      "type": "function"
    },
    {
      "constant": true,
      "inputs": [],
      "name": "getEffectiveDepositVerifier",
      "outputs": [
        {
          "internalType": "address",
          "name": "",
          "type": "address"
        }
      ],
      "payable": false,
      "stateMutability": "view",
      "type": "function"
    },
    {
      "constant": true,
      "inputs": [],
      "name": "operator",
      "outputs": [
        {
          "internalType": "address",
          "name": "",
          "type": "address"
        }
      ],
      "payable": false,
      "stateMutability": "view",
      "type": "function"
    },
    {
      "constant": true,
      "inputs": [],
      "name": "newDepositVerifierMaturityTimestamp",
      "outputs": [
        {
          "internalType": "uint256",
          "name": "",
          "type": "uint256"
        }
      ],
      "payable": false,
      "stateMutability": "view",
      "type": "function"
    },
    {
      "inputs": [
        {
          "internalType": "contract PlasmaFramework",
          "name": "_framework",
          "type": "address"
        }
      ],
      "payable": false,
      "stateMutability": "nonpayable",
      "type": "constructor"
    },
    {
      "anonymous": false,
      "inputs": [
        {
          "indexed": true,
          "internalType": "address payable",
          "name": "receiver",
          "type": "address"
        },
        {
          "indexed": true,
          "internalType": "address",
          "name": "token",
          "type": "address"
        },
        {
          "indexed": false,
          "internalType": "uint256",
          "name": "amount",
          "type": "uint256"
        }
      ],
      "name": "Erc20Withdrawn",
      "type": "event"
    },
    {
      "anonymous": false,
      "inputs": [
        {
          "indexed": true,
          "internalType": "address",
          "name": "depositor",
          "type": "address"
        },
        {
          "indexed": true,
          "internalType": "uint256",
          "name": "blknum",
          "type": "uint256"
        },
        {
          "indexed": true,
          "internalType": "address",
          "name": "token",
          "type": "address"
        },
        {
          "indexed": false,
          "internalType": "uint256",
          "name": "amount",
          "type": "uint256"
        }
      ],
      "name": "DepositCreated",
      "type": "event"
    },
    {
      "anonymous": false,
      "inputs": [
        {
          "indexed": false,
          "internalType": "address",
          "name": "nextDepositVerifier",
          "type": "address"
        }
      ],
      "name": "SetDepositVerifierCalled",
      "type": "event"
    },
    {
      "constant": false,
      "inputs": [
        {
          "internalType": "bytes",
          "name": "depositTx",
          "type": "bytes"
        }
      ],
      "name": "deposit",
      "outputs": [],
      "payable": false,
      "stateMutability": "nonpayable",
      "type": "function"
    },
    {
      "constant": false,
      "inputs": [
        {
          "internalType": "address payable",
          "name": "receiver",
          "type": "address"
        },
        {
          "internalType": "address",
          "name": "token",
          "type": "address"
        },
        {
          "internalType": "uint256",
          "name": "amount",
          "type": "uint256"
        }
      ],
      "name": "withdraw",
      "outputs": [],
      "payable": false,
      "stateMutability": "nonpayable",
      "type": "function"
    }
  ],
  "bytecode": "0x60806040527f800000000000000000000000000000000000000000000000000000000000000060145534801561003457600080fd5b5060405162000cfb38038062000cfb8339818101604052602081101561005957600080fd5b505160008054336001600160a01b031991821617909155600180549091166001600160a01b038316179055806100986100ae602090811b6109b517901c565b6100a6906002906010610142565b5050506101b9565b6100b6610180565b6100be610180565b604080516000602080830182905283518084038201815292840190935281519190920120905b601081101561013957818382601081106100fa57fe5b602090810291909101919091526040805180830185905280820194909452805180850382018152606090940190528251920191909120906001016100e4565b50909150505b90565b8260108101928215610170579160200282015b82811115610170578251825591602001919060010190610155565b5061017c92915061019f565b5090565b6040518061020001604052806010906020820280388339509192915050565b61013f91905b8082111561017c57600081556001016101a5565b610b3280620001c96000396000f3fe608060405234801561001057600080fd5b506004361061007d5760003560e01c8063570ca7351161005b578063570ca735146100eb57806398b1e06a146100f3578063a7e5994f14610163578063d9caed121461017d5761007d565b806302e9b07b146100825780632c6ce78b146100bb57806352518b7f146100e3575b600080fd5b61009f6004803603602081101561009857600080fd5b50356101b3565b604080516001600160a01b039092168252519081900360200190f35b6100e1600480360360208110156100d157600080fd5b50356001600160a01b03166101d0565b005b61009f610387565b61009f6103b6565b6100e16004803603602081101561010957600080fd5b81019060208101813564010000000081111561012457600080fd5b82018360208201111561013657600080fd5b8035906020019184600183028401116401000000008311171561015857600080fd5b5090925090506103c5565b61016b610544565b60408051918252519081900360200190f35b6100e16004803603606081101561019357600080fd5b506001600160a01b0381358116916020810135909116906040013561054a565b601281600281106101c057fe5b01546001600160a01b0316905081565b6000546001600160a01b0316331461022f576040805162461bcd60e51b815260206004820152601c60248201527f4e6f74206265696e672063616c6c6564206279206f70657261746f7200000000604482015290519081900360640190fd5b6001600160a01b0381166102745760405162461bcd60e51b815260040180806020018281038252602f815260200180610aa5602f913960400191505060405180910390fd5b6012546001600160a01b03161561032c5761028d610387565b601280546001600160a01b03199081166001600160a01b0393841617909155601380549091168383161790556001546040805163d4a2b4ef60e01b81529051919092169163d4a2b4ef916004808301926020929190829003018186803b1580156102f657600080fd5b505afa15801561030a573d6000803e3d6000fd5b505050506040513d602081101561032057600080fd5b50514201601455610348565b601280546001600160a01b0319166001600160a01b0383161790555b604080516001600160a01b038316815290517f11e5a7570e0de4b31179f8c9cf5e8a1e6cfd23731ec7a5a06e3006d71dd321fd9181900360200190a150565b60006014544210156103aa57601260005b01546001600160a01b031690506103b3565b60126001610398565b90565b6000546001600160a01b031690565b60008060006103d2610387565b604051635970e69f60e11b815233602482018190523060448301819052606060048401908152606484018990526001600160a01b03949094169363b2e1cd3e938a938a93909290918190608401868680828437600081840152601f19601f8201169050808301925050509550505050505060606040518083038186803b15801561045b57600080fd5b505afa15801561046f573d6000803e3d6000fd5b505050506040513d606081101561048557600080fd5b508051602082015160409092015190945090925090506104b66001600160a01b03831684308463ffffffff61066616565b60006104f786868080601f0160208091040260200160405190810160405280939291908181526020018383808284376000920191909152506106c692505050565b6040805184815290519192506001600160a01b03851691839133917f18569122d84f30025bb8dffb33563f1bdbfb9637f21552b11b8305686e9cb3079181900360200190a4505050505050565b60145481565b60015460408051632d0816d760e11b815233600482015290516001600160a01b0390921691635a102dae91602480820192602092909190829003018186803b15801561059557600080fd5b505afa1580156105a9573d6000803e3d6000fd5b505050506040513d60208110156105bf57600080fd5b50516105fc5760405162461bcd60e51b815260040180806020018281038252603d815260200180610a68603d913960400191505060405180910390fd5b6106166001600160a01b038316848363ffffffff6107a016565b816001600160a01b0316836001600160a01b03167fcd43b20ab5058a2a0a057681c9d3754aa8971fe74dacc8b6e4be0a49dae13101836040518082815260200191505060405180910390a3505050565b604080516001600160a01b0385811660248301528416604482015260648082018490528251808303909101815260849091019091526020810180516001600160e01b03166323b872dd60e01b1790526106c09085906107f7565b50505050565b80516020820120600090815b601081101561071e5781600282601081106106e957fe5b0154604080516020808201949094528082019290925280518083038201815260609092019052805191012091506001016106d2565b50600154604080516317cb58d360e31b81526004810184905290516000926001600160a01b03169163be5ac69891602480830192602092919082900301818787803b15801561076c57600080fd5b505af1158015610780573d6000803e3d6000fd5b505050506040513d602081101561079657600080fd5b5051949350505050565b604080516001600160a01b038416602482015260448082018490528251808303909101815260649091019091526020810180516001600160e01b031663a9059cbb60e01b1790526107f29084906107f7565b505050565b610809826001600160a01b03166109af565b61085a576040805162461bcd60e51b815260206004820152601f60248201527f5361666545524332303a2063616c6c20746f206e6f6e2d636f6e747261637400604482015290519081900360640190fd5b60006060836001600160a01b0316836040518082805190602001908083835b602083106108985780518252601f199092019160209182019101610879565b6001836020036101000a0380198251168184511680821785525050505050509050019150506000604051808303816000865af19150503d80600081146108fa576040519150601f19603f3d011682016040523d82523d6000602084013e6108ff565b606091505b509150915081610956576040805162461bcd60e51b815260206004820181905260248201527f5361666545524332303a206c6f772d6c6576656c2063616c6c206661696c6564604482015290519081900360640190fd5b8051156106c05780806020019051602081101561097257600080fd5b50516106c05760405162461bcd60e51b815260040180806020018281038252602a815260200180610ad4602a913960400191505060405180910390fd5b3b151590565b6109bd610a48565b6109c5610a48565b604080516000602080830182905283518084038201815292840190935281519190920120905b6010811015610a405781838260108110610a0157fe5b602090810291909101919091526040805180830185905280820194909452805180850382018152606090940190528251920191909120906001016109eb565b509091505090565b604051806102000160405280601090602082028038833950919291505056fe43616c6c65642066726f6d2061206e6f6e72656769737465726564206f722071756172616e74696e656420457869742047616d6520636f6e747261637443616e6e6f742073657420616e20656d7074792061646472657373206173206465706f7369742076657269666965725361666545524332303a204552433230206f7065726174696f6e20646964206e6f742073756363656564a265627a7a723158207bb6959d364b10d2734afeb8ab7341a70d421c694d8c2cf70c05e4e7fe89d92364736f6c634300050b0032",
  "source": "pragma solidity 0.5.11;\n\nimport \"./Vault.sol\";\nimport \"./verifiers/IErc20DepositVerifier.sol\";\nimport \"../framework/PlasmaFramework.sol\";\n\nimport \"openzeppelin-solidity/contracts/token/ERC20/IERC20.sol\";\nimport \"openzeppelin-solidity/contracts/token/ERC20/SafeERC20.sol\";\n\ncontract Erc20Vault is Vault {\n    using SafeERC20 for IERC20;\n\n    event Erc20Withdrawn(\n        address payable indexed receiver,\n        address indexed token,\n        uint256 amount\n    );\n\n    event DepositCreated(\n        address indexed depositor,\n        uint256 indexed blknum,\n        address indexed token,\n        uint256 amount\n    );\n\n    constructor(PlasmaFramework _framework) public Vault(_framework) {}\n\n    /**\n     * @notice Deposits approved amount of ERC20 token(s) into the contract.\n     * Once the deposit is recognized, the owner (depositor) is able to make transactions on the OMG network.\n     * The approve function of the ERC20 token contract needs to be called before this function is called\n     * for at least the amount that is deposited into the contract.\n     * @param depositTx RLP encoded transaction to act as the deposit.\n     */\n    function deposit(bytes calldata depositTx) external {\n        (address depositor, address token, uint256 amount) = IErc20DepositVerifier(getEffectiveDepositVerifier())\n            .verify(depositTx, msg.sender, address(this));\n\n        IERC20(token).safeTransferFrom(depositor, address(this), amount);\n\n        uint256 blknum = super._submitDepositBlock(depositTx);\n\n        emit DepositCreated(msg.sender, blknum, token, amount);\n    }\n\n    /**\n    * @notice Withdraw ERC20 tokens that have been exited from the OMG network successfully.\n    * @param receiver address of the receiver\n    * @param token address of ERC20 token contract.\n    * @param amount amount to transfer.\n    */\n    function withdraw(address payable receiver, address token, uint256 amount) external onlyFromNonQuarantinedExitGame {\n        IERC20(token).safeTransfer(receiver, amount);\n        emit Erc20Withdrawn(receiver, token, amount);\n    }\n}\n",
  "sourcePath": "/Users/nocholas/plasma-contracts/plasma_framework/contracts/src/vaults/Erc20Vault.sol",
  "compiler": {
    "name": "solc",
    "version": "0.5.11+commit.c082d0b4.Emscripten.clang"
  },
  "schemaVersion": "3.0.16",
  "updatedAt": "2019-10-07T12:24:58.282Z",
  "devdoc": {
    "methods": {
      "deposit(bytes)": {
        "params": {
          "depositTx": "RLP encoded transaction to act as the deposit."
        }
      },
      "getEffectiveDepositVerifier()": {
        "return": "contract address of deposit verifier."
      },
      "setDepositVerifier(address)": {
        "details": "emit SetDepositVerifierCalledWhen one contract is already set next will be effective after MIN_EXIT_PERIOD.",
        "params": {
          "_verifier": "address of the verifier contract."
        }
      },
      "withdraw(address,address,uint256)": {
        "params": {
          "amount": "amount to transfer.",
          "receiver": "address of the receiver",
          "token": "address of ERC20 token contract."
        }
      }
    }
  },
  "userdoc": {
    "methods": {
      "deposit(bytes)": {
        "notice": "Deposits approved amount of ERC20 token(s) into the contract. Once the deposit is recognized, the owner (depositor) is able to make transactions on the OMG network. The approve function of the ERC20 token contract needs to be called before this function is called for at least the amount that is deposited into the contract."
      },
      "getEffectiveDepositVerifier()": {
        "notice": "Gets currently effective deposit verifier contract address."
      },
      "setDepositVerifier(address)": {
        "notice": "Sets the deposit verifier contract. This can be only called by the operator."
      },
      "withdraw(address,address,uint256)": {
        "notice": "Withdraw ERC20 tokens that have been exited from the OMG network successfully."
      }
    }
  }
}