{
  "contractName": "EthVault",
  "abi": [
    {
      "constant": true,
      "inputs": [
        {
          "internalType": "uint256",
          "name": "",
          "type": "uint256"
        }
      ],
      "name": "depositVerifiers",
      "outputs": [
        {
          "internalType": "address",
          "name": "",
          "type": "address"
        }
      ],
      "payable": false,
      "stateMutability": "view",
      "type": "function"
    },
    {
      "constant": false,
      "inputs": [
        {
          "internalType": "address",
          "name": "_verifier",
          "type": "address"
        }
      ],
      "name": "setDepositVerifier",
      "outputs": [],
      "payable": false,
      "stateMutability": "nonpayable",
      "type": "function"
    },
    {
      "constant": true,
      "inputs": [],
      "name": "getEffectiveDepositVerifier",
      "outputs": [
        {
          "internalType": "address",
          "name": "",
          "type": "address"
        }
      ],
      "payable": false,
      "stateMutability": "view",
      "type": "function"
    },
    {
      "constant": true,
      "inputs": [],
      "name": "operator",
      "outputs": [
        {
          "internalType": "address",
          "name": "",
          "type": "address"
        }
      ],
      "payable": false,
      "stateMutability": "view",
      "type": "function"
    },
    {
      "constant": true,
      "inputs": [],
      "name": "newDepositVerifierMaturityTimestamp",
      "outputs": [
        {
          "internalType": "uint256",
          "name": "",
          "type": "uint256"
        }
      ],
      "payable": false,
      "stateMutability": "view",
      "type": "function"
    },
    {
      "inputs": [
        {
          "internalType": "contract PlasmaFramework",
          "name": "_framework",
          "type": "address"
        }
      ],
      "payable": false,
      "stateMutability": "nonpayable",
      "type": "constructor"
    },
    {
      "anonymous": false,
      "inputs": [
        {
          "indexed": true,
          "internalType": "address payable",
          "name": "receiver",
          "type": "address"
        },
        {
          "indexed": false,
          "internalType": "uint256",
          "name": "amount",
          "type": "uint256"
        }
      ],
      "name": "EthWithdrawn",
      "type": "event"
    },
    {
      "anonymous": false,
      "inputs": [
        {
          "indexed": true,
          "internalType": "address",
          "name": "depositor",
          "type": "address"
        },
        {
          "indexed": true,
          "internalType": "uint256",
          "name": "blknum",
          "type": "uint256"
        },
        {
          "indexed": true,
          "internalType": "address",
          "name": "token",
          "type": "address"
        },
        {
          "indexed": false,
          "internalType": "uint256",
          "name": "amount",
          "type": "uint256"
        }
      ],
      "name": "DepositCreated",
      "type": "event"
    },
    {
      "anonymous": false,
      "inputs": [
        {
          "indexed": false,
          "internalType": "address",
          "name": "nextDepositVerifier",
          "type": "address"
        }
      ],
      "name": "SetDepositVerifierCalled",
      "type": "event"
    },
    {
      "constant": false,
      "inputs": [
        {
          "internalType": "bytes",
          "name": "_depositTx",
          "type": "bytes"
        }
      ],
      "name": "deposit",
      "outputs": [],
      "payable": true,
      "stateMutability": "payable",
      "type": "function"
    },
    {
      "constant": false,
      "inputs": [
        {
          "internalType": "address payable",
          "name": "receiver",
          "type": "address"
        },
        {
          "internalType": "uint256",
          "name": "amount",
          "type": "uint256"
        }
      ],
      "name": "withdraw",
      "outputs": [],
      "payable": false,
      "stateMutability": "nonpayable",
      "type": "function"
    }
  ],
  "bytecode": "0x60806040527f800000000000000000000000000000000000000000000000000000000000000060145534801561003457600080fd5b50604051610a55380380610a558339818101604052602081101561005757600080fd5b505160008054336001600160a01b031991821617909155600180549091166001600160a01b038316179055806100966100ac602090811b61073c17901c565b6100a4906002906010610140565b5050506101b7565b6100b461017e565b6100bc61017e565b604080516000602080830182905283518084038201815292840190935281519190920120905b601081101561013757818382601081106100f857fe5b602090810291909101919091526040805180830185905280820194909452805180850382018152606090940190528251920191909120906001016100e2565b50909150505b90565b826010810192821561016e579160200282015b8281111561016e578251825591602001919060010190610153565b5061017a92915061019d565b5090565b6040518061020001604052806010906020820280388339509192915050565b61013d91905b8082111561017a57600081556001016101a3565b61088f806101c66000396000f3fe6080604052600436106100705760003560e01c8063570ca7351161004e578063570ca7351461010557806398b1e06a1461011a578063a7e5994f1461018a578063f3fef3a3146101b157610070565b806302e9b07b146100755780632c6ce78b146100bb57806352518b7f146100f0575b600080fd5b34801561008157600080fd5b5061009f6004803603602081101561009857600080fd5b50356101ea565b604080516001600160a01b039092168252519081900360200190f35b3480156100c757600080fd5b506100ee600480360360208110156100de57600080fd5b50356001600160a01b0316610207565b005b3480156100fc57600080fd5b5061009f6103be565b34801561011157600080fd5b5061009f6103ed565b6100ee6004803603602081101561013057600080fd5b81019060208101813564010000000081111561014b57600080fd5b82018360208201111561015d57600080fd5b8035906020019184600183028401116401000000008311171561017f57600080fd5b5090925090506103fc565b34801561019657600080fd5b5061019f610530565b60408051918252519081900360200190f35b3480156101bd57600080fd5b506100ee600480360360408110156101d457600080fd5b506001600160a01b038135169060200135610536565b601281600281106101f757fe5b01546001600160a01b0316905081565b6000546001600160a01b03163314610266576040805162461bcd60e51b815260206004820152601c60248201527f4e6f74206265696e672063616c6c6564206279206f70657261746f7200000000604482015290519081900360640190fd5b6001600160a01b0381166102ab5760405162461bcd60e51b815260040180806020018281038252602f81526020018061082c602f913960400191505060405180910390fd5b6012546001600160a01b031615610363576102c46103be565b601280546001600160a01b03199081166001600160a01b0393841617909155601380549091168383161790556001546040805163d4a2b4ef60e01b81529051919092169163d4a2b4ef916004808301926020929190829003018186803b15801561032d57600080fd5b505afa158015610341573d6000803e3d6000fd5b505050506040513d602081101561035757600080fd5b5051420160145561037f565b601280546001600160a01b0319166001600160a01b0383161790555b604080516001600160a01b038316815290517f11e5a7570e0de4b31179f8c9cf5e8a1e6cfd23731ec7a5a06e3006d71dd321fd9181900360200190a150565b60006014544210156103e157601260005b01546001600160a01b031690506103ea565b601260016103cf565b90565b6000546001600160a01b031690565b6104046103be565b6001600160a01b031663aee150c7838334336040518563ffffffff1660e01b81526004018080602001848152602001836001600160a01b03166001600160a01b031681526020018281038252868682818152602001925080828437600081840152601f19601f8201169050808301925050509550505050505060006040518083038186803b15801561049557600080fd5b505afa1580156104a9573d6000803e3d6000fd5b5050505060006104ee83838080601f01602080910402602001604051908101604052809392919081815260200183838082843760009201919091525061066292505050565b604080513481529051919250600091839133917f18569122d84f30025bb8dffb33563f1bdbfb9637f21552b11b8305686e9cb3079181900360200190a4505050565b60145481565b60015460408051632d0816d760e11b815233600482015290516001600160a01b0390921691635a102dae91602480820192602092909190829003018186803b15801561058157600080fd5b505afa158015610595573d6000803e3d6000fd5b505050506040513d60208110156105ab57600080fd5b50516105e85760405162461bcd60e51b815260040180806020018281038252603d8152602001806107ef603d913960400191505060405180910390fd5b6040516001600160a01b0383169082156108fc029083906000818181858888f1935050505015801561061e573d6000803e3d6000fd5b506040805182815290516001600160a01b038416917f8455ae6be5d92f1df1c3c1484388e247a36c7e60d72055ae216dbc258f257d4b919081900360200190a25050565b80516020820120600090815b60108110156106ba57816002826010811061068557fe5b01546040805160208082019490945280820192909252805180830382018152606090920190528051910120915060010161066e565b50600154604080516317cb58d360e31b81526004810184905290516000926001600160a01b03169163be5ac69891602480830192602092919082900301818787803b15801561070857600080fd5b505af115801561071c573d6000803e3d6000fd5b505050506040513d602081101561073257600080fd5b5051949350505050565b6107446107cf565b61074c6107cf565b604080516000602080830182905283518084038201815292840190935281519190920120905b60108110156107c7578183826010811061078857fe5b60209081029190910191909152604080518083018590528082019490945280518085038201815260609094019052825192019190912090600101610772565b509091505090565b604051806102000160405280601090602082028038833950919291505056fe43616c6c65642066726f6d2061206e6f6e72656769737465726564206f722071756172616e74696e656420457869742047616d6520636f6e747261637443616e6e6f742073657420616e20656d7074792061646472657373206173206465706f736974207665726966696572a265627a7a7231582068b086a47d8e5e0495591a6d88b9db2f790a83c7f3a6eb93e4a6d480ed36922964736f6c634300050b0032",
  "source": "pragma solidity 0.5.11;\n\nimport \"./Vault.sol\";\nimport \"./verifiers/IEthDepositVerifier.sol\";\nimport \"../framework/PlasmaFramework.sol\";\n\ncontract EthVault is Vault {\n    event EthWithdrawn(\n        address payable indexed receiver,\n        uint256 amount\n    );\n\n    event DepositCreated(\n        address indexed depositor,\n        uint256 indexed blknum,\n        address indexed token,\n        uint256 amount\n    );\n\n    constructor(PlasmaFramework _framework) public Vault(_framework) {}\n\n    /**\n     * @notice Allows a user to deposit ETH into the contract.\n     * Once the deposit is recognized, the owner is able to make transactions on the OMG network.\n     * @param _depositTx RLP encoded transaction to act as the deposit.\n     */\n    function deposit(bytes calldata _depositTx) external payable {\n        IEthDepositVerifier(getEffectiveDepositVerifier()).verify(_depositTx, msg.value, msg.sender);\n        uint256 blknum = super._submitDepositBlock(_depositTx);\n\n        emit DepositCreated(msg.sender, blknum, address(0), msg.value);\n    }\n\n    /**\n    * @notice Withdraw ETH that have been exited from the OMG network successfully.\n    * @param receiver address of the transferee\n    * @param amount amount of eth to transfer.\n    */\n    function withdraw(address payable receiver, uint256 amount) external onlyFromNonQuarantinedExitGame {\n        receiver.transfer(amount);\n        emit EthWithdrawn(receiver, amount);\n    }\n}\n",
  "sourcePath": "/Users/nocholas/plasma-contracts/plasma_framework/contracts/src/vaults/EthVault.sol",
  "compiler": {
    "name": "solc",
    "version": "0.5.11+commit.c082d0b4.Emscripten.clang"
  },
  "schemaVersion": "3.0.16",
  "updatedAt": "2019-10-07T12:24:58.285Z",
  "devdoc": {
    "methods": {
      "deposit(bytes)": {
        "params": {
          "_depositTx": "RLP encoded transaction to act as the deposit."
        }
      },
      "getEffectiveDepositVerifier()": {
        "return": "contract address of deposit verifier."
      },
      "setDepositVerifier(address)": {
        "details": "emit SetDepositVerifierCalledWhen one contract is already set next will be effective after MIN_EXIT_PERIOD.",
        "params": {
          "_verifier": "address of the verifier contract."
        }
      },
      "withdraw(address,uint256)": {
        "params": {
          "amount": "amount of eth to transfer.",
          "receiver": "address of the transferee"
        }
      }
    }
  },
  "userdoc": {
    "methods": {
      "deposit(bytes)": {
        "notice": "Allows a user to deposit ETH into the contract. Once the deposit is recognized, the owner is able to make transactions on the OMG network."
      },
      "getEffectiveDepositVerifier()": {
        "notice": "Gets currently effective deposit verifier contract address."
      },
      "setDepositVerifier(address)": {
        "notice": "Sets the deposit verifier contract. This can be only called by the operator."
      },
      "withdraw(address,uint256)": {
        "notice": "Withdraw ETH that have been exited from the OMG network successfully."
      }
    }
  }
}