{
  "contractName": "EthVault",
  "abi": [
    {
      "constant": true,
      "inputs": [
        {
          "internalType": "uint256",
          "name": "",
          "type": "uint256"
        }
      ],
      "name": "depositVerifiers",
      "outputs": [
        {
          "internalType": "address",
          "name": "",
          "type": "address"
        }
      ],
      "payable": false,
      "stateMutability": "view",
      "type": "function"
    },
    {
      "constant": false,
      "inputs": [
        {
          "internalType": "address",
          "name": "_verifier",
          "type": "address"
        }
      ],
      "name": "setDepositVerifier",
      "outputs": [],
      "payable": false,
      "stateMutability": "nonpayable",
      "type": "function"
    },
    {
      "constant": true,
      "inputs": [],
      "name": "getEffectiveDepositVerifier",
      "outputs": [
        {
          "internalType": "address",
          "name": "",
          "type": "address"
        }
      ],
      "payable": false,
      "stateMutability": "view",
      "type": "function"
    },
    {
      "constant": true,
      "inputs": [],
      "name": "newDepositVerifierMaturityTimestamp",
      "outputs": [
        {
          "internalType": "uint256",
          "name": "",
          "type": "uint256"
        }
      ],
      "payable": false,
      "stateMutability": "view",
      "type": "function"
    },
    {
      "inputs": [
        {
          "internalType": "contract PlasmaFramework",
          "name": "_framework",
          "type": "address"
        }
      ],
      "payable": false,
      "stateMutability": "nonpayable",
      "type": "constructor"
    },
    {
      "anonymous": false,
      "inputs": [
        {
          "indexed": true,
          "internalType": "address",
          "name": "receiver",
          "type": "address"
        },
        {
          "indexed": false,
          "internalType": "uint256",
          "name": "amount",
          "type": "uint256"
        }
      ],
      "name": "EthWithdrawn",
      "type": "event"
    },
    {
      "anonymous": false,
      "inputs": [
        {
          "indexed": true,
          "internalType": "address",
          "name": "receiver",
          "type": "address"
        },
        {
          "indexed": false,
          "internalType": "uint256",
          "name": "amount",
          "type": "uint256"
        }
      ],
      "name": "WithdrawFailed",
      "type": "event"
    },
    {
      "anonymous": false,
      "inputs": [
        {
          "indexed": true,
          "internalType": "address",
          "name": "depositor",
          "type": "address"
        },
        {
          "indexed": true,
          "internalType": "uint256",
          "name": "blknum",
          "type": "uint256"
        },
        {
          "indexed": true,
          "internalType": "address",
          "name": "token",
          "type": "address"
        },
        {
          "indexed": false,
          "internalType": "uint256",
          "name": "amount",
          "type": "uint256"
        }
      ],
      "name": "DepositCreated",
      "type": "event"
    },
    {
      "anonymous": false,
      "inputs": [
        {
          "indexed": false,
          "internalType": "address",
          "name": "nextDepositVerifier",
          "type": "address"
        }
      ],
      "name": "SetDepositVerifierCalled",
      "type": "event"
    },
    {
      "constant": false,
      "inputs": [
        {
          "internalType": "bytes",
          "name": "_depositTx",
          "type": "bytes"
        }
      ],
      "name": "deposit",
      "outputs": [],
      "payable": true,
      "stateMutability": "payable",
      "type": "function"
    },
    {
      "constant": false,
      "inputs": [
        {
          "internalType": "address payable",
          "name": "receiver",
          "type": "address"
        },
        {
          "internalType": "uint256",
          "name": "amount",
          "type": "uint256"
        }
      ],
      "name": "withdraw",
      "outputs": [],
      "payable": false,
      "stateMutability": "nonpayable",
      "type": "function"
    }
  ],
  "bytecode": "0x60806040527f800000000000000000000000000000000000000000000000000000000000000060135534801561003457600080fd5b50604051610aeb380380610aeb8339818101604052602081101561005757600080fd5b5051600080546001600160a01b0319166001600160a01b0383161790558061008861009e602090811b6107df17901c565b610096906001906010610132565b5050506101a9565b6100a6610170565b6100ae610170565b604080516000602080830182905283518084038201815292840190935281519190920120905b601081101561012957818382601081106100ea57fe5b602090810291909101919091526040805180830185905280820194909452805180850382018152606090940190528251920191909120906001016100d4565b50909150505b90565b8260108101928215610160579160200282015b82811115610160578251825591602001919060010190610145565b5061016c92915061018f565b5090565b6040518061020001604052806010906020820280388339509192915050565b61012f91905b8082111561016c5760008155600101610195565b610933806101b86000396000f3fe6080604052600436106100555760003560e01c806302e9b07b1461005a5780632c6ce78b146100a057806352518b7f146100d557806398b1e06a146100ea578063a7e5994f1461015a578063f3fef3a314610181575b600080fd5b34801561006657600080fd5b506100846004803603602081101561007d57600080fd5b50356101ba565b604080516001600160a01b039092168252519081900360200190f35b3480156100ac57600080fd5b506100d3600480360360208110156100c357600080fd5b50356001600160a01b03166101d7565b005b3480156100e157600080fd5b50610084610406565b6100d36004803603602081101561010057600080fd5b81019060208101813564010000000081111561011b57600080fd5b82018360208201111561012d57600080fd5b8035906020019184600183028401116401000000008311171561014f57600080fd5b509092509050610435565b34801561016657600080fd5b5061016f610569565b60408051918252519081900360200190f35b34801561018d57600080fd5b506100d3600480360360408110156101a457600080fd5b506001600160a01b03813516906020013561056f565b601181600281106101c757fe5b01546001600160a01b0316905081565b6000809054906101000a90046001600160a01b03166001600160a01b0316634b0a72bc6040518163ffffffff1660e01b815260040160206040518083038186803b15801561022457600080fd5b505afa158015610238573d6000803e3d6000fd5b505050506040513d602081101561024e57600080fd5b5051336001600160a01b038216146102ad576040805162461bcd60e51b815260206004820152601e60248201527f43616c6c6572206164647265737320697320756e617574686f72697a65640000604482015290519081900360640190fd5b6001600160a01b0382166102f25760405162461bcd60e51b815260040180806020018281038252602f815260200180610892602f913960400191505060405180910390fd5b6011546001600160a01b0316156103aa5761030b610406565b601180546001600160a01b03199081166001600160a01b0393841617909155601280549091168483161790556000546040805163d4a2b4ef60e01b81529051919092169163d4a2b4ef916004808301926020929190829003018186803b15801561037457600080fd5b505afa158015610388573d6000803e3d6000fd5b505050506040513d602081101561039e57600080fd5b505142016013556103c6565b601180546001600160a01b0319166001600160a01b0384161790555b604080516001600160a01b038416815290517f11e5a7570e0de4b31179f8c9cf5e8a1e6cfd23731ec7a5a06e3006d71dd321fd9181900360200190a15050565b600060135442101561042957601160005b01546001600160a01b03169050610432565b60116001610417565b90565b61043d610406565b6001600160a01b031663aee150c7838334336040518563ffffffff1660e01b81526004018080602001848152602001836001600160a01b03166001600160a01b031681526020018281038252868682818152602001925080828437600081840152601f19601f8201169050808301925050509550505050505060006040518083038186803b1580156104ce57600080fd5b505afa1580156104e2573d6000803e3d6000fd5b50505050600061052783838080601f01602080910402602001604051908101604052809392919081815260200183838082843760009201919091525061070492505050565b604080513481529051919250600091839133917f18569122d84f30025bb8dffb33563f1bdbfb9637f21552b11b8305686e9cb3079181900360200190a4505050565b60135481565b60005460408051632d0816d760e11b815233600482015290516001600160a01b0390921691635a102dae91602480820192602092909190829003018186803b1580156105ba57600080fd5b505afa1580156105ce573d6000803e3d6000fd5b505050506040513d60208110156105e457600080fd5b50516106215760405162461bcd60e51b815260040180806020018281038252603e8152602001806108c1603e913960400191505060405180910390fd5b6040516000906001600160a01b0384169083908381818185875af1925050503d806000811461066c576040519150601f19603f3d011682016040523d82523d6000602084013e610671565b606091505b5050905080156106bf576040805183815290516001600160a01b038516917f8455ae6be5d92f1df1c3c1484388e247a36c7e60d72055ae216dbc258f257d4b919081900360200190a26106ff565b6040805183815290516001600160a01b038516917fa2269912b47133fae1d7f448c9284ea248951ac29b8c7c41d301f8721a38d10d919081900360200190a25b505050565b80516020820120600090815b601081101561075c57816001826010811061072757fe5b015460408051602080820194909452808201929092528051808303820181526060909201905280519101209150600101610710565b5060008054604080516317cb58d360e31b81526004810185905290516001600160a01b039092169163be5ac6989160248082019260209290919082900301818787803b1580156107ab57600080fd5b505af11580156107bf573d6000803e3d6000fd5b505050506040513d60208110156107d557600080fd5b5051949350505050565b6107e7610872565b6107ef610872565b604080516000602080830182905283518084038201815292840190935281519190920120905b601081101561086a578183826010811061082b57fe5b60209081029190910191909152604080518083018590528082019490945280518085038201815260609094019052825192019190912090600101610815565b509091505090565b604051806102000160405280601090602082028038833950919291505056fe43616e6e6f742073657420616e20656d7074792061646472657373206173206465706f73697420766572696669657243616c6c65642066726f6d2061206e6f6e2d72656769737465726564206f722071756172616e74696e656420657869742067616d6520636f6e7472616374a265627a7a723158207853cccd9b7127b4cfafa16ab7fd9885f3c9505bef07d3446872c3b80dd6edf864736f6c634300050b0032",
  "source": "pragma solidity 0.5.11;\n\nimport \"./Vault.sol\";\nimport \"./verifiers/IEthDepositVerifier.sol\";\nimport \"../framework/PlasmaFramework.sol\";\n\ncontract EthVault is Vault {\n    event EthWithdrawn(\n        address indexed receiver,\n        uint256 amount\n    );\n\n    event WithdrawFailed(\n        address indexed receiver,\n        uint256 amount\n    );\n\n    event DepositCreated(\n        address indexed depositor,\n        uint256 indexed blknum,\n        address indexed token,\n        uint256 amount\n    );\n\n    constructor(PlasmaFramework _framework) public Vault(_framework) {}\n\n    /**\n     * @notice Allows a user to deposit ETH into the contract\n     * Once the deposit is recognized, the owner may transact on the OmiseGO Network\n     * @param _depositTx RLP-encoded transaction to act as the deposit\n     */\n    function deposit(bytes calldata _depositTx) external payable {\n        IEthDepositVerifier(getEffectiveDepositVerifier()).verify(_depositTx, msg.value, msg.sender);\n        uint256 blknum = super._submitDepositBlock(_depositTx);\n\n        emit DepositCreated(msg.sender, blknum, address(0), msg.value);\n    }\n\n    /**\n    * @notice Withdraw ETH that has successfully exited from the OmiseGO Network\n    * @param receiver Address of the recipient\n    * @param amount The amount of ETH to transfer\n    */\n    function withdraw(address payable receiver, uint256 amount) external onlyFromNonQuarantinedExitGame {\n        // we do not want to block exit queue if transfer is unucessful\n        // solhint-disable-next-line avoid-call-value\n        (bool success, ) = receiver.call.value(amount)(\"\");\n        if (success) {\n            emit EthWithdrawn(receiver, amount);\n        } else {\n            emit WithdrawFailed(receiver, amount);\n        }\n    }\n}\n",
  "sourcePath": "/Users/jarindr/plasma-contracts/plasma_framework/contracts/src/vaults/EthVault.sol",
  "compiler": {
    "name": "solc",
    "version": "0.5.11+commit.c082d0b4.Emscripten.clang"
  },
  "schemaVersion": "3.0.16",
  "updatedAt": "2019-11-08T14:10:36.676Z",
  "devdoc": {
    "methods": {
      "deposit(bytes)": {
        "params": {
          "_depositTx": "RLP-encoded transaction to act as the deposit"
        }
      },
      "getEffectiveDepositVerifier()": {
        "return": "Contract address of the deposit verifier"
      },
      "setDepositVerifier(address)": {
        "details": "emit SetDepositVerifierCalledWhen one contract is already set, the next one is effective after MIN_EXIT_PERIOD",
        "params": {
          "_verifier": "Address of the verifier contract"
        }
      },
      "withdraw(address,uint256)": {
        "params": {
          "amount": "The amount of ETH to transfer",
          "receiver": "Address of the recipient"
        }
      }
    }
  },
  "userdoc": {
    "methods": {
      "deposit(bytes)": {
        "notice": "Allows a user to deposit ETH into the contract Once the deposit is recognized, the owner may transact on the OmiseGO Network"
      },
      "getEffectiveDepositVerifier()": {
        "notice": "Retrieves the currently effective deposit verifier contract address"
      },
      "setDepositVerifier(address)": {
        "notice": "Sets the deposit verifier contract, which may be called only by the operator"
      },
      "withdraw(address,uint256)": {
        "notice": "Withdraw ETH that has successfully exited from the OmiseGO Network"
      }
    }
  }
}