{
  "contractName": "PaymentExitGame",
  "abi": [
    {
      "constant": false,
      "inputs": [
        {
          "internalType": "uint128",
          "name": "newBondSize",
          "type": "uint128"
        }
      ],
      "name": "updateStartStandardExitBondSize",
      "outputs": [],
      "payable": false,
      "stateMutability": "nonpayable",
      "type": "function"
    },
    {
      "constant": false,
      "inputs": [
        {
          "components": [
            {
              "internalType": "bytes",
              "name": "inFlightTx",
              "type": "bytes"
            },
            {
              "internalType": "uint16",
              "name": "inFlightTxInputIndex",
              "type": "uint16"
            },
            {
              "internalType": "bytes",
              "name": "challengingTx",
              "type": "bytes"
            },
            {
              "internalType": "uint16",
              "name": "challengingTxInputIndex",
              "type": "uint16"
            },
            {
              "internalType": "bytes",
              "name": "challengingTxWitness",
              "type": "bytes"
            },
            {
              "internalType": "bytes",
              "name": "inputTx",
              "type": "bytes"
            },
            {
              "internalType": "uint256",
              "name": "inputUtxoPos",
              "type": "uint256"
            },
            {
              "internalType": "bytes",
              "name": "spendingConditionOptionalArgs",
              "type": "bytes"
            }
          ],
          "internalType": "struct PaymentInFlightExitRouterArgs.ChallengeInputSpentArgs",
          "name": "args",
          "type": "tuple"
        }
      ],
      "name": "challengeInFlightExitInputSpent",
      "outputs": [],
      "payable": false,
      "stateMutability": "nonpayable",
      "type": "function"
    },
    {
      "constant": false,
      "inputs": [
        {
          "internalType": "uint128",
          "name": "newBondSize",
          "type": "uint128"
        }
      ],
      "name": "updatePiggybackBondSize",
      "outputs": [],
      "payable": false,
      "stateMutability": "nonpayable",
      "type": "function"
    },
    {
      "constant": false,
      "inputs": [
        {
          "internalType": "bytes",
          "name": "inFlightTx",
          "type": "bytes"
        },
        {
          "internalType": "uint256",
          "name": "inFlightTxPos",
          "type": "uint256"
        },
        {
          "internalType": "bytes",
          "name": "inFlightTxInclusionProof",
          "type": "bytes"
        }
      ],
      "name": "respondToNonCanonicalChallenge",
      "outputs": [],
      "payable": false,
      "stateMutability": "nonpayable",
      "type": "function"
    },
    {
      "constant": true,
      "inputs": [],
      "name": "piggybackBondSize",
      "outputs": [
        {
          "internalType": "uint128",
          "name": "",
          "type": "uint128"
        }
      ],
      "payable": false,
      "stateMutability": "view",
      "type": "function"
    },
    {
      "constant": true,
      "inputs": [
        {
          "internalType": "uint160",
          "name": "exitId",
          "type": "uint160"
        }
      ],
      "name": "standardExits",
      "outputs": [
        {
          "components": [
            {
              "internalType": "bool",
              "name": "exitable",
              "type": "bool"
            },
            {
              "internalType": "uint256",
              "name": "utxoPos",
              "type": "uint256"
            },
            {
              "internalType": "bytes32",
              "name": "outputId",
              "type": "bytes32"
            },
            {
              "internalType": "address payable",
              "name": "exitTarget",
              "type": "address"
            },
            {
              "internalType": "uint256",
              "name": "amount",
              "type": "uint256"
            },
            {
              "internalType": "uint256",
              "name": "bondSize",
              "type": "uint256"
            }
          ],
          "internalType": "struct PaymentExitDataModel.StandardExit",
          "name": "",
          "type": "tuple"
        }
      ],
      "payable": false,
      "stateMutability": "view",
      "type": "function"
    },
    {
      "constant": true,
      "inputs": [],
      "name": "startIFEBondSize",
      "outputs": [
        {
          "internalType": "uint128",
          "name": "",
          "type": "uint128"
        }
      ],
      "payable": false,
      "stateMutability": "view",
      "type": "function"
    },
    {
      "constant": true,
      "inputs": [],
      "name": "INITIAL_PB_BOND_SIZE",
      "outputs": [
        {
          "internalType": "uint128",
          "name": "",
          "type": "uint128"
        }
      ],
      "payable": false,
      "stateMutability": "view",
      "type": "function"
    },
    {
      "constant": false,
      "inputs": [
        {
          "components": [
            {
              "internalType": "uint160",
              "name": "exitId",
              "type": "uint160"
            },
            {
              "internalType": "bytes",
              "name": "exitingTx",
              "type": "bytes"
            },
            {
              "internalType": "bytes",
              "name": "challengeTx",
              "type": "bytes"
            },
            {
              "internalType": "uint16",
              "name": "inputIndex",
              "type": "uint16"
            },
            {
              "internalType": "bytes",
              "name": "witness",
              "type": "bytes"
            },
            {
              "internalType": "bytes",
              "name": "spendingConditionOptionalArgs",
              "type": "bytes"
            },
            {
              "internalType": "bytes",
              "name": "outputGuardPreimage",
              "type": "bytes"
            },
            {
              "internalType": "uint256",
              "name": "challengeTxPos",
              "type": "uint256"
            },
            {
              "internalType": "bytes",
              "name": "challengeTxInclusionProof",
              "type": "bytes"
            },
            {
              "internalType": "bytes",
              "name": "challengeTxConfirmSig",
              "type": "bytes"
            }
          ],
          "internalType": "struct PaymentStandardExitRouterArgs.ChallengeStandardExitArgs",
          "name": "args",
          "type": "tuple"
        }
      ],
      "name": "challengeStandardExit",
      "outputs": [],
      "payable": true,
      "stateMutability": "payable",
      "type": "function"
    },
    {
      "constant": false,
      "inputs": [
        {
          "components": [
            {
              "internalType": "bytes",
              "name": "inputTx",
              "type": "bytes"
            },
            {
              "internalType": "uint256",
              "name": "inputUtxoPos",
              "type": "uint256"
            },
            {
              "internalType": "bytes",
              "name": "inFlightTx",
              "type": "bytes"
            },
            {
              "internalType": "uint16",
              "name": "inFlightTxInputIndex",
              "type": "uint16"
            },
            {
              "internalType": "bytes",
              "name": "competingTx",
              "type": "bytes"
            },
            {
              "internalType": "uint16",
              "name": "competingTxInputIndex",
              "type": "uint16"
            },
            {
              "internalType": "bytes",
              "name": "outputGuardPreimage",
              "type": "bytes"
            },
            {
              "internalType": "uint256",
              "name": "competingTxPos",
              "type": "uint256"
            },
            {
              "internalType": "bytes",
              "name": "competingTxInclusionProof",
              "type": "bytes"
            },
            {
              "internalType": "bytes",
              "name": "competingTxWitness",
              "type": "bytes"
            },
            {
              "internalType": "bytes",
              "name": "competingTxConfirmSig",
              "type": "bytes"
            },
            {
              "internalType": "bytes",
              "name": "competingTxSpendingConditionOptionalArgs",
              "type": "bytes"
            }
          ],
          "internalType": "struct PaymentInFlightExitRouterArgs.ChallengeCanonicityArgs",
          "name": "args",
          "type": "tuple"
        }
      ],
      "name": "challengeInFlightExitNotCanonical",
      "outputs": [],
      "payable": false,
      "stateMutability": "nonpayable",
      "type": "function"
    },
    {
      "constant": false,
      "inputs": [
        {
          "components": [
            {
              "internalType": "uint256",
              "name": "utxoPos",
              "type": "uint256"
            },
            {
              "internalType": "bytes",
              "name": "rlpOutputTx",
              "type": "bytes"
            },
            {
              "internalType": "bytes",
              "name": "outputGuardPreimage",
              "type": "bytes"
            },
            {
              "internalType": "bytes",
              "name": "outputTxInclusionProof",
              "type": "bytes"
            }
          ],
          "internalType": "struct PaymentStandardExitRouterArgs.StartStandardExitArgs",
          "name": "args",
          "type": "tuple"
        }
      ],
      "name": "startStandardExit",
      "outputs": [],
      "payable": true,
      "stateMutability": "payable",
      "type": "function"
    },
    {
      "constant": false,
      "inputs": [
        {
          "components": [
            {
              "internalType": "bytes",
              "name": "inFlightTx",
              "type": "bytes"
            },
            {
              "internalType": "uint16",
              "name": "outputIndex",
              "type": "uint16"
            },
            {
              "internalType": "bytes",
              "name": "outputGuardPreimage",
              "type": "bytes"
            }
          ],
          "internalType": "struct PaymentInFlightExitRouterArgs.PiggybackInFlightExitOnOutputArgs",
          "name": "args",
          "type": "tuple"
        }
      ],
      "name": "piggybackInFlightExitOnOutput",
      "outputs": [],
      "payable": true,
      "stateMutability": "payable",
      "type": "function"
    },
    {
      "constant": true,
      "inputs": [],
      "name": "BOND_LOWER_BOUND_DIVISOR",
      "outputs": [
        {
          "internalType": "uint16",
          "name": "",
          "type": "uint16"
        }
      ],
      "payable": false,
      "stateMutability": "view",
      "type": "function"
    },
    {
      "constant": true,
      "inputs": [],
      "name": "BOND_UPPER_BOUND_MULTIPLIER",
      "outputs": [
        {
          "internalType": "uint16",
          "name": "",
          "type": "uint16"
        }
      ],
      "payable": false,
      "stateMutability": "view",
      "type": "function"
    },
    {
      "constant": false,
      "inputs": [
        {
          "internalType": "uint128",
          "name": "newBondSize",
          "type": "uint128"
        }
      ],
      "name": "updateStartIFEBondSize",
      "outputs": [],
      "payable": false,
      "stateMutability": "nonpayable",
      "type": "function"
    },
    {
      "constant": false,
      "inputs": [
        {
          "components": [
            {
              "internalType": "bytes",
              "name": "inFlightTx",
              "type": "bytes"
            },
            {
              "internalType": "bytes",
              "name": "inFlightTxInclusionProof",
              "type": "bytes"
            },
            {
              "internalType": "uint256",
              "name": "outputUtxoPos",
              "type": "uint256"
            },
            {
              "internalType": "bytes",
              "name": "challengingTx",
              "type": "bytes"
            },
            {
              "internalType": "uint16",
              "name": "challengingTxInputIndex",
              "type": "uint16"
            },
            {
              "internalType": "bytes",
              "name": "challengingTxWitness",
              "type": "bytes"
            },
            {
              "internalType": "bytes",
              "name": "spendingConditionOptionalArgs",
              "type": "bytes"
            }
          ],
          "internalType": "struct PaymentInFlightExitRouterArgs.ChallengeOutputSpent",
          "name": "args",
          "type": "tuple"
        }
      ],
      "name": "challengeInFlightExitOutputSpent",
      "outputs": [],
      "payable": false,
      "stateMutability": "nonpayable",
      "type": "function"
    },
    {
      "constant": false,
      "inputs": [
        {
          "components": [
            {
              "internalType": "bytes",
              "name": "inFlightTx",
              "type": "bytes"
            },
            {
              "internalType": "bytes[]",
              "name": "inputTxs",
              "type": "bytes[]"
            },
            {
              "internalType": "uint256[]",
              "name": "inputUtxosPos",
              "type": "uint256[]"
            },
            {
              "internalType": "bytes[]",
              "name": "outputGuardPreimagesForInputs",
              "type": "bytes[]"
            },
            {
              "internalType": "bytes[]",
              "name": "inputTxsInclusionProofs",
              "type": "bytes[]"
            },
            {
              "internalType": "bytes[]",
              "name": "inputTxsConfirmSigs",
              "type": "bytes[]"
            },
            {
              "internalType": "bytes[]",
              "name": "inFlightTxWitnesses",
              "type": "bytes[]"
            },
            {
              "internalType": "bytes[]",
              "name": "inputSpendingConditionOptionalArgs",
              "type": "bytes[]"
            }
          ],
          "internalType": "struct PaymentInFlightExitRouterArgs.StartExitArgs",
          "name": "args",
          "type": "tuple"
        }
      ],
      "name": "startInFlightExit",
      "outputs": [],
      "payable": true,
      "stateMutability": "payable",
      "type": "function"
    },
    {
      "constant": true,
      "inputs": [],
      "name": "INITIAL_BOND_SIZE",
      "outputs": [
        {
          "internalType": "uint128",
          "name": "",
          "type": "uint128"
        }
      ],
      "payable": false,
      "stateMutability": "view",
      "type": "function"
    },
    {
      "constant": true,
      "inputs": [],
      "name": "INITIAL_IFE_BOND_SIZE",
      "outputs": [
        {
          "internalType": "uint128",
          "name": "",
          "type": "uint128"
        }
      ],
      "payable": false,
      "stateMutability": "view",
      "type": "function"
    },
    {
      "constant": true,
      "inputs": [
        {
          "internalType": "uint160",
          "name": "exitId",
          "type": "uint160"
        }
      ],
      "name": "inFlightExits",
      "outputs": [
        {
          "components": [
            {
              "internalType": "bool",
              "name": "isCanonical",
              "type": "bool"
            },
            {
              "internalType": "uint64",
              "name": "exitStartTimestamp",
              "type": "uint64"
            },
            {
              "internalType": "uint256",
              "name": "exitMap",
              "type": "uint256"
            },
            {
              "internalType": "uint256",
              "name": "position",
              "type": "uint256"
            },
            {
              "components": [
                {
                  "internalType": "bytes32",
                  "name": "outputId",
                  "type": "bytes32"
                },
                {
                  "internalType": "address payable",
                  "name": "exitTarget",
                  "type": "address"
                },
                {
                  "internalType": "address",
                  "name": "token",
                  "type": "address"
                },
                {
                  "internalType": "uint256",
                  "name": "amount",
                  "type": "uint256"
                },
                {
                  "internalType": "uint256",
                  "name": "piggybackBondSize",
                  "type": "uint256"
                }
              ],
              "internalType": "struct PaymentExitDataModel.WithdrawData[4]",
              "name": "inputs",
              "type": "tuple[4]"
            },
            {
              "components": [
                {
                  "internalType": "bytes32",
                  "name": "outputId",
                  "type": "bytes32"
                },
                {
                  "internalType": "address payable",
                  "name": "exitTarget",
                  "type": "address"
                },
                {
                  "internalType": "address",
                  "name": "token",
                  "type": "address"
                },
                {
                  "internalType": "uint256",
                  "name": "amount",
                  "type": "uint256"
                },
                {
                  "internalType": "uint256",
                  "name": "piggybackBondSize",
                  "type": "uint256"
                }
              ],
              "internalType": "struct PaymentExitDataModel.WithdrawData[4]",
              "name": "outputs",
              "type": "tuple[4]"
            },
            {
              "internalType": "address payable",
              "name": "bondOwner",
              "type": "address"
            },
            {
              "internalType": "uint256",
              "name": "bondSize",
              "type": "uint256"
            },
            {
              "internalType": "uint256",
              "name": "oldestCompetitorPosition",
              "type": "uint256"
            }
          ],
          "internalType": "struct PaymentExitDataModel.InFlightExit",
          "name": "",
          "type": "tuple"
        }
      ],
      "payable": false,
      "stateMutability": "view",
      "type": "function"
    },
    {
      "constant": false,
      "inputs": [
        {
          "components": [
            {
              "internalType": "bytes",
              "name": "inFlightTx",
              "type": "bytes"
            },
            {
              "internalType": "uint16",
              "name": "inputIndex",
              "type": "uint16"
            }
          ],
          "internalType": "struct PaymentInFlightExitRouterArgs.PiggybackInFlightExitOnInputArgs",
          "name": "args",
          "type": "tuple"
        }
      ],
      "name": "piggybackInFlightExitOnInput",
      "outputs": [],
      "payable": true,
      "stateMutability": "payable",
      "type": "function"
    },
    {
      "constant": true,
      "inputs": [],
      "name": "startStandardExitBondSize",
      "outputs": [
        {
          "internalType": "uint128",
          "name": "",
          "type": "uint128"
        }
      ],
      "payable": false,
      "stateMutability": "view",
      "type": "function"
    },
    {
      "inputs": [
        {
          "components": [
            {
              "internalType": "contract PlasmaFramework",
              "name": "framework",
              "type": "address"
            },
            {
              "internalType": "uint256",
              "name": "ethVaultId",
              "type": "uint256"
            },
            {
              "internalType": "uint256",
              "name": "erc20VaultId",
              "type": "uint256"
            },
            {
              "internalType": "contract OutputGuardHandlerRegistry",
              "name": "outputGuardHandlerRegistry",
              "type": "address"
            },
            {
              "internalType": "contract SpendingConditionRegistry",
              "name": "spendingConditionRegistry",
              "type": "address"
            },
            {
              "internalType": "contract IStateTransitionVerifier",
              "name": "stateTransitionVerifier",
              "type": "address"
            },
            {
              "internalType": "contract ITxFinalizationVerifier",
              "name": "txFinalizationVerifier",
              "type": "address"
            },
            {
              "internalType": "uint256",
              "name": "supportTxType",
              "type": "uint256"
            },
            {
              "internalType": "uint256",
              "name": "safeGasStipend",
              "type": "uint256"
            }
          ],
          "internalType": "struct PaymentExitGame.PaymentExitGameArgs",
          "name": "args",
          "type": "tuple"
        }
      ],
      "payable": false,
      "stateMutability": "nonpayable",
      "type": "constructor"
    },
    {
      "anonymous": false,
      "inputs": [
        {
          "indexed": false,
          "internalType": "uint128",
          "name": "bondSize",
          "type": "uint128"
        }
      ],
      "name": "IFEBondUpdated",
      "type": "event"
    },
    {
      "anonymous": false,
      "inputs": [
        {
          "indexed": false,
          "internalType": "uint128",
          "name": "bondSize",
          "type": "uint128"
        }
      ],
      "name": "PiggybackBondUpdated",
      "type": "event"
    },
    {
      "anonymous": false,
      "inputs": [
        {
          "indexed": true,
          "internalType": "address",
          "name": "initiator",
          "type": "address"
        },
        {
          "indexed": false,
          "internalType": "bytes32",
          "name": "txHash",
          "type": "bytes32"
        }
      ],
      "name": "InFlightExitStarted",
      "type": "event"
    },
    {
      "anonymous": false,
      "inputs": [
        {
          "indexed": true,
          "internalType": "address",
          "name": "exitTarget",
          "type": "address"
        },
        {
          "indexed": false,
          "internalType": "bytes32",
          "name": "txHash",
          "type": "bytes32"
        },
        {
          "indexed": false,
          "internalType": "uint16",
          "name": "inputIndex",
          "type": "uint16"
        }
      ],
      "name": "InFlightExitInputPiggybacked",
      "type": "event"
    },
    {
      "anonymous": false,
      "inputs": [
        {
          "indexed": true,
          "internalType": "uint160",
          "name": "exitId",
          "type": "uint160"
        },
        {
          "indexed": false,
          "internalType": "address",
          "name": "token",
          "type": "address"
        }
      ],
      "name": "InFlightExitOmitted",
      "type": "event"
    },
    {
      "anonymous": false,
      "inputs": [
        {
          "indexed": true,
          "internalType": "uint160",
          "name": "exitId",
          "type": "uint160"
        },
        {
          "indexed": false,
          "internalType": "uint16",
          "name": "outputIndex",
          "type": "uint16"
        }
      ],
      "name": "InFlightExitOutputWithdrawn",
      "type": "event"
    },
    {
      "anonymous": false,
      "inputs": [
        {
          "indexed": true,
          "internalType": "uint160",
          "name": "exitId",
          "type": "uint160"
        },
        {
          "indexed": false,
          "internalType": "uint16",
          "name": "inputIndex",
          "type": "uint16"
        }
      ],
      "name": "InFlightExitInputWithdrawn",
      "type": "event"
    },
    {
      "anonymous": false,
      "inputs": [
        {
          "indexed": true,
          "internalType": "address",
          "name": "exitTarget",
          "type": "address"
        },
        {
          "indexed": false,
          "internalType": "bytes32",
          "name": "txHash",
          "type": "bytes32"
        },
        {
          "indexed": false,
          "internalType": "uint16",
          "name": "outputIndex",
          "type": "uint16"
        }
      ],
      "name": "InFlightExitOutputPiggybacked",
      "type": "event"
    },
    {
      "anonymous": false,
      "inputs": [
        {
          "indexed": true,
          "internalType": "address",
          "name": "challenger",
          "type": "address"
        },
        {
          "indexed": false,
          "internalType": "bytes32",
          "name": "txHash",
          "type": "bytes32"
        },
        {
          "indexed": false,
          "internalType": "uint256",
          "name": "challengeTxPosition",
          "type": "uint256"
        }
      ],
      "name": "InFlightExitChallenged",
      "type": "event"
    },
    {
      "anonymous": false,
      "inputs": [
        {
          "indexed": false,
          "internalType": "address",
          "name": "challenger",
          "type": "address"
        },
        {
          "indexed": false,
          "internalType": "bytes32",
          "name": "txHash",
          "type": "bytes32"
        },
        {
          "indexed": false,
          "internalType": "uint256",
          "name": "challengeTxPosition",
          "type": "uint256"
        }
      ],
      "name": "InFlightExitChallengeResponded",
      "type": "event"
    },
    {
      "anonymous": false,
      "inputs": [
        {
          "indexed": true,
          "internalType": "address",
          "name": "challenger",
          "type": "address"
        },
        {
          "indexed": false,
          "internalType": "bytes32",
          "name": "txHash",
          "type": "bytes32"
        },
        {
          "indexed": false,
          "internalType": "uint16",
          "name": "inputIndex",
          "type": "uint16"
        }
      ],
      "name": "InFlightExitInputBlocked",
      "type": "event"
    },
    {
      "anonymous": false,
      "inputs": [
        {
          "indexed": true,
          "internalType": "address",
          "name": "challenger",
          "type": "address"
        },
        {
          "indexed": false,
          "internalType": "bytes32",
          "name": "ifeTxHash",
          "type": "bytes32"
        },
        {
          "indexed": false,
          "internalType": "uint16",
          "name": "outputIndex",
          "type": "uint16"
        }
      ],
      "name": "InFlightExitOutputBlocked",
      "type": "event"
    },
    {
      "anonymous": false,
      "inputs": [
        {
          "indexed": false,
          "internalType": "uint128",
          "name": "bondSize",
          "type": "uint128"
        }
      ],
      "name": "StandardExitBondUpdated",
      "type": "event"
    },
    {
      "anonymous": false,
      "inputs": [
        {
          "indexed": true,
          "internalType": "address",
          "name": "owner",
          "type": "address"
        },
        {
          "indexed": false,
          "internalType": "uint160",
          "name": "exitId",
          "type": "uint160"
        }
      ],
      "name": "ExitStarted",
      "type": "event"
    },
    {
      "anonymous": false,
      "inputs": [
        {
          "indexed": true,
          "internalType": "uint256",
          "name": "utxoPos",
          "type": "uint256"
        }
      ],
      "name": "ExitChallenged",
      "type": "event"
    },
    {
      "anonymous": false,
      "inputs": [
        {
          "indexed": true,
          "internalType": "uint160",
          "name": "exitId",
          "type": "uint160"
        }
      ],
      "name": "ExitOmitted",
      "type": "event"
    },
    {
      "anonymous": false,
      "inputs": [
        {
          "indexed": true,
          "internalType": "uint160",
          "name": "exitId",
          "type": "uint160"
        }
      ],
      "name": "ExitFinalized",
      "type": "event"
    },
    {
      "constant": false,
      "inputs": [
        {
          "internalType": "uint160",
          "name": "exitId",
          "type": "uint160"
        },
        {
          "internalType": "uint256",
          "name": "",
          "type": "uint256"
        },
        {
          "internalType": "address",
          "name": "token",
          "type": "address"
        }
      ],
      "name": "processExit",
      "outputs": [],
      "payable": false,
      "stateMutability": "nonpayable",
      "type": "function"
    },
    {
      "constant": true,
      "inputs": [
        {
          "internalType": "bool",
          "name": "_isDeposit",
          "type": "bool"
        },
        {
          "internalType": "bytes",
          "name": "_txBytes",
          "type": "bytes"
        },
        {
          "internalType": "uint256",
          "name": "_utxoPos",
          "type": "uint256"
        }
      ],
      "name": "getStandardExitId",
      "outputs": [
        {
          "internalType": "uint160",
          "name": "",
          "type": "uint160"
        }
      ],
      "payable": false,
      "stateMutability": "pure",
      "type": "function"
    },
    {
      "constant": true,
      "inputs": [
        {
          "internalType": "bytes",
          "name": "_txBytes",
          "type": "bytes"
        }
      ],
      "name": "getInFlightExitId",
      "outputs": [
        {
          "internalType": "uint160",
          "name": "",
          "type": "uint160"
        }
      ],
      "payable": false,
      "stateMutability": "pure",
      "type": "function"
    }
  ],
  "bytecode": "0x60806040523480156200001157600080fd5b506040516200528b3803806200528b833981016040819052620000349162001611565b805160208201516040808401516060850151608086015160a087015160c088015160e08901516101008a0151601580546001600160a01b0319166001600160a01b038c1690811790915597517f8c64ea4a00000000000000000000000000000000000000000000000000000000815296979596949593949293919290918a918a918a918a918a918991889160009190638c64ea4a90620000d9908a906004016200182e565b60206040518083038186803b158015620000f257600080fd5b505afa15801562000107573d6000803e3d6000fd5b505050506040513d601f19601f820116820180604052506200012d919081019062001561565b90506001600160a01b0381166200017b576040517f08c379a000000000000000000000000000000000000000000000000000000000815260040162000172906200180a565b60405180910390fd5b6040517f8c64ea4a0000000000000000000000000000000000000000000000000000000081526000906001600160a01b038a1690638c64ea4a90620001c5908a906004016200182e565b60206040518083038186803b158015620001de57600080fd5b505afa158015620001f3573d6000803e3d6000fd5b505050506040513d601f19601f8201168201806040525062000219919081019062001561565b90506001600160a01b0381166200025e576040517f08c379a000000000000000000000000000000000000000000000000000000000815260040162000172906200181c565b6040517f441df2f800000000000000000000000000000000000000000000000000000000815273__PaymentStartStandardExit______________9063441df2f890620002ba9030908d908b908a908f908f90600401620016c5565b6101006040518083038186803b158015620002d457600080fd5b505af4158015620002e9573d6000803e3d6000fd5b505050506040513d601f19601f820116820180604052506200030f91908101906200158a565b8051600180546001600160a01b03199081166001600160a01b03938416179091556020830151600280548316918416919091179055604080840151516003556060840151516004908155608085015160058054851691861691909117905560a08501516006805490941694169390931790915560c083015160075560e09092015160085590517f13c374f600000000000000000000000000000000000000000000000000000000815273__PaymentChallengeStandardExit__________916313c374f691620003ea918d918a918c918b918b9101620017cd565b60c06040518083038186803b1580156200040357600080fd5b505af415801562000418573d6000803e3d6000fd5b505050506040513d601f19601f820116820180604052506200043e9190810190620015ac565b8051600d80546001600160a01b03199081166001600160a01b039384161790915560208084015151600e55604080850151600f8054851691861691909117905560608086015160108054861691871691909117905560808087015160118054871691881691909117905560a090960151601255815195860182528e85168087528886168785018190529588169287018390529501889052600980548416909517909455600a80548316909317909255600b8054909116909217909155600c84905562000521906631bced02db0000906002908190620010cf811b6200392817901c565b601360008201518160000160006101000a8154816001600160801b0302191690836001600160801b0316021790555060208201518160000160106101000a8154816001600160801b0302191690836001600160801b0316021790555060408201518160010160006101000a8154816001600160801b0302191690836001600160801b0316021790555060608201518160010160106101000a81548161ffff021916908361ffff16021790555060808201518160010160126101000a81548161ffff021916908361ffff16021790555090505050505050505050505088604060006101000a8154816001600160a01b0302191690836001600160a01b031602179055506000896001600160a01b0316638c64ea4a8a6040518263ffffffff1660e01b81526004016200065391906200182e565b60206040518083038186803b1580156200066c57600080fd5b505afa15801562000681573d6000803e3d6000fd5b505050506040513d601f19601f82011682018060405250620006a7919081019062001561565b90506001600160a01b038116620006ec576040517f08c379a000000000000000000000000000000000000000000000000000000000815260040162000172906200180a565b6040517f8c64ea4a0000000000000000000000000000000000000000000000000000000081526000906001600160a01b038c1690638c64ea4a9062000736908c906004016200182e565b60206040518083038186803b1580156200074f57600080fd5b505afa15801562000764573d6000803e3d6000fd5b505050506040513d601f19601f820116820180604052506200078a919081019062001561565b90506001600160a01b038116620007cf576040517f08c379a000000000000000000000000000000000000000000000000000000000815260040162000172906200181c565b6040517f1cc495f400000000000000000000000000000000000000000000000000000000815273__PaymentStartInFlightExit______________90631cc495f4906200082b908e908c908c908c908c908c906004016200172b565b6101006040518083038186803b1580156200084557600080fd5b505af41580156200085a573d6000803e3d6000fd5b505050506040513d601f19601f82011682018060405250620008809190810190620015ef565b601760008201518160000160006101000a8154816001600160a01b0302191690836001600160a01b0316021790555060208201518160010160008201518160000155505060408201518160020160008201518160000155505060608201518160030160006101000a8154816001600160a01b0302191690836001600160a01b0316021790555060808201518160040160006101000a8154816001600160a01b0302191690836001600160a01b0316021790555060a08201518160050160006101000a8154816001600160a01b0302191690836001600160a01b0316021790555060c08201518160060160006101000a8154816001600160a01b0302191690836001600160a01b0316021790555060e0820151816007015590505073__PaymentPiggybackInFlightExit__________63134be3488c308b8e8e6040518663ffffffff1660e01b8152600401620009db95949392919062001777565b6101006040518083038186803b158015620009f557600080fd5b505af415801562000a0a573d6000803e3d6000fd5b505050506040513d601f19601f8201168201806040525062000a309190810190620015cd565b8051601f80546001600160a01b03199081166001600160a01b0393841617909155602080840151519055604080840151516021556060840151602280548416918516919091179055608084015160238054909316931692909217905560a082015160245560c082015160255560e090910151602655517f13c374f600000000000000000000000000000000000000000000000000000000815273__PaymentChallengeIFENotCanonical_______906313c374f69062000afd908e908b908d908b908b90600401620017cd565b60c06040518083038186803b15801562000b1657600080fd5b505af415801562000b2b573d6000803e3d6000fd5b505050506040513d601f19601f8201168201806040525062000b519190810190620015ac565b8051602780546001600160a01b03199081166001600160a01b03938416179091556020830151516028556040808401516029805484169185169190911790556060840151602a805484169185169190911790556080840151602b8054909316931692909217905560a090910151602c55517f13c374f600000000000000000000000000000000000000000000000000000000815273__PaymentChallengeIFEInputSpent_________906313c374f69062000c19908e908b908d908b908a90600401620017cd565b60c06040518083038186803b15801562000c3257600080fd5b505af415801562000c47573d6000803e3d6000fd5b505050506040513d601f19601f8201168201806040525062000c6d9190810190620015ac565b602d60008201518160000160006101000a8154816001600160a01b0302191690836001600160a01b0316021790555060208201518160010160008201518160000155505060408201518160020160006101000a8154816001600160a01b0302191690836001600160a01b0316021790555060608201518160030160006101000a8154816001600160a01b0302191690836001600160a01b0316021790555060808201518160040160006101000a8154816001600160a01b0302191690836001600160a01b0316021790555060a082015181600501559050506040518060a001604052808c6001600160a01b03168152602001886001600160a01b03168152602001896001600160a01b03168152602001866001600160a01b0316815260200184815250603760008201518160000160006101000a8154816001600160a01b0302191690836001600160a01b0316021790555060208201518160010160006101000a8154816001600160a01b0302191690836001600160a01b0316021790555060408201518160020160006101000a8154816001600160a01b0302191690836001600160a01b0316021790555060608201518160030160006101000a8154816001600160a01b0302191690836001600160a01b031602179055506080820151816004015590505060405180608001604052808c6001600160a01b03168152602001836001600160a01b03168152602001826001600160a01b0316815260200184815250603360008201518160000160006101000a8154816001600160a01b0302191690836001600160a01b0316021790555060208201518160010160006101000a8154816001600160a01b0302191690836001600160a01b0316021790555060408201518160020160006101000a8154816001600160a01b0302191690836001600160a01b031602179055506060820151816003015590505062000f456683734dd0b08000600280620010cf60201b620039281760201c565b8051603c80546020808501516001600160801b03199283166001600160801b039586161785167001000000000000000000000000000000009186168202179093556040850151603d805460608801516080909801519416919095161761ffff60801b191661ffff9586169093029290921761ffff60901b1916720100000000000000000000000000000000000094909116939093029290921790556200100290666379da05b60000906002908190620010cf811b6200392817901c565b8051603e805460208401516001600160801b03199182166001600160801b039485161784167001000000000000000000000000000000009185168202179092556040840151603f805460608701516080909701519316919094161761ffff60801b191661ffff9485169092029190911761ffff60901b19167201000000000000000000000000000000000000939091169290920291909117905550509851604180546001600160a01b0319166001600160a01b0390921691909117905550620018c7975050505050505050565b620010d96200111a565b506040805160a0810182526001600160801b03949094168452600060208501526780000000000000009084015261ffff918216606084015216608082015290565b6040805160a08101825260008082526020820181905291810182905260608101829052608081019190915290565b8051620011558162001897565b92915050565b80516200115581620018b1565b6000602082840312156200117b57600080fd5b6200118760206200183e565b9050600062001197848462001554565b82525092915050565b60006101008284031215620011b457600080fd5b620011c16101006200183e565b90506000620011d184846200115b565b8252506020620011e4848483016200115b565b6020830152506040620011fa8482850162001168565b6040830152506060620012108482850162001168565b606083015250608062001226848285016200115b565b60808301525060a06200123c848285016200115b565b60a08301525060c0620012528482850162001554565b60c08301525060e0620012688482850162001554565b60e08301525092915050565b600060c082840312156200128757600080fd5b6200129360c06200183e565b90506000620012a384846200115b565b8252506020620012b68484830162001168565b6020830152506040620012cc848285016200115b565b6040830152506060620012e2848285016200115b565b6060830152506080620012f8848285016200115b565b60808301525060a06200130e8482850162001554565b60a08301525092915050565b600061010082840312156200132e57600080fd5b6200133b6101006200183e565b905060006200134b84846200115b565b82525060206200135e8484830162001168565b6020830152506040620013748482850162001168565b60408301525060606200138a848285016200115b565b6060830152506080620013a0848285016200115b565b60808301525060a06200123c8482850162001554565b60006101008284031215620013ca57600080fd5b620013d76101006200183e565b90506000620013e784846200115b565b8252506020620013fa8484830162001168565b6020830152506040620014108482850162001168565b604083015250606062001426848285016200115b565b60608301525060806200143c848285016200115b565b60808301525060a062001452848285016200115b565b60a08301525060c062001252848285016200115b565b600061012082840312156200147c57600080fd5b620014896101206200183e565b905060006200149984846200115b565b8252506020620014ac8484830162001554565b6020830152506040620014c28482850162001554565b6040830152506060620014d8848285016200115b565b6060830152506080620014ee848285016200115b565b60808301525060a062001504848285016200115b565b60a08301525060c06200151a848285016200115b565b60c08301525060e0620015308482850162001554565b60e083015250610100620015478482850162001554565b6101008301525092915050565b80516200115581620018bc565b6000602082840312156200157457600080fd5b600062001582848462001148565b949350505050565b600061010082840312156200159e57600080fd5b6000620015828484620011a0565b600060c08284031215620015bf57600080fd5b600062001582848462001274565b60006101008284031215620015e157600080fd5b60006200158284846200131a565b600061010082840312156200160357600080fd5b6000620015828484620013b6565b600061012082840312156200162557600080fd5b600062001582848462001468565b6200163e816200187b565b82525050565b60006200165360118362001865565b7f496e76616c696420455448207661756c74000000000000000000000000000000815260200192915050565b60006200168e60138362001865565b7f496e76616c6964204552433230207661756c7400000000000000000000000000815260200192915050565b6200163e8162001894565b60c08101620016d5828962001633565b620016e4602083018862001633565b620016f3604083018762001633565b62001702606083018662001633565b620017116080830185620016ba565b6200172060a0830184620016ba565b979650505050505050565b60c081016200173b828962001633565b6200174a602083018862001633565b62001759604083018762001633565b62001768606083018662001633565b62001711608083018562001633565b60a0810162001787828862001633565b62001796602083018762001633565b620017a5604083018662001633565b620017b46060830185620016ba565b620017c36080830184620016ba565b9695505050505050565b60a08101620017dd828862001633565b620017ec602083018762001633565b620017fb604083018662001633565b620017b4606083018562001633565b60208082528101620011558162001644565b6020808252810162001155816200167f565b60208101620011558284620016ba565b6040518181016001600160401b03811182821017156200185d57600080fd5b604052919050565b90815260200190565b6000620011558262001888565b600062001155826200186e565b6001600160a01b031690565b90565b620018a2816200186e565b8114620018ae57600080fd5b50565b620018a2816200187b565b620018a28162001894565b6139b480620018d76000396000f3fe6080604052600436106101665760003560e01c80638d6f74cf116100d1578063b8fd17fa1161008a578063c96e7c0511610064578063c96e7c05146103bf578063e47a4631146103d4578063e5bc60c714610401578063fe32a1241461041457610166565b8063b8fd17fa14610377578063b90424b514610397578063c170ecf5146103aa57610166565b80638d6f74cf146102ef5780638ec32e8f14610302578063905d6a9914610315578063a0e403b114610315578063b177ba2314610337578063b22d3e141461035757610166565b8063684963511161012357806368496351146102455780637702fa17146102655780637e2b2efe1461027a5780638301d1791461028f578063839c78f9146102a25780638c9963f0146102cf57610166565b8063163d7bc71461016b5780632d3cd2e91461018d578063315fb7da146101ad57806336660de4146101cd5780633f1214cf146101ed5780635c0e683a14610218575b600080fd5b34801561017757600080fd5b5061018b610186366004612808565b610429565b005b34801561019957600080fd5b5061018b6101a836600461269c565b61052c565b3480156101b957600080fd5b5061018b6101c8366004612808565b6106a5565b3480156101d957600080fd5b5061018b6101e83660046125f8565b610788565b3480156101f957600080fd5b50610202610907565b60405161020f91906137a9565b60405180910390f35b34801561022457600080fd5b50610238610233366004612826565b61096c565b60405161020f919061379b565b34801561025157600080fd5b5061018b610260366004612844565b6109df565b34801561027157600080fd5b50610202610a37565b34801561028657600080fd5b50610202610a97565b61018b61029d366004612704565b610aa2565b3480156102ae57600080fd5b506102c26102bd3660046125c4565b610b94565b60405161020f91906137b7565b3480156102db57600080fd5b5061018b6102ea366004612668565b610ba5565b61018b6102fd3660046127d4565b610c97565b61018b61031036600461276c565b610e48565b34801561032157600080fd5b5061032a610f85565b60405161020f91906137c5565b34801561034357600080fd5b5061018b610352366004612808565b610f8a565b34801561036357600080fd5b506102c2610372366004612560565b61106d565b34801561038357600080fd5b5061018b6103923660046126d0565b61109c565b61018b6103a53660046127a0565b61117d565b3480156103b657600080fd5b506102026112bf565b3480156103cb57600080fd5b506102026112ca565b3480156103e057600080fd5b506103f46103ef366004612826565b6112d5565b60405161020f919061378c565b61018b61040f366004612738565b611476565b34801561042057600080fd5b506102026115b3565b601560009054906101000a90046001600160a01b03166001600160a01b0316634b0a72bc6040518163ffffffff1660e01b815260040160206040518083038186803b15801561047757600080fd5b505afa15801561048b573d6000803e3d6000fd5b505050506040513d601f19601f820116820180604052506104af9190810190612542565b336001600160a01b038216146104e05760405162461bcd60e51b81526004016104d790613564565b60405180910390fd5b6104f160138363ffffffff61161316565b7fd21ccbbae3d29826d53310efdc993c64e27496dd31694b292f1a120344ec37ab8260405161052091906137a9565b60405180910390a15050565b604060009054906101000a90046001600160a01b0316806001600160a01b031663ff27b1896040518163ffffffff1660e01b8152600401600060405180830381600087803b15801561057d57600080fd5b505af1158015610591573d6000803e3d6000fd5b50506040805160c081018252602d546001600160a01b039081168252825160208181018552602e548252830152602f548116828401526030548116606083015260315416608082015260325460a08201529051634bb4a4df60e11b815273__PaymentChallengeIFEInputSpent_________935063976949be925061061e919060169087906004016135b4565b60006040518083038186803b15801561063657600080fd5b505af415801561064a573d6000803e3d6000fd5b50505050806001600160a01b0316634e0f74366040518163ffffffff1660e01b8152600401600060405180830381600087803b15801561068957600080fd5b505af115801561069d573d6000803e3d6000fd5b505050505050565b6040805481516312c29caf60e21b815291516001600160a01b0390911691634b0a72bc916004808301926020929190829003018186803b1580156106e857600080fd5b505afa1580156106fc573d6000803e3d6000fd5b505050506040513d601f19601f820116820180604052506107209190810190612542565b336001600160a01b038216146107485760405162461bcd60e51b81526004016104d790613564565b610759603e8363ffffffff61161316565b7f30ce291291dca42b8168ab211fafc36d3d4868292ed3259874ed00864432e20e8260405161052091906137a9565b604060009054906101000a90046001600160a01b0316806001600160a01b031663ff27b1896040518163ffffffff1660e01b8152600401600060405180830381600087803b1580156107d957600080fd5b505af11580156107ed573d6000803e3d6000fd5b50506040805160c0810182526027546001600160a01b0390811682528251602081810185526028548252830152602954811682840152602a5481166060830152602b54166080820152602c5460a08201529051630c27711f60e11b815273__PaymentChallengeIFENotCanonical_______935063184ee23e925061087e91906016908990899089906004016135e2565b60006040518083038186803b15801561089657600080fd5b505af41580156108aa573d6000803e3d6000fd5b50505050806001600160a01b0316634e0f74366040518163ffffffff1660e01b8152600401600060405180830381600087803b1580156108e957600080fd5b505af11580156108fd573d6000803e3d6000fd5b5050505050505050565b6040805160a081018252603e546001600160801b038082168352600160801b9182900481166020840152603f549081169383019390935261ffff90830481166060830152600160901b909204909116608082015260009061096790611701565b905090565b610974611a08565b506001600160a01b0380821660009081526020818152604091829020825160c081018452815460ff161515815260018201549281019290925260028101549282019290925260038201549092166060830152600481015460808301526005015460a08201525b919050565b6041546001600160a01b0316338114610a0a5760405162461bcd60e51b81526004016104d790613564565b610a138461172b565b15610a2757610a228483611751565b610a31565b610a3184836117ed565b50505050565b6040805160a081018252603c546001600160801b038082168352600160801b9182900481166020840152603d549081169383019390935261ffff90830481166060830152600160901b909204909116608082015260009061096790611701565b666379da05b6000081565b601560009054906101000a90046001600160a01b0316806001600160a01b031663ff27b1896040518163ffffffff1660e01b8152600401600060405180830381600087803b158015610af357600080fd5b505af1158015610b07573d6000803e3d6000fd5b50506040805160c081018252600d546001600160a01b039081168252825160208181018552600e548252830152600f548116828401526010548116606083015260115416608082015260125460a0820152905163edc91d4b60e01b815273__PaymentChallengeStandardExit__________935063edc91d4b925061061e91906000908790600401613699565b6000610b9f8261185d565b92915050565b604060009054906101000a90046001600160a01b0316806001600160a01b031663ff27b1896040518163ffffffff1660e01b8152600401600060405180830381600087803b158015610bf657600080fd5b505af1158015610c0a573d6000803e3d6000fd5b50506040805160c0810182526027546001600160a01b0390811682528251602081810185526028548252830152602954811682840152602a5481166060830152602b54166080820152602c5460a08201529051631287d7e160e31b815273__PaymentChallengeIFENotCanonical_______935063943ebf08925061061e9190601690879060040161363e565b601560009054906101000a90046001600160a01b0316806001600160a01b031663ff27b1896040518163ffffffff1660e01b8152600401600060405180830381600087803b158015610ce857600080fd5b505af1158015610cfc573d6000803e3d6000fd5b50505050610d086115b3565b6001600160801b0316803414610d305760405162461bcd60e51b81526004016104d790613524565b60408051610100810182526001546001600160a01b0390811682526002548116602080840191909152835180820185526003548152838501528351908101845260048054825260608401919091526005548216608084015260065490911660a083015260075460c083015260085460e083015291516332c812a760e11b815273__PaymentStartStandardExit______________92636590254e92610ddc929091600091899101613584565b60006040518083038186803b158015610df457600080fd5b505af4158015610e08573d6000803e3d6000fd5b5050505050806001600160a01b0316634e0f74366040518163ffffffff1660e01b8152600401600060405180830381600087803b15801561068957600080fd5b604060009054906101000a90046001600160a01b0316806001600160a01b031663ff27b1896040518163ffffffff1660e01b8152600401600060405180830381600087803b158015610e9957600080fd5b505af1158015610ead573d6000803e3d6000fd5b50505050610eb9610907565b6001600160801b0316803414610ee15760405162461bcd60e51b81526004016104d790613524565b6040805161010081018252601f546001600160a01b0390811682528251602081810185528054825280840191909152835190810184526021548152828401526022548116606083015260235416608082015260245460a082015260255460c082015260265460e0820152905163082153e960e21b815273__PaymentPiggybackInFlightExit__________916320854fa491610ddc919060169088906004016136f7565b600281565b6040805481516312c29caf60e21b815291516001600160a01b0390911691634b0a72bc916004808301926020929190829003018186803b158015610fcd57600080fd5b505afa158015610fe1573d6000803e3d6000fd5b505050506040513d601f19601f820116820180604052506110059190810190612542565b336001600160a01b0382161461102d5760405162461bcd60e51b81526004016104d790613564565b61103e603c8363ffffffff61161316565b7f63ccac61f03626a0e717e96da239ff8996745b6c4ddcaffdedc88d7ef938f5ec8260405161052091906137a9565b6000611077611a3d565b50604080516020810190915282815261109185858361187b565b9150505b9392505050565b604060009054906101000a90046001600160a01b0316806001600160a01b031663ff27b1896040518163ffffffff1660e01b8152600401600060405180830381600087803b1580156110ed57600080fd5b505af1158015611101573d6000803e3d6000fd5b50506040805160a0810182526037546001600160a01b03908116825260385481166020830152603954811682840152603a54166060820152603b54608082015290516359cff02160e01b815273__PaymentChallengeIFEOutputSpent________93506359cff021925061061e9190601690879060040161366c565b604060009054906101000a90046001600160a01b0316806001600160a01b031663ff27b1896040518163ffffffff1660e01b8152600401600060405180830381600087803b1580156111ce57600080fd5b505af11580156111e2573d6000803e3d6000fd5b505050506111ee610a37565b6001600160801b03168034146112165760405162461bcd60e51b81526004016104d790613524565b60408051610100810182526017546001600160a01b03908116825282516020818101855260185482528084019190915283519081018452601954815282840152601a5481166060830152601b5481166080830152601c54811660a0830152601d541660c0820152601e5460e08201529051631ff4513b60e01b815273__PaymentStartInFlightExit______________91631ff4513b91610ddc9190601690889060040161375c565b6631bced02db000081565b6683734dd0b0800081565b6112dd611a50565b6001600160a01b0382166000908152601660209081526040808320815161012081018352815460ff81161515825261010090046001600160401b03169381019390935260018101548383015260028101546060840152815160808082019093529293909291840191906003840190600490835b828210156113b7576040805160a081018252600584028601805482526001808201546001600160a01b039081166020808601919091526002840154909116948401949094526003820154606084015260049091015460808301529083529092019101611350565b5050509082525060408051608081019091526020909101906017830160046000835b82821015611440576040805160a081018252600584028601805482526001808201546001600160a01b0390811660208086019190915260028401549091169484019490945260038201546060840152600490910154608083015290835290920191016113d9565b50505090825250602b8201546001600160a01b03166020820152602c8201546040820152602d9091015460609091015292915050565b604060009054906101000a90046001600160a01b0316806001600160a01b031663ff27b1896040518163ffffffff1660e01b8152600401600060405180830381600087803b1580156114c757600080fd5b505af11580156114db573d6000803e3d6000fd5b505050506114e7610907565b6001600160801b031680341461150f5760405162461bcd60e51b81526004016104d790613524565b6040805161010081018252601f546001600160a01b0390811682528251602081810185528054825280840191909152835190810184526021548152828401526022548116606083015260235416608082015260245460a082015260255460c082015260265460e08201529051631845801f60e11b815273__PaymentPiggybackInFlightExit__________9163308b003e91610ddc919060169088906004016136c7565b6040805160a0810182526013546001600160801b038082168352600160801b91829004811660208401526014549081169383019390935261ffff90830481166060830152600160901b909204909116608082015260009061096790611701565b6040805160a08101825283546001600160801b038082168352600160801b918290048116602084015260018601549081169383019390935261ffff90830481166060830152600160901b909204909116608082015261167290826118e8565b8154600160801b90046001600160801b03161580159061169f575060018201546001600160801b03164210155b156116c6578154600160801b81046001600160801b03166001600160801b03199091161782555b81546001600160801b03918216600160801b02911617815560010180546001600160801b0319166001600160401b03426202a3000116179055565b600081604001516001600160801b0316421015611720575080516109da565b5060208101516109da565b60006117476001600160a01b038316609763ffffffff6119ab16565b60ff161592915050565b604080516080810182526009546001600160a01b039081168252600a5481166020830152600b541681830152600c54606082015290516373c97b6d60e11b815273__PaymentProcessStandardExit____________9163e792f6da916117c1919060009087908790600401613727565b60006040518083038186803b1580156117d957600080fd5b505af415801561069d573d6000803e3d6000fd5b604080516080810182526033546001600160a01b03908116825260345481166020830152603554168183015260365460608201529051632309cb3d60e01b815273__PaymentProcessInFlightExit____________91632309cb3d916117c1919060169087908790600401613727565b80516020820120600090610b9f9060691c609763ffffffff6119b516565b600083156118cc57815160405160009161189a91869190602001613502565b6040516020818303038152906040528051906020012090506118c4816118bf856119c2565b6119cb565b915050611095565b6118e083805190602001206118bf846119c2565b949350505050565b60006118f383611701565b90506000826001600160801b03161161191e5760405162461bcd60e51b81526004016104d790613544565b826060015161ffff16816001600160801b03168161193857fe5b046001600160801b0316826001600160801b0316101561196a5760405162461bcd60e51b81526004016104d790613554565b826080015161ffff16816001600160801b031602826001600160801b031611156119a65760405162461bcd60e51b81526004016104d790613534565b505050565b60ff161c60011690565b600160ff919091161b1790565b51612710900690565b6000606983901c61ffff60981b609884901b1617806001600160a01b03811681146118e05760405162461bcd60e51b81526004016104d790613574565b6040805160c081018252600080825260208201819052918101829052606081018290526080810182905260a081019190915290565b6040518060200160405280600081525090565b60405180610120016040528060001515815260200160006001600160401b031681526020016000815260200160008152602001611a8b611abc565b8152602001611a98611abc565b815260200160006001600160a01b0316815260200160008152602001600081525090565b60405180608001604052806004905b611ad3611ae9565b815260200190600190039081611acb5790505090565b6040805160a08101825260008082526020820181905291810182905260608101829052608081019190915290565b8035610b9f816138e4565b8051610b9f816138e4565b600082601f830112611b3e57600080fd5b8135611b51611b4c826137f9565b6137d3565b81815260209384019390925082018360005b83811015611b8f5781358601611b798882611c14565b8452506020928301929190910190600101611b63565b5050505092915050565b600082601f830112611baa57600080fd5b8135611bb8611b4c826137f9565b91508181835260208401935060208101905083856020840282011115611bdd57600080fd5b60005b83811015611b8f5781611bf38882612537565b8452506020928301929190910190600101611be0565b8035610b9f816138fb565b600082601f830112611c2557600080fd5b8135611c33611b4c82613819565b91508082526020830160208301858383011115611c4f57600080fd5b611c5a8382846138a2565b50505092915050565b60006101808284031215611c7657600080fd5b611c816101806137d3565b905081356001600160401b03811115611c9957600080fd5b611ca584828501611c14565b8252506020611cb684848301612537565b60208301525060408201356001600160401b03811115611cd557600080fd5b611ce184828501611c14565b6040830152506060611cf584828501612521565b60608301525060808201356001600160401b03811115611d1457600080fd5b611d2084828501611c14565b60808301525060a0611d3484828501612521565b60a08301525060c08201356001600160401b03811115611d5357600080fd5b611d5f84828501611c14565b60c08301525060e0611d7384828501612537565b60e0830152506101008201356001600160401b03811115611d9357600080fd5b611d9f84828501611c14565b610100830152506101208201356001600160401b03811115611dc057600080fd5b611dcc84828501611c14565b610120830152506101408201356001600160401b03811115611ded57600080fd5b611df984828501611c14565b610140830152506101608201356001600160401b03811115611e1a57600080fd5b611e2684828501611c14565b6101608301525092915050565b60006101008284031215611e4657600080fd5b611e516101006137d3565b905081356001600160401b03811115611e6957600080fd5b611e7584828501611c14565b8252506020611e8684848301612521565b60208301525060408201356001600160401b03811115611ea557600080fd5b611eb184828501611c14565b6040830152506060611ec584828501612521565b60608301525060808201356001600160401b03811115611ee457600080fd5b611ef084828501611c14565b60808301525060a08201356001600160401b03811115611f0f57600080fd5b611f1b84828501611c14565b60a08301525060c0611f2f84828501612537565b60c08301525060e08201356001600160401b03811115611f4e57600080fd5b611f5a84828501611c14565b60e08301525092915050565b600060e08284031215611f7857600080fd5b611f8260e06137d3565b905081356001600160401b03811115611f9a57600080fd5b611fa684828501611c14565b82525060208201356001600160401b03811115611fc257600080fd5b611fce84828501611c14565b6020830152506040611fe284828501612537565b60408301525060608201356001600160401b0381111561200157600080fd5b61200d84828501611c14565b606083015250608061202184828501612521565b60808301525060a08201356001600160401b0381111561204057600080fd5b61204c84828501611c14565b60a08301525060c08201356001600160401b0381111561206b57600080fd5b61207784828501611c14565b60c08301525092915050565b6000610140828403121561209657600080fd5b6120a16101406137d3565b905060006120af848461252c565b82525060208201356001600160401b038111156120cb57600080fd5b6120d784828501611c14565b60208301525060408201356001600160401b038111156120f657600080fd5b61210284828501611c14565b604083015250606061211684828501612521565b60608301525060808201356001600160401b0381111561213557600080fd5b61214184828501611c14565b60808301525060a08201356001600160401b0381111561216057600080fd5b61216c84828501611c14565b60a08301525060c08201356001600160401b0381111561218b57600080fd5b61219784828501611c14565b60c08301525060e06121ab84828501612537565b60e0830152506101008201356001600160401b038111156121cb57600080fd5b6121d784828501611c14565b610100830152506101208201356001600160401b038111156121f857600080fd5b61220484828501611c14565b6101208301525092915050565b60006040828403121561222357600080fd5b61222d60406137d3565b905081356001600160401b0381111561224557600080fd5b61225184828501611c14565b825250602061226284848301612521565b60208301525092915050565b60006060828403121561228057600080fd5b61228a60606137d3565b905081356001600160401b038111156122a257600080fd5b6122ae84828501611c14565b82525060206122bf84848301612521565b60208301525060408201356001600160401b038111156122de57600080fd5b6122ea84828501611c14565b60408301525092915050565b6000610100828403121561230957600080fd5b6123146101006137d3565b905081356001600160401b0381111561232c57600080fd5b61233884828501611c14565b82525060208201356001600160401b0381111561235457600080fd5b61236084828501611b2d565b60208301525060408201356001600160401b0381111561237f57600080fd5b61238b84828501611b99565b60408301525060608201356001600160401b038111156123aa57600080fd5b6123b684828501611b2d565b60608301525060808201356001600160401b038111156123d557600080fd5b6123e184828501611b2d565b60808301525060a08201356001600160401b0381111561240057600080fd5b61240c84828501611b2d565b60a08301525060c08201356001600160401b0381111561242b57600080fd5b61243784828501611b2d565b60c08301525060e08201356001600160401b0381111561245657600080fd5b611f5a84828501611b2d565b60006080828403121561247457600080fd5b61247e60806137d3565b9050600061248c8484612537565b82525060208201356001600160401b038111156124a857600080fd5b6124b484828501611c14565b60208301525060408201356001600160401b038111156124d357600080fd5b6124df84828501611c14565b60408301525060608201356001600160401b038111156124fe57600080fd5b61250a84828501611c14565b60608301525092915050565b8035610b9f81613904565b8035610b9f8161390d565b8035610b9f81613916565b8035610b9f8161391f565b60006020828403121561255457600080fd5b60006118e08484611b22565b60008060006060848603121561257557600080fd5b60006125818686611c09565b93505060208401356001600160401b0381111561259d57600080fd5b6125a986828701611c14565b92505060406125ba86828701612537565b9150509250925092565b6000602082840312156125d657600080fd5b81356001600160401b038111156125ec57600080fd5b6118e084828501611c14565b60008060006060848603121561260d57600080fd5b83356001600160401b0381111561262357600080fd5b61262f86828701611c14565b935050602061264086828701612537565b92505060408401356001600160401b0381111561265c57600080fd5b6125ba86828701611c14565b60006020828403121561267a57600080fd5b81356001600160401b0381111561269057600080fd5b6118e084828501611c63565b6000602082840312156126ae57600080fd5b81356001600160401b038111156126c457600080fd5b6118e084828501611e33565b6000602082840312156126e257600080fd5b81356001600160401b038111156126f857600080fd5b6118e084828501611f66565b60006020828403121561271657600080fd5b81356001600160401b0381111561272c57600080fd5b6118e084828501612083565b60006020828403121561274a57600080fd5b81356001600160401b0381111561276057600080fd5b6118e084828501612211565b60006020828403121561277e57600080fd5b81356001600160401b0381111561279457600080fd5b6118e08482850161226e565b6000602082840312156127b257600080fd5b81356001600160401b038111156127c857600080fd5b6118e0848285016122f6565b6000602082840312156127e657600080fd5b81356001600160401b038111156127fc57600080fd5b6118e084828501612462565b60006020828403121561281a57600080fd5b60006118e08484612516565b60006020828403121561283857600080fd5b60006118e0848461252c565b60008060006060848603121561285957600080fd5b6000612865868661252c565b935050602061287686828701612537565b92505060406125ba86828701611b17565b600061109583836129ef565b600061289f8383613483565b505060a00190565b60006128b383836129e6565b505060200190565b6128c48161385c565b82525050565b60006128d582613849565b6128df8185613853565b9350836020820285016128f185613840565b8060005b8581101561292b578484038952815161290e8582612887565b945061291983613840565b60209a909a01999250506001016128f5565b5091979650505050505050565b6129418161384d565b61294b81846109da565b925061295682613846565b8060005b8381101561069d57815161296e8782612893565b965061297983613840565b92505060010161295a565b600061298f82613849565b6129998185613853565b93506129a483613840565b8060005b838110156129d25781516129bc88826128a7565b97506129c783613840565b9250506001016129a8565b509495945050505050565b6128c481613867565b6128c481613846565b60006129fa82613849565b612a048185613853565b9350612a148185602086016138ae565b612a1d816138da565b9093019392505050565b6000612a3282613849565b612a3c81856109da565b9350612a4c8185602086016138ae565b9290920192915050565b6128c481613897565b6000612a6c602083613853565b7f496e7075742076616c7565206d757374206d61746368206d73672e76616c7565815260200192915050565b6000612aa5601583613853565b74084dedcc840e6d2f4ca40d2e640e8dede40d0d2ced605b1b815260200192915050565b6000612ad6601883613853565b7f426f6e642073697a652063616e6e6f74206265207a65726f0000000000000000815260200192915050565b6000612b0f601483613853565b73426f6e642073697a6520697320746f6f206c6f7760601b815260200192915050565b6000612b3f601e83613853565b7f43616c6c6572206164647265737320697320756e617574686f72697a65640000815260200192915050565b6000612b78601083613853565b6f457869744964206f766572666c6f777360801b815260200192915050565b80516020830190610a3184826129e6565b805161018080845260009190840190612bc182826129ef565b9150506020830151612bd660208601826129e6565b5060408301518482036040860152612bee82826129ef565b9150506060830151612c0360608601826134df565b5060808301518482036080860152612c1b82826129ef565b91505060a0830151612c3060a08601826134df565b5060c083015184820360c0860152612c4882826129ef565b91505060e0830151612c5d60e08601826129e6565b50610100830151848203610100860152612c7782826129ef565b915050610120830151848203610120860152612c9382826129ef565b915050610140830151848203610140860152612caf82826129ef565b915050610160830151848203610160860152612ccb82826129ef565b95945050505050565b805161010080845260009190840190612ced82826129ef565b9150506020830151612d0260208601826134df565b5060408301518482036040860152612d1a82826129ef565b9150506060830151612d2f60608601826134df565b5060808301518482036080860152612d4782826129ef565b91505060a083015184820360a0860152612d6182826129ef565b91505060c0830151612d7660c08601826129e6565b5060e083015184820360e0860152612ccb82826129ef565b805160e080845260009190840190612da682826129ef565b91505060208301518482036020860152612dc082826129ef565b9150506040830151612dd560408601826129e6565b5060608301518482036060860152612ded82826129ef565b9150506080830151612e0260808601826134df565b5060a083015184820360a0860152612e1a82826129ef565b91505060c083015184820360c0860152612ccb82826129ef565b8051600090610140840190612e4985826134d6565b5060208301518482036020860152612e6182826129ef565b91505060408301518482036040860152612e7b82826129ef565b9150506060830151612e9060608601826134df565b5060808301518482036080860152612ea882826129ef565b91505060a083015184820360a0860152612ec282826129ef565b91505060c083015184820360c0860152612edc82826129ef565b91505060e0830151612ef160e08601826129e6565b50610100830151848203610100860152612f0b82826129ef565b915050610120830151848203610120860152612ccb82826129ef565b8051610100830190612f398482612a56565b506020820151612f4c6020850182612a56565b506040820151612f5f6040850182612b97565b506060820151612f726060850182612b97565b506080820151612f856080850182612a56565b5060a0820151612f9860a0850182612a56565b5060c0820151612fab60c08501826129e6565b5060e0820151610a3160e08501826129e6565b805160c0830190612fcf8482612a56565b506020820151612fe26020850182612b97565b506040820151612ff56040850182612a56565b5060608201516130086060850182612a56565b50608082015161301b6080850182612a56565b5060a0820151610a3160a08501826129e6565b805160a083019061303f8482612a56565b5060208201516130526020850182612a56565b5060408201516130656040850182612a56565b5060608201516130786060850182612a56565b506080820151610a3160808501826129e6565b805161010083019061309d8482612a56565b5060208201516130b06020850182612b97565b5060408201516130c36040850182612b97565b5060608201516130d66060850182612a56565b5060808201516130e96080850182612a56565b5060a0820151612f9860a08501826129e6565b8051608083019061310d8482612a56565b5060208201516131206020850182612a56565b5060408201516131336040850182612a56565b506060820151610a3160608501826129e6565b80516101008301906131588482612a56565b50602082015161316b6020850182612b97565b50604082015161317e6040850182612b97565b5060608201516131916060850182612a56565b5060808201516131a46080850182612a56565b5060a08201516131b760a0850182612a56565b5060c0820151612fab60c0850182612a56565b9052565b80516105e08301906131e084826129dd565b5060208201516131f360208501826134f9565b50604082015161320660408501826129e6565b50606082015161321960608501826129e6565b50608082015161322c6080850182612938565b5060a0820151613240610300850182612938565b5060c08201516132546105808501826128bb565b5060e08201516132686105a08501826129e6565b50610100820151610a316105c08501826129e6565b805160408084526000919084019061329582826129ef565b91505060208301516132aa60208601826134df565b509392505050565b80516060808452600091908401906132ca82826129ef565b91505060208301516132df60208601826134df565b5060408301518482036040860152612ccb82826129ef565b805160c083019061330884826129dd565b50602082015161331b60208501826129e6565b50604082015161332e60408501826129e6565b50606082015161334160608501826128bb565b50608082015161301b60808501826129e6565b80516101008084526000919084019061336d82826129ef565b9150506020830151848203602086015261338782826128ca565b915050604083015184820360408601526133a18282612984565b915050606083015184820360608601526133bb82826128ca565b915050608083015184820360808601526133d582826128ca565b91505060a083015184820360a08601526133ef82826128ca565b91505060c083015184820360c086015261340982826128ca565b91505060e083015184820360e0860152612ccb82826128ca565b8051600090608084019061343785826129e6565b506020830151848203602086015261344f82826129ef565b9150506040830151848203604086015261346982826129ef565b91505060608301518482036060860152612ccb82826129ef565b805160a083019061349484826129e6565b5060208201516134a760208501826128bb565b5060408201516134ba60408501826128bb565b50606082015161307860608501826129e6565b6128c48161386c565b6128c48161387f565b6128c481613878565b6128c46134f482613846565b613846565b6128c48161388b565b600061350e8285612a27565b915061351a82846134e8565b5060200192915050565b60208082528101610b9f81612a5f565b60208082528101610b9f81612a98565b60208082528101610b9f81612ac9565b60208082528101610b9f81612b02565b60208082528101610b9f81612b32565b60208082528101610b9f81612b6b565b61014081016135938286612f27565b6135a16101008301856131ca565b818103610120830152612ccb8184613423565b61010081016135c38286612fbe565b6135d060c08301856131ca565b81810360e0830152612ccb8184612cd4565b61014081016135f18288612fbe565b6135fe60c08301876131ca565b81810360e083015261361081866129ef565b90506136206101008301856129e6565b81810361012083015261363381846129ef565b979650505050505050565b610100810161364d8286612fbe565b61365a60c08301856131ca565b81810360e0830152612ccb8184612ba8565b60e0810161367a828661302e565b61368760a08301856131ca565b81810360c0830152612ccb8184612d8e565b61010081016136a88286612fbe565b6136b560c08301856131ca565b81810360e0830152612ccb8184612e34565b61014081016136d6828661308b565b6136e46101008301856131ca565b818103610120830152612ccb818461327d565b6101408101613706828661308b565b6137146101008301856131ca565b818103610120830152612ccb81846132b2565b60e0810161373582876130fc565b61374260808301866131ca565b61374f60a08301856134d6565b612ccb60c08301846128bb565b610140810161376b8286613146565b6137796101008301856131ca565b818103610120830152612ccb8184613354565b6105e08101610b9f82846131ce565b60c08101610b9f82846132f7565b60208101610b9f82846134cd565b60208101610b9f82846134d6565b60208101610b9f82846134df565b6040518181016001600160401b03811182821017156137f157600080fd5b604052919050565b60006001600160401b0382111561380f57600080fd5b5060209081020190565b60006001600160401b0382111561382f57600080fd5b506020601f91909101601f19160190565b60200190565b90565b5190565b50600490565b90815260200190565b6000610b9f8261387f565b151590565b6001600160801b031690565b61ffff1690565b6001600160a01b031690565b6001600160401b031690565b6000610b9f8261385c565b82818337506000910152565b60005b838110156138c95781810151838201526020016138b1565b83811115610a315750506000910152565b601f01601f191690565b6138ed8161385c565b81146138f857600080fd5b50565b6138ed81613867565b6138ed8161386c565b6138ed81613878565b6138ed8161387f565b6138ed81613846565b613930611ae9565b506040805160a0810182526001600160801b03949094168452600060208501526780000000000000009084015261ffff91821660608401521660808201529056fea365627a7a7231582067ff109c553dd0fb862ee923daf17927d28c10541cd32f54c017117bf58ff95e6c6578706572696d656e74616cf564736f6c634300050b0040",
  "source": "pragma solidity 0.5.11;\npragma experimental ABIEncoderV2;\n\nimport \"./routers/PaymentStandardExitRouter.sol\";\nimport \"./routers/PaymentInFlightExitRouter.sol\";\nimport \"../interfaces/IStateTransitionVerifier.sol\";\nimport \"../interfaces/ITxFinalizationVerifier.sol\";\nimport \"../utils/ExitId.sol\";\nimport \"../../framework/interfaces/IExitProcessor.sol\";\nimport \"../../framework/PlasmaFramework.sol\";\nimport \"../../utils/OnlyFromAddress.sol\";\n\n/**\n * @notice The exit game contract implementation for Payment Transaction\n */\ncontract PaymentExitGame is IExitProcessor, OnlyFromAddress, PaymentStandardExitRouter, PaymentInFlightExitRouter {\n    PlasmaFramework private plasmaFramework;\n\n    /**\n     * @param framework The Plasma framework\n     * @param ethVaultId Vault id for EthVault\n     * @param erc20VaultId Vault id for the Erc20Vault\n     * @param outputGuardHandlerRegistry the outputGuardHandlerRegistry that can provide outputGuardHandler implementation by types\n     * @param spendingConditionRegistry the spendingConditionRegistry that can provide spending condition implementation by types\n     * @param stateTransitionVerifier state transition verifier predicate contract that checks the transaction correctness\n     * @param txFinalizationVerifier util contract that checks tx is finalized or not\n     * @param supportTxType the tx type of this exit game is using\n     * @param safeGasStipend a gas amount limit when tranferring Eth to protect from attack with draining gas\n     */\n    struct PaymentExitGameArgs {\n        PlasmaFramework framework;\n        uint256 ethVaultId;\n        uint256 erc20VaultId;\n        OutputGuardHandlerRegistry outputGuardHandlerRegistry;\n        SpendingConditionRegistry spendingConditionRegistry;\n        IStateTransitionVerifier stateTransitionVerifier;\n        ITxFinalizationVerifier txFinalizationVerifier;\n        uint256 supportTxType;\n        uint256 safeGasStipend;\n    }\n\n    /**\n     * @dev use struct PaymentExitGameArgs to avoid stack too deep compilation error.\n     */\n    constructor(\n        PaymentExitGameArgs memory args\n    )\n        public\n        PaymentStandardExitRouter(\n            args.framework,\n            args.ethVaultId,\n            args.erc20VaultId,\n            args.outputGuardHandlerRegistry,\n            args.spendingConditionRegistry,\n            args.txFinalizationVerifier,\n            args.safeGasStipend\n        )\n        PaymentInFlightExitRouter(\n            args.framework,\n            args.ethVaultId,\n            args.erc20VaultId,\n            args.outputGuardHandlerRegistry,\n            args.spendingConditionRegistry,\n            args.stateTransitionVerifier,\n            args.txFinalizationVerifier,\n            args.supportTxType,\n            args.safeGasStipend\n        )\n    {\n        plasmaFramework = args.framework;\n    }\n\n    /**\n     * @notice Callback processes exit function for the PlasmaFramework to call\n     * @param exitId The exit ID\n     * @param token Token (ERC20 address or address(0) for ETH) of the exiting output\n     */\n    function processExit(uint160 exitId, uint256, address token) external onlyFrom(address(plasmaFramework)) {\n        if (ExitId.isStandardExit(exitId)) {\n            PaymentStandardExitRouter.processStandardExit(exitId, token);\n        } else {\n            PaymentInFlightExitRouter.processInFlightExit(exitId, token);\n        }\n    }\n\n    /**\n     * @notice Helper function to compute the standard exit ID\n     */\n    function getStandardExitId(bool _isDeposit, bytes memory _txBytes, uint256 _utxoPos)\n        public\n        pure\n        returns (uint160)\n    {\n        UtxoPosLib.UtxoPos memory utxoPos = UtxoPosLib.UtxoPos(_utxoPos);\n        return ExitId.getStandardExitId(_isDeposit, _txBytes, utxoPos);\n    }\n\n    /**\n     * @notice Helper function to compute the in-flight exit ID\n     */\n    function getInFlightExitId(bytes memory _txBytes)\n        public\n        pure\n        returns (uint160)\n    {\n        return ExitId.getInFlightExitId(_txBytes);\n    }\n}\n",
  "sourcePath": "/Users/jarindr/plasma-contracts/plasma_framework/contracts/src/exits/payment/PaymentExitGame.sol",
  "compiler": {
    "name": "solc",
    "version": "0.5.11+commit.c082d0b4.Emscripten.clang"
  },
  "schemaVersion": "3.0.16",
  "updatedAt": "2019-12-11T05:31:33.655Z",
  "devdoc": {
    "methods": {
      "challengeInFlightExitInputSpent((bytes,uint16,bytes,uint16,bytes,bytes,uint256,bytes))": {
        "params": {
          "args": "Argument data to challenge (see also struct 'ChallengeInputSpentArgs')"
        }
      },
      "challengeInFlightExitNotCanonical((bytes,uint256,bytes,uint16,bytes,uint16,bytes,uint256,bytes,bytes,bytes,bytes))": {
        "params": {
          "args": "Input argument data to challenge (see also struct 'ChallengeCanonicityArgs')"
        }
      },
      "challengeInFlightExitOutputSpent((bytes,bytes,uint256,bytes,uint16,bytes,bytes))": {
        "params": {
          "args": "Argument data to challenge (see also struct 'ChallengeOutputSpent')"
        }
      },
      "constructor": {
        "details": "use struct PaymentExitGameArgs to avoid stack too deep compilation error."
      },
      "inFlightExits(uint160)": {
        "params": {
          "exitId": "The exit ID of the in-flight exit"
        }
      },
      "piggybackInFlightExitOnInput((bytes,uint16))": {
        "params": {
          "args": "Input argument data to piggyback (see also struct 'PiggybackInFlightExitOnInputArgs')"
        }
      },
      "piggybackInFlightExitOnOutput((bytes,uint16,bytes))": {
        "params": {
          "args": "Input argument data to piggyback (see also struct 'PiggybackInFlightExitOnOutputArgs')"
        }
      },
      "processExit(uint160,uint256,address)": {
        "params": {
          "exitId": "The exit ID",
          "token": "Token (ERC20 address or address(0) for ETH) of the exiting output"
        }
      },
      "respondToNonCanonicalChallenge(bytes,uint256,bytes)": {
        "params": {
          "inFlightTx": "The RLP-encoded in-flight transaction",
          "inFlightTxInclusionProof": "Inclusion proof for the in-flight tx",
          "inFlightTxPos": "The UTXO position of the in-flight exit. The outputIndex should be set to 0."
        }
      },
      "standardExits(uint160)": {
        "params": {
          "exitId": "Exit ID of the standard exit"
        }
      },
      "startInFlightExit((bytes,bytes[],uint256[],bytes[],bytes[],bytes[],bytes[],bytes[]))": {
        "params": {
          "args": "Input argument data to challenge (see also struct 'StartExitArgs')"
        }
      },
      "updatePiggybackBondSize(uint128)": {
        "params": {
          "newBondSize": "The new bond size"
        }
      },
      "updateStartIFEBondSize(uint128)": {
        "params": {
          "newBondSize": "The new bond size"
        }
      },
      "updateStartStandardExitBondSize(uint128)": {
        "params": {
          "newBondSize": "The new bond size"
        }
      }
    }
  },
  "userdoc": {
    "methods": {
      "challengeInFlightExitInputSpent((bytes,uint16,bytes,uint16,bytes,bytes,uint256,bytes))": {
        "notice": "Challenges an exit from in-flight transaction input"
      },
      "challengeInFlightExitNotCanonical((bytes,uint256,bytes,uint16,bytes,uint16,bytes,uint256,bytes,bytes,bytes,bytes))": {
        "notice": "Challenges an in-flight exit to be non-canonical"
      },
      "challengeInFlightExitOutputSpent((bytes,bytes,uint256,bytes,uint16,bytes,bytes))": {
        "notice": "Challenges an exit from in-flight transaction output"
      },
      "challengeStandardExit((uint160,bytes,bytes,uint16,bytes,bytes,bytes,uint256,bytes,bytes))": {
        "notice": "Challenge a standard exit by showing the exiting output was spent"
      },
      "getInFlightExitId(bytes)": {
        "notice": "Helper function to compute the in-flight exit ID"
      },
      "getStandardExitId(bool,bytes,uint256)": {
        "notice": "Helper function to compute the standard exit ID"
      },
      "inFlightExits(uint160)": {
        "notice": "Getter functions to retrieve in-flight exit data of the PaymentExitGame"
      },
      "piggybackBondSize()": {
        "notice": "Retrieves the piggyback bond size"
      },
      "piggybackInFlightExitOnInput((bytes,uint16))": {
        "notice": "Piggyback on an input of an in-flight exiting tx. Processed only if the in-flight exit is non-canonical."
      },
      "piggybackInFlightExitOnOutput((bytes,uint16,bytes))": {
        "notice": "Piggyback on an output of an in-flight exiting tx. Processed only if the in-flight exit is canonical."
      },
      "processExit(uint160,uint256,address)": {
        "notice": "Callback processes exit function for the PlasmaFramework to call"
      },
      "respondToNonCanonicalChallenge(bytes,uint256,bytes)": {
        "notice": "Respond to a non-canonical challenge by providing its position and by proving its correctness"
      },
      "standardExits(uint160)": {
        "notice": "Getter retrieves standard exit data of the PaymentExitGame"
      },
      "startIFEBondSize()": {
        "notice": "Retrieves the in-flight exit bond size"
      },
      "startInFlightExit((bytes,bytes[],uint256[],bytes[],bytes[],bytes[],bytes[],bytes[]))": {
        "notice": "Starts withdrawal from a transaction that may be in-flight"
      },
      "startStandardExit((uint256,bytes,bytes,bytes))": {
        "notice": "Starts a standard exit of a given output, using output-age priority"
      },
      "startStandardExitBondSize()": {
        "notice": "Retrieves the standard exit bond size"
      },
      "updatePiggybackBondSize(uint128)": {
        "notice": "Updates the piggyback bond size, taking two days to become effective"
      },
      "updateStartIFEBondSize(uint128)": {
        "notice": "Updates the in-flight exit bond size, taking two days to become effective."
      },
      "updateStartStandardExitBondSize(uint128)": {
        "notice": "Updates the standard exit bond size, taking two days to become effective"
      }
    },
    "notice": "The exit game contract implementation for Payment Transaction"
  }
}