{
  "contractName": "EthVault",
  "abi": [
    {
      "constant": true,
      "inputs": [
        {
          "internalType": "uint256",
          "name": "",
          "type": "uint256"
        }
      ],
      "name": "depositVerifiers",
      "outputs": [
        {
          "internalType": "address",
          "name": "",
          "type": "address"
        }
      ],
      "payable": false,
      "stateMutability": "view",
      "type": "function"
    },
    {
      "constant": false,
      "inputs": [
        {
          "internalType": "address",
          "name": "_verifier",
          "type": "address"
        }
      ],
      "name": "setDepositVerifier",
      "outputs": [],
      "payable": false,
      "stateMutability": "nonpayable",
      "type": "function"
    },
    {
      "constant": true,
      "inputs": [],
      "name": "getEffectiveDepositVerifier",
      "outputs": [
        {
          "internalType": "address",
          "name": "",
          "type": "address"
        }
      ],
      "payable": false,
      "stateMutability": "view",
      "type": "function"
    },
    {
      "constant": true,
      "inputs": [],
      "name": "newDepositVerifierMaturityTimestamp",
      "outputs": [
        {
          "internalType": "uint256",
          "name": "",
          "type": "uint256"
        }
      ],
      "payable": false,
      "stateMutability": "view",
      "type": "function"
    },
    {
      "constant": true,
      "inputs": [],
      "name": "safeGasStipend",
      "outputs": [
        {
          "internalType": "uint256",
          "name": "",
          "type": "uint256"
        }
      ],
      "payable": false,
      "stateMutability": "view",
      "type": "function"
    },
    {
      "inputs": [
        {
          "internalType": "contract PlasmaFramework",
          "name": "_framework",
          "type": "address"
        },
        {
          "internalType": "uint256",
          "name": "_safeGasStipend",
          "type": "uint256"
        }
      ],
      "payable": false,
      "stateMutability": "nonpayable",
      "type": "constructor"
    },
    {
      "anonymous": false,
      "inputs": [
        {
          "indexed": true,
          "internalType": "address",
          "name": "receiver",
          "type": "address"
        },
        {
          "indexed": false,
          "internalType": "uint256",
          "name": "amount",
          "type": "uint256"
        }
      ],
      "name": "EthWithdrawn",
      "type": "event"
    },
    {
      "anonymous": false,
      "inputs": [
        {
          "indexed": true,
          "internalType": "address",
          "name": "receiver",
          "type": "address"
        },
        {
          "indexed": false,
          "internalType": "uint256",
          "name": "amount",
          "type": "uint256"
        }
      ],
      "name": "WithdrawFailed",
      "type": "event"
    },
    {
      "anonymous": false,
      "inputs": [
        {
          "indexed": true,
          "internalType": "address",
          "name": "depositor",
          "type": "address"
        },
        {
          "indexed": true,
          "internalType": "uint256",
          "name": "blknum",
          "type": "uint256"
        },
        {
          "indexed": true,
          "internalType": "address",
          "name": "token",
          "type": "address"
        },
        {
          "indexed": false,
          "internalType": "uint256",
          "name": "amount",
          "type": "uint256"
        }
      ],
      "name": "DepositCreated",
      "type": "event"
    },
    {
      "anonymous": false,
      "inputs": [
        {
          "indexed": false,
          "internalType": "address",
          "name": "nextDepositVerifier",
          "type": "address"
        }
      ],
      "name": "SetDepositVerifierCalled",
      "type": "event"
    },
    {
      "constant": false,
      "inputs": [
        {
          "internalType": "bytes",
          "name": "_depositTx",
          "type": "bytes"
        }
      ],
      "name": "deposit",
      "outputs": [],
      "payable": true,
      "stateMutability": "payable",
      "type": "function"
    },
    {
      "constant": false,
      "inputs": [
        {
          "internalType": "address payable",
          "name": "receiver",
          "type": "address"
        },
        {
          "internalType": "uint256",
          "name": "amount",
          "type": "uint256"
        }
      ],
      "name": "withdraw",
      "outputs": [],
      "payable": false,
      "stateMutability": "nonpayable",
      "type": "function"
    }
  ],
  "bytecode": "0x60806040527f800000000000000000000000000000000000000000000000000000000000000060135534801561003457600080fd5b50604051610bdb380380610bdb8339818101604052604081101561005757600080fd5b508051602090910151600080546001600160a01b0319166001600160a01b0384161790558161008461009d565b610092906001906010610163565b5050601455506101da565b6100a56101a1565b6100ad6101a1565b6040805160006020808301829052602180840183905284518085039091018152604190930190935281519190920120905b601081101561015a57818382601081106100f457fe5b60209081029190910191909152604080517f010000000000000000000000000000000000000000000000000000000000000081840152602181018590526041808201959095528151808203909501855260610190528251920191909120906001016100de565b50909150505b90565b8260108101928215610191579160200282015b82811115610191578251825591602001919060010190610176565b5061019d9291506101c0565b5090565b6040518061020001604052806010906020820280388339509192915050565b61016091905b8082111561019d57600081556001016101c6565b6109f2806101e96000396000f3fe6080604052600436106100705760003560e01c806398b1e06a1161004e57806398b1e06a14610105578063a7e5994f14610175578063ccbd21761461019c578063f3fef3a3146101b157610070565b806302e9b07b146100755780632c6ce78b146100bb57806352518b7f146100f0575b600080fd5b34801561008157600080fd5b5061009f6004803603602081101561009857600080fd5b50356101ea565b604080516001600160a01b039092168252519081900360200190f35b3480156100c757600080fd5b506100ee600480360360208110156100de57600080fd5b50356001600160a01b0316610207565b005b3480156100fc57600080fd5b5061009f610439565b6100ee6004803603602081101561011b57600080fd5b81019060208101813564010000000081111561013657600080fd5b82018360208201111561014857600080fd5b8035906020019184600183028401116401000000008311171561016a57600080fd5b509092509050610468565b34801561018157600080fd5b5061018a6105e7565b60408051918252519081900360200190f35b3480156101a857600080fd5b5061018a6105ed565b3480156101bd57600080fd5b506100ee600480360360408110156101d457600080fd5b506001600160a01b0381351690602001356105f3565b601181600281106101f757fe5b01546001600160a01b0316905081565b6000809054906101000a90046001600160a01b03166001600160a01b0316634b0a72bc6040518163ffffffff1660e01b815260040160206040518083038186803b15801561025457600080fd5b505afa158015610268573d6000803e3d6000fd5b505050506040513d602081101561027e57600080fd5b5051336001600160a01b038216146102dd576040805162461bcd60e51b815260206004820152601e60248201527f43616c6c6572206164647265737320697320756e617574686f72697a65640000604482015290519081900360640190fd5b6001600160a01b0382166103225760405162461bcd60e51b815260040180806020018281038252602f815260200180610930602f913960400191505060405180910390fd5b6011546001600160a01b0316156103dd5761033b610439565b601180546001600160a01b03199081166001600160a01b0393841617909155601280549091168483161790556000546040805163d4a2b4ef60e01b81529051919092169163d4a2b4ef916004808301926020929190829003018186803b1580156103a457600080fd5b505afa1580156103b8573d6000803e3d6000fd5b505050506040513d60208110156103ce57600080fd5b505160020242016013556103f9565b601180546001600160a01b0319166001600160a01b0384161790555b604080516001600160a01b038416815290517f11e5a7570e0de4b31179f8c9cf5e8a1e6cfd23731ec7a5a06e3006d71dd321fd9181900360200190a15050565b600060135442101561045c57601160005b01546001600160a01b03169050610465565b6011600161044a565b90565b6000610472610439565b90506001600160a01b0381166104b95760405162461bcd60e51b815260040180806020018281038252602181526020018061095f6021913960400191505060405180910390fd5b806001600160a01b031663aee150c7848434336040518563ffffffff1660e01b81526004018080602001848152602001836001600160a01b03166001600160a01b031681526020018281038252868682818152602001925080828437600081840152601f19601f8201169050808301925050509550505050505060006040518083038186803b15801561054b57600080fd5b505afa15801561055f573d6000803e3d6000fd5b5050505060006105a484848080601f01602080910402602001604051908101604052809392919081815260200183838082843760009201919091525061074592505050565b604080513481529051919250600091839133917f18569122d84f30025bb8dffb33563f1bdbfb9637f21552b11b8305686e9cb3079181900360200190a450505050565b60135481565b60145481565b60005460408051632d0816d760e11b815233600482015290516001600160a01b0390921691635a102dae91602480820192602092909190829003018186803b15801561063e57600080fd5b505afa158015610652573d6000803e3d6000fd5b505050506040513d602081101561066857600080fd5b50516106a55760405162461bcd60e51b815260040180806020018281038252603e815260200180610980603e913960400191505060405180910390fd5b60006106b483836014546107d7565b90508015610700576040805183815290516001600160a01b038516917f8455ae6be5d92f1df1c3c1484388e247a36c7e60d72055ae216dbc258f257d4b919081900360200190a2610740565b6040805183815290516001600160a01b038516917fa2269912b47133fae1d7f448c9284ea248951ac29b8c7c41d301f8721a38d10d919081900360200190a25b505050565b60008061075183610838565b60008054604080516317cb58d360e31b815260048101859052905193945091926001600160a01b039091169163be5ac69891602480830192602092919082900301818787803b1580156107a357600080fd5b505af11580156107b7573d6000803e3d6000fd5b505050506040513d60208110156107cd57600080fd5b5051949350505050565b60405160009081906001600160a01b038616908490869084818181858888f193505050503d8060008114610827576040519150601f19603f3d011682016040523d82523d6000602084013e61082c565b606091505b50909695505050505050565b60405160006020808301828152845192938493849387939260210191908401908083835b6020831061087b5780518252601f19909201916020918201910161085c565b6001836020036101000a0380198251168184511680821785525050505050509050019250505060405160208183030381529060405280519060200120905060008090505b601081101561092857600160f81b82600183601081106108db57fe5b0154604080516001600160f81b03199094166020808601919091526021850193909352604180850192909252805180850390920182526061909301909252815191012091506001016108bf565b509291505056fe43616e6e6f742073657420616e20656d7074792061646472657373206173206465706f7369742076657269666965724465706f73697420766572696669657220686173206e6f74206265656e2073657443616c6c65642066726f6d2061206e6f6e2d72656769737465726564206f722071756172616e74696e656420657869742067616d6520636f6e7472616374a265627a7a72315820ef26ee9e60e97314dbe51381728fae8a85387c4e7127436861d80a4ff3013a5864736f6c634300050b0032",
  "source": "pragma solidity 0.5.11;\n\nimport \"./Vault.sol\";\nimport \"./verifiers/IEthDepositVerifier.sol\";\nimport \"../framework/PlasmaFramework.sol\";\nimport \"../utils/SafeEthTransfer.sol\";\n\ncontract EthVault is Vault {\n    event EthWithdrawn(\n        address indexed receiver,\n        uint256 amount\n    );\n\n    event WithdrawFailed(\n        address indexed receiver,\n        uint256 amount\n    );\n\n    event DepositCreated(\n        address indexed depositor,\n        uint256 indexed blknum,\n        address indexed token,\n        uint256 amount\n    );\n\n    uint256 public safeGasStipend;\n\n    constructor(PlasmaFramework _framework, uint256 _safeGasStipend) public Vault(_framework) {\n        safeGasStipend = _safeGasStipend;\n    }\n\n    /**\n     * @notice Allows a user to deposit ETH into the contract\n     * Once the deposit is recognized, the owner may transact on the OmiseGO Network\n     * @param _depositTx RLP-encoded transaction to act as the deposit\n     */\n    function deposit(bytes calldata _depositTx) external payable {\n        address depositVerifier = super.getEffectiveDepositVerifier();\n        require(depositVerifier != address(0), \"Deposit verifier has not been set\");\n\n        IEthDepositVerifier(depositVerifier).verify(_depositTx, msg.value, msg.sender);\n        uint256 blknum = super.submitDepositBlock(_depositTx);\n\n        emit DepositCreated(msg.sender, blknum, address(0), msg.value);\n    }\n\n    /**\n    * @notice Withdraw ETH that has successfully exited from the OmiseGO Network\n    * @dev We do not want to block exit queue if a transfer is unsuccessful, so we don't revert on transfer error.\n    *      However, if there is not enough gas left for the safeGasStipend, then the EVM _will_ revert with an 'out of gas' error.\n    *      If this happens, the user should retry with higher gas.\n    * @param receiver Address of the recipient\n    * @param amount The amount of ETH to transfer\n    */\n    function withdraw(address payable receiver, uint256 amount) external onlyFromNonQuarantinedExitGame {\n        bool success = SafeEthTransfer.transferReturnResult(receiver, amount, safeGasStipend);\n        if (success) {\n            emit EthWithdrawn(receiver, amount);\n        } else {\n            emit WithdrawFailed(receiver, amount);\n        }\n    }\n}\n",
  "sourcePath": "/Users/nocholas/plasma-contracts/plasma_framework/contracts/src/vaults/EthVault.sol",
  "compiler": {
    "name": "solc",
    "version": "0.5.11+commit.c082d0b4.Emscripten.clang"
  },
  "schemaVersion": "3.0.16",
  "updatedAt": "2019-12-18T05:37:47.260Z",
  "devdoc": {
    "methods": {
      "deposit(bytes)": {
        "params": {
          "_depositTx": "RLP-encoded transaction to act as the deposit"
        }
      },
      "getEffectiveDepositVerifier()": {
        "return": "Contract address of the deposit verifier"
      },
      "setDepositVerifier(address)": {
        "details": "emit SetDepositVerifierCalledWhen one contract is already set, the next one is effective after 2 * MIN_EXIT_PERIOD.     This is to protect deposit transactions already in mempool,     and also make sure user only needs to SE within first week when invalid vault is registered.     *      see: https://github.com/omisego/plasma-contracts/issues/412          https://github.com/omisego/plasma-contracts/issues/173",
        "params": {
          "_verifier": "Address of the verifier contract"
        }
      },
      "withdraw(address,uint256)": {
        "details": "We do not want to block exit queue if a transfer is unsuccessful, so we don't revert on transfer error.     However, if there is not enough gas left for the safeGasStipend, then the EVM _will_ revert with an 'out of gas' error.     If this happens, the user should retry with higher gas.",
        "params": {
          "amount": "The amount of ETH to transfer",
          "receiver": "Address of the recipient"
        }
      }
    }
  },
  "userdoc": {
    "methods": {
      "deposit(bytes)": {
        "notice": "Allows a user to deposit ETH into the contract Once the deposit is recognized, the owner may transact on the OmiseGO Network"
      },
      "getEffectiveDepositVerifier()": {
        "notice": "Retrieves the currently effective deposit verifier contract address"
      },
      "setDepositVerifier(address)": {
        "notice": "Sets the deposit verifier contract, which may be called only by the operator"
      },
      "withdraw(address,uint256)": {
        "notice": "Withdraw ETH that has successfully exited from the OmiseGO Network"
      }
    }
  }
}