{
  "contractName": "ExitGameRegistry",
  "abi": [
    {
      "constant": true,
      "inputs": [],
      "name": "operator",
      "outputs": [
        {
          "internalType": "address",
          "name": "",
          "type": "address"
        }
      ],
      "payable": false,
      "stateMutability": "view",
      "type": "function"
    },
    {
      "inputs": [
        {
          "internalType": "uint256",
          "name": "_minExitPeriod",
          "type": "uint256"
        },
        {
          "internalType": "uint256",
          "name": "_initialImmuneExitGames",
          "type": "uint256"
        }
      ],
      "payable": false,
      "stateMutability": "nonpayable",
      "type": "constructor"
    },
    {
      "anonymous": false,
      "inputs": [
        {
          "indexed": false,
          "internalType": "uint256",
          "name": "txType",
          "type": "uint256"
        },
        {
          "indexed": false,
          "internalType": "address",
          "name": "exitGameAddress",
          "type": "address"
        },
        {
          "indexed": false,
          "internalType": "uint8",
          "name": "protocol",
          "type": "uint8"
        }
      ],
      "name": "ExitGameRegistered",
      "type": "event"
    },
    {
      "constant": true,
      "inputs": [
        {
          "internalType": "address",
          "name": "_contract",
          "type": "address"
        }
      ],
      "name": "isExitGameSafeToUse",
      "outputs": [
        {
          "internalType": "bool",
          "name": "",
          "type": "bool"
        }
      ],
      "payable": false,
      "stateMutability": "view",
      "type": "function"
    },
    {
      "constant": false,
      "inputs": [
        {
          "internalType": "uint256",
          "name": "_txType",
          "type": "uint256"
        },
        {
          "internalType": "address",
          "name": "_contract",
          "type": "address"
        },
        {
          "internalType": "uint8",
          "name": "_protocol",
          "type": "uint8"
        }
      ],
      "name": "registerExitGame",
      "outputs": [],
      "payable": false,
      "stateMutability": "nonpayable",
      "type": "function"
    },
    {
      "constant": true,
      "inputs": [
        {
          "internalType": "uint256",
          "name": "_txType",
          "type": "uint256"
        }
      ],
      "name": "protocols",
      "outputs": [
        {
          "internalType": "uint8",
          "name": "",
          "type": "uint8"
        }
      ],
      "payable": false,
      "stateMutability": "view",
      "type": "function"
    },
    {
      "constant": true,
      "inputs": [
        {
          "internalType": "uint256",
          "name": "_txType",
          "type": "uint256"
        }
      ],
      "name": "exitGames",
      "outputs": [
        {
          "internalType": "address",
          "name": "",
          "type": "address"
        }
      ],
      "payable": false,
      "stateMutability": "view",
      "type": "function"
    },
    {
      "constant": true,
      "inputs": [
        {
          "internalType": "address",
          "name": "_exitGame",
          "type": "address"
        }
      ],
      "name": "exitGameToTxType",
      "outputs": [
        {
          "internalType": "uint256",
          "name": "",
          "type": "uint256"
        }
      ],
      "payable": false,
      "stateMutability": "view",
      "type": "function"
    }
  ],
  "bytecode": "0x608060405234801561001057600080fd5b506040516107373803806107378339818101604052604081101561003357600080fd5b508051602090910151600080546001600160a01b0319163317905560039091026005556006556106cf806100686000396000f3fe608060405234801561001057600080fd5b50600436106100625760003560e01c8063570ca735146100675780635a102dae1461008b5780638c396220146100c5578063a239e5a2146100f8578063af07976414610130578063f2e208e71461014d575b600080fd5b61006f610184565b604080516001600160a01b039092168252519081900360200190f35b6100b1600480360360208110156100a157600080fd5b50356001600160a01b0316610193565b604080519115158252519081900360200190f35b6100e2600480360360208110156100db57600080fd5b50356101ce565b6040805160ff9092168252519081900360200190f35b61011e6004803603602081101561010e57600080fd5b50356001600160a01b03166101e3565b60408051918252519081900360200190f35b61006f6004803603602081101561014657600080fd5b50356101fe565b6101826004803603606081101561016357600080fd5b5080359060208101356001600160a01b0316906040013560ff16610219565b005b6000546001600160a01b031690565b6001600160a01b038116600090815260026020526040812054158015906101c857506101c660048363ffffffff61049f16565b155b92915050565b60009081526003602052604090205460ff1690565b6001600160a01b031660009081526002602052604090205490565b6000908152600160205260409020546001600160a01b031690565b6000546001600160a01b03163314610278576040805162461bcd60e51b815260206004820152601c60248201527f4e6f74206265696e672063616c6c6564206279206f70657261746f7200000000604482015290519081900360640190fd5b826102b45760405162461bcd60e51b81526004018080602001828103825260228152602001806106796022913960400191505060405180910390fd5b6001600160a01b0382166102f95760405162461bcd60e51b81526004018080602001828103825260338152602001806105b36033913960400191505060405180910390fd5b6000838152600160205260409020546001600160a01b03161561034d5760405162461bcd60e51b81526004018080602001828103825260218152602001806106586021913960400191505060405180910390fd5b6001600160a01b038216600090815260026020526040902054156103a25760405162461bcd60e51b815260040180806020018281038252602c815260200180610609602c913960400191505060405180910390fd5b6103ab816104bd565b6103f5576040805162461bcd60e51b8152602060048201526016602482015275496e76616c69642070726f746f636f6c2076616c756560501b604482015290519081900360640190fd5b600083815260016020908152604080832080546001600160a01b0319166001600160a01b03871690811790915583526002825280832086905585835260039091529020805460ff191660ff83161790556104506004836104d6565b604080518481526001600160a01b038416602082015260ff83168183015290517f0ceb02f7474c01f5959171cead2f5fb2a44d9c16fe480725a2110b601b19db829181900360600190a1505050565b6001600160a01b031660009081526020919091526040902054421090565b600060ff8216600114806101c857505060ff1660021490565b6001600160a01b03811661051b5760405162461bcd60e51b81526004018080602001828103825260238152602001806105e66023913960400191505060405180910390fd5b6001600160a01b038116600090815260208390526040902054156105705760405162461bcd60e51b81526004018080602001828103825260238152602001806106356023913960400191505060405180910390fd5b60028201546105a15760018201546001600160a01b03821660009081526020849052604090204290910190556105ae565b6002820180546000190190555b505056fe73686f756c64206e6f74207265676973746572207769746820616e20656d70747920657869742067616d65206164647265737343616e206e6f742071756172616e74696e6520616e20656d707479206164647265737354686520657869742067616d6520636f6e747261637420697320616c7265616479207265676973746572656454686520636f6e747261637420697320616c72656164792071756172616e74696e6564546865207478207479706520697320616c7265616479207265676973746572656473686f756c64206e6f74207265676973746572207769746820747820747970652030a265627a7a72315820748a5177414e259498d1a370e9921840b07e56fe5056a59cbd1f16d73348f11164736f6c634300050b0032",
  "source": "pragma solidity 0.5.11;\n\nimport \"../Protocol.sol\";\nimport \"../utils/Operated.sol\";\nimport \"../utils/Quarantine.sol\";\n\ncontract ExitGameRegistry is Operated {\n    using Quarantine for Quarantine.Data;\n\n    mapping(uint256 => address) private _exitGames; // txType => exit game contract address\n    mapping(address => uint256) private _exitGameToTxType; // exit game contract address => tx type\n    mapping(uint256 => uint8) private _protocols; // tx type => protocol (MVP/MORE_VP)\n    Quarantine.Data private _exitGameQuarantine;\n\n    event ExitGameRegistered(\n        uint256 txType,\n        address exitGameAddress,\n        uint8 protocol\n    );\n\n    /**\n     * @dev For each new exit game contract, it should take at least 3 * minExitPeriod to start take effect to protect existing transactions.\n     *      see: https://github.com/omisego/plasma-contracts/issues/172\n     *           https://github.com/omisego/plasma-contracts/issues/197\n     */\n    constructor (uint256 _minExitPeriod, uint256 _initialImmuneExitGames)\n        public\n    {\n        _exitGameQuarantine.quarantinePeriod = 3 * _minExitPeriod;\n        _exitGameQuarantine.immunitiesRemaining = _initialImmuneExitGames;\n    }\n\n    /**\n     * @notice modifier to check the call is from a non-quarantined exit game\n     */\n    modifier onlyFromNonQuarantinedExitGame() {\n        require(_exitGameToTxType[msg.sender] != 0, \"Not being called by registered exit game contract\");\n        require(!_exitGameQuarantine.isQuarantined(msg.sender), \"ExitGame is quarantined.\");\n        _;\n    }\n\n    /**\n     * @notice Checks whether the contract is safe to use and is not under quarantine\n     * @dev Exposes information about exit games quarantine\n     * @param _contract address of the exit game contract\n     * @return boolean whether the contract is safe to use and is not under quarantine.\n     */\n    function isExitGameSafeToUse(address _contract) public view returns (bool) {\n        return _exitGameToTxType[_contract] != 0 && !_exitGameQuarantine.isQuarantined(_contract);\n    }\n\n    /**\n     * @notice Register an exit game within the PlasmaFramework. The function can only be called by the maintainer.\n     * @dev emits ExitGameRegistered event to notify clients\n     * @param _txType tx type that the exit game want to register to.\n     * @param _contract address of the exit game contract.\n     * @param _protocol protocol of the transaction, 1 for MVP and 2 for MoreVP.\n     */\n    function registerExitGame(uint256 _txType, address _contract, uint8 _protocol) public onlyOperator {\n        require(_txType != 0, \"should not register with tx type 0\");\n        require(_contract != address(0), \"should not register with an empty exit game address\");\n        require(_exitGames[_txType] == address(0), \"The tx type is already registered\");\n        require(_exitGameToTxType[_contract] == 0, \"The exit game contract is already registered\");\n        require(Protocol.isValidProtocol(_protocol), \"Invalid protocol value\");\n\n        _exitGames[_txType] = _contract;\n        _exitGameToTxType[_contract] = _txType;\n        _protocols[_txType] = _protocol;\n        _exitGameQuarantine.quarantine(_contract);\n\n        emit ExitGameRegistered(_txType, _contract, _protocol);\n    }\n\n    /**\n     * @notice public getter for getting protocol with tx type\n     */\n    function protocols(uint256 _txType) public view returns (uint8) {\n        return _protocols[_txType];\n    }\n\n    /**\n     * @notice public getter for getting exit game address with tx type\n     */\n    function exitGames(uint256 _txType) public view returns (address) {\n        return _exitGames[_txType];\n    }\n\n    /**\n     * @notice public getter for getting tx type with exit game address\n     */\n    function exitGameToTxType(address _exitGame) public view returns (uint256) {\n        return _exitGameToTxType[_exitGame];\n    }\n}\n",
  "sourcePath": "/Users/nocholas/plasma-contracts/plasma_framework/contracts/src/framework/registries/ExitGameRegistry.sol",
  "compiler": {
    "name": "solc",
    "version": "0.5.11+commit.c082d0b4.Emscripten.clang"
  },
  "schemaVersion": "3.0.16",
  "updatedAt": "2019-10-07T12:24:58.233Z",
  "devdoc": {
    "methods": {
      "constructor": {
        "details": "For each new exit game contract, it should take at least 3 * minExitPeriod to start take effect to protect existing transactions.     see: https://github.com/omisego/plasma-contracts/issues/172          https://github.com/omisego/plasma-contracts/issues/197"
      },
      "isExitGameSafeToUse(address)": {
        "details": "Exposes information about exit games quarantine",
        "params": {
          "_contract": "address of the exit game contract"
        },
        "return": "boolean whether the contract is safe to use and is not under quarantine."
      },
      "registerExitGame(uint256,address,uint8)": {
        "details": "emits ExitGameRegistered event to notify clients",
        "params": {
          "_contract": "address of the exit game contract.",
          "_protocol": "protocol of the transaction, 1 for MVP and 2 for MoreVP.",
          "_txType": "tx type that the exit game want to register to."
        }
      }
    }
  },
  "userdoc": {
    "methods": {
      "exitGameToTxType(address)": {
        "notice": "public getter for getting tx type with exit game address"
      },
      "exitGames(uint256)": {
        "notice": "public getter for getting exit game address with tx type"
      },
      "isExitGameSafeToUse(address)": {
        "notice": "Checks whether the contract is safe to use and is not under quarantine"
      },
      "protocols(uint256)": {
        "notice": "public getter for getting protocol with tx type"
      },
      "registerExitGame(uint256,address,uint8)": {
        "notice": "Register an exit game within the PlasmaFramework. The function can only be called by the maintainer."
      }
    }
  }
}