{
  "contractName": "PaymentExitGame",
  "abi": [
    {
      "constant": true,
      "inputs": [
        {
          "internalType": "uint160[]",
          "name": "exitIds",
          "type": "uint160[]"
        }
      ],
      "name": "standardExits",
      "outputs": [
        {
          "components": [
            {
              "internalType": "bool",
              "name": "exitable",
              "type": "bool"
            },
            {
              "internalType": "uint256",
              "name": "utxoPos",
              "type": "uint256"
            },
            {
              "internalType": "bytes32",
              "name": "outputId",
              "type": "bytes32"
            },
            {
              "internalType": "address payable",
              "name": "exitTarget",
              "type": "address"
            },
            {
              "internalType": "uint256",
              "name": "amount",
              "type": "uint256"
            },
            {
              "internalType": "uint256",
              "name": "bondSize",
              "type": "uint256"
            }
          ],
          "internalType": "struct PaymentExitDataModel.StandardExit[]",
          "name": "",
          "type": "tuple[]"
        }
      ],
      "payable": false,
      "stateMutability": "view",
      "type": "function"
    },
    {
      "constant": false,
      "inputs": [
        {
          "internalType": "uint128",
          "name": "newBondSize",
          "type": "uint128"
        }
      ],
      "name": "updateStartStandardExitBondSize",
      "outputs": [],
      "payable": false,
      "stateMutability": "nonpayable",
      "type": "function"
    },
    {
      "constant": false,
      "inputs": [
        {
          "internalType": "uint128",
          "name": "newBondSize",
          "type": "uint128"
        }
      ],
      "name": "updatePiggybackBondSize",
      "outputs": [],
      "payable": false,
      "stateMutability": "nonpayable",
      "type": "function"
    },
    {
      "constant": false,
      "inputs": [
        {
          "internalType": "bytes",
          "name": "inFlightTx",
          "type": "bytes"
        },
        {
          "internalType": "uint256",
          "name": "inFlightTxPos",
          "type": "uint256"
        },
        {
          "internalType": "bytes",
          "name": "inFlightTxInclusionProof",
          "type": "bytes"
        }
      ],
      "name": "respondToNonCanonicalChallenge",
      "outputs": [],
      "payable": false,
      "stateMutability": "nonpayable",
      "type": "function"
    },
    {
      "constant": true,
      "inputs": [],
      "name": "piggybackBondSize",
      "outputs": [
        {
          "internalType": "uint128",
          "name": "",
          "type": "uint128"
        }
      ],
      "payable": false,
      "stateMutability": "view",
      "type": "function"
    },
    {
      "constant": false,
      "inputs": [
        {
          "components": [
            {
              "internalType": "bytes",
              "name": "inFlightTx",
              "type": "bytes"
            },
            {
              "internalType": "bytes[]",
              "name": "inputTxs",
              "type": "bytes[]"
            },
            {
              "internalType": "uint256[]",
              "name": "inputUtxosPos",
              "type": "uint256[]"
            },
            {
              "internalType": "bytes[]",
              "name": "inputTxsInclusionProofs",
              "type": "bytes[]"
            },
            {
              "internalType": "bytes[]",
              "name": "inFlightTxWitnesses",
              "type": "bytes[]"
            }
          ],
          "internalType": "struct PaymentInFlightExitRouterArgs.StartExitArgs",
          "name": "args",
          "type": "tuple"
        }
      ],
      "name": "startInFlightExit",
      "outputs": [],
      "payable": true,
      "stateMutability": "payable",
      "type": "function"
    },
    {
      "constant": false,
      "inputs": [
        {
          "components": [
            {
              "internalType": "uint256",
              "name": "utxoPos",
              "type": "uint256"
            },
            {
              "internalType": "bytes",
              "name": "rlpOutputTx",
              "type": "bytes"
            },
            {
              "internalType": "bytes",
              "name": "outputTxInclusionProof",
              "type": "bytes"
            }
          ],
          "internalType": "struct PaymentStandardExitRouterArgs.StartStandardExitArgs",
          "name": "args",
          "type": "tuple"
        }
      ],
      "name": "startStandardExit",
      "outputs": [],
      "payable": true,
      "stateMutability": "payable",
      "type": "function"
    },
    {
      "constant": true,
      "inputs": [],
      "name": "startIFEBondSize",
      "outputs": [
        {
          "internalType": "uint128",
          "name": "",
          "type": "uint128"
        }
      ],
      "payable": false,
      "stateMutability": "view",
      "type": "function"
    },
    {
      "constant": true,
      "inputs": [],
      "name": "INITIAL_PB_BOND_SIZE",
      "outputs": [
        {
          "internalType": "uint128",
          "name": "",
          "type": "uint128"
        }
      ],
      "payable": false,
      "stateMutability": "view",
      "type": "function"
    },
    {
      "constant": true,
      "inputs": [],
      "name": "BOND_LOWER_BOUND_DIVISOR",
      "outputs": [
        {
          "internalType": "uint16",
          "name": "",
          "type": "uint16"
        }
      ],
      "payable": false,
      "stateMutability": "view",
      "type": "function"
    },
    {
      "constant": true,
      "inputs": [],
      "name": "BOND_UPPER_BOUND_MULTIPLIER",
      "outputs": [
        {
          "internalType": "uint16",
          "name": "",
          "type": "uint16"
        }
      ],
      "payable": false,
      "stateMutability": "view",
      "type": "function"
    },
    {
      "constant": false,
      "inputs": [
        {
          "components": [
            {
              "internalType": "bytes",
              "name": "inFlightTx",
              "type": "bytes"
            },
            {
              "internalType": "uint16",
              "name": "outputIndex",
              "type": "uint16"
            }
          ],
          "internalType": "struct PaymentInFlightExitRouterArgs.PiggybackInFlightExitOnOutputArgs",
          "name": "args",
          "type": "tuple"
        }
      ],
      "name": "piggybackInFlightExitOnOutput",
      "outputs": [],
      "payable": true,
      "stateMutability": "payable",
      "type": "function"
    },
    {
      "constant": false,
      "inputs": [
        {
          "internalType": "uint128",
          "name": "newBondSize",
          "type": "uint128"
        }
      ],
      "name": "updateStartIFEBondSize",
      "outputs": [],
      "payable": false,
      "stateMutability": "nonpayable",
      "type": "function"
    },
    {
      "constant": false,
      "inputs": [
        {
          "internalType": "uint160",
          "name": "exitId",
          "type": "uint160"
        }
      ],
      "name": "deleteNonPiggybackedInFlightExit",
      "outputs": [],
      "payable": false,
      "stateMutability": "nonpayable",
      "type": "function"
    },
    {
      "constant": true,
      "inputs": [],
      "name": "INITIAL_BOND_SIZE",
      "outputs": [
        {
          "internalType": "uint128",
          "name": "",
          "type": "uint128"
        }
      ],
      "payable": false,
      "stateMutability": "view",
      "type": "function"
    },
    {
      "constant": true,
      "inputs": [],
      "name": "INITIAL_IFE_BOND_SIZE",
      "outputs": [
        {
          "internalType": "uint128",
          "name": "",
          "type": "uint128"
        }
      ],
      "payable": false,
      "stateMutability": "view",
      "type": "function"
    },
    {
      "constant": true,
      "inputs": [
        {
          "internalType": "uint160",
          "name": "exitId",
          "type": "uint160"
        }
      ],
      "name": "inFlightExits",
      "outputs": [
        {
          "components": [
            {
              "internalType": "bool",
              "name": "isCanonical",
              "type": "bool"
            },
            {
              "internalType": "uint64",
              "name": "exitStartTimestamp",
              "type": "uint64"
            },
            {
              "internalType": "uint256",
              "name": "exitMap",
              "type": "uint256"
            },
            {
              "internalType": "uint256",
              "name": "position",
              "type": "uint256"
            },
            {
              "components": [
                {
                  "internalType": "bytes32",
                  "name": "outputId",
                  "type": "bytes32"
                },
                {
                  "internalType": "address payable",
                  "name": "exitTarget",
                  "type": "address"
                },
                {
                  "internalType": "address",
                  "name": "token",
                  "type": "address"
                },
                {
                  "internalType": "uint256",
                  "name": "amount",
                  "type": "uint256"
                },
                {
                  "internalType": "uint256",
                  "name": "piggybackBondSize",
                  "type": "uint256"
                }
              ],
              "internalType": "struct PaymentExitDataModel.WithdrawData[4]",
              "name": "inputs",
              "type": "tuple[4]"
            },
            {
              "components": [
                {
                  "internalType": "bytes32",
                  "name": "outputId",
                  "type": "bytes32"
                },
                {
                  "internalType": "address payable",
                  "name": "exitTarget",
                  "type": "address"
                },
                {
                  "internalType": "address",
                  "name": "token",
                  "type": "address"
                },
                {
                  "internalType": "uint256",
                  "name": "amount",
                  "type": "uint256"
                },
                {
                  "internalType": "uint256",
                  "name": "piggybackBondSize",
                  "type": "uint256"
                }
              ],
              "internalType": "struct PaymentExitDataModel.WithdrawData[4]",
              "name": "outputs",
              "type": "tuple[4]"
            },
            {
              "internalType": "address payable",
              "name": "bondOwner",
              "type": "address"
            },
            {
              "internalType": "uint256",
              "name": "bondSize",
              "type": "uint256"
            },
            {
              "internalType": "uint256",
              "name": "oldestCompetitorPosition",
              "type": "uint256"
            }
          ],
          "internalType": "struct PaymentExitDataModel.InFlightExit",
          "name": "",
          "type": "tuple"
        }
      ],
      "payable": false,
      "stateMutability": "view",
      "type": "function"
    },
    {
      "constant": false,
      "inputs": [
        {
          "components": [
            {
              "internalType": "bytes",
              "name": "inFlightTx",
              "type": "bytes"
            },
            {
              "internalType": "uint16",
              "name": "inputIndex",
              "type": "uint16"
            }
          ],
          "internalType": "struct PaymentInFlightExitRouterArgs.PiggybackInFlightExitOnInputArgs",
          "name": "args",
          "type": "tuple"
        }
      ],
      "name": "piggybackInFlightExitOnInput",
      "outputs": [],
      "payable": true,
      "stateMutability": "payable",
      "type": "function"
    },
    {
      "constant": false,
      "inputs": [
        {
          "components": [
            {
              "internalType": "bytes",
              "name": "inputTx",
              "type": "bytes"
            },
            {
              "internalType": "uint256",
              "name": "inputUtxoPos",
              "type": "uint256"
            },
            {
              "internalType": "bytes",
              "name": "inFlightTx",
              "type": "bytes"
            },
            {
              "internalType": "uint16",
              "name": "inFlightTxInputIndex",
              "type": "uint16"
            },
            {
              "internalType": "bytes",
              "name": "competingTx",
              "type": "bytes"
            },
            {
              "internalType": "uint16",
              "name": "competingTxInputIndex",
              "type": "uint16"
            },
            {
              "internalType": "uint256",
              "name": "competingTxPos",
              "type": "uint256"
            },
            {
              "internalType": "bytes",
              "name": "competingTxInclusionProof",
              "type": "bytes"
            },
            {
              "internalType": "bytes",
              "name": "competingTxWitness",
              "type": "bytes"
            }
          ],
          "internalType": "struct PaymentInFlightExitRouterArgs.ChallengeCanonicityArgs",
          "name": "args",
          "type": "tuple"
        }
      ],
      "name": "challengeInFlightExitNotCanonical",
      "outputs": [],
      "payable": false,
      "stateMutability": "nonpayable",
      "type": "function"
    },
    {
      "constant": false,
      "inputs": [
        {
          "components": [
            {
              "internalType": "uint160",
              "name": "exitId",
              "type": "uint160"
            },
            {
              "internalType": "bytes",
              "name": "exitingTx",
              "type": "bytes"
            },
            {
              "internalType": "bytes",
              "name": "challengeTx",
              "type": "bytes"
            },
            {
              "internalType": "uint16",
              "name": "inputIndex",
              "type": "uint16"
            },
            {
              "internalType": "bytes",
              "name": "witness",
              "type": "bytes"
            }
          ],
          "internalType": "struct PaymentStandardExitRouterArgs.ChallengeStandardExitArgs",
          "name": "args",
          "type": "tuple"
        }
      ],
      "name": "challengeStandardExit",
      "outputs": [],
      "payable": false,
      "stateMutability": "nonpayable",
      "type": "function"
    },
    {
      "constant": false,
      "inputs": [
        {
          "components": [
            {
              "internalType": "bytes",
              "name": "inFlightTx",
              "type": "bytes"
            },
            {
              "internalType": "uint16",
              "name": "inFlightTxInputIndex",
              "type": "uint16"
            },
            {
              "internalType": "bytes",
              "name": "challengingTx",
              "type": "bytes"
            },
            {
              "internalType": "uint16",
              "name": "challengingTxInputIndex",
              "type": "uint16"
            },
            {
              "internalType": "bytes",
              "name": "challengingTxWitness",
              "type": "bytes"
            },
            {
              "internalType": "bytes",
              "name": "inputTx",
              "type": "bytes"
            },
            {
              "internalType": "uint256",
              "name": "inputUtxoPos",
              "type": "uint256"
            }
          ],
          "internalType": "struct PaymentInFlightExitRouterArgs.ChallengeInputSpentArgs",
          "name": "args",
          "type": "tuple"
        }
      ],
      "name": "challengeInFlightExitInputSpent",
      "outputs": [],
      "payable": false,
      "stateMutability": "nonpayable",
      "type": "function"
    },
    {
      "constant": false,
      "inputs": [
        {
          "components": [
            {
              "internalType": "bytes",
              "name": "inFlightTx",
              "type": "bytes"
            },
            {
              "internalType": "bytes",
              "name": "inFlightTxInclusionProof",
              "type": "bytes"
            },
            {
              "internalType": "uint256",
              "name": "outputUtxoPos",
              "type": "uint256"
            },
            {
              "internalType": "bytes",
              "name": "challengingTx",
              "type": "bytes"
            },
            {
              "internalType": "uint16",
              "name": "challengingTxInputIndex",
              "type": "uint16"
            },
            {
              "internalType": "bytes",
              "name": "challengingTxWitness",
              "type": "bytes"
            }
          ],
          "internalType": "struct PaymentInFlightExitRouterArgs.ChallengeOutputSpent",
          "name": "args",
          "type": "tuple"
        }
      ],
      "name": "challengeInFlightExitOutputSpent",
      "outputs": [],
      "payable": false,
      "stateMutability": "nonpayable",
      "type": "function"
    },
    {
      "constant": true,
      "inputs": [],
      "name": "startStandardExitBondSize",
      "outputs": [
        {
          "internalType": "uint128",
          "name": "",
          "type": "uint128"
        }
      ],
      "payable": false,
      "stateMutability": "view",
      "type": "function"
    },
    {
      "inputs": [
        {
          "components": [
            {
              "internalType": "contract PlasmaFramework",
              "name": "framework",
              "type": "address"
            },
            {
              "internalType": "uint256",
              "name": "ethVaultId",
              "type": "uint256"
            },
            {
              "internalType": "uint256",
              "name": "erc20VaultId",
              "type": "uint256"
            },
            {
              "internalType": "contract SpendingConditionRegistry",
              "name": "spendingConditionRegistry",
              "type": "address"
            },
            {
              "internalType": "contract IStateTransitionVerifier",
              "name": "stateTransitionVerifier",
              "type": "address"
            },
            {
              "internalType": "uint256",
              "name": "supportTxType",
              "type": "uint256"
            },
            {
              "internalType": "uint256",
              "name": "safeGasStipend",
              "type": "uint256"
            }
          ],
          "internalType": "struct PaymentExitGameArgs.Args",
          "name": "args",
          "type": "tuple"
        }
      ],
      "payable": false,
      "stateMutability": "nonpayable",
      "type": "constructor"
    },
    {
      "anonymous": false,
      "inputs": [
        {
          "indexed": false,
          "internalType": "uint128",
          "name": "bondSize",
          "type": "uint128"
        }
      ],
      "name": "IFEBondUpdated",
      "type": "event"
    },
    {
      "anonymous": false,
      "inputs": [
        {
          "indexed": false,
          "internalType": "uint128",
          "name": "bondSize",
          "type": "uint128"
        }
      ],
      "name": "PiggybackBondUpdated",
      "type": "event"
    },
    {
      "anonymous": false,
      "inputs": [
        {
          "indexed": true,
          "internalType": "address",
          "name": "initiator",
          "type": "address"
        },
        {
          "indexed": true,
          "internalType": "bytes32",
          "name": "txHash",
          "type": "bytes32"
        }
      ],
      "name": "InFlightExitStarted",
      "type": "event"
    },
    {
      "anonymous": false,
      "inputs": [
        {
          "indexed": true,
          "internalType": "address",
          "name": "exitTarget",
          "type": "address"
        },
        {
          "indexed": true,
          "internalType": "bytes32",
          "name": "txHash",
          "type": "bytes32"
        },
        {
          "indexed": false,
          "internalType": "uint16",
          "name": "inputIndex",
          "type": "uint16"
        }
      ],
      "name": "InFlightExitInputPiggybacked",
      "type": "event"
    },
    {
      "anonymous": false,
      "inputs": [
        {
          "indexed": true,
          "internalType": "uint160",
          "name": "exitId",
          "type": "uint160"
        },
        {
          "indexed": false,
          "internalType": "address",
          "name": "token",
          "type": "address"
        }
      ],
      "name": "InFlightExitOmitted",
      "type": "event"
    },
    {
      "anonymous": false,
      "inputs": [
        {
          "indexed": true,
          "internalType": "address",
          "name": "receiver",
          "type": "address"
        },
        {
          "indexed": false,
          "internalType": "uint256",
          "name": "amount",
          "type": "uint256"
        }
      ],
      "name": "InFlightBondReturnFailed",
      "type": "event"
    },
    {
      "anonymous": false,
      "inputs": [
        {
          "indexed": true,
          "internalType": "uint160",
          "name": "exitId",
          "type": "uint160"
        },
        {
          "indexed": false,
          "internalType": "uint16",
          "name": "outputIndex",
          "type": "uint16"
        }
      ],
      "name": "InFlightExitOutputWithdrawn",
      "type": "event"
    },
    {
      "anonymous": false,
      "inputs": [
        {
          "indexed": true,
          "internalType": "uint160",
          "name": "exitId",
          "type": "uint160"
        },
        {
          "indexed": false,
          "internalType": "uint16",
          "name": "inputIndex",
          "type": "uint16"
        }
      ],
      "name": "InFlightExitInputWithdrawn",
      "type": "event"
    },
    {
      "anonymous": false,
      "inputs": [
        {
          "indexed": true,
          "internalType": "address",
          "name": "exitTarget",
          "type": "address"
        },
        {
          "indexed": true,
          "internalType": "bytes32",
          "name": "txHash",
          "type": "bytes32"
        },
        {
          "indexed": false,
          "internalType": "uint16",
          "name": "outputIndex",
          "type": "uint16"
        }
      ],
      "name": "InFlightExitOutputPiggybacked",
      "type": "event"
    },
    {
      "anonymous": false,
      "inputs": [
        {
          "indexed": true,
          "internalType": "address",
          "name": "challenger",
          "type": "address"
        },
        {
          "indexed": true,
          "internalType": "bytes32",
          "name": "txHash",
          "type": "bytes32"
        },
        {
          "indexed": false,
          "internalType": "uint256",
          "name": "challengeTxPosition",
          "type": "uint256"
        }
      ],
      "name": "InFlightExitChallenged",
      "type": "event"
    },
    {
      "anonymous": false,
      "inputs": [
        {
          "indexed": true,
          "internalType": "address",
          "name": "challenger",
          "type": "address"
        },
        {
          "indexed": true,
          "internalType": "bytes32",
          "name": "txHash",
          "type": "bytes32"
        },
        {
          "indexed": false,
          "internalType": "uint256",
          "name": "challengeTxPosition",
          "type": "uint256"
        }
      ],
      "name": "InFlightExitChallengeResponded",
      "type": "event"
    },
    {
      "anonymous": false,
      "inputs": [
        {
          "indexed": true,
          "internalType": "address",
          "name": "challenger",
          "type": "address"
        },
        {
          "indexed": true,
          "internalType": "bytes32",
          "name": "txHash",
          "type": "bytes32"
        },
        {
          "indexed": false,
          "internalType": "uint16",
          "name": "inputIndex",
          "type": "uint16"
        }
      ],
      "name": "InFlightExitInputBlocked",
      "type": "event"
    },
    {
      "anonymous": false,
      "inputs": [
        {
          "indexed": true,
          "internalType": "address",
          "name": "challenger",
          "type": "address"
        },
        {
          "indexed": true,
          "internalType": "bytes32",
          "name": "txHash",
          "type": "bytes32"
        },
        {
          "indexed": false,
          "internalType": "uint16",
          "name": "outputIndex",
          "type": "uint16"
        }
      ],
      "name": "InFlightExitOutputBlocked",
      "type": "event"
    },
    {
      "anonymous": false,
      "inputs": [
        {
          "indexed": true,
          "internalType": "uint160",
          "name": "exitId",
          "type": "uint160"
        }
      ],
      "name": "InFlightExitDeleted",
      "type": "event"
    },
    {
      "anonymous": false,
      "inputs": [
        {
          "indexed": false,
          "internalType": "uint128",
          "name": "bondSize",
          "type": "uint128"
        }
      ],
      "name": "StandardExitBondUpdated",
      "type": "event"
    },
    {
      "anonymous": false,
      "inputs": [
        {
          "indexed": true,
          "internalType": "address",
          "name": "owner",
          "type": "address"
        },
        {
          "indexed": false,
          "internalType": "uint160",
          "name": "exitId",
          "type": "uint160"
        }
      ],
      "name": "ExitStarted",
      "type": "event"
    },
    {
      "anonymous": false,
      "inputs": [
        {
          "indexed": true,
          "internalType": "uint256",
          "name": "utxoPos",
          "type": "uint256"
        }
      ],
      "name": "ExitChallenged",
      "type": "event"
    },
    {
      "anonymous": false,
      "inputs": [
        {
          "indexed": true,
          "internalType": "uint160",
          "name": "exitId",
          "type": "uint160"
        }
      ],
      "name": "ExitOmitted",
      "type": "event"
    },
    {
      "anonymous": false,
      "inputs": [
        {
          "indexed": true,
          "internalType": "uint160",
          "name": "exitId",
          "type": "uint160"
        }
      ],
      "name": "ExitFinalized",
      "type": "event"
    },
    {
      "anonymous": false,
      "inputs": [
        {
          "indexed": true,
          "internalType": "address",
          "name": "receiver",
          "type": "address"
        },
        {
          "indexed": false,
          "internalType": "uint256",
          "name": "amount",
          "type": "uint256"
        }
      ],
      "name": "BondReturnFailed",
      "type": "event"
    },
    {
      "constant": false,
      "inputs": [
        {
          "internalType": "uint160",
          "name": "exitId",
          "type": "uint160"
        },
        {
          "internalType": "uint256",
          "name": "",
          "type": "uint256"
        },
        {
          "internalType": "address",
          "name": "token",
          "type": "address"
        }
      ],
      "name": "processExit",
      "outputs": [],
      "payable": false,
      "stateMutability": "nonpayable",
      "type": "function"
    },
    {
      "constant": true,
      "inputs": [
        {
          "internalType": "bool",
          "name": "_isDeposit",
          "type": "bool"
        },
        {
          "internalType": "bytes",
          "name": "_txBytes",
          "type": "bytes"
        },
        {
          "internalType": "uint256",
          "name": "_utxoPos",
          "type": "uint256"
        }
      ],
      "name": "getStandardExitId",
      "outputs": [
        {
          "internalType": "uint160",
          "name": "",
          "type": "uint160"
        }
      ],
      "payable": false,
      "stateMutability": "pure",
      "type": "function"
    },
    {
      "constant": true,
      "inputs": [
        {
          "internalType": "bytes",
          "name": "_txBytes",
          "type": "bytes"
        }
      ],
      "name": "getInFlightExitId",
      "outputs": [
        {
          "internalType": "uint160",
          "name": "",
          "type": "uint160"
        }
      ],
      "payable": false,
      "stateMutability": "pure",
      "type": "function"
    }
  ],
  "bytecode": "0x60806040523480156200001157600080fd5b5060405162004dbe38038062004dbe8339810160408190526200003491620012a2565b8051601080546001600160a01b0319166001600160a01b03909216918217905560208201516040517f8c64ea4a00000000000000000000000000000000000000000000000000000000815283928392600092638c64ea4a916200009a9160040162001589565b60206040518083038186803b158015620000b357600080fd5b505afa158015620000c8573d6000803e3d6000fd5b505050506040513d601f19601f82011682018060405250620000ee919081019062001279565b90506001600160a01b0381166200013c576040517f08c379a0000000000000000000000000000000000000000000000000000000008152600401620001339062001553565b60405180910390fd5b815160408084015190517f8c64ea4a0000000000000000000000000000000000000000000000000000000081526000926001600160a01b031691638c64ea4a916200018b919060040162001589565b60206040518083038186803b158015620001a457600080fd5b505afa158015620001b9573d6000803e3d6000fd5b505050506040513d601f19601f82011682018060405250620001df919081019062001279565b90506001600160a01b03811662000224576040517f08c379a0000000000000000000000000000000000000000000000000000000008152600401620001339062001565565b8251602084015160408086015160a087015191517f07a97aa900000000000000000000000000000000000000000000000000000000815273__PaymentStartStandardExit______________946307a97aa9946200028c94309492939192916004016200145b565b60c06040518083038186803b158015620002a557600080fd5b505af4158015620002ba573d6000803e3d6000fd5b505050506040513d601f19601f82011682018060405250620002e0919081019062001326565b8051600180546001600160a01b039283166001600160a01b031991821617909155602083015160028054919093169116179055604080820151516003556060808301516004908155608084015160055560a09093015160065585519086015160c087015192517f159cde2d00000000000000000000000000000000000000000000000000000000815273__PaymentChallengeStandardExit__________9463159cde2d946200039594939290910162001525565b60606040518083038186803b158015620003ae57600080fd5b505af4158015620003c3573d6000803e3d6000fd5b505050506040513d601f19601f82011682018060405250620003e99190810190620012c3565b8051600b80546001600160a01b03199081166001600160a01b0393841617909155602080840151600c80548416918516919091179055604093840151600d5583516080810185528751841680825287851682840181905294871695820186905260c089015160609092018290526007805485169091179055600880548416909417909355600980549092169093179055600a556200049e906631bced02db000090600290819062000eed811b6200370017901c565b8051600e80546020808501516001600160801b03199283166001600160801b03958616178516700100000000000000000000000000000000918616820217909355604080860151600f805460608901516080909901519516919096161761ffff60801b191661ffff9687169094029390931761ffff60901b191672010000000000000000000000000000000000009590921694909402179091558551603080546001600160a01b0319166001600160a01b0390921691821790559186015190517f8c64ea4a00000000000000000000000000000000000000000000000000000000815260009550919350638c64ea4a92506200059d9160040162001589565b60206040518083038186803b158015620005b657600080fd5b505afa158015620005cb573d6000803e3d6000fd5b505050506040513d601f19601f82011682018060405250620005f1919081019062001279565b90506001600160a01b03811662000636576040517f08c379a0000000000000000000000000000000000000000000000000000000008152600401620001339062001553565b815160408084015190517f8c64ea4a0000000000000000000000000000000000000000000000000000000081526000926001600160a01b031691638c64ea4a9162000685919060040162001589565b60206040518083038186803b1580156200069e57600080fd5b505afa158015620006b3573d6000803e3d6000fd5b505050506040513d601f19601f82011682018060405250620006d9919081019062001279565b90506001600160a01b0381166200071e576040517f08c379a0000000000000000000000000000000000000000000000000000000008152600401620001339062001565565b82516060840151608085015160a08601516040517f91ac978000000000000000000000000000000000000000000000000000000000815273__PaymentStartInFlightExit______________946391ac978094620007839491939092600401620014f7565b60a06040518083038186803b1580156200079c57600080fd5b505af4158015620007b1573d6000803e3d6000fd5b505050506040513d601f19601f82011682018060405250620007d7919081019062001305565b8051601280546001600160a01b03199081166001600160a01b0393841617909155602080840151516013556040808501516014805485169186169190911790556060850151601580549094169416939093179091556080909201516016558451918501518582015191517f32e6d86900000000000000000000000000000000000000000000000000000000815273__PaymentPiggybackInFlightExit__________936332e6d869936200089493919230929190600401620014b1565b60c06040518083038186803b158015620008ad57600080fd5b505af4158015620008c2573d6000803e3d6000fd5b505050506040513d601f19601f82011682018060405250620008e89190810190620012e4565b8051601780546001600160a01b03199081166001600160a01b0393841617909155602083015151601855604080840151601980549093169316929092179055606080830151601a556080830151601b5560a092830151601c558551908601519286015191517f159cde2d00000000000000000000000000000000000000000000000000000000815273__PaymentChallengeIFENotCanonical_______9363159cde2d936200099b939260040162001525565b60606040518083038186803b158015620009b457600080fd5b505af4158015620009c9573d6000803e3d6000fd5b505050506040513d601f19601f82011682018060405250620009ef9190810190620012c3565b8051601d80546001600160a01b039283166001600160a01b0319918216179091556020830151601e8054919093169116179055604090810151601f558351606085015160c086015192517f159cde2d00000000000000000000000000000000000000000000000000000000815273__PaymentChallengeIFEInputSpent_________9363159cde2d9362000a8b93909290919060040162001525565b60606040518083038186803b15801562000aa457600080fd5b505af415801562000ab9573d6000803e3d6000fd5b505050506040513d601f19601f8201168201806040525062000adf9190810190620012c3565b8051602080546001600160a01b03199081166001600160a01b03938416178255818401516021805483169185169190911790556040938401516022558351606080820186528851851680835290890151851682850181905260c08a01519287018390526023805485169092179091556024805490931617909155602555825180840180855287517fd4a2b4ef00000000000000000000000000000000000000000000000000000000909152935190938493169163d4a2b4ef916044808601929190818703018186803b15801562000bb557600080fd5b505afa15801562000bca573d6000803e3d6000fd5b505050506040513d601f19601f8201168201806040525062000bf0919081019062001347565b815260c0850180516020928301528251602655918101516027556040805160808101825286516001600160a01b0390811680835287821683860181905291871693830184905294516060909201829052602880546001600160a01b031990811690961790556029805486169091179055602a8054909416909117909255602b9190915562000c95906683734dd0b080009060029081906200370062000eed821b17901c565b8051602c80546020808501516001600160801b03199283166001600160801b039586161785167001000000000000000000000000000000009186168202179093556040850151602d805460608801516080909801519416919095161761ffff60801b191661ffff9586169093029290921761ffff60901b19167201000000000000000000000000000000000000949091169390930292909217905562000d5290666379da05b6000090600290819062000eed811b6200370017901c565b8051602e80546020808501516001600160801b03199283166001600160801b03958616178516700100000000000000000000000000000000918616820217909355604080860151602f80546060808a01516080909a015191909616929097169190911761ffff60801b191661ffff9788169095029490941761ffff60901b191672010000000000000000000000000000000000009690951695909502939093179091558651603180546001600160a01b0319166001600160a01b039283161790559087015183517f8da5cb5b00000000000000000000000000000000000000000000000000000000815293516000975091169450638da5cb5b9350600480840193829003018186803b15801562000e6857600080fd5b505afa15801562000e7d573d6000803e3d6000fd5b505050506040513d601f19601f8201168201806040525062000ea3919081019062001279565b6001600160a01b03161462000ee6576040517f08c379a0000000000000000000000000000000000000000000000000000000008152600401620001339062001577565b5062001622565b62000ef762000f38565b506040805160a0810182526001600160801b03949094168452600060208501526780000000000000009084015261ffff918216606084015216608082015290565b6040805160a08101825260008082526020820181905291810182905260608101829052608081019190915290565b805162000f7381620015f2565b92915050565b805162000f73816200160c565b600060e0828403121562000f9957600080fd5b62000fa560e062001599565b9050600062000fb5848462000f79565b825250602062000fc8848483016200126c565b602083015250604062000fde848285016200126c565b604083015250606062000ff48482850162000f79565b60608301525060806200100a8482850162000f79565b60808301525060a062001020848285016200126c565b60a08301525060c062001036848285016200126c565b60c08301525092915050565b6000602082840312156200105557600080fd5b62001061602062001599565b905060006200107184846200126c565b82525092915050565b6000606082840312156200108d57600080fd5b62001099606062001599565b90506000620010a9848462000f79565b8252506020620010bc8484830162000f79565b6020830152506040620010d2848285016200126c565b60408301525092915050565b600060c08284031215620010f157600080fd5b620010fd60c062001599565b905060006200110d848462000f79565b8252506020620011208484830162001042565b6020830152506040620011368482850162000f79565b60408301525060606200114c848285016200126c565b606083015250608062001162848285016200126c565b60808301525060a062001178848285016200126c565b60a08301525092915050565b600060a082840312156200119757600080fd5b620011a360a062001599565b90506000620011b3848462000f79565b8252506020620011c68484830162001042565b6020830152506040620011dc8482850162000f79565b6040830152506060620011f28482850162000f79565b606083015250608062001208848285016200126c565b60808301525092915050565b600060c082840312156200122757600080fd5b6200123360c062001599565b9050600062001243848462000f79565b8252506020620012568484830162000f79565b6020830152506040620011368482850162001042565b805162000f738162001617565b6000602082840312156200128c57600080fd5b60006200129a848462000f66565b949350505050565b600060e08284031215620012b557600080fd5b60006200129a848462000f86565b600060608284031215620012d657600080fd5b60006200129a84846200107a565b600060c08284031215620012f757600080fd5b60006200129a8484620010de565b600060a082840312156200131857600080fd5b60006200129a848462001184565b600060c082840312156200133957600080fd5b60006200129a848462001214565b6000602082840312156200135a57600080fd5b60006200129a84846200126c565b6200137381620015d6565b82525050565b600062001388601183620015c0565b7f496e76616c696420455448207661756c74000000000000000000000000000000815260200192915050565b6000620013c3601383620015c0565b7f496e76616c6964204552433230207661756c7400000000000000000000000000815260200192915050565b6000620013fe603b83620015c0565b7f5370656e64696e6720636f6e646974696f6e207265676973747279206f776e6581527f7273686970206e6565647320746f2062652072656e6f756e6365640000000000602082015260400192915050565b6200137381620015ef565b60a081016200146b828862001368565b6200147a602083018762001368565b62001489604083018662001450565b62001498606083018562001450565b620014a7608083018462001450565b9695505050505050565b60808101620014c1828762001368565b620014d0602083018662001368565b620014df604083018562001450565b620014ee606083018462001450565b95945050505050565b6080810162001507828762001368565b62001516602083018662001368565b620014df604083018562001368565b6060810162001535828662001368565b62001544602083018562001368565b6200129a604083018462001450565b6020808252810162000f738162001379565b6020808252810162000f7381620013b4565b6020808252810162000f7381620013ef565b6020810162000f73828462001450565b6040518181016001600160401b0381118282101715620015b857600080fd5b604052919050565b90815260200190565b600062000f7382620015e3565b600062000f7382620015c9565b6001600160a01b031690565b90565b620015fd81620015c9565b81146200160957600080fd5b50565b620015fd81620015d6565b620015fd81620015ef565b61378c80620016326000396000f3fe6080604052600436106101815760003560e01c8063a4a25441116100d1578063e47a46311161008a578063e9a201fc11610064578063e9a201fc146103fc578063f00cf19b1461041c578063fce1b3fb1461043c578063fe32a1241461045c57610181565b8063e47a46311461039c578063e5bc60c7146103c9578063e8362298146103dc57610181565b8063a4a25441146102ff578063b177ba2314610312578063b22d3e1414610332578063b3c2ec7614610352578063c170ecf514610372578063c96e7c051461038757610181565b8063684963511161013e5780637e2b2efe116101185780637e2b2efe1461029b578063839c78f9146102b0578063905d6a99146102dd578063a0e403b1146102dd57610181565b8063684963511461025357806370e01462146102735780637702fa171461028657610181565b80630ca5b67614610186578063163d7bc7146101bc578063315fb7da146101de57806336660de4146101fe5780633f1214cf1461021e5780635a52851414610240575b600080fd5b34801561019257600080fd5b506101a66101a1366004612480565b610471565b6040516101b391906132ce565b60405180910390f35b3480156101c857600080fd5b506101dc6101d7366004612735565b610576565b005b3480156101ea57600080fd5b506101dc6101f9366004612735565b610679565b34801561020a57600080fd5b506101dc610219366004612559565b610767565b34801561022a57600080fd5b506102336108c1565b6040516101b39190613581565b6101dc61024e3660046126cd565b610926565b34801561025f57600080fd5b506101dc61026e366004612771565b610ac6565b6101dc610281366004612701565b610b1e565b34801561029257600080fd5b50610233610c40565b3480156102a757600080fd5b50610233610ca0565b3480156102bc57600080fd5b506102d06102cb366004612525565b610cab565b6040516101b3919061358f565b3480156102e957600080fd5b506102f2610cbe565b6040516101b3919061359d565b6101dc61030d366004612699565b610cc3565b34801561031e57600080fd5b506101dc61032d366004612735565b610de1565b34801561033e57600080fd5b506102d061034d3660046124c1565b610ecf565b34801561035e57600080fd5b506101dc61036d366004612753565b610efa565b34801561037e57600080fd5b5061023361101e565b34801561039357600080fd5b50610233611029565b3480156103a857600080fd5b506103bc6103b7366004612753565b611034565b6040516101b39190613572565b6101dc6103d7366004612699565b6111d5565b3480156103e857600080fd5b506101dc6103f73660046125c9565b6112f3565b34801561040857600080fd5b506101dc610417366004612665565b6113c0565b34801561042857600080fd5b506101dc6104373660046125fd565b61148d565b34801561044857600080fd5b506101dc610457366004612631565b61155a565b34801561046857600080fd5b50610233611627565b606080838390506040519080825280602002602001820160405280156104b157816020015b61049e611ba9565b8152602001906001900390816104965790505b50905060005b8381101561056c5760008585838181106104cd57fe5b90506020020160206104e29190810190612753565b6001600160a01b0380821660009081526020818152604091829020825160c081018452815460ff161515815260018201549281019290925260028101549282019290925260038201549092166060830152600481015460808301526005015460a082015284519192509084908490811061055857fe5b6020908102919091010152506001016104b7565b5090505b92915050565b601060009054906101000a90046001600160a01b03166001600160a01b0316634b0a72bc6040518163ffffffff1660e01b815260040160206040518083038186803b1580156105c457600080fd5b505afa1580156105d8573d6000803e3d6000fd5b505050506040513d601f19601f820116820180604052506105fc9190810190612462565b336001600160a01b0382161461062d5760405162461bcd60e51b81526004016106249061335f565b60405180910390fd5b61063e600e8363ffffffff61168716565b7fd21ccbbae3d29826d53310efdc993c64e27496dd31694b292f1a120344ec37ab8260405161066d9190613581565b60405180910390a15050565b603060009054906101000a90046001600160a01b03166001600160a01b0316634b0a72bc6040518163ffffffff1660e01b815260040160206040518083038186803b1580156106c757600080fd5b505afa1580156106db573d6000803e3d6000fd5b505050506040513d601f19601f820116820180604052506106ff9190810190612462565b336001600160a01b038216146107275760405162461bcd60e51b81526004016106249061335f565b610738602e8363ffffffff61168716565b7f30ce291291dca42b8168ab211fafc36d3d4868292ed3259874ed00864432e20e8260405161066d9190613581565b603060009054906101000a90046001600160a01b0316806001600160a01b031663ff27b1896040518163ffffffff1660e01b8152600401600060405180830381600087803b1580156107b857600080fd5b505af11580156107cc573d6000803e3d6000fd5b505060408051606081018252601d546001600160a01b039081168252601e54166020820152601f54818301529051630c27711f60e11b815273__PaymentChallengeIFENotCanonical_______935063184ee23e925061083891906011908990899089906004016133ac565b60006040518083038186803b15801561085057600080fd5b505af4158015610864573d6000803e3d6000fd5b50505050806001600160a01b0316634e0f74366040518163ffffffff1660e01b8152600401600060405180830381600087803b1580156108a357600080fd5b505af11580156108b7573d6000803e3d6000fd5b5050505050505050565b6040805160a081018252602e546001600160801b038082168352600160801b9182900481166020840152602f549081169383019390935261ffff90830481166060830152600160901b909204909116608082015260009061092190611775565b905090565b603060009054906101000a90046001600160a01b0316806001600160a01b031663ff27b1896040518163ffffffff1660e01b8152600401600060405180830381600087803b15801561097757600080fd5b505af115801561098b573d6000803e3d6000fd5b50505050610997610c40565b6001600160801b03168034146109bf5760405162461bcd60e51b8152600401610624906132ef565b6040805160a0810182526012546001600160a01b039081168252825160208181018552601354825283015260145481168284015260155416606082015260165460808201529051631ff4513b60e01b815273__PaymentStartInFlightExit______________91631ff4513b91610a3e91906011908890600401613517565b60006040518083038186803b158015610a5657600080fd5b505af4158015610a6a573d6000803e3d6000fd5b5050505050806001600160a01b0316634e0f74366040518163ffffffff1660e01b8152600401600060405180830381600087803b158015610aaa57600080fd5b505af1158015610abe573d6000803e3d6000fd5b505050505050565b6031546001600160a01b0316338114610af15760405162461bcd60e51b81526004016106249061335f565b610afa8461179f565b15610b0e57610b0984836117c5565b610b18565b610b188483611861565b50505050565b601060009054906101000a90046001600160a01b0316806001600160a01b031663ff27b1896040518163ffffffff1660e01b8152600401600060405180830381600087803b158015610b6f57600080fd5b505af1158015610b83573d6000803e3d6000fd5b50505050610b8f611627565b6001600160801b0316803414610bb75760405162461bcd60e51b8152600401610624906132ef565b6040805160c0810182526001546001600160a01b0390811682526002541660208083019190915282519081018352600354815281830152600480546060830152600554608083015260065460a083015291516332c812a760e11b815273__PaymentStartStandardExit______________92636590254e92610a3e929091600091899101613544565b6040805160a081018252602c546001600160801b038082168352600160801b9182900481166020840152602d549081169383019390935261ffff90830481166060830152600160901b909204909116608082015260009061092190611775565b666379da05b6000081565b6000610cb6826118d1565b90505b919050565b600281565b603060009054906101000a90046001600160a01b0316806001600160a01b031663ff27b1896040518163ffffffff1660e01b8152600401600060405180830381600087803b158015610d1457600080fd5b505af1158015610d28573d6000803e3d6000fd5b50505050610d346108c1565b6001600160801b0316803414610d5c5760405162461bcd60e51b8152600401610624906132ef565b6040805160c0810182526017546001600160a01b03908116825282516020818101855260185482528301526019541681830152601a546060820152601b546080820152601c5460a0820152905163082153e960e21b815273__PaymentPiggybackInFlightExit__________916320854fa491610a3e919060119088906004016134b4565b603060009054906101000a90046001600160a01b03166001600160a01b0316634b0a72bc6040518163ffffffff1660e01b815260040160206040518083038186803b158015610e2f57600080fd5b505afa158015610e43573d6000803e3d6000fd5b505050506040513d601f19601f82011682018060405250610e679190810190612462565b336001600160a01b03821614610e8f5760405162461bcd60e51b81526004016106249061335f565b610ea0602c8363ffffffff61168716565b7f63ccac61f03626a0e717e96da239ff8996745b6c4ddcaffdedc88d7ef938f5ec8260405161066d9190613581565b6000610ed9611bde565b610ee2836118ef565b9050610eef858583611928565b9150505b9392505050565b603060009054906101000a90046001600160a01b0316806001600160a01b031663ff27b1896040518163ffffffff1660e01b8152600401600060405180830381600087803b158015610f4b57600080fd5b505af1158015610f5f573d6000803e3d6000fd5b505060408051808201825260265481526027546020820152905163b1cf0fed60e01b815273__PaymentDeleteInFlightExit_____________935063b1cf0fed9250610fb39190601190879060040161348c565b60006040518083038186803b158015610fcb57600080fd5b505af4158015610fdf573d6000803e3d6000fd5b50505050806001600160a01b0316634e0f74366040518163ffffffff1660e01b8152600401600060405180830381600087803b158015610aaa57600080fd5b6631bced02db000081565b6683734dd0b0800081565b61103c611c03565b6001600160a01b0382166000908152601160209081526040808320815161012081018352815460ff81161515825261010090046001600160401b03169381019390935260018101548383015260028101546060840152815160808082019093529293909291840191906003840190600490835b82821015611116576040805160a081018252600584028601805482526001808201546001600160a01b0390811660208086019190915260028401549091169484019490945260038201546060840152600490910154608083015290835290920191016110af565b5050509082525060408051608081019091526020909101906017830160046000835b8282101561119f576040805160a081018252600584028601805482526001808201546001600160a01b039081166020808601919091526002840154909116948401949094526003820154606084015260049091015460808301529083529092019101611138565b50505090825250602b8201546001600160a01b03166020820152602c8201546040820152602d9091015460609091015292915050565b603060009054906101000a90046001600160a01b0316806001600160a01b031663ff27b1896040518163ffffffff1660e01b8152600401600060405180830381600087803b15801561122657600080fd5b505af115801561123a573d6000803e3d6000fd5b505050506112466108c1565b6001600160801b031680341461126e5760405162461bcd60e51b8152600401610624906132ef565b6040805160c0810182526017546001600160a01b03908116825282516020818101855260185482528301526019541681830152601a546060820152601b546080820152601c5460a08201529051631845801f60e11b815273__PaymentPiggybackInFlightExit__________9163308b003e91610a3e919060119088906004016134b4565b603060009054906101000a90046001600160a01b0316806001600160a01b031663ff27b1896040518163ffffffff1660e01b8152600401600060405180830381600087803b15801561134457600080fd5b505af1158015611358573d6000803e3d6000fd5b505060408051606081018252601d546001600160a01b039081168252601e54166020820152601f54818301529051631287d7e160e31b815273__PaymentChallengeIFENotCanonical_______935063943ebf089250610fb391906011908790600401613405565b601060009054906101000a90046001600160a01b0316806001600160a01b031663ff27b1896040518163ffffffff1660e01b8152600401600060405180830381600087803b15801561141157600080fd5b505af1158015611425573d6000803e3d6000fd5b505060408051606081018252600b546001600160a01b039081168252600c54166020820152600d5481830152905163edc91d4b60e01b815273__PaymentChallengeStandardExit__________935063edc91d4b9250610fb39190600090879060040161345f565b603060009054906101000a90046001600160a01b0316806001600160a01b031663ff27b1896040518163ffffffff1660e01b8152600401600060405180830381600087803b1580156114de57600080fd5b505af11580156114f2573d6000803e3d6000fd5b505060408051606081018252602080546001600160a01b0390811683526021541690820152602254818301529051634bb4a4df60e11b815273__PaymentChallengeIFEInputSpent_________935063976949be9250610fb39190601190879060040161337f565b603060009054906101000a90046001600160a01b0316806001600160a01b031663ff27b1896040518163ffffffff1660e01b8152600401600060405180830381600087803b1580156115ab57600080fd5b505af11580156115bf573d6000803e3d6000fd5b5050604080516060810182526023546001600160a01b0390811682526024541660208201526025548183015290516359cff02160e01b815273__PaymentChallengeIFEOutputSpent________93506359cff0219250610fb391906011908790600401613432565b6040805160a081018252600e546001600160801b038082168352600160801b9182900481166020840152600f549081169383019390935261ffff90830481166060830152600160901b909204909116608082015260009061092190611775565b6040805160a08101825283546001600160801b038082168352600160801b918290048116602084015260018601549081169383019390935261ffff90830481166060830152600160901b90920490911660808201526116e69082611998565b8154600160801b90046001600160801b031615801590611713575060018201546001600160801b03164210155b1561173a578154600160801b81046001600160801b03166001600160801b03199091161782555b81546001600160801b03918216600160801b02911617815560010180546001600160801b0319166001600160401b03426202a3000116179055565b600081604001516001600160801b031642101561179457508051610cb9565b506020810151610cb9565b60006117bb6001600160a01b038316609763ffffffff611a5b16565b60ff161592915050565b604080516080810182526007546001600160a01b039081168252600854811660208301526009541681830152600a54606082015290516373c97b6d60e11b815273__PaymentProcessStandardExit____________9163e792f6da916118359190600090879087906004016134e2565b60006040518083038186803b15801561184d57600080fd5b505af4158015610abe573d6000803e3d6000fd5b604080516080810182526028546001600160a01b03908116825260295481166020830152602a541681830152602b5460608201529051632309cb3d60e01b815273__PaymentProcessInFlightExit____________91632309cb3d916118359190601190879087906004016134e2565b80516020820120600090610cb69060691c609763ffffffff611a6516565b6118f7611bde565b5060408051606081018252633b9aca008084048252612710908406819004602083015290920661ffff169082015290565b6000831561197b5760008361193c84611a72565b60405160200161194d9291906132ac565b604051602081830303815290604052805190602001209050611973818460400151611b0d565b915050610ef3565b61199083805190602001208360400151611b0d565b949350505050565b60006119a383611775565b90506000826001600160801b0316116119ce5760405162461bcd60e51b81526004016106249061332f565b826060015161ffff16816001600160801b0316816119e857fe5b046001600160801b0316826001600160801b03161015611a1a5760405162461bcd60e51b81526004016106249061333f565b826080015161ffff16816001600160801b031602826001600160801b03161115611a565760405162461bcd60e51b81526004016106249061330f565b505050565b60ff161c60011690565b600160ff919091161b1790565b6000612710826040015161ffff1610611a9d5760405162461bcd60e51b81526004016106249061331f565b6020820151620186a011611ac35760405162461bcd60e51b8152600401610624906132df565b610cb6826040015161ffff16611b01611aeb6127108660200151611b4a90919063ffffffff16565b8551611b0190633b9aca0063ffffffff611b4a16565b9063ffffffff611b8416565b6000606983901c61ffff60981b609884901b1617806001600160a01b03811681146119905760405162461bcd60e51b81526004016106249061336f565b600082611b5957506000610570565b82820282848281611b6657fe5b0414610ef35760405162461bcd60e51b81526004016106249061334f565b600082820183811015610ef35760405162461bcd60e51b8152600401610624906132ff565b6040805160c081018252600080825260208201819052918101829052606081018290526080810182905260a081019190915290565b60405180606001604052806000815260200160008152602001600061ffff1681525090565b60405180610120016040528060001515815260200160006001600160401b031681526020016000815260200160008152602001611c3e611c6f565b8152602001611c4b611c6f565b815260200160006001600160a01b0316815260200160008152602001600081525090565b60405180608001604052806004905b611c86611c9c565b815260200190600190039081611c7e5790505090565b6040805160a08101825260008082526020820181905291810182905260608101829052608081019190915290565b8035610570816136bc565b8051610570816136bc565b600082601f830112611cf157600080fd5b8135611d04611cff826135d1565b6135ab565b81815260209384019390925082018360005b83811015611d425781358601611d2c8882611e0f565b8452506020928301929190910190600101611d16565b5050505092915050565b60008083601f840112611d5e57600080fd5b5081356001600160401b03811115611d7557600080fd5b602083019150836020820283011115611d8d57600080fd5b9250929050565b600082601f830112611da557600080fd5b8135611db3611cff826135d1565b91508181835260208401935060208101905083856020840282011115611dd857600080fd5b60005b83811015611d425781611dee8882612457565b8452506020928301929190910190600101611ddb565b8035610570816136d3565b600082601f830112611e2057600080fd5b8135611e2e611cff826135f1565b91508082526020830160208301858383011115611e4a57600080fd5b611e5583828461367a565b50505092915050565b60006101208284031215611e7157600080fd5b611e7c6101206135ab565b905081356001600160401b03811115611e9457600080fd5b611ea084828501611e0f565b8252506020611eb184848301612457565b60208301525060408201356001600160401b03811115611ed057600080fd5b611edc84828501611e0f565b6040830152506060611ef084828501612441565b60608301525060808201356001600160401b03811115611f0f57600080fd5b611f1b84828501611e0f565b60808301525060a0611f2f84828501612441565b60a08301525060c0611f4384828501612457565b60c08301525060e08201356001600160401b03811115611f6257600080fd5b611f6e84828501611e0f565b60e0830152506101008201356001600160401b03811115611f8e57600080fd5b611f9a84828501611e0f565b6101008301525092915050565b600060e08284031215611fb957600080fd5b611fc360e06135ab565b905081356001600160401b03811115611fdb57600080fd5b611fe784828501611e0f565b8252506020611ff884848301612441565b60208301525060408201356001600160401b0381111561201757600080fd5b61202384828501611e0f565b604083015250606061203784828501612441565b60608301525060808201356001600160401b0381111561205657600080fd5b61206284828501611e0f565b60808301525060a08201356001600160401b0381111561208157600080fd5b61208d84828501611e0f565b60a08301525060c06120a184828501612457565b60c08301525092915050565b600060c082840312156120bf57600080fd5b6120c960c06135ab565b905081356001600160401b038111156120e157600080fd5b6120ed84828501611e0f565b82525060208201356001600160401b0381111561210957600080fd5b61211584828501611e0f565b602083015250604061212984828501612457565b60408301525060608201356001600160401b0381111561214857600080fd5b61215484828501611e0f565b606083015250608061216884828501612441565b60808301525060a08201356001600160401b0381111561218757600080fd5b61219384828501611e0f565b60a08301525092915050565b600060a082840312156121b157600080fd5b6121bb60a06135ab565b905060006121c9848461244c565b82525060208201356001600160401b038111156121e557600080fd5b6121f184828501611e0f565b60208301525060408201356001600160401b0381111561221057600080fd5b61221c84828501611e0f565b604083015250606061223084828501612441565b60608301525060808201356001600160401b0381111561224f57600080fd5b61225b84828501611e0f565b60808301525092915050565b60006040828403121561227957600080fd5b61228360406135ab565b905081356001600160401b0381111561229b57600080fd5b6122a784828501611e0f565b82525060206122b884848301612441565b60208301525092915050565b600060a082840312156122d657600080fd5b6122e060a06135ab565b905081356001600160401b038111156122f857600080fd5b61230484828501611e0f565b82525060208201356001600160401b0381111561232057600080fd5b61232c84828501611ce0565b60208301525060408201356001600160401b0381111561234b57600080fd5b61235784828501611d94565b60408301525060608201356001600160401b0381111561237657600080fd5b61238284828501611ce0565b60608301525060808201356001600160401b038111156123a157600080fd5b61225b84828501611ce0565b6000606082840312156123bf57600080fd5b6123c960606135ab565b905060006123d78484612457565b82525060208201356001600160401b038111156123f357600080fd5b6123ff84828501611e0f565b60208301525060408201356001600160401b0381111561241e57600080fd5b61242a84828501611e0f565b60408301525092915050565b8035610570816136dc565b8035610570816136e5565b8035610570816136ee565b8035610570816136f7565b60006020828403121561247457600080fd5b60006119908484611cd5565b6000806020838503121561249357600080fd5b82356001600160401b038111156124a957600080fd5b6124b585828601611d4c565b92509250509250929050565b6000806000606084860312156124d657600080fd5b60006124e28686611e04565b93505060208401356001600160401b038111156124fe57600080fd5b61250a86828701611e0f565b925050604061251b86828701612457565b9150509250925092565b60006020828403121561253757600080fd5b81356001600160401b0381111561254d57600080fd5b61199084828501611e0f565b60008060006060848603121561256e57600080fd5b83356001600160401b0381111561258457600080fd5b61259086828701611e0f565b93505060206125a186828701612457565b92505060408401356001600160401b038111156125bd57600080fd5b61251b86828701611e0f565b6000602082840312156125db57600080fd5b81356001600160401b038111156125f157600080fd5b61199084828501611e5e565b60006020828403121561260f57600080fd5b81356001600160401b0381111561262557600080fd5b61199084828501611fa7565b60006020828403121561264357600080fd5b81356001600160401b0381111561265957600080fd5b611990848285016120ad565b60006020828403121561267757600080fd5b81356001600160401b0381111561268d57600080fd5b6119908482850161219f565b6000602082840312156126ab57600080fd5b81356001600160401b038111156126c157600080fd5b61199084828501612267565b6000602082840312156126df57600080fd5b81356001600160401b038111156126f557600080fd5b611990848285016122c4565b60006020828403121561271357600080fd5b81356001600160401b0381111561272957600080fd5b611990848285016123ad565b60006020828403121561274757600080fd5b60006119908484612436565b60006020828403121561276557600080fd5b6000611990848461244c565b60008060006060848603121561278657600080fd5b6000612792868661244c565b93505060206127a386828701612457565b925050604061251b86828701611cca565b6000610ef3838361297e565b60006127cc838361311d565b505060c00190565b60006127e0838361322d565b505060a00190565b60006127f48383612975565b505060200190565b61280581613634565b82525050565b600061281682613621565b612820818561362b565b93508360208202850161283285613618565b8060005b8581101561286c578484038952815161284f85826127b4565b945061285a83613618565b60209a909a0199925050600101612836565b5091979650505050505050565b600061288482613621565b61288e818561362b565b935061289983613618565b8060005b838110156128c75781516128b188826127c0565b97506128bc83613618565b92505060010161289d565b509495945050505050565b6128db81613625565b6128e58184610cb9565b92506128f08261361e565b8060005b83811015610abe57815161290887826127d4565b965061291383613618565b9250506001016128f4565b600061292982613621565b612933818561362b565b935061293e83613618565b8060005b838110156128c757815161295688826127e8565b975061296183613618565b925050600101612942565b6128058161363f565b6128058161361e565b600061298982613621565b612993818561362b565b93506129a3818560208601613686565b6129ac816136b2565b9093019392505050565b60006129c182613621565b6129cb8185610cb9565b93506129db818560208601613686565b9290920192915050565b6128058161366f565b60006129fb60198361362b565b7f496e76616c6964207472616e73616374696f6e20696e64657800000000000000815260200192915050565b6000612a3460208361362b565b7f496e7075742076616c7565206d757374206d61746368206d73672e76616c7565815260200192915050565b6000612a6d601b8361362b565b7f536166654d6174683a206164646974696f6e206f766572666c6f770000000000815260200192915050565b6000612aa660158361362b565b74084dedcc840e6d2f4ca40d2e640e8dede40d0d2ced605b1b815260200192915050565b6000612ad760148361362b565b73092dcecc2d8d2c840deeae8e0eae840d2dcc8caf60631b815260200192915050565b6000612b0760188361362b565b7f426f6e642073697a652063616e6e6f74206265207a65726f0000000000000000815260200192915050565b6000612b4060148361362b565b73426f6e642073697a6520697320746f6f206c6f7760601b815260200192915050565b6000612b7060218361362b565b7f536166654d6174683a206d756c7469706c69636174696f6e206f766572666c6f8152607760f81b602082015260400192915050565b6000612bb3601e8361362b565b7f43616c6c6572206164647265737320697320756e617574686f72697a65640000815260200192915050565b6000612bec60108361362b565b6f457869744964206f766572666c6f777360801b815260200192915050565b80516020830190610b188482612975565b805161012080845260009190840190612c35828261297e565b9150506020830151612c4a6020860182612975565b5060408301518482036040860152612c62828261297e565b9150506060830151612c776060860182613289565b5060808301518482036080860152612c8f828261297e565b91505060a0830151612ca460a0860182613289565b5060c0830151612cb760c0860182612975565b5060e083015184820360e0860152612ccf828261297e565b915050610100830151848203610100860152612ceb828261297e565b95945050505050565b805160e080845260009190840190612d0c828261297e565b9150506020830151612d216020860182613289565b5060408301518482036040860152612d39828261297e565b9150506060830151612d4e6060860182613289565b5060808301518482036080860152612d66828261297e565b91505060a083015184820360a0860152612d80828261297e565b91505060c083015161056c60c0860182612975565b805160c080845260009190840190612dad828261297e565b91505060208301518482036020860152612dc7828261297e565b9150506040830151612ddc6040860182612975565b5060608301518482036060860152612df4828261297e565b9150506080830151612e096080860182613289565b5060a083015184820360a0860152612ceb828261297e565b805160009060a0840190612e358582613280565b5060208301518482036020860152612e4d828261297e565b91505060408301518482036040860152612e67828261297e565b9150506060830151612e7c6060860182613289565b5060808301518482036080860152612ceb828261297e565b80516060830190612ea584826129e5565b506020820151612eb860208501826129e5565b506040820151610b186040850182612975565b80516040830190612edc8482612975565b506020820151610b186020850182612975565b805160c0830190612f0084826129e5565b506020820151612f136020850182612c0b565b506040820151612f2660408501826129e5565b506060820151612f396060850182612975565b506080820151612f4c6080850182612975565b5060a0820151610b1860a0850182612975565b80516080830190612f7084826129e5565b506020820151612f8360208501826129e5565b506040820151612f9660408501826129e5565b506060820151610b186060850182612975565b805160a0830190612fba84826129e5565b506020820151612fcd6020850182612c0b565b506040820151612fe060408501826129e5565b506060820151612ff360608501826129e5565b506080820151610b186080850182612975565b805160c083019061301784826129e5565b50602082015161302a60208501826129e5565b506040820151612f266040850182612c0b565b9052565b80516105e0830190613053848261296c565b50602082015161306660208501826132a3565b5060408201516130796040850182612975565b50606082015161308c6060850182612975565b50608082015161309f60808501826128d2565b5060a08201516130b36103008501826128d2565b5060c08201516130c76105808501826127fc565b5060e08201516130db6105a0850182612975565b50610100820151610b186105c0850182612975565b8051604080845260009190840190613108828261297e565b915050602083015161056c6020860182613289565b805160c083019061312e848261296c565b5060208201516131416020850182612975565b5060408201516131546040850182612975565b506060820151612f3960608501826127fc565b805160a08084526000919084019061317f828261297e565b91505060208301518482036020860152613199828261280b565b915050604083015184820360408601526131b3828261291e565b915050606083015184820360608601526131cd828261280b565b91505060808301518482036080860152612ceb828261280b565b805160009060608401906131fb8582612975565b5060208301518482036020860152613213828261297e565b91505060408301518482036040860152612ceb828261297e565b805160a083019061323e8482612975565b50602082015161325160208501826127fc565b50604082015161326460408501826127fc565b506060820151612ff36060850182612975565b61280581613644565b61280581613657565b61280581613650565b61280561329e8261361e565b61361e565b61280581613663565b60006132b882856129b6565b91506132c48284613292565b5060200192915050565b60208082528101610ef38184612879565b60208082528101610cb6816129ee565b60208082528101610cb681612a27565b60208082528101610cb681612a60565b60208082528101610cb681612a99565b60208082528101610cb681612aca565b60208082528101610cb681612afa565b60208082528101610cb681612b33565b60208082528101610cb681612b63565b60208082528101610cb681612ba6565b60208082528101610cb681612bdf565b60a0810161338d8286612e94565b61339a606083018561303d565b8181036080830152612ceb8184612cf4565b60e081016133ba8288612e94565b6133c7606083018761303d565b81810360808301526133d9818661297e565b90506133e860a0830185612975565b81810360c08301526133fa818461297e565b979650505050505050565b60a081016134138286612e94565b613420606083018561303d565b8181036080830152612ceb8184612c1c565b60a081016134408286612e94565b61344d606083018561303d565b8181036080830152612ceb8184612d95565b60a0810161346d8286612e94565b61347a606083018561303d565b8181036080830152612ceb8184612e21565b6080810161349a8286612ecb565b6134a7604083018561303d565b6119906060830184613280565b61010081016134c38286612eef565b6134d060c083018561303d565b81810360e0830152612ceb81846130f0565b60e081016134f08287612f5f565b6134fd608083018661303d565b61350a60a0830185613280565b612ceb60c08301846127fc565b60e081016135258286612fa9565b61353260a083018561303d565b81810360c0830152612ceb8184613167565b61010081016135538286613006565b61356060c083018561303d565b81810360e0830152612ceb81846131e7565b6105e081016105708284613041565b602081016105708284613277565b602081016105708284613280565b602081016105708284613289565b6040518181016001600160401b03811182821017156135c957600080fd5b604052919050565b60006001600160401b038211156135e757600080fd5b5060209081020190565b60006001600160401b0382111561360757600080fd5b506020601f91909101601f19160190565b60200190565b90565b5190565b50600490565b90815260200190565b6000610cb682613657565b151590565b6001600160801b031690565b61ffff1690565b6001600160a01b031690565b6001600160401b031690565b6000610cb682613634565b82818337506000910152565b60005b838110156136a1578181015183820152602001613689565b83811115610b185750506000910152565b601f01601f191690565b6136c581613634565b81146136d057600080fd5b50565b6136c58161363f565b6136c581613644565b6136c581613650565b6136c581613657565b6136c58161361e565b613708611c9c565b506040805160a0810182526001600160801b03949094168452600060208501526780000000000000009084015261ffff91821660608401521660808201529056fea365627a7a72315820af295d311b64cb892079cb57e658f2afcf93b6013f694e2343b0577705e82b3d6c6578706572696d656e74616cf564736f6c634300050b0040",
  "source": "pragma solidity 0.5.11;\npragma experimental ABIEncoderV2;\n\nimport \"./PaymentExitGameArgs.sol\";\nimport \"./routers/PaymentStandardExitRouter.sol\";\nimport \"./routers/PaymentInFlightExitRouter.sol\";\nimport \"../utils/ExitId.sol\";\nimport \"../registries/SpendingConditionRegistry.sol\";\nimport \"../../framework/interfaces/IExitProcessor.sol\";\nimport \"../../framework/PlasmaFramework.sol\";\nimport \"../../utils/OnlyFromAddress.sol\";\n\n/**\n * @notice The exit game contract implementation for Payment Transaction\n */\ncontract PaymentExitGame is IExitProcessor, OnlyFromAddress, PaymentStandardExitRouter, PaymentInFlightExitRouter {\n    PlasmaFramework private plasmaFramework;\n\n    /**\n     * @dev use struct PaymentExitGameArgs to avoid stack too deep compilation error.\n     */\n    constructor(PaymentExitGameArgs.Args memory args)\n        public\n        PaymentStandardExitRouter(args)\n        PaymentInFlightExitRouter(args)\n    {\n        plasmaFramework = args.framework;\n\n        // makes sure that the spending condition has already renounced ownership\n        require(args.spendingConditionRegistry.owner() == address(0), \"Spending condition registry ownership needs to be renounced\");\n    }\n\n    /**\n     * @notice Callback processes exit function for the PlasmaFramework to call\n     * @param exitId The exit ID\n     * @param token Token (ERC20 address or address(0) for ETH) of the exiting output\n     */\n    function processExit(uint160 exitId, uint256, address token) external onlyFrom(address(plasmaFramework)) {\n        if (ExitId.isStandardExit(exitId)) {\n            PaymentStandardExitRouter.processStandardExit(exitId, token);\n        } else {\n            PaymentInFlightExitRouter.processInFlightExit(exitId, token);\n        }\n    }\n\n    /**\n     * @notice Helper function to compute the standard exit ID\n     */\n    function getStandardExitId(bool _isDeposit, bytes memory _txBytes, uint256 _utxoPos)\n        public\n        pure\n        returns (uint160)\n    {\n        PosLib.Position memory utxoPos = PosLib.decode(_utxoPos);\n        return ExitId.getStandardExitId(_isDeposit, _txBytes, utxoPos);\n    }\n\n    /**\n     * @notice Helper function to compute the in-flight exit ID\n     */\n    function getInFlightExitId(bytes memory _txBytes)\n        public\n        pure\n        returns (uint160)\n    {\n        return ExitId.getInFlightExitId(_txBytes);\n    }\n}\n",
  "sourcePath": "/Users/nocholas/plasma-contracts/plasma_framework/contracts/src/exits/payment/PaymentExitGame.sol",
  "compiler": {
    "name": "solc",
    "version": "0.5.11+commit.c082d0b4.Emscripten.clang"
  },
  "schemaVersion": "3.0.16",
  "updatedAt": "2019-12-19T10:42:01.482Z",
  "devdoc": {
    "methods": {
      "challengeInFlightExitInputSpent((bytes,uint16,bytes,uint16,bytes,bytes,uint256))": {
        "params": {
          "args": "Argument data to challenge (see also struct 'ChallengeInputSpentArgs')"
        }
      },
      "challengeInFlightExitNotCanonical((bytes,uint256,bytes,uint16,bytes,uint16,uint256,bytes,bytes))": {
        "params": {
          "args": "Input argument data to challenge (see also struct 'ChallengeCanonicityArgs')"
        }
      },
      "challengeInFlightExitOutputSpent((bytes,bytes,uint256,bytes,uint16,bytes))": {
        "params": {
          "args": "Argument data to challenge (see also struct 'ChallengeOutputSpent')"
        }
      },
      "constructor": {
        "details": "use struct PaymentExitGameArgs to avoid stack too deep compilation error."
      },
      "deleteNonPiggybackedInFlightExit(uint160)": {
        "details": "Since IFE is enqueued during piggyback, a non-piggybacked IFE means that it will never be processed.     This means that the IFE bond will never be returned.     see: https://github.com/omisego/plasma-contracts/issues/440",
        "params": {
          "exitId": "The exitId of the in-flight exit"
        }
      },
      "inFlightExits(uint160)": {
        "params": {
          "exitId": "The exit ID of the in-flight exit"
        }
      },
      "piggybackInFlightExitOnInput((bytes,uint16))": {
        "params": {
          "args": "Input argument data to piggyback (see also struct 'PiggybackInFlightExitOnInputArgs')"
        }
      },
      "piggybackInFlightExitOnOutput((bytes,uint16))": {
        "params": {
          "args": "Input argument data to piggyback (see also struct 'PiggybackInFlightExitOnOutputArgs')"
        }
      },
      "processExit(uint160,uint256,address)": {
        "params": {
          "exitId": "The exit ID",
          "token": "Token (ERC20 address or address(0) for ETH) of the exiting output"
        }
      },
      "respondToNonCanonicalChallenge(bytes,uint256,bytes)": {
        "params": {
          "inFlightTx": "The RLP-encoded in-flight transaction",
          "inFlightTxInclusionProof": "Inclusion proof for the in-flight tx",
          "inFlightTxPos": "The UTXO position of the in-flight exit. The outputIndex should be set to 0."
        }
      },
      "standardExits(uint160[])": {
        "params": {
          "exitIds": "Exit IDs of the standard exits"
        }
      },
      "startInFlightExit((bytes,bytes[],uint256[],bytes[],bytes[]))": {
        "params": {
          "args": "Input argument data to challenge (see also struct 'StartExitArgs')"
        }
      },
      "updatePiggybackBondSize(uint128)": {
        "params": {
          "newBondSize": "The new bond size"
        }
      },
      "updateStartIFEBondSize(uint128)": {
        "params": {
          "newBondSize": "The new bond size"
        }
      },
      "updateStartStandardExitBondSize(uint128)": {
        "params": {
          "newBondSize": "The new bond size"
        }
      }
    }
  },
  "userdoc": {
    "methods": {
      "challengeInFlightExitInputSpent((bytes,uint16,bytes,uint16,bytes,bytes,uint256))": {
        "notice": "Challenges an exit from in-flight transaction input"
      },
      "challengeInFlightExitNotCanonical((bytes,uint256,bytes,uint16,bytes,uint16,uint256,bytes,bytes))": {
        "notice": "Challenges an in-flight exit to be non-canonical"
      },
      "challengeInFlightExitOutputSpent((bytes,bytes,uint256,bytes,uint16,bytes))": {
        "notice": "Challenges an exit from in-flight transaction output"
      },
      "challengeStandardExit((uint160,bytes,bytes,uint16,bytes))": {
        "notice": "Challenge a standard exit by showing the exiting output was spent"
      },
      "deleteNonPiggybackedInFlightExit(uint160)": {
        "notice": "Deletes in-flight exit if the first phase has passed and not being piggybacked"
      },
      "getInFlightExitId(bytes)": {
        "notice": "Helper function to compute the in-flight exit ID"
      },
      "getStandardExitId(bool,bytes,uint256)": {
        "notice": "Helper function to compute the standard exit ID"
      },
      "inFlightExits(uint160)": {
        "notice": "Getter functions to retrieve in-flight exit data of the PaymentExitGame"
      },
      "piggybackBondSize()": {
        "notice": "Retrieves the piggyback bond size"
      },
      "piggybackInFlightExitOnInput((bytes,uint16))": {
        "notice": "Piggyback on an input of an in-flight exiting tx. Processed only if the in-flight exit is non-canonical."
      },
      "piggybackInFlightExitOnOutput((bytes,uint16))": {
        "notice": "Piggyback on an output of an in-flight exiting tx. Processed only if the in-flight exit is canonical."
      },
      "processExit(uint160,uint256,address)": {
        "notice": "Callback processes exit function for the PlasmaFramework to call"
      },
      "respondToNonCanonicalChallenge(bytes,uint256,bytes)": {
        "notice": "Respond to a non-canonical challenge by providing its position and by proving its correctness"
      },
      "standardExits(uint160[])": {
        "notice": "Getter retrieves standard exit data of the PaymentExitGame"
      },
      "startIFEBondSize()": {
        "notice": "Retrieves the in-flight exit bond size"
      },
      "startInFlightExit((bytes,bytes[],uint256[],bytes[],bytes[]))": {
        "notice": "Starts withdrawal from a transaction that may be in-flight"
      },
      "startStandardExit((uint256,bytes,bytes))": {
        "notice": "Starts a standard exit of a given output, using output-age priority"
      },
      "startStandardExitBondSize()": {
        "notice": "Retrieves the standard exit bond size"
      },
      "updatePiggybackBondSize(uint128)": {
        "notice": "Updates the piggyback bond size, taking two days to become effective"
      },
      "updateStartIFEBondSize(uint128)": {
        "notice": "Updates the in-flight exit bond size, taking two days to become effective."
      },
      "updateStartStandardExitBondSize(uint128)": {
        "notice": "Updates the standard exit bond size, taking two days to become effective"
      }
    },
    "notice": "The exit game contract implementation for Payment Transaction"
  }
}