{
  "contractName": "PaymentExitGame",
  "abi": [
    {
      "constant": true,
      "inputs": [
        {
          "internalType": "uint160[]",
          "name": "exitIds",
          "type": "uint160[]"
        }
      ],
      "name": "standardExits",
      "outputs": [
        {
          "components": [
            {
              "internalType": "bool",
              "name": "exitable",
              "type": "bool"
            },
            {
              "internalType": "uint256",
              "name": "utxoPos",
              "type": "uint256"
            },
            {
              "internalType": "bytes32",
              "name": "outputId",
              "type": "bytes32"
            },
            {
              "internalType": "address payable",
              "name": "exitTarget",
              "type": "address"
            },
            {
              "internalType": "uint256",
              "name": "amount",
              "type": "uint256"
            },
            {
              "internalType": "uint256",
              "name": "bondSize",
              "type": "uint256"
            }
          ],
          "internalType": "struct PaymentExitDataModel.StandardExit[]",
          "name": "",
          "type": "tuple[]"
        }
      ],
      "payable": false,
      "stateMutability": "view",
      "type": "function"
    },
    {
      "constant": false,
      "inputs": [
        {
          "internalType": "uint128",
          "name": "newBondSize",
          "type": "uint128"
        }
      ],
      "name": "updateStartStandardExitBondSize",
      "outputs": [],
      "payable": false,
      "stateMutability": "nonpayable",
      "type": "function"
    },
    {
      "constant": false,
      "inputs": [
        {
          "components": [
            {
              "internalType": "bytes",
              "name": "inFlightTx",
              "type": "bytes"
            },
            {
              "internalType": "bytes",
              "name": "inFlightTxInclusionProof",
              "type": "bytes"
            },
            {
              "internalType": "uint256",
              "name": "outputUtxoPos",
              "type": "uint256"
            },
            {
              "internalType": "bytes",
              "name": "challengingTx",
              "type": "bytes"
            },
            {
              "internalType": "uint16",
              "name": "challengingTxInputIndex",
              "type": "uint16"
            },
            {
              "internalType": "bytes",
              "name": "challengingTxWitness",
              "type": "bytes"
            },
            {
              "internalType": "bytes32",
              "name": "senderData",
              "type": "bytes32"
            }
          ],
          "internalType": "struct PaymentInFlightExitRouterArgs.ChallengeOutputSpent",
          "name": "args",
          "type": "tuple"
        }
      ],
      "name": "challengeInFlightExitOutputSpent",
      "outputs": [],
      "payable": false,
      "stateMutability": "nonpayable",
      "type": "function"
    },
    {
      "constant": false,
      "inputs": [
        {
          "internalType": "uint128",
          "name": "newBondSize",
          "type": "uint128"
        }
      ],
      "name": "updatePiggybackBondSize",
      "outputs": [],
      "payable": false,
      "stateMutability": "nonpayable",
      "type": "function"
    },
    {
      "constant": false,
      "inputs": [
        {
          "internalType": "bytes",
          "name": "inFlightTx",
          "type": "bytes"
        },
        {
          "internalType": "uint256",
          "name": "inFlightTxPos",
          "type": "uint256"
        },
        {
          "internalType": "bytes",
          "name": "inFlightTxInclusionProof",
          "type": "bytes"
        }
      ],
      "name": "respondToNonCanonicalChallenge",
      "outputs": [],
      "payable": false,
      "stateMutability": "nonpayable",
      "type": "function"
    },
    {
      "constant": true,
      "inputs": [],
      "name": "piggybackBondSize",
      "outputs": [
        {
          "internalType": "uint128",
          "name": "",
          "type": "uint128"
        }
      ],
      "payable": false,
      "stateMutability": "view",
      "type": "function"
    },
    {
      "constant": false,
      "inputs": [
        {
          "components": [
            {
              "internalType": "bytes",
              "name": "inFlightTx",
              "type": "bytes"
            },
            {
              "internalType": "bytes[]",
              "name": "inputTxs",
              "type": "bytes[]"
            },
            {
              "internalType": "uint256[]",
              "name": "inputUtxosPos",
              "type": "uint256[]"
            },
            {
              "internalType": "bytes[]",
              "name": "inputTxsInclusionProofs",
              "type": "bytes[]"
            },
            {
              "internalType": "bytes[]",
              "name": "inFlightTxWitnesses",
              "type": "bytes[]"
            }
          ],
          "internalType": "struct PaymentInFlightExitRouterArgs.StartExitArgs",
          "name": "args",
          "type": "tuple"
        }
      ],
      "name": "startInFlightExit",
      "outputs": [],
      "payable": true,
      "stateMutability": "payable",
      "type": "function"
    },
    {
      "constant": false,
      "inputs": [
        {
          "components": [
            {
              "internalType": "uint256",
              "name": "utxoPos",
              "type": "uint256"
            },
            {
              "internalType": "bytes",
              "name": "rlpOutputTx",
              "type": "bytes"
            },
            {
              "internalType": "bytes",
              "name": "outputTxInclusionProof",
              "type": "bytes"
            }
          ],
          "internalType": "struct PaymentStandardExitRouterArgs.StartStandardExitArgs",
          "name": "args",
          "type": "tuple"
        }
      ],
      "name": "startStandardExit",
      "outputs": [],
      "payable": true,
      "stateMutability": "payable",
      "type": "function"
    },
    {
      "constant": true,
      "inputs": [],
      "name": "startIFEBondSize",
      "outputs": [
        {
          "internalType": "uint128",
          "name": "",
          "type": "uint128"
        }
      ],
      "payable": false,
      "stateMutability": "view",
      "type": "function"
    },
    {
      "constant": true,
      "inputs": [],
      "name": "INITIAL_PB_BOND_SIZE",
      "outputs": [
        {
          "internalType": "uint128",
          "name": "",
          "type": "uint128"
        }
      ],
      "payable": false,
      "stateMutability": "view",
      "type": "function"
    },
    {
      "constant": true,
      "inputs": [],
      "name": "BOND_LOWER_BOUND_DIVISOR",
      "outputs": [
        {
          "internalType": "uint16",
          "name": "",
          "type": "uint16"
        }
      ],
      "payable": false,
      "stateMutability": "view",
      "type": "function"
    },
    {
      "constant": true,
      "inputs": [],
      "name": "BOND_UPPER_BOUND_MULTIPLIER",
      "outputs": [
        {
          "internalType": "uint16",
          "name": "",
          "type": "uint16"
        }
      ],
      "payable": false,
      "stateMutability": "view",
      "type": "function"
    },
    {
      "constant": false,
      "inputs": [
        {
          "components": [
            {
              "internalType": "bytes",
              "name": "inFlightTx",
              "type": "bytes"
            },
            {
              "internalType": "uint16",
              "name": "outputIndex",
              "type": "uint16"
            }
          ],
          "internalType": "struct PaymentInFlightExitRouterArgs.PiggybackInFlightExitOnOutputArgs",
          "name": "args",
          "type": "tuple"
        }
      ],
      "name": "piggybackInFlightExitOnOutput",
      "outputs": [],
      "payable": true,
      "stateMutability": "payable",
      "type": "function"
    },
    {
      "constant": false,
      "inputs": [
        {
          "internalType": "uint128",
          "name": "newBondSize",
          "type": "uint128"
        }
      ],
      "name": "updateStartIFEBondSize",
      "outputs": [],
      "payable": false,
      "stateMutability": "nonpayable",
      "type": "function"
    },
    {
      "constant": false,
      "inputs": [
        {
          "internalType": "uint160",
          "name": "exitId",
          "type": "uint160"
        }
      ],
      "name": "deleteNonPiggybackedInFlightExit",
      "outputs": [],
      "payable": false,
      "stateMutability": "nonpayable",
      "type": "function"
    },
    {
      "constant": false,
      "inputs": [
        {
          "components": [
            {
              "internalType": "bytes",
              "name": "inFlightTx",
              "type": "bytes"
            },
            {
              "internalType": "uint16",
              "name": "inFlightTxInputIndex",
              "type": "uint16"
            },
            {
              "internalType": "bytes",
              "name": "challengingTx",
              "type": "bytes"
            },
            {
              "internalType": "uint16",
              "name": "challengingTxInputIndex",
              "type": "uint16"
            },
            {
              "internalType": "bytes",
              "name": "challengingTxWitness",
              "type": "bytes"
            },
            {
              "internalType": "bytes",
              "name": "inputTx",
              "type": "bytes"
            },
            {
              "internalType": "uint256",
              "name": "inputUtxoPos",
              "type": "uint256"
            },
            {
              "internalType": "bytes32",
              "name": "senderData",
              "type": "bytes32"
            }
          ],
          "internalType": "struct PaymentInFlightExitRouterArgs.ChallengeInputSpentArgs",
          "name": "args",
          "type": "tuple"
        }
      ],
      "name": "challengeInFlightExitInputSpent",
      "outputs": [],
      "payable": false,
      "stateMutability": "nonpayable",
      "type": "function"
    },
    {
      "constant": true,
      "inputs": [],
      "name": "INITIAL_BOND_SIZE",
      "outputs": [
        {
          "internalType": "uint128",
          "name": "",
          "type": "uint128"
        }
      ],
      "payable": false,
      "stateMutability": "view",
      "type": "function"
    },
    {
      "constant": true,
      "inputs": [],
      "name": "INITIAL_IFE_BOND_SIZE",
      "outputs": [
        {
          "internalType": "uint128",
          "name": "",
          "type": "uint128"
        }
      ],
      "payable": false,
      "stateMutability": "view",
      "type": "function"
    },
    {
      "constant": true,
      "inputs": [
        {
          "internalType": "uint160[]",
          "name": "exitIds",
          "type": "uint160[]"
        }
      ],
      "name": "inFlightExits",
      "outputs": [
        {
          "components": [
            {
              "internalType": "bool",
              "name": "isCanonical",
              "type": "bool"
            },
            {
              "internalType": "uint64",
              "name": "exitStartTimestamp",
              "type": "uint64"
            },
            {
              "internalType": "uint256",
              "name": "exitMap",
              "type": "uint256"
            },
            {
              "internalType": "uint256",
              "name": "position",
              "type": "uint256"
            },
            {
              "components": [
                {
                  "internalType": "bytes32",
                  "name": "outputId",
                  "type": "bytes32"
                },
                {
                  "internalType": "address payable",
                  "name": "exitTarget",
                  "type": "address"
                },
                {
                  "internalType": "address",
                  "name": "token",
                  "type": "address"
                },
                {
                  "internalType": "uint256",
                  "name": "amount",
                  "type": "uint256"
                },
                {
                  "internalType": "uint256",
                  "name": "piggybackBondSize",
                  "type": "uint256"
                }
              ],
              "internalType": "struct PaymentExitDataModel.WithdrawData[4]",
              "name": "inputs",
              "type": "tuple[4]"
            },
            {
              "components": [
                {
                  "internalType": "bytes32",
                  "name": "outputId",
                  "type": "bytes32"
                },
                {
                  "internalType": "address payable",
                  "name": "exitTarget",
                  "type": "address"
                },
                {
                  "internalType": "address",
                  "name": "token",
                  "type": "address"
                },
                {
                  "internalType": "uint256",
                  "name": "amount",
                  "type": "uint256"
                },
                {
                  "internalType": "uint256",
                  "name": "piggybackBondSize",
                  "type": "uint256"
                }
              ],
              "internalType": "struct PaymentExitDataModel.WithdrawData[4]",
              "name": "outputs",
              "type": "tuple[4]"
            },
            {
              "internalType": "address payable",
              "name": "bondOwner",
              "type": "address"
            },
            {
              "internalType": "uint256",
              "name": "bondSize",
              "type": "uint256"
            },
            {
              "internalType": "uint256",
              "name": "oldestCompetitorPosition",
              "type": "uint256"
            }
          ],
          "internalType": "struct PaymentExitDataModel.InFlightExit[]",
          "name": "",
          "type": "tuple[]"
        }
      ],
      "payable": false,
      "stateMutability": "view",
      "type": "function"
    },
    {
      "constant": false,
      "inputs": [
        {
          "components": [
            {
              "internalType": "uint160",
              "name": "exitId",
              "type": "uint160"
            },
            {
              "internalType": "bytes",
              "name": "exitingTx",
              "type": "bytes"
            },
            {
              "internalType": "bytes",
              "name": "challengeTx",
              "type": "bytes"
            },
            {
              "internalType": "uint16",
              "name": "inputIndex",
              "type": "uint16"
            },
            {
              "internalType": "bytes",
              "name": "witness",
              "type": "bytes"
            },
            {
              "internalType": "bytes32",
              "name": "senderData",
              "type": "bytes32"
            }
          ],
          "internalType": "struct PaymentStandardExitRouterArgs.ChallengeStandardExitArgs",
          "name": "args",
          "type": "tuple"
        }
      ],
      "name": "challengeStandardExit",
      "outputs": [],
      "payable": false,
      "stateMutability": "nonpayable",
      "type": "function"
    },
    {
      "constant": false,
      "inputs": [
        {
          "components": [
            {
              "internalType": "bytes",
              "name": "inFlightTx",
              "type": "bytes"
            },
            {
              "internalType": "uint16",
              "name": "inputIndex",
              "type": "uint16"
            }
          ],
          "internalType": "struct PaymentInFlightExitRouterArgs.PiggybackInFlightExitOnInputArgs",
          "name": "args",
          "type": "tuple"
        }
      ],
      "name": "piggybackInFlightExitOnInput",
      "outputs": [],
      "payable": true,
      "stateMutability": "payable",
      "type": "function"
    },
    {
      "constant": false,
      "inputs": [
        {
          "components": [
            {
              "internalType": "bytes",
              "name": "inputTx",
              "type": "bytes"
            },
            {
              "internalType": "uint256",
              "name": "inputUtxoPos",
              "type": "uint256"
            },
            {
              "internalType": "bytes",
              "name": "inFlightTx",
              "type": "bytes"
            },
            {
              "internalType": "uint16",
              "name": "inFlightTxInputIndex",
              "type": "uint16"
            },
            {
              "internalType": "bytes",
              "name": "competingTx",
              "type": "bytes"
            },
            {
              "internalType": "uint16",
              "name": "competingTxInputIndex",
              "type": "uint16"
            },
            {
              "internalType": "uint256",
              "name": "competingTxPos",
              "type": "uint256"
            },
            {
              "internalType": "bytes",
              "name": "competingTxInclusionProof",
              "type": "bytes"
            },
            {
              "internalType": "bytes",
              "name": "competingTxWitness",
              "type": "bytes"
            }
          ],
          "internalType": "struct PaymentInFlightExitRouterArgs.ChallengeCanonicityArgs",
          "name": "args",
          "type": "tuple"
        }
      ],
      "name": "challengeInFlightExitNotCanonical",
      "outputs": [],
      "payable": false,
      "stateMutability": "nonpayable",
      "type": "function"
    },
    {
      "constant": true,
      "inputs": [],
      "name": "startStandardExitBondSize",
      "outputs": [
        {
          "internalType": "uint128",
          "name": "",
          "type": "uint128"
        }
      ],
      "payable": false,
      "stateMutability": "view",
      "type": "function"
    },
    {
      "inputs": [
        {
          "components": [
            {
              "internalType": "contract PlasmaFramework",
              "name": "framework",
              "type": "address"
            },
            {
              "internalType": "uint256",
              "name": "ethVaultId",
              "type": "uint256"
            },
            {
              "internalType": "uint256",
              "name": "erc20VaultId",
              "type": "uint256"
            },
            {
              "internalType": "contract SpendingConditionRegistry",
              "name": "spendingConditionRegistry",
              "type": "address"
            },
            {
              "internalType": "contract IStateTransitionVerifier",
              "name": "stateTransitionVerifier",
              "type": "address"
            },
            {
              "internalType": "uint256",
              "name": "supportTxType",
              "type": "uint256"
            },
            {
              "internalType": "uint256",
              "name": "safeGasStipend",
              "type": "uint256"
            }
          ],
          "internalType": "struct PaymentExitGameArgs.Args",
          "name": "args",
          "type": "tuple"
        }
      ],
      "payable": false,
      "stateMutability": "nonpayable",
      "type": "constructor"
    },
    {
      "anonymous": false,
      "inputs": [
        {
          "indexed": false,
          "internalType": "uint128",
          "name": "bondSize",
          "type": "uint128"
        }
      ],
      "name": "IFEBondUpdated",
      "type": "event"
    },
    {
      "anonymous": false,
      "inputs": [
        {
          "indexed": false,
          "internalType": "uint128",
          "name": "bondSize",
          "type": "uint128"
        }
      ],
      "name": "PiggybackBondUpdated",
      "type": "event"
    },
    {
      "anonymous": false,
      "inputs": [
        {
          "indexed": true,
          "internalType": "address",
          "name": "initiator",
          "type": "address"
        },
        {
          "indexed": true,
          "internalType": "bytes32",
          "name": "txHash",
          "type": "bytes32"
        }
      ],
      "name": "InFlightExitStarted",
      "type": "event"
    },
    {
      "anonymous": false,
      "inputs": [
        {
          "indexed": true,
          "internalType": "address",
          "name": "exitTarget",
          "type": "address"
        },
        {
          "indexed": true,
          "internalType": "bytes32",
          "name": "txHash",
          "type": "bytes32"
        },
        {
          "indexed": false,
          "internalType": "uint16",
          "name": "inputIndex",
          "type": "uint16"
        }
      ],
      "name": "InFlightExitInputPiggybacked",
      "type": "event"
    },
    {
      "anonymous": false,
      "inputs": [
        {
          "indexed": true,
          "internalType": "uint160",
          "name": "exitId",
          "type": "uint160"
        },
        {
          "indexed": false,
          "internalType": "address",
          "name": "token",
          "type": "address"
        }
      ],
      "name": "InFlightExitOmitted",
      "type": "event"
    },
    {
      "anonymous": false,
      "inputs": [
        {
          "indexed": true,
          "internalType": "address",
          "name": "receiver",
          "type": "address"
        },
        {
          "indexed": false,
          "internalType": "uint256",
          "name": "amount",
          "type": "uint256"
        }
      ],
      "name": "InFlightBondReturnFailed",
      "type": "event"
    },
    {
      "anonymous": false,
      "inputs": [
        {
          "indexed": true,
          "internalType": "uint160",
          "name": "exitId",
          "type": "uint160"
        },
        {
          "indexed": false,
          "internalType": "uint16",
          "name": "outputIndex",
          "type": "uint16"
        }
      ],
      "name": "InFlightExitOutputWithdrawn",
      "type": "event"
    },
    {
      "anonymous": false,
      "inputs": [
        {
          "indexed": true,
          "internalType": "uint160",
          "name": "exitId",
          "type": "uint160"
        },
        {
          "indexed": false,
          "internalType": "uint16",
          "name": "inputIndex",
          "type": "uint16"
        }
      ],
      "name": "InFlightExitInputWithdrawn",
      "type": "event"
    },
    {
      "anonymous": false,
      "inputs": [
        {
          "indexed": true,
          "internalType": "address",
          "name": "exitTarget",
          "type": "address"
        },
        {
          "indexed": true,
          "internalType": "bytes32",
          "name": "txHash",
          "type": "bytes32"
        },
        {
          "indexed": false,
          "internalType": "uint16",
          "name": "outputIndex",
          "type": "uint16"
        }
      ],
      "name": "InFlightExitOutputPiggybacked",
      "type": "event"
    },
    {
      "anonymous": false,
      "inputs": [
        {
          "indexed": true,
          "internalType": "address",
          "name": "challenger",
          "type": "address"
        },
        {
          "indexed": true,
          "internalType": "bytes32",
          "name": "txHash",
          "type": "bytes32"
        },
        {
          "indexed": false,
          "internalType": "uint256",
          "name": "challengeTxPosition",
          "type": "uint256"
        }
      ],
      "name": "InFlightExitChallenged",
      "type": "event"
    },
    {
      "anonymous": false,
      "inputs": [
        {
          "indexed": true,
          "internalType": "address",
          "name": "challenger",
          "type": "address"
        },
        {
          "indexed": true,
          "internalType": "bytes32",
          "name": "txHash",
          "type": "bytes32"
        },
        {
          "indexed": false,
          "internalType": "uint256",
          "name": "challengeTxPosition",
          "type": "uint256"
        }
      ],
      "name": "InFlightExitChallengeResponded",
      "type": "event"
    },
    {
      "anonymous": false,
      "inputs": [
        {
          "indexed": true,
          "internalType": "address",
          "name": "challenger",
          "type": "address"
        },
        {
          "indexed": true,
          "internalType": "bytes32",
          "name": "txHash",
          "type": "bytes32"
        },
        {
          "indexed": false,
          "internalType": "uint16",
          "name": "inputIndex",
          "type": "uint16"
        }
      ],
      "name": "InFlightExitInputBlocked",
      "type": "event"
    },
    {
      "anonymous": false,
      "inputs": [
        {
          "indexed": true,
          "internalType": "address",
          "name": "challenger",
          "type": "address"
        },
        {
          "indexed": true,
          "internalType": "bytes32",
          "name": "txHash",
          "type": "bytes32"
        },
        {
          "indexed": false,
          "internalType": "uint16",
          "name": "outputIndex",
          "type": "uint16"
        }
      ],
      "name": "InFlightExitOutputBlocked",
      "type": "event"
    },
    {
      "anonymous": false,
      "inputs": [
        {
          "indexed": true,
          "internalType": "uint160",
          "name": "exitId",
          "type": "uint160"
        }
      ],
      "name": "InFlightExitDeleted",
      "type": "event"
    },
    {
      "anonymous": false,
      "inputs": [
        {
          "indexed": false,
          "internalType": "uint128",
          "name": "bondSize",
          "type": "uint128"
        }
      ],
      "name": "StandardExitBondUpdated",
      "type": "event"
    },
    {
      "anonymous": false,
      "inputs": [
        {
          "indexed": true,
          "internalType": "address",
          "name": "owner",
          "type": "address"
        },
        {
          "indexed": false,
          "internalType": "uint160",
          "name": "exitId",
          "type": "uint160"
        }
      ],
      "name": "ExitStarted",
      "type": "event"
    },
    {
      "anonymous": false,
      "inputs": [
        {
          "indexed": true,
          "internalType": "uint256",
          "name": "utxoPos",
          "type": "uint256"
        }
      ],
      "name": "ExitChallenged",
      "type": "event"
    },
    {
      "anonymous": false,
      "inputs": [
        {
          "indexed": true,
          "internalType": "uint160",
          "name": "exitId",
          "type": "uint160"
        }
      ],
      "name": "ExitOmitted",
      "type": "event"
    },
    {
      "anonymous": false,
      "inputs": [
        {
          "indexed": true,
          "internalType": "uint160",
          "name": "exitId",
          "type": "uint160"
        }
      ],
      "name": "ExitFinalized",
      "type": "event"
    },
    {
      "anonymous": false,
      "inputs": [
        {
          "indexed": true,
          "internalType": "address",
          "name": "receiver",
          "type": "address"
        },
        {
          "indexed": false,
          "internalType": "uint256",
          "name": "amount",
          "type": "uint256"
        }
      ],
      "name": "BondReturnFailed",
      "type": "event"
    },
    {
      "constant": false,
      "inputs": [
        {
          "internalType": "uint160",
          "name": "exitId",
          "type": "uint160"
        },
        {
          "internalType": "uint256",
          "name": "",
          "type": "uint256"
        },
        {
          "internalType": "address",
          "name": "token",
          "type": "address"
        }
      ],
      "name": "processExit",
      "outputs": [],
      "payable": false,
      "stateMutability": "nonpayable",
      "type": "function"
    },
    {
      "constant": true,
      "inputs": [
        {
          "internalType": "bool",
          "name": "_isDeposit",
          "type": "bool"
        },
        {
          "internalType": "bytes",
          "name": "_txBytes",
          "type": "bytes"
        },
        {
          "internalType": "uint256",
          "name": "_utxoPos",
          "type": "uint256"
        }
      ],
      "name": "getStandardExitId",
      "outputs": [
        {
          "internalType": "uint160",
          "name": "",
          "type": "uint160"
        }
      ],
      "payable": false,
      "stateMutability": "pure",
      "type": "function"
    },
    {
      "constant": true,
      "inputs": [
        {
          "internalType": "bytes",
          "name": "_txBytes",
          "type": "bytes"
        }
      ],
      "name": "getInFlightExitId",
      "outputs": [
        {
          "internalType": "uint160",
          "name": "",
          "type": "uint160"
        }
      ],
      "payable": false,
      "stateMutability": "pure",
      "type": "function"
    }
  ],
  "bytecode": "0x60806040523480156200001157600080fd5b5060405162004f3238038062004f328339810160408190526200003491620012a2565b8051601080546001600160a01b0319166001600160a01b03909216918217905560208201516040517f8c64ea4a00000000000000000000000000000000000000000000000000000000815283928392600092638c64ea4a916200009a9160040162001589565b60206040518083038186803b158015620000b357600080fd5b505afa158015620000c8573d6000803e3d6000fd5b505050506040513d601f19601f82011682018060405250620000ee919081019062001279565b90506001600160a01b0381166200013c576040517f08c379a0000000000000000000000000000000000000000000000000000000008152600401620001339062001553565b60405180910390fd5b815160408084015190517f8c64ea4a0000000000000000000000000000000000000000000000000000000081526000926001600160a01b031691638c64ea4a916200018b919060040162001589565b60206040518083038186803b158015620001a457600080fd5b505afa158015620001b9573d6000803e3d6000fd5b505050506040513d601f19601f82011682018060405250620001df919081019062001279565b90506001600160a01b03811662000224576040517f08c379a0000000000000000000000000000000000000000000000000000000008152600401620001339062001565565b8251602084015160408086015160a087015191517f07a97aa900000000000000000000000000000000000000000000000000000000815273__PaymentStartStandardExit______________946307a97aa9946200028c94309492939192916004016200145b565b60c06040518083038186803b158015620002a557600080fd5b505af4158015620002ba573d6000803e3d6000fd5b505050506040513d601f19601f82011682018060405250620002e0919081019062001326565b8051600180546001600160a01b039283166001600160a01b031991821617909155602083015160028054919093169116179055604080820151516003556060808301516004908155608084015160055560a09093015160065585519086015160c087015192517f159cde2d00000000000000000000000000000000000000000000000000000000815273__PaymentChallengeStandardExit__________9463159cde2d946200039594939290910162001525565b60606040518083038186803b158015620003ae57600080fd5b505af4158015620003c3573d6000803e3d6000fd5b505050506040513d601f19601f82011682018060405250620003e99190810190620012c3565b8051600b80546001600160a01b03199081166001600160a01b0393841617909155602080840151600c80548416918516919091179055604093840151600d5583516080810185528751841680825287851682840181905294871695820186905260c089015160609092018290526007805485169091179055600880548416909417909355600980549092169093179055600a556200049e906631bced02db000090600290819062000eed811b6200387417901c565b8051600e80546020808501516001600160801b03199283166001600160801b03958616178516700100000000000000000000000000000000918616820217909355604080860151600f805460608901516080909901519516919096161761ffff60801b191661ffff9687169094029390931761ffff60901b191672010000000000000000000000000000000000009590921694909402179091558551603080546001600160a01b0319166001600160a01b0390921691821790559186015190517f8c64ea4a00000000000000000000000000000000000000000000000000000000815260009550919350638c64ea4a92506200059d9160040162001589565b60206040518083038186803b158015620005b657600080fd5b505afa158015620005cb573d6000803e3d6000fd5b505050506040513d601f19601f82011682018060405250620005f1919081019062001279565b90506001600160a01b03811662000636576040517f08c379a0000000000000000000000000000000000000000000000000000000008152600401620001339062001553565b815160408084015190517f8c64ea4a0000000000000000000000000000000000000000000000000000000081526000926001600160a01b031691638c64ea4a9162000685919060040162001589565b60206040518083038186803b1580156200069e57600080fd5b505afa158015620006b3573d6000803e3d6000fd5b505050506040513d601f19601f82011682018060405250620006d9919081019062001279565b90506001600160a01b0381166200071e576040517f08c379a0000000000000000000000000000000000000000000000000000000008152600401620001339062001565565b82516060840151608085015160a08601516040517f91ac978000000000000000000000000000000000000000000000000000000000815273__PaymentStartInFlightExit______________946391ac978094620007839491939092600401620014f7565b60a06040518083038186803b1580156200079c57600080fd5b505af4158015620007b1573d6000803e3d6000fd5b505050506040513d601f19601f82011682018060405250620007d7919081019062001305565b8051601280546001600160a01b03199081166001600160a01b0393841617909155602080840151516013556040808501516014805485169186169190911790556060850151601580549094169416939093179091556080909201516016558451918501518582015191517f32e6d86900000000000000000000000000000000000000000000000000000000815273__PaymentPiggybackInFlightExit__________936332e6d869936200089493919230929190600401620014b1565b60c06040518083038186803b158015620008ad57600080fd5b505af4158015620008c2573d6000803e3d6000fd5b505050506040513d601f19601f82011682018060405250620008e89190810190620012e4565b8051601780546001600160a01b03199081166001600160a01b0393841617909155602083015151601855604080840151601980549093169316929092179055606080830151601a556080830151601b5560a092830151601c558551908601519286015191517f159cde2d00000000000000000000000000000000000000000000000000000000815273__PaymentChallengeIFENotCanonical_______9363159cde2d936200099b939260040162001525565b60606040518083038186803b158015620009b457600080fd5b505af4158015620009c9573d6000803e3d6000fd5b505050506040513d601f19601f82011682018060405250620009ef9190810190620012c3565b8051601d80546001600160a01b039283166001600160a01b0319918216179091556020830151601e8054919093169116179055604090810151601f558351606085015160c086015192517f159cde2d00000000000000000000000000000000000000000000000000000000815273__PaymentChallengeIFEInputSpent_________9363159cde2d9362000a8b93909290919060040162001525565b60606040518083038186803b15801562000aa457600080fd5b505af415801562000ab9573d6000803e3d6000fd5b505050506040513d601f19601f8201168201806040525062000adf9190810190620012c3565b8051602080546001600160a01b03199081166001600160a01b03938416178255818401516021805483169185169190911790556040938401516022558351606080820186528851851680835290890151851682850181905260c08a01519287018390526023805485169092179091556024805490931617909155602555825180840180855287517fd4a2b4ef00000000000000000000000000000000000000000000000000000000909152935190938493169163d4a2b4ef916044808601929190818703018186803b15801562000bb557600080fd5b505afa15801562000bca573d6000803e3d6000fd5b505050506040513d601f19601f8201168201806040525062000bf0919081019062001347565b815260c0850180516020928301528251602655918101516027556040805160808101825286516001600160a01b0390811680835287821683860181905291871693830184905294516060909201829052602880546001600160a01b031990811690961790556029805486169091179055602a8054909416909117909255602b9190915562000c95906683734dd0b080009060029081906200387462000eed821b17901c565b8051602c80546020808501516001600160801b03199283166001600160801b039586161785167001000000000000000000000000000000009186168202179093556040850151602d805460608801516080909801519416919095161761ffff60801b191661ffff9586169093029290921761ffff60901b19167201000000000000000000000000000000000000949091169390930292909217905562000d5290666379da05b6000090600290819062000eed811b6200387417901c565b8051602e80546020808501516001600160801b03199283166001600160801b03958616178516700100000000000000000000000000000000918616820217909355604080860151602f80546060808a01516080909a015191909616929097169190911761ffff60801b191661ffff9788169095029490941761ffff60901b191672010000000000000000000000000000000000009690951695909502939093179091558651603180546001600160a01b0319166001600160a01b039283161790559087015183517f8da5cb5b00000000000000000000000000000000000000000000000000000000815293516000975091169450638da5cb5b9350600480840193829003018186803b15801562000e6857600080fd5b505afa15801562000e7d573d6000803e3d6000fd5b505050506040513d601f19601f8201168201806040525062000ea3919081019062001279565b6001600160a01b03161462000ee6576040517f08c379a0000000000000000000000000000000000000000000000000000000008152600401620001339062001577565b5062001622565b62000ef762000f38565b506040805160a0810182526001600160801b03949094168452600060208501526780000000000000009084015261ffff918216606084015216608082015290565b6040805160a08101825260008082526020820181905291810182905260608101829052608081019190915290565b805162000f7381620015f2565b92915050565b805162000f73816200160c565b600060e0828403121562000f9957600080fd5b62000fa560e062001599565b9050600062000fb5848462000f79565b825250602062000fc8848483016200126c565b602083015250604062000fde848285016200126c565b604083015250606062000ff48482850162000f79565b60608301525060806200100a8482850162000f79565b60808301525060a062001020848285016200126c565b60a08301525060c062001036848285016200126c565b60c08301525092915050565b6000602082840312156200105557600080fd5b62001061602062001599565b905060006200107184846200126c565b82525092915050565b6000606082840312156200108d57600080fd5b62001099606062001599565b90506000620010a9848462000f79565b8252506020620010bc8484830162000f79565b6020830152506040620010d2848285016200126c565b60408301525092915050565b600060c08284031215620010f157600080fd5b620010fd60c062001599565b905060006200110d848462000f79565b8252506020620011208484830162001042565b6020830152506040620011368482850162000f79565b60408301525060606200114c848285016200126c565b606083015250608062001162848285016200126c565b60808301525060a062001178848285016200126c565b60a08301525092915050565b600060a082840312156200119757600080fd5b620011a360a062001599565b90506000620011b3848462000f79565b8252506020620011c68484830162001042565b6020830152506040620011dc8482850162000f79565b6040830152506060620011f28482850162000f79565b606083015250608062001208848285016200126c565b60808301525092915050565b600060c082840312156200122757600080fd5b6200123360c062001599565b9050600062001243848462000f79565b8252506020620012568484830162000f79565b6020830152506040620011368482850162001042565b805162000f738162001617565b6000602082840312156200128c57600080fd5b60006200129a848462000f66565b949350505050565b600060e08284031215620012b557600080fd5b60006200129a848462000f86565b600060608284031215620012d657600080fd5b60006200129a84846200107a565b600060c08284031215620012f757600080fd5b60006200129a8484620010de565b600060a082840312156200131857600080fd5b60006200129a848462001184565b600060c082840312156200133957600080fd5b60006200129a848462001214565b6000602082840312156200135a57600080fd5b60006200129a84846200126c565b6200137381620015d6565b82525050565b600062001388601183620015c0565b7f496e76616c696420455448207661756c74000000000000000000000000000000815260200192915050565b6000620013c3601383620015c0565b7f496e76616c6964204552433230207661756c7400000000000000000000000000815260200192915050565b6000620013fe603b83620015c0565b7f5370656e64696e6720636f6e646974696f6e207265676973747279206f776e6581527f7273686970206e6565647320746f2062652072656e6f756e6365640000000000602082015260400192915050565b6200137381620015ef565b60a081016200146b828862001368565b6200147a602083018762001368565b62001489604083018662001450565b62001498606083018562001450565b620014a7608083018462001450565b9695505050505050565b60808101620014c1828762001368565b620014d0602083018662001368565b620014df604083018562001450565b620014ee606083018462001450565b95945050505050565b6080810162001507828762001368565b62001516602083018662001368565b620014df604083018562001368565b6060810162001535828662001368565b62001544602083018562001368565b6200129a604083018462001450565b6020808252810162000f738162001379565b6020808252810162000f7381620013b4565b6020808252810162000f7381620013ef565b6020810162000f73828462001450565b6040518181016001600160401b0381118282101715620015b857600080fd5b604052919050565b90815260200190565b600062000f7382620015e3565b600062000f7382620015c9565b6001600160a01b031690565b90565b620015fd81620015c9565b81146200160957600080fd5b50565b620015fd81620015d6565b620015fd81620015ef565b61390080620016326000396000f3fe6080604052600436106101815760003560e01c8063a0e403b1116100d1578063c170ecf51161008a578063df2933e211610064578063df2933e214610409578063e5bc60c714610429578063e83622981461043c578063fe32a1241461045c57610181565b8063c170ecf5146103b2578063c96e7c05146103c7578063cec9e1a7146103dc57610181565b8063a0e403b1146102fd578063a4a254411461031f578063b177ba2314610332578063b22d3e1414610352578063b3c2ec7614610372578063b9a3a28e1461039257610181565b80635a5285141161013e5780637702fa17116101185780637702fa17146102a65780637e2b2efe146102bb578063839c78f9146102d0578063905d6a99146102fd57610181565b80635a52851414610260578063684963511461027357806370e014621461029357610181565b80630ca5b67614610186578063163d7bc7146101bc5780632c3bad95146101de578063315fb7da146101fe57806336660de41461021e5780633f1214cf1461023e575b600080fd5b34801561019257600080fd5b506101a66101a136600461253c565b610471565b6040516101b39190613451565b60405180910390f35b3480156101c857600080fd5b506101dc6101d73660046127f1565b610576565b005b3480156101ea57600080fd5b506101dc6101f93660046126ed565b610679565b34801561020a57600080fd5b506101dc6102193660046127f1565b6107cd565b34801561022a57600080fd5b506101dc610239366004612615565b6108bb565b34801561024a57600080fd5b50610253610a15565b6040516101b391906136f5565b6101dc61026e366004612789565b610a7a565b34801561027f57600080fd5b506101dc61028e36600461282d565b610bfe565b6101dc6102a13660046127bd565b610c56565b3480156102b257600080fd5b50610253610d78565b3480156102c757600080fd5b50610253610dd8565b3480156102dc57600080fd5b506102f06102eb3660046125e1565b610de3565b6040516101b39190613703565b34801561030957600080fd5b50610312610df6565b6040516101b39190613711565b6101dc61032d366004612755565b610dfb565b34801561033e57600080fd5b506101dc61034d3660046127f1565b610f19565b34801561035e57600080fd5b506102f061036d36600461257d565b611007565b34801561037e57600080fd5b506101dc61038d36600461280f565b611032565b34801561039e57600080fd5b506101dc6103ad3660046126b9565b6110eb565b3480156103be57600080fd5b506102536111b8565b3480156103d357600080fd5b506102536111c3565b3480156103e857600080fd5b506103fc6103f736600461253c565b6111ce565b6040516101b39190613440565b34801561041557600080fd5b506101dc610424366004612721565b6113f7565b6101dc610437366004612755565b6114c4565b34801561044857600080fd5b506101dc610457366004612685565b6115e2565b34801561046857600080fd5b506102536116af565b606080838390506040519080825280602002602001820160405280156104b157816020015b61049e611c20565b8152602001906001900390816104965790505b50905060005b8381101561056c5760008585838181106104cd57fe5b90506020020160206104e2919081019061280f565b6001600160a01b0380821660009081526020818152604091829020825160c081018452815460ff161515815260018201549281019290925260028101549282019290925260038201549092166060830152600481015460808301526005015460a082015284519192509084908490811061055857fe5b6020908102919091010152506001016104b7565b5090505b92915050565b601060009054906101000a90046001600160a01b03166001600160a01b0316634b0a72bc6040518163ffffffff1660e01b815260040160206040518083038186803b1580156105c457600080fd5b505afa1580156105d8573d6000803e3d6000fd5b505050506040513d601f19601f820116820180604052506105fc919081019061251e565b336001600160a01b0382161461062d5760405162461bcd60e51b8152600401610624906134d2565b60405180910390fd5b61063e600e8363ffffffff61170f16565b7fd21ccbbae3d29826d53310efdc993c64e27496dd31694b292f1a120344ec37ab8260405161066d91906136f5565b60405180910390a15050565b603060009054906101000a90046001600160a01b0316806001600160a01b031663ff27b1896040518163ffffffff1660e01b8152600401600060405180830381600087803b1580156106ca57600080fd5b505af11580156106de573d6000803e3d6000fd5b5050604080516060810182526023546001600160a01b0390811682526024541660208201526025548183015290516359cff02160e01b815273__PaymentChallengeIFEOutputSpent________93506359cff0219250610746919060119087906004016135b5565b60006040518083038186803b15801561075e57600080fd5b505af4158015610772573d6000803e3d6000fd5b50505050806001600160a01b0316634e0f74366040518163ffffffff1660e01b8152600401600060405180830381600087803b1580156107b157600080fd5b505af11580156107c5573d6000803e3d6000fd5b505050505050565b603060009054906101000a90046001600160a01b03166001600160a01b0316634b0a72bc6040518163ffffffff1660e01b815260040160206040518083038186803b15801561081b57600080fd5b505afa15801561082f573d6000803e3d6000fd5b505050506040513d601f19601f82011682018060405250610853919081019061251e565b336001600160a01b0382161461087b5760405162461bcd60e51b8152600401610624906134d2565b61088c602e8363ffffffff61170f16565b7f30ce291291dca42b8168ab211fafc36d3d4868292ed3259874ed00864432e20e8260405161066d91906136f5565b603060009054906101000a90046001600160a01b0316806001600160a01b031663ff27b1896040518163ffffffff1660e01b8152600401600060405180830381600087803b15801561090c57600080fd5b505af1158015610920573d6000803e3d6000fd5b505060408051606081018252601d546001600160a01b039081168252601e54166020820152601f54818301529051630c27711f60e11b815273__PaymentChallengeIFENotCanonical_______935063184ee23e925061098c919060119089908990899060040161352f565b60006040518083038186803b1580156109a457600080fd5b505af41580156109b8573d6000803e3d6000fd5b50505050806001600160a01b0316634e0f74366040518163ffffffff1660e01b8152600401600060405180830381600087803b1580156109f757600080fd5b505af1158015610a0b573d6000803e3d6000fd5b5050505050505050565b6040805160a081018252602e546001600160801b038082168352600160801b9182900481166020840152602f549081169383019390935261ffff90830481166060830152600160901b9092049091166080820152600090610a75906117fd565b905090565b603060009054906101000a90046001600160a01b0316806001600160a01b031663ff27b1896040518163ffffffff1660e01b8152600401600060405180830381600087803b158015610acb57600080fd5b505af1158015610adf573d6000803e3d6000fd5b50505050610aeb610d78565b6001600160801b0316803414610b135760405162461bcd60e51b815260040161062490613482565b6040805160a0810182526012546001600160a01b039081168252825160208181018552601354825283015260145481168284015260155416606082015260165460808201529051631ff4513b60e01b815273__PaymentStartInFlightExit______________91631ff4513b91610b929190601190889060040161369a565b60006040518083038186803b158015610baa57600080fd5b505af4158015610bbe573d6000803e3d6000fd5b5050505050806001600160a01b0316634e0f74366040518163ffffffff1660e01b8152600401600060405180830381600087803b1580156107b157600080fd5b6031546001600160a01b0316338114610c295760405162461bcd60e51b8152600401610624906134d2565b610c3284611827565b15610c4657610c41848361184d565b610c50565b610c5084836118e9565b50505050565b601060009054906101000a90046001600160a01b0316806001600160a01b031663ff27b1896040518163ffffffff1660e01b8152600401600060405180830381600087803b158015610ca757600080fd5b505af1158015610cbb573d6000803e3d6000fd5b50505050610cc76116af565b6001600160801b0316803414610cef5760405162461bcd60e51b815260040161062490613482565b6040805160c0810182526001546001600160a01b0390811682526002541660208083019190915282519081018352600354815281830152600480546060830152600554608083015260065460a083015291516332c812a760e11b815273__PaymentStartStandardExit______________92636590254e92610b929290916000918991016136c7565b6040805160a081018252602c546001600160801b038082168352600160801b9182900481166020840152602d549081169383019390935261ffff90830481166060830152600160901b9092049091166080820152600090610a75906117fd565b666379da05b6000081565b6000610dee82611959565b90505b919050565b600281565b603060009054906101000a90046001600160a01b0316806001600160a01b031663ff27b1896040518163ffffffff1660e01b8152600401600060405180830381600087803b158015610e4c57600080fd5b505af1158015610e60573d6000803e3d6000fd5b50505050610e6c610a15565b6001600160801b0316803414610e945760405162461bcd60e51b815260040161062490613482565b6040805160c0810182526017546001600160a01b03908116825282516020818101855260185482528301526019541681830152601a546060820152601b546080820152601c5460a0820152905163082153e960e21b815273__PaymentPiggybackInFlightExit__________916320854fa491610b9291906011908890600401613637565b603060009054906101000a90046001600160a01b03166001600160a01b0316634b0a72bc6040518163ffffffff1660e01b815260040160206040518083038186803b158015610f6757600080fd5b505afa158015610f7b573d6000803e3d6000fd5b505050506040513d601f19601f82011682018060405250610f9f919081019061251e565b336001600160a01b03821614610fc75760405162461bcd60e51b8152600401610624906134d2565b610fd8602c8363ffffffff61170f16565b7f63ccac61f03626a0e717e96da239ff8996745b6c4ddcaffdedc88d7ef938f5ec8260405161066d91906136f5565b6000611011611c55565b61101a83611977565b9050611027858583611a0a565b9150505b9392505050565b603060009054906101000a90046001600160a01b0316806001600160a01b031663ff27b1896040518163ffffffff1660e01b8152600401600060405180830381600087803b15801561108357600080fd5b505af1158015611097573d6000803e3d6000fd5b505060408051808201825260265481526027546020820152905163b1cf0fed60e01b815273__PaymentDeleteInFlightExit_____________935063b1cf0fed92506107469190601190879060040161360f565b603060009054906101000a90046001600160a01b0316806001600160a01b031663ff27b1896040518163ffffffff1660e01b8152600401600060405180830381600087803b15801561113c57600080fd5b505af1158015611150573d6000803e3d6000fd5b505060408051606081018252602080546001600160a01b0390811683526021541690820152602254818301529051634bb4a4df60e11b815273__PaymentChallengeIFEInputSpent_________935063976949be925061074691906011908790600401613502565b6631bced02db000081565b6683734dd0b0800081565b6060808383905060405190808252806020026020018201604052801561120e57816020015b6111fb611c75565b8152602001906001900390816111f35790505b50905060005b8381101561056c57600085858381811061122a57fe5b905060200201602061123f919081019061280f565b6001600160a01b0381166000908152601160209081526040808320815161012081018352815460ff81161515825261010090046001600160401b03169381019390935260018101548383015260028101546060840152815160808082019093529495509193919290840191906003840190600490835b8282101561131c576040805160a081018252600584028601805482526001808201546001600160a01b0390811660208086019190915260028401549091169484019490945260038201546060840152600490910154608083015290835290920191016112b5565b5050509082525060408051608081019091526020909101906017830160046000835b828210156113a5576040805160a081018252600584028601805482526001808201546001600160a01b03908116602080860191909152600284015490911694840194909452600382015460608401526004909101546080830152908352909201910161133e565b50505090825250602b8201546001600160a01b03166020820152602c8201546040820152602d9091015460609091015283518490849081106113e357fe5b602090810291909101015250600101611214565b601060009054906101000a90046001600160a01b0316806001600160a01b031663ff27b1896040518163ffffffff1660e01b8152600401600060405180830381600087803b15801561144857600080fd5b505af115801561145c573d6000803e3d6000fd5b505060408051606081018252600b546001600160a01b039081168252600c54166020820152600d5481830152905163edc91d4b60e01b815273__PaymentChallengeStandardExit__________935063edc91d4b9250610746919060009087906004016135e2565b603060009054906101000a90046001600160a01b0316806001600160a01b031663ff27b1896040518163ffffffff1660e01b8152600401600060405180830381600087803b15801561151557600080fd5b505af1158015611529573d6000803e3d6000fd5b50505050611535610a15565b6001600160801b031680341461155d5760405162461bcd60e51b815260040161062490613482565b6040805160c0810182526017546001600160a01b03908116825282516020818101855260185482528301526019541681830152601a546060820152601b546080820152601c5460a08201529051631845801f60e11b815273__PaymentPiggybackInFlightExit__________9163308b003e91610b9291906011908890600401613637565b603060009054906101000a90046001600160a01b0316806001600160a01b031663ff27b1896040518163ffffffff1660e01b8152600401600060405180830381600087803b15801561163357600080fd5b505af1158015611647573d6000803e3d6000fd5b505060408051606081018252601d546001600160a01b039081168252601e54166020820152601f54818301529051631287d7e160e31b815273__PaymentChallengeIFENotCanonical_______935063943ebf08925061074691906011908790600401613588565b6040805160a081018252600e546001600160801b038082168352600160801b9182900481166020840152600f549081169383019390935261ffff90830481166060830152600160901b9092049091166080820152600090610a75906117fd565b6040805160a08101825283546001600160801b038082168352600160801b918290048116602084015260018601549081169383019390935261ffff90830481166060830152600160901b909204909116608082015261176e9082611a7a565b8154600160801b90046001600160801b03161580159061179b575060018201546001600160801b03164210155b156117c2578154600160801b81046001600160801b03166001600160801b03199091161782555b81546001600160801b03918216600160801b02911617815560010180546001600160801b0319166001600160401b03426202a3000116179055565b600081604001516001600160801b031642101561181c57508051610df1565b506020810151610df1565b60006118436001600160a01b038316609763ffffffff611b3d16565b60ff161592915050565b604080516080810182526007546001600160a01b039081168252600854811660208301526009541681830152600a54606082015290516373c97b6d60e11b815273__PaymentProcessStandardExit____________9163e792f6da916118bd919060009087908790600401613665565b60006040518083038186803b1580156118d557600080fd5b505af41580156107c5573d6000803e3d6000fd5b604080516080810182526028546001600160a01b03908116825260295481166020830152602a541681830152602b5460608201529051632309cb3d60e01b815273__PaymentProcessInFlightExit____________91632309cb3d916118bd919060119087908790600401613665565b80516020820120600090610dee9060691c609763ffffffff611b4716565b61197f611c55565b633b9aca00808304906127109084068190049084066429f16b11c68311156119b95760405162461bcd60e51b815260040161062490613462565b61ffff8211156119db5760405162461bcd60e51b815260040161062490613472565b604080516060810182526001600160401b03909416845261ffff92831660208501529116908201529050919050565b60008315611a5d57600083611a1e84611b54565b604051602001611a2f92919061341e565b604051602081830303815290604052805190602001209050611a55818460400151611be3565b91505061102b565b611a7283805190602001208360400151611be3565b949350505050565b6000611a85836117fd565b90506000826001600160801b031611611ab05760405162461bcd60e51b8152600401610624906134b2565b826060015161ffff16816001600160801b031681611aca57fe5b046001600160801b0316826001600160801b03161015611afc5760405162461bcd60e51b8152600401610624906134c2565b826080015161ffff16816001600160801b031602826001600160801b03161115611b385760405162461bcd60e51b815260040161062490613492565b505050565b60ff161c60011690565b600160ff919091161b1790565b6000600161271003826040015161ffff161115611b835760405162461bcd60e51b8152600401610624906134a2565b81516429f16b11c66001600160401b039091161115611bb45760405162461bcd60e51b8152600401610624906134e2565b506040810151602082015182516001600160401b0316633b9aca000261ffff9182166127100201911601919050565b6000606983901c61ffff60981b609884901b1617806001600160a01b0381168114611a725760405162461bcd60e51b8152600401610624906134f2565b6040805160c081018252600080825260208201819052918101829052606081018290526080810182905260a081019190915290565b604080516060810182526000808252602082018190529181019190915290565b60405180610120016040528060001515815260200160006001600160401b031681526020016000815260200160008152602001611cb0611ce1565b8152602001611cbd611ce1565b815260200160006001600160a01b0316815260200160008152602001600081525090565b60405180608001604052806004905b611cf8611d0e565b815260200190600190039081611cf05790505090565b6040805160a08101825260008082526020820181905291810182905260608101829052608081019190915290565b803561057081613830565b805161057081613830565b600082601f830112611d6357600080fd5b8135611d76611d7182613745565b61371f565b81815260209384019390925082018360005b83811015611db45781358601611d9e8882611e8c565b8452506020928301929190910190600101611d88565b5050505092915050565b60008083601f840112611dd057600080fd5b5081356001600160401b03811115611de757600080fd5b602083019150836020820283011115611dff57600080fd5b9250929050565b600082601f830112611e1757600080fd5b8135611e25611d7182613745565b91508181835260208401935060208101905083856020840282011115611e4a57600080fd5b60005b83811015611db45781611e608882611e81565b8452506020928301929190910190600101611e4d565b803561057081613847565b803561057081613850565b600082601f830112611e9d57600080fd5b8135611eab611d7182613765565b91508082526020830160208301858383011115611ec757600080fd5b611ed28382846137ee565b50505092915050565b60006101208284031215611eee57600080fd5b611ef961012061371f565b905081356001600160401b03811115611f1157600080fd5b611f1d84828501611e8c565b8252506020611f2e84848301611e81565b60208301525060408201356001600160401b03811115611f4d57600080fd5b611f5984828501611e8c565b6040830152506060611f6d84828501612508565b60608301525060808201356001600160401b03811115611f8c57600080fd5b611f9884828501611e8c565b60808301525060a0611fac84828501612508565b60a08301525060c0611fc084828501611e81565b60c08301525060e08201356001600160401b03811115611fdf57600080fd5b611feb84828501611e8c565b60e0830152506101008201356001600160401b0381111561200b57600080fd5b61201784828501611e8c565b6101008301525092915050565b6000610100828403121561203757600080fd5b61204261010061371f565b905081356001600160401b0381111561205a57600080fd5b61206684828501611e8c565b825250602061207784848301612508565b60208301525060408201356001600160401b0381111561209657600080fd5b6120a284828501611e8c565b60408301525060606120b684828501612508565b60608301525060808201356001600160401b038111156120d557600080fd5b6120e184828501611e8c565b60808301525060a08201356001600160401b0381111561210057600080fd5b61210c84828501611e8c565b60a08301525060c061212084828501611e81565b60c08301525060e061213484828501611e81565b60e08301525092915050565b600060e0828403121561215257600080fd5b61215c60e061371f565b905081356001600160401b0381111561217457600080fd5b61218084828501611e8c565b82525060208201356001600160401b0381111561219c57600080fd5b6121a884828501611e8c565b60208301525060406121bc84828501611e81565b60408301525060608201356001600160401b038111156121db57600080fd5b6121e784828501611e8c565b60608301525060806121fb84828501612508565b60808301525060a08201356001600160401b0381111561221a57600080fd5b61222684828501611e8c565b60a08301525060c061223a84828501611e81565b60c08301525092915050565b600060c0828403121561225857600080fd5b61226260c061371f565b905060006122708484612513565b82525060208201356001600160401b0381111561228c57600080fd5b61229884828501611e8c565b60208301525060408201356001600160401b038111156122b757600080fd5b6122c384828501611e8c565b60408301525060606122d784828501612508565b60608301525060808201356001600160401b038111156122f657600080fd5b61230284828501611e8c565b60808301525060a061231684828501611e81565b60a08301525092915050565b60006040828403121561233457600080fd5b61233e604061371f565b905081356001600160401b0381111561235657600080fd5b61236284828501611e8c565b825250602061237384848301612508565b60208301525092915050565b600060a0828403121561239157600080fd5b61239b60a061371f565b905081356001600160401b038111156123b357600080fd5b6123bf84828501611e8c565b82525060208201356001600160401b038111156123db57600080fd5b6123e784828501611d52565b60208301525060408201356001600160401b0381111561240657600080fd5b61241284828501611e06565b60408301525060608201356001600160401b0381111561243157600080fd5b61243d84828501611d52565b60608301525060808201356001600160401b0381111561245c57600080fd5b61246884828501611d52565b60808301525092915050565b60006060828403121561248657600080fd5b612490606061371f565b9050600061249e8484611e81565b82525060208201356001600160401b038111156124ba57600080fd5b6124c684828501611e8c565b60208301525060408201356001600160401b038111156124e557600080fd5b6124f184828501611e8c565b60408301525092915050565b803561057081613859565b803561057081613862565b80356105708161386b565b60006020828403121561253057600080fd5b6000611a728484611d47565b6000806020838503121561254f57600080fd5b82356001600160401b0381111561256557600080fd5b61257185828601611dbe565b92509250509250929050565b60008060006060848603121561259257600080fd5b600061259e8686611e76565b93505060208401356001600160401b038111156125ba57600080fd5b6125c686828701611e8c565b92505060406125d786828701611e81565b9150509250925092565b6000602082840312156125f357600080fd5b81356001600160401b0381111561260957600080fd5b611a7284828501611e8c565b60008060006060848603121561262a57600080fd5b83356001600160401b0381111561264057600080fd5b61264c86828701611e8c565b935050602061265d86828701611e81565b92505060408401356001600160401b0381111561267957600080fd5b6125d786828701611e8c565b60006020828403121561269757600080fd5b81356001600160401b038111156126ad57600080fd5b611a7284828501611edb565b6000602082840312156126cb57600080fd5b81356001600160401b038111156126e157600080fd5b611a7284828501612024565b6000602082840312156126ff57600080fd5b81356001600160401b0381111561271557600080fd5b611a7284828501612140565b60006020828403121561273357600080fd5b81356001600160401b0381111561274957600080fd5b611a7284828501612246565b60006020828403121561276757600080fd5b81356001600160401b0381111561277d57600080fd5b611a7284828501612322565b60006020828403121561279b57600080fd5b81356001600160401b038111156127b157600080fd5b611a728482850161237f565b6000602082840312156127cf57600080fd5b81356001600160401b038111156127e557600080fd5b611a7284828501612474565b60006020828403121561280357600080fd5b6000611a7284846124fd565b60006020828403121561282157600080fd5b6000611a728484612513565b60008060006060848603121561284257600080fd5b600061284e8686612513565b935050602061285f86828701611e81565b92505060406125d786828701611d3c565b600061102b8383612a9d565b600061288883836131b3565b50506105e00190565b600061289d838361328f565b505060c00190565b60006128b1838361339f565b505060a00190565b60006128c58383612a94565b505060200190565b6128d6816137a8565b82525050565b60006128e782613795565b6128f1818561379f565b9350836020820285016129038561378c565b8060005b8581101561293d57848403895281516129208582612870565b945061292b8361378c565b60209a909a0199925050600101612907565b5091979650505050505050565b600061295582613795565b61295f818561379f565b935061296a8361378c565b8060005b83811015612998578151612982888261287c565b975061298d8361378c565b92505060010161296e565b509495945050505050565b60006129ae82613795565b6129b8818561379f565b93506129c38361378c565b8060005b838110156129985781516129db8882612891565b97506129e68361378c565b9250506001016129c7565b6129fa81613799565b612a048184610df1565b9250612a0f82613792565b8060005b838110156107c5578151612a2787826128a5565b9650612a328361378c565b925050600101612a13565b6000612a4882613795565b612a52818561379f565b9350612a5d8361378c565b8060005b83811015612998578151612a7588826128b9565b9750612a808361378c565b925050600101612a61565b6128d6816137b3565b6128d681613792565b6000612aa882613795565b612ab2818561379f565b9350612ac28185602086016137fa565b612acb81613826565b9093019392505050565b6000612ae082613795565b612aea8185610df1565b9350612afa8185602086016137fa565b9290920192915050565b6128d6816137e3565b6000612b1a60348361379f565b7f626c6f636b4e756d2065786365656473206d61782073697a6520616c6c6f77658152736420696e20506c61736d614672616d65776f726b60601b602082015260400192915050565b6000612b7060228361379f565b7f7478496e6465782065786365656473207468652073697a65206f662075696e74815261189b60f11b602082015260400192915050565b6000612bb460208361379f565b7f496e7075742076616c7565206d757374206d61746368206d73672e76616c7565815260200192915050565b6000612bed60158361379f565b74084dedcc840e6d2f4ca40d2e640e8dede40d0d2ced605b1b815260200192915050565b6000612c1e60148361379f565b73092dcecc2d8d2c840deeae8e0eae840d2dcc8caf60631b815260200192915050565b6000612c4e60188361379f565b7f426f6e642073697a652063616e6e6f74206265207a65726f0000000000000000815260200192915050565b6000612c8760148361379f565b73426f6e642073697a6520697320746f6f206c6f7760601b815260200192915050565b6000612cb7601e8361379f565b7f43616c6c6572206164647265737320697320756e617574686f72697a65640000815260200192915050565b6000612cf060148361379f565b7324b73b30b634b210313637b1b590373ab6b132b960611b815260200192915050565b6000612d2060108361379f565b6f457869744964206f766572666c6f777360801b815260200192915050565b80516020830190610c508482612a94565b805161012080845260009190840190612d698282612a9d565b9150506020830151612d7e6020860182612a94565b5060408301518482036040860152612d968282612a9d565b9150506060830151612dab60608601826133fb565b5060808301518482036080860152612dc38282612a9d565b91505060a0830151612dd860a08601826133fb565b5060c0830151612deb60c0860182612a94565b5060e083015184820360e0860152612e038282612a9d565b915050610100830151848203610100860152612e1f8282612a9d565b95945050505050565b805161010080845260009190840190612e418282612a9d565b9150506020830151612e5660208601826133fb565b5060408301518482036040860152612e6e8282612a9d565b9150506060830151612e8360608601826133fb565b5060808301518482036080860152612e9b8282612a9d565b91505060a083015184820360a0860152612eb58282612a9d565b91505060c0830151612eca60c0860182612a94565b5060e083015161056c60e0860182612a94565b805160e080845260009190840190612ef58282612a9d565b91505060208301518482036020860152612f0f8282612a9d565b9150506040830151612f246040860182612a94565b5060608301518482036060860152612f3c8282612a9d565b9150506080830151612f5160808601826133fb565b5060a083015184820360a0860152612f698282612a9d565b91505060c083015161056c60c0860182612a94565b805160009060c0840190612f9285826133f2565b5060208301518482036020860152612faa8282612a9d565b91505060408301518482036040860152612fc48282612a9d565b9150506060830151612fd960608601826133fb565b5060808301518482036080860152612ff18282612a9d565b91505060a083015161056c60a0860182612a94565b805160608301906130178482612b04565b50602082015161302a6020850182612b04565b506040820151610c506040850182612a94565b8051604083019061304e8482612a94565b506020820151610c506020850182612a94565b805160c08301906130728482612b04565b5060208201516130856020850182612d3f565b5060408201516130986040850182612b04565b5060608201516130ab6060850182612a94565b5060808201516130be6080850182612a94565b5060a0820151610c5060a0850182612a94565b805160808301906130e28482612b04565b5060208201516130f56020850182612b04565b5060408201516131086040850182612b04565b506060820151610c506060850182612a94565b805160a083019061312c8482612b04565b50602082015161313f6020850182612d3f565b5060408201516131526040850182612b04565b5060608201516131656060850182612b04565b506080820151610c506080850182612a94565b805160c08301906131898482612b04565b50602082015161319c6020850182612b04565b5060408201516130986040850182612d3f565b9052565b80516105e08301906131c58482612a8b565b5060208201516131d86020850182613415565b5060408201516131eb6040850182612a94565b5060608201516131fe6060850182612a94565b50608082015161321160808501826129f1565b5060a08201516132256103008501826129f1565b5060c08201516132396105808501826128cd565b5060e082015161324d6105a0850182612a94565b50610100820151610c506105c0850182612a94565b805160408084526000919084019061327a8282612a9d565b915050602083015161056c60208601826133fb565b805160c08301906132a08482612a8b565b5060208201516132b36020850182612a94565b5060408201516132c66040850182612a94565b5060608201516130ab60608501826128cd565b805160a0808452600091908401906132f18282612a9d565b9150506020830151848203602086015261330b82826128dc565b915050604083015184820360408601526133258282612a3d565b9150506060830151848203606086015261333f82826128dc565b91505060808301518482036080860152612e1f82826128dc565b8051600090606084019061336d8582612a94565b50602083015184820360208601526133858282612a9d565b91505060408301518482036040860152612e1f8282612a9d565b805160a08301906133b08482612a94565b5060208201516133c360208501826128cd565b5060408201516133d660408501826128cd565b5060608201516131656060850182612a94565b6128d6816137b8565b6128d6816137cb565b6128d6816137c4565b6128d661341082613792565b613792565b6128d6816137d7565b600061342a8285612ad5565b91506134368284613404565b5060200192915050565b6020808252810161102b818461294a565b6020808252810161102b81846129a3565b60208082528101610dee81612b0d565b60208082528101610dee81612b63565b60208082528101610dee81612ba7565b60208082528101610dee81612be0565b60208082528101610dee81612c11565b60208082528101610dee81612c41565b60208082528101610dee81612c7a565b60208082528101610dee81612caa565b60208082528101610dee81612ce3565b60208082528101610dee81612d13565b60a081016135108286613006565b61351d60608301856131af565b8181036080830152612e1f8184612e28565b60e0810161353d8288613006565b61354a60608301876131af565b818103608083015261355c8186612a9d565b905061356b60a0830185612a94565b81810360c083015261357d8184612a9d565b979650505050505050565b60a081016135968286613006565b6135a360608301856131af565b8181036080830152612e1f8184612d50565b60a081016135c38286613006565b6135d060608301856131af565b8181036080830152612e1f8184612edd565b60a081016135f08286613006565b6135fd60608301856131af565b8181036080830152612e1f8184612f7e565b6080810161361d828661303d565b61362a60408301856131af565b611a7260608301846133f2565b61010081016136468286613061565b61365360c08301856131af565b81810360e0830152612e1f8184613262565b60e0810161367382876130d1565b61368060808301866131af565b61368d60a08301856133f2565b612e1f60c08301846128cd565b60e081016136a8828661311b565b6136b560a08301856131af565b81810360c0830152612e1f81846132d9565b61010081016136d68286613178565b6136e360c08301856131af565b81810360e0830152612e1f8184613359565b6020810161057082846133e9565b6020810161057082846133f2565b6020810161057082846133fb565b6040518181016001600160401b038111828210171561373d57600080fd5b604052919050565b60006001600160401b0382111561375b57600080fd5b5060209081020190565b60006001600160401b0382111561377b57600080fd5b506020601f91909101601f19160190565b60200190565b90565b5190565b50600490565b90815260200190565b6000610dee826137cb565b151590565b6001600160801b031690565b61ffff1690565b6001600160a01b031690565b6001600160401b031690565b6000610dee826137a8565b82818337506000910152565b60005b838110156138155781810151838201526020016137fd565b83811115610c505750506000910152565b601f01601f191690565b613839816137a8565b811461384457600080fd5b50565b613839816137b3565b61383981613792565b613839816137b8565b613839816137c4565b613839816137cb565b61387c611d0e565b506040805160a0810182526001600160801b03949094168452600060208501526780000000000000009084015261ffff91821660608401521660808201529056fea365627a7a72315820122a5477d510a3cc948e3555233d33efad2e6ee5dec5005891613e26b0a815b76c6578706572696d656e74616cf564736f6c634300050b0040",
  "source": "pragma solidity 0.5.11;\npragma experimental ABIEncoderV2;\n\nimport \"./PaymentExitGameArgs.sol\";\nimport \"./routers/PaymentStandardExitRouter.sol\";\nimport \"./routers/PaymentInFlightExitRouter.sol\";\nimport \"../utils/ExitId.sol\";\nimport \"../registries/SpendingConditionRegistry.sol\";\nimport \"../../framework/interfaces/IExitProcessor.sol\";\nimport \"../../framework/PlasmaFramework.sol\";\nimport \"../../utils/OnlyFromAddress.sol\";\n\n/**\n * @notice The exit game contract implementation for Payment Transaction\n */\ncontract PaymentExitGame is IExitProcessor, OnlyFromAddress, PaymentStandardExitRouter, PaymentInFlightExitRouter {\n    PlasmaFramework private plasmaFramework;\n\n    /**\n     * @dev use struct PaymentExitGameArgs to avoid stack too deep compilation error.\n     */\n    constructor(PaymentExitGameArgs.Args memory args)\n        public\n        PaymentStandardExitRouter(args)\n        PaymentInFlightExitRouter(args)\n    {\n        plasmaFramework = args.framework;\n\n        // makes sure that the spending condition has already renounced ownership\n        require(args.spendingConditionRegistry.owner() == address(0), \"Spending condition registry ownership needs to be renounced\");\n    }\n\n    /**\n     * @notice Callback processes exit function for the PlasmaFramework to call\n     * @param exitId The exit ID\n     * @param token Token (ERC20 address or address(0) for ETH) of the exiting output\n     */\n    function processExit(uint160 exitId, uint256, address token) external onlyFrom(address(plasmaFramework)) {\n        if (ExitId.isStandardExit(exitId)) {\n            PaymentStandardExitRouter.processStandardExit(exitId, token);\n        } else {\n            PaymentInFlightExitRouter.processInFlightExit(exitId, token);\n        }\n    }\n\n    /**\n     * @notice Helper function to compute the standard exit ID\n     */\n    function getStandardExitId(bool _isDeposit, bytes memory _txBytes, uint256 _utxoPos)\n        public\n        pure\n        returns (uint160)\n    {\n        PosLib.Position memory utxoPos = PosLib.decode(_utxoPos);\n        return ExitId.getStandardExitId(_isDeposit, _txBytes, utxoPos);\n    }\n\n    /**\n     * @notice Helper function to compute the in-flight exit ID\n     */\n    function getInFlightExitId(bytes memory _txBytes)\n        public\n        pure\n        returns (uint160)\n    {\n        return ExitId.getInFlightExitId(_txBytes);\n    }\n}\n",
  "sourcePath": "/Users/nocholas/plasma-contracts/plasma_framework/contracts/src/exits/payment/PaymentExitGame.sol",
  "compiler": {
    "name": "solc",
    "version": "0.5.11+commit.c082d0b4.Emscripten.clang"
  },
  "schemaVersion": "3.0.16",
  "updatedAt": "2020-02-19T07:32:14.869Z",
  "devdoc": {
    "methods": {
      "challengeInFlightExitInputSpent((bytes,uint16,bytes,uint16,bytes,bytes,uint256,bytes32))": {
        "params": {
          "args": "Argument data to challenge (see also struct 'ChallengeInputSpentArgs')"
        }
      },
      "challengeInFlightExitNotCanonical((bytes,uint256,bytes,uint16,bytes,uint16,uint256,bytes,bytes))": {
        "params": {
          "args": "Input argument data to challenge (see also struct 'ChallengeCanonicityArgs')"
        }
      },
      "challengeInFlightExitOutputSpent((bytes,bytes,uint256,bytes,uint16,bytes,bytes32))": {
        "params": {
          "args": "Argument data to challenge (see also struct 'ChallengeOutputSpent')"
        }
      },
      "constructor": {
        "details": "use struct PaymentExitGameArgs to avoid stack too deep compilation error."
      },
      "deleteNonPiggybackedInFlightExit(uint160)": {
        "details": "Since IFE is enqueued during piggyback, a non-piggybacked IFE means that it will never be processed.     This means that the IFE bond will never be returned.     see: https://github.com/omisego/plasma-contracts/issues/440",
        "params": {
          "exitId": "The exitId of the in-flight exit"
        }
      },
      "inFlightExits(uint160[])": {
        "params": {
          "exitIds": "The exit IDs of the in-flight exits"
        }
      },
      "piggybackInFlightExitOnInput((bytes,uint16))": {
        "params": {
          "args": "Input argument data to piggyback (see also struct 'PiggybackInFlightExitOnInputArgs')"
        }
      },
      "piggybackInFlightExitOnOutput((bytes,uint16))": {
        "params": {
          "args": "Input argument data to piggyback (see also struct 'PiggybackInFlightExitOnOutputArgs')"
        }
      },
      "processExit(uint160,uint256,address)": {
        "params": {
          "exitId": "The exit ID",
          "token": "Token (ERC20 address or address(0) for ETH) of the exiting output"
        }
      },
      "respondToNonCanonicalChallenge(bytes,uint256,bytes)": {
        "params": {
          "inFlightTx": "The RLP-encoded in-flight transaction",
          "inFlightTxInclusionProof": "Proof that the in-flight exiting transaction is included in a Plasma block",
          "inFlightTxPos": "The position of the in-flight exiting transaction. The output index within the position is unused and should be set to 0"
        }
      },
      "standardExits(uint160[])": {
        "params": {
          "exitIds": "Exit IDs of the standard exits"
        }
      },
      "startInFlightExit((bytes,bytes[],uint256[],bytes[],bytes[]))": {
        "params": {
          "args": "Input argument data to challenge (see also struct 'StartExitArgs')"
        }
      },
      "updatePiggybackBondSize(uint128)": {
        "params": {
          "newBondSize": "The new bond size"
        }
      },
      "updateStartIFEBondSize(uint128)": {
        "params": {
          "newBondSize": "The new bond size"
        }
      },
      "updateStartStandardExitBondSize(uint128)": {
        "params": {
          "newBondSize": "The new bond size"
        }
      }
    }
  },
  "userdoc": {
    "methods": {
      "challengeInFlightExitInputSpent((bytes,uint16,bytes,uint16,bytes,bytes,uint256,bytes32))": {
        "notice": "Challenges an exit from in-flight transaction input"
      },
      "challengeInFlightExitNotCanonical((bytes,uint256,bytes,uint16,bytes,uint16,uint256,bytes,bytes))": {
        "notice": "Challenges an in-flight exit to be non-canonical"
      },
      "challengeInFlightExitOutputSpent((bytes,bytes,uint256,bytes,uint16,bytes,bytes32))": {
        "notice": "Challenges an exit from in-flight transaction output"
      },
      "challengeStandardExit((uint160,bytes,bytes,uint16,bytes,bytes32))": {
        "notice": "Challenge a standard exit by showing the exiting output was spent"
      },
      "deleteNonPiggybackedInFlightExit(uint160)": {
        "notice": "Deletes in-flight exit if the first phase has passed and not being piggybacked"
      },
      "getInFlightExitId(bytes)": {
        "notice": "Helper function to compute the in-flight exit ID"
      },
      "getStandardExitId(bool,bytes,uint256)": {
        "notice": "Helper function to compute the standard exit ID"
      },
      "inFlightExits(uint160[])": {
        "notice": "Getter functions to retrieve in-flight exit data of the PaymentExitGame"
      },
      "piggybackBondSize()": {
        "notice": "Retrieves the piggyback bond size"
      },
      "piggybackInFlightExitOnInput((bytes,uint16))": {
        "notice": "Piggyback on an input of an in-flight exiting tx. Processed only if the in-flight exit is non-canonical."
      },
      "piggybackInFlightExitOnOutput((bytes,uint16))": {
        "notice": "Piggyback on an output of an in-flight exiting tx. Processed only if the in-flight exit is canonical."
      },
      "processExit(uint160,uint256,address)": {
        "notice": "Callback processes exit function for the PlasmaFramework to call"
      },
      "respondToNonCanonicalChallenge(bytes,uint256,bytes)": {
        "notice": "Respond to a non-canonical challenge by providing its position and by proving its correctness"
      },
      "standardExits(uint160[])": {
        "notice": "Getter retrieves standard exit data of the PaymentExitGame"
      },
      "startIFEBondSize()": {
        "notice": "Retrieves the in-flight exit bond size"
      },
      "startInFlightExit((bytes,bytes[],uint256[],bytes[],bytes[]))": {
        "notice": "Starts withdrawal from a transaction that may be in-flight"
      },
      "startStandardExit((uint256,bytes,bytes))": {
        "notice": "Starts a standard exit of a given output, using output-age priority"
      },
      "startStandardExitBondSize()": {
        "notice": "Retrieves the standard exit bond size"
      },
      "updatePiggybackBondSize(uint128)": {
        "notice": "Updates the piggyback bond size, taking two days to become effective"
      },
      "updateStartIFEBondSize(uint128)": {
        "notice": "Updates the in-flight exit bond size, taking two days to become effective."
      },
      "updateStartStandardExitBondSize(uint128)": {
        "notice": "Updates the standard exit bond size, taking two days to become effective"
      }
    },
    "notice": "The exit game contract implementation for Payment Transaction"
  }
}