{
  "contractName": "PaymentExitGame",
  "abi": [
    {
      "constant": true,
      "inputs": [
        {
          "internalType": "uint160[]",
          "name": "exitIds",
          "type": "uint160[]"
        }
      ],
      "name": "standardExits",
      "outputs": [
        {
          "components": [
            {
              "internalType": "bool",
              "name": "exitable",
              "type": "bool"
            },
            {
              "internalType": "uint256",
              "name": "utxoPos",
              "type": "uint256"
            },
            {
              "internalType": "bytes32",
              "name": "outputId",
              "type": "bytes32"
            },
            {
              "internalType": "address payable",
              "name": "exitTarget",
              "type": "address"
            },
            {
              "internalType": "uint256",
              "name": "amount",
              "type": "uint256"
            },
            {
              "internalType": "uint256",
              "name": "bondSize",
              "type": "uint256"
            }
          ],
          "internalType": "struct PaymentExitDataModel.StandardExit[]",
          "name": "",
          "type": "tuple[]"
        }
      ],
      "payable": false,
      "stateMutability": "view",
      "type": "function"
    },
    {
      "constant": false,
      "inputs": [
        {
          "internalType": "uint128",
          "name": "newBondSize",
          "type": "uint128"
        }
      ],
      "name": "updateStartStandardExitBondSize",
      "outputs": [],
      "payable": false,
      "stateMutability": "nonpayable",
      "type": "function"
    },
    {
      "constant": false,
      "inputs": [
        {
          "components": [
            {
              "internalType": "bytes",
              "name": "inFlightTx",
              "type": "bytes"
            },
            {
              "internalType": "uint16",
              "name": "inFlightTxInputIndex",
              "type": "uint16"
            },
            {
              "internalType": "bytes",
              "name": "challengingTx",
              "type": "bytes"
            },
            {
              "internalType": "uint16",
              "name": "challengingTxInputIndex",
              "type": "uint16"
            },
            {
              "internalType": "bytes",
              "name": "challengingTxWitness",
              "type": "bytes"
            },
            {
              "internalType": "bytes",
              "name": "inputTx",
              "type": "bytes"
            },
            {
              "internalType": "uint256",
              "name": "inputUtxoPos",
              "type": "uint256"
            },
            {
              "internalType": "bytes",
              "name": "spendingConditionOptionalArgs",
              "type": "bytes"
            }
          ],
          "internalType": "struct PaymentInFlightExitRouterArgs.ChallengeInputSpentArgs",
          "name": "args",
          "type": "tuple"
        }
      ],
      "name": "challengeInFlightExitInputSpent",
      "outputs": [],
      "payable": false,
      "stateMutability": "nonpayable",
      "type": "function"
    },
    {
      "constant": false,
      "inputs": [
        {
          "internalType": "uint128",
          "name": "newBondSize",
          "type": "uint128"
        }
      ],
      "name": "updatePiggybackBondSize",
      "outputs": [],
      "payable": false,
      "stateMutability": "nonpayable",
      "type": "function"
    },
    {
      "constant": false,
      "inputs": [
        {
          "internalType": "bytes",
          "name": "inFlightTx",
          "type": "bytes"
        },
        {
          "internalType": "uint256",
          "name": "inFlightTxPos",
          "type": "uint256"
        },
        {
          "internalType": "bytes",
          "name": "inFlightTxInclusionProof",
          "type": "bytes"
        }
      ],
      "name": "respondToNonCanonicalChallenge",
      "outputs": [],
      "payable": false,
      "stateMutability": "nonpayable",
      "type": "function"
    },
    {
      "constant": true,
      "inputs": [],
      "name": "piggybackBondSize",
      "outputs": [
        {
          "internalType": "uint128",
          "name": "",
          "type": "uint128"
        }
      ],
      "payable": false,
      "stateMutability": "view",
      "type": "function"
    },
    {
      "constant": true,
      "inputs": [],
      "name": "startIFEBondSize",
      "outputs": [
        {
          "internalType": "uint128",
          "name": "",
          "type": "uint128"
        }
      ],
      "payable": false,
      "stateMutability": "view",
      "type": "function"
    },
    {
      "constant": true,
      "inputs": [],
      "name": "INITIAL_PB_BOND_SIZE",
      "outputs": [
        {
          "internalType": "uint128",
          "name": "",
          "type": "uint128"
        }
      ],
      "payable": false,
      "stateMutability": "view",
      "type": "function"
    },
    {
      "constant": false,
      "inputs": [
        {
          "components": [
            {
              "internalType": "uint160",
              "name": "exitId",
              "type": "uint160"
            },
            {
              "internalType": "bytes",
              "name": "exitingTx",
              "type": "bytes"
            },
            {
              "internalType": "bytes",
              "name": "challengeTx",
              "type": "bytes"
            },
            {
              "internalType": "uint16",
              "name": "inputIndex",
              "type": "uint16"
            },
            {
              "internalType": "bytes",
              "name": "witness",
              "type": "bytes"
            },
            {
              "internalType": "bytes",
              "name": "spendingConditionOptionalArgs",
              "type": "bytes"
            },
            {
              "internalType": "bytes",
              "name": "outputGuardPreimage",
              "type": "bytes"
            },
            {
              "internalType": "uint256",
              "name": "challengeTxPos",
              "type": "uint256"
            },
            {
              "internalType": "bytes",
              "name": "challengeTxInclusionProof",
              "type": "bytes"
            },
            {
              "internalType": "bytes",
              "name": "challengeTxConfirmSig",
              "type": "bytes"
            }
          ],
          "internalType": "struct PaymentStandardExitRouterArgs.ChallengeStandardExitArgs",
          "name": "args",
          "type": "tuple"
        }
      ],
      "name": "challengeStandardExit",
      "outputs": [],
      "payable": false,
      "stateMutability": "nonpayable",
      "type": "function"
    },
    {
      "constant": false,
      "inputs": [
        {
          "components": [
            {
              "internalType": "bytes",
              "name": "inputTx",
              "type": "bytes"
            },
            {
              "internalType": "uint256",
              "name": "inputUtxoPos",
              "type": "uint256"
            },
            {
              "internalType": "bytes",
              "name": "inFlightTx",
              "type": "bytes"
            },
            {
              "internalType": "uint16",
              "name": "inFlightTxInputIndex",
              "type": "uint16"
            },
            {
              "internalType": "bytes",
              "name": "competingTx",
              "type": "bytes"
            },
            {
              "internalType": "uint16",
              "name": "competingTxInputIndex",
              "type": "uint16"
            },
            {
              "internalType": "bytes",
              "name": "outputGuardPreimage",
              "type": "bytes"
            },
            {
              "internalType": "uint256",
              "name": "competingTxPos",
              "type": "uint256"
            },
            {
              "internalType": "bytes",
              "name": "competingTxInclusionProof",
              "type": "bytes"
            },
            {
              "internalType": "bytes",
              "name": "competingTxWitness",
              "type": "bytes"
            },
            {
              "internalType": "bytes",
              "name": "competingTxConfirmSig",
              "type": "bytes"
            },
            {
              "internalType": "bytes",
              "name": "competingTxSpendingConditionOptionalArgs",
              "type": "bytes"
            }
          ],
          "internalType": "struct PaymentInFlightExitRouterArgs.ChallengeCanonicityArgs",
          "name": "args",
          "type": "tuple"
        }
      ],
      "name": "challengeInFlightExitNotCanonical",
      "outputs": [],
      "payable": false,
      "stateMutability": "nonpayable",
      "type": "function"
    },
    {
      "constant": false,
      "inputs": [
        {
          "components": [
            {
              "internalType": "uint256",
              "name": "utxoPos",
              "type": "uint256"
            },
            {
              "internalType": "bytes",
              "name": "rlpOutputTx",
              "type": "bytes"
            },
            {
              "internalType": "bytes",
              "name": "outputGuardPreimage",
              "type": "bytes"
            },
            {
              "internalType": "bytes",
              "name": "outputTxInclusionProof",
              "type": "bytes"
            }
          ],
          "internalType": "struct PaymentStandardExitRouterArgs.StartStandardExitArgs",
          "name": "args",
          "type": "tuple"
        }
      ],
      "name": "startStandardExit",
      "outputs": [],
      "payable": true,
      "stateMutability": "payable",
      "type": "function"
    },
    {
      "constant": false,
      "inputs": [
        {
          "components": [
            {
              "internalType": "bytes",
              "name": "inFlightTx",
              "type": "bytes"
            },
            {
              "internalType": "uint16",
              "name": "outputIndex",
              "type": "uint16"
            },
            {
              "internalType": "bytes",
              "name": "outputGuardPreimage",
              "type": "bytes"
            }
          ],
          "internalType": "struct PaymentInFlightExitRouterArgs.PiggybackInFlightExitOnOutputArgs",
          "name": "args",
          "type": "tuple"
        }
      ],
      "name": "piggybackInFlightExitOnOutput",
      "outputs": [],
      "payable": true,
      "stateMutability": "payable",
      "type": "function"
    },
    {
      "constant": true,
      "inputs": [],
      "name": "BOND_LOWER_BOUND_DIVISOR",
      "outputs": [
        {
          "internalType": "uint16",
          "name": "",
          "type": "uint16"
        }
      ],
      "payable": false,
      "stateMutability": "view",
      "type": "function"
    },
    {
      "constant": true,
      "inputs": [],
      "name": "BOND_UPPER_BOUND_MULTIPLIER",
      "outputs": [
        {
          "internalType": "uint16",
          "name": "",
          "type": "uint16"
        }
      ],
      "payable": false,
      "stateMutability": "view",
      "type": "function"
    },
    {
      "constant": false,
      "inputs": [
        {
          "internalType": "uint128",
          "name": "newBondSize",
          "type": "uint128"
        }
      ],
      "name": "updateStartIFEBondSize",
      "outputs": [],
      "payable": false,
      "stateMutability": "nonpayable",
      "type": "function"
    },
    {
      "constant": false,
      "inputs": [
        {
          "internalType": "uint160",
          "name": "exitId",
          "type": "uint160"
        }
      ],
      "name": "deleteNonPiggybackedInFlightExit",
      "outputs": [],
      "payable": false,
      "stateMutability": "nonpayable",
      "type": "function"
    },
    {
      "constant": false,
      "inputs": [
        {
          "components": [
            {
              "internalType": "bytes",
              "name": "inFlightTx",
              "type": "bytes"
            },
            {
              "internalType": "bytes",
              "name": "inFlightTxInclusionProof",
              "type": "bytes"
            },
            {
              "internalType": "uint256",
              "name": "outputUtxoPos",
              "type": "uint256"
            },
            {
              "internalType": "bytes",
              "name": "challengingTx",
              "type": "bytes"
            },
            {
              "internalType": "uint16",
              "name": "challengingTxInputIndex",
              "type": "uint16"
            },
            {
              "internalType": "bytes",
              "name": "challengingTxWitness",
              "type": "bytes"
            },
            {
              "internalType": "bytes",
              "name": "spendingConditionOptionalArgs",
              "type": "bytes"
            }
          ],
          "internalType": "struct PaymentInFlightExitRouterArgs.ChallengeOutputSpent",
          "name": "args",
          "type": "tuple"
        }
      ],
      "name": "challengeInFlightExitOutputSpent",
      "outputs": [],
      "payable": false,
      "stateMutability": "nonpayable",
      "type": "function"
    },
    {
      "constant": false,
      "inputs": [
        {
          "components": [
            {
              "internalType": "bytes",
              "name": "inFlightTx",
              "type": "bytes"
            },
            {
              "internalType": "bytes[]",
              "name": "inputTxs",
              "type": "bytes[]"
            },
            {
              "internalType": "uint256[]",
              "name": "inputUtxosPos",
              "type": "uint256[]"
            },
            {
              "internalType": "bytes[]",
              "name": "outputGuardPreimagesForInputs",
              "type": "bytes[]"
            },
            {
              "internalType": "bytes[]",
              "name": "inputTxsInclusionProofs",
              "type": "bytes[]"
            },
            {
              "internalType": "bytes[]",
              "name": "inputTxsConfirmSigs",
              "type": "bytes[]"
            },
            {
              "internalType": "bytes[]",
              "name": "inFlightTxWitnesses",
              "type": "bytes[]"
            },
            {
              "internalType": "bytes[]",
              "name": "inputSpendingConditionOptionalArgs",
              "type": "bytes[]"
            }
          ],
          "internalType": "struct PaymentInFlightExitRouterArgs.StartExitArgs",
          "name": "args",
          "type": "tuple"
        }
      ],
      "name": "startInFlightExit",
      "outputs": [],
      "payable": true,
      "stateMutability": "payable",
      "type": "function"
    },
    {
      "constant": true,
      "inputs": [],
      "name": "INITIAL_BOND_SIZE",
      "outputs": [
        {
          "internalType": "uint128",
          "name": "",
          "type": "uint128"
        }
      ],
      "payable": false,
      "stateMutability": "view",
      "type": "function"
    },
    {
      "constant": true,
      "inputs": [],
      "name": "INITIAL_IFE_BOND_SIZE",
      "outputs": [
        {
          "internalType": "uint128",
          "name": "",
          "type": "uint128"
        }
      ],
      "payable": false,
      "stateMutability": "view",
      "type": "function"
    },
    {
      "constant": true,
      "inputs": [
        {
          "internalType": "uint160",
          "name": "exitId",
          "type": "uint160"
        }
      ],
      "name": "inFlightExits",
      "outputs": [
        {
          "components": [
            {
              "internalType": "bool",
              "name": "isCanonical",
              "type": "bool"
            },
            {
              "internalType": "uint64",
              "name": "exitStartTimestamp",
              "type": "uint64"
            },
            {
              "internalType": "uint256",
              "name": "exitMap",
              "type": "uint256"
            },
            {
              "internalType": "uint256",
              "name": "position",
              "type": "uint256"
            },
            {
              "components": [
                {
                  "internalType": "bytes32",
                  "name": "outputId",
                  "type": "bytes32"
                },
                {
                  "internalType": "address payable",
                  "name": "exitTarget",
                  "type": "address"
                },
                {
                  "internalType": "address",
                  "name": "token",
                  "type": "address"
                },
                {
                  "internalType": "uint256",
                  "name": "amount",
                  "type": "uint256"
                },
                {
                  "internalType": "uint256",
                  "name": "piggybackBondSize",
                  "type": "uint256"
                }
              ],
              "internalType": "struct PaymentExitDataModel.WithdrawData[4]",
              "name": "inputs",
              "type": "tuple[4]"
            },
            {
              "components": [
                {
                  "internalType": "bytes32",
                  "name": "outputId",
                  "type": "bytes32"
                },
                {
                  "internalType": "address payable",
                  "name": "exitTarget",
                  "type": "address"
                },
                {
                  "internalType": "address",
                  "name": "token",
                  "type": "address"
                },
                {
                  "internalType": "uint256",
                  "name": "amount",
                  "type": "uint256"
                },
                {
                  "internalType": "uint256",
                  "name": "piggybackBondSize",
                  "type": "uint256"
                }
              ],
              "internalType": "struct PaymentExitDataModel.WithdrawData[4]",
              "name": "outputs",
              "type": "tuple[4]"
            },
            {
              "internalType": "address payable",
              "name": "bondOwner",
              "type": "address"
            },
            {
              "internalType": "uint256",
              "name": "bondSize",
              "type": "uint256"
            },
            {
              "internalType": "uint256",
              "name": "oldestCompetitorPosition",
              "type": "uint256"
            }
          ],
          "internalType": "struct PaymentExitDataModel.InFlightExit",
          "name": "",
          "type": "tuple"
        }
      ],
      "payable": false,
      "stateMutability": "view",
      "type": "function"
    },
    {
      "constant": false,
      "inputs": [
        {
          "components": [
            {
              "internalType": "bytes",
              "name": "inFlightTx",
              "type": "bytes"
            },
            {
              "internalType": "uint16",
              "name": "inputIndex",
              "type": "uint16"
            }
          ],
          "internalType": "struct PaymentInFlightExitRouterArgs.PiggybackInFlightExitOnInputArgs",
          "name": "args",
          "type": "tuple"
        }
      ],
      "name": "piggybackInFlightExitOnInput",
      "outputs": [],
      "payable": true,
      "stateMutability": "payable",
      "type": "function"
    },
    {
      "constant": true,
      "inputs": [],
      "name": "startStandardExitBondSize",
      "outputs": [
        {
          "internalType": "uint128",
          "name": "",
          "type": "uint128"
        }
      ],
      "payable": false,
      "stateMutability": "view",
      "type": "function"
    },
    {
      "inputs": [
        {
          "components": [
            {
              "internalType": "contract PlasmaFramework",
              "name": "framework",
              "type": "address"
            },
            {
              "internalType": "uint256",
              "name": "ethVaultId",
              "type": "uint256"
            },
            {
              "internalType": "uint256",
              "name": "erc20VaultId",
              "type": "uint256"
            },
            {
              "internalType": "contract OutputGuardHandlerRegistry",
              "name": "outputGuardHandlerRegistry",
              "type": "address"
            },
            {
              "internalType": "contract SpendingConditionRegistry",
              "name": "spendingConditionRegistry",
              "type": "address"
            },
            {
              "internalType": "contract IStateTransitionVerifier",
              "name": "stateTransitionVerifier",
              "type": "address"
            },
            {
              "internalType": "contract ITxFinalizationVerifier",
              "name": "txFinalizationVerifier",
              "type": "address"
            },
            {
              "internalType": "uint256",
              "name": "supportTxType",
              "type": "uint256"
            },
            {
              "internalType": "uint256",
              "name": "safeGasStipend",
              "type": "uint256"
            }
          ],
          "internalType": "struct PaymentExitGameArgs.Args",
          "name": "args",
          "type": "tuple"
        }
      ],
      "payable": false,
      "stateMutability": "nonpayable",
      "type": "constructor"
    },
    {
      "anonymous": false,
      "inputs": [
        {
          "indexed": false,
          "internalType": "uint128",
          "name": "bondSize",
          "type": "uint128"
        }
      ],
      "name": "IFEBondUpdated",
      "type": "event"
    },
    {
      "anonymous": false,
      "inputs": [
        {
          "indexed": false,
          "internalType": "uint128",
          "name": "bondSize",
          "type": "uint128"
        }
      ],
      "name": "PiggybackBondUpdated",
      "type": "event"
    },
    {
      "anonymous": false,
      "inputs": [
        {
          "indexed": true,
          "internalType": "address",
          "name": "initiator",
          "type": "address"
        },
        {
          "indexed": true,
          "internalType": "bytes32",
          "name": "txHash",
          "type": "bytes32"
        }
      ],
      "name": "InFlightExitStarted",
      "type": "event"
    },
    {
      "anonymous": false,
      "inputs": [
        {
          "indexed": true,
          "internalType": "address",
          "name": "exitTarget",
          "type": "address"
        },
        {
          "indexed": true,
          "internalType": "bytes32",
          "name": "txHash",
          "type": "bytes32"
        },
        {
          "indexed": false,
          "internalType": "uint16",
          "name": "inputIndex",
          "type": "uint16"
        }
      ],
      "name": "InFlightExitInputPiggybacked",
      "type": "event"
    },
    {
      "anonymous": false,
      "inputs": [
        {
          "indexed": true,
          "internalType": "uint160",
          "name": "exitId",
          "type": "uint160"
        },
        {
          "indexed": false,
          "internalType": "address",
          "name": "token",
          "type": "address"
        }
      ],
      "name": "InFlightExitOmitted",
      "type": "event"
    },
    {
      "anonymous": false,
      "inputs": [
        {
          "indexed": true,
          "internalType": "address",
          "name": "receiver",
          "type": "address"
        },
        {
          "indexed": false,
          "internalType": "uint256",
          "name": "amount",
          "type": "uint256"
        }
      ],
      "name": "InFlightBondReturnFailed",
      "type": "event"
    },
    {
      "anonymous": false,
      "inputs": [
        {
          "indexed": true,
          "internalType": "uint160",
          "name": "exitId",
          "type": "uint160"
        },
        {
          "indexed": false,
          "internalType": "uint16",
          "name": "outputIndex",
          "type": "uint16"
        }
      ],
      "name": "InFlightExitOutputWithdrawn",
      "type": "event"
    },
    {
      "anonymous": false,
      "inputs": [
        {
          "indexed": true,
          "internalType": "uint160",
          "name": "exitId",
          "type": "uint160"
        },
        {
          "indexed": false,
          "internalType": "uint16",
          "name": "inputIndex",
          "type": "uint16"
        }
      ],
      "name": "InFlightExitInputWithdrawn",
      "type": "event"
    },
    {
      "anonymous": false,
      "inputs": [
        {
          "indexed": true,
          "internalType": "address",
          "name": "exitTarget",
          "type": "address"
        },
        {
          "indexed": true,
          "internalType": "bytes32",
          "name": "txHash",
          "type": "bytes32"
        },
        {
          "indexed": false,
          "internalType": "uint16",
          "name": "outputIndex",
          "type": "uint16"
        }
      ],
      "name": "InFlightExitOutputPiggybacked",
      "type": "event"
    },
    {
      "anonymous": false,
      "inputs": [
        {
          "indexed": true,
          "internalType": "address",
          "name": "challenger",
          "type": "address"
        },
        {
          "indexed": true,
          "internalType": "bytes32",
          "name": "txHash",
          "type": "bytes32"
        },
        {
          "indexed": false,
          "internalType": "uint256",
          "name": "challengeTxPosition",
          "type": "uint256"
        }
      ],
      "name": "InFlightExitChallenged",
      "type": "event"
    },
    {
      "anonymous": false,
      "inputs": [
        {
          "indexed": true,
          "internalType": "address",
          "name": "challenger",
          "type": "address"
        },
        {
          "indexed": true,
          "internalType": "bytes32",
          "name": "txHash",
          "type": "bytes32"
        },
        {
          "indexed": false,
          "internalType": "uint256",
          "name": "challengeTxPosition",
          "type": "uint256"
        }
      ],
      "name": "InFlightExitChallengeResponded",
      "type": "event"
    },
    {
      "anonymous": false,
      "inputs": [
        {
          "indexed": true,
          "internalType": "address",
          "name": "challenger",
          "type": "address"
        },
        {
          "indexed": true,
          "internalType": "bytes32",
          "name": "txHash",
          "type": "bytes32"
        },
        {
          "indexed": false,
          "internalType": "uint16",
          "name": "inputIndex",
          "type": "uint16"
        }
      ],
      "name": "InFlightExitInputBlocked",
      "type": "event"
    },
    {
      "anonymous": false,
      "inputs": [
        {
          "indexed": true,
          "internalType": "address",
          "name": "challenger",
          "type": "address"
        },
        {
          "indexed": true,
          "internalType": "bytes32",
          "name": "txHash",
          "type": "bytes32"
        },
        {
          "indexed": false,
          "internalType": "uint16",
          "name": "outputIndex",
          "type": "uint16"
        }
      ],
      "name": "InFlightExitOutputBlocked",
      "type": "event"
    },
    {
      "anonymous": false,
      "inputs": [
        {
          "indexed": true,
          "internalType": "uint160",
          "name": "exitId",
          "type": "uint160"
        }
      ],
      "name": "InFlightExitDeleted",
      "type": "event"
    },
    {
      "anonymous": false,
      "inputs": [
        {
          "indexed": false,
          "internalType": "uint128",
          "name": "bondSize",
          "type": "uint128"
        }
      ],
      "name": "StandardExitBondUpdated",
      "type": "event"
    },
    {
      "anonymous": false,
      "inputs": [
        {
          "indexed": true,
          "internalType": "address",
          "name": "owner",
          "type": "address"
        },
        {
          "indexed": false,
          "internalType": "uint160",
          "name": "exitId",
          "type": "uint160"
        }
      ],
      "name": "ExitStarted",
      "type": "event"
    },
    {
      "anonymous": false,
      "inputs": [
        {
          "indexed": true,
          "internalType": "uint256",
          "name": "utxoPos",
          "type": "uint256"
        }
      ],
      "name": "ExitChallenged",
      "type": "event"
    },
    {
      "anonymous": false,
      "inputs": [
        {
          "indexed": true,
          "internalType": "uint160",
          "name": "exitId",
          "type": "uint160"
        }
      ],
      "name": "ExitOmitted",
      "type": "event"
    },
    {
      "anonymous": false,
      "inputs": [
        {
          "indexed": true,
          "internalType": "uint160",
          "name": "exitId",
          "type": "uint160"
        }
      ],
      "name": "ExitFinalized",
      "type": "event"
    },
    {
      "anonymous": false,
      "inputs": [
        {
          "indexed": true,
          "internalType": "address",
          "name": "receiver",
          "type": "address"
        },
        {
          "indexed": false,
          "internalType": "uint256",
          "name": "amount",
          "type": "uint256"
        }
      ],
      "name": "BondReturnFailed",
      "type": "event"
    },
    {
      "constant": false,
      "inputs": [
        {
          "internalType": "uint160",
          "name": "exitId",
          "type": "uint160"
        },
        {
          "internalType": "uint256",
          "name": "",
          "type": "uint256"
        },
        {
          "internalType": "address",
          "name": "token",
          "type": "address"
        }
      ],
      "name": "processExit",
      "outputs": [],
      "payable": false,
      "stateMutability": "nonpayable",
      "type": "function"
    },
    {
      "constant": true,
      "inputs": [
        {
          "internalType": "bool",
          "name": "_isDeposit",
          "type": "bool"
        },
        {
          "internalType": "bytes",
          "name": "_txBytes",
          "type": "bytes"
        },
        {
          "internalType": "uint256",
          "name": "_utxoPos",
          "type": "uint256"
        }
      ],
      "name": "getStandardExitId",
      "outputs": [
        {
          "internalType": "uint160",
          "name": "",
          "type": "uint160"
        }
      ],
      "payable": false,
      "stateMutability": "pure",
      "type": "function"
    },
    {
      "constant": true,
      "inputs": [
        {
          "internalType": "bytes",
          "name": "_txBytes",
          "type": "bytes"
        }
      ],
      "name": "getInFlightExitId",
      "outputs": [
        {
          "internalType": "uint160",
          "name": "",
          "type": "uint160"
        }
      ],
      "payable": false,
      "stateMutability": "pure",
      "type": "function"
    }
  ],
  "bytecode": "0x60806040523480156200001157600080fd5b50604051620054df380380620054df833981016040819052620000349162001473565b8051601680546001600160a01b0319166001600160a01b03909216918217905560208201516040517f8c64ea4a00000000000000000000000000000000000000000000000000000000815283928392600092638c64ea4a916200009a9160040162001762565b60206040518083038186803b158015620000b357600080fd5b505afa158015620000c8573d6000803e3d6000fd5b505050506040513d601f19601f82011682018060405250620000ee91908101906200144a565b90506001600160a01b0381166200013c576040517f08c379a000000000000000000000000000000000000000000000000000000000815260040162000133906200173e565b60405180910390fd5b815160408084015190517f8c64ea4a0000000000000000000000000000000000000000000000000000000081526000926001600160a01b031691638c64ea4a916200018b919060040162001762565b60206040518083038186803b158015620001a457600080fd5b505afa158015620001b9573d6000803e3d6000fd5b505050506040513d601f19601f82011682018060405250620001df91908101906200144a565b90506001600160a01b03811662000224576040517f08c379a0000000000000000000000000000000000000000000000000000000008152600401620001339062001750565b73__PaymentStartStandardExit______________63978e3fb230856000015186606001518760c00151886020015189604001518a60e001516040518863ffffffff1660e01b8152600401620002819796959493929190620015cf565b6101206040518083038186803b1580156200029b57600080fd5b505af4158015620002b0573d6000803e3d6000fd5b505050506040513d601f19601f82011682018060405250620002d6919081019062001495565b8051600180546001600160a01b03199081166001600160a01b039384161790915560208301516002805483169184169190911790556040808401515160035560608085015151600490815560808087015160058054871691881691909117905560a08701516006805490961696169590951790935560c08086015160075560e08601516008556101009586015160095588519489015191890151908901519589015192517f13c374f600000000000000000000000000000000000000000000000000000000815273__PaymentChallengeStandardExit__________966313c374f696620003c996909591920162001701565b60c06040518083038186803b158015620003e257600080fd5b505af4158015620003f7573d6000803e3d6000fd5b505050506040513d601f19601f820116820180604052506200041d9190810190620014b7565b8051600e80546001600160a01b03199081166001600160a01b039384161790915560208084015151600f5560408085015160108054851691861691909117905560608086015160118054861691871691909117905560808087015160128054871691881691909117905560a09096015160135581519586018252885185168087528886168785018190529588169287018390526101008a015196909101869052600a805485169091179055600b80548416909417909355600c80549092169092179055600d9190915562000508906631bced02db000090600290819062000fa2811b62003c4817901c565b8051601480546020808501516001600160801b03199283166001600160801b039586161785167001000000000000000000000000000000009186168202179093556040808601516015805460608901516080909901519516919096161761ffff60801b191661ffff9687169094029390931761ffff60901b191672010000000000000000000000000000000000009590921694909402179091558551604380546001600160a01b0319166001600160a01b0390921691821790559186015190517f8c64ea4a00000000000000000000000000000000000000000000000000000000815260009550919350638c64ea4a9250620006079160040162001762565b60206040518083038186803b1580156200062057600080fd5b505afa15801562000635573d6000803e3d6000fd5b505050506040513d601f19601f820116820180604052506200065b91908101906200144a565b90506001600160a01b038116620006a0576040517f08c379a000000000000000000000000000000000000000000000000000000000815260040162000133906200173e565b815160408084015190517f8c64ea4a0000000000000000000000000000000000000000000000000000000081526000926001600160a01b031691638c64ea4a91620006ef919060040162001762565b60206040518083038186803b1580156200070857600080fd5b505afa1580156200071d573d6000803e3d6000fd5b505050506040513d601f19601f820116820180604052506200074391908101906200144a565b90506001600160a01b03811662000788576040517f08c379a0000000000000000000000000000000000000000000000000000000008152600401620001339062001750565b82516060840151608085015160a086015160c087015160e08801516040517f1cc495f400000000000000000000000000000000000000000000000000000000815273__PaymentStartInFlightExit______________96631cc495f496620007fb96919590949193909260040162001645565b6101006040518083038186803b1580156200081557600080fd5b505af41580156200082a573d6000803e3d6000fd5b505050506040513d601f19601f82011682018060405250620008509190810190620014fa565b8051601880546001600160a01b03199081166001600160a01b03938416179091556020808401515160195560408085015151601a55606080860151601b805486169187169190911790556080860151601c8054861691871691909117905560a0860151601d8054861691871691909117905560c0860151601e805490951695169490941790925560e090930151601f55855191860151928601518682015191517f134be34800000000000000000000000000000000000000000000000000000000815273__PaymentPiggybackInFlightExit__________9463134be34894620009449490933093909190600401620016ab565b6101006040518083038186803b1580156200095e57600080fd5b505af415801562000973573d6000803e3d6000fd5b505050506040513d601f19601f82011682018060405250620009999190810190620014d8565b8051602080546001600160a01b03199081166001600160a01b039384161782559083015151602155604080840151516022556060808501516023805485169186169190911790556080808601516024805490951695169490941790925560a084015160255560c08085015160265560e09485015160275587519388015192880151908801519488015191517f13c374f600000000000000000000000000000000000000000000000000000000815273__PaymentChallengeIFENotCanonical_______956313c374f69562000a7695909490939260040162001701565b60c06040518083038186803b15801562000a8f57600080fd5b505af415801562000aa4573d6000803e3d6000fd5b505050506040513d601f19601f8201168201806040525062000aca9190810190620014b7565b8051602880546001600160a01b03199081166001600160a01b0393841617909155602083015151602955604080840151602a80548416918516919091179055606080850151602b80548516918616919091179055608080860151602c805490951695169490941790925560a090930151602d558551918601519086015160c087015161010088015194517f13c374f600000000000000000000000000000000000000000000000000000000815273__PaymentChallengeIFEInputSpent_________956313c374f69562000baa9590949093909290919060040162001701565b60c06040518083038186803b15801562000bc357600080fd5b505af415801562000bd8573d6000803e3d6000fd5b505050506040513d601f19601f8201168201806040525062000bfe9190810190620014b7565b8051602e80546001600160a01b03199081166001600160a01b039384161790915560208084015151602f5560408085015160308054851691861691909117905560608086015160318054861691871691909117905560808087015160328054871691881691909117905560a09687015160335582519687018352895186168088528a82015187168886018190528b840151881689860181905260c08d01518916948a018590526101008d015199909301899052603480548816909217909155603580548716909117905560368054861690911790556037805490941617909255603893909355805180820180835287517fd4a2b4ef00000000000000000000000000000000000000000000000000000000909152915190938493929092169163d4a2b4ef916044808601929190818703018186803b15801562000d4057600080fd5b505afa15801562000d55573d6000803e3d6000fd5b505050506040513d601f19601f8201168201806040525062000d7b91908101906200151c565b815261010085018051602092830152825160395591810151603a556040805160808101825286516001600160a01b0390811680835287821683860181905291871693830184905294516060909201829052603b80546001600160a01b03199081169096179055603c805486169091179055603d8054909416909117909255603e9190915562000e21906683734dd0b0800090600290819062003c4862000fa2821b17901c565b8051603f80546020808501516001600160801b03199283166001600160801b0395861617851670010000000000000000000000000000000091861682021790935560408086015181546060880151608090980151941695169490941761ffff60801b191661ffff9586169093029290921761ffff60901b19167201000000000000000000000000000000000000949091169390930292909217905562000ede90666379da05b6000090600290819062000fa2811b62003c4817901c565b80516041805460208401516001600160801b03199182166001600160801b0394851617841670010000000000000000000000000000000091851682021790925560408401516042805460608701516080909701519316919094161761ffff60801b191661ffff9485169092029190911761ffff60901b19167201000000000000000000000000000000000000939091169290920291909117905550509051604480546001600160a01b0319166001600160a01b0390921691909117905550620017fb565b62000fac62000fed565b506040805160a0810182526001600160801b03949094168452600060208501526780000000000000009084015261ffff918216606084015216608082015290565b6040805160a08101825260008082526020820181905291810182905260608101829052608081019190915290565b80516200102881620017cb565b92915050565b80516200102881620017e5565b600061012082840312156200104f57600080fd5b6200105c61012062001772565b905060006200106c84846200102e565b82525060206200107f848483016200143d565b602083015250604062001095848285016200143d565b6040830152506060620010ab848285016200102e565b6060830152506080620010c1848285016200102e565b60808301525060a0620010d7848285016200102e565b60a08301525060c0620010ed848285016200102e565b60c08301525060e062001103848285016200143d565b60e0830152506101006200111a848285016200143d565b6101008301525092915050565b6000602082840312156200113a57600080fd5b62001146602062001772565b905060006200115684846200143d565b82525092915050565b600061012082840312156200117357600080fd5b6200118061012062001772565b905060006200119084846200102e565b8252506020620011a3848483016200102e565b6020830152506040620011b98482850162001127565b6040830152506060620011cf8482850162001127565b6060830152506080620011e5848285016200102e565b60808301525060a0620011fb848285016200102e565b60a08301525060c0620010ed848285016200143d565b600060c082840312156200122457600080fd5b6200123060c062001772565b905060006200124084846200102e565b8252506020620012538484830162001127565b602083015250604062001269848285016200102e565b60408301525060606200127f848285016200102e565b606083015250608062001295848285016200102e565b60808301525060a0620012ab848285016200143d565b60a08301525092915050565b60006101008284031215620012cb57600080fd5b620012d861010062001772565b90506000620012e884846200102e565b8252506020620012fb8484830162001127565b6020830152506040620013118482850162001127565b604083015250606062001327848285016200102e565b60608301525060806200133d848285016200102e565b60808301525060a062001353848285016200143d565b60a08301525060c062001369848285016200143d565b60c08301525060e06200137f848285016200143d565b60e08301525092915050565b600061010082840312156200139f57600080fd5b620013ac61010062001772565b90506000620013bc84846200102e565b8252506020620013cf8484830162001127565b6020830152506040620013e58482850162001127565b6040830152506060620013fb848285016200102e565b606083015250608062001411848285016200102e565b60808301525060a062001427848285016200102e565b60a08301525060c062001369848285016200102e565b80516200102881620017f0565b6000602082840312156200145d57600080fd5b60006200146b84846200101b565b949350505050565b600061012082840312156200148757600080fd5b60006200146b84846200103b565b60006101208284031215620014a957600080fd5b60006200146b84846200115f565b600060c08284031215620014ca57600080fd5b60006200146b848462001211565b60006101008284031215620014ec57600080fd5b60006200146b8484620012b7565b600061010082840312156200150e57600080fd5b60006200146b84846200138b565b6000602082840312156200152f57600080fd5b60006200146b84846200143d565b6200154881620017af565b82525050565b60006200155d60118362001799565b7f496e76616c696420455448207661756c74000000000000000000000000000000815260200192915050565b60006200159860138362001799565b7f496e76616c6964204552433230207661756c7400000000000000000000000000815260200192915050565b6200154881620017c8565b60e08101620015df828a6200153d565b620015ee60208301896200153d565b620015fd60408301886200153d565b6200160c60608301876200153d565b6200161b6080830186620015c4565b6200162a60a0830185620015c4565b6200163960c0830184620015c4565b98975050505050505050565b60c081016200165582896200153d565b6200166460208301886200153d565b6200167360408301876200153d565b6200168260608301866200153d565b6200169160808301856200153d565b620016a060a0830184620015c4565b979650505050505050565b60a08101620016bb82886200153d565b620016ca60208301876200153d565b620016d960408301866200153d565b620016e86060830185620015c4565b620016f76080830184620015c4565b9695505050505050565b60a081016200171182886200153d565b6200172060208301876200153d565b6200172f60408301866200153d565b620016e860608301856200153d565b6020808252810162001028816200154e565b60208082528101620010288162001589565b60208101620010288284620015c4565b6040518181016001600160401b03811182821017156200179157600080fd5b604052919050565b90815260200190565b60006200102882620017bc565b60006200102882620017a2565b6001600160a01b031690565b90565b620017d681620017a2565b8114620017e257600080fd5b50565b620017d681620017af565b620017d681620017c8565b613cd4806200180b6000396000f3fe6080604052600436106101815760003560e01c80638ec32e8f116100d1578063b8fd17fa1161008a578063c96e7c0511610064578063c96e7c0514610407578063e47a46311461041c578063e5bc60c714610449578063fe32a1241461045c57610181565b8063b8fd17fa146103bf578063b90424b5146103df578063c170ecf5146103f257610181565b80638ec32e8f1461032a578063905d6a991461033d578063a0e403b11461033d578063b177ba231461035f578063b22d3e141461037f578063b3c2ec761461039f57610181565b8063684963511161013e5780638301d179116101185780638301d179146102aa578063839c78f9146102ca5780638c9963f0146102f75780638d6f74cf1461031757610181565b806368496351146102605780637702fa17146102805780637e2b2efe1461029557610181565b80630ca5b67614610186578063163d7bc7146101bc5780632d3cd2e9146101de578063315fb7da146101fe57806336660de41461021e5780633f1214cf1461023e575b600080fd5b34801561019257600080fd5b506101a66101a136600461275b565b610471565b6040516101b39190613819565b60405180910390f35b3480156101c857600080fd5b506101dc6101d7366004612a44565b610576565b005b3480156101ea57600080fd5b506101dc6101f93660046128d8565b610679565b34801561020a57600080fd5b506101dc610219366004612a44565b6107f2565b34801561022a57600080fd5b506101dc610239366004612834565b6108e0565b34801561024a57600080fd5b50610253610a5f565b6040516101b39190613ac9565b34801561026c57600080fd5b506101dc61027b366004612a80565b610ac4565b34801561028c57600080fd5b50610253610b1c565b3480156102a157600080fd5b50610253610b7b565b3480156102b657600080fd5b506101dc6102c5366004612940565b610b86565b3480156102d657600080fd5b506102ea6102e5366004612800565b610c78565b6040516101b39190613ad7565b34801561030357600080fd5b506101dc6103123660046128a4565b610c8b565b6101dc610325366004612a10565b610d7d565b6101dc6103383660046129a8565b610f37565b34801561034957600080fd5b50610352611074565b6040516101b39190613ae5565b34801561036b57600080fd5b506101dc61037a366004612a44565b611079565b34801561038b57600080fd5b506102ea61039a36600461279c565b611167565b3480156103ab57600080fd5b506101dc6103ba366004612a62565b611196565b3480156103cb57600080fd5b506101dc6103da36600461290c565b61124f565b6101dc6103ed3660046129dc565b611330565b3480156103fe57600080fd5b50610253611472565b34801561041357600080fd5b5061025361147d565b34801561042857600080fd5b5061043c610437366004612a62565b611488565b6040516101b39190613aba565b6101dc610457366004612974565b611629565b34801561046857600080fd5b50610253611766565b606080838390506040519080825280602002602001820160405280156104b157816020015b61049e611bbb565b8152602001906001900390816104965790505b50905060005b8381101561056c5760008585838181106104cd57fe5b90506020020160206104e29190810190612a62565b6001600160a01b0380821660009081526020818152604091829020825160c081018452815460ff161515815260018201549281019290925260028101549282019290925260038201549092166060830152600481015460808301526005015460a082015284519192509084908490811061055857fe5b6020908102919091010152506001016104b7565b5090505b92915050565b601660009054906101000a90046001600160a01b03166001600160a01b0316634b0a72bc6040518163ffffffff1660e01b815260040160206040518083038186803b1580156105c457600080fd5b505afa1580156105d8573d6000803e3d6000fd5b505050506040513d601f19601f820116820180604052506105fc919081019061273d565b336001600160a01b0382161461062d5760405162461bcd60e51b81526004016106249061386a565b60405180910390fd5b61063e60148363ffffffff6117c616565b7fd21ccbbae3d29826d53310efdc993c64e27496dd31694b292f1a120344ec37ab8260405161066d9190613ac9565b60405180910390a15050565b604360009054906101000a90046001600160a01b0316806001600160a01b031663ff27b1896040518163ffffffff1660e01b8152600401600060405180830381600087803b1580156106ca57600080fd5b505af11580156106de573d6000803e3d6000fd5b50506040805160c081018252602e546001600160a01b039081168252825160208181018552602f5482528301526030548116828401526031548116606083015260325416608082015260335460a08201529051634bb4a4df60e11b815273__PaymentChallengeIFEInputSpent_________935063976949be925061076b919060179087906004016138ba565b60006040518083038186803b15801561078357600080fd5b505af4158015610797573d6000803e3d6000fd5b50505050806001600160a01b0316634e0f74366040518163ffffffff1660e01b8152600401600060405180830381600087803b1580156107d657600080fd5b505af11580156107ea573d6000803e3d6000fd5b505050505050565b604360009054906101000a90046001600160a01b03166001600160a01b0316634b0a72bc6040518163ffffffff1660e01b815260040160206040518083038186803b15801561084057600080fd5b505afa158015610854573d6000803e3d6000fd5b505050506040513d601f19601f82011682018060405250610878919081019061273d565b336001600160a01b038216146108a05760405162461bcd60e51b81526004016106249061386a565b6108b160418363ffffffff6117c616565b7f30ce291291dca42b8168ab211fafc36d3d4868292ed3259874ed00864432e20e8260405161066d9190613ac9565b604360009054906101000a90046001600160a01b0316806001600160a01b031663ff27b1896040518163ffffffff1660e01b8152600401600060405180830381600087803b15801561093157600080fd5b505af1158015610945573d6000803e3d6000fd5b50506040805160c0810182526028546001600160a01b0390811682528251602081810185526029548252830152602a54811682840152602b5481166060830152602c54166080820152602d5460a08201529051630c27711f60e11b815273__PaymentChallengeIFENotCanonical_______935063184ee23e92506109d691906017908990899089906004016138e8565b60006040518083038186803b1580156109ee57600080fd5b505af4158015610a02573d6000803e3d6000fd5b50505050806001600160a01b0316634e0f74366040518163ffffffff1660e01b8152600401600060405180830381600087803b158015610a4157600080fd5b505af1158015610a55573d6000803e3d6000fd5b5050505050505050565b6040805160a0810182526041546001600160801b038082168352600160801b91829004811660208401526042549081169383019390935261ffff90830481166060830152600160901b9092049091166080820152600090610abf906118b4565b905090565b6044546001600160a01b0316338114610aef5760405162461bcd60e51b81526004016106249061386a565b610af8846118de565b15610b0c57610b078483611904565b610b16565b610b1684836119a0565b50505050565b6040805160a081018252603f546001600160801b038082168352600160801b918290048116602084015283549081169383019390935261ffff90830481166060830152600160901b9092049091166080820152600090610abf906118b4565b666379da05b6000081565b601660009054906101000a90046001600160a01b0316806001600160a01b031663ff27b1896040518163ffffffff1660e01b8152600401600060405180830381600087803b158015610bd757600080fd5b505af1158015610beb573d6000803e3d6000fd5b50506040805160c081018252600e546001600160a01b039081168252825160208181018552600f5482528301526010548116828401526011548116606083015260125416608082015260135460a0820152905163edc91d4b60e01b815273__PaymentChallengeStandardExit__________935063edc91d4b925061076b9190600090879060040161399f565b6000610c8382611a10565b90505b919050565b604360009054906101000a90046001600160a01b0316806001600160a01b031663ff27b1896040518163ffffffff1660e01b8152600401600060405180830381600087803b158015610cdc57600080fd5b505af1158015610cf0573d6000803e3d6000fd5b50506040805160c0810182526028546001600160a01b0390811682528251602081810185526029548252830152602a54811682840152602b5481166060830152602c54166080820152602d5460a08201529051631287d7e160e31b815273__PaymentChallengeIFENotCanonical_______935063943ebf08925061076b91906017908790600401613944565b601660009054906101000a90046001600160a01b0316806001600160a01b031663ff27b1896040518163ffffffff1660e01b8152600401600060405180830381600087803b158015610dce57600080fd5b505af1158015610de2573d6000803e3d6000fd5b50505050610dee611766565b6001600160801b0316803414610e165760405162461bcd60e51b81526004016106249061382a565b60408051610120810182526001546001600160a01b0390811682526002548116602080840191909152835180820185526003548152838501528351908101845260048054825260608401919091526005548216608084015260065490911660a083015260075460c083015260085460e083015260095461010083015291516332c812a760e11b815273__PaymentStartStandardExit______________92636590254e92610ecb92909160009189910161388a565b60006040518083038186803b158015610ee357600080fd5b505af4158015610ef7573d6000803e3d6000fd5b5050505050806001600160a01b0316634e0f74366040518163ffffffff1660e01b8152600401600060405180830381600087803b1580156107d657600080fd5b604360009054906101000a90046001600160a01b0316806001600160a01b031663ff27b1896040518163ffffffff1660e01b8152600401600060405180830381600087803b158015610f8857600080fd5b505af1158015610f9c573d6000803e3d6000fd5b50505050610fa8610a5f565b6001600160801b0316803414610fd05760405162461bcd60e51b81526004016106249061382a565b6040805161010081018252602080546001600160a01b03908116835283518083018552602154815283830152835191820184526022548252828401919091526023548116606083015260245416608082015260255460a082015260265460c082015260275460e0820152905163082153e960e21b815273__PaymentPiggybackInFlightExit__________916320854fa491610ecb91906017908890600401613a25565b600281565b604360009054906101000a90046001600160a01b03166001600160a01b0316634b0a72bc6040518163ffffffff1660e01b815260040160206040518083038186803b1580156110c757600080fd5b505afa1580156110db573d6000803e3d6000fd5b505050506040513d601f19601f820116820180604052506110ff919081019061273d565b336001600160a01b038216146111275760405162461bcd60e51b81526004016106249061386a565b611138603f8363ffffffff6117c616565b7f63ccac61f03626a0e717e96da239ff8996745b6c4ddcaffdedc88d7ef938f5ec8260405161066d9190613ac9565b6000611171611bf0565b50604080516020810190915282815261118b858583611a2e565b9150505b9392505050565b604360009054906101000a90046001600160a01b0316806001600160a01b031663ff27b1896040518163ffffffff1660e01b8152600401600060405180830381600087803b1580156111e757600080fd5b505af11580156111fb573d6000803e3d6000fd5b50506040805180820182526039548152603a546020820152905163b1cf0fed60e01b815273__PaymentDeleteInFlightExit_____________935063b1cf0fed925061076b919060179087906004016139cd565b604360009054906101000a90046001600160a01b0316806001600160a01b031663ff27b1896040518163ffffffff1660e01b8152600401600060405180830381600087803b1580156112a057600080fd5b505af11580156112b4573d6000803e3d6000fd5b50506040805160a0810182526034546001600160a01b03908116825260355481166020830152603654811682840152603754166060820152603854608082015290516359cff02160e01b815273__PaymentChallengeIFEOutputSpent________93506359cff021925061076b91906017908790600401613972565b604360009054906101000a90046001600160a01b0316806001600160a01b031663ff27b1896040518163ffffffff1660e01b8152600401600060405180830381600087803b15801561138157600080fd5b505af1158015611395573d6000803e3d6000fd5b505050506113a1610b1c565b6001600160801b03168034146113c95760405162461bcd60e51b81526004016106249061382a565b60408051610100810182526018546001600160a01b03908116825282516020818101855260195482528084019190915283519081018452601a54815282840152601b5481166060830152601c5481166080830152601d54811660a0830152601e541660c0820152601f5460e08201529051631ff4513b60e01b815273__PaymentStartInFlightExit______________91631ff4513b91610ecb91906017908890600401613a8a565b6631bced02db000081565b6683734dd0b0800081565b611490611c03565b6001600160a01b0382166000908152601760209081526040808320815161012081018352815460ff81161515825261010090046001600160401b03169381019390935260018101548383015260028101546060840152815160808082019093529293909291840191906003840190600490835b8282101561156a576040805160a081018252600584028601805482526001808201546001600160a01b039081166020808601919091526002840154909116948401949094526003820154606084015260049091015460808301529083529092019101611503565b5050509082525060408051608081019091526020909101906017830160046000835b828210156115f3576040805160a081018252600584028601805482526001808201546001600160a01b03908116602080860191909152600284015490911694840194909452600382015460608401526004909101546080830152908352909201910161158c565b50505090825250602b8201546001600160a01b03166020820152602c8201546040820152602d9091015460609091015292915050565b604360009054906101000a90046001600160a01b0316806001600160a01b031663ff27b1896040518163ffffffff1660e01b8152600401600060405180830381600087803b15801561167a57600080fd5b505af115801561168e573d6000803e3d6000fd5b5050505061169a610a5f565b6001600160801b03168034146116c25760405162461bcd60e51b81526004016106249061382a565b6040805161010081018252602080546001600160a01b03908116835283518083018552602154815283830152835191820184526022548252828401919091526023548116606083015260245416608082015260255460a082015260265460c082015260275460e08201529051631845801f60e11b815273__PaymentPiggybackInFlightExit__________9163308b003e91610ecb919060179088906004016139f5565b6040805160a0810182526014546001600160801b038082168352600160801b91829004811660208401526015549081169383019390935261ffff90830481166060830152600160901b9092049091166080820152600090610abf906118b4565b6040805160a08101825283546001600160801b038082168352600160801b918290048116602084015260018601549081169383019390935261ffff90830481166060830152600160901b90920490911660808201526118259082611a9b565b8154600160801b90046001600160801b031615801590611852575060018201546001600160801b03164210155b15611879578154600160801b81046001600160801b03166001600160801b03199091161782555b81546001600160801b03918216600160801b02911617815560010180546001600160801b0319166001600160401b03426202a3000116179055565b600081604001516001600160801b03164210156118d357508051610c86565b506020810151610c86565b60006118fa6001600160a01b038316609763ffffffff611b5e16565b60ff161592915050565b60408051608081018252600a546001600160a01b039081168252600b5481166020830152600c541681830152600d54606082015290516373c97b6d60e11b815273__PaymentProcessStandardExit____________9163e792f6da91611974919060009087908790600401613a55565b60006040518083038186803b15801561198c57600080fd5b505af41580156107ea573d6000803e3d6000fd5b60408051608081018252603b546001600160a01b039081168252603c5481166020830152603d541681830152603e5460608201529051632309cb3d60e01b815273__PaymentProcessInFlightExit____________91632309cb3d91611974919060179087908790600401613a55565b80516020820120600090610c839060691c609763ffffffff611b6816565b60008315611a7f578151604051600091611a4d918691906020016137f7565b604051602081830303815290604052805190602001209050611a7781611a7285611b75565b611b7e565b91505061118f565b611a938380519060200120611a7284611b75565b949350505050565b6000611aa6836118b4565b90506000826001600160801b031611611ad15760405162461bcd60e51b81526004016106249061384a565b826060015161ffff16816001600160801b031681611aeb57fe5b046001600160801b0316826001600160801b03161015611b1d5760405162461bcd60e51b81526004016106249061385a565b826080015161ffff16816001600160801b031602826001600160801b03161115611b595760405162461bcd60e51b81526004016106249061383a565b505050565b60ff161c60011690565b600160ff919091161b1790565b51612710900690565b6000606983901c61ffff60981b609884901b1617806001600160a01b0381168114611a935760405162461bcd60e51b81526004016106249061387a565b6040805160c081018252600080825260208201819052918101829052606081018290526080810182905260a081019190915290565b6040518060200160405280600081525090565b60405180610120016040528060001515815260200160006001600160401b031681526020016000815260200160008152602001611c3e611c6f565b8152602001611c4b611c6f565b815260200160006001600160a01b0316815260200160008152602001600081525090565b60405180608001604052806004905b611c86611c9c565b815260200190600190039081611c7e5790505090565b6040805160a08101825260008082526020820181905291810182905260608101829052608081019190915290565b803561057081613c04565b805161057081613c04565b600082601f830112611cf157600080fd5b8135611d04611cff82613b19565b613af3565b81815260209384019390925082018360005b83811015611d425781358601611d2c8882611e0f565b8452506020928301929190910190600101611d16565b5050505092915050565b60008083601f840112611d5e57600080fd5b5081356001600160401b03811115611d7557600080fd5b602083019150836020820283011115611d8d57600080fd5b9250929050565b600082601f830112611da557600080fd5b8135611db3611cff82613b19565b91508181835260208401935060208101905083856020840282011115611dd857600080fd5b60005b83811015611d425781611dee8882612732565b8452506020928301929190910190600101611ddb565b803561057081613c1b565b600082601f830112611e2057600080fd5b8135611e2e611cff82613b39565b91508082526020830160208301858383011115611e4a57600080fd5b611e55838284613bc2565b50505092915050565b60006101808284031215611e7157600080fd5b611e7c610180613af3565b905081356001600160401b03811115611e9457600080fd5b611ea084828501611e0f565b8252506020611eb184848301612732565b60208301525060408201356001600160401b03811115611ed057600080fd5b611edc84828501611e0f565b6040830152506060611ef08482850161271c565b60608301525060808201356001600160401b03811115611f0f57600080fd5b611f1b84828501611e0f565b60808301525060a0611f2f8482850161271c565b60a08301525060c08201356001600160401b03811115611f4e57600080fd5b611f5a84828501611e0f565b60c08301525060e0611f6e84828501612732565b60e0830152506101008201356001600160401b03811115611f8e57600080fd5b611f9a84828501611e0f565b610100830152506101208201356001600160401b03811115611fbb57600080fd5b611fc784828501611e0f565b610120830152506101408201356001600160401b03811115611fe857600080fd5b611ff484828501611e0f565b610140830152506101608201356001600160401b0381111561201557600080fd5b61202184828501611e0f565b6101608301525092915050565b6000610100828403121561204157600080fd5b61204c610100613af3565b905081356001600160401b0381111561206457600080fd5b61207084828501611e0f565b82525060206120818484830161271c565b60208301525060408201356001600160401b038111156120a057600080fd5b6120ac84828501611e0f565b60408301525060606120c08482850161271c565b60608301525060808201356001600160401b038111156120df57600080fd5b6120eb84828501611e0f565b60808301525060a08201356001600160401b0381111561210a57600080fd5b61211684828501611e0f565b60a08301525060c061212a84828501612732565b60c08301525060e08201356001600160401b0381111561214957600080fd5b61215584828501611e0f565b60e08301525092915050565b600060e0828403121561217357600080fd5b61217d60e0613af3565b905081356001600160401b0381111561219557600080fd5b6121a184828501611e0f565b82525060208201356001600160401b038111156121bd57600080fd5b6121c984828501611e0f565b60208301525060406121dd84828501612732565b60408301525060608201356001600160401b038111156121fc57600080fd5b61220884828501611e0f565b606083015250608061221c8482850161271c565b60808301525060a08201356001600160401b0381111561223b57600080fd5b61224784828501611e0f565b60a08301525060c08201356001600160401b0381111561226657600080fd5b61227284828501611e0f565b60c08301525092915050565b6000610140828403121561229157600080fd5b61229c610140613af3565b905060006122aa8484612727565b82525060208201356001600160401b038111156122c657600080fd5b6122d284828501611e0f565b60208301525060408201356001600160401b038111156122f157600080fd5b6122fd84828501611e0f565b60408301525060606123118482850161271c565b60608301525060808201356001600160401b0381111561233057600080fd5b61233c84828501611e0f565b60808301525060a08201356001600160401b0381111561235b57600080fd5b61236784828501611e0f565b60a08301525060c08201356001600160401b0381111561238657600080fd5b61239284828501611e0f565b60c08301525060e06123a684828501612732565b60e0830152506101008201356001600160401b038111156123c657600080fd5b6123d284828501611e0f565b610100830152506101208201356001600160401b038111156123f357600080fd5b6123ff84828501611e0f565b6101208301525092915050565b60006040828403121561241e57600080fd5b6124286040613af3565b905081356001600160401b0381111561244057600080fd5b61244c84828501611e0f565b825250602061245d8484830161271c565b60208301525092915050565b60006060828403121561247b57600080fd5b6124856060613af3565b905081356001600160401b0381111561249d57600080fd5b6124a984828501611e0f565b82525060206124ba8484830161271c565b60208301525060408201356001600160401b038111156124d957600080fd5b6124e584828501611e0f565b60408301525092915050565b6000610100828403121561250457600080fd5b61250f610100613af3565b905081356001600160401b0381111561252757600080fd5b61253384828501611e0f565b82525060208201356001600160401b0381111561254f57600080fd5b61255b84828501611ce0565b60208301525060408201356001600160401b0381111561257a57600080fd5b61258684828501611d94565b60408301525060608201356001600160401b038111156125a557600080fd5b6125b184828501611ce0565b60608301525060808201356001600160401b038111156125d057600080fd5b6125dc84828501611ce0565b60808301525060a08201356001600160401b038111156125fb57600080fd5b61260784828501611ce0565b60a08301525060c08201356001600160401b0381111561262657600080fd5b61263284828501611ce0565b60c08301525060e08201356001600160401b0381111561265157600080fd5b61215584828501611ce0565b60006080828403121561266f57600080fd5b6126796080613af3565b905060006126878484612732565b82525060208201356001600160401b038111156126a357600080fd5b6126af84828501611e0f565b60208301525060408201356001600160401b038111156126ce57600080fd5b6126da84828501611e0f565b60408301525060608201356001600160401b038111156126f957600080fd5b61270584828501611e0f565b60608301525092915050565b803561057081613c24565b803561057081613c2d565b803561057081613c36565b803561057081613c3f565b60006020828403121561274f57600080fd5b6000611a938484611cd5565b6000806020838503121561276e57600080fd5b82356001600160401b0381111561278457600080fd5b61279085828601611d4c565b92509250509250929050565b6000806000606084860312156127b157600080fd5b60006127bd8686611e04565b93505060208401356001600160401b038111156127d957600080fd5b6127e586828701611e0f565b92505060406127f686828701612732565b9150509250925092565b60006020828403121561281257600080fd5b81356001600160401b0381111561282857600080fd5b611a9384828501611e0f565b60008060006060848603121561284957600080fd5b83356001600160401b0381111561285f57600080fd5b61286b86828701611e0f565b935050602061287c86828701612732565b92505060408401356001600160401b0381111561289857600080fd5b6127f686828701611e0f565b6000602082840312156128b657600080fd5b81356001600160401b038111156128cc57600080fd5b611a9384828501611e5e565b6000602082840312156128ea57600080fd5b81356001600160401b0381111561290057600080fd5b611a938482850161202e565b60006020828403121561291e57600080fd5b81356001600160401b0381111561293457600080fd5b611a9384828501612161565b60006020828403121561295257600080fd5b81356001600160401b0381111561296857600080fd5b611a938482850161227e565b60006020828403121561298657600080fd5b81356001600160401b0381111561299c57600080fd5b611a938482850161240c565b6000602082840312156129ba57600080fd5b81356001600160401b038111156129d057600080fd5b611a9384828501612469565b6000602082840312156129ee57600080fd5b81356001600160401b03811115612a0457600080fd5b611a93848285016124f1565b600060208284031215612a2257600080fd5b81356001600160401b03811115612a3857600080fd5b611a938482850161265d565b600060208284031215612a5657600080fd5b6000611a938484612711565b600060208284031215612a7457600080fd5b6000611a938484612727565b600080600060608486031215612a9557600080fd5b6000612aa18686612727565b9350506020612ab286828701612732565b92505060406127f686828701611cca565b600061118f8383612c8d565b6000612adb83836135ec565b505060c00190565b6000612aef8383613778565b505060a00190565b6000612b038383612c84565b505060200190565b612b1481613b7c565b82525050565b6000612b2582613b69565b612b2f8185613b73565b935083602082028501612b4185613b60565b8060005b85811015612b7b5784840389528151612b5e8582612ac3565b9450612b6983613b60565b60209a909a0199925050600101612b45565b5091979650505050505050565b6000612b9382613b69565b612b9d8185613b73565b9350612ba883613b60565b8060005b83811015612bd6578151612bc08882612acf565b9750612bcb83613b60565b925050600101612bac565b509495945050505050565b612bea81613b6d565b612bf48184610c86565b9250612bff82613b66565b8060005b838110156107ea578151612c178782612ae3565b9650612c2283613b60565b925050600101612c03565b6000612c3882613b69565b612c428185613b73565b9350612c4d83613b60565b8060005b83811015612bd6578151612c658882612af7565b9750612c7083613b60565b925050600101612c51565b612b1481613b87565b612b1481613b66565b6000612c9882613b69565b612ca28185613b73565b9350612cb2818560208601613bce565b612cbb81613bfa565b9093019392505050565b6000612cd082613b69565b612cda8185610c86565b9350612cea818560208601613bce565b9290920192915050565b612b1481613bb7565b6000612d0a602083613b73565b7f496e7075742076616c7565206d757374206d61746368206d73672e76616c7565815260200192915050565b6000612d43601583613b73565b74084dedcc840e6d2f4ca40d2e640e8dede40d0d2ced605b1b815260200192915050565b6000612d74601883613b73565b7f426f6e642073697a652063616e6e6f74206265207a65726f0000000000000000815260200192915050565b6000612dad601483613b73565b73426f6e642073697a6520697320746f6f206c6f7760601b815260200192915050565b6000612ddd601e83613b73565b7f43616c6c6572206164647265737320697320756e617574686f72697a65640000815260200192915050565b6000612e16601083613b73565b6f457869744964206f766572666c6f777360801b815260200192915050565b80516020830190610b168482612c84565b805161018080845260009190840190612e5f8282612c8d565b9150506020830151612e746020860182612c84565b5060408301518482036040860152612e8c8282612c8d565b9150506060830151612ea160608601826137d4565b5060808301518482036080860152612eb98282612c8d565b91505060a0830151612ece60a08601826137d4565b5060c083015184820360c0860152612ee68282612c8d565b91505060e0830151612efb60e0860182612c84565b50610100830151848203610100860152612f158282612c8d565b915050610120830151848203610120860152612f318282612c8d565b915050610140830151848203610140860152612f4d8282612c8d565b915050610160830151848203610160860152612f698282612c8d565b95945050505050565b805161010080845260009190840190612f8b8282612c8d565b9150506020830151612fa060208601826137d4565b5060408301518482036040860152612fb88282612c8d565b9150506060830151612fcd60608601826137d4565b5060808301518482036080860152612fe58282612c8d565b91505060a083015184820360a0860152612fff8282612c8d565b91505060c083015161301460c0860182612c84565b5060e083015184820360e0860152612f698282612c8d565b805160e0808452600091908401906130448282612c8d565b9150506020830151848203602086015261305e8282612c8d565b91505060408301516130736040860182612c84565b506060830151848203606086015261308b8282612c8d565b91505060808301516130a060808601826137d4565b5060a083015184820360a08601526130b88282612c8d565b91505060c083015184820360c0860152612f698282612c8d565b80516000906101408401906130e785826137cb565b50602083015184820360208601526130ff8282612c8d565b915050604083015184820360408601526131198282612c8d565b915050606083015161312e60608601826137d4565b50608083015184820360808601526131468282612c8d565b91505060a083015184820360a08601526131608282612c8d565b91505060c083015184820360c086015261317a8282612c8d565b91505060e083015161318f60e0860182612c84565b506101008301518482036101008601526131a98282612c8d565b915050610120830151848203610120860152612f698282612c8d565b80516101208301906131d78482612cf4565b5060208201516131ea6020850182612cf4565b5060408201516131fd6040850182612e35565b5060608201516132106060850182612e35565b5060808201516132236080850182612cf4565b5060a082015161323660a0850182612cf4565b5060c082015161324960c0850182612c84565b5060e082015161325c60e0850182612c84565b50610100820151610b16610100850182612c84565b805160c08301906132828482612cf4565b5060208201516132956020850182612e35565b5060408201516132a86040850182612cf4565b5060608201516132bb6060850182612cf4565b5060808201516132ce6080850182612cf4565b5060a0820151610b1660a0850182612c84565b805160a08301906132f28482612cf4565b5060208201516133056020850182612cf4565b5060408201516133186040850182612cf4565b50606082015161332b6060850182612cf4565b506080820151610b166080850182612c84565b8051604083019061334f8482612c84565b506020820151610b166020850182612c84565b80516101008301906133748482612cf4565b5060208201516133876020850182612e35565b50604082015161339a6040850182612e35565b5060608201516133ad6060850182612cf4565b5060808201516133c06080850182612cf4565b5060a08201516133d360a0850182612c84565b5060c08201516133e660c0850182612c84565b5060e0820151610b1660e0850182612c84565b8051608083019061340a8482612cf4565b50602082015161341d6020850182612cf4565b5060408201516134306040850182612cf4565b506060820151610b166060850182612c84565b80516101008301906134558482612cf4565b5060208201516134686020850182612e35565b50604082015161347b6040850182612e35565b50606082015161348e6060850182612cf4565b5060808201516134a16080850182612cf4565b5060a08201516134b460a0850182612cf4565b5060c08201516133e660c0850182612cf4565b9052565b80516105e08301906134dd8482612c7b565b5060208201516134f060208501826137ee565b5060408201516135036040850182612c84565b5060608201516135166060850182612c84565b5060808201516135296080850182612be1565b5060a082015161353d610300850182612be1565b5060c0820151613551610580850182612b0b565b5060e08201516135656105a0850182612c84565b50610100820151610b166105c0850182612c84565b80516040808452600091908401906135928282612c8d565b915050602083015161056c60208601826137d4565b80516060808452600091908401906135bf8282612c8d565b91505060208301516135d460208601826137d4565b5060408301518482036040860152612f698282612c8d565b805160c08301906135fd8482612c7b565b5060208201516136106020850182612c84565b5060408201516136236040850182612c84565b5060608201516136366060850182612b0b565b5060808201516132ce6080850182612c84565b8051610100808452600091908401906136628282612c8d565b9150506020830151848203602086015261367c8282612b1a565b915050604083015184820360408601526136968282612c2d565b915050606083015184820360608601526136b08282612b1a565b915050608083015184820360808601526136ca8282612b1a565b91505060a083015184820360a08601526136e48282612b1a565b91505060c083015184820360c08601526136fe8282612b1a565b91505060e083015184820360e0860152612f698282612b1a565b8051600090608084019061372c8582612c84565b50602083015184820360208601526137448282612c8d565b9150506040830151848203604086015261375e8282612c8d565b91505060608301518482036060860152612f698282612c8d565b805160a08301906137898482612c84565b50602082015161379c6020850182612b0b565b5060408201516137af6040850182612b0b565b50606082015161332b6060850182612c84565b612b1481613b8c565b612b1481613b9f565b612b1481613b98565b612b146137e982613b66565b613b66565b612b1481613bab565b60006138038285612cc5565b915061380f82846137dd565b5060200192915050565b6020808252810161118f8184612b88565b60208082528101610c8381612cfd565b60208082528101610c8381612d36565b60208082528101610c8381612d67565b60208082528101610c8381612da0565b60208082528101610c8381612dd0565b60208082528101610c8381612e09565b610160810161389982866131c5565b6138a76101208301856134c7565b818103610140830152612f698184613718565b61010081016138c98286613271565b6138d660c08301856134c7565b81810360e0830152612f698184612f72565b61014081016138f78288613271565b61390460c08301876134c7565b81810360e08301526139168186612c8d565b9050613926610100830185612c84565b8181036101208301526139398184612c8d565b979650505050505050565b61010081016139538286613271565b61396060c08301856134c7565b81810360e0830152612f698184612e46565b60e0810161398082866132e1565b61398d60a08301856134c7565b81810360c0830152612f69818461302c565b61010081016139ae8286613271565b6139bb60c08301856134c7565b81810360e0830152612f6981846130d2565b608081016139db828661333e565b6139e860408301856134c7565b611a9360608301846137cb565b6101408101613a048286613362565b613a126101008301856134c7565b818103610120830152612f69818461357a565b6101408101613a348286613362565b613a426101008301856134c7565b818103610120830152612f6981846135a7565b60e08101613a6382876133f9565b613a7060808301866134c7565b613a7d60a08301856137cb565b612f6960c0830184612b0b565b6101408101613a998286613443565b613aa76101008301856134c7565b818103610120830152612f698184613649565b6105e0810161057082846134cb565b6020810161057082846137c2565b6020810161057082846137cb565b6020810161057082846137d4565b6040518181016001600160401b0381118282101715613b1157600080fd5b604052919050565b60006001600160401b03821115613b2f57600080fd5b5060209081020190565b60006001600160401b03821115613b4f57600080fd5b506020601f91909101601f19160190565b60200190565b90565b5190565b50600490565b90815260200190565b6000610c8382613b9f565b151590565b6001600160801b031690565b61ffff1690565b6001600160a01b031690565b6001600160401b031690565b6000610c8382613b7c565b82818337506000910152565b60005b83811015613be9578181015183820152602001613bd1565b83811115610b165750506000910152565b601f01601f191690565b613c0d81613b7c565b8114613c1857600080fd5b50565b613c0d81613b87565b613c0d81613b8c565b613c0d81613b98565b613c0d81613b9f565b613c0d81613b66565b613c50611c9c565b506040805160a0810182526001600160801b03949094168452600060208501526780000000000000009084015261ffff91821660608401521660808201529056fea365627a7a72315820ede2f975f8d7974a1c1194d406b4f97b1d51049e8ae3d187f407cb33a3e98af06c6578706572696d656e74616cf564736f6c634300050b0040",
  "source": "pragma solidity 0.5.11;\npragma experimental ABIEncoderV2;\n\nimport \"./PaymentExitGameArgs.sol\";\nimport \"./routers/PaymentStandardExitRouter.sol\";\nimport \"./routers/PaymentInFlightExitRouter.sol\";\nimport \"../utils/ExitId.sol\";\nimport \"../../framework/interfaces/IExitProcessor.sol\";\nimport \"../../framework/PlasmaFramework.sol\";\nimport \"../../utils/OnlyFromAddress.sol\";\n\n/**\n * @notice The exit game contract implementation for Payment Transaction\n */\ncontract PaymentExitGame is IExitProcessor, OnlyFromAddress, PaymentStandardExitRouter, PaymentInFlightExitRouter {\n    PlasmaFramework private plasmaFramework;\n\n    /**\n     * @dev use struct PaymentExitGameArgs to avoid stack too deep compilation error.\n     */\n    constructor(PaymentExitGameArgs.Args memory args)\n        public\n        PaymentStandardExitRouter(args)\n        PaymentInFlightExitRouter(args)\n    {\n        plasmaFramework = args.framework;\n    }\n\n    /**\n     * @notice Callback processes exit function for the PlasmaFramework to call\n     * @param exitId The exit ID\n     * @param token Token (ERC20 address or address(0) for ETH) of the exiting output\n     */\n    function processExit(uint160 exitId, uint256, address token) external onlyFrom(address(plasmaFramework)) {\n        if (ExitId.isStandardExit(exitId)) {\n            PaymentStandardExitRouter.processStandardExit(exitId, token);\n        } else {\n            PaymentInFlightExitRouter.processInFlightExit(exitId, token);\n        }\n    }\n\n    /**\n     * @notice Helper function to compute the standard exit ID\n     */\n    function getStandardExitId(bool _isDeposit, bytes memory _txBytes, uint256 _utxoPos)\n        public\n        pure\n        returns (uint160)\n    {\n        UtxoPosLib.UtxoPos memory utxoPos = UtxoPosLib.UtxoPos(_utxoPos);\n        return ExitId.getStandardExitId(_isDeposit, _txBytes, utxoPos);\n    }\n\n    /**\n     * @notice Helper function to compute the in-flight exit ID\n     */\n    function getInFlightExitId(bytes memory _txBytes)\n        public\n        pure\n        returns (uint160)\n    {\n        return ExitId.getInFlightExitId(_txBytes);\n    }\n}\n",
  "sourcePath": "/Users/nocholas/plasma-contracts/plasma_framework/contracts/src/exits/payment/PaymentExitGame.sol",
  "compiler": {
    "name": "solc",
    "version": "0.5.11+commit.c082d0b4.Emscripten.clang"
  },
  "schemaVersion": "3.0.16",
  "updatedAt": "2019-12-18T05:37:47.079Z",
  "devdoc": {
    "methods": {
      "challengeInFlightExitInputSpent((bytes,uint16,bytes,uint16,bytes,bytes,uint256,bytes))": {
        "params": {
          "args": "Argument data to challenge (see also struct 'ChallengeInputSpentArgs')"
        }
      },
      "challengeInFlightExitNotCanonical((bytes,uint256,bytes,uint16,bytes,uint16,bytes,uint256,bytes,bytes,bytes,bytes))": {
        "params": {
          "args": "Input argument data to challenge (see also struct 'ChallengeCanonicityArgs')"
        }
      },
      "challengeInFlightExitOutputSpent((bytes,bytes,uint256,bytes,uint16,bytes,bytes))": {
        "params": {
          "args": "Argument data to challenge (see also struct 'ChallengeOutputSpent')"
        }
      },
      "constructor": {
        "details": "use struct PaymentExitGameArgs to avoid stack too deep compilation error."
      },
      "deleteNonPiggybackedInFlightExit(uint160)": {
        "details": "Since IFE is enqueued during piggyback, a non-piggybacked IFE means that it will never be processed.     This means that the IFE bond will never be returned.     see: https://github.com/omisego/plasma-contracts/issues/440",
        "params": {
          "exitId": "The exitId of the in-flight exit"
        }
      },
      "inFlightExits(uint160)": {
        "params": {
          "exitId": "The exit ID of the in-flight exit"
        }
      },
      "piggybackInFlightExitOnInput((bytes,uint16))": {
        "params": {
          "args": "Input argument data to piggyback (see also struct 'PiggybackInFlightExitOnInputArgs')"
        }
      },
      "piggybackInFlightExitOnOutput((bytes,uint16,bytes))": {
        "params": {
          "args": "Input argument data to piggyback (see also struct 'PiggybackInFlightExitOnOutputArgs')"
        }
      },
      "processExit(uint160,uint256,address)": {
        "params": {
          "exitId": "The exit ID",
          "token": "Token (ERC20 address or address(0) for ETH) of the exiting output"
        }
      },
      "respondToNonCanonicalChallenge(bytes,uint256,bytes)": {
        "params": {
          "inFlightTx": "The RLP-encoded in-flight transaction",
          "inFlightTxInclusionProof": "Inclusion proof for the in-flight tx",
          "inFlightTxPos": "The UTXO position of the in-flight exit. The outputIndex should be set to 0."
        }
      },
      "standardExits(uint160[])": {
        "params": {
          "exitIds": "Exit IDs of the standard exits"
        }
      },
      "startInFlightExit((bytes,bytes[],uint256[],bytes[],bytes[],bytes[],bytes[],bytes[]))": {
        "params": {
          "args": "Input argument data to challenge (see also struct 'StartExitArgs')"
        }
      },
      "updatePiggybackBondSize(uint128)": {
        "params": {
          "newBondSize": "The new bond size"
        }
      },
      "updateStartIFEBondSize(uint128)": {
        "params": {
          "newBondSize": "The new bond size"
        }
      },
      "updateStartStandardExitBondSize(uint128)": {
        "params": {
          "newBondSize": "The new bond size"
        }
      }
    }
  },
  "userdoc": {
    "methods": {
      "challengeInFlightExitInputSpent((bytes,uint16,bytes,uint16,bytes,bytes,uint256,bytes))": {
        "notice": "Challenges an exit from in-flight transaction input"
      },
      "challengeInFlightExitNotCanonical((bytes,uint256,bytes,uint16,bytes,uint16,bytes,uint256,bytes,bytes,bytes,bytes))": {
        "notice": "Challenges an in-flight exit to be non-canonical"
      },
      "challengeInFlightExitOutputSpent((bytes,bytes,uint256,bytes,uint16,bytes,bytes))": {
        "notice": "Challenges an exit from in-flight transaction output"
      },
      "challengeStandardExit((uint160,bytes,bytes,uint16,bytes,bytes,bytes,uint256,bytes,bytes))": {
        "notice": "Challenge a standard exit by showing the exiting output was spent"
      },
      "deleteNonPiggybackedInFlightExit(uint160)": {
        "notice": "Deletes in-flight exit if the first phase has passed and not being piggybacked"
      },
      "getInFlightExitId(bytes)": {
        "notice": "Helper function to compute the in-flight exit ID"
      },
      "getStandardExitId(bool,bytes,uint256)": {
        "notice": "Helper function to compute the standard exit ID"
      },
      "inFlightExits(uint160)": {
        "notice": "Getter functions to retrieve in-flight exit data of the PaymentExitGame"
      },
      "piggybackBondSize()": {
        "notice": "Retrieves the piggyback bond size"
      },
      "piggybackInFlightExitOnInput((bytes,uint16))": {
        "notice": "Piggyback on an input of an in-flight exiting tx. Processed only if the in-flight exit is non-canonical."
      },
      "piggybackInFlightExitOnOutput((bytes,uint16,bytes))": {
        "notice": "Piggyback on an output of an in-flight exiting tx. Processed only if the in-flight exit is canonical."
      },
      "processExit(uint160,uint256,address)": {
        "notice": "Callback processes exit function for the PlasmaFramework to call"
      },
      "respondToNonCanonicalChallenge(bytes,uint256,bytes)": {
        "notice": "Respond to a non-canonical challenge by providing its position and by proving its correctness"
      },
      "standardExits(uint160[])": {
        "notice": "Getter retrieves standard exit data of the PaymentExitGame"
      },
      "startIFEBondSize()": {
        "notice": "Retrieves the in-flight exit bond size"
      },
      "startInFlightExit((bytes,bytes[],uint256[],bytes[],bytes[],bytes[],bytes[],bytes[]))": {
        "notice": "Starts withdrawal from a transaction that may be in-flight"
      },
      "startStandardExit((uint256,bytes,bytes,bytes))": {
        "notice": "Starts a standard exit of a given output, using output-age priority"
      },
      "startStandardExitBondSize()": {
        "notice": "Retrieves the standard exit bond size"
      },
      "updatePiggybackBondSize(uint128)": {
        "notice": "Updates the piggyback bond size, taking two days to become effective"
      },
      "updateStartIFEBondSize(uint128)": {
        "notice": "Updates the in-flight exit bond size, taking two days to become effective."
      },
      "updateStartStandardExitBondSize(uint128)": {
        "notice": "Updates the standard exit bond size, taking two days to become effective"
      }
    },
    "notice": "The exit game contract implementation for Payment Transaction"
  }
}