{
  "contractName": "PaymentExitGame",
  "abi": [
    {
      "constant": false,
      "inputs": [
        {
          "internalType": "uint128",
          "name": "newBondSize",
          "type": "uint128"
        }
      ],
      "name": "updateStartStandardExitBondSize",
      "outputs": [],
      "payable": false,
      "stateMutability": "nonpayable",
      "type": "function"
    },
    {
      "constant": false,
      "inputs": [
        {
          "components": [
            {
              "internalType": "bytes",
              "name": "inFlightTx",
              "type": "bytes"
            },
            {
              "internalType": "uint16",
              "name": "inFlightTxInputIndex",
              "type": "uint16"
            },
            {
              "internalType": "bytes",
              "name": "challengingTx",
              "type": "bytes"
            },
            {
              "internalType": "uint16",
              "name": "challengingTxInputIndex",
              "type": "uint16"
            },
            {
              "internalType": "bytes",
              "name": "challengingTxWitness",
              "type": "bytes"
            },
            {
              "internalType": "bytes",
              "name": "inputTx",
              "type": "bytes"
            },
            {
              "internalType": "uint256",
              "name": "inputUtxoPos",
              "type": "uint256"
            },
            {
              "internalType": "bytes",
              "name": "spendingConditionOptionalArgs",
              "type": "bytes"
            }
          ],
          "internalType": "struct PaymentInFlightExitRouterArgs.ChallengeInputSpentArgs",
          "name": "args",
          "type": "tuple"
        }
      ],
      "name": "challengeInFlightExitInputSpent",
      "outputs": [],
      "payable": false,
      "stateMutability": "nonpayable",
      "type": "function"
    },
    {
      "constant": false,
      "inputs": [
        {
          "internalType": "uint128",
          "name": "newBondSize",
          "type": "uint128"
        }
      ],
      "name": "updatePiggybackBondSize",
      "outputs": [],
      "payable": false,
      "stateMutability": "nonpayable",
      "type": "function"
    },
    {
      "constant": false,
      "inputs": [
        {
          "internalType": "bytes",
          "name": "inFlightTx",
          "type": "bytes"
        },
        {
          "internalType": "uint256",
          "name": "inFlightTxPos",
          "type": "uint256"
        },
        {
          "internalType": "bytes",
          "name": "inFlightTxInclusionProof",
          "type": "bytes"
        }
      ],
      "name": "respondToNonCanonicalChallenge",
      "outputs": [],
      "payable": false,
      "stateMutability": "nonpayable",
      "type": "function"
    },
    {
      "constant": true,
      "inputs": [],
      "name": "piggybackBondSize",
      "outputs": [
        {
          "internalType": "uint128",
          "name": "",
          "type": "uint128"
        }
      ],
      "payable": false,
      "stateMutability": "view",
      "type": "function"
    },
    {
      "constant": false,
      "inputs": [
        {
          "components": [
            {
              "internalType": "uint192",
              "name": "utxoPos",
              "type": "uint192"
            },
            {
              "internalType": "bytes",
              "name": "rlpOutputTx",
              "type": "bytes"
            },
            {
              "internalType": "bytes",
              "name": "outputGuardPreimage",
              "type": "bytes"
            },
            {
              "internalType": "bytes",
              "name": "outputTxInclusionProof",
              "type": "bytes"
            }
          ],
          "internalType": "struct PaymentStandardExitRouterArgs.StartStandardExitArgs",
          "name": "args",
          "type": "tuple"
        }
      ],
      "name": "startStandardExit",
      "outputs": [],
      "payable": true,
      "stateMutability": "payable",
      "type": "function"
    },
    {
      "constant": true,
      "inputs": [
        {
          "internalType": "uint160",
          "name": "exitId",
          "type": "uint160"
        }
      ],
      "name": "standardExits",
      "outputs": [
        {
          "components": [
            {
              "internalType": "bool",
              "name": "exitable",
              "type": "bool"
            },
            {
              "internalType": "uint192",
              "name": "utxoPos",
              "type": "uint192"
            },
            {
              "internalType": "bytes32",
              "name": "outputId",
              "type": "bytes32"
            },
            {
              "internalType": "address payable",
              "name": "exitTarget",
              "type": "address"
            },
            {
              "internalType": "uint256",
              "name": "amount",
              "type": "uint256"
            },
            {
              "internalType": "uint256",
              "name": "bondSize",
              "type": "uint256"
            }
          ],
          "internalType": "struct PaymentExitDataModel.StandardExit",
          "name": "",
          "type": "tuple"
        }
      ],
      "payable": false,
      "stateMutability": "view",
      "type": "function"
    },
    {
      "constant": true,
      "inputs": [],
      "name": "startIFEBondSize",
      "outputs": [
        {
          "internalType": "uint128",
          "name": "",
          "type": "uint128"
        }
      ],
      "payable": false,
      "stateMutability": "view",
      "type": "function"
    },
    {
      "constant": true,
      "inputs": [],
      "name": "INITIAL_PB_BOND_SIZE",
      "outputs": [
        {
          "internalType": "uint128",
          "name": "",
          "type": "uint128"
        }
      ],
      "payable": false,
      "stateMutability": "view",
      "type": "function"
    },
    {
      "constant": false,
      "inputs": [
        {
          "components": [
            {
              "internalType": "uint160",
              "name": "exitId",
              "type": "uint160"
            },
            {
              "internalType": "bytes",
              "name": "exitingTx",
              "type": "bytes"
            },
            {
              "internalType": "bytes",
              "name": "challengeTx",
              "type": "bytes"
            },
            {
              "internalType": "uint16",
              "name": "inputIndex",
              "type": "uint16"
            },
            {
              "internalType": "bytes",
              "name": "witness",
              "type": "bytes"
            },
            {
              "internalType": "bytes",
              "name": "spendingConditionOptionalArgs",
              "type": "bytes"
            },
            {
              "internalType": "bytes",
              "name": "outputGuardPreimage",
              "type": "bytes"
            },
            {
              "internalType": "uint256",
              "name": "challengeTxPos",
              "type": "uint256"
            },
            {
              "internalType": "bytes",
              "name": "challengeTxInclusionProof",
              "type": "bytes"
            },
            {
              "internalType": "bytes",
              "name": "challengeTxConfirmSig",
              "type": "bytes"
            }
          ],
          "internalType": "struct PaymentStandardExitRouterArgs.ChallengeStandardExitArgs",
          "name": "args",
          "type": "tuple"
        }
      ],
      "name": "challengeStandardExit",
      "outputs": [],
      "payable": true,
      "stateMutability": "payable",
      "type": "function"
    },
    {
      "constant": false,
      "inputs": [
        {
          "components": [
            {
              "internalType": "bytes",
              "name": "inputTx",
              "type": "bytes"
            },
            {
              "internalType": "uint256",
              "name": "inputUtxoPos",
              "type": "uint256"
            },
            {
              "internalType": "bytes",
              "name": "inFlightTx",
              "type": "bytes"
            },
            {
              "internalType": "uint16",
              "name": "inFlightTxInputIndex",
              "type": "uint16"
            },
            {
              "internalType": "bytes",
              "name": "competingTx",
              "type": "bytes"
            },
            {
              "internalType": "uint16",
              "name": "competingTxInputIndex",
              "type": "uint16"
            },
            {
              "internalType": "bytes",
              "name": "outputGuardPreimage",
              "type": "bytes"
            },
            {
              "internalType": "uint256",
              "name": "competingTxPos",
              "type": "uint256"
            },
            {
              "internalType": "bytes",
              "name": "competingTxInclusionProof",
              "type": "bytes"
            },
            {
              "internalType": "bytes",
              "name": "competingTxWitness",
              "type": "bytes"
            },
            {
              "internalType": "bytes",
              "name": "competingTxConfirmSig",
              "type": "bytes"
            },
            {
              "internalType": "bytes",
              "name": "competingTxSpendingConditionOptionalArgs",
              "type": "bytes"
            }
          ],
          "internalType": "struct PaymentInFlightExitRouterArgs.ChallengeCanonicityArgs",
          "name": "args",
          "type": "tuple"
        }
      ],
      "name": "challengeInFlightExitNotCanonical",
      "outputs": [],
      "payable": false,
      "stateMutability": "nonpayable",
      "type": "function"
    },
    {
      "constant": false,
      "inputs": [
        {
          "components": [
            {
              "internalType": "bytes",
              "name": "inFlightTx",
              "type": "bytes"
            },
            {
              "internalType": "uint16",
              "name": "outputIndex",
              "type": "uint16"
            },
            {
              "internalType": "bytes",
              "name": "outputGuardPreimage",
              "type": "bytes"
            }
          ],
          "internalType": "struct PaymentInFlightExitRouterArgs.PiggybackInFlightExitOnOutputArgs",
          "name": "args",
          "type": "tuple"
        }
      ],
      "name": "piggybackInFlightExitOnOutput",
      "outputs": [],
      "payable": true,
      "stateMutability": "payable",
      "type": "function"
    },
    {
      "constant": true,
      "inputs": [],
      "name": "BOND_LOWER_BOUND_DIVISOR",
      "outputs": [
        {
          "internalType": "uint16",
          "name": "",
          "type": "uint16"
        }
      ],
      "payable": false,
      "stateMutability": "view",
      "type": "function"
    },
    {
      "constant": true,
      "inputs": [],
      "name": "BOND_UPPER_BOUND_MULTIPLIER",
      "outputs": [
        {
          "internalType": "uint16",
          "name": "",
          "type": "uint16"
        }
      ],
      "payable": false,
      "stateMutability": "view",
      "type": "function"
    },
    {
      "constant": false,
      "inputs": [
        {
          "internalType": "uint128",
          "name": "newBondSize",
          "type": "uint128"
        }
      ],
      "name": "updateStartIFEBondSize",
      "outputs": [],
      "payable": false,
      "stateMutability": "nonpayable",
      "type": "function"
    },
    {
      "constant": false,
      "inputs": [
        {
          "components": [
            {
              "internalType": "bytes",
              "name": "inFlightTx",
              "type": "bytes"
            },
            {
              "internalType": "bytes",
              "name": "inFlightTxInclusionProof",
              "type": "bytes"
            },
            {
              "internalType": "uint256",
              "name": "outputUtxoPos",
              "type": "uint256"
            },
            {
              "internalType": "bytes",
              "name": "challengingTx",
              "type": "bytes"
            },
            {
              "internalType": "uint16",
              "name": "challengingTxInputIndex",
              "type": "uint16"
            },
            {
              "internalType": "bytes",
              "name": "challengingTxWitness",
              "type": "bytes"
            },
            {
              "internalType": "bytes",
              "name": "spendingConditionOptionalArgs",
              "type": "bytes"
            }
          ],
          "internalType": "struct PaymentInFlightExitRouterArgs.ChallengeOutputSpent",
          "name": "args",
          "type": "tuple"
        }
      ],
      "name": "challengeInFlightExitOutputSpent",
      "outputs": [],
      "payable": false,
      "stateMutability": "nonpayable",
      "type": "function"
    },
    {
      "constant": false,
      "inputs": [
        {
          "components": [
            {
              "internalType": "bytes",
              "name": "inFlightTx",
              "type": "bytes"
            },
            {
              "internalType": "bytes[]",
              "name": "inputTxs",
              "type": "bytes[]"
            },
            {
              "internalType": "uint256[]",
              "name": "inputUtxosPos",
              "type": "uint256[]"
            },
            {
              "internalType": "bytes[]",
              "name": "outputGuardPreimagesForInputs",
              "type": "bytes[]"
            },
            {
              "internalType": "bytes[]",
              "name": "inputTxsInclusionProofs",
              "type": "bytes[]"
            },
            {
              "internalType": "bytes[]",
              "name": "inputTxsConfirmSigs",
              "type": "bytes[]"
            },
            {
              "internalType": "bytes[]",
              "name": "inFlightTxWitnesses",
              "type": "bytes[]"
            },
            {
              "internalType": "bytes[]",
              "name": "inputSpendingConditionOptionalArgs",
              "type": "bytes[]"
            }
          ],
          "internalType": "struct PaymentInFlightExitRouterArgs.StartExitArgs",
          "name": "args",
          "type": "tuple"
        }
      ],
      "name": "startInFlightExit",
      "outputs": [],
      "payable": true,
      "stateMutability": "payable",
      "type": "function"
    },
    {
      "constant": true,
      "inputs": [],
      "name": "INITIAL_BOND_SIZE",
      "outputs": [
        {
          "internalType": "uint128",
          "name": "",
          "type": "uint128"
        }
      ],
      "payable": false,
      "stateMutability": "view",
      "type": "function"
    },
    {
      "constant": true,
      "inputs": [],
      "name": "INITIAL_IFE_BOND_SIZE",
      "outputs": [
        {
          "internalType": "uint128",
          "name": "",
          "type": "uint128"
        }
      ],
      "payable": false,
      "stateMutability": "view",
      "type": "function"
    },
    {
      "constant": true,
      "inputs": [
        {
          "internalType": "uint160",
          "name": "exitId",
          "type": "uint160"
        }
      ],
      "name": "inFlightExits",
      "outputs": [
        {
          "components": [
            {
              "internalType": "bool",
              "name": "isCanonical",
              "type": "bool"
            },
            {
              "internalType": "uint64",
              "name": "exitStartTimestamp",
              "type": "uint64"
            },
            {
              "internalType": "uint256",
              "name": "exitMap",
              "type": "uint256"
            },
            {
              "internalType": "uint256",
              "name": "position",
              "type": "uint256"
            },
            {
              "components": [
                {
                  "internalType": "bytes32",
                  "name": "outputId",
                  "type": "bytes32"
                },
                {
                  "internalType": "address payable",
                  "name": "exitTarget",
                  "type": "address"
                },
                {
                  "internalType": "address",
                  "name": "token",
                  "type": "address"
                },
                {
                  "internalType": "uint256",
                  "name": "amount",
                  "type": "uint256"
                },
                {
                  "internalType": "uint256",
                  "name": "piggybackBondSize",
                  "type": "uint256"
                }
              ],
              "internalType": "struct PaymentExitDataModel.WithdrawData[4]",
              "name": "inputs",
              "type": "tuple[4]"
            },
            {
              "components": [
                {
                  "internalType": "bytes32",
                  "name": "outputId",
                  "type": "bytes32"
                },
                {
                  "internalType": "address payable",
                  "name": "exitTarget",
                  "type": "address"
                },
                {
                  "internalType": "address",
                  "name": "token",
                  "type": "address"
                },
                {
                  "internalType": "uint256",
                  "name": "amount",
                  "type": "uint256"
                },
                {
                  "internalType": "uint256",
                  "name": "piggybackBondSize",
                  "type": "uint256"
                }
              ],
              "internalType": "struct PaymentExitDataModel.WithdrawData[4]",
              "name": "outputs",
              "type": "tuple[4]"
            },
            {
              "internalType": "address payable",
              "name": "bondOwner",
              "type": "address"
            },
            {
              "internalType": "uint256",
              "name": "bondSize",
              "type": "uint256"
            },
            {
              "internalType": "uint256",
              "name": "oldestCompetitorPosition",
              "type": "uint256"
            }
          ],
          "internalType": "struct PaymentExitDataModel.InFlightExit",
          "name": "",
          "type": "tuple"
        }
      ],
      "payable": false,
      "stateMutability": "view",
      "type": "function"
    },
    {
      "constant": false,
      "inputs": [
        {
          "components": [
            {
              "internalType": "bytes",
              "name": "inFlightTx",
              "type": "bytes"
            },
            {
              "internalType": "uint16",
              "name": "inputIndex",
              "type": "uint16"
            }
          ],
          "internalType": "struct PaymentInFlightExitRouterArgs.PiggybackInFlightExitOnInputArgs",
          "name": "args",
          "type": "tuple"
        }
      ],
      "name": "piggybackInFlightExitOnInput",
      "outputs": [],
      "payable": true,
      "stateMutability": "payable",
      "type": "function"
    },
    {
      "constant": true,
      "inputs": [],
      "name": "startStandardExitBondSize",
      "outputs": [
        {
          "internalType": "uint128",
          "name": "",
          "type": "uint128"
        }
      ],
      "payable": false,
      "stateMutability": "view",
      "type": "function"
    },
    {
      "inputs": [
        {
          "internalType": "contract PlasmaFramework",
          "name": "framework",
          "type": "address"
        },
        {
          "internalType": "uint256",
          "name": "ethVaultId",
          "type": "uint256"
        },
        {
          "internalType": "uint256",
          "name": "erc20VaultId",
          "type": "uint256"
        },
        {
          "internalType": "contract OutputGuardHandlerRegistry",
          "name": "outputGuardHandlerRegistry",
          "type": "address"
        },
        {
          "internalType": "contract SpendingConditionRegistry",
          "name": "spendingConditionRegistry",
          "type": "address"
        },
        {
          "internalType": "contract IStateTransitionVerifier",
          "name": "stateTransitionVerifier",
          "type": "address"
        },
        {
          "internalType": "contract ITxFinalizationVerifier",
          "name": "txFinalizationVerifier",
          "type": "address"
        },
        {
          "internalType": "uint256",
          "name": "supportTxType",
          "type": "uint256"
        }
      ],
      "payable": false,
      "stateMutability": "nonpayable",
      "type": "constructor"
    },
    {
      "anonymous": false,
      "inputs": [
        {
          "indexed": false,
          "internalType": "uint128",
          "name": "bondSize",
          "type": "uint128"
        }
      ],
      "name": "IFEBondUpdated",
      "type": "event"
    },
    {
      "anonymous": false,
      "inputs": [
        {
          "indexed": false,
          "internalType": "uint128",
          "name": "bondSize",
          "type": "uint128"
        }
      ],
      "name": "PiggybackBondUpdated",
      "type": "event"
    },
    {
      "anonymous": false,
      "inputs": [
        {
          "indexed": true,
          "internalType": "address",
          "name": "initiator",
          "type": "address"
        },
        {
          "indexed": false,
          "internalType": "bytes32",
          "name": "txHash",
          "type": "bytes32"
        }
      ],
      "name": "InFlightExitStarted",
      "type": "event"
    },
    {
      "anonymous": false,
      "inputs": [
        {
          "indexed": true,
          "internalType": "address",
          "name": "exitTarget",
          "type": "address"
        },
        {
          "indexed": false,
          "internalType": "bytes32",
          "name": "txHash",
          "type": "bytes32"
        },
        {
          "indexed": false,
          "internalType": "uint16",
          "name": "inputIndex",
          "type": "uint16"
        }
      ],
      "name": "InFlightExitInputPiggybacked",
      "type": "event"
    },
    {
      "anonymous": false,
      "inputs": [
        {
          "indexed": true,
          "internalType": "uint160",
          "name": "exitId",
          "type": "uint160"
        },
        {
          "indexed": false,
          "internalType": "address",
          "name": "token",
          "type": "address"
        }
      ],
      "name": "InFlightExitOmitted",
      "type": "event"
    },
    {
      "anonymous": false,
      "inputs": [
        {
          "indexed": true,
          "internalType": "uint160",
          "name": "exitId",
          "type": "uint160"
        },
        {
          "indexed": false,
          "internalType": "uint16",
          "name": "outputIndex",
          "type": "uint16"
        }
      ],
      "name": "InFlightExitOutputWithdrawn",
      "type": "event"
    },
    {
      "anonymous": false,
      "inputs": [
        {
          "indexed": true,
          "internalType": "uint160",
          "name": "exitId",
          "type": "uint160"
        },
        {
          "indexed": false,
          "internalType": "uint16",
          "name": "inputIndex",
          "type": "uint16"
        }
      ],
      "name": "InFlightExitInputWithdrawn",
      "type": "event"
    },
    {
      "anonymous": false,
      "inputs": [
        {
          "indexed": true,
          "internalType": "address",
          "name": "exitTarget",
          "type": "address"
        },
        {
          "indexed": false,
          "internalType": "bytes32",
          "name": "txHash",
          "type": "bytes32"
        },
        {
          "indexed": false,
          "internalType": "uint16",
          "name": "outputIndex",
          "type": "uint16"
        }
      ],
      "name": "InFlightExitOutputPiggybacked",
      "type": "event"
    },
    {
      "anonymous": false,
      "inputs": [
        {
          "indexed": true,
          "internalType": "address",
          "name": "challenger",
          "type": "address"
        },
        {
          "indexed": false,
          "internalType": "bytes32",
          "name": "txHash",
          "type": "bytes32"
        },
        {
          "indexed": false,
          "internalType": "uint256",
          "name": "challengeTxPosition",
          "type": "uint256"
        }
      ],
      "name": "InFlightExitChallenged",
      "type": "event"
    },
    {
      "anonymous": false,
      "inputs": [
        {
          "indexed": false,
          "internalType": "address",
          "name": "challenger",
          "type": "address"
        },
        {
          "indexed": false,
          "internalType": "bytes32",
          "name": "txHash",
          "type": "bytes32"
        },
        {
          "indexed": false,
          "internalType": "uint256",
          "name": "challengeTxPosition",
          "type": "uint256"
        }
      ],
      "name": "InFlightExitChallengeResponded",
      "type": "event"
    },
    {
      "anonymous": false,
      "inputs": [
        {
          "indexed": true,
          "internalType": "address",
          "name": "challenger",
          "type": "address"
        },
        {
          "indexed": false,
          "internalType": "bytes32",
          "name": "txHash",
          "type": "bytes32"
        },
        {
          "indexed": false,
          "internalType": "uint16",
          "name": "inputIndex",
          "type": "uint16"
        }
      ],
      "name": "InFlightExitInputBlocked",
      "type": "event"
    },
    {
      "anonymous": false,
      "inputs": [
        {
          "indexed": true,
          "internalType": "address",
          "name": "challenger",
          "type": "address"
        },
        {
          "indexed": false,
          "internalType": "bytes32",
          "name": "ifeTxHash",
          "type": "bytes32"
        },
        {
          "indexed": false,
          "internalType": "uint16",
          "name": "outputIndex",
          "type": "uint16"
        }
      ],
      "name": "InFlightExitOutputBlocked",
      "type": "event"
    },
    {
      "anonymous": false,
      "inputs": [
        {
          "indexed": false,
          "internalType": "uint128",
          "name": "bondSize",
          "type": "uint128"
        }
      ],
      "name": "StandardExitBondUpdated",
      "type": "event"
    },
    {
      "anonymous": false,
      "inputs": [
        {
          "indexed": true,
          "internalType": "address",
          "name": "owner",
          "type": "address"
        },
        {
          "indexed": false,
          "internalType": "uint160",
          "name": "exitId",
          "type": "uint160"
        }
      ],
      "name": "ExitStarted",
      "type": "event"
    },
    {
      "anonymous": false,
      "inputs": [
        {
          "indexed": true,
          "internalType": "uint256",
          "name": "utxoPos",
          "type": "uint256"
        }
      ],
      "name": "ExitChallenged",
      "type": "event"
    },
    {
      "anonymous": false,
      "inputs": [
        {
          "indexed": true,
          "internalType": "uint160",
          "name": "exitId",
          "type": "uint160"
        }
      ],
      "name": "ExitOmitted",
      "type": "event"
    },
    {
      "anonymous": false,
      "inputs": [
        {
          "indexed": true,
          "internalType": "uint160",
          "name": "exitId",
          "type": "uint160"
        }
      ],
      "name": "ExitFinalized",
      "type": "event"
    },
    {
      "constant": false,
      "inputs": [
        {
          "internalType": "uint160",
          "name": "exitId",
          "type": "uint160"
        },
        {
          "internalType": "uint256",
          "name": "",
          "type": "uint256"
        },
        {
          "internalType": "address",
          "name": "token",
          "type": "address"
        }
      ],
      "name": "processExit",
      "outputs": [],
      "payable": false,
      "stateMutability": "nonpayable",
      "type": "function"
    },
    {
      "constant": true,
      "inputs": [
        {
          "internalType": "bool",
          "name": "_isDeposit",
          "type": "bool"
        },
        {
          "internalType": "bytes",
          "name": "_txBytes",
          "type": "bytes"
        },
        {
          "internalType": "uint256",
          "name": "_utxoPos",
          "type": "uint256"
        }
      ],
      "name": "getStandardExitId",
      "outputs": [
        {
          "internalType": "uint160",
          "name": "",
          "type": "uint160"
        }
      ],
      "payable": false,
      "stateMutability": "pure",
      "type": "function"
    },
    {
      "constant": true,
      "inputs": [
        {
          "internalType": "bytes",
          "name": "_txBytes",
          "type": "bytes"
        }
      ],
      "name": "getInFlightExitId",
      "outputs": [
        {
          "internalType": "uint160",
          "name": "",
          "type": "uint160"
        }
      ],
      "payable": false,
      "stateMutability": "pure",
      "type": "function"
    }
  ],
  "bytecode": "0x60806040523480156200001157600080fd5b50604051620052be380380620052be833981016040819052620000349162001450565b87878787878787878f8f8f8f8f8e85601360006101000a8154816001600160a01b0302191690836001600160a01b031602179055506000866001600160a01b0316638c64ea4a876040518263ffffffff1660e01b8152600401620000999190620017fa565b60206040518083038186803b158015620000b257600080fd5b505afa158015620000c7573d6000803e3d6000fd5b505050506040513d601f19601f82011682018060405250620000ed919081019062001427565b90506001600160a01b0381166200013b576040517f08c379a00000000000000000000000000000000000000000000000000000000081526004016200013290620017d6565b60405180910390fd5b6040517f8c64ea4a00000000000000000000000000000000000000000000000000000000815281906000906001600160a01b038a1690638c64ea4a9062000187908a90600401620017fa565b60206040518083038186803b158015620001a057600080fd5b505afa158015620001b5573d6000803e3d6000fd5b505050506040513d601f19601f82011682018060405250620001db919081019062001427565b90506001600160a01b03811662000220576040517f08c379a00000000000000000000000000000000000000000000000000000000081526004016200013290620017e8565b600081905073__PaymentStartStandardExit______________63441df2f8308c8a898e8e6040518763ffffffff1660e01b815260040162000268969594939291906200164b565b6101006040518083038186803b1580156200028257600080fd5b505af415801562000297573d6000803e3d6000fd5b505050506040513d601f19601f82011682018060405250620002bd919081019062001597565b8051600180546001600160a01b03199081166001600160a01b03938416179091556020830151600280548316918416919091179055604080840151516003556060840151516004908155608085015160058054851691861691909117905560a08501516006805490941694169390931790915560c083015160075560e09092015160085590517f3360bc5200000000000000000000000000000000000000000000000000000000815273__PaymentChallengeStandardExit__________91633360bc529162000396918e918b918d918c910162001753565b60a06040518083038186803b158015620003af57600080fd5b505af4158015620003c4573d6000803e3d6000fd5b505050506040513d601f19601f82011682018060405250620003ea919081019062001511565b8051600c80546001600160a01b03199081166001600160a01b039384161790915560208084015151600d55604080850151600e80548516918616919091179055606080860151600f80548616918716919091179055608090950151601080548516918616919091179055805194850181528e8416808652888516868401819052948716959091018590526009805484169091179055600a80548316909317909255600b8054909116909217909155620004ba906631bced02db000090600290819062000ff1811b6200398f17901c565b601160008201518160000160006101000a8154816001600160801b0302191690836001600160801b0316021790555060208201518160000160106101000a8154816001600160801b0302191690836001600160801b0316021790555060408201518160010160006101000a8154816001600160801b0302191690836001600160801b0316021790555060608201518160010160106101000a81548161ffff021916908361ffff16021790555060808201518160010160126101000a81548161ffff021916908361ffff1602179055509050505050505050505050505087603b60006101000a8154816001600160a01b0302191690836001600160a01b0316021790555073__PaymentStartInFlightExit______________631cc495f48987878787876040518763ffffffff1660e01b81526004016200060096959493929190620016b1565b6101006040518083038186803b1580156200061a57600080fd5b505af41580156200062f573d6000803e3d6000fd5b505050506040513d601f19601f8201168201806040525062000655919081019062001575565b8051601580546001600160a01b03199081166001600160a01b0393841617909155602083015151601655604080840151516017556060840151601880548416918516919091179055608084015160198054841691851691909117905560a0840151601a8054841691851691909117905560c0840151601b80549093169084161790915560e090920151601c5590517f8c64ea4a0000000000000000000000000000000000000000000000000000000081526000918a1690638c64ea4a9062000722908b90600401620017fa565b60206040518083038186803b1580156200073b57600080fd5b505afa15801562000750573d6000803e3d6000fd5b505050506040513d601f19601f8201168201806040525062000776919081019062001427565b90506001600160a01b038116620007bb576040517f08c379a00000000000000000000000000000000000000000000000000000000081526004016200013290620017d6565b6040517f8c64ea4a00000000000000000000000000000000000000000000000000000000815281906000906001600160a01b038c1690638c64ea4a9062000807908c90600401620017fa565b60206040518083038186803b1580156200082057600080fd5b505afa15801562000835573d6000803e3d6000fd5b505050506040513d601f19601f820116820180604052506200085b919081019062001427565b90506001600160a01b038116620008a0576040517f08c379a00000000000000000000000000000000000000000000000000000000081526004016200013290620017e8565b600081905073__PaymentPiggybackInFlightExit__________63134be3488d308c8f8f6040518663ffffffff1660e01b8152600401620008e6959493929190620016fd565b6101006040518083038186803b1580156200090057600080fd5b505af415801562000915573d6000803e3d6000fd5b505050506040513d601f19601f820116820180604052506200093b919081019062001553565b8051601d80546001600160a01b03199081166001600160a01b039384161790915560208084015151601e5560408085015151601f5560608501518254841690851617909155608084015160218054909316931692909217905560a082015160225560c082015160235560e090910151602455517f13c374f600000000000000000000000000000000000000000000000000000000815273__PaymentChallengeIFENotCanonical_______906313c374f69062000a05908f908c908e908c908c9060040162001799565b60c06040518083038186803b15801562000a1e57600080fd5b505af415801562000a33573d6000803e3d6000fd5b505050506040513d601f19601f8201168201806040525062000a59919081019062001532565b8051602580546001600160a01b03199081166001600160a01b03938416179091556020830151516026556040808401516027805484169185169190911790556060840151602880548416918516919091179055608084015160298054909316931692909217905560a090910151602a55517f3360bc5200000000000000000000000000000000000000000000000000000000815273__PaymentChallengeIFEInputSpent_________90633360bc529062000b1f908f908c908e908c9060040162001753565b60a06040518083038186803b15801562000b3857600080fd5b505af415801562000b4d573d6000803e3d6000fd5b505050506040513d601f19601f8201168201806040525062000b73919081019062001511565b602b60008201518160000160006101000a8154816001600160a01b0302191690836001600160a01b0316021790555060208201518160010160008201518160000155505060408201518160020160006101000a8154816001600160a01b0302191690836001600160a01b0316021790555060608201518160030160006101000a8154816001600160a01b0302191690836001600160a01b0316021790555060808201518160040160006101000a8154816001600160a01b0302191690836001600160a01b0316021790555090505060405180608001604052808d6001600160a01b03168152602001896001600160a01b031681526020018a6001600160a01b03168152602001876001600160a01b0316815250603360008201518160000160006101000a8154816001600160a01b0302191690836001600160a01b0316021790555060208201518160010160006101000a8154816001600160a01b0302191690836001600160a01b0316021790555060408201518160020160006101000a8154816001600160a01b0302191690836001600160a01b0316021790555060608201518160030160006101000a8154816001600160a01b0302191690836001600160a01b0316021790555090505060405180606001604052808d6001600160a01b03168152602001846001600160a01b03168152602001826001600160a01b0316815250603060008201518160000160006101000a8154816001600160a01b0302191690836001600160a01b0316021790555060208201518160010160006101000a8154816001600160a01b0302191690836001600160a01b0316021790555060408201518160020160006101000a8154816001600160a01b0302191690836001600160a01b0316021790555090505062000e216683734dd0b0800060028062000ff160201b6200398f1760201c565b8051603780546020808501516001600160801b03199283166001600160801b0395861617851670010000000000000000000000000000000091861682021790935560408501516038805460608801516080909801519416919095161761ffff60801b191661ffff9586169093029290921761ffff60901b19167201000000000000000000000000000000000000949091169390930292909217905562000ede90666379da05b6000090600290819062000ff1811b6200398f17901c565b603960008201518160000160006101000a8154816001600160801b0302191690836001600160801b0316021790555060208201518160000160106101000a8154816001600160801b0302191690836001600160801b0316021790555060408201518160010160006101000a8154816001600160801b0302191690836001600160801b0316021790555060608201518160010160106101000a81548161ffff021916908361ffff16021790555060808201518160010160126101000a81548161ffff021916908361ffff16021790555090505050505050505050505050505087603c60006101000a8154816001600160a01b0302191690836001600160a01b03160217905550505050505050505062001893565b62000ffb6200103c565b506040805160a0810182526001600160801b03949094168452600060208501526780000000000000009084015261ffff918216606084015216608082015290565b6040805160a08101825260008082526020820181905291810182905260608101829052608081019190915290565b8051620010778162001863565b92915050565b805162001077816200187d565b6000602082840312156200109d57600080fd5b620010a960206200180a565b90506000620010b984846200141a565b82525092915050565b600060a08284031215620010d557600080fd5b620010e160a06200180a565b90506000620010f184846200107d565b825250602062001104848483016200108a565b60208301525060406200111a848285016200107d565b604083015250606062001130848285016200107d565b606083015250608062001146848285016200107d565b60808301525092915050565b600060c082840312156200116557600080fd5b6200117160c06200180a565b905060006200118184846200107d565b825250602062001194848483016200108a565b6020830152506040620011aa848285016200107d565b6040830152506060620011c0848285016200107d565b6060830152506080620011d6848285016200107d565b60808301525060a0620011ec848285016200141a565b60a08301525092915050565b600061010082840312156200120c57600080fd5b620012196101006200180a565b905060006200122984846200107d565b82525060206200123c848483016200108a565b602083015250604062001252848285016200108a565b604083015250606062001268848285016200107d565b60608301525060806200127e848285016200107d565b60808301525060a062001294848285016200141a565b60a08301525060c0620012aa848285016200141a565b60c08301525060e0620012c0848285016200141a565b60e08301525092915050565b60006101008284031215620012e057600080fd5b620012ed6101006200180a565b90506000620012fd84846200107d565b825250602062001310848483016200108a565b602083015250604062001326848285016200108a565b60408301525060606200133c848285016200107d565b606083015250608062001352848285016200107d565b60808301525060a062001368848285016200107d565b60a08301525060c0620012aa848285016200107d565b600061010082840312156200139257600080fd5b6200139f6101006200180a565b90506000620013af84846200107d565b8252506020620013c2848483016200107d565b6020830152506040620013d8848285016200108a565b6040830152506060620013ee848285016200108a565b606083015250608062001404848285016200107d565b60808301525060a062001294848285016200107d565b8051620010778162001888565b6000602082840312156200143a57600080fd5b60006200144884846200106a565b949350505050565b600080600080600080600080610100898b0312156200146e57600080fd5b60006200147c8b8b6200107d565b98505060206200148f8b828c016200141a565b9750506040620014a28b828c016200141a565b9650506060620014b58b828c016200107d565b9550506080620014c88b828c016200107d565b94505060a0620014db8b828c016200107d565b93505060c0620014ee8b828c016200107d565b92505060e0620015018b828c016200141a565b9150509295985092959890939650565b600060a082840312156200152457600080fd5b6000620014488484620010c2565b600060c082840312156200154557600080fd5b600062001448848462001152565b600061010082840312156200156757600080fd5b6000620014488484620011f8565b600061010082840312156200158957600080fd5b6000620014488484620012cc565b60006101008284031215620015ab57600080fd5b60006200144884846200137e565b620015c48162001847565b82525050565b6000620015d960118362001831565b7f496e76616c696420455448207661756c74000000000000000000000000000000815260200192915050565b60006200161460138362001831565b7f496e76616c6964204552433230207661756c7400000000000000000000000000815260200192915050565b620015c48162001860565b60c081016200165b8289620015b9565b6200166a6020830188620015b9565b620016796040830187620015b9565b620016886060830186620015b9565b62001697608083018562001640565b620016a660a083018462001640565b979650505050505050565b60c08101620016c18289620015b9565b620016d06020830188620015b9565b620016df6040830187620015b9565b620016ee6060830186620015b9565b620016976080830185620015b9565b60a081016200170d8288620015b9565b6200171c6020830187620015b9565b6200172b6040830186620015b9565b6200173a606083018562001640565b62001749608083018462001640565b9695505050505050565b60808101620017638287620015b9565b620017726020830186620015b9565b620017816040830185620015b9565b620017906060830184620015b9565b95945050505050565b60a08101620017a98288620015b9565b620017b86020830187620015b9565b620017c76040830186620015b9565b6200173a6060830185620015b9565b602080825281016200107781620015ca565b60208082528101620010778162001605565b6020810162001077828462001640565b6040518181016001600160401b03811182821017156200182957600080fd5b604052919050565b90815260200190565b6000620010778262001854565b600062001077826200183a565b6001600160a01b031690565b90565b6200186e816200183a565b81146200187a57600080fd5b50565b6200186e8162001847565b6200186e8162001860565b613a1b80620018a36000396000f3fe6080604052600436106101665760003560e01c80638c9963f0116100d1578063b8fd17fa1161008a578063c96e7c0511610064578063c96e7c05146103bf578063e47a4631146103d4578063e5bc60c714610401578063fe32a1241461041457610166565b8063b8fd17fa14610377578063b90424b514610397578063c170ecf5146103aa57610166565b80638c9963f0146102e25780638ec32e8f14610302578063905d6a9914610315578063a0e403b114610315578063b177ba2314610337578063b22d3e141461035757610166565b80635c0e683a116101235780635c0e683a1461022b57806368496351146102585780637702fa17146102785780637e2b2efe1461028d5780638301d179146102a2578063839c78f9146102b557610166565b8063163d7bc71461016b5780632d3cd2e91461018d578063315fb7da146101ad57806336660de4146101cd5780633f1214cf146101ed57806345462b9a14610218575b600080fd5b34801561017757600080fd5b5061018b610186366004612809565b610429565b005b34801561019957600080fd5b5061018b6101a836600461269d565b61052c565b3480156101b957600080fd5b5061018b6101c8366004612809565b61069d565b3480156101d957600080fd5b5061018b6101e83660046125f9565b61078b565b3480156101f957600080fd5b5061020261090a565b60405161020f91906137fb565b60405180910390f35b61018b6102263660046127d5565b61096f565b34801561023757600080fd5b5061024b610246366004612827565b610b20565b60405161020f91906137ed565b34801561026457600080fd5b5061018b610273366004612845565b610b9d565b34801561028457600080fd5b50610202610bf5565b34801561029957600080fd5b50610202610c55565b61018b6102b0366004612705565b610c60565b3480156102c157600080fd5b506102d56102d03660046125c5565b610d4a565b60405161020f9190613809565b3480156102ee57600080fd5b5061018b6102fd366004612669565b610d5b565b61018b61031036600461276d565b610e4d565b34801561032157600080fd5b5061032a610f89565b60405161020f9190613817565b34801561034357600080fd5b5061018b610352366004612809565b610f8e565b34801561036357600080fd5b506102d5610372366004612561565b61107c565b34801561038357600080fd5b5061018b6103923660046126d1565b6110ab565b61018b6103a53660046127a1565b611184565b3480156103b657600080fd5b506102026112c6565b3480156103cb57600080fd5b506102026112d1565b3480156103e057600080fd5b506103f46103ef366004612827565b6112dc565b60405161020f91906137de565b61018b61040f366004612739565b61147d565b34801561042057600080fd5b506102026115b9565b601360009054906101000a90046001600160a01b03166001600160a01b0316634b0a72bc6040518163ffffffff1660e01b815260040160206040518083038186803b15801561047757600080fd5b505afa15801561048b573d6000803e3d6000fd5b505050506040513d601f19601f820116820180604052506104af9190810190612543565b336001600160a01b038216146104e05760405162461bcd60e51b81526004016104d7906135b8565b60405180910390fd5b6104f160118363ffffffff61161916565b7fd21ccbbae3d29826d53310efdc993c64e27496dd31694b292f1a120344ec37ab8260405161052091906137fb565b60405180910390a15050565b603b60009054906101000a90046001600160a01b0316806001600160a01b031663ff27b1896040518163ffffffff1660e01b8152600401600060405180830381600087803b15801561057d57600080fd5b505af1158015610591573d6000803e3d6000fd5b50506040805160a081018252602b546001600160a01b039081168252825160208181018552602c548252830152602d54811682840152602e5481166060830152602f541660808201529051634bb4a4df60e11b815273__PaymentChallengeIFEInputSpent_________935063976949be9250610616919060149087906004016135d8565b60006040518083038186803b15801561062e57600080fd5b505af4158015610642573d6000803e3d6000fd5b50505050806001600160a01b0316634e0f74366040518163ffffffff1660e01b8152600401600060405180830381600087803b15801561068157600080fd5b505af1158015610695573d6000803e3d6000fd5b505050505050565b603b60009054906101000a90046001600160a01b03166001600160a01b0316634b0a72bc6040518163ffffffff1660e01b815260040160206040518083038186803b1580156106eb57600080fd5b505afa1580156106ff573d6000803e3d6000fd5b505050506040513d601f19601f820116820180604052506107239190810190612543565b336001600160a01b0382161461074b5760405162461bcd60e51b81526004016104d7906135b8565b61075c60398363ffffffff61161916565b7f30ce291291dca42b8168ab211fafc36d3d4868292ed3259874ed00864432e20e8260405161052091906137fb565b603b60009054906101000a90046001600160a01b0316806001600160a01b031663ff27b1896040518163ffffffff1660e01b8152600401600060405180830381600087803b1580156107dc57600080fd5b505af11580156107f0573d6000803e3d6000fd5b50506040805160c0810182526025546001600160a01b039081168252825160208181018552602654825283015260275481168284015260285481166060830152602954166080820152602a5460a08201529051630c27711f60e11b815273__PaymentChallengeIFENotCanonical_______935063184ee23e92506108819190601490899089908990600401613605565b60006040518083038186803b15801561089957600080fd5b505af41580156108ad573d6000803e3d6000fd5b50505050806001600160a01b0316634e0f74366040518163ffffffff1660e01b8152600401600060405180830381600087803b1580156108ec57600080fd5b505af1158015610900573d6000803e3d6000fd5b5050505050505050565b6040805160a0810182526039546001600160801b038082168352600160801b9182900481166020840152603a549081169383019390935261ffff90830481166060830152600160901b909204909116608082015260009061096a90611707565b905090565b601360009054906101000a90046001600160a01b0316806001600160a01b031663ff27b1896040518163ffffffff1660e01b8152600401600060405180830381600087803b1580156109c057600080fd5b505af11580156109d4573d6000803e3d6000fd5b505050506109e06115b9565b6001600160801b0316803414610a085760405162461bcd60e51b81526004016104d790613578565b60408051610100810182526001546001600160a01b0390811682526002548116602080840191909152835180820185526003548152838501528351908101845260048054825260608401919091526005548216608084015260065490911660a083015260075460c083015260085460e083015291516332c812a760e11b815273__PaymentStartStandardExit______________92636590254e92610ab49290916000918991016137ae565b60006040518083038186803b158015610acc57600080fd5b505af4158015610ae0573d6000803e3d6000fd5b5050505050806001600160a01b0316634e0f74366040518163ffffffff1660e01b8152600401600060405180830381600087803b15801561068157600080fd5b610b286119fe565b506001600160a01b0380821660009081526020818152604091829020825160c081018452815460ff81161515825261010090046001600160c01b03169281019290925260018101549282019290925260028201549092166060830152600381015460808301526004015460a08201525b919050565b603c546001600160a01b0316338114610bc85760405162461bcd60e51b81526004016104d7906135b8565b610bd184611731565b15610be557610be08483611757565b610bef565b610bef84836117eb565b50505050565b6040805160a0810182526037546001600160801b038082168352600160801b91829004811660208401526038549081169383019390935261ffff90830481166060830152600160901b909204909116608082015260009061096a90611707565b666379da05b6000081565b601360009054906101000a90046001600160a01b0316806001600160a01b031663ff27b1896040518163ffffffff1660e01b8152600401600060405180830381600087803b158015610cb157600080fd5b505af1158015610cc5573d6000803e3d6000fd5b50506040805160a081018252600c546001600160a01b039081168252825160208181018552600d548252830152600e54811682840152600f5481166060830152601054166080820152905163edc91d4b60e01b815273__PaymentChallengeStandardExit__________935063edc91d4b9250610616919060009087906004016136bc565b6000610d5582611853565b92915050565b603b60009054906101000a90046001600160a01b0316806001600160a01b031663ff27b1896040518163ffffffff1660e01b8152600401600060405180830381600087803b158015610dac57600080fd5b505af1158015610dc0573d6000803e3d6000fd5b50506040805160c0810182526025546001600160a01b039081168252825160208181018552602654825283015260275481168284015260285481166060830152602954166080820152602a5460a08201529051631287d7e160e31b815273__PaymentChallengeIFENotCanonical_______935063943ebf08925061061691906014908790600401613661565b603b60009054906101000a90046001600160a01b0316806001600160a01b031663ff27b1896040518163ffffffff1660e01b8152600401600060405180830381600087803b158015610e9e57600080fd5b505af1158015610eb2573d6000803e3d6000fd5b50505050610ebe61090a565b6001600160801b0316803414610ee65760405162461bcd60e51b81526004016104d790613578565b6040805161010081018252601d546001600160a01b039081168252825160208181018552601e5482528084019190915283518082018552601f54815283850152548116606083015260215416608082015260225460a082015260235460c082015260245460e0820152905163082153e960e21b815273__PaymentPiggybackInFlightExit__________916320854fa491610ab491906014908890600401613719565b600281565b603b60009054906101000a90046001600160a01b03166001600160a01b0316634b0a72bc6040518163ffffffff1660e01b815260040160206040518083038186803b158015610fdc57600080fd5b505afa158015610ff0573d6000803e3d6000fd5b505050506040513d601f19601f820116820180604052506110149190810190612543565b336001600160a01b0382161461103c5760405162461bcd60e51b81526004016104d7906135b8565b61104d60378363ffffffff61161916565b7f63ccac61f03626a0e717e96da239ff8996745b6c4ddcaffdedc88d7ef938f5ec8260405161052091906137fb565b6000611086611a33565b5060408051602081019091528281526110a0858583611871565b9150505b9392505050565b603b60009054906101000a90046001600160a01b0316806001600160a01b031663ff27b1896040518163ffffffff1660e01b8152600401600060405180830381600087803b1580156110fc57600080fd5b505af1158015611110573d6000803e3d6000fd5b5050604080516080810182526033546001600160a01b0390811682526034548116602083015260355481168284015260365416606082015290516359cff02160e01b815273__PaymentChallengeIFEOutputSpent________93506359cff02192506106169190601490879060040161368f565b603b60009054906101000a90046001600160a01b0316806001600160a01b031663ff27b1896040518163ffffffff1660e01b8152600401600060405180830381600087803b1580156111d557600080fd5b505af11580156111e9573d6000803e3d6000fd5b505050506111f5610bf5565b6001600160801b031680341461121d5760405162461bcd60e51b81526004016104d790613578565b60408051610100810182526015546001600160a01b039081168252825160208181018552601654825280840191909152835190810184526017548152828401526018548116606083015260195481166080830152601a54811660a0830152601b541660c0820152601c5460e08201529051631ff4513b60e01b815273__PaymentStartInFlightExit______________91631ff4513b91610ab49190601490889060040161377e565b6631bced02db000081565b6683734dd0b0800081565b6112e4611a46565b6001600160a01b0382166000908152601460209081526040808320815161012081018352815460ff81161515825261010090046001600160401b03169381019390935260018101548383015260028101546060840152815160808082019093529293909291840191906003840190600490835b828210156113be576040805160a081018252600584028601805482526001808201546001600160a01b039081166020808601919091526002840154909116948401949094526003820154606084015260049091015460808301529083529092019101611357565b5050509082525060408051608081019091526020909101906017830160046000835b82821015611447576040805160a081018252600584028601805482526001808201546001600160a01b0390811660208086019190915260028401549091169484019490945260038201546060840152600490910154608083015290835290920191016113e0565b50505090825250602b8201546001600160a01b03166020820152602c8201546040820152602d9091015460609091015292915050565b603b60009054906101000a90046001600160a01b0316806001600160a01b031663ff27b1896040518163ffffffff1660e01b8152600401600060405180830381600087803b1580156114ce57600080fd5b505af11580156114e2573d6000803e3d6000fd5b505050506114ee61090a565b6001600160801b03168034146115165760405162461bcd60e51b81526004016104d790613578565b6040805161010081018252601d546001600160a01b039081168252825160208181018552601e5482528084019190915283518082018552601f54815283850152548116606083015260215416608082015260225460a082015260235460c082015260245460e08201529051631845801f60e11b815273__PaymentPiggybackInFlightExit__________9163308b003e91610ab4919060149088906004016136e9565b6040805160a0810182526011546001600160801b038082168352600160801b91829004811660208401526012549081169383019390935261ffff90830481166060830152600160901b909204909116608082015260009061096a90611707565b6040805160a08101825283546001600160801b038082168352600160801b918290048116602084015260018601549081169383019390935261ffff90830481166060830152600160901b909204909116608082015261167890826118de565b8154600160801b90046001600160801b0316158015906116a5575060018201546001600160801b03164210155b156116cc578154600160801b81046001600160801b03166001600160801b03199091161782555b81546001600160801b03918216600160801b02911617815560010180546001600160801b0319166001600160401b03426202a3000116179055565b600081604001516001600160801b031642101561172657508051610b98565b506020810151610b98565b600061174d6001600160a01b038316609763ffffffff6119a116565b60ff161592915050565b604080516060810182526009546001600160a01b039081168252600a5481166020830152600b54168183015290516373c97b6d60e11b815273__PaymentProcessStandardExit____________9163e792f6da916117bf919060009087908790600401613749565b60006040518083038186803b1580156117d757600080fd5b505af4158015610695573d6000803e3d6000fd5b604080516060810182526030546001600160a01b0390811682526031548116602083015260325416818301529051632309cb3d60e01b815273__PaymentProcessInFlightExit____________91632309cb3d916117bf919060149087908790600401613749565b80516020820120600090610d559060691c609763ffffffff6119ab16565b600083156118c257815160405160009161189091869190602001613556565b6040516020818303038152906040528051906020012090506118ba816118b5856119b8565b6119c1565b9150506110a4565b6118d683805190602001206118b5846119b8565b949350505050565b60006118e983611707565b90506000826001600160801b0316116119145760405162461bcd60e51b81526004016104d790613598565b826060015161ffff16816001600160801b03168161192e57fe5b046001600160801b0316826001600160801b031610156119605760405162461bcd60e51b81526004016104d7906135a8565b826080015161ffff16816001600160801b031602826001600160801b0316111561199c5760405162461bcd60e51b81526004016104d790613588565b505050565b60ff161c60011690565b600160ff919091161b1790565b51612710900690565b6000606983901c61ffff60981b609884901b1617806001600160a01b03811681146118d65760405162461bcd60e51b81526004016104d7906135c8565b6040805160c081018252600080825260208201819052918101829052606081018290526080810182905260a081019190915290565b6040518060200160405280600081525090565b60405180610120016040528060001515815260200160006001600160401b031681526020016000815260200160008152602001611a81611ab2565b8152602001611a8e611ab2565b815260200160006001600160a01b0316815260200160008152602001600081525090565b60405180608001604052806004905b611ac9611adf565b815260200190600190039081611ac15790505090565b6040805160a08101825260008082526020820181905291810182905260608101829052608081019190915290565b8035610d5581613942565b8051610d5581613942565b600082601f830112611b3457600080fd5b8135611b47611b428261384b565b613825565b81815260209384019390925082018360005b83811015611b855781358601611b6f8882611c0a565b8452506020928301929190910190600101611b59565b5050505092915050565b600082601f830112611ba057600080fd5b8135611bae611b428261384b565b91508181835260208401935060208101905083856020840282011115611bd357600080fd5b60005b83811015611b855781611be98882612538565b8452506020928301929190910190600101611bd6565b8035610d5581613959565b600082601f830112611c1b57600080fd5b8135611c29611b428261386b565b91508082526020830160208301858383011115611c4557600080fd5b611c50838284613900565b50505092915050565b60006101808284031215611c6c57600080fd5b611c77610180613825565b905081356001600160401b03811115611c8f57600080fd5b611c9b84828501611c0a565b8252506020611cac84848301612538565b60208301525060408201356001600160401b03811115611ccb57600080fd5b611cd784828501611c0a565b6040830152506060611ceb84828501612517565b60608301525060808201356001600160401b03811115611d0a57600080fd5b611d1684828501611c0a565b60808301525060a0611d2a84828501612517565b60a08301525060c08201356001600160401b03811115611d4957600080fd5b611d5584828501611c0a565b60c08301525060e0611d6984828501612538565b60e0830152506101008201356001600160401b03811115611d8957600080fd5b611d9584828501611c0a565b610100830152506101208201356001600160401b03811115611db657600080fd5b611dc284828501611c0a565b610120830152506101408201356001600160401b03811115611de357600080fd5b611def84828501611c0a565b610140830152506101608201356001600160401b03811115611e1057600080fd5b611e1c84828501611c0a565b6101608301525092915050565b60006101008284031215611e3c57600080fd5b611e47610100613825565b905081356001600160401b03811115611e5f57600080fd5b611e6b84828501611c0a565b8252506020611e7c84848301612517565b60208301525060408201356001600160401b03811115611e9b57600080fd5b611ea784828501611c0a565b6040830152506060611ebb84828501612517565b60608301525060808201356001600160401b03811115611eda57600080fd5b611ee684828501611c0a565b60808301525060a08201356001600160401b03811115611f0557600080fd5b611f1184828501611c0a565b60a08301525060c0611f2584828501612538565b60c08301525060e08201356001600160401b03811115611f4457600080fd5b611f5084828501611c0a565b60e08301525092915050565b600060e08284031215611f6e57600080fd5b611f7860e0613825565b905081356001600160401b03811115611f9057600080fd5b611f9c84828501611c0a565b82525060208201356001600160401b03811115611fb857600080fd5b611fc484828501611c0a565b6020830152506040611fd884828501612538565b60408301525060608201356001600160401b03811115611ff757600080fd5b61200384828501611c0a565b606083015250608061201784828501612517565b60808301525060a08201356001600160401b0381111561203657600080fd5b61204284828501611c0a565b60a08301525060c08201356001600160401b0381111561206157600080fd5b61206d84828501611c0a565b60c08301525092915050565b6000610140828403121561208c57600080fd5b612097610140613825565b905060006120a58484612522565b82525060208201356001600160401b038111156120c157600080fd5b6120cd84828501611c0a565b60208301525060408201356001600160401b038111156120ec57600080fd5b6120f884828501611c0a565b604083015250606061210c84828501612517565b60608301525060808201356001600160401b0381111561212b57600080fd5b61213784828501611c0a565b60808301525060a08201356001600160401b0381111561215657600080fd5b61216284828501611c0a565b60a08301525060c08201356001600160401b0381111561218157600080fd5b61218d84828501611c0a565b60c08301525060e06121a184828501612538565b60e0830152506101008201356001600160401b038111156121c157600080fd5b6121cd84828501611c0a565b610100830152506101208201356001600160401b038111156121ee57600080fd5b6121fa84828501611c0a565b6101208301525092915050565b60006040828403121561221957600080fd5b6122236040613825565b905081356001600160401b0381111561223b57600080fd5b61224784828501611c0a565b825250602061225884848301612517565b60208301525092915050565b60006060828403121561227657600080fd5b6122806060613825565b905081356001600160401b0381111561229857600080fd5b6122a484828501611c0a565b82525060206122b584848301612517565b60208301525060408201356001600160401b038111156122d457600080fd5b6122e084828501611c0a565b60408301525092915050565b600061010082840312156122ff57600080fd5b61230a610100613825565b905081356001600160401b0381111561232257600080fd5b61232e84828501611c0a565b82525060208201356001600160401b0381111561234a57600080fd5b61235684828501611b23565b60208301525060408201356001600160401b0381111561237557600080fd5b61238184828501611b8f565b60408301525060608201356001600160401b038111156123a057600080fd5b6123ac84828501611b23565b60608301525060808201356001600160401b038111156123cb57600080fd5b6123d784828501611b23565b60808301525060a08201356001600160401b038111156123f657600080fd5b61240284828501611b23565b60a08301525060c08201356001600160401b0381111561242157600080fd5b61242d84828501611b23565b60c08301525060e08201356001600160401b0381111561244c57600080fd5b611f5084828501611b23565b60006080828403121561246a57600080fd5b6124746080613825565b90506000612482848461252d565b82525060208201356001600160401b0381111561249e57600080fd5b6124aa84828501611c0a565b60208301525060408201356001600160401b038111156124c957600080fd5b6124d584828501611c0a565b60408301525060608201356001600160401b038111156124f457600080fd5b61250084828501611c0a565b60608301525092915050565b8035610d5581613962565b8035610d558161396b565b8035610d5581613974565b8035610d558161397d565b8035610d5581613986565b60006020828403121561255557600080fd5b60006118d68484611b18565b60008060006060848603121561257657600080fd5b60006125828686611bff565b93505060208401356001600160401b0381111561259e57600080fd5b6125aa86828701611c0a565b92505060406125bb86828701612538565b9150509250925092565b6000602082840312156125d757600080fd5b81356001600160401b038111156125ed57600080fd5b6118d684828501611c0a565b60008060006060848603121561260e57600080fd5b83356001600160401b0381111561262457600080fd5b61263086828701611c0a565b935050602061264186828701612538565b92505060408401356001600160401b0381111561265d57600080fd5b6125bb86828701611c0a565b60006020828403121561267b57600080fd5b81356001600160401b0381111561269157600080fd5b6118d684828501611c59565b6000602082840312156126af57600080fd5b81356001600160401b038111156126c557600080fd5b6118d684828501611e29565b6000602082840312156126e357600080fd5b81356001600160401b038111156126f957600080fd5b6118d684828501611f5c565b60006020828403121561271757600080fd5b81356001600160401b0381111561272d57600080fd5b6118d684828501612079565b60006020828403121561274b57600080fd5b81356001600160401b0381111561276157600080fd5b6118d684828501612207565b60006020828403121561277f57600080fd5b81356001600160401b0381111561279557600080fd5b6118d684828501612264565b6000602082840312156127b357600080fd5b81356001600160401b038111156127c957600080fd5b6118d6848285016122ec565b6000602082840312156127e757600080fd5b81356001600160401b038111156127fd57600080fd5b6118d684828501612458565b60006020828403121561281b57600080fd5b60006118d6848461250c565b60006020828403121561283957600080fd5b60006118d68484612522565b60008060006060848603121561285a57600080fd5b60006128668686612522565b935050602061287786828701612538565b92505060406125bb86828701611b0d565b60006110a483836129f0565b60006128a083836134bb565b505060a00190565b60006128b483836129e7565b505060200190565b6128c5816138ae565b82525050565b60006128d68261389b565b6128e081856138a5565b9350836020820285016128f285613892565b8060005b8581101561292c578484038952815161290f8582612888565b945061291a83613892565b60209a909a01999250506001016128f6565b5091979650505050505050565b6129428161389f565b61294c8184610b98565b925061295782613898565b8060005b8381101561069557815161296f8782612894565b965061297a83613892565b92505060010161295b565b60006129908261389b565b61299a81856138a5565b93506129a583613892565b8060005b838110156129d35781516129bd88826128a8565b97506129c883613892565b9250506001016129a9565b509495945050505050565b6128c5816138b9565b6128c581613898565b60006129fb8261389b565b612a0581856138a5565b9350612a1581856020860161390c565b612a1e81613938565b9093019392505050565b6000612a338261389b565b612a3d8185610b98565b9350612a4d81856020860161390c565b9290920192915050565b6128c5816138f5565b6000612a6d6020836138a5565b7f496e7075742076616c7565206d757374206d61746368206d73672e76616c7565815260200192915050565b6000612aa66015836138a5565b74084dedcc840e6d2f4ca40d2e640e8dede40d0d2ced605b1b815260200192915050565b6000612ad76018836138a5565b7f426f6e642073697a652063616e6e6f74206265207a65726f0000000000000000815260200192915050565b6000612b106014836138a5565b73426f6e642073697a6520697320746f6f206c6f7760601b815260200192915050565b6000612b40601e836138a5565b7f43616c6c6572206164647265737320697320756e617574686f72697a65640000815260200192915050565b6000612b796010836138a5565b6f457869744964206f766572666c6f777360801b815260200192915050565b80516020830190610bef84826129e7565b805161018080845260009190840190612bc282826129f0565b9150506020830151612bd760208601826129e7565b5060408301518482036040860152612bef82826129f0565b9150506060830151612c04606086018261352a565b5060808301518482036080860152612c1c82826129f0565b91505060a0830151612c3160a086018261352a565b5060c083015184820360c0860152612c4982826129f0565b91505060e0830151612c5e60e08601826129e7565b50610100830151848203610100860152612c7882826129f0565b915050610120830151848203610120860152612c9482826129f0565b915050610140830151848203610140860152612cb082826129f0565b915050610160830151848203610160860152612ccc82826129f0565b95945050505050565b805161010080845260009190840190612cee82826129f0565b9150506020830151612d03602086018261352a565b5060408301518482036040860152612d1b82826129f0565b9150506060830151612d30606086018261352a565b5060808301518482036080860152612d4882826129f0565b91505060a083015184820360a0860152612d6282826129f0565b91505060c0830151612d7760c08601826129e7565b5060e083015184820360e0860152612ccc82826129f0565b805160e080845260009190840190612da782826129f0565b91505060208301518482036020860152612dc182826129f0565b9150506040830151612dd660408601826129e7565b5060608301518482036060860152612dee82826129f0565b9150506080830151612e03608086018261352a565b5060a083015184820360a0860152612e1b82826129f0565b91505060c083015184820360c0860152612ccc82826129f0565b8051600090610140840190612e4a8582613521565b5060208301518482036020860152612e6282826129f0565b91505060408301518482036040860152612e7c82826129f0565b9150506060830151612e91606086018261352a565b5060808301518482036080860152612ea982826129f0565b91505060a083015184820360a0860152612ec382826129f0565b91505060c083015184820360c0860152612edd82826129f0565b91505060e0830151612ef260e08601826129e7565b50610100830151848203610100860152612f0c82826129f0565b915050610120830151848203610120860152612ccc82826129f0565b805160a0830190612f398482612a57565b506020820151612f4c6020850182612b98565b506040820151612f5f6040850182612a57565b506060820151612f726060850182612a57565b506080820151610bef6080850182612a57565b805160c0830190612f968482612a57565b506020820151612fa96020850182612b98565b506040820151612fbc6040850182612a57565b506060820151612fcf6060850182612a57565b506080820151612fe26080850182612a57565b5060a0820151610bef60a08501826129e7565b805160808301906130068482612a57565b5060208201516130196020850182612a57565b50604082015161302c6040850182612a57565b506060820151610bef6060850182612a57565b80516101008301906130518482612a57565b5060208201516130646020850182612b98565b5060408201516130776040850182612b98565b50606082015161308a6060850182612a57565b50608082015161309d6080850182612a57565b5060a08201516130b060a08501826129e7565b5060c08201516130c360c08501826129e7565b5060e0820151610bef60e08501826129e7565b805160608301906130e78482612a57565b5060208201516130fa6020850182612a57565b506040820151610bef6040850182612a57565b805161010083019061311f8482612a57565b5060208201516131326020850182612b98565b5060408201516131456040850182612b98565b5060608201516131586060850182612a57565b50608082015161316b6080850182612a57565b5060a082015161317e60a0850182612a57565b5060c08201516130c360c0850182612a57565b80516101008301906131a38482612a57565b5060208201516131b66020850182612a57565b5060408201516131c96040850182612b98565b5060608201516131dc6060850182612b98565b5060808201516131ef6080850182612a57565b5060a08201516130b060a0850182612a57565b9052565b80516105e083019061321884826129de565b50602082015161322b602085018261354d565b50604082015161323e60408501826129e7565b50606082015161325160608501826129e7565b5060808201516132646080850182612939565b5060a0820151613278610300850182612939565b5060c082015161328c6105808501826128bc565b5060e08201516132a06105a08501826129e7565b50610100820151610bef6105c08501826129e7565b80516040808452600091908401906132cd82826129f0565b91505060208301516132e2602086018261352a565b509392505050565b805160608084526000919084019061330282826129f0565b9150506020830151613317602086018261352a565b5060408301518482036040860152612ccc82826129f0565b805160c083019061334084826129de565b5060208201516133536020850182613533565b50604082015161336660408501826129e7565b50606082015161337960608501826128bc565b506080820151612fe260808501826129e7565b8051610100808452600091908401906133a582826129f0565b915050602083015184820360208601526133bf82826128cb565b915050604083015184820360408601526133d98282612985565b915050606083015184820360608601526133f382826128cb565b9150506080830151848203608086015261340d82826128cb565b91505060a083015184820360a086015261342782826128cb565b91505060c083015184820360c086015261344182826128cb565b91505060e083015184820360e0860152612ccc82826128cb565b8051600090608084019061346f8582613533565b506020830151848203602086015261348782826129f0565b915050604083015184820360408601526134a182826129f0565b91505060608301518482036060860152612ccc82826129f0565b805160a08301906134cc84826129e7565b5060208201516134df60208501826128bc565b5060408201516134f260408501826128bc565b50606082015161350560608501826129e7565b506080820151610bef60808501826129e7565b6128c5816138be565b6128c5816138d1565b6128c5816138ca565b6128c5816138dd565b6128c561354882613898565b613898565b6128c5816138e9565b60006135628285612a28565b915061356e828461353c565b5060200192915050565b60208082528101610d5581612a60565b60208082528101610d5581612a99565b60208082528101610d5581612aca565b60208082528101610d5581612b03565b60208082528101610d5581612b33565b60208082528101610d5581612b6c565b60e081016135e68286612f28565b6135f360a0830185613202565b81810360c0830152612ccc8184612cd5565b61014081016136148288612f85565b61362160c0830187613202565b81810360e083015261363381866129f0565b90506136436101008301856129e7565b81810361012083015261365681846129f0565b979650505050505050565b61010081016136708286612f85565b61367d60c0830185613202565b81810360e0830152612ccc8184612ba9565b60c0810161369d8286612ff5565b6136aa6080830185613202565b81810360a0830152612ccc8184612d8f565b60e081016136ca8286612f28565b6136d760a0830185613202565b81810360c0830152612ccc8184612e35565b61014081016136f8828661303f565b613706610100830185613202565b818103610120830152612ccc81846132b5565b6101408101613728828661303f565b613736610100830185613202565b818103610120830152612ccc81846132ea565b60c0810161375782876130d6565b6137646060830186613202565b6137716080830185613521565b612ccc60a08301846128bc565b610140810161378d828661310d565b61379b610100830185613202565b818103610120830152612ccc818461338c565b61014081016137bd8286613191565b6137cb610100830185613202565b818103610120830152612ccc818461345b565b6105e08101610d558284613206565b60c08101610d55828461332f565b60208101610d558284613518565b60208101610d558284613521565b60208101610d55828461352a565b6040518181016001600160401b038111828210171561384357600080fd5b604052919050565b60006001600160401b0382111561386157600080fd5b5060209081020190565b60006001600160401b0382111561388157600080fd5b506020601f91909101601f19160190565b60200190565b90565b5190565b50600490565b90815260200190565b6000610d55826138d1565b151590565b6001600160801b031690565b61ffff1690565b6001600160a01b031690565b6001600160c01b031690565b6001600160401b031690565b6000610d55826138ae565b82818337506000910152565b60005b8381101561392757818101518382015260200161390f565b83811115610bef5750506000910152565b601f01601f191690565b61394b816138ae565b811461395657600080fd5b50565b61394b816138b9565b61394b816138be565b61394b816138ca565b61394b816138d1565b61394b816138dd565b61394b81613898565b613997611adf565b506040805160a0810182526001600160801b03949094168452600060208501526780000000000000009084015261ffff91821660608401521660808201529056fea365627a7a7231582074ed4e1cf1892706d418ef81a086ae90514696b7033eac65ab71eaa510bf3ee16c6578706572696d656e74616cf564736f6c634300050b0040",
  "source": "pragma solidity 0.5.11;\npragma experimental ABIEncoderV2;\n\nimport \"./routers/PaymentStandardExitRouter.sol\";\nimport \"./routers/PaymentInFlightExitRouter.sol\";\nimport \"../interfaces/IStateTransitionVerifier.sol\";\nimport \"../interfaces/ITxFinalizationVerifier.sol\";\nimport \"../utils/ExitId.sol\";\nimport \"../../framework/interfaces/IExitProcessor.sol\";\nimport \"../../framework/PlasmaFramework.sol\";\nimport \"../../utils/OnlyFromAddress.sol\";\n\n/**\n * @notice The exit game contract implementation for Payment Transaction\n */\ncontract PaymentExitGame is IExitProcessor, OnlyFromAddress, PaymentStandardExitRouter, PaymentInFlightExitRouter {\n\n    PlasmaFramework private plasmaFramework;\n\n    constructor(\n        PlasmaFramework framework,\n        uint256 ethVaultId,\n        uint256 erc20VaultId,\n        OutputGuardHandlerRegistry outputGuardHandlerRegistry,\n        SpendingConditionRegistry spendingConditionRegistry,\n        IStateTransitionVerifier stateTransitionVerifier,\n        ITxFinalizationVerifier txFinalizationVerifier,\n        uint256 supportTxType\n    )\n        public\n        PaymentStandardExitRouter(\n            framework,\n            ethVaultId,\n            erc20VaultId,\n            outputGuardHandlerRegistry,\n            spendingConditionRegistry,\n            txFinalizationVerifier\n        )\n        PaymentInFlightExitRouter(\n            framework,\n            ethVaultId,\n            erc20VaultId,\n            outputGuardHandlerRegistry,\n            spendingConditionRegistry,\n            stateTransitionVerifier,\n            txFinalizationVerifier,\n            supportTxType\n        )\n    {\n        plasmaFramework = framework;\n    }\n\n    /**\n     * @notice Callback processes exit function for the PlasmaFramework to call\n     * @param exitId The exit ID\n     * @param token Token (ERC20 address or address(0) for ETH) of the exiting output\n     */\n    function processExit(uint160 exitId, uint256, address token) external onlyFrom(address(plasmaFramework)) {\n        if (ExitId.isStandardExit(exitId)) {\n            PaymentStandardExitRouter.processStandardExit(exitId, token);\n        } else {\n            PaymentInFlightExitRouter.processInFlightExit(exitId, token);\n        }\n    }\n\n    /**\n     * @notice Helper function to compute the standard exit ID\n     */\n    function getStandardExitId(bool _isDeposit, bytes memory _txBytes, uint256 _utxoPos)\n        public\n        pure\n        returns (uint160)\n    {\n        UtxoPosLib.UtxoPos memory utxoPos = UtxoPosLib.UtxoPos(_utxoPos);\n        return ExitId.getStandardExitId(_isDeposit, _txBytes, utxoPos);\n    }\n\n    /**\n     * @notice Helper function to compute the in-flight exit ID\n     */\n    function getInFlightExitId(bytes memory _txBytes)\n        public\n        pure\n        returns (uint160)\n    {\n        return ExitId.getInFlightExitId(_txBytes);\n    }\n}\n",
  "sourcePath": "/Users/jarindr/plasma-contracts/plasma_framework/contracts/src/exits/payment/PaymentExitGame.sol",
  "compiler": {
    "name": "solc",
    "version": "0.5.11+commit.c082d0b4.Emscripten.clang"
  },
  "schemaVersion": "3.0.16",
  "updatedAt": "2019-11-08T19:17:12.600Z",
  "devdoc": {
    "methods": {
      "challengeInFlightExitInputSpent((bytes,uint16,bytes,uint16,bytes,bytes,uint256,bytes))": {
        "params": {
          "args": "Argument data to challenge (see also struct 'ChallengeInputSpentArgs')"
        }
      },
      "challengeInFlightExitNotCanonical((bytes,uint256,bytes,uint16,bytes,uint16,bytes,uint256,bytes,bytes,bytes,bytes))": {
        "params": {
          "args": "Input argument data to challenge (see also struct 'ChallengeCanonicityArgs')"
        }
      },
      "challengeInFlightExitOutputSpent((bytes,bytes,uint256,bytes,uint16,bytes,bytes))": {
        "params": {
          "args": "Argument data to challenge (see also struct 'ChallengeOutputSpent')"
        }
      },
      "inFlightExits(uint160)": {
        "params": {
          "exitId": "The exit ID of the in-flight exit"
        }
      },
      "piggybackInFlightExitOnInput((bytes,uint16))": {
        "params": {
          "args": "Input argument data to piggyback (see also struct 'PiggybackInFlightExitOnInputArgs')"
        }
      },
      "piggybackInFlightExitOnOutput((bytes,uint16,bytes))": {
        "params": {
          "args": "Input argument data to piggyback (see also struct 'PiggybackInFlightExitOnOutputArgs')"
        }
      },
      "processExit(uint160,uint256,address)": {
        "params": {
          "exitId": "The exit ID",
          "token": "Token (ERC20 address or address(0) for ETH) of the exiting output"
        }
      },
      "respondToNonCanonicalChallenge(bytes,uint256,bytes)": {
        "params": {
          "inFlightTx": "The RLP-encoded in-flight transaction",
          "inFlightTxInclusionProof": "Inclusion proof for the in-flight tx",
          "inFlightTxPos": "The UTXO position of the in-flight exit. The outputIndex should be set to 0."
        }
      },
      "standardExits(uint160)": {
        "params": {
          "exitId": "Exit ID of the standard exit"
        }
      },
      "startInFlightExit((bytes,bytes[],uint256[],bytes[],bytes[],bytes[],bytes[],bytes[]))": {
        "params": {
          "args": "Input argument data to challenge (see also struct 'StartExitArgs')"
        }
      },
      "updatePiggybackBondSize(uint128)": {
        "params": {
          "newBondSize": "The new bond size"
        }
      },
      "updateStartIFEBondSize(uint128)": {
        "params": {
          "newBondSize": "The new bond size"
        }
      },
      "updateStartStandardExitBondSize(uint128)": {
        "params": {
          "newBondSize": "The new bond size"
        }
      }
    }
  },
  "userdoc": {
    "methods": {
      "challengeInFlightExitInputSpent((bytes,uint16,bytes,uint16,bytes,bytes,uint256,bytes))": {
        "notice": "Challenges an exit from in-flight transaction input"
      },
      "challengeInFlightExitNotCanonical((bytes,uint256,bytes,uint16,bytes,uint16,bytes,uint256,bytes,bytes,bytes,bytes))": {
        "notice": "Challenges an in-flight exit to be non-canonical"
      },
      "challengeInFlightExitOutputSpent((bytes,bytes,uint256,bytes,uint16,bytes,bytes))": {
        "notice": "Challenges an exit from in-flight transaction output"
      },
      "challengeStandardExit((uint160,bytes,bytes,uint16,bytes,bytes,bytes,uint256,bytes,bytes))": {
        "notice": "Challenge a standard exit by showing the exiting output was spent"
      },
      "getInFlightExitId(bytes)": {
        "notice": "Helper function to compute the in-flight exit ID"
      },
      "getStandardExitId(bool,bytes,uint256)": {
        "notice": "Helper function to compute the standard exit ID"
      },
      "inFlightExits(uint160)": {
        "notice": "Getter functions to retrieve in-flight exit data of the PaymentExitGame"
      },
      "piggybackBondSize()": {
        "notice": "Retrieves the piggyback bond size"
      },
      "piggybackInFlightExitOnInput((bytes,uint16))": {
        "notice": "Piggyback on an input of an in-flight exiting tx. Processed only if the in-flight exit is non-canonical."
      },
      "piggybackInFlightExitOnOutput((bytes,uint16,bytes))": {
        "notice": "Piggyback on an output of an in-flight exiting tx. Processed only if the in-flight exit is canonical."
      },
      "processExit(uint160,uint256,address)": {
        "notice": "Callback processes exit function for the PlasmaFramework to call"
      },
      "respondToNonCanonicalChallenge(bytes,uint256,bytes)": {
        "notice": "Respond to a non-canonical challenge by providing its position and by proving its correctness"
      },
      "standardExits(uint160)": {
        "notice": "Getter retrieves standard exit data of the PaymentExitGame"
      },
      "startIFEBondSize()": {
        "notice": "Retrieves the in-flight exit bond size"
      },
      "startInFlightExit((bytes,bytes[],uint256[],bytes[],bytes[],bytes[],bytes[],bytes[]))": {
        "notice": "Starts withdrawal from a transaction that may be in-flight"
      },
      "startStandardExit((uint192,bytes,bytes,bytes))": {
        "notice": "Starts a standard exit of a given output, using output-age priority"
      },
      "startStandardExitBondSize()": {
        "notice": "Retrieves the standard exit bond size"
      },
      "updatePiggybackBondSize(uint128)": {
        "notice": "Updates the piggyback bond size, taking two days to become effective"
      },
      "updateStartIFEBondSize(uint128)": {
        "notice": "Updates the in-flight exit bond size, taking two days to become effective."
      },
      "updateStartStandardExitBondSize(uint128)": {
        "notice": "Updates the standard exit bond size, taking two days to become effective"
      }
    },
    "notice": "The exit game contract implementation for Payment Transaction"
  }
}