{
  "contractName": "PaymentExitGame",
  "abi": [
    {
      "constant": false,
      "inputs": [
        {
          "internalType": "uint128",
          "name": "newBondSize",
          "type": "uint128"
        }
      ],
      "name": "updateStartStandardExitBondSize",
      "outputs": [],
      "payable": false,
      "stateMutability": "nonpayable",
      "type": "function"
    },
    {
      "constant": false,
      "inputs": [
        {
          "components": [
            {
              "internalType": "bytes",
              "name": "inFlightTx",
              "type": "bytes"
            },
            {
              "internalType": "uint16",
              "name": "inFlightTxInputIndex",
              "type": "uint16"
            },
            {
              "internalType": "bytes",
              "name": "challengingTx",
              "type": "bytes"
            },
            {
              "internalType": "uint16",
              "name": "challengingTxInputIndex",
              "type": "uint16"
            },
            {
              "internalType": "bytes",
              "name": "challengingTxWitness",
              "type": "bytes"
            },
            {
              "internalType": "bytes",
              "name": "inputTx",
              "type": "bytes"
            },
            {
              "internalType": "uint256",
              "name": "inputUtxoPos",
              "type": "uint256"
            },
            {
              "internalType": "bytes",
              "name": "spendingConditionOptionalArgs",
              "type": "bytes"
            }
          ],
          "internalType": "struct PaymentInFlightExitRouterArgs.ChallengeInputSpentArgs",
          "name": "args",
          "type": "tuple"
        }
      ],
      "name": "challengeInFlightExitInputSpent",
      "outputs": [],
      "payable": false,
      "stateMutability": "nonpayable",
      "type": "function"
    },
    {
      "constant": false,
      "inputs": [
        {
          "internalType": "uint128",
          "name": "newBondSize",
          "type": "uint128"
        }
      ],
      "name": "updatePiggybackBondSize",
      "outputs": [],
      "payable": false,
      "stateMutability": "nonpayable",
      "type": "function"
    },
    {
      "constant": false,
      "inputs": [
        {
          "internalType": "bytes",
          "name": "inFlightTx",
          "type": "bytes"
        },
        {
          "internalType": "uint256",
          "name": "inFlightTxPos",
          "type": "uint256"
        },
        {
          "internalType": "bytes",
          "name": "inFlightTxInclusionProof",
          "type": "bytes"
        }
      ],
      "name": "respondToNonCanonicalChallenge",
      "outputs": [],
      "payable": false,
      "stateMutability": "nonpayable",
      "type": "function"
    },
    {
      "constant": true,
      "inputs": [],
      "name": "piggybackBondSize",
      "outputs": [
        {
          "internalType": "uint128",
          "name": "",
          "type": "uint128"
        }
      ],
      "payable": false,
      "stateMutability": "view",
      "type": "function"
    },
    {
      "constant": false,
      "inputs": [
        {
          "components": [
            {
              "internalType": "uint192",
              "name": "utxoPos",
              "type": "uint192"
            },
            {
              "internalType": "bytes",
              "name": "rlpOutputTx",
              "type": "bytes"
            },
            {
              "internalType": "bytes",
              "name": "outputGuardPreimage",
              "type": "bytes"
            },
            {
              "internalType": "bytes",
              "name": "outputTxInclusionProof",
              "type": "bytes"
            }
          ],
          "internalType": "struct PaymentStandardExitRouterArgs.StartStandardExitArgs",
          "name": "args",
          "type": "tuple"
        }
      ],
      "name": "startStandardExit",
      "outputs": [],
      "payable": true,
      "stateMutability": "payable",
      "type": "function"
    },
    {
      "constant": true,
      "inputs": [],
      "name": "operator",
      "outputs": [
        {
          "internalType": "address",
          "name": "",
          "type": "address"
        }
      ],
      "payable": false,
      "stateMutability": "view",
      "type": "function"
    },
    {
      "constant": true,
      "inputs": [
        {
          "internalType": "uint160",
          "name": "exitId",
          "type": "uint160"
        }
      ],
      "name": "standardExits",
      "outputs": [
        {
          "components": [
            {
              "internalType": "bool",
              "name": "exitable",
              "type": "bool"
            },
            {
              "internalType": "uint192",
              "name": "utxoPos",
              "type": "uint192"
            },
            {
              "internalType": "bytes32",
              "name": "outputId",
              "type": "bytes32"
            },
            {
              "internalType": "address payable",
              "name": "exitTarget",
              "type": "address"
            },
            {
              "internalType": "uint256",
              "name": "amount",
              "type": "uint256"
            },
            {
              "internalType": "uint256",
              "name": "bondSize",
              "type": "uint256"
            }
          ],
          "internalType": "struct PaymentExitDataModel.StandardExit",
          "name": "",
          "type": "tuple"
        }
      ],
      "payable": false,
      "stateMutability": "view",
      "type": "function"
    },
    {
      "constant": true,
      "inputs": [],
      "name": "startIFEBondSize",
      "outputs": [
        {
          "internalType": "uint128",
          "name": "",
          "type": "uint128"
        }
      ],
      "payable": false,
      "stateMutability": "view",
      "type": "function"
    },
    {
      "constant": true,
      "inputs": [],
      "name": "INITIAL_PB_BOND_SIZE",
      "outputs": [
        {
          "internalType": "uint128",
          "name": "",
          "type": "uint128"
        }
      ],
      "payable": false,
      "stateMutability": "view",
      "type": "function"
    },
    {
      "constant": false,
      "inputs": [
        {
          "components": [
            {
              "internalType": "uint160",
              "name": "exitId",
              "type": "uint160"
            },
            {
              "internalType": "bytes",
              "name": "exitingTx",
              "type": "bytes"
            },
            {
              "internalType": "bytes",
              "name": "challengeTx",
              "type": "bytes"
            },
            {
              "internalType": "uint16",
              "name": "inputIndex",
              "type": "uint16"
            },
            {
              "internalType": "bytes",
              "name": "witness",
              "type": "bytes"
            },
            {
              "internalType": "bytes",
              "name": "spendingConditionOptionalArgs",
              "type": "bytes"
            },
            {
              "internalType": "bytes",
              "name": "outputGuardPreimage",
              "type": "bytes"
            },
            {
              "internalType": "uint256",
              "name": "challengeTxPos",
              "type": "uint256"
            },
            {
              "internalType": "bytes",
              "name": "challengeTxInclusionProof",
              "type": "bytes"
            },
            {
              "internalType": "bytes",
              "name": "challengeTxConfirmSig",
              "type": "bytes"
            }
          ],
          "internalType": "struct PaymentStandardExitRouterArgs.ChallengeStandardExitArgs",
          "name": "args",
          "type": "tuple"
        }
      ],
      "name": "challengeStandardExit",
      "outputs": [],
      "payable": true,
      "stateMutability": "payable",
      "type": "function"
    },
    {
      "constant": false,
      "inputs": [
        {
          "components": [
            {
              "internalType": "bytes",
              "name": "inputTx",
              "type": "bytes"
            },
            {
              "internalType": "uint256",
              "name": "inputUtxoPos",
              "type": "uint256"
            },
            {
              "internalType": "bytes",
              "name": "inFlightTx",
              "type": "bytes"
            },
            {
              "internalType": "uint16",
              "name": "inFlightTxInputIndex",
              "type": "uint16"
            },
            {
              "internalType": "bytes",
              "name": "competingTx",
              "type": "bytes"
            },
            {
              "internalType": "uint16",
              "name": "competingTxInputIndex",
              "type": "uint16"
            },
            {
              "internalType": "bytes",
              "name": "outputGuardPreimage",
              "type": "bytes"
            },
            {
              "internalType": "uint256",
              "name": "competingTxPos",
              "type": "uint256"
            },
            {
              "internalType": "bytes",
              "name": "competingTxInclusionProof",
              "type": "bytes"
            },
            {
              "internalType": "bytes",
              "name": "competingTxWitness",
              "type": "bytes"
            },
            {
              "internalType": "bytes",
              "name": "competingTxConfirmSig",
              "type": "bytes"
            },
            {
              "internalType": "bytes",
              "name": "competingTxSpendingConditionOptionalArgs",
              "type": "bytes"
            }
          ],
          "internalType": "struct PaymentInFlightExitRouterArgs.ChallengeCanonicityArgs",
          "name": "args",
          "type": "tuple"
        }
      ],
      "name": "challengeInFlightExitNotCanonical",
      "outputs": [],
      "payable": false,
      "stateMutability": "nonpayable",
      "type": "function"
    },
    {
      "constant": false,
      "inputs": [
        {
          "components": [
            {
              "internalType": "bytes",
              "name": "inFlightTx",
              "type": "bytes"
            },
            {
              "internalType": "bytes[]",
              "name": "inputTxs",
              "type": "bytes[]"
            },
            {
              "internalType": "uint256[]",
              "name": "inputTxTypes",
              "type": "uint256[]"
            },
            {
              "internalType": "uint256[]",
              "name": "inputUtxosPos",
              "type": "uint256[]"
            },
            {
              "internalType": "bytes[]",
              "name": "outputGuardPreimagesForInputs",
              "type": "bytes[]"
            },
            {
              "internalType": "bytes[]",
              "name": "inputTxsInclusionProofs",
              "type": "bytes[]"
            },
            {
              "internalType": "bytes[]",
              "name": "inputTxsConfirmSigs",
              "type": "bytes[]"
            },
            {
              "internalType": "bytes[]",
              "name": "inFlightTxWitnesses",
              "type": "bytes[]"
            },
            {
              "internalType": "bytes[]",
              "name": "inputSpendingConditionOptionalArgs",
              "type": "bytes[]"
            }
          ],
          "internalType": "struct PaymentInFlightExitRouterArgs.StartExitArgs",
          "name": "args",
          "type": "tuple"
        }
      ],
      "name": "startInFlightExit",
      "outputs": [],
      "payable": true,
      "stateMutability": "payable",
      "type": "function"
    },
    {
      "constant": false,
      "inputs": [
        {
          "components": [
            {
              "internalType": "bytes",
              "name": "inFlightTx",
              "type": "bytes"
            },
            {
              "internalType": "uint16",
              "name": "outputIndex",
              "type": "uint16"
            },
            {
              "internalType": "bytes",
              "name": "outputGuardPreimage",
              "type": "bytes"
            }
          ],
          "internalType": "struct PaymentInFlightExitRouterArgs.PiggybackInFlightExitOnOutputArgs",
          "name": "args",
          "type": "tuple"
        }
      ],
      "name": "piggybackInFlightExitOnOutput",
      "outputs": [],
      "payable": true,
      "stateMutability": "payable",
      "type": "function"
    },
    {
      "constant": true,
      "inputs": [],
      "name": "BOND_LOWER_BOUND_DIVISOR",
      "outputs": [
        {
          "internalType": "uint16",
          "name": "",
          "type": "uint16"
        }
      ],
      "payable": false,
      "stateMutability": "view",
      "type": "function"
    },
    {
      "constant": true,
      "inputs": [],
      "name": "BOND_UPPER_BOUND_MULTIPLIER",
      "outputs": [
        {
          "internalType": "uint16",
          "name": "",
          "type": "uint16"
        }
      ],
      "payable": false,
      "stateMutability": "view",
      "type": "function"
    },
    {
      "constant": false,
      "inputs": [
        {
          "internalType": "uint128",
          "name": "newBondSize",
          "type": "uint128"
        }
      ],
      "name": "updateStartIFEBondSize",
      "outputs": [],
      "payable": false,
      "stateMutability": "nonpayable",
      "type": "function"
    },
    {
      "constant": false,
      "inputs": [
        {
          "components": [
            {
              "internalType": "bytes",
              "name": "inFlightTx",
              "type": "bytes"
            },
            {
              "internalType": "bytes",
              "name": "inFlightTxInclusionProof",
              "type": "bytes"
            },
            {
              "internalType": "uint256",
              "name": "outputUtxoPos",
              "type": "uint256"
            },
            {
              "internalType": "bytes",
              "name": "challengingTx",
              "type": "bytes"
            },
            {
              "internalType": "uint16",
              "name": "challengingTxInputIndex",
              "type": "uint16"
            },
            {
              "internalType": "bytes",
              "name": "challengingTxWitness",
              "type": "bytes"
            },
            {
              "internalType": "bytes",
              "name": "spendingConditionOptionalArgs",
              "type": "bytes"
            }
          ],
          "internalType": "struct PaymentInFlightExitRouterArgs.ChallengeOutputSpent",
          "name": "args",
          "type": "tuple"
        }
      ],
      "name": "challengeInFlightExitOutputSpent",
      "outputs": [],
      "payable": false,
      "stateMutability": "nonpayable",
      "type": "function"
    },
    {
      "constant": true,
      "inputs": [],
      "name": "INITIAL_BOND_SIZE",
      "outputs": [
        {
          "internalType": "uint128",
          "name": "",
          "type": "uint128"
        }
      ],
      "payable": false,
      "stateMutability": "view",
      "type": "function"
    },
    {
      "constant": true,
      "inputs": [],
      "name": "INITIAL_IFE_BOND_SIZE",
      "outputs": [
        {
          "internalType": "uint128",
          "name": "",
          "type": "uint128"
        }
      ],
      "payable": false,
      "stateMutability": "view",
      "type": "function"
    },
    {
      "constant": true,
      "inputs": [
        {
          "internalType": "uint160",
          "name": "exitId",
          "type": "uint160"
        }
      ],
      "name": "inFlightExits",
      "outputs": [
        {
          "components": [
            {
              "internalType": "bool",
              "name": "isCanonical",
              "type": "bool"
            },
            {
              "internalType": "uint64",
              "name": "exitStartTimestamp",
              "type": "uint64"
            },
            {
              "internalType": "uint256",
              "name": "exitMap",
              "type": "uint256"
            },
            {
              "internalType": "uint256",
              "name": "position",
              "type": "uint256"
            },
            {
              "components": [
                {
                  "internalType": "bytes32",
                  "name": "outputId",
                  "type": "bytes32"
                },
                {
                  "internalType": "address payable",
                  "name": "exitTarget",
                  "type": "address"
                },
                {
                  "internalType": "address",
                  "name": "token",
                  "type": "address"
                },
                {
                  "internalType": "uint256",
                  "name": "amount",
                  "type": "uint256"
                },
                {
                  "internalType": "uint256",
                  "name": "piggybackBondSize",
                  "type": "uint256"
                }
              ],
              "internalType": "struct PaymentExitDataModel.WithdrawData[4]",
              "name": "inputs",
              "type": "tuple[4]"
            },
            {
              "components": [
                {
                  "internalType": "bytes32",
                  "name": "outputId",
                  "type": "bytes32"
                },
                {
                  "internalType": "address payable",
                  "name": "exitTarget",
                  "type": "address"
                },
                {
                  "internalType": "address",
                  "name": "token",
                  "type": "address"
                },
                {
                  "internalType": "uint256",
                  "name": "amount",
                  "type": "uint256"
                },
                {
                  "internalType": "uint256",
                  "name": "piggybackBondSize",
                  "type": "uint256"
                }
              ],
              "internalType": "struct PaymentExitDataModel.WithdrawData[4]",
              "name": "outputs",
              "type": "tuple[4]"
            },
            {
              "internalType": "address payable",
              "name": "bondOwner",
              "type": "address"
            },
            {
              "internalType": "uint256",
              "name": "bondSize",
              "type": "uint256"
            },
            {
              "internalType": "uint256",
              "name": "oldestCompetitorPosition",
              "type": "uint256"
            }
          ],
          "internalType": "struct PaymentExitDataModel.InFlightExit",
          "name": "",
          "type": "tuple"
        }
      ],
      "payable": false,
      "stateMutability": "view",
      "type": "function"
    },
    {
      "constant": false,
      "inputs": [
        {
          "components": [
            {
              "internalType": "bytes",
              "name": "inFlightTx",
              "type": "bytes"
            },
            {
              "internalType": "uint16",
              "name": "inputIndex",
              "type": "uint16"
            }
          ],
          "internalType": "struct PaymentInFlightExitRouterArgs.PiggybackInFlightExitOnInputArgs",
          "name": "args",
          "type": "tuple"
        }
      ],
      "name": "piggybackInFlightExitOnInput",
      "outputs": [],
      "payable": true,
      "stateMutability": "payable",
      "type": "function"
    },
    {
      "constant": true,
      "inputs": [],
      "name": "startStandardExitBondSize",
      "outputs": [
        {
          "internalType": "uint128",
          "name": "",
          "type": "uint128"
        }
      ],
      "payable": false,
      "stateMutability": "view",
      "type": "function"
    },
    {
      "inputs": [
        {
          "internalType": "contract PlasmaFramework",
          "name": "framework",
          "type": "address"
        },
        {
          "internalType": "uint256",
          "name": "ethVaultId",
          "type": "uint256"
        },
        {
          "internalType": "uint256",
          "name": "erc20VaultId",
          "type": "uint256"
        },
        {
          "internalType": "contract OutputGuardHandlerRegistry",
          "name": "outputGuardHandlerRegistry",
          "type": "address"
        },
        {
          "internalType": "contract SpendingConditionRegistry",
          "name": "spendingConditionRegistry",
          "type": "address"
        },
        {
          "internalType": "contract IStateTransitionVerifier",
          "name": "stateTransitionVerifier",
          "type": "address"
        },
        {
          "internalType": "contract ITxFinalizationVerifier",
          "name": "txFinalizationVerifier",
          "type": "address"
        },
        {
          "internalType": "uint256",
          "name": "supportTxType",
          "type": "uint256"
        }
      ],
      "payable": false,
      "stateMutability": "nonpayable",
      "type": "constructor"
    },
    {
      "anonymous": false,
      "inputs": [
        {
          "indexed": false,
          "internalType": "uint128",
          "name": "bondSize",
          "type": "uint128"
        }
      ],
      "name": "IFEBondUpdated",
      "type": "event"
    },
    {
      "anonymous": false,
      "inputs": [
        {
          "indexed": false,
          "internalType": "uint128",
          "name": "bondSize",
          "type": "uint128"
        }
      ],
      "name": "PiggybackBondUpdated",
      "type": "event"
    },
    {
      "anonymous": false,
      "inputs": [
        {
          "indexed": false,
          "internalType": "uint128",
          "name": "bondSize",
          "type": "uint128"
        }
      ],
      "name": "StandardExitBondUpdated",
      "type": "event"
    },
    {
      "constant": false,
      "inputs": [
        {
          "internalType": "uint160",
          "name": "exitId",
          "type": "uint160"
        },
        {
          "internalType": "uint256",
          "name": "",
          "type": "uint256"
        },
        {
          "internalType": "address",
          "name": "token",
          "type": "address"
        }
      ],
      "name": "processExit",
      "outputs": [],
      "payable": false,
      "stateMutability": "nonpayable",
      "type": "function"
    },
    {
      "constant": true,
      "inputs": [
        {
          "internalType": "bool",
          "name": "_isDeposit",
          "type": "bool"
        },
        {
          "internalType": "bytes",
          "name": "_txBytes",
          "type": "bytes"
        },
        {
          "internalType": "uint256",
          "name": "_utxoPos",
          "type": "uint256"
        }
      ],
      "name": "getStandardExitId",
      "outputs": [
        {
          "internalType": "uint192",
          "name": "",
          "type": "uint192"
        }
      ],
      "payable": false,
      "stateMutability": "pure",
      "type": "function"
    },
    {
      "constant": true,
      "inputs": [
        {
          "internalType": "bytes",
          "name": "_txBytes",
          "type": "bytes"
        }
      ],
      "name": "getInFlightExitId",
      "outputs": [
        {
          "internalType": "uint192",
          "name": "",
          "type": "uint192"
        }
      ],
      "payable": false,
      "stateMutability": "pure",
      "type": "function"
    }
  ],
  "bytecode": "0x60806040523480156200001157600080fd5b5060405162004d6438038062004d64833981016040819052620000349162001439565b600080546001600160a01b031916331781556040517f8c64ea4a000000000000000000000000000000000000000000000000000000008152899189918991899189918991899189918991899189918991899188916001600160a01b03881690638c64ea4a90620000a9908990600401620017e3565b60206040518083038186803b158015620000c257600080fd5b505afa158015620000d7573d6000803e3d6000fd5b505050506040513d601f19601f82011682018060405250620000fd919081019062001410565b90506001600160a01b0381166200014b576040517f08c379a00000000000000000000000000000000000000000000000000000000081526004016200014290620017bf565b60405180910390fd5b6040517f8c64ea4a00000000000000000000000000000000000000000000000000000000815281906000906001600160a01b038a1690638c64ea4a9062000197908a90600401620017e3565b60206040518083038186803b158015620001b057600080fd5b505afa158015620001c5573d6000803e3d6000fd5b505050506040513d601f19601f82011682018060405250620001eb919081019062001410565b90506001600160a01b03811662000230576040517f08c379a00000000000000000000000000000000000000000000000000000000081526004016200014290620017d1565b600081905073__PaymentStartStandardExit______________63441df2f8308c8a898e8e6040518763ffffffff1660e01b8152600401620002789695949392919062001634565b6101006040518083038186803b1580156200029257600080fd5b505af4158015620002a7573d6000803e3d6000fd5b505050506040513d601f19601f82011682018060405250620002cd919081019062001580565b8051600280546001600160a01b03199081166001600160a01b03938416179091556020830151600380548316918416919091179055604080840151516004908155606085015151600555608085015160068054851691861691909117905560a08501516007805490941694169390931790915560c083015160085560e09092015160095590517f3360bc5200000000000000000000000000000000000000000000000000000000815273__PaymentChallengeStandardExit__________91633360bc5291620003a6918e918b918d918c91016200173c565b60a06040518083038186803b158015620003bf57600080fd5b505af4158015620003d4573d6000803e3d6000fd5b505050506040513d601f19601f82011682018060405250620003fa9190810190620014fa565b8051600d80546001600160a01b03199081166001600160a01b039384161790915560208084015151600e55604080850151600f80548516918616919091179055606080860151601080548616918716919091179055608090950151601180548516918616919091179055805194850181528e841680865288851686840181905294871695909101859052600a805484169091179055600b80548316909317909255600c8054909116909217909155620004ca906631bced02db000090600290819062000fda811b6200344c17901c565b601260008201518160000160006101000a8154816001600160801b0302191690836001600160801b0316021790555060208201518160000160106101000a8154816001600160801b0302191690836001600160801b0316021790555060408201518160010160006101000a8154816001600160801b0302191690836001600160801b0316021790555060608201518160010160106101000a81548161ffff021916908361ffff16021790555060808201518160010160126101000a81548161ffff021916908361ffff1602179055509050505050505050505050505073__PaymentStartInFlightExit______________631cc495f48987878787876040518763ffffffff1660e01b8152600401620005e9969594939291906200169a565b6101006040518083038186803b1580156200060357600080fd5b505af415801562000618573d6000803e3d6000fd5b505050506040513d601f19601f820116820180604052506200063e91908101906200155e565b8051601580546001600160a01b03199081166001600160a01b0393841617909155602083015151601655604080840151516017556060840151601880548416918516919091179055608084015160198054841691851691909117905560a0840151601a8054841691851691909117905560c0840151601b80549093169084161790915560e090920151601c5590517f8c64ea4a0000000000000000000000000000000000000000000000000000000081526000918a1690638c64ea4a906200070b908b90600401620017e3565b60206040518083038186803b1580156200072457600080fd5b505afa15801562000739573d6000803e3d6000fd5b505050506040513d601f19601f820116820180604052506200075f919081019062001410565b90506001600160a01b038116620007a4576040517f08c379a00000000000000000000000000000000000000000000000000000000081526004016200014290620017bf565b6040517f8c64ea4a00000000000000000000000000000000000000000000000000000000815281906000906001600160a01b038c1690638c64ea4a90620007f0908c90600401620017e3565b60206040518083038186803b1580156200080957600080fd5b505afa1580156200081e573d6000803e3d6000fd5b505050506040513d601f19601f8201168201806040525062000844919081019062001410565b90506001600160a01b03811662000889576040517f08c379a00000000000000000000000000000000000000000000000000000000081526004016200014290620017d1565b600081905073__PaymentPiggybackInFlightExit__________63134be3488d308c8f8f6040518663ffffffff1660e01b8152600401620008cf959493929190620016e6565b6101006040518083038186803b158015620008e957600080fd5b505af4158015620008fe573d6000803e3d6000fd5b505050506040513d601f19601f820116820180604052506200092491908101906200153c565b8051601d80546001600160a01b03199081166001600160a01b039384161790915560208084015151601e5560408085015151601f5560608501518254841690851617909155608084015160218054909316931692909217905560a082015160225560c082015160235560e090910151602455517f13c374f600000000000000000000000000000000000000000000000000000000815273__PaymentChallengeIFENotCanonical_______906313c374f690620009ee908f908c908e908c908c9060040162001782565b60c06040518083038186803b15801562000a0757600080fd5b505af415801562000a1c573d6000803e3d6000fd5b505050506040513d601f19601f8201168201806040525062000a4291908101906200151b565b8051602580546001600160a01b03199081166001600160a01b03938416179091556020830151516026556040808401516027805484169185169190911790556060840151602880548416918516919091179055608084015160298054909316931692909217905560a090910151602a55517f3360bc5200000000000000000000000000000000000000000000000000000000815273__PaymentChallengeIFEInputSpent_________90633360bc529062000b08908f908c908e908c906004016200173c565b60a06040518083038186803b15801562000b2157600080fd5b505af415801562000b36573d6000803e3d6000fd5b505050506040513d601f19601f8201168201806040525062000b5c9190810190620014fa565b602b60008201518160000160006101000a8154816001600160a01b0302191690836001600160a01b0316021790555060208201518160010160008201518160000155505060408201518160020160006101000a8154816001600160a01b0302191690836001600160a01b0316021790555060608201518160030160006101000a8154816001600160a01b0302191690836001600160a01b0316021790555060808201518160040160006101000a8154816001600160a01b0302191690836001600160a01b0316021790555090505060405180608001604052808d6001600160a01b03168152602001896001600160a01b031681526020018a6001600160a01b03168152602001876001600160a01b0316815250603360008201518160000160006101000a8154816001600160a01b0302191690836001600160a01b0316021790555060208201518160010160006101000a8154816001600160a01b0302191690836001600160a01b0316021790555060408201518160020160006101000a8154816001600160a01b0302191690836001600160a01b0316021790555060608201518160030160006101000a8154816001600160a01b0302191690836001600160a01b0316021790555090505060405180606001604052808d6001600160a01b03168152602001846001600160a01b03168152602001826001600160a01b0316815250603060008201518160000160006101000a8154816001600160a01b0302191690836001600160a01b0316021790555060208201518160010160006101000a8154816001600160a01b0302191690836001600160a01b0316021790555060408201518160020160006101000a8154816001600160a01b0302191690836001600160a01b0316021790555090505062000e0a6683734dd0b0800060028062000fda60201b6200344c1760201c565b8051603780546020808501516001600160801b03199283166001600160801b0395861617851670010000000000000000000000000000000091861682021790935560408501516038805460608801516080909801519416919095161761ffff60801b191661ffff9586169093029290921761ffff60901b19167201000000000000000000000000000000000000949091169390930292909217905562000ec790666379da05b6000090600290819062000fda811b6200344c17901c565b603960008201518160000160006101000a8154816001600160801b0302191690836001600160801b0316021790555060208201518160000160106101000a8154816001600160801b0302191690836001600160801b0316021790555060408201518160010160006101000a8154816001600160801b0302191690836001600160801b0316021790555060608201518160010160106101000a81548161ffff021916908361ffff16021790555060808201518160010160126101000a81548161ffff021916908361ffff16021790555090505050505050505050505050505087603b60006101000a8154816001600160a01b0302191690836001600160a01b0316021790555050505050505050506200187c565b62000fe462001025565b506040805160a0810182526001600160801b03949094168452600060208501526780000000000000009084015261ffff918216606084015216608082015290565b6040805160a08101825260008082526020820181905291810182905260608101829052608081019190915290565b805162001060816200184c565b92915050565b8051620010608162001866565b6000602082840312156200108657600080fd5b620010926020620017f3565b90506000620010a2848462001403565b82525092915050565b600060a08284031215620010be57600080fd5b620010ca60a0620017f3565b90506000620010da848462001066565b8252506020620010ed8484830162001073565b6020830152506040620011038482850162001066565b6040830152506060620011198482850162001066565b60608301525060806200112f8482850162001066565b60808301525092915050565b600060c082840312156200114e57600080fd5b6200115a60c0620017f3565b905060006200116a848462001066565b82525060206200117d8484830162001073565b6020830152506040620011938482850162001066565b6040830152506060620011a98482850162001066565b6060830152506080620011bf8482850162001066565b60808301525060a0620011d58482850162001403565b60a08301525092915050565b60006101008284031215620011f557600080fd5b62001202610100620017f3565b9050600062001212848462001066565b8252506020620012258484830162001073565b60208301525060406200123b8482850162001073565b6040830152506060620012518482850162001066565b6060830152506080620012678482850162001066565b60808301525060a06200127d8482850162001403565b60a08301525060c0620012938482850162001403565b60c08301525060e0620012a98482850162001403565b60e08301525092915050565b60006101008284031215620012c957600080fd5b620012d6610100620017f3565b90506000620012e6848462001066565b8252506020620012f98484830162001073565b60208301525060406200130f8482850162001073565b6040830152506060620013258482850162001066565b60608301525060806200133b8482850162001066565b60808301525060a0620013518482850162001066565b60a08301525060c0620012938482850162001066565b600061010082840312156200137b57600080fd5b62001388610100620017f3565b9050600062001398848462001066565b8252506020620013ab8484830162001066565b6020830152506040620013c18482850162001073565b6040830152506060620013d78482850162001073565b6060830152506080620013ed8482850162001066565b60808301525060a06200127d8482850162001066565b8051620010608162001871565b6000602082840312156200142357600080fd5b600062001431848462001053565b949350505050565b600080600080600080600080610100898b0312156200145757600080fd5b6000620014658b8b62001066565b9850506020620014788b828c0162001403565b97505060406200148b8b828c0162001403565b96505060606200149e8b828c0162001066565b9550506080620014b18b828c0162001066565b94505060a0620014c48b828c0162001066565b93505060c0620014d78b828c0162001066565b92505060e0620014ea8b828c0162001403565b9150509295985092959890939650565b600060a082840312156200150d57600080fd5b6000620014318484620010ab565b600060c082840312156200152e57600080fd5b60006200143184846200113b565b600061010082840312156200155057600080fd5b6000620014318484620011e1565b600061010082840312156200157257600080fd5b6000620014318484620012b5565b600061010082840312156200159457600080fd5b600062001431848462001367565b620015ad8162001830565b82525050565b6000620015c26011836200181a565b7f496e76616c696420455448207661756c74000000000000000000000000000000815260200192915050565b6000620015fd6013836200181a565b7f496e76616c6964204552433230207661756c7400000000000000000000000000815260200192915050565b620015ad8162001849565b60c08101620016448289620015a2565b620016536020830188620015a2565b620016626040830187620015a2565b620016716060830186620015a2565b62001680608083018562001629565b6200168f60a083018462001629565b979650505050505050565b60c08101620016aa8289620015a2565b620016b96020830188620015a2565b620016c86040830187620015a2565b620016d76060830186620015a2565b620016806080830185620015a2565b60a08101620016f68288620015a2565b620017056020830187620015a2565b620017146040830186620015a2565b62001723606083018562001629565b62001732608083018462001629565b9695505050505050565b608081016200174c8287620015a2565b6200175b6020830186620015a2565b6200176a6040830185620015a2565b620017796060830184620015a2565b95945050505050565b60a08101620017928288620015a2565b620017a16020830187620015a2565b620017b06040830186620015a2565b620017236060830185620015a2565b602080825281016200106081620015b3565b602080825281016200106081620015ee565b6020810162001060828462001629565b6040518181016001600160401b03811182821017156200181257600080fd5b604052919050565b90815260200190565b600062001060826200183d565b6000620010608262001823565b6001600160a01b031690565b90565b620018578162001823565b81146200186357600080fd5b50565b620018578162001830565b620018578162001849565b6134d8806200188c6000396000f3fe6080604052600436106101815760003560e01c80638c9963f0116100d1578063b22d3e141161008a578063c96e7c0511610064578063c96e7c05146103fc578063e47a463114610411578063e5bc60c71461043e578063fe32a1241461045157610181565b8063b22d3e14146103a7578063b8fd17fa146103c7578063c170ecf5146103e757610181565b80638c9963f01461031f5780638e64afba1461033f5780638ec32e8f14610352578063905d6a9914610365578063a0e403b114610365578063b177ba231461038757610181565b8063570ca7351161013e5780637702fa17116101185780637702fa17146102b55780637e2b2efe146102ca5780638301d179146102df578063839c78f9146102f257610181565b8063570ca735146102465780635c0e683a14610268578063684963511461029557610181565b8063163d7bc7146101865780632d3cd2e9146101a8578063315fb7da146101c857806336660de4146101e85780633f1214cf1461020857806345462b9a14610233575b600080fd5b34801561019257600080fd5b506101a66101a1366004612239565b610466565b005b3480156101b457600080fd5b506101a66101c33660046120cd565b6104e4565b3480156101d457600080fd5b506101a66101e3366004612239565b610598565b3480156101f457600080fd5b506101a6610203366004612029565b610602565b34801561021457600080fd5b5061021d6106c4565b60405161022a91906132b8565b60405180910390f35b6101a6610241366004612205565b610729565b34801561025257600080fd5b5061025b61083c565b60405161022a9190613017565b34801561027457600080fd5b50610288610283366004612257565b61084b565b60405161022a91906132aa565b3480156102a157600080fd5b506101a66102b0366004612275565b6108cb565b3480156102c157600080fd5b5061021d610923565b3480156102d657600080fd5b5061021d610983565b6101a66102ed366004612135565b61098e565b3480156102fe57600080fd5b5061031261030d366004611ff5565b610a0f565b60405161022a91906132d4565b34801561032b57600080fd5b506101a661033a366004612099565b610a29565b6101a661034d3660046121d1565b610ab2565b6101a661036036600461219d565b610b8b565b34801561037157600080fd5b5061037a610c5e565b60405161022a91906132c6565b34801561039357600080fd5b506101a66103a2366004612239565b610c63565b3480156103b357600080fd5b506103126103c2366004611f91565b610ccd565b3480156103d357600080fd5b506101a66103e2366004612101565b610d05565b3480156103f357600080fd5b5061021d610d75565b34801561040857600080fd5b5061021d610d80565b34801561041d57600080fd5b5061043161042c366004612257565b610d8b565b60405161022a919061329b565b6101a661044c366004612169565b610f2c565b34801561045d57600080fd5b5061021d610fff565b6000546001600160a01b031633146104995760405162461bcd60e51b815260040161049090613025565b60405180910390fd5b6104aa60128263ffffffff61105f16565b7fd21ccbbae3d29826d53310efdc993c64e27496dd31694b292f1a120344ec37ab816040516104d991906132b8565b60405180910390a150565b6040805160a081018252602b546001600160a01b039081168252825160208181018552602c548252830152602d54811682840152602e5481166060830152602f541660808201529051634bb4a4df60e11b815273__PaymentChallengeIFEInputSpent_________9163976949be9161056591906014908690600401613095565b60006040518083038186803b15801561057d57600080fd5b505af4158015610591573d6000803e3d6000fd5b5050505050565b6000546001600160a01b031633146105c25760405162461bcd60e51b815260040161049090613025565b6105d360398263ffffffff61105f16565b7f30ce291291dca42b8168ab211fafc36d3d4868292ed3259874ed00864432e20e816040516104d991906132b8565b6040805160c0810182526025546001600160a01b039081168252825160208181018552602654825283015260275481168284015260285481166060830152602954166080820152602a5460a08201529051630c27711f60e11b815273__PaymentChallengeIFENotCanonical_______9163184ee23e9161068f91906014908890889088906004016130c2565b60006040518083038186803b1580156106a757600080fd5b505af41580156106bb573d6000803e3d6000fd5b50505050505050565b6040805160a0810182526039546001600160801b038082168352600160801b9182900481166020840152603a549081169383019390935261ffff90830481166060830152600160901b90920490911660808201526000906107249061114d565b905090565b610731610fff565b6001600160801b03168034146107595760405162461bcd60e51b815260040161049090613055565b60408051610100810182526002546001600160a01b0390811682526003548116602080840191909152835180820185526004805482528486019190915284519182018552600554825260608401919091526006548216608084015260075490911660a083015260085460c083015260095460e083015291516332c812a760e11b815273__PaymentStartStandardExit______________92636590254e9261080892909160019188910161326b565b60006040518083038186803b15801561082057600080fd5b505af4158015610834573d6000803e3d6000fd5b505050505050565b6000546001600160a01b031690565b61085361141e565b506001600160a01b03808216600090815260016020818152604092839020835160c081018552815460ff81161515825261010090046001600160c01b0316928101929092529182015492810192909252600281015490921660608201526003820154608082015260049091015460a08201525b919050565b603b546001600160a01b03163381146108f65760405162461bcd60e51b815260040161049090613045565b6108ff84611177565b156109135761090e848361119d565b61091d565b61091d8483611205565b50505050565b6040805160a0810182526037546001600160801b038082168352600160801b91829004811660208401526038549081169383019390935261ffff90830481166060830152600160901b90920490911660808201526000906107249061114d565b666379da05b6000081565b6040805160a081018252600d546001600160a01b039081168252825160208181018552600e548252830152600f5481168284015260105481166060830152601154166080820152905163edc91d4b60e01b815273__PaymentChallengeStandardExit__________9163edc91d4b9161056591906001908690600401613179565b6000610a1a8261126d565b6001600160a01b031692915050565b6040805160c0810182526025546001600160a01b039081168252825160208181018552602654825283015260275481168284015260285481166060830152602954166080820152602a5460a08201529051631287d7e160e31b815273__PaymentChallengeIFENotCanonical_______9163943ebf08916105659190601490869060040161311e565b610aba610923565b6001600160801b0316803414610ae25760405162461bcd60e51b815260040161049090613055565b60408051610100810182526015546001600160a01b039081168252825160208181018552601654825280840191909152835190810184526017548152828401526018548116606083015260195481166080830152601a54811660a0830152601b541660c0820152601c5460e08201529051631ff4513b60e01b815273__PaymentStartInFlightExit______________91631ff4513b916108089190601490879060040161323b565b610b936106c4565b6001600160801b0316803414610bbb5760405162461bcd60e51b815260040161049090613055565b6040805161010081018252601d546001600160a01b039081168252825160208181018552601e5482528084019190915283518082018552601f54815283850152548116606083015260215416608082015260225460a082015260235460c082015260245460e0820152905163082153e960e21b815273__PaymentPiggybackInFlightExit__________916320854fa491610808919060149087906004016131d6565b600281565b6000546001600160a01b03163314610c8d5760405162461bcd60e51b815260040161049090613025565b610c9e60378263ffffffff61105f16565b7f63ccac61f03626a0e717e96da239ff8996745b6c4ddcaffdedc88d7ef938f5ec816040516104d991906132b8565b6000610cd7611453565b506040805160208101909152828152610cf1858583611291565b6001600160a01b03169150505b9392505050565b604080516080810182526033546001600160a01b0390811682526034548116602083015260355481168284015260365416606082015290516359cff02160e01b815273__PaymentChallengeIFEOutputSpent________916359cff021916105659190601490869060040161314c565b6631bced02db000081565b6683734dd0b0800081565b610d93611466565b6001600160a01b0382166000908152601460209081526040808320815161012081018352815460ff81161515825261010090046001600160401b03169381019390935260018101548383015260028101546060840152815160808082019093529293909291840191906003840190600490835b82821015610e6d576040805160a081018252600584028601805482526001808201546001600160a01b039081166020808601919091526002840154909116948401949094526003820154606084015260049091015460808301529083529092019101610e06565b5050509082525060408051608081019091526020909101906017830160046000835b82821015610ef6576040805160a081018252600584028601805482526001808201546001600160a01b039081166020808601919091526002840154909116948401949094526003820154606084015260049091015460808301529083529092019101610e8f565b50505090825250602b8201546001600160a01b03166020820152602c8201546040820152602d9091015460609091015292915050565b610f346106c4565b6001600160801b0316803414610f5c5760405162461bcd60e51b815260040161049090613055565b6040805161010081018252601d546001600160a01b039081168252825160208181018552601e5482528084019190915283518082018552601f54815283850152548116606083015260215416608082015260225460a082015260235460c082015260245460e08201529051631845801f60e11b815273__PaymentPiggybackInFlightExit__________9163308b003e91610808919060149087906004016131a6565b6040805160a0810182526012546001600160801b038082168352600160801b91829004811660208401526013549081169383019390935261ffff90830481166060830152600160901b90920490911660808201526000906107249061114d565b6040805160a08101825283546001600160801b038082168352600160801b918290048116602084015260018601549081169383019390935261ffff90830481166060830152600160901b90920490911660808201526110be90826112fe565b8154600160801b90046001600160801b0316158015906110eb575060018201546001600160801b03164210155b15611112578154600160801b81046001600160801b03166001600160801b03199091161782555b81546001600160801b03918216600160801b02911617815560010180546001600160801b0319166001600160401b03426202a3000116179055565b600081604001516001600160801b031642101561116c575080516108c6565b5060208101516108c6565b60006111936001600160a01b038316609763ffffffff6113c116565b60ff161592915050565b60408051606081018252600a546001600160a01b039081168252600b5481166020830152600c54168183015290516373c97b6d60e11b815273__PaymentProcessStandardExit____________9163e792f6da91610808919060019087908790600401613206565b604080516060810182526030546001600160a01b0390811682526031548116602083015260325416818301529051632309cb3d60e01b815273__PaymentProcessInFlightExit____________91632309cb3d91610808919060149087908790600401613206565b8051602082012060009061128b9060691c609763ffffffff6113cb16565b92915050565b600083156112e25781516040516000916112b091869190602001612ff5565b6040516020818303038152906040528051906020012090506112da816112d5856113d8565b6113e1565b915050610cfe565b6112f683805190602001206112d5846113d8565b949350505050565b60006113098361114d565b90506000826001600160801b0316116113345760405162461bcd60e51b815260040161049090613065565b826060015161ffff16816001600160801b03168161134e57fe5b046001600160801b0316826001600160801b031610156113805760405162461bcd60e51b815260040161049090613075565b826080015161ffff16816001600160801b031602826001600160801b031611156113bc5760405162461bcd60e51b815260040161049090613035565b505050565b60ff161c60011690565b600160ff919091161b1790565b51612710900690565b6000606983901c61ffff60981b609884901b1617806001600160a01b03811681146112f65760405162461bcd60e51b815260040161049090613085565b6040805160c081018252600080825260208201819052918101829052606081018290526080810182905260a081019190915290565b6040518060200160405280600081525090565b60405180610120016040528060001515815260200160006001600160401b0316815260200160008152602001600081526020016114a16114d2565b81526020016114ae6114d2565b815260200160006001600160a01b0316815260200160008152602001600081525090565b60405180608001604052806004905b6114e96114ff565b8152602001906001900390816114e15790505090565b6040805160a08101825260008082526020820181905291810182905260608101829052608081019190915290565b803561128b816133ff565b600082601f83011261154957600080fd5b813561155c61155782613308565b6132e2565b81815260209384019390925082018360005b8381101561159a5781358601611584888261161f565b845250602092830192919091019060010161156e565b5050505092915050565b600082601f8301126115b557600080fd5b81356115c361155782613308565b915081818352602084019350602081019050838560208402820111156115e857600080fd5b60005b8381101561159a57816115fe8882611f86565b84525060209283019291909101906001016115eb565b803561128b81613416565b600082601f83011261163057600080fd5b813561163e61155782613328565b9150808252602083016020830185838301111561165a57600080fd5b6116658382846133bd565b50505092915050565b6000610180828403121561168157600080fd5b61168c6101806132e2565b905081356001600160401b038111156116a457600080fd5b6116b08482850161161f565b82525060206116c184848301611f86565b60208301525060408201356001600160401b038111156116e057600080fd5b6116ec8482850161161f565b604083015250606061170084828501611f65565b60608301525060808201356001600160401b0381111561171f57600080fd5b61172b8482850161161f565b60808301525060a061173f84828501611f65565b60a08301525060c08201356001600160401b0381111561175e57600080fd5b61176a8482850161161f565b60c08301525060e061177e84828501611f86565b60e0830152506101008201356001600160401b0381111561179e57600080fd5b6117aa8482850161161f565b610100830152506101208201356001600160401b038111156117cb57600080fd5b6117d78482850161161f565b610120830152506101408201356001600160401b038111156117f857600080fd5b6118048482850161161f565b610140830152506101608201356001600160401b0381111561182557600080fd5b6118318482850161161f565b6101608301525092915050565b6000610100828403121561185157600080fd5b61185c6101006132e2565b905081356001600160401b0381111561187457600080fd5b6118808482850161161f565b825250602061189184848301611f65565b60208301525060408201356001600160401b038111156118b057600080fd5b6118bc8482850161161f565b60408301525060606118d084828501611f65565b60608301525060808201356001600160401b038111156118ef57600080fd5b6118fb8482850161161f565b60808301525060a08201356001600160401b0381111561191a57600080fd5b6119268482850161161f565b60a08301525060c061193a84828501611f86565b60c08301525060e08201356001600160401b0381111561195957600080fd5b6119658482850161161f565b60e08301525092915050565b600060e0828403121561198357600080fd5b61198d60e06132e2565b905081356001600160401b038111156119a557600080fd5b6119b18482850161161f565b82525060208201356001600160401b038111156119cd57600080fd5b6119d98482850161161f565b60208301525060406119ed84828501611f86565b60408301525060608201356001600160401b03811115611a0c57600080fd5b611a188482850161161f565b6060830152506080611a2c84828501611f65565b60808301525060a08201356001600160401b03811115611a4b57600080fd5b611a578482850161161f565b60a08301525060c08201356001600160401b03811115611a7657600080fd5b611a828482850161161f565b60c08301525092915050565b60006101408284031215611aa157600080fd5b611aac6101406132e2565b90506000611aba8484611f70565b82525060208201356001600160401b03811115611ad657600080fd5b611ae28482850161161f565b60208301525060408201356001600160401b03811115611b0157600080fd5b611b0d8482850161161f565b6040830152506060611b2184828501611f65565b60608301525060808201356001600160401b03811115611b4057600080fd5b611b4c8482850161161f565b60808301525060a08201356001600160401b03811115611b6b57600080fd5b611b778482850161161f565b60a08301525060c08201356001600160401b03811115611b9657600080fd5b611ba28482850161161f565b60c08301525060e0611bb684828501611f86565b60e0830152506101008201356001600160401b03811115611bd657600080fd5b611be28482850161161f565b610100830152506101208201356001600160401b03811115611c0357600080fd5b611c0f8482850161161f565b6101208301525092915050565b600060408284031215611c2e57600080fd5b611c3860406132e2565b905081356001600160401b03811115611c5057600080fd5b611c5c8482850161161f565b8252506020611c6d84848301611f65565b60208301525092915050565b600060608284031215611c8b57600080fd5b611c9560606132e2565b905081356001600160401b03811115611cad57600080fd5b611cb98482850161161f565b8252506020611cca84848301611f65565b60208301525060408201356001600160401b03811115611ce957600080fd5b611cf58482850161161f565b60408301525092915050565b60006101208284031215611d1457600080fd5b611d1f6101206132e2565b905081356001600160401b03811115611d3757600080fd5b611d438482850161161f565b82525060208201356001600160401b03811115611d5f57600080fd5b611d6b84828501611538565b60208301525060408201356001600160401b03811115611d8a57600080fd5b611d96848285016115a4565b60408301525060608201356001600160401b03811115611db557600080fd5b611dc1848285016115a4565b60608301525060808201356001600160401b03811115611de057600080fd5b611dec84828501611538565b60808301525060a08201356001600160401b03811115611e0b57600080fd5b611e1784828501611538565b60a08301525060c08201356001600160401b03811115611e3657600080fd5b611e4284828501611538565b60c08301525060e08201356001600160401b03811115611e6157600080fd5b611e6d84828501611538565b60e0830152506101008201356001600160401b03811115611e8d57600080fd5b611e9984828501611538565b6101008301525092915050565b600060808284031215611eb857600080fd5b611ec260806132e2565b90506000611ed08484611f7b565b82525060208201356001600160401b03811115611eec57600080fd5b611ef88482850161161f565b60208301525060408201356001600160401b03811115611f1757600080fd5b611f238482850161161f565b60408301525060608201356001600160401b03811115611f4257600080fd5b611f4e8482850161161f565b60608301525092915050565b803561128b8161341f565b803561128b81613428565b803561128b81613431565b803561128b8161343a565b803561128b81613443565b600080600060608486031215611fa657600080fd5b6000611fb28686611614565b93505060208401356001600160401b03811115611fce57600080fd5b611fda8682870161161f565b9250506040611feb86828701611f86565b9150509250925092565b60006020828403121561200757600080fd5b81356001600160401b0381111561201d57600080fd5b6112f68482850161161f565b60008060006060848603121561203e57600080fd5b83356001600160401b0381111561205457600080fd5b6120608682870161161f565b935050602061207186828701611f86565b92505060408401356001600160401b0381111561208d57600080fd5b611feb8682870161161f565b6000602082840312156120ab57600080fd5b81356001600160401b038111156120c157600080fd5b6112f68482850161166e565b6000602082840312156120df57600080fd5b81356001600160401b038111156120f557600080fd5b6112f68482850161183e565b60006020828403121561211357600080fd5b81356001600160401b0381111561212957600080fd5b6112f684828501611971565b60006020828403121561214757600080fd5b81356001600160401b0381111561215d57600080fd5b6112f684828501611a8e565b60006020828403121561217b57600080fd5b81356001600160401b0381111561219157600080fd5b6112f684828501611c1c565b6000602082840312156121af57600080fd5b81356001600160401b038111156121c557600080fd5b6112f684828501611c79565b6000602082840312156121e357600080fd5b81356001600160401b038111156121f957600080fd5b6112f684828501611d01565b60006020828403121561221757600080fd5b81356001600160401b0381111561222d57600080fd5b6112f684828501611ea6565b60006020828403121561224b57600080fd5b60006112f68484611f5a565b60006020828403121561226957600080fd5b60006112f68484611f70565b60008060006060848603121561228a57600080fd5b60006122968686611f70565b93505060206122a786828701611f86565b9250506040611feb8682870161152d565b6000610cfe8383612420565b60006122d08383612f5a565b505060a00190565b60006122e48383612417565b505060200190565b6122f58161336b565b82525050565b600061230682613358565b6123108185613362565b9350836020820285016123228561334f565b8060005b8581101561235c578484038952815161233f85826122b8565b945061234a8361334f565b60209a909a0199925050600101612326565b5091979650505050505050565b6123728161335c565b61237c81846108c6565b925061238782613355565b8060005b8381101561083457815161239f87826122c4565b96506123aa8361334f565b92505060010161238b565b60006123c082613358565b6123ca8185613362565b93506123d58361334f565b8060005b838110156124035781516123ed88826122d8565b97506123f88361334f565b9250506001016123d9565b509495945050505050565b6122f581613376565b6122f581613355565b600061242b82613358565b6124358185613362565b93506124458185602086016133c9565b61244e816133f5565b9093019392505050565b600061246382613358565b61246d81856108c6565b935061247d8185602086016133c9565b9290920192915050565b6122f5816133b2565b600061249d601c83613362565b7f4e6f74206265696e672063616c6c6564206279206f70657261746f7200000000815260200192915050565b60006124d6601583613362565b74084dedcc840e6d2f4ca40d2e640e8dede40d0d2ced605b1b815260200192915050565b6000612507602383613362565b7f4e6f74206265696e672063616c6c65642062792065787065637465642063616c8152623632b960e91b602082015260400192915050565b600061254c602583613362565b7f496e7075742076616c7565206d69736d6174636865732077697468206d73672e81526476616c756560d81b602082015260400192915050565b6000612593601883613362565b7f426f6e642073697a652063616e6e6f74206265207a65726f0000000000000000815260200192915050565b60006125cc601483613362565b73426f6e642073697a6520697320746f6f206c6f7760601b815260200192915050565b60006125fc601083613362565b6f457869744964206f766572666c6f777360801b815260200192915050565b8051602083019061091d8482612417565b8051610180808452600091908401906126458282612420565b915050602083015161265a6020860182612417565b50604083015184820360408601526126728282612420565b91505060608301516126876060860182612fc9565b506080830151848203608086015261269f8282612420565b91505060a08301516126b460a0860182612fc9565b5060c083015184820360c08601526126cc8282612420565b91505060e08301516126e160e0860182612417565b506101008301518482036101008601526126fb8282612420565b9150506101208301518482036101208601526127178282612420565b9150506101408301518482036101408601526127338282612420565b91505061016083015184820361016086015261274f8282612420565b95945050505050565b8051610100808452600091908401906127718282612420565b91505060208301516127866020860182612fc9565b506040830151848203604086015261279e8282612420565b91505060608301516127b36060860182612fc9565b50608083015184820360808601526127cb8282612420565b91505060a083015184820360a08601526127e58282612420565b91505060c08301516127fa60c0860182612417565b5060e083015184820360e086015261274f8282612420565b805160e08084526000919084019061282a8282612420565b915050602083015184820360208601526128448282612420565b91505060408301516128596040860182612417565b50606083015184820360608601526128718282612420565b91505060808301516128866080860182612fc9565b5060a083015184820360a086015261289e8282612420565b91505060c083015184820360c086015261274f8282612420565b80516000906101408401906128cd8582612fc0565b50602083015184820360208601526128e58282612420565b915050604083015184820360408601526128ff8282612420565b91505060608301516129146060860182612fc9565b506080830151848203608086015261292c8282612420565b91505060a083015184820360a08601526129468282612420565b91505060c083015184820360c08601526129608282612420565b91505060e083015161297560e0860182612417565b5061010083015184820361010086015261298f8282612420565b91505061012083015184820361012086015261274f8282612420565b805160a08301906129bc8482612487565b5060208201516129cf602085018261261b565b5060408201516129e26040850182612487565b5060608201516129f56060850182612487565b50608082015161091d6080850182612487565b805160c0830190612a198482612487565b506020820151612a2c602085018261261b565b506040820151612a3f6040850182612487565b506060820151612a526060850182612487565b506080820151612a656080850182612487565b5060a082015161091d60a0850182612417565b80516080830190612a898482612487565b506020820151612a9c6020850182612487565b506040820151612aaf6040850182612487565b50606082015161091d6060850182612487565b8051610100830190612ad48482612487565b506020820151612ae7602085018261261b565b506040820151612afa604085018261261b565b506060820151612b0d6060850182612487565b506080820151612b206080850182612487565b5060a0820151612b3360a0850182612417565b5060c0820151612b4660c0850182612417565b5060e082015161091d60e0850182612417565b80516060830190612b6a8482612487565b506020820151612b7d6020850182612487565b50604082015161091d6040850182612487565b8051610100830190612ba28482612487565b506020820151612bb5602085018261261b565b506040820151612bc8604085018261261b565b506060820151612bdb6060850182612487565b506080820151612bee6080850182612487565b5060a0820151612c0160a0850182612487565b5060c0820151612b4660c0850182612487565b8051610100830190612c268482612487565b506020820151612c396020850182612487565b506040820151612c4c604085018261261b565b506060820151612c5f606085018261261b565b506080820151612c726080850182612487565b5060a0820151612b3360a0850182612487565b9052565b80516105e0830190612c9b848261240e565b506020820151612cae6020850182612fec565b506040820151612cc16040850182612417565b506060820151612cd46060850182612417565b506080820151612ce76080850182612369565b5060a0820151612cfb610300850182612369565b5060c0820151612d0f6105808501826122ec565b5060e0820151612d236105a0850182612417565b5061010082015161091d6105c0850182612417565b8051604080845260009190840190612d508282612420565b9150506020830151612d656020860182612fc9565b509392505050565b8051606080845260009190840190612d858282612420565b9150506020830151612d9a6020860182612fc9565b506040830151848203604086015261274f8282612420565b805160c0830190612dc3848261240e565b506020820151612dd66020850182612fd2565b506040820151612de96040850182612417565b506060820151612dfc60608501826122ec565b506080820151612a656080850182612417565b805161012080845260009190840190612e288282612420565b91505060208301518482036020860152612e4282826122fb565b91505060408301518482036040860152612e5c82826123b5565b91505060608301518482036060860152612e7682826123b5565b91505060808301518482036080860152612e9082826122fb565b91505060a083015184820360a0860152612eaa82826122fb565b91505060c083015184820360c0860152612ec482826122fb565b91505060e083015184820360e0860152612ede82826122fb565b91505061010083015184820361010086015261274f82826122fb565b80516000906080840190612f0e8582612fd2565b5060208301518482036020860152612f268282612420565b91505060408301518482036040860152612f408282612420565b9150506060830151848203606086015261274f8282612420565b805160a0830190612f6b8482612417565b506020820151612f7e60208501826122ec565b506040820151612f9160408501826122ec565b506060820151612fa46060850182612417565b50608082015161091d6080850182612417565b6122f58161337b565b6122f58161338e565b6122f581613387565b6122f58161339a565b6122f5612fe782613355565b613355565b6122f5816133a6565b60006130018285612458565b915061300d8284612fdb565b5060200192915050565b6020810161128b82846122ec565b6020808252810161128b81612490565b6020808252810161128b816124c9565b6020808252810161128b816124fa565b6020808252810161128b8161253f565b6020808252810161128b81612586565b6020808252810161128b816125bf565b6020808252810161128b816125ef565b60e081016130a382866129ab565b6130b060a0830185612c85565b81810360c083015261274f8184612758565b61014081016130d18288612a08565b6130de60c0830187612c85565b81810360e08301526130f08186612420565b9050613100610100830185612417565b8181036101208301526131138184612420565b979650505050505050565b610100810161312d8286612a08565b61313a60c0830185612c85565b81810360e083015261274f818461262c565b60c0810161315a8286612a78565b6131676080830185612c85565b81810360a083015261274f8184612812565b60e0810161318782866129ab565b61319460a0830185612c85565b81810360c083015261274f81846128b8565b61014081016131b58286612ac2565b6131c3610100830185612c85565b81810361012083015261274f8184612d38565b61014081016131e58286612ac2565b6131f3610100830185612c85565b81810361012083015261274f8184612d6d565b60c081016132148287612b59565b6132216060830186612c85565b61322e6080830185612fc0565b61274f60a08301846122ec565b610140810161324a8286612b90565b613258610100830185612c85565b81810361012083015261274f8184612e0f565b610140810161327a8286612c14565b613288610100830185612c85565b81810361012083015261274f8184612efa565b6105e0810161128b8284612c89565b60c0810161128b8284612db2565b6020810161128b8284612fb7565b6020810161128b8284612fc9565b6020810161128b8284612fd2565b6040518181016001600160401b038111828210171561330057600080fd5b604052919050565b60006001600160401b0382111561331e57600080fd5b5060209081020190565b60006001600160401b0382111561333e57600080fd5b506020601f91909101601f19160190565b60200190565b90565b5190565b50600490565b90815260200190565b600061128b8261338e565b151590565b6001600160801b031690565b61ffff1690565b6001600160a01b031690565b6001600160c01b031690565b6001600160401b031690565b600061128b8261336b565b82818337506000910152565b60005b838110156133e45781810151838201526020016133cc565b8381111561091d5750506000910152565b601f01601f191690565b6134088161336b565b811461341357600080fd5b50565b61340881613376565b6134088161337b565b61340881613387565b6134088161338e565b6134088161339a565b61340881613355565b6134546114ff565b506040805160a0810182526001600160801b03949094168452600060208501526780000000000000009084015261ffff91821660608401521660808201529056fea365627a7a723158204f24c1b73d2d8efb390a7dc39c133e0db39cdbad726c560046b77c058c8d49f86c6578706572696d656e74616cf564736f6c634300050b0040",
  "source": "pragma solidity 0.5.11;\npragma experimental ABIEncoderV2;\n\nimport \"./routers/PaymentStandardExitRouter.sol\";\nimport \"./routers/PaymentInFlightExitRouter.sol\";\nimport \"../interfaces/IStateTransitionVerifier.sol\";\nimport \"../interfaces/ITxFinalizationVerifier.sol\";\nimport \"../utils/ExitId.sol\";\nimport \"../../framework/interfaces/IExitProcessor.sol\";\nimport \"../../framework/PlasmaFramework.sol\";\nimport \"../../utils/OnlyFromAddress.sol\";\n\n/**\n * @notice The exit game contract implementation for Payment Transaction\n */\ncontract PaymentExitGame is IExitProcessor, PaymentStandardExitRouter, PaymentInFlightExitRouter, OnlyFromAddress {\n\n    PlasmaFramework private plasmaFramework;\n\n    constructor(\n        PlasmaFramework framework,\n        uint256 ethVaultId,\n        uint256 erc20VaultId,\n        OutputGuardHandlerRegistry outputGuardHandlerRegistry,\n        SpendingConditionRegistry spendingConditionRegistry,\n        IStateTransitionVerifier stateTransitionVerifier,\n        ITxFinalizationVerifier txFinalizationVerifier,\n        uint256 supportTxType\n    )\n        public\n        PaymentStandardExitRouter(\n            framework,\n            ethVaultId,\n            erc20VaultId,\n            outputGuardHandlerRegistry,\n            spendingConditionRegistry,\n            txFinalizationVerifier\n        )\n        PaymentInFlightExitRouter(\n            framework,\n            ethVaultId,\n            erc20VaultId,\n            outputGuardHandlerRegistry,\n            spendingConditionRegistry,\n            stateTransitionVerifier,\n            txFinalizationVerifier,\n            supportTxType\n        )\n    {\n        plasmaFramework = framework;\n    }\n\n    /**\n     * @notice Callback processes exit function for the PlasmaFramework to call.\n     * @param exitId exit id.\n     * @param token token (ERC20 address or address(0) for ETH) of the exiting output.\n     */\n    function processExit(uint160 exitId, uint256, address token) external onlyFrom(address(plasmaFramework)) {\n        if (ExitId.isStandardExit(exitId)) {\n            PaymentStandardExitRouter.processStandardExit(exitId, token);\n        } else {\n            PaymentInFlightExitRouter.processInFlightExit(exitId, token);\n        }\n    }\n\n    /**\n     * @notice Helper function to compute standard exit id.\n     */\n    function getStandardExitId(bool _isDeposit, bytes memory _txBytes, uint256 _utxoPos)\n        public\n        pure\n        returns (uint192)\n    {\n        UtxoPosLib.UtxoPos memory utxoPos = UtxoPosLib.UtxoPos(_utxoPos);\n        return ExitId.getStandardExitId(_isDeposit, _txBytes, utxoPos);\n    }\n\n    /**\n     * @notice Helper function to compute in-flight exit id.\n     */\n    function getInFlightExitId(bytes memory _txBytes)\n        public\n        pure\n        returns (uint192)\n    {\n        return ExitId.getInFlightExitId(_txBytes);\n    }\n}\n",
  "sourcePath": "/Users/nocholas/plasma-contracts/plasma_framework/contracts/src/exits/payment/PaymentExitGame.sol",
  "compiler": {
    "name": "solc",
    "version": "0.5.11+commit.c082d0b4.Emscripten.clang"
  },
  "schemaVersion": "3.0.16",
  "updatedAt": "2019-10-07T12:24:58.099Z",
  "devdoc": {
    "methods": {
      "challengeInFlightExitInputSpent((bytes,uint16,bytes,uint16,bytes,bytes,uint256,bytes))": {
        "params": {
          "args": "argument data to challenge. See struct 'ChallengeInputSpentArgs' for detailed info."
        }
      },
      "challengeInFlightExitNotCanonical((bytes,uint256,bytes,uint16,bytes,uint16,bytes,uint256,bytes,bytes,bytes,bytes))": {
        "params": {
          "args": "input argument data to challenge. See struct 'ChallengeCanonicityArgs' for detailed info."
        }
      },
      "challengeInFlightExitOutputSpent((bytes,bytes,uint256,bytes,uint16,bytes,bytes))": {
        "params": {
          "args": "argument data to challenge. See struct 'ChallengeOutputSpent' for detailed info."
        }
      },
      "inFlightExits(uint160)": {
        "params": {
          "exitId": "the exit id of the in-flight exit"
        }
      },
      "piggybackInFlightExitOnInput((bytes,uint16))": {
        "params": {
          "args": "input argument data to piggyback. See struct 'PiggybackInFlightExitOnInputArgs' for detailed info."
        }
      },
      "piggybackInFlightExitOnOutput((bytes,uint16,bytes))": {
        "params": {
          "args": "input argument data to piggyback. See struct 'PiggybackInFlightExitOnOutputArgs' for detailed info."
        }
      },
      "processExit(uint160,uint256,address)": {
        "params": {
          "exitId": "exit id.",
          "token": "token (ERC20 address or address(0) for ETH) of the exiting output."
        }
      },
      "respondToNonCanonicalChallenge(bytes,uint256,bytes)": {
        "params": {
          "inFlightTx": "the rlp encoded in-flight transaction.",
          "inFlightTxInclusionProof": "inclusion proof for the in-flight tx.",
          "inFlightTxPos": "the UTXO position of the in-flight exit. The outputIndex should be set to 0."
        }
      },
      "standardExits(uint160)": {
        "params": {
          "exitId": "the exit id of such standard exit."
        }
      },
      "startInFlightExit((bytes,bytes[],uint256[],uint256[],bytes[],bytes[],bytes[],bytes[],bytes[]))": {
        "params": {
          "args": "input argument data to challenge. See struct 'StartExitArgs' for detailed info."
        }
      },
      "updatePiggybackBondSize(uint128)": {
        "params": {
          "newBondSize": "The new bond size."
        }
      },
      "updateStartIFEBondSize(uint128)": {
        "params": {
          "newBondSize": "The new bond size."
        }
      },
      "updateStartStandardExitBondSize(uint128)": {
        "params": {
          "newBondSize": "The new bond size."
        }
      }
    }
  },
  "userdoc": {
    "methods": {
      "challengeInFlightExitInputSpent((bytes,uint16,bytes,uint16,bytes,bytes,uint256,bytes))": {
        "notice": "Challenges an exit from in-flight transaction input."
      },
      "challengeInFlightExitNotCanonical((bytes,uint256,bytes,uint16,bytes,uint16,bytes,uint256,bytes,bytes,bytes,bytes))": {
        "notice": "Challenges an in-flight exit to be non canonical."
      },
      "challengeInFlightExitOutputSpent((bytes,bytes,uint256,bytes,uint16,bytes,bytes))": {
        "notice": "Challenges an exit from in-flight transaction output."
      },
      "challengeStandardExit((uint160,bytes,bytes,uint16,bytes,bytes,bytes,uint256,bytes,bytes))": {
        "notice": "Challenge a standard exit by showing the exiting output was spent."
      },
      "getInFlightExitId(bytes)": {
        "notice": "Helper function to compute in-flight exit id."
      },
      "getStandardExitId(bool,bytes,uint256)": {
        "notice": "Helper function to compute standard exit id."
      },
      "inFlightExits(uint160)": {
        "notice": "Getter functions to retrieve in-flight exit data of the PaymentExitGame."
      },
      "piggybackBondSize()": {
        "notice": "Gets the piggyback bond size."
      },
      "piggybackInFlightExitOnInput((bytes,uint16))": {
        "notice": "Piggyback on an input of an in-flight exiting tx. Would be processed if the in-flight exit is non-canonical."
      },
      "piggybackInFlightExitOnOutput((bytes,uint16,bytes))": {
        "notice": "Piggyback on an output of an in-flight exiting tx. Would be processed if the in-flight exit is canonical."
      },
      "processExit(uint160,uint256,address)": {
        "notice": "Callback processes exit function for the PlasmaFramework to call."
      },
      "respondToNonCanonicalChallenge(bytes,uint256,bytes)": {
        "notice": "Respond to a non canonical challenge by providing position and proving the correctness of it."
      },
      "standardExits(uint160)": {
        "notice": "Getter functions to retrieve standard exit data of the PaymentExitGame."
      },
      "startIFEBondSize()": {
        "notice": "Gets the in-flight exit bond size."
      },
      "startInFlightExit((bytes,bytes[],uint256[],uint256[],bytes[],bytes[],bytes[],bytes[],bytes[]))": {
        "notice": "Starts withdrawal from a transaction that might be in-flight."
      },
      "startStandardExit((uint192,bytes,bytes,bytes))": {
        "notice": "Starts a standard exit of a given output. Uses output-age priority."
      },
      "startStandardExitBondSize()": {
        "notice": "Gets the standard exit bond size."
      },
      "updatePiggybackBondSize(uint128)": {
        "notice": "Updates the piggyback bond size. Will take 2 days to come into effect."
      },
      "updateStartIFEBondSize(uint128)": {
        "notice": "Updates the in-flight exit bond size. Will take 2 days to come into effect."
      },
      "updateStartStandardExitBondSize(uint128)": {
        "notice": "Updates the standard exit bond size. Will take 2 days to come into effect."
      }
    },
    "notice": "The exit game contract implementation for Payment Transaction"
  }
}