{
  "contractName": "PaymentExitGame",
  "abi": [
    {
      "constant": false,
      "inputs": [
        {
          "internalType": "uint128",
          "name": "newBondSize",
          "type": "uint128"
        }
      ],
      "name": "updateStartStandardExitBondSize",
      "outputs": [],
      "payable": false,
      "stateMutability": "nonpayable",
      "type": "function"
    },
    {
      "constant": false,
      "inputs": [
        {
          "components": [
            {
              "internalType": "bytes",
              "name": "inFlightTx",
              "type": "bytes"
            },
            {
              "internalType": "bytes",
              "name": "inFlightTxInclusionProof",
              "type": "bytes"
            },
            {
              "internalType": "uint256",
              "name": "outputUtxoPos",
              "type": "uint256"
            },
            {
              "internalType": "bytes",
              "name": "challengingTx",
              "type": "bytes"
            },
            {
              "internalType": "uint16",
              "name": "challengingTxInputIndex",
              "type": "uint16"
            },
            {
              "internalType": "bytes",
              "name": "challengingTxWitness",
              "type": "bytes"
            },
            {
              "internalType": "bytes32",
              "name": "senderData",
              "type": "bytes32"
            }
          ],
          "internalType": "struct PaymentInFlightExitRouterArgs.ChallengeOutputSpent",
          "name": "args",
          "type": "tuple"
        }
      ],
      "name": "challengeInFlightExitOutputSpent",
      "outputs": [],
      "payable": false,
      "stateMutability": "nonpayable",
      "type": "function"
    },
    {
      "constant": false,
      "inputs": [
        {
          "internalType": "uint128",
          "name": "newBondSize",
          "type": "uint128"
        }
      ],
      "name": "updatePiggybackBondSize",
      "outputs": [],
      "payable": false,
      "stateMutability": "nonpayable",
      "type": "function"
    },
    {
      "constant": false,
      "inputs": [
        {
          "internalType": "bytes",
          "name": "inFlightTx",
          "type": "bytes"
        },
        {
          "internalType": "uint256",
          "name": "inFlightTxPos",
          "type": "uint256"
        },
        {
          "internalType": "bytes",
          "name": "inFlightTxInclusionProof",
          "type": "bytes"
        }
      ],
      "name": "respondToNonCanonicalChallenge",
      "outputs": [],
      "payable": false,
      "stateMutability": "nonpayable",
      "type": "function"
    },
    {
      "constant": false,
      "inputs": [
        {
          "internalType": "uint168",
          "name": "exitId",
          "type": "uint168"
        }
      ],
      "name": "deleteNonPiggybackedInFlightExit",
      "outputs": [],
      "payable": false,
      "stateMutability": "nonpayable",
      "type": "function"
    },
    {
      "constant": true,
      "inputs": [],
      "name": "piggybackBondSize",
      "outputs": [
        {
          "internalType": "uint128",
          "name": "",
          "type": "uint128"
        }
      ],
      "payable": false,
      "stateMutability": "view",
      "type": "function"
    },
    {
      "constant": false,
      "inputs": [
        {
          "components": [
            {
              "internalType": "uint168",
              "name": "exitId",
              "type": "uint168"
            },
            {
              "internalType": "bytes",
              "name": "exitingTx",
              "type": "bytes"
            },
            {
              "internalType": "bytes",
              "name": "challengeTx",
              "type": "bytes"
            },
            {
              "internalType": "uint16",
              "name": "inputIndex",
              "type": "uint16"
            },
            {
              "internalType": "bytes",
              "name": "witness",
              "type": "bytes"
            },
            {
              "internalType": "bytes32",
              "name": "senderData",
              "type": "bytes32"
            }
          ],
          "internalType": "struct PaymentStandardExitRouterArgs.ChallengeStandardExitArgs",
          "name": "args",
          "type": "tuple"
        }
      ],
      "name": "challengeStandardExit",
      "outputs": [],
      "payable": false,
      "stateMutability": "nonpayable",
      "type": "function"
    },
    {
      "constant": true,
      "inputs": [
        {
          "internalType": "uint168[]",
          "name": "exitIds",
          "type": "uint168[]"
        }
      ],
      "name": "inFlightExits",
      "outputs": [
        {
          "components": [
            {
              "internalType": "bool",
              "name": "isCanonical",
              "type": "bool"
            },
            {
              "internalType": "uint64",
              "name": "exitStartTimestamp",
              "type": "uint64"
            },
            {
              "internalType": "uint256",
              "name": "exitMap",
              "type": "uint256"
            },
            {
              "internalType": "uint256",
              "name": "position",
              "type": "uint256"
            },
            {
              "components": [
                {
                  "internalType": "bytes32",
                  "name": "outputId",
                  "type": "bytes32"
                },
                {
                  "internalType": "address payable",
                  "name": "exitTarget",
                  "type": "address"
                },
                {
                  "internalType": "address",
                  "name": "token",
                  "type": "address"
                },
                {
                  "internalType": "uint256",
                  "name": "amount",
                  "type": "uint256"
                },
                {
                  "internalType": "uint256",
                  "name": "piggybackBondSize",
                  "type": "uint256"
                }
              ],
              "internalType": "struct PaymentExitDataModel.WithdrawData[4]",
              "name": "inputs",
              "type": "tuple[4]"
            },
            {
              "components": [
                {
                  "internalType": "bytes32",
                  "name": "outputId",
                  "type": "bytes32"
                },
                {
                  "internalType": "address payable",
                  "name": "exitTarget",
                  "type": "address"
                },
                {
                  "internalType": "address",
                  "name": "token",
                  "type": "address"
                },
                {
                  "internalType": "uint256",
                  "name": "amount",
                  "type": "uint256"
                },
                {
                  "internalType": "uint256",
                  "name": "piggybackBondSize",
                  "type": "uint256"
                }
              ],
              "internalType": "struct PaymentExitDataModel.WithdrawData[4]",
              "name": "outputs",
              "type": "tuple[4]"
            },
            {
              "internalType": "address payable",
              "name": "bondOwner",
              "type": "address"
            },
            {
              "internalType": "uint256",
              "name": "bondSize",
              "type": "uint256"
            },
            {
              "internalType": "uint256",
              "name": "oldestCompetitorPosition",
              "type": "uint256"
            }
          ],
          "internalType": "struct PaymentExitDataModel.InFlightExit[]",
          "name": "",
          "type": "tuple[]"
        }
      ],
      "payable": false,
      "stateMutability": "view",
      "type": "function"
    },
    {
      "constant": false,
      "inputs": [
        {
          "components": [
            {
              "internalType": "bytes",
              "name": "inFlightTx",
              "type": "bytes"
            },
            {
              "internalType": "bytes[]",
              "name": "inputTxs",
              "type": "bytes[]"
            },
            {
              "internalType": "uint256[]",
              "name": "inputUtxosPos",
              "type": "uint256[]"
            },
            {
              "internalType": "bytes[]",
              "name": "inputTxsInclusionProofs",
              "type": "bytes[]"
            },
            {
              "internalType": "bytes[]",
              "name": "inFlightTxWitnesses",
              "type": "bytes[]"
            }
          ],
          "internalType": "struct PaymentInFlightExitRouterArgs.StartExitArgs",
          "name": "args",
          "type": "tuple"
        }
      ],
      "name": "startInFlightExit",
      "outputs": [],
      "payable": true,
      "stateMutability": "payable",
      "type": "function"
    },
    {
      "constant": false,
      "inputs": [
        {
          "components": [
            {
              "internalType": "uint256",
              "name": "utxoPos",
              "type": "uint256"
            },
            {
              "internalType": "bytes",
              "name": "rlpOutputTx",
              "type": "bytes"
            },
            {
              "internalType": "bytes",
              "name": "outputTxInclusionProof",
              "type": "bytes"
            }
          ],
          "internalType": "struct PaymentStandardExitRouterArgs.StartStandardExitArgs",
          "name": "args",
          "type": "tuple"
        }
      ],
      "name": "startStandardExit",
      "outputs": [],
      "payable": true,
      "stateMutability": "payable",
      "type": "function"
    },
    {
      "constant": true,
      "inputs": [],
      "name": "startIFEBondSize",
      "outputs": [
        {
          "internalType": "uint128",
          "name": "",
          "type": "uint128"
        }
      ],
      "payable": false,
      "stateMutability": "view",
      "type": "function"
    },
    {
      "constant": true,
      "inputs": [
        {
          "internalType": "uint168[]",
          "name": "exitIds",
          "type": "uint168[]"
        }
      ],
      "name": "standardExits",
      "outputs": [
        {
          "components": [
            {
              "internalType": "bool",
              "name": "exitable",
              "type": "bool"
            },
            {
              "internalType": "uint256",
              "name": "utxoPos",
              "type": "uint256"
            },
            {
              "internalType": "bytes32",
              "name": "outputId",
              "type": "bytes32"
            },
            {
              "internalType": "address payable",
              "name": "exitTarget",
              "type": "address"
            },
            {
              "internalType": "uint256",
              "name": "amount",
              "type": "uint256"
            },
            {
              "internalType": "uint256",
              "name": "bondSize",
              "type": "uint256"
            }
          ],
          "internalType": "struct PaymentExitDataModel.StandardExit[]",
          "name": "",
          "type": "tuple[]"
        }
      ],
      "payable": false,
      "stateMutability": "view",
      "type": "function"
    },
    {
      "constant": true,
      "inputs": [],
      "name": "INITIAL_PB_BOND_SIZE",
      "outputs": [
        {
          "internalType": "uint128",
          "name": "",
          "type": "uint128"
        }
      ],
      "payable": false,
      "stateMutability": "view",
      "type": "function"
    },
    {
      "constant": true,
      "inputs": [],
      "name": "BOND_LOWER_BOUND_DIVISOR",
      "outputs": [
        {
          "internalType": "uint16",
          "name": "",
          "type": "uint16"
        }
      ],
      "payable": false,
      "stateMutability": "view",
      "type": "function"
    },
    {
      "constant": true,
      "inputs": [],
      "name": "BOND_UPPER_BOUND_MULTIPLIER",
      "outputs": [
        {
          "internalType": "uint16",
          "name": "",
          "type": "uint16"
        }
      ],
      "payable": false,
      "stateMutability": "view",
      "type": "function"
    },
    {
      "constant": false,
      "inputs": [
        {
          "components": [
            {
              "internalType": "bytes",
              "name": "inFlightTx",
              "type": "bytes"
            },
            {
              "internalType": "uint16",
              "name": "outputIndex",
              "type": "uint16"
            }
          ],
          "internalType": "struct PaymentInFlightExitRouterArgs.PiggybackInFlightExitOnOutputArgs",
          "name": "args",
          "type": "tuple"
        }
      ],
      "name": "piggybackInFlightExitOnOutput",
      "outputs": [],
      "payable": true,
      "stateMutability": "payable",
      "type": "function"
    },
    {
      "constant": false,
      "inputs": [
        {
          "internalType": "uint128",
          "name": "newBondSize",
          "type": "uint128"
        }
      ],
      "name": "updateStartIFEBondSize",
      "outputs": [],
      "payable": false,
      "stateMutability": "nonpayable",
      "type": "function"
    },
    {
      "constant": false,
      "inputs": [
        {
          "components": [
            {
              "internalType": "bytes",
              "name": "inFlightTx",
              "type": "bytes"
            },
            {
              "internalType": "uint16",
              "name": "inFlightTxInputIndex",
              "type": "uint16"
            },
            {
              "internalType": "bytes",
              "name": "challengingTx",
              "type": "bytes"
            },
            {
              "internalType": "uint16",
              "name": "challengingTxInputIndex",
              "type": "uint16"
            },
            {
              "internalType": "bytes",
              "name": "challengingTxWitness",
              "type": "bytes"
            },
            {
              "internalType": "bytes",
              "name": "inputTx",
              "type": "bytes"
            },
            {
              "internalType": "uint256",
              "name": "inputUtxoPos",
              "type": "uint256"
            },
            {
              "internalType": "bytes32",
              "name": "senderData",
              "type": "bytes32"
            }
          ],
          "internalType": "struct PaymentInFlightExitRouterArgs.ChallengeInputSpentArgs",
          "name": "args",
          "type": "tuple"
        }
      ],
      "name": "challengeInFlightExitInputSpent",
      "outputs": [],
      "payable": false,
      "stateMutability": "nonpayable",
      "type": "function"
    },
    {
      "constant": true,
      "inputs": [],
      "name": "INITIAL_BOND_SIZE",
      "outputs": [
        {
          "internalType": "uint128",
          "name": "",
          "type": "uint128"
        }
      ],
      "payable": false,
      "stateMutability": "view",
      "type": "function"
    },
    {
      "constant": true,
      "inputs": [],
      "name": "INITIAL_IFE_BOND_SIZE",
      "outputs": [
        {
          "internalType": "uint128",
          "name": "",
          "type": "uint128"
        }
      ],
      "payable": false,
      "stateMutability": "view",
      "type": "function"
    },
    {
      "constant": false,
      "inputs": [
        {
          "components": [
            {
              "internalType": "bytes",
              "name": "inFlightTx",
              "type": "bytes"
            },
            {
              "internalType": "uint16",
              "name": "inputIndex",
              "type": "uint16"
            }
          ],
          "internalType": "struct PaymentInFlightExitRouterArgs.PiggybackInFlightExitOnInputArgs",
          "name": "args",
          "type": "tuple"
        }
      ],
      "name": "piggybackInFlightExitOnInput",
      "outputs": [],
      "payable": true,
      "stateMutability": "payable",
      "type": "function"
    },
    {
      "constant": false,
      "inputs": [
        {
          "components": [
            {
              "internalType": "bytes",
              "name": "inputTx",
              "type": "bytes"
            },
            {
              "internalType": "uint256",
              "name": "inputUtxoPos",
              "type": "uint256"
            },
            {
              "internalType": "bytes",
              "name": "inFlightTx",
              "type": "bytes"
            },
            {
              "internalType": "uint16",
              "name": "inFlightTxInputIndex",
              "type": "uint16"
            },
            {
              "internalType": "bytes",
              "name": "competingTx",
              "type": "bytes"
            },
            {
              "internalType": "uint16",
              "name": "competingTxInputIndex",
              "type": "uint16"
            },
            {
              "internalType": "uint256",
              "name": "competingTxPos",
              "type": "uint256"
            },
            {
              "internalType": "bytes",
              "name": "competingTxInclusionProof",
              "type": "bytes"
            },
            {
              "internalType": "bytes",
              "name": "competingTxWitness",
              "type": "bytes"
            }
          ],
          "internalType": "struct PaymentInFlightExitRouterArgs.ChallengeCanonicityArgs",
          "name": "args",
          "type": "tuple"
        }
      ],
      "name": "challengeInFlightExitNotCanonical",
      "outputs": [],
      "payable": false,
      "stateMutability": "nonpayable",
      "type": "function"
    },
    {
      "constant": true,
      "inputs": [],
      "name": "startStandardExitBondSize",
      "outputs": [
        {
          "internalType": "uint128",
          "name": "",
          "type": "uint128"
        }
      ],
      "payable": false,
      "stateMutability": "view",
      "type": "function"
    },
    {
      "inputs": [
        {
          "components": [
            {
              "internalType": "contract PlasmaFramework",
              "name": "framework",
              "type": "address"
            },
            {
              "internalType": "uint256",
              "name": "ethVaultId",
              "type": "uint256"
            },
            {
              "internalType": "uint256",
              "name": "erc20VaultId",
              "type": "uint256"
            },
            {
              "internalType": "contract SpendingConditionRegistry",
              "name": "spendingConditionRegistry",
              "type": "address"
            },
            {
              "internalType": "contract IStateTransitionVerifier",
              "name": "stateTransitionVerifier",
              "type": "address"
            },
            {
              "internalType": "uint256",
              "name": "supportTxType",
              "type": "uint256"
            },
            {
              "internalType": "uint256",
              "name": "safeGasStipend",
              "type": "uint256"
            }
          ],
          "internalType": "struct PaymentExitGameArgs.Args",
          "name": "args",
          "type": "tuple"
        }
      ],
      "payable": false,
      "stateMutability": "nonpayable",
      "type": "constructor"
    },
    {
      "anonymous": false,
      "inputs": [
        {
          "indexed": false,
          "internalType": "uint128",
          "name": "bondSize",
          "type": "uint128"
        }
      ],
      "name": "IFEBondUpdated",
      "type": "event"
    },
    {
      "anonymous": false,
      "inputs": [
        {
          "indexed": false,
          "internalType": "uint128",
          "name": "bondSize",
          "type": "uint128"
        }
      ],
      "name": "PiggybackBondUpdated",
      "type": "event"
    },
    {
      "anonymous": false,
      "inputs": [
        {
          "indexed": true,
          "internalType": "address",
          "name": "initiator",
          "type": "address"
        },
        {
          "indexed": true,
          "internalType": "bytes32",
          "name": "txHash",
          "type": "bytes32"
        }
      ],
      "name": "InFlightExitStarted",
      "type": "event"
    },
    {
      "anonymous": false,
      "inputs": [
        {
          "indexed": true,
          "internalType": "address",
          "name": "exitTarget",
          "type": "address"
        },
        {
          "indexed": true,
          "internalType": "bytes32",
          "name": "txHash",
          "type": "bytes32"
        },
        {
          "indexed": false,
          "internalType": "uint16",
          "name": "inputIndex",
          "type": "uint16"
        }
      ],
      "name": "InFlightExitInputPiggybacked",
      "type": "event"
    },
    {
      "anonymous": false,
      "inputs": [
        {
          "indexed": true,
          "internalType": "uint168",
          "name": "exitId",
          "type": "uint168"
        },
        {
          "indexed": false,
          "internalType": "address",
          "name": "token",
          "type": "address"
        }
      ],
      "name": "InFlightExitOmitted",
      "type": "event"
    },
    {
      "anonymous": false,
      "inputs": [
        {
          "indexed": true,
          "internalType": "address",
          "name": "receiver",
          "type": "address"
        },
        {
          "indexed": false,
          "internalType": "uint256",
          "name": "amount",
          "type": "uint256"
        }
      ],
      "name": "InFlightBondReturnFailed",
      "type": "event"
    },
    {
      "anonymous": false,
      "inputs": [
        {
          "indexed": true,
          "internalType": "uint168",
          "name": "exitId",
          "type": "uint168"
        },
        {
          "indexed": false,
          "internalType": "uint16",
          "name": "outputIndex",
          "type": "uint16"
        }
      ],
      "name": "InFlightExitOutputWithdrawn",
      "type": "event"
    },
    {
      "anonymous": false,
      "inputs": [
        {
          "indexed": true,
          "internalType": "uint168",
          "name": "exitId",
          "type": "uint168"
        },
        {
          "indexed": false,
          "internalType": "uint16",
          "name": "inputIndex",
          "type": "uint16"
        }
      ],
      "name": "InFlightExitInputWithdrawn",
      "type": "event"
    },
    {
      "anonymous": false,
      "inputs": [
        {
          "indexed": true,
          "internalType": "address",
          "name": "exitTarget",
          "type": "address"
        },
        {
          "indexed": true,
          "internalType": "bytes32",
          "name": "txHash",
          "type": "bytes32"
        },
        {
          "indexed": false,
          "internalType": "uint16",
          "name": "outputIndex",
          "type": "uint16"
        }
      ],
      "name": "InFlightExitOutputPiggybacked",
      "type": "event"
    },
    {
      "anonymous": false,
      "inputs": [
        {
          "indexed": true,
          "internalType": "address",
          "name": "challenger",
          "type": "address"
        },
        {
          "indexed": true,
          "internalType": "bytes32",
          "name": "txHash",
          "type": "bytes32"
        },
        {
          "indexed": false,
          "internalType": "uint256",
          "name": "challengeTxPosition",
          "type": "uint256"
        }
      ],
      "name": "InFlightExitChallenged",
      "type": "event"
    },
    {
      "anonymous": false,
      "inputs": [
        {
          "indexed": true,
          "internalType": "address",
          "name": "challenger",
          "type": "address"
        },
        {
          "indexed": true,
          "internalType": "bytes32",
          "name": "txHash",
          "type": "bytes32"
        },
        {
          "indexed": false,
          "internalType": "uint256",
          "name": "challengeTxPosition",
          "type": "uint256"
        }
      ],
      "name": "InFlightExitChallengeResponded",
      "type": "event"
    },
    {
      "anonymous": false,
      "inputs": [
        {
          "indexed": true,
          "internalType": "address",
          "name": "challenger",
          "type": "address"
        },
        {
          "indexed": true,
          "internalType": "bytes32",
          "name": "txHash",
          "type": "bytes32"
        },
        {
          "indexed": false,
          "internalType": "uint16",
          "name": "inputIndex",
          "type": "uint16"
        }
      ],
      "name": "InFlightExitInputBlocked",
      "type": "event"
    },
    {
      "anonymous": false,
      "inputs": [
        {
          "indexed": true,
          "internalType": "address",
          "name": "challenger",
          "type": "address"
        },
        {
          "indexed": true,
          "internalType": "bytes32",
          "name": "txHash",
          "type": "bytes32"
        },
        {
          "indexed": false,
          "internalType": "uint16",
          "name": "outputIndex",
          "type": "uint16"
        }
      ],
      "name": "InFlightExitOutputBlocked",
      "type": "event"
    },
    {
      "anonymous": false,
      "inputs": [
        {
          "indexed": true,
          "internalType": "uint168",
          "name": "exitId",
          "type": "uint168"
        }
      ],
      "name": "InFlightExitDeleted",
      "type": "event"
    },
    {
      "anonymous": false,
      "inputs": [
        {
          "indexed": false,
          "internalType": "uint128",
          "name": "bondSize",
          "type": "uint128"
        }
      ],
      "name": "StandardExitBondUpdated",
      "type": "event"
    },
    {
      "anonymous": false,
      "inputs": [
        {
          "indexed": true,
          "internalType": "address",
          "name": "owner",
          "type": "address"
        },
        {
          "indexed": false,
          "internalType": "uint168",
          "name": "exitId",
          "type": "uint168"
        }
      ],
      "name": "ExitStarted",
      "type": "event"
    },
    {
      "anonymous": false,
      "inputs": [
        {
          "indexed": true,
          "internalType": "uint256",
          "name": "utxoPos",
          "type": "uint256"
        }
      ],
      "name": "ExitChallenged",
      "type": "event"
    },
    {
      "anonymous": false,
      "inputs": [
        {
          "indexed": true,
          "internalType": "uint168",
          "name": "exitId",
          "type": "uint168"
        }
      ],
      "name": "ExitOmitted",
      "type": "event"
    },
    {
      "anonymous": false,
      "inputs": [
        {
          "indexed": true,
          "internalType": "uint168",
          "name": "exitId",
          "type": "uint168"
        }
      ],
      "name": "ExitFinalized",
      "type": "event"
    },
    {
      "anonymous": false,
      "inputs": [
        {
          "indexed": true,
          "internalType": "address",
          "name": "receiver",
          "type": "address"
        },
        {
          "indexed": false,
          "internalType": "uint256",
          "name": "amount",
          "type": "uint256"
        }
      ],
      "name": "BondReturnFailed",
      "type": "event"
    },
    {
      "constant": false,
      "inputs": [
        {
          "internalType": "uint168",
          "name": "exitId",
          "type": "uint168"
        },
        {
          "internalType": "uint256",
          "name": "",
          "type": "uint256"
        },
        {
          "internalType": "address",
          "name": "token",
          "type": "address"
        }
      ],
      "name": "processExit",
      "outputs": [],
      "payable": false,
      "stateMutability": "nonpayable",
      "type": "function"
    },
    {
      "constant": true,
      "inputs": [
        {
          "internalType": "bool",
          "name": "_isDeposit",
          "type": "bool"
        },
        {
          "internalType": "bytes",
          "name": "_txBytes",
          "type": "bytes"
        },
        {
          "internalType": "uint256",
          "name": "_utxoPos",
          "type": "uint256"
        }
      ],
      "name": "getStandardExitId",
      "outputs": [
        {
          "internalType": "uint168",
          "name": "",
          "type": "uint168"
        }
      ],
      "payable": false,
      "stateMutability": "pure",
      "type": "function"
    },
    {
      "constant": true,
      "inputs": [
        {
          "internalType": "bytes",
          "name": "_txBytes",
          "type": "bytes"
        }
      ],
      "name": "getInFlightExitId",
      "outputs": [
        {
          "internalType": "uint168",
          "name": "",
          "type": "uint168"
        }
      ],
      "payable": false,
      "stateMutability": "pure",
      "type": "function"
    }
  ],
  "bytecode": "0x60806040523480156200001157600080fd5b5060405162004f4738038062004f478339810160408190526200003491620012a2565b8051601080546001600160a01b0319166001600160a01b03909216918217905560208201516040517f8c64ea4a00000000000000000000000000000000000000000000000000000000815283928392600092638c64ea4a916200009a9160040162001589565b60206040518083038186803b158015620000b357600080fd5b505afa158015620000c8573d6000803e3d6000fd5b505050506040513d601f19601f82011682018060405250620000ee919081019062001279565b90506001600160a01b0381166200013c576040517f08c379a0000000000000000000000000000000000000000000000000000000008152600401620001339062001553565b60405180910390fd5b815160408084015190517f8c64ea4a0000000000000000000000000000000000000000000000000000000081526000926001600160a01b031691638c64ea4a916200018b919060040162001589565b60206040518083038186803b158015620001a457600080fd5b505afa158015620001b9573d6000803e3d6000fd5b505050506040513d601f19601f82011682018060405250620001df919081019062001279565b90506001600160a01b03811662000224576040517f08c379a0000000000000000000000000000000000000000000000000000000008152600401620001339062001565565b8251602084015160408086015160a087015191517f07a97aa900000000000000000000000000000000000000000000000000000000815273__PaymentStartStandardExit______________946307a97aa9946200028c94309492939192916004016200145b565b60c06040518083038186803b158015620002a557600080fd5b505af4158015620002ba573d6000803e3d6000fd5b505050506040513d601f19601f82011682018060405250620002e0919081019062001326565b8051600180546001600160a01b039283166001600160a01b031991821617909155602083015160028054919093169116179055604080820151516003556060808301516004908155608084015160055560a09093015160065585519086015160c087015192517f159cde2d00000000000000000000000000000000000000000000000000000000815273__PaymentChallengeStandardExit__________9463159cde2d946200039594939290910162001525565b60606040518083038186803b158015620003ae57600080fd5b505af4158015620003c3573d6000803e3d6000fd5b505050506040513d601f19601f82011682018060405250620003e99190810190620012c3565b8051600b80546001600160a01b03199081166001600160a01b0393841617909155602080840151600c80548416918516919091179055604093840151600d5583516080810185528751841680825287851682840181905294871695820186905260c089015160609092018290526007805485169091179055600880548416909417909355600980549092169093179055600a556200049e906631bced02db000090600290819062000eed811b6200388917901c565b8051600e80546020808501516001600160801b03199283166001600160801b03958616178516700100000000000000000000000000000000918616820217909355604080860151600f805460608901516080909901519516919096161761ffff60801b191661ffff9687169094029390931761ffff60901b191672010000000000000000000000000000000000009590921694909402179091558551603080546001600160a01b0319166001600160a01b0390921691821790559186015190517f8c64ea4a00000000000000000000000000000000000000000000000000000000815260009550919350638c64ea4a92506200059d9160040162001589565b60206040518083038186803b158015620005b657600080fd5b505afa158015620005cb573d6000803e3d6000fd5b505050506040513d601f19601f82011682018060405250620005f1919081019062001279565b90506001600160a01b03811662000636576040517f08c379a0000000000000000000000000000000000000000000000000000000008152600401620001339062001553565b815160408084015190517f8c64ea4a0000000000000000000000000000000000000000000000000000000081526000926001600160a01b031691638c64ea4a9162000685919060040162001589565b60206040518083038186803b1580156200069e57600080fd5b505afa158015620006b3573d6000803e3d6000fd5b505050506040513d601f19601f82011682018060405250620006d9919081019062001279565b90506001600160a01b0381166200071e576040517f08c379a0000000000000000000000000000000000000000000000000000000008152600401620001339062001565565b82516060840151608085015160a08601516040517f91ac978000000000000000000000000000000000000000000000000000000000815273__PaymentStartInFlightExit______________946391ac978094620007839491939092600401620014f7565b60a06040518083038186803b1580156200079c57600080fd5b505af4158015620007b1573d6000803e3d6000fd5b505050506040513d601f19601f82011682018060405250620007d7919081019062001305565b8051601280546001600160a01b03199081166001600160a01b0393841617909155602080840151516013556040808501516014805485169186169190911790556060850151601580549094169416939093179091556080909201516016558451918501518582015191517f32e6d86900000000000000000000000000000000000000000000000000000000815273__PaymentPiggybackInFlightExit__________936332e6d869936200089493919230929190600401620014b1565b60c06040518083038186803b158015620008ad57600080fd5b505af4158015620008c2573d6000803e3d6000fd5b505050506040513d601f19601f82011682018060405250620008e89190810190620012e4565b8051601780546001600160a01b03199081166001600160a01b0393841617909155602083015151601855604080840151601980549093169316929092179055606080830151601a556080830151601b5560a092830151601c558551908601519286015191517f159cde2d00000000000000000000000000000000000000000000000000000000815273__PaymentChallengeIFENotCanonical_______9363159cde2d936200099b939260040162001525565b60606040518083038186803b158015620009b457600080fd5b505af4158015620009c9573d6000803e3d6000fd5b505050506040513d601f19601f82011682018060405250620009ef9190810190620012c3565b8051601d80546001600160a01b039283166001600160a01b0319918216179091556020830151601e8054919093169116179055604090810151601f558351606085015160c086015192517f159cde2d00000000000000000000000000000000000000000000000000000000815273__PaymentChallengeIFEInputSpent_________9363159cde2d9362000a8b93909290919060040162001525565b60606040518083038186803b15801562000aa457600080fd5b505af415801562000ab9573d6000803e3d6000fd5b505050506040513d601f19601f8201168201806040525062000adf9190810190620012c3565b8051602080546001600160a01b03199081166001600160a01b03938416178255818401516021805483169185169190911790556040938401516022558351606080820186528851851680835290890151851682850181905260c08a01519287018390526023805485169092179091556024805490931617909155602555825180840180855287517fd4a2b4ef00000000000000000000000000000000000000000000000000000000909152935190938493169163d4a2b4ef916044808601929190818703018186803b15801562000bb557600080fd5b505afa15801562000bca573d6000803e3d6000fd5b505050506040513d601f19601f8201168201806040525062000bf0919081019062001347565b815260c0850180516020928301528251602655918101516027556040805160808101825286516001600160a01b0390811680835287821683860181905291871693830184905294516060909201829052602880546001600160a01b031990811690961790556029805486169091179055602a8054909416909117909255602b9190915562000c95906683734dd0b080009060029081906200388962000eed821b17901c565b8051602c80546020808501516001600160801b03199283166001600160801b039586161785167001000000000000000000000000000000009186168202179093556040850151602d805460608801516080909801519416919095161761ffff60801b191661ffff9586169093029290921761ffff60901b19167201000000000000000000000000000000000000949091169390930292909217905562000d5290666379da05b6000090600290819062000eed811b6200388917901c565b8051602e80546020808501516001600160801b03199283166001600160801b03958616178516700100000000000000000000000000000000918616820217909355604080860151602f80546060808a01516080909a015191909616929097169190911761ffff60801b191661ffff9788169095029490941761ffff60901b191672010000000000000000000000000000000000009690951695909502939093179091558651603180546001600160a01b0319166001600160a01b039283161790559087015183517f8da5cb5b00000000000000000000000000000000000000000000000000000000815293516000975091169450638da5cb5b9350600480840193829003018186803b15801562000e6857600080fd5b505afa15801562000e7d573d6000803e3d6000fd5b505050506040513d601f19601f8201168201806040525062000ea3919081019062001279565b6001600160a01b03161462000ee6576040517f08c379a0000000000000000000000000000000000000000000000000000000008152600401620001339062001577565b5062001622565b62000ef762000f38565b506040805160a0810182526001600160801b03949094168452600060208501526780000000000000009084015261ffff918216606084015216608082015290565b6040805160a08101825260008082526020820181905291810182905260608101829052608081019190915290565b805162000f7381620015f2565b92915050565b805162000f73816200160c565b600060e0828403121562000f9957600080fd5b62000fa560e062001599565b9050600062000fb5848462000f79565b825250602062000fc8848483016200126c565b602083015250604062000fde848285016200126c565b604083015250606062000ff48482850162000f79565b60608301525060806200100a8482850162000f79565b60808301525060a062001020848285016200126c565b60a08301525060c062001036848285016200126c565b60c08301525092915050565b6000602082840312156200105557600080fd5b62001061602062001599565b905060006200107184846200126c565b82525092915050565b6000606082840312156200108d57600080fd5b62001099606062001599565b90506000620010a9848462000f79565b8252506020620010bc8484830162000f79565b6020830152506040620010d2848285016200126c565b60408301525092915050565b600060c08284031215620010f157600080fd5b620010fd60c062001599565b905060006200110d848462000f79565b8252506020620011208484830162001042565b6020830152506040620011368482850162000f79565b60408301525060606200114c848285016200126c565b606083015250608062001162848285016200126c565b60808301525060a062001178848285016200126c565b60a08301525092915050565b600060a082840312156200119757600080fd5b620011a360a062001599565b90506000620011b3848462000f79565b8252506020620011c68484830162001042565b6020830152506040620011dc8482850162000f79565b6040830152506060620011f28482850162000f79565b606083015250608062001208848285016200126c565b60808301525092915050565b600060c082840312156200122757600080fd5b6200123360c062001599565b9050600062001243848462000f79565b8252506020620012568484830162000f79565b6020830152506040620011368482850162001042565b805162000f738162001617565b6000602082840312156200128c57600080fd5b60006200129a848462000f66565b949350505050565b600060e08284031215620012b557600080fd5b60006200129a848462000f86565b600060608284031215620012d657600080fd5b60006200129a84846200107a565b600060c08284031215620012f757600080fd5b60006200129a8484620010de565b600060a082840312156200131857600080fd5b60006200129a848462001184565b600060c082840312156200133957600080fd5b60006200129a848462001214565b6000602082840312156200135a57600080fd5b60006200129a84846200126c565b6200137381620015d6565b82525050565b600062001388601183620015c0565b7f496e76616c696420455448207661756c74000000000000000000000000000000815260200192915050565b6000620013c3601383620015c0565b7f496e76616c6964204552433230207661756c7400000000000000000000000000815260200192915050565b6000620013fe603b83620015c0565b7f5370656e64696e6720636f6e646974696f6e207265676973747279206f776e6581527f7273686970206e6565647320746f2062652072656e6f756e6365640000000000602082015260400192915050565b6200137381620015ef565b60a081016200146b828862001368565b6200147a602083018762001368565b62001489604083018662001450565b62001498606083018562001450565b620014a7608083018462001450565b9695505050505050565b60808101620014c1828762001368565b620014d0602083018662001368565b620014df604083018562001450565b620014ee606083018462001450565b95945050505050565b6080810162001507828762001368565b62001516602083018662001368565b620014df604083018562001368565b6060810162001535828662001368565b62001544602083018562001368565b6200129a604083018462001450565b6020808252810162000f738162001379565b6020808252810162000f7381620013b4565b6020808252810162000f7381620013ef565b6020810162000f73828462001450565b6040518181016001600160401b0381118282101715620015b857600080fd5b604052919050565b90815260200190565b600062000f7382620015e3565b600062000f7382620015c9565b6001600160a01b031690565b90565b620015fd81620015c9565b81146200160957600080fd5b50565b620015fd81620015d6565b620015fd81620015ef565b61391580620016326000396000f3fe6080604052600436106101815760003560e01c80637e2b2efe116100d1578063b22d3e141161008a578063c96e7c0511610064578063c96e7c0514610414578063e5bc60c714610429578063e83622981461043c578063fe32a1241461045c57610181565b8063b22d3e14146103bf578063b9a3a28e146103df578063c170ecf5146103ff57610181565b80637e2b2efe14610328578063839c78f91461033d578063905d6a991461036a578063a0e403b11461036a578063a4a254411461038c578063b177ba231461039f57610181565b80633f1214cf1161013e5780635a528514116101185780635a528514146102c057806370e01462146102d35780637702fa17146102e6578063794b5593146102fb57610181565b80633f1214cf146102485780634b9545e01461027357806355dc52371461029357610181565b8063163d7bc7146101865780632c3bad95146101a8578063315fb7da146101c857806333b95e55146101e857806336660de4146102085780633a121e2e14610228575b600080fd5b34801561019257600080fd5b506101a66101a1366004612805565b610471565b005b3480156101b457600080fd5b506101a66101c3366004612701565b610574565b3480156101d457600080fd5b506101a66101e3366004612805565b6106c8565b3480156101f457600080fd5b506101a6610203366004612841565b6107b6565b34801561021457600080fd5b506101a6610223366004612629565b61080e565b34801561023457600080fd5b506101a6610243366004612823565b610968565b34801561025457600080fd5b5061025d610a21565b60405161026a91906136fe565b60405180910390f35b34801561027f57600080fd5b506101a661028e366004612735565b610a86565b34801561029f57600080fd5b506102b36102ae366004612550565b610b53565b60405161026a9190613459565b6101a66102ce36600461279d565b610d86565b6101a66102e13660046127d1565b610f0a565b3480156102f257600080fd5b5061025d61102c565b34801561030757600080fd5b5061031b610316366004612550565b61108c565b60405161026a919061346a565b34801561033457600080fd5b5061025d61118e565b34801561034957600080fd5b5061035d6103583660046125f5565b611199565b60405161026a919061370c565b34801561037657600080fd5b5061037f6111ac565b60405161026a919061371a565b6101a661039a366004612769565b6111b1565b3480156103ab57600080fd5b506101a66103ba366004612805565b6112cf565b3480156103cb57600080fd5b5061035d6103da366004612591565b6113bd565b3480156103eb57600080fd5b506101a66103fa3660046126cd565b6113e6565b34801561040b57600080fd5b5061025d6114b3565b34801561042057600080fd5b5061025d6114be565b6101a6610437366004612769565b6114c9565b34801561044857600080fd5b506101a6610457366004612699565b6115e7565b34801561046857600080fd5b5061025d6116b4565b601060009054906101000a90046001600160a01b03166001600160a01b0316634b0a72bc6040518163ffffffff1660e01b815260040160206040518083038186803b1580156104bf57600080fd5b505afa1580156104d3573d6000803e3d6000fd5b505050506040513d601f19601f820116820180604052506104f7919081019061252a565b336001600160a01b038216146105285760405162461bcd60e51b815260040161051f906134eb565b60405180910390fd5b610539600e8363ffffffff61171416565b7fd21ccbbae3d29826d53310efdc993c64e27496dd31694b292f1a120344ec37ab8260405161056891906136fe565b60405180910390a15050565b603060009054906101000a90046001600160a01b0316806001600160a01b031663ff27b1896040518163ffffffff1660e01b8152600401600060405180830381600087803b1580156105c557600080fd5b505af11580156105d9573d6000803e3d6000fd5b5050604080516060810182526023546001600160a01b0390811682526024541660208201526025548183015290516359cff02160e01b815273__PaymentChallengeIFEOutputSpent________93506359cff0219250610641919060119087906004016135be565b60006040518083038186803b15801561065957600080fd5b505af415801561066d573d6000803e3d6000fd5b50505050806001600160a01b0316634e0f74366040518163ffffffff1660e01b8152600401600060405180830381600087803b1580156106ac57600080fd5b505af11580156106c0573d6000803e3d6000fd5b505050505050565b603060009054906101000a90046001600160a01b03166001600160a01b0316634b0a72bc6040518163ffffffff1660e01b815260040160206040518083038186803b15801561071657600080fd5b505afa15801561072a573d6000803e3d6000fd5b505050506040513d601f19601f8201168201806040525061074e919081019061252a565b336001600160a01b038216146107765760405162461bcd60e51b815260040161051f906134eb565b610787602e8363ffffffff61171416565b7f30ce291291dca42b8168ab211fafc36d3d4868292ed3259874ed00864432e20e8260405161056891906136fe565b6031546001600160a01b03163381146107e15760405162461bcd60e51b815260040161051f906134eb565b6107ea84611802565b156107fe576107f98483611828565b610808565b61080884836118c4565b50505050565b603060009054906101000a90046001600160a01b0316806001600160a01b031663ff27b1896040518163ffffffff1660e01b8152600401600060405180830381600087803b15801561085f57600080fd5b505af1158015610873573d6000803e3d6000fd5b505060408051606081018252601d546001600160a01b039081168252601e54166020820152601f54818301529051630c27711f60e11b815273__PaymentChallengeIFENotCanonical_______935063184ee23e92506108df9190601190899089908990600401613538565b60006040518083038186803b1580156108f757600080fd5b505af415801561090b573d6000803e3d6000fd5b50505050806001600160a01b0316634e0f74366040518163ffffffff1660e01b8152600401600060405180830381600087803b15801561094a57600080fd5b505af115801561095e573d6000803e3d6000fd5b5050505050505050565b603060009054906101000a90046001600160a01b0316806001600160a01b031663ff27b1896040518163ffffffff1660e01b8152600401600060405180830381600087803b1580156109b957600080fd5b505af11580156109cd573d6000803e3d6000fd5b5050604080518082018252602654815260275460208201529051637bc253d360e11b815273__PaymentDeleteInFlightExit_____________935063f784a7a6925061064191906011908790600401613618565b6040805160a081018252602e546001600160801b038082168352600160801b9182900481166020840152602f549081169383019390935261ffff90830481166060830152600160901b9092049091166080820152600090610a8190611934565b905090565b601060009054906101000a90046001600160a01b0316806001600160a01b031663ff27b1896040518163ffffffff1660e01b8152600401600060405180830381600087803b158015610ad757600080fd5b505af1158015610aeb573d6000803e3d6000fd5b505060408051606081018252600b546001600160a01b039081168252600c54166020820152600d5481830152905163edc91d4b60e01b815273__PaymentChallengeStandardExit__________935063edc91d4b9250610641919060009087906004016135eb565b60608083839050604051908082528060200260200182016040528015610b9357816020015b610b80611c2c565b815260200190600190039081610b785790505b50905060005b83811015610d7c576000858583818110610baf57fe5b9050602002016020610bc49190810190612823565b6001600160a81b0381166000908152601160209081526040808320815161012081018352815460ff81161515825261010090046001600160401b03169381019390935260018101548383015260028101546060840152815160808082019093529495509193919290840191906003840190600490835b82821015610ca1576040805160a081018252600584028601805482526001808201546001600160a01b039081166020808601919091526002840154909116948401949094526003820154606084015260049091015460808301529083529092019101610c3a565b5050509082525060408051608081019091526020909101906017830160046000835b82821015610d2a576040805160a081018252600584028601805482526001808201546001600160a01b039081166020808601919091526002840154909116948401949094526003820154606084015260049091015460808301529083529092019101610cc3565b50505090825250602b8201546001600160a01b03166020820152602c8201546040820152602d909101546060909101528351849084908110610d6857fe5b602090810291909101015250600101610b99565b5090505b92915050565b603060009054906101000a90046001600160a01b0316806001600160a01b031663ff27b1896040518163ffffffff1660e01b8152600401600060405180830381600087803b158015610dd757600080fd5b505af1158015610deb573d6000803e3d6000fd5b50505050610df761102c565b6001600160801b0316803414610e1f5760405162461bcd60e51b815260040161051f9061349b565b6040805160a0810182526012546001600160a01b039081168252825160208181018552601354825283015260145481168284015260155416606082015260165460808201529051631ff4513b60e01b815273__PaymentStartInFlightExit______________91631ff4513b91610e9e919060119088906004016136a3565b60006040518083038186803b158015610eb657600080fd5b505af4158015610eca573d6000803e3d6000fd5b5050505050806001600160a01b0316634e0f74366040518163ffffffff1660e01b8152600401600060405180830381600087803b1580156106ac57600080fd5b601060009054906101000a90046001600160a01b0316806001600160a01b031663ff27b1896040518163ffffffff1660e01b8152600401600060405180830381600087803b158015610f5b57600080fd5b505af1158015610f6f573d6000803e3d6000fd5b50505050610f7b6116b4565b6001600160801b0316803414610fa35760405162461bcd60e51b815260040161051f9061349b565b6040805160c0810182526001546001600160a01b0390811682526002541660208083019190915282519081018352600354815281830152600480546060830152600554608083015260065460a083015291516332c812a760e11b815273__PaymentStartStandardExit______________92636590254e92610e9e9290916000918991016136d0565b6040805160a081018252602c546001600160801b038082168352600160801b9182900481166020840152602d549081169383019390935261ffff90830481166060830152600160901b9092049091166080820152600090610a8190611934565b606080838390506040519080825280602002602001820160405280156110cc57816020015b6110b9611c98565b8152602001906001900390816110b15790505b50905060005b83811015610d7c5760008585838181106110e857fe5b90506020020160206110fd9190810190612823565b6001600160a81b03811660009081526020818152604091829020825160c081018452815460ff161515815260018201549281019290925260028101549282019290925260038201546001600160a01b031660608201526004820154608082015260059091015460a082015284519192509084908490811061117a57fe5b6020908102919091010152506001016110d2565b666379da05b6000081565b60006111a48261195e565b90505b919050565b600281565b603060009054906101000a90046001600160a01b0316806001600160a01b031663ff27b1896040518163ffffffff1660e01b8152600401600060405180830381600087803b15801561120257600080fd5b505af1158015611216573d6000803e3d6000fd5b50505050611222610a21565b6001600160801b031680341461124a5760405162461bcd60e51b815260040161051f9061349b565b6040805160c0810182526017546001600160a01b03908116825282516020818101855260185482528301526019541681830152601a546060820152601b546080820152601c5460a0820152905163082153e960e21b815273__PaymentPiggybackInFlightExit__________916320854fa491610e9e91906011908890600401613640565b603060009054906101000a90046001600160a01b03166001600160a01b0316634b0a72bc6040518163ffffffff1660e01b815260040160206040518083038186803b15801561131d57600080fd5b505afa158015611331573d6000803e3d6000fd5b505050506040513d601f19601f82011682018060405250611355919081019061252a565b336001600160a01b0382161461137d5760405162461bcd60e51b815260040161051f906134eb565b61138e602c8363ffffffff61171416565b7f63ccac61f03626a0e717e96da239ff8996745b6c4ddcaffdedc88d7ef938f5ec8260405161056891906136fe565b60006113c7611ccd565b6113d08361197c565b90506113dd858583611a0f565b95945050505050565b603060009054906101000a90046001600160a01b0316806001600160a01b031663ff27b1896040518163ffffffff1660e01b8152600401600060405180830381600087803b15801561143757600080fd5b505af115801561144b573d6000803e3d6000fd5b505060408051606081018252602080546001600160a01b0390811683526021541690820152602254818301529051634bb4a4df60e11b815273__PaymentChallengeIFEInputSpent_________935063976949be92506106419190601190879060040161350b565b6631bced02db000081565b6683734dd0b0800081565b603060009054906101000a90046001600160a01b0316806001600160a01b031663ff27b1896040518163ffffffff1660e01b8152600401600060405180830381600087803b15801561151a57600080fd5b505af115801561152e573d6000803e3d6000fd5b5050505061153a610a21565b6001600160801b03168034146115625760405162461bcd60e51b815260040161051f9061349b565b6040805160c0810182526017546001600160a01b03908116825282516020818101855260185482528301526019541681830152601a546060820152601b546080820152601c5460a08201529051631845801f60e11b815273__PaymentPiggybackInFlightExit__________9163308b003e91610e9e91906011908890600401613640565b603060009054906101000a90046001600160a01b0316806001600160a01b031663ff27b1896040518163ffffffff1660e01b8152600401600060405180830381600087803b15801561163857600080fd5b505af115801561164c573d6000803e3d6000fd5b505060408051606081018252601d546001600160a01b039081168252601e54166020820152601f54818301529051631287d7e160e31b815273__PaymentChallengeIFENotCanonical_______935063943ebf08925061064191906011908790600401613591565b6040805160a081018252600e546001600160801b038082168352600160801b9182900481166020840152600f549081169383019390935261ffff90830481166060830152600160901b9092049091166080820152600090610a8190611934565b6040805160a08101825283546001600160801b038082168352600160801b918290048116602084015260018601549081169383019390935261ffff90830481166060830152600160901b90920490911660808201526117739082611a5a565b8154600160801b90046001600160801b0316158015906117a0575060018201546001600160801b03164210155b156117c7578154600160801b81046001600160801b03166001600160801b03199091161782555b81546001600160801b03918216600160801b02911617815560010180546001600160801b0319166001600160401b03426202a3000116179055565b600061181e6001600160a81b03831660a763ffffffff611b1d16565b60ff161592915050565b604080516080810182526007546001600160a01b039081168252600854811660208301526009541681830152600a5460608201529051630d3509b360e11b815273__PaymentProcessStandardExit____________91631a6a13669161189891906000908790879060040161366e565b60006040518083038186803b1580156118b057600080fd5b505af41580156106c0573d6000803e3d6000fd5b604080516080810182526028546001600160a01b03908116825260295481166020830152602a541681830152602b54606082015290516301f74bf960e11b815273__PaymentProcessInFlightExit____________916303ee97f29161189891906011908790879060040161366e565b600081604001516001600160801b0316421015611953575080516111a7565b5060208101516111a7565b805160208201206000906111a49060591c60a763ffffffff611b2716565b611984611ccd565b633b9aca008083049061271090840681900490840664a7c5ac471a8311156119be5760405162461bcd60e51b815260040161051f9061347b565b61ffff8211156119e05760405162461bcd60e51b815260040161051f9061348b565b604080516060810182526001600160401b03909416845261ffff92831660208501529116908201529050919050565b6000808415611a3a57611a3384846040015161ffff16611a2e86611b34565b611bc3565b9050611a4f565b611a4c84846040015161ffff16611bf9565b90505b60591c949350505050565b6000611a6583611934565b90506000826001600160801b031611611a905760405162461bcd60e51b815260040161051f906134cb565b826060015161ffff16816001600160801b031681611aaa57fe5b046001600160801b0316826001600160801b03161015611adc5760405162461bcd60e51b815260040161051f906134db565b826080015161ffff16816001600160801b031602826001600160801b03161115611b185760405162461bcd60e51b815260040161051f906134ab565b505050565b60ff161c60011690565b600160ff919091161b1790565b6000600161271003826040015161ffff161115611b635760405162461bcd60e51b815260040161051f906134bb565b815164a7c5ac471a6001600160401b039091161115611b945760405162461bcd60e51b815260040161051f906134fb565b506040810151602082015182516001600160401b0316633b9aca000261ffff9182166127100201911601919050565b6000838383604051602001611bda93929190613426565b6040516020818303038152906040528051906020012090509392505050565b60008282604051602001611c0e929190613404565b60405160208183030381529060405280519060200120905092915050565b60405180610120016040528060001515815260200160006001600160401b031681526020016000815260200160008152602001611c67611ced565b8152602001611c74611ced565b815260200160006001600160a01b0316815260200160008152602001600081525090565b6040805160c081018252600080825260208201819052918101829052606081018290526080810182905260a081019190915290565b604080516060810182526000808252602082018190529181019190915290565b60405180608001604052806004905b611d04611d1a565b815260200190600190039081611cfc5790505090565b6040805160a08101825260008082526020820181905291810182905260608101829052608081019190915290565b8035610d8081613845565b8051610d8081613845565b600082601f830112611d6f57600080fd5b8135611d82611d7d8261374e565b613728565b81815260209384019390925082018360005b83811015611dc05781358601611daa8882611e98565b8452506020928301929190910190600101611d94565b5050505092915050565b60008083601f840112611ddc57600080fd5b5081356001600160401b03811115611df357600080fd5b602083019150836020820283011115611e0b57600080fd5b9250929050565b600082601f830112611e2357600080fd5b8135611e31611d7d8261374e565b91508181835260208401935060208101905083856020840282011115611e5657600080fd5b60005b83811015611dc05781611e6c8882611e8d565b8452506020928301929190910190600101611e59565b8035610d808161385c565b8035610d8081613865565b600082601f830112611ea957600080fd5b8135611eb7611d7d8261376e565b91508082526020830160208301858383011115611ed357600080fd5b611ede838284613803565b50505092915050565b60006101208284031215611efa57600080fd5b611f05610120613728565b905081356001600160401b03811115611f1d57600080fd5b611f2984828501611e98565b8252506020611f3a84848301611e8d565b60208301525060408201356001600160401b03811115611f5957600080fd5b611f6584828501611e98565b6040830152506060611f7984828501612514565b60608301525060808201356001600160401b03811115611f9857600080fd5b611fa484828501611e98565b60808301525060a0611fb884828501612514565b60a08301525060c0611fcc84828501611e8d565b60c08301525060e08201356001600160401b03811115611feb57600080fd5b611ff784828501611e98565b60e0830152506101008201356001600160401b0381111561201757600080fd5b61202384828501611e98565b6101008301525092915050565b6000610100828403121561204357600080fd5b61204e610100613728565b905081356001600160401b0381111561206657600080fd5b61207284828501611e98565b825250602061208384848301612514565b60208301525060408201356001600160401b038111156120a257600080fd5b6120ae84828501611e98565b60408301525060606120c284828501612514565b60608301525060808201356001600160401b038111156120e157600080fd5b6120ed84828501611e98565b60808301525060a08201356001600160401b0381111561210c57600080fd5b61211884828501611e98565b60a08301525060c061212c84828501611e8d565b60c08301525060e061214084828501611e8d565b60e08301525092915050565b600060e0828403121561215e57600080fd5b61216860e0613728565b905081356001600160401b0381111561218057600080fd5b61218c84828501611e98565b82525060208201356001600160401b038111156121a857600080fd5b6121b484828501611e98565b60208301525060406121c884828501611e8d565b60408301525060608201356001600160401b038111156121e757600080fd5b6121f384828501611e98565b606083015250608061220784828501612514565b60808301525060a08201356001600160401b0381111561222657600080fd5b61223284828501611e98565b60a08301525060c061224684828501611e8d565b60c08301525092915050565b600060c0828403121561226457600080fd5b61226e60c0613728565b9050600061227c848461251f565b82525060208201356001600160401b0381111561229857600080fd5b6122a484828501611e98565b60208301525060408201356001600160401b038111156122c357600080fd5b6122cf84828501611e98565b60408301525060606122e384828501612514565b60608301525060808201356001600160401b0381111561230257600080fd5b61230e84828501611e98565b60808301525060a061232284828501611e8d565b60a08301525092915050565b60006040828403121561234057600080fd5b61234a6040613728565b905081356001600160401b0381111561236257600080fd5b61236e84828501611e98565b825250602061237f84848301612514565b60208301525092915050565b600060a0828403121561239d57600080fd5b6123a760a0613728565b905081356001600160401b038111156123bf57600080fd5b6123cb84828501611e98565b82525060208201356001600160401b038111156123e757600080fd5b6123f384828501611d5e565b60208301525060408201356001600160401b0381111561241257600080fd5b61241e84828501611e12565b60408301525060608201356001600160401b0381111561243d57600080fd5b61244984828501611d5e565b60608301525060808201356001600160401b0381111561246857600080fd5b61247484828501611d5e565b60808301525092915050565b60006060828403121561249257600080fd5b61249c6060613728565b905060006124aa8484611e8d565b82525060208201356001600160401b038111156124c657600080fd5b6124d284828501611e98565b60208301525060408201356001600160401b038111156124f157600080fd5b6124fd84828501611e98565b60408301525092915050565b8035610d808161386e565b8035610d8081613877565b8035610d8081613880565b60006020828403121561253c57600080fd5b60006125488484611d53565b949350505050565b6000806020838503121561256357600080fd5b82356001600160401b0381111561257957600080fd5b61258585828601611dca565b92509250509250929050565b6000806000606084860312156125a657600080fd5b60006125b28686611e82565b93505060208401356001600160401b038111156125ce57600080fd5b6125da86828701611e98565b92505060406125eb86828701611e8d565b9150509250925092565b60006020828403121561260757600080fd5b81356001600160401b0381111561261d57600080fd5b61254884828501611e98565b60008060006060848603121561263e57600080fd5b83356001600160401b0381111561265457600080fd5b61266086828701611e98565b935050602061267186828701611e8d565b92505060408401356001600160401b0381111561268d57600080fd5b6125eb86828701611e98565b6000602082840312156126ab57600080fd5b81356001600160401b038111156126c157600080fd5b61254884828501611ee7565b6000602082840312156126df57600080fd5b81356001600160401b038111156126f557600080fd5b61254884828501612030565b60006020828403121561271357600080fd5b81356001600160401b0381111561272957600080fd5b6125488482850161214c565b60006020828403121561274757600080fd5b81356001600160401b0381111561275d57600080fd5b61254884828501612252565b60006020828403121561277b57600080fd5b81356001600160401b0381111561279157600080fd5b6125488482850161232e565b6000602082840312156127af57600080fd5b81356001600160401b038111156127c557600080fd5b6125488482850161238b565b6000602082840312156127e357600080fd5b81356001600160401b038111156127f957600080fd5b61254884828501612480565b60006020828403121561281757600080fd5b60006125488484612509565b60006020828403121561283557600080fd5b6000612548848461251f565b60008060006060848603121561285657600080fd5b6000612862868661251f565b935050602061287386828701611e8d565b92505060406125eb86828701611d48565b60006128908383612ab8565b9392505050565b60006128a38383613199565b50506105e00190565b60006128b88383613275565b505060c00190565b60006128cc8383613385565b505060a00190565b60006128e08383612aaf565b505060200190565b6128f1816137b1565b82525050565b60006129028261379e565b61290c81856137a8565b93508360208202850161291e85613795565b8060005b85811015612958578484038952815161293b8582612884565b945061294683613795565b60209a909a0199925050600101612922565b5091979650505050505050565b60006129708261379e565b61297a81856137a8565b935061298583613795565b8060005b838110156129b357815161299d8882612897565b97506129a883613795565b925050600101612989565b509495945050505050565b60006129c98261379e565b6129d381856137a8565b93506129de83613795565b8060005b838110156129b35781516129f688826128ac565b9750612a0183613795565b9250506001016129e2565b612a15816137a2565b612a1f81846111a7565b9250612a2a8261379b565b8060005b838110156106c0578151612a4287826128c0565b9650612a4d83613795565b925050600101612a2e565b6000612a638261379e565b612a6d81856137a8565b9350612a7883613795565b8060005b838110156129b3578151612a9088826128d4565b9750612a9b83613795565b925050600101612a7c565b6128f1816137bc565b6128f18161379b565b6000612ac38261379e565b612acd81856137a8565b9350612add81856020860161380f565b612ae68161383b565b9093019392505050565b6000612afb8261379e565b612b0581856111a7565b9350612b1581856020860161380f565b9290920192915050565b6128f1816137f8565b6000612b356034836137a8565b7f626c6f636b4e756d2065786365656473206d61782073697a6520616c6c6f77658152736420696e20506c61736d614672616d65776f726b60601b602082015260400192915050565b6000612b8b6022836137a8565b7f7478496e6465782065786365656473207468652073697a65206f662075696e74815261189b60f11b602082015260400192915050565b6000612bcf6020836137a8565b7f496e7075742076616c7565206d757374206d61746368206d73672e76616c7565815260200192915050565b6000612c086015836137a8565b74084dedcc840e6d2f4ca40d2e640e8dede40d0d2ced605b1b815260200192915050565b6000612c396014836137a8565b73092dcecc2d8d2c840deeae8e0eae840d2dcc8caf60631b815260200192915050565b6000612c696018836137a8565b7f426f6e642073697a652063616e6e6f74206265207a65726f0000000000000000815260200192915050565b6000612ca26014836137a8565b73426f6e642073697a6520697320746f6f206c6f7760601b815260200192915050565b6000612cd2601e836137a8565b7f43616c6c6572206164647265737320697320756e617574686f72697a65640000815260200192915050565b6000612d0b6014836137a8565b7324b73b30b634b210313637b1b590373ab6b132b960611b815260200192915050565b805160208301906108088482612aaf565b805161012080845260009190840190612d588282612ab8565b9150506020830151612d6d6020860182612aaf565b5060408301518482036040860152612d858282612ab8565b9150506060830151612d9a60608601826133e1565b5060808301518482036080860152612db28282612ab8565b91505060a0830151612dc760a08601826133e1565b5060c0830151612dda60c0860182612aaf565b5060e083015184820360e0860152612df28282612ab8565b9150506101008301518482036101008601526113dd8282612ab8565b805161010080845260009190840190612e278282612ab8565b9150506020830151612e3c60208601826133e1565b5060408301518482036040860152612e548282612ab8565b9150506060830151612e6960608601826133e1565b5060808301518482036080860152612e818282612ab8565b91505060a083015184820360a0860152612e9b8282612ab8565b91505060c0830151612eb060c0860182612aaf565b5060e0830151610d7c60e0860182612aaf565b805160e080845260009190840190612edb8282612ab8565b91505060208301518482036020860152612ef58282612ab8565b9150506040830151612f0a6040860182612aaf565b5060608301518482036060860152612f228282612ab8565b9150506080830151612f3760808601826133e1565b5060a083015184820360a0860152612f4f8282612ab8565b91505060c0830151610d7c60c0860182612aaf565b805160009060c0840190612f7885826133d8565b5060208301518482036020860152612f908282612ab8565b91505060408301518482036040860152612faa8282612ab8565b9150506060830151612fbf60608601826133e1565b5060808301518482036080860152612fd78282612ab8565b91505060a0830151610d7c60a0860182612aaf565b80516060830190612ffd8482612b1f565b5060208201516130106020850182612b1f565b5060408201516108086040850182612aaf565b805160408301906130348482612aaf565b5060208201516108086020850182612aaf565b805160c08301906130588482612b1f565b50602082015161306b6020850182612d2e565b50604082015161307e6040850182612b1f565b5060608201516130916060850182612aaf565b5060808201516130a46080850182612aaf565b5060a082015161080860a0850182612aaf565b805160808301906130c88482612b1f565b5060208201516130db6020850182612b1f565b5060408201516130ee6040850182612b1f565b5060608201516108086060850182612aaf565b805160a08301906131128482612b1f565b5060208201516131256020850182612d2e565b5060408201516131386040850182612b1f565b50606082015161314b6060850182612b1f565b5060808201516108086080850182612aaf565b805160c083019061316f8482612b1f565b5060208201516131826020850182612b1f565b50604082015161307e6040850182612d2e565b9052565b80516105e08301906131ab8482612aa6565b5060208201516131be60208501826133fb565b5060408201516131d16040850182612aaf565b5060608201516131e46060850182612aaf565b5060808201516131f76080850182612a0c565b5060a082015161320b610300850182612a0c565b5060c082015161321f6105808501826128e8565b5060e08201516132336105a0850182612aaf565b506101008201516108086105c0850182612aaf565b80516040808452600091908401906132608282612ab8565b9150506020830151610d7c60208601826133e1565b805160c08301906132868482612aa6565b5060208201516132996020850182612aaf565b5060408201516132ac6040850182612aaf565b50606082015161309160608501826128e8565b805160a0808452600091908401906132d78282612ab8565b915050602083015184820360208601526132f182826128f7565b9150506040830151848203604086015261330b8282612a58565b9150506060830151848203606086015261332582826128f7565b915050608083015184820360808601526113dd82826128f7565b805160009060608401906133538582612aaf565b506020830151848203602086015261336b8282612ab8565b915050604083015184820360408601526113dd8282612ab8565b805160a08301906133968482612aaf565b5060208201516133a960208501826128e8565b5060408201516133bc60408501826128e8565b50606082015161314b6060850182612aaf565b6128f1816137c1565b6128f1816137e0565b6128f1816137cd565b6128f16133f68261379b565b61379b565b6128f1816137ec565b60006134108285612af0565b915061341c82846133ea565b5060200192915050565b60006134328286612af0565b915061343e82856133ea565b60208201915061344e82846133ea565b506020019392505050565b602080825281016128908184612965565b6020808252810161289081846129be565b602080825281016111a481612b28565b602080825281016111a481612b7e565b602080825281016111a481612bc2565b602080825281016111a481612bfb565b602080825281016111a481612c2c565b602080825281016111a481612c5c565b602080825281016111a481612c95565b602080825281016111a481612cc5565b602080825281016111a481612cfe565b60a081016135198286612fec565b6135266060830185613195565b81810360808301526113dd8184612e0e565b60e081016135468288612fec565b6135536060830187613195565b81810360808301526135658186612ab8565b905061357460a0830185612aaf565b81810360c08301526135868184612ab8565b979650505050505050565b60a0810161359f8286612fec565b6135ac6060830185613195565b81810360808301526113dd8184612d3f565b60a081016135cc8286612fec565b6135d96060830185613195565b81810360808301526113dd8184612ec3565b60a081016135f98286612fec565b6136066060830185613195565b81810360808301526113dd8184612f64565b608081016136268286613023565b6136336040830185613195565b61254860608301846133d8565b610100810161364f8286613047565b61365c60c0830185613195565b81810360e08301526113dd8184613248565b60e0810161367c82876130b7565b6136896080830186613195565b61369660a08301856133d8565b6113dd60c08301846128e8565b60e081016136b18286613101565b6136be60a0830185613195565b81810360c08301526113dd81846132bf565b61010081016136df828661315e565b6136ec60c0830185613195565b81810360e08301526113dd818461333f565b60208101610d8082846133cf565b60208101610d8082846133d8565b60208101610d8082846133e1565b6040518181016001600160401b038111828210171561374657600080fd5b604052919050565b60006001600160401b0382111561376457600080fd5b5060209081020190565b60006001600160401b0382111561378457600080fd5b506020601f91909101601f19160190565b60200190565b90565b5190565b50600490565b90815260200190565b60006111a4826137d4565b151590565b6001600160801b031690565b61ffff1690565b6001600160a01b031690565b6001600160a81b031690565b6001600160401b031690565b60006111a4826137b1565b82818337506000910152565b60005b8381101561382a578181015183820152602001613812565b838111156108085750506000910152565b601f01601f191690565b61384e816137b1565b811461385957600080fd5b50565b61384e816137bc565b61384e8161379b565b61384e816137c1565b61384e816137cd565b61384e816137e0565b613891611d1a565b506040805160a0810182526001600160801b03949094168452600060208501526780000000000000009084015261ffff91821660608401521660808201529056fea365627a7a72315820fbd1ba21deaac63ea09698b7b7687295c26702cce8bc98a3e1abc7ac8ef5cf046c6578706572696d656e74616cf564736f6c634300050b0040",
  "source": "pragma solidity 0.5.11;\npragma experimental ABIEncoderV2;\n\nimport \"./PaymentExitGameArgs.sol\";\nimport \"./routers/PaymentStandardExitRouter.sol\";\nimport \"./routers/PaymentInFlightExitRouter.sol\";\nimport \"../utils/ExitId.sol\";\nimport \"../registries/SpendingConditionRegistry.sol\";\nimport \"../../framework/interfaces/IExitProcessor.sol\";\nimport \"../../framework/PlasmaFramework.sol\";\nimport \"../../utils/OnlyFromAddress.sol\";\n\n/**\n * @notice The exit game contract implementation for Payment Transaction\n */\ncontract PaymentExitGame is IExitProcessor, OnlyFromAddress, PaymentStandardExitRouter, PaymentInFlightExitRouter {\n    PlasmaFramework private plasmaFramework;\n\n    /**\n     * @dev use struct PaymentExitGameArgs to avoid stack too deep compilation error.\n     */\n    constructor(PaymentExitGameArgs.Args memory args)\n        public\n        PaymentStandardExitRouter(args)\n        PaymentInFlightExitRouter(args)\n    {\n        plasmaFramework = args.framework;\n\n        // makes sure that the spending condition has already renounced ownership\n        require(args.spendingConditionRegistry.owner() == address(0), \"Spending condition registry ownership needs to be renounced\");\n    }\n\n    /**\n     * @notice Callback processes exit function for the PlasmaFramework to call\n     * @param exitId The exit ID\n     * @param token Token (ERC20 address or address(0) for ETH) of the exiting output\n     */\n    function processExit(uint168 exitId, uint256, address token) external onlyFrom(address(plasmaFramework)) {\n        if (ExitId.isStandardExit(exitId)) {\n            PaymentStandardExitRouter.processStandardExit(exitId, token);\n        } else {\n            PaymentInFlightExitRouter.processInFlightExit(exitId, token);\n        }\n    }\n\n    /**\n     * @notice Helper function to compute the standard exit ID\n     */\n    function getStandardExitId(bool _isDeposit, bytes memory _txBytes, uint256 _utxoPos)\n        public\n        pure\n        returns (uint168)\n    {\n        PosLib.Position memory utxoPos = PosLib.decode(_utxoPos);\n        return ExitId.getStandardExitId(_isDeposit, _txBytes, utxoPos);\n    }\n\n    /**\n     * @notice Helper function to compute the in-flight exit ID\n     */\n    function getInFlightExitId(bytes memory _txBytes)\n        public\n        pure\n        returns (uint168)\n    {\n        return ExitId.getInFlightExitId(_txBytes);\n    }\n}\n",
  "sourcePath": "/Users/souradeep/Downloads/Work/plasma-contracts/plasma_framework/contracts/src/exits/payment/PaymentExitGame.sol",
  "compiler": {
    "name": "solc",
    "version": "0.5.11+commit.c082d0b4.Emscripten.clang"
  },
  "schemaVersion": "3.2.0",
  "updatedAt": "2020-06-22T07:55:50.012Z",
  "devdoc": {
    "methods": {
      "challengeInFlightExitInputSpent((bytes,uint16,bytes,uint16,bytes,bytes,uint256,bytes32))": {
        "params": {
          "args": "Argument data to challenge (see also struct 'ChallengeInputSpentArgs')"
        }
      },
      "challengeInFlightExitNotCanonical((bytes,uint256,bytes,uint16,bytes,uint16,uint256,bytes,bytes))": {
        "params": {
          "args": "Input argument data to challenge (see also struct 'ChallengeCanonicityArgs')"
        }
      },
      "challengeInFlightExitOutputSpent((bytes,bytes,uint256,bytes,uint16,bytes,bytes32))": {
        "params": {
          "args": "Argument data to challenge (see also struct 'ChallengeOutputSpent')"
        }
      },
      "constructor": {
        "details": "use struct PaymentExitGameArgs to avoid stack too deep compilation error."
      },
      "deleteNonPiggybackedInFlightExit(uint168)": {
        "details": "Since IFE is enqueued during piggyback, a non-piggybacked IFE means that it will never be processed.     This means that the IFE bond will never be returned.     see: https://github.com/omisego/plasma-contracts/issues/440",
        "params": {
          "exitId": "The exitId of the in-flight exit"
        }
      },
      "inFlightExits(uint168[])": {
        "params": {
          "exitIds": "The exit IDs of the in-flight exits"
        }
      },
      "piggybackInFlightExitOnInput((bytes,uint16))": {
        "params": {
          "args": "Input argument data to piggyback (see also struct 'PiggybackInFlightExitOnInputArgs')"
        }
      },
      "piggybackInFlightExitOnOutput((bytes,uint16))": {
        "params": {
          "args": "Input argument data to piggyback (see also struct 'PiggybackInFlightExitOnOutputArgs')"
        }
      },
      "processExit(uint168,uint256,address)": {
        "params": {
          "exitId": "The exit ID",
          "token": "Token (ERC20 address or address(0) for ETH) of the exiting output"
        }
      },
      "respondToNonCanonicalChallenge(bytes,uint256,bytes)": {
        "params": {
          "inFlightTx": "The RLP-encoded in-flight transaction",
          "inFlightTxInclusionProof": "Proof that the in-flight exiting transaction is included in a Plasma block",
          "inFlightTxPos": "The position of the in-flight exiting transaction. The output index within the position is unused and should be set to 0"
        }
      },
      "standardExits(uint168[])": {
        "params": {
          "exitIds": "Exit IDs of the standard exits"
        }
      },
      "startInFlightExit((bytes,bytes[],uint256[],bytes[],bytes[]))": {
        "params": {
          "args": "Input argument data to challenge (see also struct 'StartExitArgs')"
        }
      },
      "updatePiggybackBondSize(uint128)": {
        "params": {
          "newBondSize": "The new bond size"
        }
      },
      "updateStartIFEBondSize(uint128)": {
        "params": {
          "newBondSize": "The new bond size"
        }
      },
      "updateStartStandardExitBondSize(uint128)": {
        "params": {
          "newBondSize": "The new bond size"
        }
      }
    }
  },
  "userdoc": {
    "methods": {
      "challengeInFlightExitInputSpent((bytes,uint16,bytes,uint16,bytes,bytes,uint256,bytes32))": {
        "notice": "Challenges an exit from in-flight transaction input"
      },
      "challengeInFlightExitNotCanonical((bytes,uint256,bytes,uint16,bytes,uint16,uint256,bytes,bytes))": {
        "notice": "Challenges an in-flight exit to be non-canonical"
      },
      "challengeInFlightExitOutputSpent((bytes,bytes,uint256,bytes,uint16,bytes,bytes32))": {
        "notice": "Challenges an exit from in-flight transaction output"
      },
      "challengeStandardExit((uint168,bytes,bytes,uint16,bytes,bytes32))": {
        "notice": "Challenge a standard exit by showing the exiting output was spent"
      },
      "deleteNonPiggybackedInFlightExit(uint168)": {
        "notice": "Deletes in-flight exit if the first phase has passed and not being piggybacked"
      },
      "getInFlightExitId(bytes)": {
        "notice": "Helper function to compute the in-flight exit ID"
      },
      "getStandardExitId(bool,bytes,uint256)": {
        "notice": "Helper function to compute the standard exit ID"
      },
      "inFlightExits(uint168[])": {
        "notice": "Getter functions to retrieve in-flight exit data of the PaymentExitGame"
      },
      "piggybackBondSize()": {
        "notice": "Retrieves the piggyback bond size"
      },
      "piggybackInFlightExitOnInput((bytes,uint16))": {
        "notice": "Piggyback on an input of an in-flight exiting tx. Processed only if the in-flight exit is non-canonical."
      },
      "piggybackInFlightExitOnOutput((bytes,uint16))": {
        "notice": "Piggyback on an output of an in-flight exiting tx. Processed only if the in-flight exit is canonical."
      },
      "processExit(uint168,uint256,address)": {
        "notice": "Callback processes exit function for the PlasmaFramework to call"
      },
      "respondToNonCanonicalChallenge(bytes,uint256,bytes)": {
        "notice": "Respond to a non-canonical challenge by providing its position and by proving its correctness"
      },
      "standardExits(uint168[])": {
        "notice": "Getter retrieves standard exit data of the PaymentExitGame"
      },
      "startIFEBondSize()": {
        "notice": "Retrieves the in-flight exit bond size"
      },
      "startInFlightExit((bytes,bytes[],uint256[],bytes[],bytes[]))": {
        "notice": "Starts withdrawal from a transaction that may be in-flight"
      },
      "startStandardExit((uint256,bytes,bytes))": {
        "notice": "Starts a standard exit of a given output, using output-age priority"
      },
      "startStandardExitBondSize()": {
        "notice": "Retrieves the standard exit bond size"
      },
      "updatePiggybackBondSize(uint128)": {
        "notice": "Updates the piggyback bond size, taking two days to become effective"
      },
      "updateStartIFEBondSize(uint128)": {
        "notice": "Updates the in-flight exit bond size, taking two days to become effective."
      },
      "updateStartStandardExitBondSize(uint128)": {
        "notice": "Updates the standard exit bond size, taking two days to become effective"
      }
    },
    "notice": "The exit game contract implementation for Payment Transaction"
  }
}