{
  "contractName": "PlasmaFramework",
  "abi": [
    {
      "constant": true,
      "inputs": [
        {
          "internalType": "uint256",
          "name": "vaultId",
          "type": "uint256"
        },
        {
          "internalType": "address",
          "name": "token",
          "type": "address"
        }
      ],
      "name": "getNextExit",
      "outputs": [
        {
          "internalType": "uint256",
          "name": "",
          "type": "uint256"
        }
      ],
      "payable": false,
      "stateMutability": "view",
      "type": "function"
    },
    {
      "constant": true,
      "inputs": [
        {
          "internalType": "bytes32",
          "name": "",
          "type": "bytes32"
        }
      ],
      "name": "exitsQueues",
      "outputs": [
        {
          "internalType": "contract PriorityQueue",
          "name": "",
          "type": "address"
        }
      ],
      "payable": false,
      "stateMutability": "view",
      "type": "function"
    },
    {
      "constant": true,
      "inputs": [],
      "name": "childBlockInterval",
      "outputs": [
        {
          "internalType": "uint256",
          "name": "",
          "type": "uint256"
        }
      ],
      "payable": false,
      "stateMutability": "view",
      "type": "function"
    },
    {
      "constant": false,
      "inputs": [
        {
          "internalType": "bytes32[]",
          "name": "_outputIds",
          "type": "bytes32[]"
        }
      ],
      "name": "batchFlagOutputsSpent",
      "outputs": [],
      "payable": false,
      "stateMutability": "nonpayable",
      "type": "function"
    },
    {
      "constant": false,
      "inputs": [
        {
          "internalType": "uint256",
          "name": "vaultId",
          "type": "uint256"
        },
        {
          "internalType": "address",
          "name": "token",
          "type": "address"
        }
      ],
      "name": "addExitQueue",
      "outputs": [],
      "payable": false,
      "stateMutability": "nonpayable",
      "type": "function"
    },
    {
      "constant": true,
      "inputs": [],
      "name": "nextChildBlock",
      "outputs": [
        {
          "internalType": "uint256",
          "name": "",
          "type": "uint256"
        }
      ],
      "payable": false,
      "stateMutability": "view",
      "type": "function"
    },
    {
      "constant": true,
      "inputs": [],
      "name": "operator",
      "outputs": [
        {
          "internalType": "address",
          "name": "",
          "type": "address"
        }
      ],
      "payable": false,
      "stateMutability": "view",
      "type": "function"
    },
    {
      "constant": true,
      "inputs": [
        {
          "internalType": "address",
          "name": "_contract",
          "type": "address"
        }
      ],
      "name": "isExitGameSafeToUse",
      "outputs": [
        {
          "internalType": "bool",
          "name": "",
          "type": "bool"
        }
      ],
      "payable": false,
      "stateMutability": "view",
      "type": "function"
    },
    {
      "constant": false,
      "inputs": [
        {
          "internalType": "uint256",
          "name": "_vaultId",
          "type": "uint256"
        },
        {
          "internalType": "address",
          "name": "_vaultAddress",
          "type": "address"
        }
      ],
      "name": "registerVault",
      "outputs": [],
      "payable": false,
      "stateMutability": "nonpayable",
      "type": "function"
    },
    {
      "constant": false,
      "inputs": [
        {
          "internalType": "address",
          "name": "newAuthority",
          "type": "address"
        }
      ],
      "name": "setAuthority",
      "outputs": [],
      "payable": false,
      "stateMutability": "nonpayable",
      "type": "function"
    },
    {
      "constant": true,
      "inputs": [],
      "name": "nextDepositBlock",
      "outputs": [
        {
          "internalType": "uint256",
          "name": "",
          "type": "uint256"
        }
      ],
      "payable": false,
      "stateMutability": "view",
      "type": "function"
    },
    {
      "constant": true,
      "inputs": [
        {
          "internalType": "uint256",
          "name": "_txType",
          "type": "uint256"
        }
      ],
      "name": "protocols",
      "outputs": [
        {
          "internalType": "uint8",
          "name": "",
          "type": "uint8"
        }
      ],
      "payable": false,
      "stateMutability": "view",
      "type": "function"
    },
    {
      "constant": true,
      "inputs": [
        {
          "internalType": "uint256",
          "name": "_vaultId",
          "type": "uint256"
        }
      ],
      "name": "vaults",
      "outputs": [
        {
          "internalType": "address",
          "name": "",
          "type": "address"
        }
      ],
      "payable": false,
      "stateMutability": "view",
      "type": "function"
    },
    {
      "constant": true,
      "inputs": [
        {
          "internalType": "bytes32[]",
          "name": "_outputIds",
          "type": "bytes32[]"
        }
      ],
      "name": "isAnyOutputsSpent",
      "outputs": [
        {
          "internalType": "bool",
          "name": "",
          "type": "bool"
        }
      ],
      "payable": false,
      "stateMutability": "view",
      "type": "function"
    },
    {
      "constant": false,
      "inputs": [
        {
          "internalType": "uint256",
          "name": "vaultId",
          "type": "uint256"
        },
        {
          "internalType": "address",
          "name": "token",
          "type": "address"
        },
        {
          "internalType": "uint64",
          "name": "exitableAt",
          "type": "uint64"
        },
        {
          "components": [
            {
              "internalType": "uint256",
              "name": "value",
              "type": "uint256"
            }
          ],
          "internalType": "struct TxPosLib.TxPos",
          "name": "txPos",
          "type": "tuple"
        },
        {
          "internalType": "uint160",
          "name": "exitId",
          "type": "uint160"
        },
        {
          "internalType": "contract IExitProcessor",
          "name": "exitProcessor",
          "type": "address"
        }
      ],
      "name": "enqueue",
      "outputs": [
        {
          "internalType": "uint256",
          "name": "",
          "type": "uint256"
        }
      ],
      "payable": false,
      "stateMutability": "nonpayable",
      "type": "function"
    },
    {
      "constant": true,
      "inputs": [
        {
          "internalType": "address",
          "name": "_exitGame",
          "type": "address"
        }
      ],
      "name": "exitGameToTxType",
      "outputs": [
        {
          "internalType": "uint256",
          "name": "",
          "type": "uint256"
        }
      ],
      "payable": false,
      "stateMutability": "view",
      "type": "function"
    },
    {
      "constant": true,
      "inputs": [],
      "name": "CHILD_BLOCK_INTERVAL",
      "outputs": [
        {
          "internalType": "uint256",
          "name": "",
          "type": "uint256"
        }
      ],
      "payable": false,
      "stateMutability": "view",
      "type": "function"
    },
    {
      "constant": true,
      "inputs": [],
      "name": "nextDeposit",
      "outputs": [
        {
          "internalType": "uint256",
          "name": "",
          "type": "uint256"
        }
      ],
      "payable": false,
      "stateMutability": "view",
      "type": "function"
    },
    {
      "constant": true,
      "inputs": [
        {
          "internalType": "bytes32",
          "name": "",
          "type": "bytes32"
        }
      ],
      "name": "isOutputSpent",
      "outputs": [
        {
          "internalType": "bool",
          "name": "",
          "type": "bool"
        }
      ],
      "payable": false,
      "stateMutability": "view",
      "type": "function"
    },
    {
      "constant": true,
      "inputs": [
        {
          "internalType": "uint256",
          "name": "_txType",
          "type": "uint256"
        }
      ],
      "name": "exitGames",
      "outputs": [
        {
          "internalType": "address",
          "name": "",
          "type": "address"
        }
      ],
      "payable": false,
      "stateMutability": "view",
      "type": "function"
    },
    {
      "constant": false,
      "inputs": [
        {
          "internalType": "bytes32",
          "name": "_blockRoot",
          "type": "bytes32"
        }
      ],
      "name": "submitBlock",
      "outputs": [],
      "payable": false,
      "stateMutability": "nonpayable",
      "type": "function"
    },
    {
      "constant": false,
      "inputs": [
        {
          "internalType": "bytes32",
          "name": "_blockRoot",
          "type": "bytes32"
        }
      ],
      "name": "submitDepositBlock",
      "outputs": [
        {
          "internalType": "uint256",
          "name": "",
          "type": "uint256"
        }
      ],
      "payable": false,
      "stateMutability": "nonpayable",
      "type": "function"
    },
    {
      "constant": true,
      "inputs": [],
      "name": "authority",
      "outputs": [
        {
          "internalType": "address",
          "name": "",
          "type": "address"
        }
      ],
      "payable": false,
      "stateMutability": "view",
      "type": "function"
    },
    {
      "constant": true,
      "inputs": [
        {
          "internalType": "uint256",
          "name": "",
          "type": "uint256"
        }
      ],
      "name": "delegations",
      "outputs": [
        {
          "internalType": "contract IExitProcessor",
          "name": "",
          "type": "address"
        }
      ],
      "payable": false,
      "stateMutability": "view",
      "type": "function"
    },
    {
      "constant": true,
      "inputs": [
        {
          "internalType": "uint256",
          "name": "vaultId",
          "type": "uint256"
        },
        {
          "internalType": "address",
          "name": "token",
          "type": "address"
        }
      ],
      "name": "hasExitQueue",
      "outputs": [
        {
          "internalType": "bool",
          "name": "",
          "type": "bool"
        }
      ],
      "payable": false,
      "stateMutability": "view",
      "type": "function"
    },
    {
      "constant": false,
      "inputs": [
        {
          "internalType": "bytes32",
          "name": "_outputId",
          "type": "bytes32"
        }
      ],
      "name": "flagOutputSpent",
      "outputs": [],
      "payable": false,
      "stateMutability": "nonpayable",
      "type": "function"
    },
    {
      "constant": true,
      "inputs": [],
      "name": "minExitPeriod",
      "outputs": [
        {
          "internalType": "uint256",
          "name": "",
          "type": "uint256"
        }
      ],
      "payable": false,
      "stateMutability": "view",
      "type": "function"
    },
    {
      "constant": false,
      "inputs": [
        {
          "internalType": "uint256",
          "name": "vaultId",
          "type": "uint256"
        },
        {
          "internalType": "address",
          "name": "token",
          "type": "address"
        },
        {
          "internalType": "uint160",
          "name": "topExitId",
          "type": "uint160"
        },
        {
          "internalType": "uint256",
          "name": "maxExitsToProcess",
          "type": "uint256"
        }
      ],
      "name": "processExits",
      "outputs": [],
      "payable": false,
      "stateMutability": "nonpayable",
      "type": "function"
    },
    {
      "constant": true,
      "inputs": [
        {
          "internalType": "address",
          "name": "_vaultAddress",
          "type": "address"
        }
      ],
      "name": "vaultToId",
      "outputs": [
        {
          "internalType": "uint256",
          "name": "",
          "type": "uint256"
        }
      ],
      "payable": false,
      "stateMutability": "view",
      "type": "function"
    },
    {
      "constant": true,
      "inputs": [
        {
          "internalType": "uint256",
          "name": "",
          "type": "uint256"
        }
      ],
      "name": "blocks",
      "outputs": [
        {
          "internalType": "bytes32",
          "name": "root",
          "type": "bytes32"
        },
        {
          "internalType": "uint256",
          "name": "timestamp",
          "type": "uint256"
        }
      ],
      "payable": false,
      "stateMutability": "view",
      "type": "function"
    },
    {
      "constant": false,
      "inputs": [
        {
          "internalType": "uint256",
          "name": "_txType",
          "type": "uint256"
        },
        {
          "internalType": "address",
          "name": "_contract",
          "type": "address"
        },
        {
          "internalType": "uint8",
          "name": "_protocol",
          "type": "uint8"
        }
      ],
      "name": "registerExitGame",
      "outputs": [],
      "payable": false,
      "stateMutability": "nonpayable",
      "type": "function"
    },
    {
      "constant": false,
      "inputs": [],
      "name": "initAuthority",
      "outputs": [],
      "payable": false,
      "stateMutability": "nonpayable",
      "type": "function"
    },
    {
      "inputs": [
        {
          "internalType": "uint256",
          "name": "_minExitPeriod",
          "type": "uint256"
        },
        {
          "internalType": "uint256",
          "name": "_initialImmuneVaults",
          "type": "uint256"
        },
        {
          "internalType": "uint256",
          "name": "_initialImmuneExitGames",
          "type": "uint256"
        }
      ],
      "payable": false,
      "stateMutability": "nonpayable",
      "type": "constructor"
    },
    {
      "anonymous": false,
      "inputs": [
        {
          "indexed": false,
          "internalType": "uint256",
          "name": "blockNumber",
          "type": "uint256"
        }
      ],
      "name": "BlockSubmitted",
      "type": "event"
    },
    {
      "anonymous": false,
      "inputs": [
        {
          "indexed": false,
          "internalType": "uint256",
          "name": "vaultId",
          "type": "uint256"
        },
        {
          "indexed": false,
          "internalType": "address",
          "name": "token",
          "type": "address"
        }
      ],
      "name": "ExitQueueAdded",
      "type": "event"
    },
    {
      "anonymous": false,
      "inputs": [
        {
          "indexed": false,
          "internalType": "uint256",
          "name": "processedNum",
          "type": "uint256"
        },
        {
          "indexed": false,
          "internalType": "uint256",
          "name": "vaultId",
          "type": "uint256"
        },
        {
          "indexed": false,
          "internalType": "address",
          "name": "token",
          "type": "address"
        }
      ],
      "name": "ProcessedExitsNum",
      "type": "event"
    },
    {
      "anonymous": false,
      "inputs": [
        {
          "indexed": true,
          "internalType": "uint160",
          "name": "exitId",
          "type": "uint160"
        },
        {
          "indexed": false,
          "internalType": "uint256",
          "name": "priority",
          "type": "uint256"
        }
      ],
      "name": "ExitQueued",
      "type": "event"
    },
    {
      "anonymous": false,
      "inputs": [
        {
          "indexed": false,
          "internalType": "uint256",
          "name": "txType",
          "type": "uint256"
        },
        {
          "indexed": false,
          "internalType": "address",
          "name": "exitGameAddress",
          "type": "address"
        },
        {
          "indexed": false,
          "internalType": "uint8",
          "name": "protocol",
          "type": "uint8"
        }
      ],
      "name": "ExitGameRegistered",
      "type": "event"
    },
    {
      "anonymous": false,
      "inputs": [
        {
          "indexed": false,
          "internalType": "uint256",
          "name": "vaultId",
          "type": "uint256"
        },
        {
          "indexed": false,
          "internalType": "address",
          "name": "vaultAddress",
          "type": "address"
        }
      ],
      "name": "VaultRegistered",
      "type": "event"
    }
  ],
  "bytecode": "0x60806040523480156200001157600080fd5b50604051620032c8380380620032c8833981016040819052620000349162000087565b600080546001600160a01b03191633179055600483905560059190915560038202600a55600b556103e860108190556011556001601255601455620000f8565b80516200008181620000de565b92915050565b6000806000606084860312156200009d57600080fd5b6000620000ab868662000074565b9350506020620000be8682870162000074565b9250506040620000d18682870162000074565b9150509250925092565b90565b620000e981620000db565b8114620000f557600080fd5b50565b6131c080620001086000396000f3fe60806040523480156200001157600080fd5b5060043610620002205760003560e01c8063a831fa071162000129578063c77b1ed611620000b1578063dfb494f0116200007b578063dfb494f01462000497578063f25b3f9914620004ae578063f2e208e714620004d5578063f5df0b7114620004ec5762000220565b8063c77b1ed61462000448578063d3329542146200045f578063d4a2b4ef1462000476578063d9aa4b2414620004805762000220565b8063baa4769411620000f3578063baa4769414620003f9578063be5ac6981462000410578063bf7e214f1462000427578063c4336c1c14620004315762000220565b8063a831fa0714620003b7578063a8cabcd514620003c1578063ab84a94b14620003cb578063af07976414620003e25762000220565b80636a51fd6311620001ad5780638c64ea4a11620001775780638c64ea4a146200035b5780638e7e389014620003725780639524a1231462000389578063a239e5a214620003a05762000220565b80636a51fd6314620002fd5780637a9e5e4b14620003145780638701fc5d146200032b5780638c39622014620003355762000220565b806345f2093511620001ef57806345f20935146200029d5780634ca8714f14620002b4578063570ca73514620002be5780635a102dae14620002d75762000220565b8063296d542714620002255780633701b5ca146200025457806338a9e0bc146200027a57806342383d4a1462000284575b600080fd5b6200023c6200023636600462001898565b620004f6565b6040516200024b9190620024de565b60405180910390f35b6200026b6200026536600462001835565b6200059b565b6040516200024b9190620022b2565b6200023c620005b6565b6200029b62000295366004620017ef565b620005bc565b005b6200029b620002ae36600462001898565b620006b3565b6200023c620007a8565b620002c8620007ae565b6040516200024b919062002273565b620002ee620002e8366004620017ce565b620007bd565b6040516200024b919062002283565b6200029b6200030e36600462001898565b620007fa565b6200029b62000325366004620017ce565b62000966565b6200023c620009de565b6200034c6200034636600462001835565b620009ec565b6040516200024b91906200254b565b620002c86200036c36600462001835565b62000a01565b620002ee62000383366004620017ef565b62000a1c565b6200023c6200039a36600462001941565b62000a80565b6200023c620003b1366004620017ce565b62000c2f565b6200023c62000c4a565b6200023c62000c50565b620002ee620003dc36600462001835565b62000c56565b620002c8620003f336600462001835565b62000c6b565b6200029b6200040a36600462001835565b62000c86565b6200023c6200042136600462001835565b62000d24565b620002c862000df7565b6200026b6200044236600462001835565b62000e06565b620002ee6200045936600462001898565b62000e21565b6200029b6200047036600462001835565b62000e3d565b6200023c62000eda565b6200029b62000491366004620018d7565b62000ee0565b6200023c620004a8366004620017ce565b6200134d565b620004c5620004bf36600462001835565b62001368565b6040516200024b92919062002293565b6200029b620004e6366004620019d5565b62001381565b6200029b62001524565b60008062000505848462001564565b6000818152600d602090815260409182902054825163d6362e9760e01b815292519394506001600160a01b03169263d6362e97926004808201939291829003018186803b1580156200055657600080fd5b505afa1580156200056b573d6000803e3d6000fd5b505050506040513d601f19601f8201168201806040525062000591919081019062001877565b9150505b92915050565b600d602052600090815260409020546001600160a01b031681565b60105481565b33600090815260076020526040902054620005f45760405162461bcd60e51b8152600401620005eb90620023e2565b60405180910390fd5b6200060760093363ffffffff6200159916565b15620006275760405162461bcd60e51b8152600401620005eb906200244e565b60005b81811015620006ae5760008383838181106200064257fe5b9050602002013514156200066a5760405162461bcd60e51b8152600401620005eb9062002388565b6001600e60008585858181106200067d57fe5b60209081029290920135835250810191909152604001600020805460ff19169115159190911790556001016200062a565b505050565b81620006d35760405162461bcd60e51b8152600401620005eb9062002406565b6000620006e1838362001564565b9050620006ee81620015b7565b156200070e5760405162461bcd60e51b8152600401620005eb90620022f8565b6040516200071c90620016c8565b604051809103906000f08015801562000739573d6000803e3d6000fd5b506000828152600d60205260409081902080546001600160a01b0319166001600160a01b039390931692909217909155517f0a925273fd754a41a580f8214815d5ae8a37367f561b3bd9d91a96730a418a17906200079b9085908590620024ee565b60405180910390a1505050565b60115481565b6000546001600160a01b031690565b6001600160a01b03811660009081526007602052604081205415801590620005955750620007f360098363ffffffff6200159916565b1592915050565b6000546001600160a01b03163314620008275760405162461bcd60e51b8152600401620005eb90620022d4565b81620008475760405162461bcd60e51b8152600401620005eb90620023d0565b6001600160a01b038116620008705760405162461bcd60e51b8152600401620005eb906200231c565b6000828152600160205260409020546001600160a01b031615620008a85760405162461bcd60e51b8152600401620005eb9062002364565b6001600160a01b03811660009081526002602052604090205415620008e15760405162461bcd60e51b8152600401620005eb906200242a565b600082815260016020908152604080832080546001600160a01b0319166001600160a01b03861690811790915583526002909152902082905562000927600382620015d4565b7f7051aac27f9b76ec8f37bd5796f2dcf402bd840a1c45c952a6eeb0e11bde099682826040516200095a929190620024ee565b60405180910390a15050565b6000546001600160a01b03163314620009935760405162461bcd60e51b8152600401620005eb90620022d4565b6001600160a01b038116620009bc5760405162461bcd60e51b8152600401620005eb9062002340565b600f80546001600160a01b0319166001600160a01b0392909216919091179055565b601254601054601154030190565b60009081526008602052604090205460ff1690565b6000908152600160205260409020546001600160a01b031690565b6000805b8281101562000a7657600e600085858481811062000a3a57fe5b602090810292909201358352508101919091526040016000205460ff1615156001141562000a6d57600191505062000595565b60010162000a20565b5060009392505050565b3360009081526007602052604081205462000aaf5760405162461bcd60e51b8152600401620005eb90620023e2565b62000ac260093363ffffffff6200159916565b1562000ae25760405162461bcd60e51b8152600401620005eb906200244e565b600062000af0888862001564565b905062000afd81620015b7565b62000b1c5760405162461bcd60e51b8152600401620005eb90620023ac565b6000818152600d60205260408120546001600160a01b03169062000b528862000b4b368a90038a018a62001856565b886200167a565b6040516390b5561d60e01b81529091506001600160a01b038316906390b5561d9062000b83908490600401620024de565b600060405180830381600087803b15801562000b9e57600080fd5b505af115801562000bb3573d6000803e3d6000fd5b5050506000828152600c60205260409081902080546001600160a01b0319166001600160a01b0389811691909117909155905190881691507fe15a4f223f922b625f5fdd941101a23fa0c097e522233d47a7cbea2167e927019062000c1a908490620024de565b60405180910390a29998505050505050505050565b6001600160a01b031660009081526007602052604090205490565b6103e881565b60125481565b600e6020526000908152604090205460ff1681565b6000908152600660205260409020546001600160a01b031690565b600f546001600160a01b0316331462000cb35760405162461bcd60e51b8152600401620005eb9062002496565b6011805460408051808201825284815242602080830191825260008581526013909152839020915182555160019182015560105484540190935560129290925590517f5a978f4723b249ccf79cd7a658a8601ce1ff8b89fc770251a6be35216351ce32906200095a908390620024de565b3360009081526002602052604081205462000d535760405162461bcd60e51b8152600401620005eb90620023be565b62000d6660033363ffffffff6200159916565b1562000d865760405162461bcd60e51b8152600401620005eb906200239a565b6010546012541062000dac5760405162461bcd60e51b8152600401620005eb9062002484565b600062000db8620009de565b60408051808201825294855242602080870191825260008481526013909152919091209451855551600194850155601280549094019093555090919050565b600f546001600160a01b031681565b600c602052600090815260409020546001600160a01b031681565b60008062000e30848462001564565b90506200059181620015b7565b3360009081526007602052604090205462000e6c5760405162461bcd60e51b8152600401620005eb90620023e2565b62000e7f60093363ffffffff6200159916565b1562000e9f5760405162461bcd60e51b8152600401620005eb906200244e565b8062000ebf5760405162461bcd60e51b8152600401620005eb9062002388565b6000908152600e60205260409020805460ff19166001179055565b60145481565b600062000eee858562001564565b905062000efb81620015b7565b62000f1a5760405162461bcd60e51b8152600401620005eb906200243c565b6000818152600d6020908152604080832054815163bda1504b60e01b815291516001600160a01b039091169392849263bda1504b9260048083019392829003018186803b15801562000f6b57600080fd5b505afa15801562000f80573d6000803e3d6000fd5b505050506040513d601f19601f8201168201806040525062000fa6919081019062001877565b1162000fc65760405162461bcd60e51b8152600401620005eb9062002460565b6000816001600160a01b031663d6362e976040518163ffffffff1660e01b815260040160206040518083038186803b1580156200100257600080fd5b505afa15801562001017573d6000803e3d6000fd5b505050506040513d601f19601f820116820180604052506200103d919081019062001877565b905060006200104c82620016a5565b90506001600160a01b0386161580620010765750856001600160a01b0316816001600160a01b0316145b620010955760405162461bcd60e51b8152600401620005eb9062002352565b6000828152600c60205260408120546001600160a01b0316905b8681108015620010d2575042620010c685620016a8565b67ffffffffffffffff16105b1562001304576000848152600c6020908152604080832080546001600160a01b03191690558051632c1d5dab60e21b815290516001600160a01b0389169363b07576ac93600480850194919392918390030190829087803b1580156200113757600080fd5b505af11580156200114c573d6000803e3d6000fd5b505050506040513d601f19601f8201168201806040525062001172919081019062001877565b50604051636849635160e01b81526001909101906001600160a01b03831690636849635190620011ab9086908e908e90600401620024a8565b600060405180830381600087803b158015620011c657600080fd5b505af1158015620011db573d6000803e3d6000fd5b50505050846001600160a01b031663bda1504b6040518163ffffffff1660e01b815260040160206040518083038186803b1580156200121957600080fd5b505afa1580156200122e573d6000803e3d6000fd5b505050506040513d601f19601f8201168201806040525062001254919081019062001877565b6200125f5762001304565b846001600160a01b031663d6362e976040518163ffffffff1660e01b815260040160206040518083038186803b1580156200129957600080fd5b505afa158015620012ae573d6000803e3d6000fd5b505050506040513d601f19601f82011682018060405250620012d4919081019062001877565b9350620012e184620016a5565b6000858152600c60205260409020549093506001600160a01b03169150620010af565b7f7e35599fe450e626673ce6c37179ef9820aed16f76c1b350618ef7a612d13005818b8b60405162001339939291906200253b565b60405180910390a150505050505050505050565b6001600160a01b031660009081526002602052604090205490565b6013602052600090815260409020805460019091015482565b6000546001600160a01b03163314620013ae5760405162461bcd60e51b8152600401620005eb90620022d4565b82620013ce5760405162461bcd60e51b8152600401620005eb9062002472565b6001600160a01b038216620013f75760405162461bcd60e51b8152600401620005eb90620022c2565b6000838152600660205260409020546001600160a01b0316156200142f5760405162461bcd60e51b8152600401620005eb90620023f4565b6001600160a01b03821660009081526007602052604090205415620014685760405162461bcd60e51b8152600401620005eb906200230a565b6200147381620016ae565b620014925760405162461bcd60e51b8152600401620005eb906200232e565b600083815260066020908152604080832080546001600160a01b0319166001600160a01b03871690811790915583526007825280832086905585835260089091529020805460ff191660ff8316179055620014ef600983620015d4565b7f0ceb02f7474c01f5959171cead2f5fb2a44d9c16fe480725a2110b601b19db828383836040516200079b939291906200250d565b600f546001600160a01b031615620015505760405162461bcd60e51b8152600401620005eb9062002418565b600f80546001600160a01b03191633179055565b600082826040516020016200157b92919062002249565b60405160208183030381529060405280519060200120905092915050565b6001600160a01b031660009081526020919091526040902054421090565b6000908152600d60205260409020546001600160a01b0316151590565b6001600160a01b038116620015fd5760405162461bcd60e51b8152600401620005eb90620022e6565b6001600160a01b03811660009081526020839052604090205415620016365760405162461bcd60e51b8152600401620005eb9062002376565b6002820154620016695760018201546001600160a01b038216600090815260208490526040902042909101905562001676565b6002820180546000190190555b5050565b81516001600160d61b031960d685901b1660a09190911b176001600160a01b038216175b9392505050565b90565b60d61c90565b600060ff8216600114806200059557505060ff1660021490565b610b4e806200263083390190565b80356200059581620025de565b60008083601f840112620016f657600080fd5b50813567ffffffffffffffff8111156200170f57600080fd5b6020830191508360208202830111156200172857600080fd5b9250929050565b80356200059581620025f8565b8035620005958162002603565b6000602082840312156200175c57600080fd5b50919050565b6000602082840312156200177557600080fd5b6200178160206200255b565b905060006200179184846200172f565b82525092915050565b803562000595816200260e565b80516200059581620025f8565b8035620005958162002619565b8035620005958162002624565b600060208284031215620017e157600080fd5b6000620005918484620016d6565b600080602083850312156200180357600080fd5b823567ffffffffffffffff8111156200181b57600080fd5b6200182985828601620016e3565b92509250509250929050565b6000602082840312156200184857600080fd5b60006200059184846200172f565b6000602082840312156200186957600080fd5b600062000591848462001762565b6000602082840312156200188a57600080fd5b6000620005918484620017a7565b60008060408385031215620018ac57600080fd5b6000620018ba85856200172f565b9250506020620018cd85828601620016d6565b9150509250929050565b60008060008060808587031215620018ee57600080fd5b6000620018fc87876200172f565b94505060206200190f87828801620016d6565b935050604062001922878288016200179a565b925050606062001935878288016200172f565b91505092959194509250565b60008060008060008060c087890312156200195b57600080fd5b60006200196989896200172f565b96505060206200197c89828a01620016d6565b95505060406200198f89828a01620017b4565b9450506060620019a289828a0162001749565b9350506080620019b589828a016200179a565b92505060a0620019c889828a016200173c565b9150509295509295509295565b600080600060608486031215620019eb57600080fd5b6000620019f986866200172f565b935050602062001a0c86828701620016d6565b925050604062001a1f86828701620017c1565b9150509250925092565b62001a34816200258c565b82525050565b62001a3462001a49826200258c565b620025ca565b62001a348162002599565b62001a3481620016a5565b62001a34816200259e565b600062001a7f60338362002583565b7f73686f756c64206e6f74207265676973746572207769746820616e20656d70748152727920657869742067616d65206164647265737360681b602082015260400192915050565b600062001ad6601c8362002583565b7f4e6f74206265696e672063616c6c6564206279206f70657261746f7200000000815260200192915050565b600062001b1160238362002583565b7f43616e206e6f742071756172616e74696e6520616e20656d707479206164647281526265737360e81b602082015260400192915050565b600062001b5860118362002583565b70457869742071756575652065786973747360781b815260200192915050565b600062001b87602c8362002583565b7f54686520657869742067616d6520636f6e747261637420697320616c7265616481526b1e481c9959da5cdd195c995960a21b602082015260400192915050565b600062001bd7602a8362002583565b7f73686f756c64206e6f7420726567697374657220616e20656d707479207661758152696c74206164647265737360b01b602082015260400192915050565b600062001c2560168362002583565b75496e76616c69642070726f746f636f6c2076616c756560501b815260200192915050565b600062001c5960218362002583565b7f417574686f726974792063616e6e6f74206265207a65726f2d616464726573738152601760f91b602082015260400192915050565b600062001c9e603d8362002583565b7f546f702065786974206964206f6620746865207175657565206973206e6f742081527f7468652073616d652061732074686520737065636966696564206f6e65000000602082015260400192915050565b600062001cff60228362002583565b7f546865207661756c7420696420697320616c7265616479207265676973746572815261195960f21b602082015260400192915050565b600062001d4560238362002583565b7f54686520636f6e747261637420697320616c72656164792071756172616e74698152621b995960ea1b602082015260400192915050565b600062001d8c60238362002583565b7f53686f756c64206e6f7420666c6167207769746820656d707479206f757470758152621d125960ea1b602082015260400192915050565b600062001dd360158362002583565b742b30bab63a1034b99038bab0b930b73a34b732b21760591b815260200192915050565b600062001e0660568362002583565b7f54686520717565756520666f722074686520287661756c7449642c20746f6b6581527f6e29207061697220686173206e6f74206265656e20616464656420746f20746860208201527519481c1b185cdb5848199c985b595ddbdc9ac81e595d60521b604082015260600192915050565b600062001e8660258362002583565b7f4e6f74206265696e672063616c6c65642062792072656769737465726564207681526461756c747360d81b602082015260400192915050565b600062001ecf60238362002583565b7f73686f756c64206e6f742072656769737465722077697468207661756c74206981526206420360ec1b602082015260400192915050565b600062001f1660318362002583565b7f4e6f74206265696e672063616c6c6564206279207265676973746572656420658152701e1a5d0819d85b594818dbdb9d1c9858dd607a1b602082015260400192915050565b600062001f6b60218362002583565b7f546865207478207479706520697320616c7265616479207265676973746572658152601960fa1b602082015260400192915050565b600062001fb060168362002583565b7505661756c74206964206d757374206e6f7420626520360541b815260200192915050565b600062001fe460278362002583565b7f417574686f72697479206164647265737320686173206265656e20616c726561815266323c9039b2ba1760c91b602082015260400192915050565b60006200202f60288362002583565b7f546865207661756c7420636f6e747261637420697320616c726561647920726581526719da5cdd195c995960c21b602082015260400192915050565b60006200207b60398362002583565b7f5375636820746f6b656e20686173206e6f74206265656e20616464656420746f81527f2074686520706c61736d61206672616d65776f726b2079657400000000000000602082015260400192915050565b6000620020dc60188362002583565b7f4578697447616d652069732071756172616e74696e65642e0000000000000000815260200192915050565b60006200211760138362002583565b724578697420717565756520697320656d70747960681b815260200192915050565b60006200214860228362002583565b7f73686f756c64206e6f7420726567697374657220776974682074782074797065815261020360f41b602082015260400192915050565b60006200218e60338362002583565b7f4578636565646564206c696d6974206f66206465706f736974732070657220638152721a1a5b1908189b1bd8dac81a5b9d195c9d985b606a1b602082015260400192915050565b6000620021e560248362002583565b7f43616e2062652063616c6c6564206f6e6c792062792074686520417574686f7281526334ba3c9760e11b602082015260400192915050565b62001a3481620025ab565b62001a346200223882620016a5565b620016a5565b62001a3481620025c4565b600062002257828562002229565b60208201915062002269828462001a3a565b5060140192915050565b6020810162000595828462001a29565b6020810162000595828462001a4f565b60408101620022a3828562001a5a565b6200169e602083018462001a5a565b6020810162000595828462001a65565b60208082528101620005958162001a70565b60208082528101620005958162001ac7565b60208082528101620005958162001b02565b60208082528101620005958162001b49565b60208082528101620005958162001b78565b60208082528101620005958162001bc8565b60208082528101620005958162001c16565b60208082528101620005958162001c4a565b60208082528101620005958162001c8f565b60208082528101620005958162001cf0565b60208082528101620005958162001d36565b60208082528101620005958162001d7d565b60208082528101620005958162001dc4565b60208082528101620005958162001df7565b60208082528101620005958162001e77565b60208082528101620005958162001ec0565b60208082528101620005958162001f07565b60208082528101620005958162001f5c565b60208082528101620005958162001fa1565b60208082528101620005958162001fd5565b60208082528101620005958162002020565b6020808252810162000595816200206c565b602080825281016200059581620020cd565b60208082528101620005958162002108565b60208082528101620005958162002139565b6020808252810162000595816200217f565b602080825281016200059581620021d6565b60608101620024b882866200221e565b620024c7602083018562001a5a565b620024d6604083018462001a29565b949350505050565b6020810162000595828462001a5a565b60408101620024fe828562001a5a565b6200169e602083018462001a29565b606081016200251d828662001a5a565b6200252c602083018562001a29565b620024d660408301846200223e565b60608101620024b8828662001a5a565b602081016200059582846200223e565b60405181810167ffffffffffffffff811182821017156200257b57600080fd5b604052919050565b90815260200190565b60006200059582620025ab565b151590565b600062000595826200258c565b6001600160a01b031690565b67ffffffffffffffff1690565b60ff1690565b600062000595826000620005958260601b90565b620025e9816200258c565b8114620025f557600080fd5b50565b620025e981620016a5565b620025e9816200259e565b620025e981620025ab565b620025e981620025b7565b620025e981620025c456fe608060405234801561001057600080fd5b50600080546001600160a01b03191633178082556040516001600160a01b039190911691907f8be0079c531659141344cd1fd0a4f28419497f9722a3daafe3b4186f6b6457e0908290a36040805160208101909152600081526100769060019081610081565b5060006002556100ee565b8280548282559060005260206000209081019282156100c1579160200282015b828111156100c1578251829060ff169055916020019190600101906100a1565b506100cd9291506100d1565b5090565b6100eb91905b808211156100cd57600081556001016100d7565b90565b610a51806100fd6000396000f3fe608060405234801561001057600080fd5b50600436106100935760003560e01c806390b5561d1161006657806390b5561d1461013a578063b07576ac14610157578063bda1504b14610171578063d6362e9714610179578063f2fde38b1461018157610093565b8063446b2f8814610098578063715018a6146100f05780638da5cb5b146100fa5780638f32d59b1461011e575b600080fd5b6100a06101a7565b60408051602080825283518183015283519192839290830191858101910280838360005b838110156100dc5781810151838201526020016100c4565b505050509050019250505060405180910390f35b6100f8610203565b005b610102610294565b604080516001600160a01b039092168252519081900360200190f35b6101266102a3565b604080519115158252519081900360200190f35b6100f86004803603602081101561015057600080fd5b50356102b4565b61015f610354565b60408051918252519081900360200190f35b61015f61045c565b61015f610462565b6100f86004803603602081101561019757600080fd5b50356001600160a01b0316610485565b606060016000018054806020026020016040519081016040528092919081815260200182805480156101f857602002820191906000526020600020905b8154815260200190600101908083116101e4575b505050505090505b90565b61020b6102a3565b61024a576040805162461bcd60e51b815260206004820181905260248201526000805160206109fd833981519152604482015290519081900360640190fd5b600080546040516001600160a01b03909116907f8be0079c531659141344cd1fd0a4f28419497f9722a3daafe3b4186f6b6457e0908390a3600080546001600160a01b0319169055565b6000546001600160a01b031690565b6000546001600160a01b0316331490565b6102bc6102a3565b6102fb576040805162461bcd60e51b815260206004820181905260248201526000805160206109fd833981519152604482015290519081900360640190fd5b60018054808201825560008290527fb10e2d527612073b26eecdfd717e6a320cf44b4afac2b0732d9fcbe2b7fa0cf6018290556002546103409163ffffffff6104d516565b600281905561035190600190610538565b50565b600061035e6102a3565b61039d576040805162461bcd60e51b815260206004820181905260248201526000805160206109fd833981519152604482015290519081900360640190fd5b600060016000016001815481106103b057fe5b9060005260206000200154905060016000016001800154815481106103d157fe5b906000526020600020015460016000016001815481106103ed57fe5b60009182526020909120015560025460018054909190811061040b57fe5b600091825260208220015560025461042a90600163ffffffff61060e16565b60025561043860018061066b565b6001805461044b9163ffffffff61060e16565b61045660018261096e565b50905090565b60025490565b6000600160000160018154811061047557fe5b9060005260206000200154905090565b61048d6102a3565b6104cc576040805162461bcd60e51b815260206004820181905260248201526000805160206109fd833981519152604482015290519081900360640190fd5b61035181610742565b60008282018381101561052f576040805162461bcd60e51b815260206004820152601b60248201527f536166654d6174683a206164646974696f6e206f766572666c6f770000000000604482015290519081900360640190fd5b90505b92915050565b81548190819060009085908390811061054d57fe5b906000526020600020015490505b8461056d84600263ffffffff6107e216565b8154811061057757fe5b90600052602060002001548110156105e3578461059b84600263ffffffff6107e216565b815481106105a557fe5b90600052602060002001548560000184815481106105bf57fe5b6000918252602090912001556105dc83600263ffffffff6107e216565b925061055b565b81831461060757808560000184815481106105fa57fe5b6000918252602090912001555b5050505050565b600082821115610665576040805162461bcd60e51b815260206004820152601e60248201527f536166654d6174683a207375627472616374696f6e206f766572666c6f770000604482015290519081900360640190fd5b50900390565b81548190819060009085908390811061068057fe5b906000526020600020015490506000610699868561084c565b90505b856001015481111580156106c857508560000181815481106106ba57fe5b906000526020600020015482115b15610716578560000181815481106106dc57fe5b90600052602060002001548660000185815481106106f657fe5b60009182526020909120015592508261070f868261084c565b905061069c565b82841461073a578186600001858154811061072d57fe5b6000918252602090912001555b505050505050565b6001600160a01b0381166107875760405162461bcd60e51b81526004018080602001828103825260268152602001806109b66026913960400191505060405180910390fd5b600080546040516001600160a01b03808516939216917f8be0079c531659141344cd1fd0a4f28419497f9722a3daafe3b4186f6b6457e091a3600080546001600160a01b0319166001600160a01b0392909216919091179055565b6000808211610838576040805162461bcd60e51b815260206004820152601a60248201527f536166654d6174683a206469766973696f6e206279207a65726f000000000000604482015290519081900360640190fd5b600082848161084357fe5b04949350505050565b6001808301546000916108769061086a85600263ffffffff61091516565b9063ffffffff6104d516565b11156108945761088d82600263ffffffff61091516565b9050610532565b826108ab600161086a85600263ffffffff61091516565b815481106108b557fe5b600091825260209091200154836108d384600263ffffffff61091516565b815481106108dd57fe5b906000526020600020015410156108ff5761088d82600263ffffffff61091516565b61088d600161086a84600263ffffffff61091516565b60008261092457506000610532565b8282028284828161093157fe5b041461052f5760405162461bcd60e51b81526004018080602001828103825260218152602001806109dc6021913960400191505060405180910390fd5b81548183558181111561099257600083815260209020610992918101908301610997565b505050565b61020091905b808211156109b1576000815560010161099d565b509056fe4f776e61626c653a206e6577206f776e657220697320746865207a65726f2061646472657373536166654d6174683a206d756c7469706c69636174696f6e206f766572666c6f774f776e61626c653a2063616c6c6572206973206e6f7420746865206f776e6572a265627a7a72315820dfd9f200f5c54c1967a5745a32be540959de42e7c2495fad0609b62aa0c04a4564736f6c634300050b0032a365627a7a72315820466b6b73bbf6f006d8459072b6f907b8f7de6feb2488b817cbee3338c0c103b06c6578706572696d656e74616cf564736f6c634300050b0040",
  "source": "pragma solidity 0.5.11;\npragma experimental ABIEncoderV2;\n\nimport \"./BlockController.sol\";\nimport \"./ExitGameController.sol\";\nimport \"./registries/VaultRegistry.sol\";\nimport \"./registries/ExitGameRegistry.sol\";\nimport \"./utils/Operated.sol\";\n\ncontract PlasmaFramework is Operated, VaultRegistry, ExitGameRegistry, ExitGameController, BlockController {\n    uint256 public constant CHILD_BLOCK_INTERVAL = 1000;\n\n    /**\n     * The minimum finalization period. This is the Plasma promise that all exits would be safe if user take action within the period of this time.\n     * When the child chain is rogue, user should start their exit within this period. Also, user should challenge any invalid exit within this period.\n     * An exit can be processed/finalized after 2 mininum finlization period from its inclusion position unless it is a exit for deposit\n     * which would be using 1 period instead of 2.\n     *\n     * For the Abstract Layer Design, we also uses some multitude of this period to make update to our framework.\n     * See ExitGameRegistry.sol, VaultRegistry.sol and Vault.sol for more details on the update waiting time (quarantined period).\n     *\n     * MVP: https://ethresear.ch/t/minimal-viable-plasma/426\n     * MoreVP: https://github.com/omisego/elixir-omg/blob/master/docs/morevp.md#timeline\n     * Special period for deposit: https://git.io/JecCV\n     */\n    uint256 public minExitPeriod;\n\n    constructor(uint256 _minExitPeriod, uint256 _initialImmuneVaults, uint256 _initialImmuneExitGames)\n        public\n        BlockController(CHILD_BLOCK_INTERVAL, _minExitPeriod, _initialImmuneVaults)\n        ExitGameController(_minExitPeriod, _initialImmuneExitGames)\n    {\n        minExitPeriod = _minExitPeriod;\n    }\n}\n",
  "sourcePath": "/Users/nocholas/plasma-contracts/plasma_framework/contracts/src/framework/PlasmaFramework.sol",
  "compiler": {
    "name": "solc",
    "version": "0.5.11+commit.c082d0b4.Emscripten.clang"
  },
  "schemaVersion": "3.0.16",
  "updatedAt": "2019-10-07T12:24:58.228Z",
  "devdoc": {
    "methods": {
      "addExitQueue(uint256,address)": {
        "details": "the queue is created as a new contract instance.",
        "params": {
          "token": "Address of the token.",
          "vaultId": "Id of the vault"
        }
      },
      "batchFlagOutputsSpent(bytes32[])": {
        "params": {
          "_outputIds": "Output ids to be flagged"
        }
      },
      "enqueue(uint256,address,uint64,(uint256),uint160,address)": {
        "details": "emits ExitQueued event. The event can be used to back trace the priority inside the queue.Caller of this function should add \"pragma experimental ABIEncoderV2;\" on top of file",
        "params": {
          "exitId": "Id for the exit processor contract to understand how to process such exit",
          "exitProcessor": "The exit processor contract that would be called during \"processExits\"",
          "exitableAt": "The earliest time that such exit can be processed",
          "token": "Token for the exit",
          "txPos": "Transaction position for the exit priority. For SE it should be the exit tx, for IFE it should be the youngest input tx position.",
          "vaultId": "Vault id of the vault that stores exiting funds"
        },
        "return": "a unique priority number computed for the exit"
      },
      "flagOutputSpent(bytes32)": {
        "params": {
          "_outputId": "The output id to be flagged as spent"
        }
      },
      "hasExitQueue(uint256,address)": {
        "params": {
          "token": "Address of the token.",
          "vaultId": "Id of the vault that handles the token"
        },
        "return": "bool represents whether the queue for a token was created."
      },
      "initAuthority()": {
        "details": "Can be called only once, before any call to `submitBlock`.All block submission then needs to be send from msg.sender address.see discussion in https://github.com/omisego/plasma-contracts/issues/233"
      },
      "isAnyOutputsSpent(bytes32[])": {
        "params": {
          "_outputIds": "Output ids to be checked."
        }
      },
      "isExitGameSafeToUse(address)": {
        "details": "Exposes information about exit games quarantine",
        "params": {
          "_contract": "address of the exit game contract"
        },
        "return": "boolean whether the contract is safe to use and is not under quarantine."
      },
      "processExits(uint256,address,uint160,uint256)": {
        "details": "emits ProcessedExitsNum event.",
        "params": {
          "maxExitsToProcess": "maximal number of exits to process.",
          "token": "token type to process.",
          "topExitId": "unique priority of the first exit that should be processed. Set to zero to skip the check.",
          "vaultId": "vault id of the vault that stores exiting funds."
        },
        "return": "total number of processed exits"
      },
      "registerExitGame(uint256,address,uint8)": {
        "details": "emits ExitGameRegistered event to notify clients",
        "params": {
          "_contract": "address of the exit game contract.",
          "_protocol": "protocol of the transaction, 1 for MVP and 2 for MoreVP.",
          "_txType": "tx type that the exit game want to register to."
        }
      },
      "registerVault(uint256,address)": {
        "details": "emits VaultRegistered event to notify clients",
        "params": {
          "_vaultAddress": "address of the vault contract.",
          "_vaultId": "the id for the vault contract to register."
        }
      },
      "setAuthority(address)": {
        "params": {
          "newAuthority": "address of new authority, cannot be blank."
        }
      },
      "submitBlock(bytes32)": {
        "details": "emit BlockSubmitted eventBlock number jumps 'childBlockInterval' per submission.see discussion in https://github.com/omisego/plasma-contracts/issues/233",
        "params": {
          "_blockRoot": "Merkle root of the plasma block."
        }
      },
      "submitDepositBlock(bytes32)": {
        "details": "Block number adds 1 per submission, could have at most 'childBlockInterval' deposit blocks between two child chain blocks.",
        "params": {
          "_blockRoot": "Merkle root of the plasma block."
        },
        "return": "the deposit block number"
      }
    }
  },
  "userdoc": {
    "methods": {
      "addExitQueue(uint256,address)": {
        "notice": "Adds queue to the plasma framework."
      },
      "batchFlagOutputsSpent(bytes32[])": {
        "notice": "Batch flags outputs that are spent"
      },
      "enqueue(uint256,address,uint64,(uint256),uint160,address)": {
        "notice": "Enqueue exits from exit game contracts. This 'enqueue' function puts the exit into the        priority queue to enforce the priority of exit during 'processExits'."
      },
      "exitGameToTxType(address)": {
        "notice": "public getter for getting tx type with exit game address"
      },
      "exitGames(uint256)": {
        "notice": "public getter for getting exit game address with tx type"
      },
      "flagOutputSpent(bytes32)": {
        "notice": "Flags a single output as spent"
      },
      "hasExitQueue(uint256,address)": {
        "notice": "Checks if queue for particular token was created."
      },
      "initAuthority()": {
        "notice": "Sets the operator's authority address and unlocks block submission."
      },
      "isAnyOutputsSpent(bytes32[])": {
        "notice": "Checks if any of the output with the given outputIds is spent already."
      },
      "isExitGameSafeToUse(address)": {
        "notice": "Checks whether the contract is safe to use and is not under quarantine"
      },
      "processExits(uint256,address,uint160,uint256)": {
        "notice": "Processes any exits that have completed the challenge period. Exits would be processed according to the exit priority."
      },
      "protocols(uint256)": {
        "notice": "public getter for getting protocol with tx type"
      },
      "registerExitGame(uint256,address,uint8)": {
        "notice": "Register an exit game within the PlasmaFramework. The function can only be called by the maintainer."
      },
      "registerVault(uint256,address)": {
        "notice": "Register a vault within the PlasmaFramework. This can only be called by the maintainer."
      },
      "setAuthority(address)": {
        "notice": "Allows the operator to set a new authority address. This allows to implement mechanical re-org protection mechanism, explained in https://github.com/omisego/plasma-contracts/issues/118"
      },
      "submitBlock(bytes32)": {
        "notice": "Allows the authority to submit the Merkle root of a plasma block."
      },
      "submitDepositBlock(bytes32)": {
        "notice": "Submits a block for deposit."
      },
      "vaultToId(address)": {
        "notice": "public getter for getting vault id with vault address"
      },
      "vaults(uint256)": {
        "notice": "public getter for getting vault address with vault id"
      }
    }
  }
}