{
  "contractName": "PlasmaFramework",
  "abi": [
    {
      "constant": true,
      "inputs": [],
      "name": "isChildChainActivated",
      "outputs": [
        {
          "internalType": "bool",
          "name": "",
          "type": "bool"
        }
      ],
      "payable": false,
      "stateMutability": "view",
      "type": "function"
    },
    {
      "constant": true,
      "inputs": [
        {
          "internalType": "uint256",
          "name": "vaultId",
          "type": "uint256"
        },
        {
          "internalType": "address",
          "name": "token",
          "type": "address"
        }
      ],
      "name": "getNextExit",
      "outputs": [
        {
          "internalType": "uint256",
          "name": "",
          "type": "uint256"
        }
      ],
      "payable": false,
      "stateMutability": "view",
      "type": "function"
    },
    {
      "constant": true,
      "inputs": [
        {
          "internalType": "bytes32",
          "name": "",
          "type": "bytes32"
        }
      ],
      "name": "exitsQueues",
      "outputs": [
        {
          "internalType": "contract PriorityQueue",
          "name": "",
          "type": "address"
        }
      ],
      "payable": false,
      "stateMutability": "view",
      "type": "function"
    },
    {
      "constant": true,
      "inputs": [],
      "name": "childBlockInterval",
      "outputs": [
        {
          "internalType": "uint256",
          "name": "",
          "type": "uint256"
        }
      ],
      "payable": false,
      "stateMutability": "view",
      "type": "function"
    },
    {
      "constant": false,
      "inputs": [
        {
          "internalType": "bytes32[]",
          "name": "_outputIds",
          "type": "bytes32[]"
        }
      ],
      "name": "batchFlagOutputsSpent",
      "outputs": [],
      "payable": false,
      "stateMutability": "nonpayable",
      "type": "function"
    },
    {
      "constant": false,
      "inputs": [
        {
          "internalType": "uint256",
          "name": "vaultId",
          "type": "uint256"
        },
        {
          "internalType": "address",
          "name": "token",
          "type": "address"
        }
      ],
      "name": "addExitQueue",
      "outputs": [],
      "payable": false,
      "stateMutability": "nonpayable",
      "type": "function"
    },
    {
      "constant": true,
      "inputs": [],
      "name": "nextChildBlock",
      "outputs": [
        {
          "internalType": "uint256",
          "name": "",
          "type": "uint256"
        }
      ],
      "payable": false,
      "stateMutability": "view",
      "type": "function"
    },
    {
      "constant": false,
      "inputs": [],
      "name": "deactivateNonReentrant",
      "outputs": [],
      "payable": false,
      "stateMutability": "nonpayable",
      "type": "function"
    },
    {
      "constant": true,
      "inputs": [
        {
          "internalType": "address",
          "name": "_contract",
          "type": "address"
        }
      ],
      "name": "isExitGameSafeToUse",
      "outputs": [
        {
          "internalType": "bool",
          "name": "",
          "type": "bool"
        }
      ],
      "payable": false,
      "stateMutability": "view",
      "type": "function"
    },
    {
      "constant": false,
      "inputs": [
        {
          "internalType": "uint256",
          "name": "_vaultId",
          "type": "uint256"
        },
        {
          "internalType": "address",
          "name": "_vaultAddress",
          "type": "address"
        }
      ],
      "name": "registerVault",
      "outputs": [],
      "payable": false,
      "stateMutability": "nonpayable",
      "type": "function"
    },
    {
      "constant": false,
      "inputs": [
        {
          "internalType": "address",
          "name": "newAuthority",
          "type": "address"
        }
      ],
      "name": "setAuthority",
      "outputs": [],
      "payable": false,
      "stateMutability": "nonpayable",
      "type": "function"
    },
    {
      "constant": true,
      "inputs": [],
      "name": "nextDepositBlock",
      "outputs": [
        {
          "internalType": "uint256",
          "name": "",
          "type": "uint256"
        }
      ],
      "payable": false,
      "stateMutability": "view",
      "type": "function"
    },
    {
      "constant": true,
      "inputs": [
        {
          "internalType": "uint256",
          "name": "_txType",
          "type": "uint256"
        }
      ],
      "name": "protocols",
      "outputs": [
        {
          "internalType": "uint8",
          "name": "",
          "type": "uint8"
        }
      ],
      "payable": false,
      "stateMutability": "view",
      "type": "function"
    },
    {
      "constant": true,
      "inputs": [
        {
          "internalType": "uint256",
          "name": "_vaultId",
          "type": "uint256"
        }
      ],
      "name": "vaults",
      "outputs": [
        {
          "internalType": "address",
          "name": "",
          "type": "address"
        }
      ],
      "payable": false,
      "stateMutability": "view",
      "type": "function"
    },
    {
      "constant": true,
      "inputs": [
        {
          "internalType": "bytes32[]",
          "name": "_outputIds",
          "type": "bytes32[]"
        }
      ],
      "name": "isAnyOutputsSpent",
      "outputs": [
        {
          "internalType": "bool",
          "name": "",
          "type": "bool"
        }
      ],
      "payable": false,
      "stateMutability": "view",
      "type": "function"
    },
    {
      "constant": false,
      "inputs": [
        {
          "internalType": "uint256",
          "name": "vaultId",
          "type": "uint256"
        },
        {
          "internalType": "address",
          "name": "token",
          "type": "address"
        },
        {
          "internalType": "uint64",
          "name": "exitableAt",
          "type": "uint64"
        },
        {
          "components": [
            {
              "internalType": "uint256",
              "name": "value",
              "type": "uint256"
            }
          ],
          "internalType": "struct TxPosLib.TxPos",
          "name": "txPos",
          "type": "tuple"
        },
        {
          "internalType": "uint160",
          "name": "exitId",
          "type": "uint160"
        },
        {
          "internalType": "contract IExitProcessor",
          "name": "exitProcessor",
          "type": "address"
        }
      ],
      "name": "enqueue",
      "outputs": [
        {
          "internalType": "uint256",
          "name": "",
          "type": "uint256"
        }
      ],
      "payable": false,
      "stateMutability": "nonpayable",
      "type": "function"
    },
    {
      "constant": false,
      "inputs": [],
      "name": "activateChildChain",
      "outputs": [],
      "payable": false,
      "stateMutability": "nonpayable",
      "type": "function"
    },
    {
      "constant": true,
      "inputs": [
        {
          "internalType": "address",
          "name": "_exitGame",
          "type": "address"
        }
      ],
      "name": "exitGameToTxType",
      "outputs": [
        {
          "internalType": "uint256",
          "name": "",
          "type": "uint256"
        }
      ],
      "payable": false,
      "stateMutability": "view",
      "type": "function"
    },
    {
      "constant": true,
      "inputs": [],
      "name": "CHILD_BLOCK_INTERVAL",
      "outputs": [
        {
          "internalType": "uint256",
          "name": "",
          "type": "uint256"
        }
      ],
      "payable": false,
      "stateMutability": "view",
      "type": "function"
    },
    {
      "constant": true,
      "inputs": [],
      "name": "nextDeposit",
      "outputs": [
        {
          "internalType": "uint256",
          "name": "",
          "type": "uint256"
        }
      ],
      "payable": false,
      "stateMutability": "view",
      "type": "function"
    },
    {
      "constant": true,
      "inputs": [
        {
          "internalType": "bytes32",
          "name": "",
          "type": "bytes32"
        }
      ],
      "name": "isOutputSpent",
      "outputs": [
        {
          "internalType": "bool",
          "name": "",
          "type": "bool"
        }
      ],
      "payable": false,
      "stateMutability": "view",
      "type": "function"
    },
    {
      "constant": true,
      "inputs": [
        {
          "internalType": "uint256",
          "name": "_txType",
          "type": "uint256"
        }
      ],
      "name": "exitGames",
      "outputs": [
        {
          "internalType": "address",
          "name": "",
          "type": "address"
        }
      ],
      "payable": false,
      "stateMutability": "view",
      "type": "function"
    },
    {
      "constant": false,
      "inputs": [
        {
          "internalType": "bytes32",
          "name": "_blockRoot",
          "type": "bytes32"
        }
      ],
      "name": "submitBlock",
      "outputs": [],
      "payable": false,
      "stateMutability": "nonpayable",
      "type": "function"
    },
    {
      "constant": false,
      "inputs": [
        {
          "internalType": "bytes32",
          "name": "_blockRoot",
          "type": "bytes32"
        }
      ],
      "name": "submitDepositBlock",
      "outputs": [
        {
          "internalType": "uint256",
          "name": "",
          "type": "uint256"
        }
      ],
      "payable": false,
      "stateMutability": "nonpayable",
      "type": "function"
    },
    {
      "constant": true,
      "inputs": [],
      "name": "authority",
      "outputs": [
        {
          "internalType": "address",
          "name": "",
          "type": "address"
        }
      ],
      "payable": false,
      "stateMutability": "view",
      "type": "function"
    },
    {
      "constant": true,
      "inputs": [
        {
          "internalType": "uint256",
          "name": "",
          "type": "uint256"
        }
      ],
      "name": "delegations",
      "outputs": [
        {
          "internalType": "contract IExitProcessor",
          "name": "",
          "type": "address"
        }
      ],
      "payable": false,
      "stateMutability": "view",
      "type": "function"
    },
    {
      "constant": true,
      "inputs": [
        {
          "internalType": "uint256",
          "name": "vaultId",
          "type": "uint256"
        },
        {
          "internalType": "address",
          "name": "token",
          "type": "address"
        }
      ],
      "name": "hasExitQueue",
      "outputs": [
        {
          "internalType": "bool",
          "name": "",
          "type": "bool"
        }
      ],
      "payable": false,
      "stateMutability": "view",
      "type": "function"
    },
    {
      "constant": false,
      "inputs": [
        {
          "internalType": "bytes32",
          "name": "_outputId",
          "type": "bytes32"
        }
      ],
      "name": "flagOutputSpent",
      "outputs": [],
      "payable": false,
      "stateMutability": "nonpayable",
      "type": "function"
    },
    {
      "constant": true,
      "inputs": [],
      "name": "minExitPeriod",
      "outputs": [
        {
          "internalType": "uint256",
          "name": "",
          "type": "uint256"
        }
      ],
      "payable": false,
      "stateMutability": "view",
      "type": "function"
    },
    {
      "constant": false,
      "inputs": [
        {
          "internalType": "uint256",
          "name": "vaultId",
          "type": "uint256"
        },
        {
          "internalType": "address",
          "name": "token",
          "type": "address"
        },
        {
          "internalType": "uint160",
          "name": "topExitId",
          "type": "uint160"
        },
        {
          "internalType": "uint256",
          "name": "maxExitsToProcess",
          "type": "uint256"
        }
      ],
      "name": "processExits",
      "outputs": [],
      "payable": false,
      "stateMutability": "nonpayable",
      "type": "function"
    },
    {
      "constant": true,
      "inputs": [
        {
          "internalType": "address",
          "name": "_vaultAddress",
          "type": "address"
        }
      ],
      "name": "vaultToId",
      "outputs": [
        {
          "internalType": "uint256",
          "name": "",
          "type": "uint256"
        }
      ],
      "payable": false,
      "stateMutability": "view",
      "type": "function"
    },
    {
      "constant": true,
      "inputs": [
        {
          "internalType": "uint256",
          "name": "",
          "type": "uint256"
        }
      ],
      "name": "blocks",
      "outputs": [
        {
          "internalType": "bytes32",
          "name": "root",
          "type": "bytes32"
        },
        {
          "internalType": "uint256",
          "name": "timestamp",
          "type": "uint256"
        }
      ],
      "payable": false,
      "stateMutability": "view",
      "type": "function"
    },
    {
      "constant": false,
      "inputs": [
        {
          "internalType": "uint256",
          "name": "_txType",
          "type": "uint256"
        },
        {
          "internalType": "address",
          "name": "_contract",
          "type": "address"
        },
        {
          "internalType": "uint8",
          "name": "_protocol",
          "type": "uint8"
        }
      ],
      "name": "registerExitGame",
      "outputs": [],
      "payable": false,
      "stateMutability": "nonpayable",
      "type": "function"
    },
    {
      "constant": false,
      "inputs": [],
      "name": "activateNonReentrant",
      "outputs": [],
      "payable": false,
      "stateMutability": "nonpayable",
      "type": "function"
    },
    {
      "inputs": [
        {
          "internalType": "uint256",
          "name": "_minExitPeriod",
          "type": "uint256"
        },
        {
          "internalType": "uint256",
          "name": "_initialImmuneVaults",
          "type": "uint256"
        },
        {
          "internalType": "uint256",
          "name": "_initialImmuneExitGames",
          "type": "uint256"
        },
        {
          "internalType": "address",
          "name": "_authority",
          "type": "address"
        },
        {
          "internalType": "address",
          "name": "_maintainer",
          "type": "address"
        }
      ],
      "payable": false,
      "stateMutability": "nonpayable",
      "type": "constructor"
    },
    {
      "anonymous": false,
      "inputs": [
        {
          "indexed": false,
          "internalType": "uint256",
          "name": "blockNumber",
          "type": "uint256"
        }
      ],
      "name": "BlockSubmitted",
      "type": "event"
    },
    {
      "anonymous": false,
      "inputs": [
        {
          "indexed": false,
          "internalType": "address",
          "name": "authority",
          "type": "address"
        }
      ],
      "name": "ChildChainActivated",
      "type": "event"
    },
    {
      "anonymous": false,
      "inputs": [
        {
          "indexed": false,
          "internalType": "uint256",
          "name": "vaultId",
          "type": "uint256"
        },
        {
          "indexed": false,
          "internalType": "address",
          "name": "token",
          "type": "address"
        }
      ],
      "name": "ExitQueueAdded",
      "type": "event"
    },
    {
      "anonymous": false,
      "inputs": [
        {
          "indexed": false,
          "internalType": "uint256",
          "name": "processedNum",
          "type": "uint256"
        },
        {
          "indexed": false,
          "internalType": "uint256",
          "name": "vaultId",
          "type": "uint256"
        },
        {
          "indexed": false,
          "internalType": "address",
          "name": "token",
          "type": "address"
        }
      ],
      "name": "ProcessedExitsNum",
      "type": "event"
    },
    {
      "anonymous": false,
      "inputs": [
        {
          "indexed": true,
          "internalType": "uint160",
          "name": "exitId",
          "type": "uint160"
        },
        {
          "indexed": false,
          "internalType": "uint256",
          "name": "priority",
          "type": "uint256"
        }
      ],
      "name": "ExitQueued",
      "type": "event"
    },
    {
      "anonymous": false,
      "inputs": [
        {
          "indexed": false,
          "internalType": "uint256",
          "name": "txType",
          "type": "uint256"
        },
        {
          "indexed": false,
          "internalType": "address",
          "name": "exitGameAddress",
          "type": "address"
        },
        {
          "indexed": false,
          "internalType": "uint8",
          "name": "protocol",
          "type": "uint8"
        }
      ],
      "name": "ExitGameRegistered",
      "type": "event"
    },
    {
      "anonymous": false,
      "inputs": [
        {
          "indexed": false,
          "internalType": "uint256",
          "name": "vaultId",
          "type": "uint256"
        },
        {
          "indexed": false,
          "internalType": "address",
          "name": "vaultAddress",
          "type": "address"
        }
      ],
      "name": "VaultRegistered",
      "type": "event"
    },
    {
      "constant": true,
      "inputs": [],
      "name": "getMaintainer",
      "outputs": [
        {
          "internalType": "address",
          "name": "",
          "type": "address"
        }
      ],
      "payable": false,
      "stateMutability": "view",
      "type": "function"
    }
  ],
  "bytecode": "0x6080604052600e805460ff191690553480156200001b57600080fd5b5060405162003415380380620034158339810160408190526200003e91620000d4565b6003858155600494909455928402600955600a91909155600e8054610100600160a81b0319166101006001600160a01b03938416021790556103e8600f81905560105560016011556012805460ff19169055601492909255601580546001600160a01b031916929091169190911790556200018e565b8051620000c18162000169565b92915050565b8051620000c18162000183565b600080600080600060a08688031215620000ed57600080fd5b6000620000fb8888620000c7565b95505060206200010e88828901620000c7565b94505060406200012188828901620000c7565b93505060606200013488828901620000b4565b92505060806200014788828901620000b4565b9150509295509295909350565b60006001600160a01b038216620000c1565b90565b620001748162000154565b81146200018057600080fd5b50565b620001748162000166565b613277806200019e6000396000f3fe60806040523480156200001157600080fd5b5060043610620002445760003560e01c8063a11dcc341162000141578063c4336c1c11620000bd578063d9aa4b241162000087578063d9aa4b2414620004c2578063dfb494f014620004d9578063f25b3f9914620004f0578063f2e208e71462000517578063ff27b189146200052e5762000244565b8063c4336c1c1462000473578063c77b1ed6146200048a578063d332954214620004a1578063d4a2b4ef14620004b85762000244565b8063ab84a94b116200010b578063ab84a94b146200040d578063af0797641462000424578063baa47694146200043b578063be5ac6981462000452578063bf7e214f14620004695762000244565b8063a11dcc3414620003d8578063a239e5a214620003e2578063a831fa0714620003f9578063a8cabcd514620004035762000244565b80634e0f743611620001d15780638701fc5d116200019b5780638701fc5d14620003635780638c396220146200036d5780638c64ea4a14620003935780638e7e389014620003aa5780639524a12314620003c15762000244565b80634e0f743614620003145780635a102dae146200031e5780636a51fd6314620003355780637a9e5e4b146200034c5762000244565b806342383d4a116200021357806342383d4a14620002c157806345f2093514620002da5780634b0a72bc14620002f15780634ca8714f146200030a5762000244565b80630e71ee021462000249578063296d5427146200026b5780633701b5ca146200029157806338a9e0bc14620002b7575b600080fd5b6200025362000538565b6040516200026291906200253f565b60405180910390f35b620002826200027c36600462001b33565b62000541565b604051620002629190620027ac565b620002a8620002a236600462001ad0565b620005e6565b6040516200026291906200256e565b6200028262000601565b620002d8620002d236600462001a8a565b62000607565b005b620002d8620002eb36600462001b33565b620006fe565b620002fb620007f3565b6040516200026291906200252f565b6200028262000802565b620002d862000808565b620002536200032f36600462001a69565b62000883565b620002d86200034636600462001b33565b620008c0565b620002d86200035d36600462001a69565b62000a26565b6200028262000aab565b620003846200037e36600462001ad0565b62000ab9565b60405162000262919062002819565b620002fb620003a436600462001ad0565b62000ace565b62000253620003bb36600462001a8a565b62000ae9565b62000282620003d236600462001bdc565b62000b4d565b620002d862000cfc565b62000282620003f336600462001a69565b62000db2565b6200028262000dcd565b6200028262000dd3565b620002536200041e36600462001ad0565b62000dd9565b620002fb6200043536600462001ad0565b62000dee565b620002d86200044c36600462001ad0565b62000e09565b620002826200046336600462001ad0565b62000ed7565b620002fb62000fd4565b620002a86200048436600462001ad0565b62000fe8565b620002536200049b36600462001b33565b62001003565b620002d8620004b236600462001ad0565b6200101f565b62000282620010bc565b620002d8620004d336600462001b72565b620010c2565b62000282620004ea36600462001a69565b6200157b565b620005076200050136600462001ad0565b62001596565b604051620002629291906200254f565b620002d86200052836600462001c70565b620015af565b620002d862001768565b60125460ff1681565b600080620005508484620017ff565b6000818152600c602090815260409182902054825163d6362e9760e01b815292519394506001600160a01b03169263d6362e97926004808201939291829003018186803b158015620005a157600080fd5b505afa158015620005b6573d6000803e3d6000fd5b505050506040513d601f19601f82011682018060405250620005dc919081019062001b12565b9150505b92915050565b600c602052600090815260409020546001600160a01b031681565b600f5481565b336000908152600660205260409020546200063f5760405162461bcd60e51b8152600401620006369062002620565b60405180910390fd5b6200065260083363ffffffff6200183416565b15620006725760405162461bcd60e51b81526004016200063690620025fc565b60005b81811015620006f95760008383838181106200068d57fe5b905060200201351415620006b55760405162461bcd60e51b8152600401620006369062002632565b6001600d6000858585818110620006c857fe5b60209081029290920135835250810191909152604001600020805460ff191691151591909117905560010162000675565b505050565b816200071e5760405162461bcd60e51b8152600401620006369062002764565b60006200072c8383620017ff565b9050620007398162001852565b15620007595760405162461bcd60e51b815260040162000636906200257e565b604051620007679062001963565b604051809103906000f08015801562000784573d6000803e3d6000fd5b506000828152600c60205260409081902080546001600160a01b0319166001600160a01b039390931692909217909155517f0a925273fd754a41a580f8214815d5ae8a37367f561b3bd9d91a96730a418a1790620007e69085908590620027bc565b60405180910390a1505050565b6015546001600160a01b031690565b60105481565b33600090815260066020526040902054620008375760405162461bcd60e51b8152600401620006369062002620565b6200084a60083363ffffffff6200183416565b156200086a5760405162461bcd60e51b81526004016200063690620025fc565b600e5460ff166200087757fe5b600e805460ff19169055565b6001600160a01b03811660009081526006602052604081205415801590620005e05750620008b960088363ffffffff6200183416565b1592915050565b620008ca620007f3565b336001600160a01b03821614620008f55760405162461bcd60e51b815260040162000636906200269e565b82620009155760405162461bcd60e51b8152600401620006369062002668565b6001600160a01b0382166200093e5760405162461bcd60e51b8152600401620006369062002644565b6000838152602081905260409020546001600160a01b031615620009765760405162461bcd60e51b8152600401620006369062002740565b6001600160a01b03821660009081526001602052604090205415620009af5760405162461bcd60e51b815260040162000636906200270a565b60008381526020818152604080832080546001600160a01b0319166001600160a01b038716908117909155835260019091529020839055620009f36002836200186f565b7f7051aac27f9b76ec8f37bd5796f2dcf402bd840a1c45c952a6eeb0e11bde09968383604051620007e6929190620027bc565b600e5461010090046001600160a01b031633811462000a595760405162461bcd60e51b815260040162000636906200269e565b6001600160a01b03821662000a825760405162461bcd60e51b81526004016200063690620025b4565b50600e80546001600160a01b0390921661010002610100600160a81b0319909216919091179055565b601154600f54601054030190565b60009081526007602052604090205460ff1690565b6000908152602081905260409020546001600160a01b031690565b6000805b8281101562000b4357600d600085858481811062000b0757fe5b602090810292909201358352508101919091526040016000205460ff1615156001141562000b3a576001915050620005e0565b60010162000aed565b5060009392505050565b3360009081526006602052604081205462000b7c5760405162461bcd60e51b8152600401620006369062002620565b62000b8f60083363ffffffff6200183416565b1562000baf5760405162461bcd60e51b81526004016200063690620025fc565b600062000bbd8888620017ff565b905062000bca8162001852565b62000be95760405162461bcd60e51b81526004016200063690620025ea565b6000818152600c60205260408120546001600160a01b03169062000c1f8862000c18368a90038a018a62001af1565b8862001915565b6040516390b5561d60e01b81529091506001600160a01b038316906390b5561d9062000c50908490600401620027ac565b600060405180830381600087803b15801562000c6b57600080fd5b505af115801562000c80573d6000803e3d6000fd5b5050506000828152600b60205260409081902080546001600160a01b0319166001600160a01b0389811691909117909155905190881691507fe15a4f223f922b625f5fdd941101a23fa0c097e522233d47a7cbea2167e927019062000ce7908490620027ac565b60405180910390a29998505050505050505050565b600e5461010090046001600160a01b031633811462000d2f5760405162461bcd60e51b815260040162000636906200269e565b60125460ff161562000d555760405162461bcd60e51b81526004016200063690620026b0565b60128054600160ff19909116179055600e546040517fb8421a1acb5f1e701a4f11ecaad76fa438b3947e8dfd6960b6086130e68e0aed9162000da7916101009091046001600160a01b0316906200252f565b60405180910390a150565b6001600160a01b031660009081526006602052604090205490565b6103e881565b60115481565b600d6020526000908152604090205460ff1681565b6000908152600560205260409020546001600160a01b031690565b600e5461010090046001600160a01b031633811462000e3c5760405162461bcd60e51b815260040162000636906200269e565b60125460ff16151560011462000e665760405162461bcd60e51b81526004016200063690620025d8565b60108054604080518082018252858152426020808301918252600085815260139091528390209151825551600191820155600f5484540190935560119290925590517f5a978f4723b249ccf79cd7a658a8601ce1ff8b89fc770251a6be35216351ce3290620007e6908390620027ac565b3360009081526001602052604081205462000f065760405162461bcd60e51b81526004016200063690620026c2565b62000f1960023363ffffffff6200183416565b1562000f395760405162461bcd60e51b8152600401620006369062002752565b60125460ff16151560011462000f635760405162461bcd60e51b81526004016200063690620025d8565b600f546011541062000f895760405162461bcd60e51b815260040162000636906200272e565b600062000f9562000aab565b60408051808201825294855242602080870191825260008481526013909152919091209451855551600194850155601180549094019093555090919050565b600e5461010090046001600160a01b031681565b600b602052600090815260409020546001600160a01b031681565b600080620010128484620017ff565b9050620005dc8162001852565b336000908152600660205260409020546200104e5760405162461bcd60e51b8152600401620006369062002620565b6200106160083363ffffffff6200183416565b15620010815760405162461bcd60e51b81526004016200063690620025fc565b80620010a15760405162461bcd60e51b8152600401620006369062002632565b6000908152600d60205260409020805460ff19166001179055565b60145481565b600e5460ff1615620010e85760405162461bcd60e51b81526004016200063690620026d4565b600e805460ff191660011790556000620011038585620017ff565b9050620011108162001852565b6200112f5760405162461bcd60e51b81526004016200063690620026f8565b6000818152600c6020908152604080832054815163bda1504b60e01b815291516001600160a01b039091169392849263bda1504b9260048083019392829003018186803b1580156200118057600080fd5b505afa15801562001195573d6000803e3d6000fd5b505050506040513d601f19601f82011682018060405250620011bb919081019062001b12565b11620011db5760405162461bcd60e51b815260040162000636906200271c565b6000816001600160a01b031663d6362e976040518163ffffffff1660e01b815260040160206040518083038186803b1580156200121757600080fd5b505afa1580156200122c573d6000803e3d6000fd5b505050506040513d601f19601f8201168201806040525062001252919081019062001b12565b90506000620012618262001940565b90506001600160a01b03861615806200128b5750856001600160a01b0316816001600160a01b0316145b620012aa5760405162461bcd60e51b8152600401620006369062002656565b6000828152600b60205260408120546001600160a01b0316905b8681108015620012e7575042620012db8562001943565b67ffffffffffffffff16105b1562001519576000848152600b6020908152604080832080546001600160a01b03191690558051632c1d5dab60e21b815290516001600160a01b0389169363b07576ac93600480850194919392918390030190829087803b1580156200134c57600080fd5b505af115801562001361573d6000803e3d6000fd5b505050506040513d601f19601f8201168201806040525062001387919081019062001b12565b50604051636849635160e01b81526001909101906001600160a01b03831690636849635190620013c09086908e908e9060040162002776565b600060405180830381600087803b158015620013db57600080fd5b505af1158015620013f0573d6000803e3d6000fd5b50505050846001600160a01b031663bda1504b6040518163ffffffff1660e01b815260040160206040518083038186803b1580156200142e57600080fd5b505afa15801562001443573d6000803e3d6000fd5b505050506040513d601f19601f8201168201806040525062001469919081019062001b12565b620014745762001519565b846001600160a01b031663d6362e976040518163ffffffff1660e01b815260040160206040518083038186803b158015620014ae57600080fd5b505afa158015620014c3573d6000803e3d6000fd5b505050506040513d601f19601f82011682018060405250620014e9919081019062001b12565b9350620014f68462001940565b6000858152600b60205260409020549093506001600160a01b03169150620012c4565b7f7e35599fe450e626673ce6c37179ef9820aed16f76c1b350618ef7a612d13005818b8b6040516200154e9392919062002809565b60405180910390a15050600e5460ff1693506200156b9250505057fe5b5050600e805460ff191690555050565b6001600160a01b031660009081526001602052604090205490565b6013602052600090815260409020805460019091015482565b620015b9620007f3565b336001600160a01b03821614620015e45760405162461bcd60e51b815260040162000636906200269e565b83620016045760405162461bcd60e51b815260040162000636906200267a565b6001600160a01b0383166200162d5760405162461bcd60e51b81526004016200063690620025c6565b6000848152600560205260409020546001600160a01b031615620016655760405162461bcd60e51b81526004016200063690620026e6565b6001600160a01b038316600090815260066020526040902054156200169e5760405162461bcd60e51b8152600401620006369062002590565b620016a98262001949565b620016c85760405162461bcd60e51b81526004016200063690620025a2565b600084815260056020908152604080832080546001600160a01b0319166001600160a01b03881690811790915583526006825280832087905586835260079091529020805460ff191660ff8416179055620017256008846200186f565b7f0ceb02f7474c01f5959171cead2f5fb2a44d9c16fe480725a2110b601b19db828484846040516200175a93929190620027db565b60405180910390a150505050565b33600090815260066020526040902054620017975760405162461bcd60e51b8152600401620006369062002620565b620017aa60083363ffffffff6200183416565b15620017ca5760405162461bcd60e51b81526004016200063690620025fc565b600e5460ff1615620017f05760405162461bcd60e51b81526004016200063690620026d4565b600e805460ff19166001179055565b600082826040516020016200181692919062002505565b60405160208183030381529060405280519060200120905092915050565b6001600160a01b031660009081526020919091526040902054421090565b6000908152600c60205260409020546001600160a01b0316151590565b6001600160a01b038116620018985760405162461bcd60e51b815260040162000636906200268c565b6001600160a01b03811660009081526020839052604090205415620018d15760405162461bcd60e51b815260040162000636906200260e565b6002820154620019045760018201546001600160a01b038216600090815260208490526040902042909101905562001911565b6002820180546000190190555b5050565b81516001600160d61b031960d685901b1660a09190911b176001600160a01b038216175b9392505050565b90565b60d61c90565b600060ff821660011480620005e057505060ff1660021490565b61093780620028fe83390190565b8035620005e081620028ac565b60008083601f8401126200199157600080fd5b50813567ffffffffffffffff811115620019aa57600080fd5b602083019150836020820283011115620019c357600080fd5b9250929050565b8035620005e081620028c6565b8035620005e081620028d1565b600060208284031215620019f757600080fd5b50919050565b60006020828403121562001a1057600080fd5b62001a1c602062002829565b9050600062001a2c8484620019ca565b82525092915050565b8035620005e081620028dc565b8051620005e081620028c6565b8035620005e081620028e7565b8035620005e081620028f2565b60006020828403121562001a7c57600080fd5b6000620005dc848462001971565b6000806020838503121562001a9e57600080fd5b823567ffffffffffffffff81111562001ab657600080fd5b62001ac4858286016200197e565b92509250509250929050565b60006020828403121562001ae357600080fd5b6000620005dc8484620019ca565b60006020828403121562001b0457600080fd5b6000620005dc8484620019fd565b60006020828403121562001b2557600080fd5b6000620005dc848462001a42565b6000806040838503121562001b4757600080fd5b600062001b558585620019ca565b925050602062001b688582860162001971565b9150509250929050565b6000806000806080858703121562001b8957600080fd5b600062001b978787620019ca565b945050602062001baa8782880162001971565b935050604062001bbd8782880162001a35565b925050606062001bd087828801620019ca565b91505092959194509250565b60008060008060008060c0878903121562001bf657600080fd5b600062001c048989620019ca565b965050602062001c1789828a0162001971565b955050604062001c2a89828a0162001a4f565b945050606062001c3d89828a01620019e4565b935050608062001c5089828a0162001a35565b92505060a062001c6389828a01620019d7565b9150509295509295509295565b60008060006060848603121562001c8657600080fd5b600062001c948686620019ca565b935050602062001ca78682870162001971565b925050604062001cba8682870162001a5c565b9150509250925092565b62001ccf816200285a565b82525050565b62001ccf62001ce4826200285a565b62002898565b62001ccf8162002867565b62001ccf8162001940565b62001ccf816200286c565b600062001d1a60118362002851565b70457869742071756575652065786973747360781b815260200192915050565b600062001d49602c8362002851565b7f54686520657869742067616d6520636f6e747261637420697320616c7265616481526b1e481c9959da5cdd195c995960a21b602082015260400192915050565b600062001d9960168362002851565b75496e76616c69642070726f746f636f6c2076616c756560501b815260200192915050565b600062001dcd60208362002851565b7f417574686f7269747920616464726573732063616e6e6f74206265207a65726f815260200192915050565b600062001e0860338362002851565b7f53686f756c64206e6f74207265676973746572207769746820616e20656d70748152727920657869742067616d65206164647265737360681b602082015260400192915050565b600062001e5f603b8362002851565b7f4368696c6420636861696e20686173206e6f74206265656e206163746976617481527f656420627920617574686f726974792061646472657373207965740000000000602082015260400192915050565b600062001ec060508362002851565b7f54686520717565756520666f722074686520287661756c7449642c20746f6b6581527f6e292070616972206973206e6f742079657420616464656420746f207468652060208201526f506c61736d61206672616d65776f726b60801b604082015260600192915050565b600062001f3a60178362002851565b7f4578697447616d652069732071756172616e74696e6564000000000000000000815260200192915050565b600062001f7560238362002851565b7f54686520636f6e747261637420697320616c72656164792071756172616e74698152621b995960ea1b602082015260400192915050565b600062001fbc60348362002851565b7f5468652063616c6c206973206e6f742066726f6d2061207265676973746572658152731908195e1a5d0819d85b594818dbdb9d1c9858dd60621b602082015260400192915050565b60006200201460238362002851565b7f53686f756c64206e6f7420666c6167207769746820656d707479206f757470758152621d125960ea1b602082015260400192915050565b60006200205b602a8362002851565b7f53686f756c64206e6f7420726567697374657220616e20656d707479207661758152696c74206164647265737360b01b602082015260400192915050565b6000620020a9603a8362002851565b7f546f702065786974204944206f6620746865207175657565206973206469666681527f6572656e7420746f20746865206f6e6520737065636966696564000000000000602082015260400192915050565b60006200210a60238362002851565b7f53686f756c64206e6f742072656769737465722077697468207661756c74204981526204420360ec1b602082015260400192915050565b60006200215160228362002851565b7f53686f756c64206e6f7420726567697374657220776974682074782074797065815261020360f41b602082015260400192915050565b60006200219760268362002851565b7f416e20656d70747920616464726573732063616e6e6f742062652071756172618152651b9d1a5b995960d21b602082015260400192915050565b6000620021e1601e8362002851565b7f43616c6c6572206164647265737320697320756e617574686f72697a65640000815260200192915050565b60006200221c601d8362002851565b7f4368696c6420636861696e20616c726561647920616374697661746564000000815260200192915050565b60006200225760278362002851565b7f5468652063616c6c206973206e6f742066726f6d20612072656769737465726581526619081d985d5b1d60ca1b602082015260400192915050565b6000620022a2600e8362002851565b6d1499595b9d1c985b9d0818d85b1b60921b815260200192915050565b6000620022ce60218362002851565b7f546865207478207479706520697320616c7265616479207265676973746572658152601960fa1b602082015260400192915050565b60006200231360328362002851565b7f54686520746f6b656e206973206e6f742079657420616464656420746f2074688152716520506c61736d61206672616d65776f726b60701b602082015260400192915050565b60006200236960288362002851565b7f546865207661756c7420636f6e747261637420697320616c726561647920726581526719da5cdd195c995960c21b602082015260400192915050565b6000620023b560138362002851565b724578697420717565756520697320656d70747960681b815260200192915050565b6000620023e660338362002851565b7f4578636565646564206c696d6974206f66206465706f736974732070657220638152721a1a5b1908189b1bd8dac81a5b9d195c9d985b606a1b602082015260400192915050565b60006200243d60228362002851565b7f546865207661756c7420494420697320616c7265616479207265676973746572815261195960f21b602082015260400192915050565b60006200248360148362002851565b7315985d5b1d081a5cc81c5d585c985b9d1a5b995960621b815260200192915050565b6000620024b560168362002851565b7505661756c74204944206d757374206e6f7420626520360541b815260200192915050565b62001ccf8162002879565b62001ccf620024f48262001940565b62001940565b62001ccf8162002892565b6000620025138285620024e5565b60208201915062002525828462001cd5565b5060140192915050565b60208101620005e0828462001cc4565b60208101620005e0828462001cea565b604081016200255f828562001cf5565b62001939602083018462001cf5565b60208101620005e0828462001d00565b60208082528101620005e08162001d0b565b60208082528101620005e08162001d3a565b60208082528101620005e08162001d8a565b60208082528101620005e08162001dbe565b60208082528101620005e08162001df9565b60208082528101620005e08162001e50565b60208082528101620005e08162001eb1565b60208082528101620005e08162001f2b565b60208082528101620005e08162001f66565b60208082528101620005e08162001fad565b60208082528101620005e08162002005565b60208082528101620005e0816200204c565b60208082528101620005e0816200209a565b60208082528101620005e081620020fb565b60208082528101620005e08162002142565b60208082528101620005e08162002188565b60208082528101620005e081620021d2565b60208082528101620005e0816200220d565b60208082528101620005e08162002248565b60208082528101620005e08162002293565b60208082528101620005e081620022bf565b60208082528101620005e08162002304565b60208082528101620005e0816200235a565b60208082528101620005e081620023a6565b60208082528101620005e081620023d7565b60208082528101620005e0816200242e565b60208082528101620005e08162002474565b60208082528101620005e081620024a6565b60608101620027868286620024da565b62002795602083018562001cf5565b620027a4604083018462001cc4565b949350505050565b60208101620005e0828462001cf5565b60408101620027cc828562001cf5565b62001939602083018462001cc4565b60608101620027eb828662001cf5565b620027fa602083018562001cc4565b620027a46040830184620024fa565b6060810162002786828662001cf5565b60208101620005e08284620024fa565b60405181810167ffffffffffffffff811182821017156200284957600080fd5b604052919050565b90815260200190565b6000620005e08262002879565b151590565b6000620005e0826200285a565b6001600160a01b031690565b67ffffffffffffffff1690565b60ff1690565b6000620005e0826000620005e08260601b90565b620028b7816200285a565b8114620028c357600080fd5b50565b620028b78162001940565b620028b7816200286c565b620028b78162002879565b620028b78162002885565b620028b7816200289256fe608060405234801561001057600080fd5b506040805160208101909152600080825261002c916001610049565b506000600155600280546001600160a01b031916331790556100b6565b828054828255906000526020600020908101928215610089579160200282015b82811115610089578251829060ff16905591602001919060010190610069565b50610095929150610099565b5090565b6100b391905b80821115610095576000815560010161009f565b90565b610872806100c56000396000f3fe608060405234801561001057600080fd5b50600436106100575760003560e01c8063446b2f881461005c57806390b5561d146100b4578063b07576ac146100d3578063bda1504b146100ed578063d6362e97146100f5575b600080fd5b6100646100fd565b60408051602080825283518183015283519192839290830191858101910280838360005b838110156100a0578181015183820152602001610088565b505050509050019250505060405180910390f35b6100d1600480360360208110156100ca57600080fd5b5035610158565b005b6100db610211565b60408051918252519081900360200190f35b6100db610373565b6100db610379565b60606000800180548060200260200160405190810160405280929190818152602001828054801561014d57602002820191906000526020600020905b815481526020019060010190808311610139575b505050505090505b90565b6002546001600160a01b03163381146101b8576040805162461bcd60e51b815260206004820152601e60248201527f43616c6c6572206164647265737320697320756e617574686f72697a65640000604482015290519081900360640190fd5b60008054600181810183559180527f290decd9548b62a8d60345a988386fc84ba6bc95484008f6362f93160ef3e5630183905580546101fc9163ffffffff6103e016565b600181905561020d90600090610443565b5050565b6002546000906001600160a01b0316338114610274576040805162461bcd60e51b815260206004820152601e60248201527f43616c6c6572206164647265737320697320756e617574686f72697a65640000604482015290519081900360640190fd5b6001546102b9576040805162461bcd60e51b815260206004820152600e60248201526d517565756520697320656d70747960901b604482015290519081900360640190fd5b6000806000016001815481106102cb57fe5b600091825260208220015460015482549193509081106102e757fe5b90600052602060002001546000800160018154811061030257fe5b60009182526020822001919091556001548154811061031d57fe5b60009182526020822001556001805461033b9163ffffffff61051916565b600190815561034c90600090610576565b60005461036090600163ffffffff61051916565b61036b6000826107d9565b5091505b5090565b60015490565b6001546000906103c1576040805162461bcd60e51b815260206004820152600e60248201526d517565756520697320656d70747960901b604482015290519081900360640190fd5b6000805460019081106103d057fe5b9060005260206000200154905090565b60008282018381101561043a576040805162461bcd60e51b815260206004820152601b60248201527f536166654d6174683a206164646974696f6e206f766572666c6f770000000000604482015290519081900360640190fd5b90505b92915050565b81548190819060009085908390811061045857fe5b906000526020600020015490505b8461047884600263ffffffff61064d16565b8154811061048257fe5b90600052602060002001548110156104ee57846104a684600263ffffffff61064d16565b815481106104b057fe5b90600052602060002001548560000184815481106104ca57fe5b6000918252602090912001556104e783600263ffffffff61064d16565b9250610466565b818314610512578085600001848154811061050557fe5b6000918252602090912001555b5050505050565b600082821115610570576040805162461bcd60e51b815260206004820152601e60248201527f536166654d6174683a207375627472616374696f6e206f766572666c6f770000604482015290519081900360640190fd5b50900390565b81548190819060009085908390811061058b57fe5b9060005260206000200154905060006105a486856106b7565b90505b856001015481111580156105d357508560000181815481106105c557fe5b906000526020600020015482115b15610621578560000181815481106105e757fe5b906000526020600020015486600001858154811061060157fe5b60009182526020909120015592508261061a86826106b7565b90506105a7565b828414610645578186600001858154811061063857fe5b6000918252602090912001555b505050505050565b60008082116106a3576040805162461bcd60e51b815260206004820152601a60248201527f536166654d6174683a206469766973696f6e206279207a65726f000000000000604482015290519081900360640190fd5b60008284816106ae57fe5b04949350505050565b6001808301546000916106e1906106d585600263ffffffff61078016565b9063ffffffff6103e016565b11156106ff576106f882600263ffffffff61078016565b905061043d565b8261071660016106d585600263ffffffff61078016565b8154811061072057fe5b6000918252602090912001548361073e84600263ffffffff61078016565b8154811061074857fe5b9060005260206000200154101561076a576106f882600263ffffffff61078016565b6106f860016106d584600263ffffffff61078016565b60008261078f5750600061043d565b8282028284828161079c57fe5b041461043a5760405162461bcd60e51b815260040180806020018281038252602181526020018061081d6021913960400191505060405180910390fd5b8154818355818111156107fd576000838152602090206107fd918101908301610802565b505050565b61015591905b8082111561036f576000815560010161080856fe536166654d6174683a206d756c7469706c69636174696f6e206f766572666c6f77a265627a7a72315820e5208011ac345ec418d70328e8eaefd753e6be0835baec182ed0a66c5270314864736f6c634300050b0032a365627a7a723158206a31a26ae64c1d454e2e798608991a87ce3ed52a67db944085be7b35e82390ff6c6578706572696d656e74616cf564736f6c634300050b0040",
  "source": "pragma solidity 0.5.11;\npragma experimental ABIEncoderV2;\n\nimport \"./BlockController.sol\";\nimport \"./ExitGameController.sol\";\nimport \"./registries/VaultRegistry.sol\";\nimport \"./registries/ExitGameRegistry.sol\";\n\ncontract PlasmaFramework is VaultRegistry, ExitGameRegistry, ExitGameController, BlockController {\n    uint256 public constant CHILD_BLOCK_INTERVAL = 1000;\n\n    /**\n     * The minimum finalization period is the Plasma guarantee that all exits are safe provided the user takes action within the specified time period\n     * When the child chain is rogue, user should start their exit and challenge any invalid exit within this period\n     * An exit can be processed/finalized after minimum two finalization periods from its inclusion position, unless it is an exit for a deposit,\n     * which would use one finalization period, instead of two\n     *\n     * For the Abstract Layer Design, OmiseGO also uses some multitude of this period to update its framework\n     * See also ExitGameRegistry.sol, VaultRegistry.sol, and Vault.sol for more information on the update waiting time (the quarantined period)\n     *\n     * MVP: https://ethresear.ch/t/minimal-viable-plasma/426\n     * MoreVP: https://github.com/omisego/elixir-omg/blob/master/docs/morevp.md#timeline\n     * Special period for deposit: https://git.io/JecCV\n     */\n    uint256 public minExitPeriod;\n    address private maintainer;\n\n    constructor(\n        uint256 _minExitPeriod,\n        uint256 _initialImmuneVaults,\n        uint256 _initialImmuneExitGames,\n        address _authority,\n        address _maintainer\n    )\n        public\n        BlockController(CHILD_BLOCK_INTERVAL, _minExitPeriod, _initialImmuneVaults, _authority)\n        ExitGameController(_minExitPeriod, _initialImmuneExitGames)\n    {\n        minExitPeriod = _minExitPeriod;\n        maintainer = _maintainer;\n    }\n\n    function getMaintainer() public view returns (address) {\n        return maintainer;\n    }\n}\n",
  "sourcePath": "/Users/jarindr/plasma-contracts/plasma_framework/contracts/src/framework/PlasmaFramework.sol",
  "compiler": {
    "name": "solc",
    "version": "0.5.11+commit.c082d0b4.Emscripten.clang"
  },
  "schemaVersion": "3.0.16",
  "updatedAt": "2019-11-08T19:17:12.722Z",
  "devdoc": {
    "methods": {
      "activateChildChain()": {
        "details": "This is a preserved action for authority account to start its nonce with 1.     Child chain rely ethereum nonce to protect re-org: https://git.io/JecDG     see discussion: https://git.io/JenaT, https://git.io/JecDO"
      },
      "activateNonReentrant()": {
        "details": "Accessible only from non quarantined exit games, uses a mutex"
      },
      "addExitQueue(uint256,address)": {
        "details": "The queue is created as a new contract instance",
        "params": {
          "token": "Address of the token",
          "vaultId": "ID of the vault"
        }
      },
      "batchFlagOutputsSpent(bytes32[])": {
        "params": {
          "_outputIds": "Output IDs to flag"
        }
      },
      "deactivateNonReentrant()": {
        "details": "Accessible only from non quarantined exit games, uses a mutex"
      },
      "enqueue(uint256,address,uint64,(uint256),uint160,address)": {
        "details": "emits ExitQueued event, which can be used to back trace the priority inside the queueCaller of this function should add \"pragma experimental ABIEncoderV2;\" on top of file",
        "params": {
          "exitId": "ID used by the exit processor contract to determine how to process the exit",
          "exitProcessor": "The exit processor contract, called during \"processExits\"",
          "exitableAt": "The earliest time a specified exit can be processed",
          "token": "Token for the exit",
          "txPos": "Transaction position for the exit priority. For SE it should be the exit tx, for IFE it should be the youngest input tx position.",
          "vaultId": "Vault ID of the vault that stores exiting funds"
        },
        "return": "A unique priority number computed for the exit"
      },
      "flagOutputSpent(bytes32)": {
        "params": {
          "_outputId": "The output ID to flag as spent"
        }
      },
      "hasExitQueue(uint256,address)": {
        "params": {
          "token": "Address of the token",
          "vaultId": "ID of the vault that handles the token"
        },
        "return": "bool Defines whether the queue for a token was created"
      },
      "isAnyOutputsSpent(bytes32[])": {
        "params": {
          "_outputIds": "Output IDs to check"
        }
      },
      "isExitGameSafeToUse(address)": {
        "details": "Exposes information about exit games quarantine",
        "params": {
          "_contract": "Address of the exit game contract"
        },
        "return": "boolean Whether the contract is safe to use and is not under quarantine"
      },
      "processExits(uint256,address,uint160,uint256)": {
        "details": "Emits ProcessedExitsNum event",
        "params": {
          "maxExitsToProcess": "Maximum number of exits to process",
          "token": "The token type to process",
          "topExitId": "Unique identifier for prioritizing the first exit to process. Set to zero to skip this check.",
          "vaultId": "Vault ID of the vault that stores exiting funds"
        },
        "return": "Total number of processed exits"
      },
      "registerExitGame(uint256,address,uint8)": {
        "details": "Emits ExitGameRegistered event to notify clients",
        "params": {
          "_contract": "Address of the exit game contract",
          "_protocol": "The transaction protocol, either 1 for MVP or 2 for MoreVP",
          "_txType": "The tx type where the exit game wants to register"
        }
      },
      "registerVault(uint256,address)": {
        "details": "emits VaultRegistered event to notify clients",
        "params": {
          "_vaultAddress": "Address of the vault contract",
          "_vaultId": "The ID for the vault contract to register"
        }
      },
      "setAuthority(address)": {
        "params": {
          "newAuthority": "Address of new authority, which cannot be blank"
        }
      },
      "submitBlock(bytes32)": {
        "details": "emit BlockSubmitted eventBlock number jumps 'childBlockInterval' per submissionSee discussion in https://github.com/omisego/plasma-contracts/issues/233",
        "params": {
          "_blockRoot": "Merkle root of the Plasma block"
        }
      },
      "submitDepositBlock(bytes32)": {
        "details": "Block number adds 1 per submission; it's possible to have at most 'childBlockInterval' deposit blocks between two child chain blocks",
        "params": {
          "_blockRoot": "Merkle root of the Plasma block"
        },
        "return": "The deposit block number"
      }
    }
  },
  "userdoc": {
    "methods": {
      "activateChildChain()": {
        "notice": "Activates the child chain so that child chain can start to submit child blocks to root chainCan only be called once by the authority.Sets isChildChainActivated to true and emits the ChildChainActivated event."
      },
      "activateNonReentrant()": {
        "notice": "Activates non reentrancy mode        Guards against reentering into publicly accessible code that modifies state related to exits"
      },
      "addExitQueue(uint256,address)": {
        "notice": "Adds queue to the Plasma framework"
      },
      "batchFlagOutputsSpent(bytes32[])": {
        "notice": "Batch flags already spent outputs"
      },
      "deactivateNonReentrant()": {
        "notice": "Deactivates non reentrancy mode"
      },
      "enqueue(uint256,address,uint64,(uint256),uint160,address)": {
        "notice": "Enqueue exits from exit game contracts is a function that places the exit into the        priority queue to enforce the priority of exit during 'processExits'"
      },
      "exitGameToTxType(address)": {
        "notice": "Public getter for retrieving tx type with exit game address"
      },
      "exitGames(uint256)": {
        "notice": "Public getter for retrieving exit game address with tx type"
      },
      "flagOutputSpent(bytes32)": {
        "notice": "Flags a single output as spent"
      },
      "hasExitQueue(uint256,address)": {
        "notice": "Checks if the queue for a specified token was created"
      },
      "isAnyOutputsSpent(bytes32[])": {
        "notice": "Checks whether any of the output with the given outputIds is already spent"
      },
      "isExitGameSafeToUse(address)": {
        "notice": "Checks whether the contract is safe to use and is not under quarantine"
      },
      "processExits(uint256,address,uint160,uint256)": {
        "notice": "Processes any exits that have completed the challenge period. Exits are processed according to the exit priority."
      },
      "protocols(uint256)": {
        "notice": "Public getter for retrieving protocol with tx type"
      },
      "registerExitGame(uint256,address,uint8)": {
        "notice": "Registers an exit game within the PlasmaFramework. Only the maintainer can call the function."
      },
      "registerVault(uint256,address)": {
        "notice": "Register a vault within the PlasmaFramework. Only a maintainer can make the call."
      },
      "setAuthority(address)": {
        "notice": "Allows the operator to set a new authority address, enabling implementation of mechanical re-org protection mechanism described here: https://github.com/omisego/plasma-contracts/issues/118"
      },
      "submitBlock(bytes32)": {
        "notice": "Allows the authority to submit the Merkle root of a Plasma block"
      },
      "submitDepositBlock(bytes32)": {
        "notice": "Submits a block for deposit"
      },
      "vaultToId(address)": {
        "notice": "Public getter for retrieving vault ID with vault address"
      },
      "vaults(uint256)": {
        "notice": "Public getter for retrieving vault address with vault ID"
      }
    }
  }
}