{
  "contractName": "PlasmaFramework",
  "abi": [
    {
      "constant": true,
      "inputs": [],
      "name": "isChildChainActivated",
      "outputs": [
        {
          "internalType": "bool",
          "name": "",
          "type": "bool"
        }
      ],
      "payable": false,
      "stateMutability": "view",
      "type": "function"
    },
    {
      "constant": true,
      "inputs": [
        {
          "internalType": "uint256",
          "name": "vaultId",
          "type": "uint256"
        },
        {
          "internalType": "address",
          "name": "token",
          "type": "address"
        }
      ],
      "name": "getNextExit",
      "outputs": [
        {
          "internalType": "uint256",
          "name": "",
          "type": "uint256"
        }
      ],
      "payable": false,
      "stateMutability": "view",
      "type": "function"
    },
    {
      "constant": true,
      "inputs": [
        {
          "internalType": "bytes32",
          "name": "",
          "type": "bytes32"
        }
      ],
      "name": "exitsQueues",
      "outputs": [
        {
          "internalType": "contract PriorityQueue",
          "name": "",
          "type": "address"
        }
      ],
      "payable": false,
      "stateMutability": "view",
      "type": "function"
    },
    {
      "constant": true,
      "inputs": [],
      "name": "childBlockInterval",
      "outputs": [
        {
          "internalType": "uint256",
          "name": "",
          "type": "uint256"
        }
      ],
      "payable": false,
      "stateMutability": "view",
      "type": "function"
    },
    {
      "constant": false,
      "inputs": [
        {
          "internalType": "bytes32[]",
          "name": "_outputIds",
          "type": "bytes32[]"
        }
      ],
      "name": "batchFlagOutputsSpent",
      "outputs": [],
      "payable": false,
      "stateMutability": "nonpayable",
      "type": "function"
    },
    {
      "constant": false,
      "inputs": [
        {
          "internalType": "uint256",
          "name": "vaultId",
          "type": "uint256"
        },
        {
          "internalType": "address",
          "name": "token",
          "type": "address"
        }
      ],
      "name": "addExitQueue",
      "outputs": [],
      "payable": false,
      "stateMutability": "nonpayable",
      "type": "function"
    },
    {
      "constant": true,
      "inputs": [],
      "name": "nextChildBlock",
      "outputs": [
        {
          "internalType": "uint256",
          "name": "",
          "type": "uint256"
        }
      ],
      "payable": false,
      "stateMutability": "view",
      "type": "function"
    },
    {
      "constant": false,
      "inputs": [],
      "name": "deactivateNonReentrant",
      "outputs": [],
      "payable": false,
      "stateMutability": "nonpayable",
      "type": "function"
    },
    {
      "constant": true,
      "inputs": [
        {
          "internalType": "address",
          "name": "_contract",
          "type": "address"
        }
      ],
      "name": "isExitGameSafeToUse",
      "outputs": [
        {
          "internalType": "bool",
          "name": "",
          "type": "bool"
        }
      ],
      "payable": false,
      "stateMutability": "view",
      "type": "function"
    },
    {
      "constant": false,
      "inputs": [
        {
          "internalType": "uint256",
          "name": "_vaultId",
          "type": "uint256"
        },
        {
          "internalType": "address",
          "name": "_vaultAddress",
          "type": "address"
        }
      ],
      "name": "registerVault",
      "outputs": [],
      "payable": false,
      "stateMutability": "nonpayable",
      "type": "function"
    },
    {
      "constant": true,
      "inputs": [],
      "name": "nextDepositBlock",
      "outputs": [
        {
          "internalType": "uint256",
          "name": "",
          "type": "uint256"
        }
      ],
      "payable": false,
      "stateMutability": "view",
      "type": "function"
    },
    {
      "constant": true,
      "inputs": [
        {
          "internalType": "uint256",
          "name": "_txType",
          "type": "uint256"
        }
      ],
      "name": "protocols",
      "outputs": [
        {
          "internalType": "uint8",
          "name": "",
          "type": "uint8"
        }
      ],
      "payable": false,
      "stateMutability": "view",
      "type": "function"
    },
    {
      "constant": true,
      "inputs": [
        {
          "internalType": "uint256",
          "name": "_vaultId",
          "type": "uint256"
        }
      ],
      "name": "vaults",
      "outputs": [
        {
          "internalType": "address",
          "name": "",
          "type": "address"
        }
      ],
      "payable": false,
      "stateMutability": "view",
      "type": "function"
    },
    {
      "constant": true,
      "inputs": [
        {
          "internalType": "bytes32[]",
          "name": "_outputIds",
          "type": "bytes32[]"
        }
      ],
      "name": "isAnyOutputsSpent",
      "outputs": [
        {
          "internalType": "bool",
          "name": "",
          "type": "bool"
        }
      ],
      "payable": false,
      "stateMutability": "view",
      "type": "function"
    },
    {
      "constant": false,
      "inputs": [
        {
          "internalType": "uint256",
          "name": "vaultId",
          "type": "uint256"
        },
        {
          "internalType": "address",
          "name": "token",
          "type": "address"
        },
        {
          "internalType": "uint64",
          "name": "exitableAt",
          "type": "uint64"
        },
        {
          "components": [
            {
              "internalType": "uint256",
              "name": "value",
              "type": "uint256"
            }
          ],
          "internalType": "struct TxPosLib.TxPos",
          "name": "txPos",
          "type": "tuple"
        },
        {
          "internalType": "uint160",
          "name": "exitId",
          "type": "uint160"
        },
        {
          "internalType": "contract IExitProcessor",
          "name": "exitProcessor",
          "type": "address"
        }
      ],
      "name": "enqueue",
      "outputs": [
        {
          "internalType": "uint256",
          "name": "",
          "type": "uint256"
        }
      ],
      "payable": false,
      "stateMutability": "nonpayable",
      "type": "function"
    },
    {
      "constant": false,
      "inputs": [],
      "name": "activateChildChain",
      "outputs": [],
      "payable": false,
      "stateMutability": "nonpayable",
      "type": "function"
    },
    {
      "constant": true,
      "inputs": [
        {
          "internalType": "address",
          "name": "_exitGame",
          "type": "address"
        }
      ],
      "name": "exitGameToTxType",
      "outputs": [
        {
          "internalType": "uint256",
          "name": "",
          "type": "uint256"
        }
      ],
      "payable": false,
      "stateMutability": "view",
      "type": "function"
    },
    {
      "constant": true,
      "inputs": [],
      "name": "CHILD_BLOCK_INTERVAL",
      "outputs": [
        {
          "internalType": "uint256",
          "name": "",
          "type": "uint256"
        }
      ],
      "payable": false,
      "stateMutability": "view",
      "type": "function"
    },
    {
      "constant": true,
      "inputs": [],
      "name": "nextDeposit",
      "outputs": [
        {
          "internalType": "uint256",
          "name": "",
          "type": "uint256"
        }
      ],
      "payable": false,
      "stateMutability": "view",
      "type": "function"
    },
    {
      "constant": true,
      "inputs": [
        {
          "internalType": "bytes32",
          "name": "",
          "type": "bytes32"
        }
      ],
      "name": "isOutputSpent",
      "outputs": [
        {
          "internalType": "bool",
          "name": "",
          "type": "bool"
        }
      ],
      "payable": false,
      "stateMutability": "view",
      "type": "function"
    },
    {
      "constant": true,
      "inputs": [
        {
          "internalType": "uint256",
          "name": "_txType",
          "type": "uint256"
        }
      ],
      "name": "exitGames",
      "outputs": [
        {
          "internalType": "address",
          "name": "",
          "type": "address"
        }
      ],
      "payable": false,
      "stateMutability": "view",
      "type": "function"
    },
    {
      "constant": false,
      "inputs": [
        {
          "internalType": "bytes32",
          "name": "_blockRoot",
          "type": "bytes32"
        }
      ],
      "name": "submitBlock",
      "outputs": [],
      "payable": false,
      "stateMutability": "nonpayable",
      "type": "function"
    },
    {
      "constant": false,
      "inputs": [
        {
          "internalType": "bytes32",
          "name": "_blockRoot",
          "type": "bytes32"
        }
      ],
      "name": "submitDepositBlock",
      "outputs": [
        {
          "internalType": "uint256",
          "name": "",
          "type": "uint256"
        }
      ],
      "payable": false,
      "stateMutability": "nonpayable",
      "type": "function"
    },
    {
      "constant": true,
      "inputs": [],
      "name": "authority",
      "outputs": [
        {
          "internalType": "address",
          "name": "",
          "type": "address"
        }
      ],
      "payable": false,
      "stateMutability": "view",
      "type": "function"
    },
    {
      "constant": true,
      "inputs": [
        {
          "internalType": "uint256",
          "name": "",
          "type": "uint256"
        }
      ],
      "name": "delegations",
      "outputs": [
        {
          "internalType": "contract IExitProcessor",
          "name": "",
          "type": "address"
        }
      ],
      "payable": false,
      "stateMutability": "view",
      "type": "function"
    },
    {
      "constant": true,
      "inputs": [
        {
          "internalType": "uint256",
          "name": "vaultId",
          "type": "uint256"
        },
        {
          "internalType": "address",
          "name": "token",
          "type": "address"
        }
      ],
      "name": "hasExitQueue",
      "outputs": [
        {
          "internalType": "bool",
          "name": "",
          "type": "bool"
        }
      ],
      "payable": false,
      "stateMutability": "view",
      "type": "function"
    },
    {
      "constant": false,
      "inputs": [
        {
          "internalType": "bytes32",
          "name": "_outputId",
          "type": "bytes32"
        }
      ],
      "name": "flagOutputSpent",
      "outputs": [],
      "payable": false,
      "stateMutability": "nonpayable",
      "type": "function"
    },
    {
      "constant": true,
      "inputs": [],
      "name": "minExitPeriod",
      "outputs": [
        {
          "internalType": "uint256",
          "name": "",
          "type": "uint256"
        }
      ],
      "payable": false,
      "stateMutability": "view",
      "type": "function"
    },
    {
      "constant": false,
      "inputs": [
        {
          "internalType": "uint256",
          "name": "vaultId",
          "type": "uint256"
        },
        {
          "internalType": "address",
          "name": "token",
          "type": "address"
        },
        {
          "internalType": "uint160",
          "name": "topExitId",
          "type": "uint160"
        },
        {
          "internalType": "uint256",
          "name": "maxExitsToProcess",
          "type": "uint256"
        }
      ],
      "name": "processExits",
      "outputs": [],
      "payable": false,
      "stateMutability": "nonpayable",
      "type": "function"
    },
    {
      "constant": true,
      "inputs": [
        {
          "internalType": "address",
          "name": "_vaultAddress",
          "type": "address"
        }
      ],
      "name": "vaultToId",
      "outputs": [
        {
          "internalType": "uint256",
          "name": "",
          "type": "uint256"
        }
      ],
      "payable": false,
      "stateMutability": "view",
      "type": "function"
    },
    {
      "constant": true,
      "inputs": [
        {
          "internalType": "uint256",
          "name": "",
          "type": "uint256"
        }
      ],
      "name": "blocks",
      "outputs": [
        {
          "internalType": "bytes32",
          "name": "root",
          "type": "bytes32"
        },
        {
          "internalType": "uint256",
          "name": "timestamp",
          "type": "uint256"
        }
      ],
      "payable": false,
      "stateMutability": "view",
      "type": "function"
    },
    {
      "constant": false,
      "inputs": [
        {
          "internalType": "uint256",
          "name": "_txType",
          "type": "uint256"
        },
        {
          "internalType": "address",
          "name": "_contract",
          "type": "address"
        },
        {
          "internalType": "uint8",
          "name": "_protocol",
          "type": "uint8"
        }
      ],
      "name": "registerExitGame",
      "outputs": [],
      "payable": false,
      "stateMutability": "nonpayable",
      "type": "function"
    },
    {
      "constant": false,
      "inputs": [],
      "name": "activateNonReentrant",
      "outputs": [],
      "payable": false,
      "stateMutability": "nonpayable",
      "type": "function"
    },
    {
      "inputs": [
        {
          "internalType": "uint256",
          "name": "_minExitPeriod",
          "type": "uint256"
        },
        {
          "internalType": "uint256",
          "name": "_initialImmuneVaults",
          "type": "uint256"
        },
        {
          "internalType": "uint256",
          "name": "_initialImmuneExitGames",
          "type": "uint256"
        },
        {
          "internalType": "address",
          "name": "_authority",
          "type": "address"
        },
        {
          "internalType": "address",
          "name": "_maintainer",
          "type": "address"
        }
      ],
      "payable": false,
      "stateMutability": "nonpayable",
      "type": "constructor"
    },
    {
      "anonymous": false,
      "inputs": [
        {
          "indexed": false,
          "internalType": "uint256",
          "name": "blockNumber",
          "type": "uint256"
        }
      ],
      "name": "BlockSubmitted",
      "type": "event"
    },
    {
      "anonymous": false,
      "inputs": [
        {
          "indexed": false,
          "internalType": "address",
          "name": "authority",
          "type": "address"
        }
      ],
      "name": "ChildChainActivated",
      "type": "event"
    },
    {
      "anonymous": false,
      "inputs": [
        {
          "indexed": false,
          "internalType": "uint256",
          "name": "vaultId",
          "type": "uint256"
        },
        {
          "indexed": false,
          "internalType": "address",
          "name": "token",
          "type": "address"
        }
      ],
      "name": "ExitQueueAdded",
      "type": "event"
    },
    {
      "anonymous": false,
      "inputs": [
        {
          "indexed": false,
          "internalType": "uint256",
          "name": "processedNum",
          "type": "uint256"
        },
        {
          "indexed": false,
          "internalType": "uint256",
          "name": "vaultId",
          "type": "uint256"
        },
        {
          "indexed": false,
          "internalType": "address",
          "name": "token",
          "type": "address"
        }
      ],
      "name": "ProcessedExitsNum",
      "type": "event"
    },
    {
      "anonymous": false,
      "inputs": [
        {
          "indexed": true,
          "internalType": "uint160",
          "name": "exitId",
          "type": "uint160"
        },
        {
          "indexed": false,
          "internalType": "uint256",
          "name": "priority",
          "type": "uint256"
        }
      ],
      "name": "ExitQueued",
      "type": "event"
    },
    {
      "anonymous": false,
      "inputs": [
        {
          "indexed": false,
          "internalType": "uint256",
          "name": "txType",
          "type": "uint256"
        },
        {
          "indexed": false,
          "internalType": "address",
          "name": "exitGameAddress",
          "type": "address"
        },
        {
          "indexed": false,
          "internalType": "uint8",
          "name": "protocol",
          "type": "uint8"
        }
      ],
      "name": "ExitGameRegistered",
      "type": "event"
    },
    {
      "anonymous": false,
      "inputs": [
        {
          "indexed": false,
          "internalType": "uint256",
          "name": "vaultId",
          "type": "uint256"
        },
        {
          "indexed": false,
          "internalType": "address",
          "name": "vaultAddress",
          "type": "address"
        }
      ],
      "name": "VaultRegistered",
      "type": "event"
    },
    {
      "constant": true,
      "inputs": [],
      "name": "getMaintainer",
      "outputs": [
        {
          "internalType": "address",
          "name": "",
          "type": "address"
        }
      ],
      "payable": false,
      "stateMutability": "view",
      "type": "function"
    }
  ],
  "bytecode": "0x6080604052600e805460ff191690553480156200001b57600080fd5b506040516200332f3803806200332f8339810160408190526200003e91620000d8565b600285026003908155600494909455928402600955600a91909155600e8054610100600160a81b0319166101006001600160a01b03938416021790556103e8600f81905560105560016011556012805460ff19169055601492909255601580546001600160a01b0319169290911691909117905562000192565b8051620000c5816200016d565b92915050565b8051620000c58162000187565b600080600080600060a08688031215620000f157600080fd5b6000620000ff8888620000cb565b95505060206200011288828901620000cb565b94505060406200012588828901620000cb565b93505060606200013888828901620000b8565b92505060806200014b88828901620000b8565b9150509295509295909350565b60006001600160a01b038216620000c5565b90565b620001788162000158565b81146200018457600080fd5b50565b62000178816200016a565b61318d80620001a26000396000f3fe60806040523480156200001157600080fd5b5060043610620002385760003560e01c8063a239e5a21162000135578063c4336c1c11620000bd578063d9aa4b241162000087578063d9aa4b24146200049f578063dfb494f014620004b6578063f25b3f9914620004cd578063f2e208e714620004f4578063ff27b189146200050b5762000238565b8063c4336c1c1462000450578063c77b1ed61462000467578063d3329542146200047e578063d4a2b4ef14620004955762000238565b8063af07976411620000ff578063af0797641462000401578063baa476941462000418578063be5ac698146200042f578063bf7e214f14620004465762000238565b8063a239e5a214620003bf578063a831fa0714620003d6578063a8cabcd514620003e0578063ab84a94b14620003ea5762000238565b80634e0f743611620001c55780638c396220116200018f5780638c396220146200034a5780638c64ea4a14620003705780638e7e389014620003875780639524a123146200039e578063a11dcc3414620003b55762000238565b80634e0f743614620003085780635a102dae14620003125780636a51fd6314620003295780638701fc5d14620003405762000238565b806342383d4a116200020757806342383d4a14620002b557806345f2093514620002ce5780634b0a72bc14620002e55780634ca8714f14620002fe5762000238565b80630e71ee02146200023d578063296d5427146200025f5780633701b5ca146200028557806338a9e0bc14620002ab575b600080fd5b6200024762000515565b60405162000256919062002412565b60405180910390f35b620002766200027036600462001a93565b6200051e565b6040516200025691906200265b565b6200029c6200029636600462001a30565b620005c3565b60405162000256919062002441565b62000276620005de565b620002cc620002c6366004620019ea565b620005e4565b005b620002cc620002df36600462001a93565b620006db565b620002ef620007d0565b60405162000256919062002402565b62000276620007df565b620002cc620007e5565b6200024762000323366004620019c9565b62000860565b620002cc6200033a36600462001a93565b6200089d565b6200027662000a04565b620003616200035b36600462001a30565b62000a12565b604051620002569190620026c8565b620002ef6200038136600462001a30565b62000a27565b6200024762000398366004620019ea565b62000a42565b62000276620003af36600462001b3c565b62000aa6565b620002cc62000c55565b62000276620003d0366004620019c9565b62000d0b565b6200027662000d26565b6200027662000d2c565b62000247620003fb36600462001a30565b62000d32565b620002ef6200041236600462001a30565b62000d47565b620002cc6200042936600462001a30565b62000d62565b620002766200044036600462001a30565b62000e30565b620002ef62000f2d565b6200029c6200046136600462001a30565b62000f41565b620002476200047836600462001a93565b62000f5c565b620002cc6200048f36600462001a30565b62000f78565b6200027662001015565b620002cc620004b036600462001ad2565b6200101b565b62000276620004c7366004620019c9565b620014d4565b620004e4620004de36600462001a30565b620014ef565b6040516200025692919062002422565b620002cc6200050536600462001bd0565b62001508565b620002cc620016c2565b60125460ff1681565b6000806200052d848462001759565b6000818152600c602090815260409182902054825163d6362e9760e01b815292519394506001600160a01b03169263d6362e97926004808201939291829003018186803b1580156200057e57600080fd5b505afa15801562000593573d6000803e3d6000fd5b505050506040513d601f19601f82011682018060405250620005b9919081019062001a72565b9150505b92915050565b600c602052600090815260409020546001600160a01b031681565b600f5481565b336000908152600660205260409020546200061c5760405162461bcd60e51b81526004016200061390620024cf565b60405180910390fd5b6200062f60083363ffffffff6200178e16565b156200064f5760405162461bcd60e51b81526004016200061390620024ab565b60005b81811015620006d65760008383838181106200066a57fe5b905060200201351415620006925760405162461bcd60e51b81526004016200061390620024e1565b6001600d6000858585818110620006a557fe5b60209081029290920135835250810191909152604001600020805460ff191691151591909117905560010162000652565b505050565b81620006fb5760405162461bcd60e51b8152600401620006139062002613565b600062000709838362001759565b90506200071681620017ac565b15620007365760405162461bcd60e51b8152600401620006139062002451565b6040516200074490620018c3565b604051809103906000f08015801562000761573d6000803e3d6000fd5b506000828152600c60205260409081902080546001600160a01b0319166001600160a01b039390931692909217909155517f0a925273fd754a41a580f8214815d5ae8a37367f561b3bd9d91a96730a418a1790620007c390859085906200266b565b60405180910390a1505050565b6015546001600160a01b031690565b60105481565b33600090815260066020526040902054620008145760405162461bcd60e51b81526004016200061390620024cf565b6200082760083363ffffffff6200178e16565b15620008475760405162461bcd60e51b81526004016200061390620024ab565b600e5460ff166200085457fe5b600e805460ff19169055565b6001600160a01b03811660009081526006602052604081205415801590620005bd57506200089660088363ffffffff6200178e16565b1592915050565b620008a7620007d0565b336001600160a01b03821614620008d25760405162461bcd60e51b815260040162000613906200253b565b82620008f25760405162461bcd60e51b8152600401620006139062002505565b620008fd82620017c9565b6200091c5760405162461bcd60e51b81526004016200061390620025a7565b6000838152602081905260409020546001600160a01b031615620009545760405162461bcd60e51b81526004016200061390620025ef565b6001600160a01b038216600090815260016020526040902054156200098d5760405162461bcd60e51b81526004016200061390620025b9565b60008381526020818152604080832080546001600160a01b0319166001600160a01b038716908117909155835260019091529020839055620009d1600283620017cf565b7f7051aac27f9b76ec8f37bd5796f2dcf402bd840a1c45c952a6eeb0e11bde09968383604051620007c39291906200266b565b601154600f54601054030190565b60009081526007602052604090205460ff1690565b6000908152602081905260409020546001600160a01b031690565b6000805b8281101562000a9c57600d600085858481811062000a6057fe5b602090810292909201358352508101919091526040016000205460ff1615156001141562000a93576001915050620005bd565b60010162000a46565b5060009392505050565b3360009081526006602052604081205462000ad55760405162461bcd60e51b81526004016200061390620024cf565b62000ae860083363ffffffff6200178e16565b1562000b085760405162461bcd60e51b81526004016200061390620024ab565b600062000b16888862001759565b905062000b2381620017ac565b62000b425760405162461bcd60e51b8152600401620006139062002499565b6000818152600c60205260408120546001600160a01b03169062000b788862000b71368a90038a018a62001a51565b8862001875565b6040516390b5561d60e01b81529091506001600160a01b038316906390b5561d9062000ba99084906004016200265b565b600060405180830381600087803b15801562000bc457600080fd5b505af115801562000bd9573d6000803e3d6000fd5b5050506000828152600b60205260409081902080546001600160a01b0319166001600160a01b0389811691909117909155905190881691507fe15a4f223f922b625f5fdd941101a23fa0c097e522233d47a7cbea2167e927019062000c409084906200265b565b60405180910390a29998505050505050505050565b600e5461010090046001600160a01b031633811462000c885760405162461bcd60e51b815260040162000613906200253b565b60125460ff161562000cae5760405162461bcd60e51b815260040162000613906200254d565b60128054600160ff19909116179055600e546040517fb8421a1acb5f1e701a4f11ecaad76fa438b3947e8dfd6960b6086130e68e0aed9162000d00916101009091046001600160a01b03169062002402565b60405180910390a150565b6001600160a01b031660009081526006602052604090205490565b6103e881565b60115481565b600d6020526000908152604090205460ff1681565b6000908152600560205260409020546001600160a01b031690565b600e5461010090046001600160a01b031633811462000d955760405162461bcd60e51b815260040162000613906200253b565b60125460ff16151560011462000dbf5760405162461bcd60e51b8152600401620006139062002487565b60108054604080518082018252858152426020808301918252600085815260139091528390209151825551600191820155600f5484540190935560119290925590517f5a978f4723b249ccf79cd7a658a8601ce1ff8b89fc770251a6be35216351ce3290620007c39083906200265b565b3360009081526001602052604081205462000e5f5760405162461bcd60e51b815260040162000613906200255f565b62000e7260023363ffffffff6200178e16565b1562000e925760405162461bcd60e51b8152600401620006139062002601565b60125460ff16151560011462000ebc5760405162461bcd60e51b8152600401620006139062002487565b600f546011541062000ee25760405162461bcd60e51b81526004016200061390620025dd565b600062000eee62000a04565b60408051808201825294855242602080870191825260008481526013909152919091209451855551600194850155601180549094019093555090919050565b600e5461010090046001600160a01b031681565b600b602052600090815260409020546001600160a01b031681565b60008062000f6b848462001759565b9050620005b981620017ac565b3360009081526006602052604090205462000fa75760405162461bcd60e51b81526004016200061390620024cf565b62000fba60083363ffffffff6200178e16565b1562000fda5760405162461bcd60e51b81526004016200061390620024ab565b8062000ffa5760405162461bcd60e51b81526004016200061390620024e1565b6000908152600d60205260409020805460ff19166001179055565b60145481565b600e5460ff1615620010415760405162461bcd60e51b8152600401620006139062002571565b600e805460ff1916600117905560006200105c858562001759565b90506200106981620017ac565b620010885760405162461bcd60e51b8152600401620006139062002595565b6000818152600c6020908152604080832054815163bda1504b60e01b815291516001600160a01b039091169392849263bda1504b9260048083019392829003018186803b158015620010d957600080fd5b505afa158015620010ee573d6000803e3d6000fd5b505050506040513d601f19601f8201168201806040525062001114919081019062001a72565b11620011345760405162461bcd60e51b81526004016200061390620025cb565b6000816001600160a01b031663d6362e976040518163ffffffff1660e01b815260040160206040518083038186803b1580156200117057600080fd5b505afa15801562001185573d6000803e3d6000fd5b505050506040513d601f19601f82011682018060405250620011ab919081019062001a72565b90506000620011ba82620018a0565b90506001600160a01b0386161580620011e45750856001600160a01b0316816001600160a01b0316145b620012035760405162461bcd60e51b81526004016200061390620024f3565b6000828152600b60205260408120546001600160a01b0316905b8681108015620012405750426200123485620018a3565b67ffffffffffffffff16105b1562001472576000848152600b6020908152604080832080546001600160a01b03191690558051632c1d5dab60e21b815290516001600160a01b0389169363b07576ac93600480850194919392918390030190829087803b158015620012a557600080fd5b505af1158015620012ba573d6000803e3d6000fd5b505050506040513d601f19601f82011682018060405250620012e0919081019062001a72565b50604051636849635160e01b81526001909101906001600160a01b03831690636849635190620013199086908e908e9060040162002625565b600060405180830381600087803b1580156200133457600080fd5b505af115801562001349573d6000803e3d6000fd5b50505050846001600160a01b031663bda1504b6040518163ffffffff1660e01b815260040160206040518083038186803b1580156200138757600080fd5b505afa1580156200139c573d6000803e3d6000fd5b505050506040513d601f19601f82011682018060405250620013c2919081019062001a72565b620013cd5762001472565b846001600160a01b031663d6362e976040518163ffffffff1660e01b815260040160206040518083038186803b1580156200140757600080fd5b505afa1580156200141c573d6000803e3d6000fd5b505050506040513d601f19601f8201168201806040525062001442919081019062001a72565b93506200144f84620018a0565b6000858152600b60205260409020549093506001600160a01b031691506200121d565b7f7e35599fe450e626673ce6c37179ef9820aed16f76c1b350618ef7a612d13005818b8b604051620014a793929190620026b8565b60405180910390a15050600e5460ff169350620014c49250505057fe5b5050600e805460ff191690555050565b6001600160a01b031660009081526001602052604090205490565b6013602052600090815260409020805460019091015482565b62001512620007d0565b336001600160a01b038216146200153d5760405162461bcd60e51b815260040162000613906200253b565b836200155d5760405162461bcd60e51b8152600401620006139062002517565b6200156883620017c9565b620015875760405162461bcd60e51b81526004016200061390620025a7565b6000848152600560205260409020546001600160a01b031615620015bf5760405162461bcd60e51b8152600401620006139062002583565b6001600160a01b03831660009081526006602052604090205415620015f85760405162461bcd60e51b8152600401620006139062002463565b6200160382620018a9565b620016225760405162461bcd60e51b8152600401620006139062002475565b600084815260056020908152604080832080546001600160a01b0319166001600160a01b03881690811790915583526006825280832087905586835260079091529020805460ff191660ff84161790556200167f600884620017cf565b7f0ceb02f7474c01f5959171cead2f5fb2a44d9c16fe480725a2110b601b19db82848484604051620016b4939291906200268a565b60405180910390a150505050565b33600090815260066020526040902054620016f15760405162461bcd60e51b81526004016200061390620024cf565b6200170460083363ffffffff6200178e16565b15620017245760405162461bcd60e51b81526004016200061390620024ab565b600e5460ff16156200174a5760405162461bcd60e51b8152600401620006139062002571565b600e805460ff19166001179055565b6000828260405160200162001770929190620023d8565b60405160208183030381529060405280519060200120905092915050565b6001600160a01b031660009081526020919091526040902054421090565b6000908152600c60205260409020546001600160a01b0316151590565b3b151590565b6001600160a01b038116620017f85760405162461bcd60e51b8152600401620006139062002529565b6001600160a01b03811660009081526020839052604090205415620018315760405162461bcd60e51b81526004016200061390620024bd565b6002820154620018645760018201546001600160a01b038216600090815260208490526040902042909101905562001871565b6002820180546000190190555b5050565b81516001600160d61b031960d685901b1660a09190911b176001600160a01b038216175b9392505050565b90565b60d61c90565b600060ff821660011480620005bd57505060ff1660021490565b61099e80620027ad83390190565b8035620005bd816200275b565b60008083601f840112620018f157600080fd5b50813567ffffffffffffffff8111156200190a57600080fd5b6020830191508360208202830111156200192357600080fd5b9250929050565b8035620005bd8162002775565b8035620005bd8162002780565b6000602082840312156200195757600080fd5b50919050565b6000602082840312156200197057600080fd5b6200197c6020620026d8565b905060006200198c84846200192a565b82525092915050565b8035620005bd816200278b565b8051620005bd8162002775565b8035620005bd8162002796565b8035620005bd81620027a1565b600060208284031215620019dc57600080fd5b6000620005b98484620018d1565b60008060208385031215620019fe57600080fd5b823567ffffffffffffffff81111562001a1657600080fd5b62001a2485828601620018de565b92509250509250929050565b60006020828403121562001a4357600080fd5b6000620005b984846200192a565b60006020828403121562001a6457600080fd5b6000620005b984846200195d565b60006020828403121562001a8557600080fd5b6000620005b98484620019a2565b6000806040838503121562001aa757600080fd5b600062001ab585856200192a565b925050602062001ac885828601620018d1565b9150509250929050565b6000806000806080858703121562001ae957600080fd5b600062001af787876200192a565b945050602062001b0a87828801620018d1565b935050604062001b1d8782880162001995565b925050606062001b30878288016200192a565b91505092959194509250565b60008060008060008060c0878903121562001b5657600080fd5b600062001b6489896200192a565b965050602062001b7789828a01620018d1565b955050604062001b8a89828a01620019af565b945050606062001b9d89828a0162001944565b935050608062001bb089828a0162001995565b92505060a062001bc389828a0162001937565b9150509295509295509295565b60008060006060848603121562001be657600080fd5b600062001bf486866200192a565b935050602062001c0786828701620018d1565b925050604062001c1a86828701620019bc565b9150509250925092565b62001c2f8162002709565b82525050565b62001c2f62001c448262002709565b62002747565b62001c2f8162002716565b62001c2f81620018a0565b62001c2f816200271b565b600062001c7a60118362002700565b70457869742071756575652065786973747360781b815260200192915050565b600062001ca9602c8362002700565b7f54686520657869742067616d6520636f6e747261637420697320616c7265616481526b1e481c9959da5cdd195c995960a21b602082015260400192915050565b600062001cf960168362002700565b75496e76616c69642070726f746f636f6c2076616c756560501b815260200192915050565b600062001d2d603b8362002700565b7f4368696c6420636861696e20686173206e6f74206265656e206163746976617481527f656420627920617574686f726974792061646472657373207965740000000000602082015260400192915050565b600062001d8e60508362002700565b7f54686520717565756520666f722074686520287661756c7449642c20746f6b6581527f6e292070616972206973206e6f742079657420616464656420746f207468652060208201526f506c61736d61206672616d65776f726b60801b604082015260600192915050565b600062001e0860178362002700565b7f4578697447616d652069732071756172616e74696e6564000000000000000000815260200192915050565b600062001e4360238362002700565b7f54686520636f6e747261637420697320616c72656164792071756172616e74698152621b995960ea1b602082015260400192915050565b600062001e8a60348362002700565b7f5468652063616c6c206973206e6f742066726f6d2061207265676973746572658152731908195e1a5d0819d85b594818dbdb9d1c9858dd60621b602082015260400192915050565b600062001ee260238362002700565b7f53686f756c64206e6f7420666c6167207769746820656d707479206f757470758152621d125960ea1b602082015260400192915050565b600062001f29603a8362002700565b7f546f702065786974204944206f6620746865207175657565206973206469666681527f6572656e7420746f20746865206f6e6520737065636966696564000000000000602082015260400192915050565b600062001f8a60238362002700565b7f53686f756c64206e6f742072656769737465722077697468207661756c74204981526204420360ec1b602082015260400192915050565b600062001fd160228362002700565b7f53686f756c64206e6f7420726567697374657220776974682074782074797065815261020360f41b602082015260400192915050565b60006200201760268362002700565b7f416e20656d70747920616464726573732063616e6e6f742062652071756172618152651b9d1a5b995960d21b602082015260400192915050565b600062002061601e8362002700565b7f43616c6c6572206164647265737320697320756e617574686f72697a65640000815260200192915050565b60006200209c601d8362002700565b7f4368696c6420636861696e20616c726561647920616374697661746564000000815260200192915050565b6000620020d760278362002700565b7f5468652063616c6c206973206e6f742066726f6d20612072656769737465726581526619081d985d5b1d60ca1b602082015260400192915050565b600062002122600e8362002700565b6d1499595b9d1c985b9d0818d85b1b60921b815260200192915050565b60006200214e60218362002700565b7f546865207478207479706520697320616c7265616479207265676973746572658152601960fa1b602082015260400192915050565b60006200219360328362002700565b7f54686520746f6b656e206973206e6f742079657420616464656420746f2074688152716520506c61736d61206672616d65776f726b60701b602082015260400192915050565b6000620021e9602f8362002700565b7f53686f756c64206e6f7420726567697374657220776974682061206e6f6e2d6381526e6f6e7472616374206164647265737360881b602082015260400192915050565b60006200223c60288362002700565b7f546865207661756c7420636f6e747261637420697320616c726561647920726581526719da5cdd195c995960c21b602082015260400192915050565b60006200228860138362002700565b724578697420717565756520697320656d70747960681b815260200192915050565b6000620022b960338362002700565b7f4578636565646564206c696d6974206f66206465706f736974732070657220638152721a1a5b1908189b1bd8dac81a5b9d195c9d985b606a1b602082015260400192915050565b60006200231060228362002700565b7f546865207661756c7420494420697320616c7265616479207265676973746572815261195960f21b602082015260400192915050565b60006200235660148362002700565b7315985d5b1d081a5cc81c5d585c985b9d1a5b995960621b815260200192915050565b60006200238860168362002700565b7505661756c74204944206d757374206e6f7420626520360541b815260200192915050565b62001c2f8162002728565b62001c2f620023c782620018a0565b620018a0565b62001c2f8162002741565b6000620023e68285620023b8565b602082019150620023f8828462001c35565b5060140192915050565b60208101620005bd828462001c24565b60208101620005bd828462001c4a565b6040810162002432828562001c55565b62001899602083018462001c55565b60208101620005bd828462001c60565b60208082528101620005bd8162001c6b565b60208082528101620005bd8162001c9a565b60208082528101620005bd8162001cea565b60208082528101620005bd8162001d1e565b60208082528101620005bd8162001d7f565b60208082528101620005bd8162001df9565b60208082528101620005bd8162001e34565b60208082528101620005bd8162001e7b565b60208082528101620005bd8162001ed3565b60208082528101620005bd8162001f1a565b60208082528101620005bd8162001f7b565b60208082528101620005bd8162001fc2565b60208082528101620005bd8162002008565b60208082528101620005bd8162002052565b60208082528101620005bd816200208d565b60208082528101620005bd81620020c8565b60208082528101620005bd8162002113565b60208082528101620005bd816200213f565b60208082528101620005bd8162002184565b60208082528101620005bd81620021da565b60208082528101620005bd816200222d565b60208082528101620005bd8162002279565b60208082528101620005bd81620022aa565b60208082528101620005bd8162002301565b60208082528101620005bd8162002347565b60208082528101620005bd8162002379565b60608101620026358286620023ad565b62002644602083018562001c55565b62002653604083018462001c24565b949350505050565b60208101620005bd828462001c55565b604081016200267b828562001c55565b62001899602083018462001c24565b606081016200269a828662001c55565b620026a9602083018562001c24565b620026536040830184620023cd565b6060810162002635828662001c55565b60208101620005bd8284620023cd565b60405181810167ffffffffffffffff81118282101715620026f857600080fd5b604052919050565b90815260200190565b6000620005bd8262002728565b151590565b6000620005bd8262002709565b6001600160a01b031690565b67ffffffffffffffff1690565b60ff1690565b6000620005bd826000620005bd8260601b90565b620027668162002709565b81146200277257600080fd5b50565b6200276681620018a0565b62002766816200271b565b620027668162002728565b620027668162002734565b62002766816200274156fe608060405234801561001057600080fd5b506040805160208101909152600080825261002c916001610049565b506000600155600280546001600160a01b031916331790556100b6565b828054828255906000526020600020908101928215610089579160200282015b82811115610089578251829060ff16905591602001919060010190610069565b50610095929150610099565b5090565b6100b391905b80821115610095576000815560010161009f565b90565b6108d9806100c56000396000f3fe608060405234801561001057600080fd5b506004361061007d5760003560e01c8063bda1504b1161005b578063bda1504b14610113578063d6362e971461011b578063e10d29ee14610123578063e9de55531461012b5761007d565b8063446b2f881461008257806390b5561d146100da578063b07576ac146100f9575b600080fd5b61008a61014f565b60408051602080825283518183015283519192839290830191858101910280838360005b838110156100c65781810151838201526020016100ae565b505050509050019250505060405180910390f35b6100f7600480360360208110156100f057600080fd5b50356101aa565b005b610101610263565b60408051918252519081900360200190f35b6101016103c5565b6101016103cb565b610101610432565b610133610438565b604080516001600160a01b039092168252519081900360200190f35b60606000800180548060200260200160405190810160405280929190818152602001828054801561019f57602002820191906000526020600020905b81548152602001906001019080831161018b575b505050505090505b90565b6002546001600160a01b031633811461020a576040805162461bcd60e51b815260206004820152601e60248201527f43616c6c6572206164647265737320697320756e617574686f72697a65640000604482015290519081900360640190fd5b60008054600181810183559180527f290decd9548b62a8d60345a988386fc84ba6bc95484008f6362f93160ef3e56301839055805461024e9163ffffffff61044716565b600181905561025f906000906104aa565b5050565b6002546000906001600160a01b03163381146102c6576040805162461bcd60e51b815260206004820152601e60248201527f43616c6c6572206164647265737320697320756e617574686f72697a65640000604482015290519081900360640190fd5b60015461030b576040805162461bcd60e51b815260206004820152600e60248201526d517565756520697320656d70747960901b604482015290519081900360640190fd5b60008060000160018154811061031d57fe5b6000918252602082200154600154825491935090811061033957fe5b90600052602060002001546000800160018154811061035457fe5b60009182526020822001919091556001548154811061036f57fe5b60009182526020822001556001805461038d9163ffffffff61058016565b600190815561039e906000906105dd565b6000546103b290600163ffffffff61058016565b6103bd600082610840565b5091505b5090565b60015490565b600154600090610413576040805162461bcd60e51b815260206004820152600e60248201526d517565756520697320656d70747960901b604482015290519081900360640190fd5b60008054600190811061042257fe5b9060005260206000200154905090565b60015481565b6002546001600160a01b031681565b6000828201838110156104a1576040805162461bcd60e51b815260206004820152601b60248201527f536166654d6174683a206164646974696f6e206f766572666c6f770000000000604482015290519081900360640190fd5b90505b92915050565b8154819081906000908590839081106104bf57fe5b906000526020600020015490505b846104df84600263ffffffff6106b416565b815481106104e957fe5b9060005260206000200154811015610555578461050d84600263ffffffff6106b416565b8154811061051757fe5b906000526020600020015485600001848154811061053157fe5b60009182526020909120015561054e83600263ffffffff6106b416565b92506104cd565b818314610579578085600001848154811061056c57fe5b6000918252602090912001555b5050505050565b6000828211156105d7576040805162461bcd60e51b815260206004820152601e60248201527f536166654d6174683a207375627472616374696f6e206f766572666c6f770000604482015290519081900360640190fd5b50900390565b8154819081906000908590839081106105f257fe5b90600052602060002001549050600061060b868561071e565b90505b8560010154811115801561063a575085600001818154811061062c57fe5b906000526020600020015482115b156106885785600001818154811061064e57fe5b906000526020600020015486600001858154811061066857fe5b600091825260209091200155925082610681868261071e565b905061060e565b8284146106ac578186600001858154811061069f57fe5b6000918252602090912001555b505050505050565b600080821161070a576040805162461bcd60e51b815260206004820152601a60248201527f536166654d6174683a206469766973696f6e206279207a65726f000000000000604482015290519081900360640190fd5b600082848161071557fe5b04949350505050565b6001808301546000916107489061073c85600263ffffffff6107e716565b9063ffffffff61044716565b11156107665761075f82600263ffffffff6107e716565b90506104a4565b8261077d600161073c85600263ffffffff6107e716565b8154811061078757fe5b600091825260209091200154836107a584600263ffffffff6107e716565b815481106107af57fe5b906000526020600020015410156107d15761075f82600263ffffffff6107e716565b61075f600161073c84600263ffffffff6107e716565b6000826107f6575060006104a4565b8282028284828161080357fe5b04146104a15760405162461bcd60e51b81526004018080602001828103825260218152602001806108846021913960400191505060405180910390fd5b81548183558181111561086457600083815260209020610864918101908301610869565b505050565b6101a791905b808211156103c1576000815560010161086f56fe536166654d6174683a206d756c7469706c69636174696f6e206f766572666c6f77a265627a7a7231582053b5a0cb1b289bb4cae4eae487b87df947f7b9aa933660d4f69f66a4a1009e1364736f6c634300050b0032a365627a7a72315820805580095728ac384c6d37b3081ec22290ed355f972ad67da2642895f49886826c6578706572696d656e74616cf564736f6c634300050b0040",
  "source": "pragma solidity 0.5.11;\npragma experimental ABIEncoderV2;\n\nimport \"./BlockController.sol\";\nimport \"./ExitGameController.sol\";\nimport \"./registries/VaultRegistry.sol\";\nimport \"./registries/ExitGameRegistry.sol\";\n\ncontract PlasmaFramework is VaultRegistry, ExitGameRegistry, ExitGameController, BlockController {\n    uint256 public constant CHILD_BLOCK_INTERVAL = 1000;\n\n    /**\n     * The minimum finalization period is the Plasma guarantee that all exits are safe provided the user takes action within the specified time period\n     * When the child chain is rogue, user should start their exit and challenge any invalid exit within this period\n     * An exit can be processed/finalized after minimum two finalization periods from its inclusion position, unless it is an exit for a deposit,\n     * which would use one finalization period, instead of two\n     *\n     * For the Abstract Layer Design, OmiseGO also uses some multitude of this period to update its framework\n     * See also ExitGameRegistry.sol, VaultRegistry.sol, and Vault.sol for more information on the update waiting time (the quarantined period)\n     *\n     * MVP: https://ethresear.ch/t/minimal-viable-plasma/426\n     * MoreVP: https://github.com/omisego/elixir-omg/blob/master/docs/morevp.md#timeline\n     * Special period for deposit: https://git.io/JecCV\n     */\n    uint256 public minExitPeriod;\n    address private maintainer;\n\n    constructor(\n        uint256 _minExitPeriod,\n        uint256 _initialImmuneVaults,\n        uint256 _initialImmuneExitGames,\n        address _authority,\n        address _maintainer\n    )\n        public\n        BlockController(CHILD_BLOCK_INTERVAL, _minExitPeriod, _initialImmuneVaults, _authority)\n        ExitGameController(_minExitPeriod, _initialImmuneExitGames)\n    {\n        minExitPeriod = _minExitPeriod;\n        maintainer = _maintainer;\n    }\n\n    function getMaintainer() public view returns (address) {\n        return maintainer;\n    }\n}\n",
  "sourcePath": "/Users/jarindr/plasma-contracts/plasma_framework/contracts/src/framework/PlasmaFramework.sol",
  "compiler": {
    "name": "solc",
    "version": "0.5.11+commit.c082d0b4.Emscripten.clang"
  },
  "schemaVersion": "3.0.16",
  "updatedAt": "2019-12-11T05:31:33.760Z",
  "devdoc": {
    "methods": {
      "activateChildChain()": {
        "details": "This is a preserved action for authority account to start its nonce with 1.     Child chain rely ethereum nonce to protect re-org: https://git.io/JecDG     see discussion: https://git.io/JenaT, https://git.io/JecDO"
      },
      "activateNonReentrant()": {
        "details": "Accessible only from non quarantined exit games, uses a mutex"
      },
      "addExitQueue(uint256,address)": {
        "details": "The queue is created as a new contract instance",
        "params": {
          "token": "Address of the token",
          "vaultId": "ID of the vault"
        }
      },
      "batchFlagOutputsSpent(bytes32[])": {
        "params": {
          "_outputIds": "Output IDs to flag"
        }
      },
      "deactivateNonReentrant()": {
        "details": "Accessible only from non quarantined exit games, uses a mutex"
      },
      "enqueue(uint256,address,uint64,(uint256),uint160,address)": {
        "details": "emits ExitQueued event, which can be used to back trace the priority inside the queueCaller of this function should add \"pragma experimental ABIEncoderV2;\" on top of file",
        "params": {
          "exitId": "ID used by the exit processor contract to determine how to process the exit",
          "exitProcessor": "The exit processor contract, called during \"processExits\"",
          "exitableAt": "The earliest time a specified exit can be processed",
          "token": "Token for the exit",
          "txPos": "Transaction position for the exit priority. For SE it should be the exit tx, for IFE it should be the youngest input tx position.",
          "vaultId": "Vault ID of the vault that stores exiting funds"
        },
        "return": "A unique priority number computed for the exit"
      },
      "flagOutputSpent(bytes32)": {
        "params": {
          "_outputId": "The output ID to flag as spent"
        }
      },
      "hasExitQueue(uint256,address)": {
        "params": {
          "token": "Address of the token",
          "vaultId": "ID of the vault that handles the token"
        },
        "return": "bool Defines whether the queue for a token was created"
      },
      "isAnyOutputsSpent(bytes32[])": {
        "params": {
          "_outputIds": "Output IDs to check"
        }
      },
      "isExitGameSafeToUse(address)": {
        "details": "Exposes information about exit games quarantine",
        "params": {
          "_contract": "Address of the exit game contract"
        },
        "return": "boolean Whether the contract is safe to use and is not under quarantine"
      },
      "processExits(uint256,address,uint160,uint256)": {
        "details": "Emits ProcessedExitsNum event",
        "params": {
          "maxExitsToProcess": "Maximum number of exits to process",
          "token": "The token type to process",
          "topExitId": "Unique identifier for prioritizing the first exit to process. Set to zero to skip this check.",
          "vaultId": "Vault ID of the vault that stores exiting funds"
        },
        "return": "Total number of processed exits"
      },
      "registerExitGame(uint256,address,uint8)": {
        "details": "Emits ExitGameRegistered event to notify clients",
        "params": {
          "_contract": "Address of the exit game contract",
          "_protocol": "The transaction protocol, either 1 for MVP or 2 for MoreVP",
          "_txType": "The tx type where the exit game wants to register"
        }
      },
      "registerVault(uint256,address)": {
        "details": "emits VaultRegistered event to notify clients",
        "params": {
          "_vaultAddress": "Address of the vault contract",
          "_vaultId": "The ID for the vault contract to register"
        }
      },
      "submitBlock(bytes32)": {
        "details": "emit BlockSubmitted eventBlock number jumps 'childBlockInterval' per submissionSee discussion in https://github.com/omisego/plasma-contracts/issues/233",
        "params": {
          "_blockRoot": "Merkle root of the Plasma block"
        }
      },
      "submitDepositBlock(bytes32)": {
        "details": "Block number adds 1 per submission; it's possible to have at most 'childBlockInterval' deposit blocks between two child chain blocks",
        "params": {
          "_blockRoot": "Merkle root of the Plasma block"
        },
        "return": "The deposit block number"
      }
    }
  },
  "userdoc": {
    "methods": {
      "activateChildChain()": {
        "notice": "Activates the child chain so that child chain can start to submit child blocks to root chainCan only be called once by the authority.Sets isChildChainActivated to true and emits the ChildChainActivated event."
      },
      "activateNonReentrant()": {
        "notice": "Activates non reentrancy mode        Guards against reentering into publicly accessible code that modifies state related to exits"
      },
      "addExitQueue(uint256,address)": {
        "notice": "Adds queue to the Plasma framework"
      },
      "batchFlagOutputsSpent(bytes32[])": {
        "notice": "Batch flags already spent outputs"
      },
      "deactivateNonReentrant()": {
        "notice": "Deactivates non reentrancy mode"
      },
      "enqueue(uint256,address,uint64,(uint256),uint160,address)": {
        "notice": "Enqueue exits from exit game contracts is a function that places the exit into the        priority queue to enforce the priority of exit during 'processExits'"
      },
      "exitGameToTxType(address)": {
        "notice": "Public getter for retrieving tx type with exit game address"
      },
      "exitGames(uint256)": {
        "notice": "Public getter for retrieving exit game address with tx type"
      },
      "flagOutputSpent(bytes32)": {
        "notice": "Flags a single output as spent"
      },
      "hasExitQueue(uint256,address)": {
        "notice": "Checks if the queue for a specified token was created"
      },
      "isAnyOutputsSpent(bytes32[])": {
        "notice": "Checks whether any of the output with the given outputIds is already spent"
      },
      "isExitGameSafeToUse(address)": {
        "notice": "Checks whether the contract is safe to use and is not under quarantine"
      },
      "processExits(uint256,address,uint160,uint256)": {
        "notice": "Processes any exits that have completed the challenge period. Exits are processed according to the exit priority."
      },
      "protocols(uint256)": {
        "notice": "Public getter for retrieving protocol with tx type"
      },
      "registerExitGame(uint256,address,uint8)": {
        "notice": "Registers an exit game within the PlasmaFramework. Only the maintainer can call the function."
      },
      "registerVault(uint256,address)": {
        "notice": "Register a vault within the PlasmaFramework. Only a maintainer can make the call."
      },
      "submitBlock(bytes32)": {
        "notice": "Allows the authority to submit the Merkle root of a Plasma block"
      },
      "submitDepositBlock(bytes32)": {
        "notice": "Submits a block for deposit"
      },
      "vaultToId(address)": {
        "notice": "Public getter for retrieving vault ID with vault address"
      },
      "vaults(uint256)": {
        "notice": "Public getter for retrieving vault address with vault ID"
      }
    }
  }
}