{
  "contractName": "PlasmaFramework",
  "abi": [
    {
      "constant": true,
      "inputs": [],
      "name": "isChildChainActivated",
      "outputs": [
        {
          "internalType": "bool",
          "name": "",
          "type": "bool"
        }
      ],
      "payable": false,
      "stateMutability": "view",
      "type": "function"
    },
    {
      "constant": true,
      "inputs": [
        {
          "internalType": "uint256",
          "name": "vaultId",
          "type": "uint256"
        },
        {
          "internalType": "address",
          "name": "token",
          "type": "address"
        }
      ],
      "name": "getNextExit",
      "outputs": [
        {
          "internalType": "uint256",
          "name": "",
          "type": "uint256"
        }
      ],
      "payable": false,
      "stateMutability": "view",
      "type": "function"
    },
    {
      "constant": true,
      "inputs": [
        {
          "internalType": "bytes32",
          "name": "",
          "type": "bytes32"
        }
      ],
      "name": "exitsQueues",
      "outputs": [
        {
          "internalType": "contract PriorityQueue",
          "name": "",
          "type": "address"
        }
      ],
      "payable": false,
      "stateMutability": "view",
      "type": "function"
    },
    {
      "constant": true,
      "inputs": [],
      "name": "childBlockInterval",
      "outputs": [
        {
          "internalType": "uint256",
          "name": "",
          "type": "uint256"
        }
      ],
      "payable": false,
      "stateMutability": "view",
      "type": "function"
    },
    {
      "constant": false,
      "inputs": [
        {
          "internalType": "bytes32[]",
          "name": "_outputIds",
          "type": "bytes32[]"
        }
      ],
      "name": "batchFlagOutputsSpent",
      "outputs": [],
      "payable": false,
      "stateMutability": "nonpayable",
      "type": "function"
    },
    {
      "constant": false,
      "inputs": [
        {
          "internalType": "uint256",
          "name": "vaultId",
          "type": "uint256"
        },
        {
          "internalType": "address",
          "name": "token",
          "type": "address"
        }
      ],
      "name": "addExitQueue",
      "outputs": [],
      "payable": false,
      "stateMutability": "nonpayable",
      "type": "function"
    },
    {
      "constant": true,
      "inputs": [],
      "name": "nextChildBlock",
      "outputs": [
        {
          "internalType": "uint256",
          "name": "",
          "type": "uint256"
        }
      ],
      "payable": false,
      "stateMutability": "view",
      "type": "function"
    },
    {
      "constant": false,
      "inputs": [],
      "name": "deactivateNonReentrant",
      "outputs": [],
      "payable": false,
      "stateMutability": "nonpayable",
      "type": "function"
    },
    {
      "constant": true,
      "inputs": [
        {
          "internalType": "address",
          "name": "_contract",
          "type": "address"
        }
      ],
      "name": "isExitGameSafeToUse",
      "outputs": [
        {
          "internalType": "bool",
          "name": "",
          "type": "bool"
        }
      ],
      "payable": false,
      "stateMutability": "view",
      "type": "function"
    },
    {
      "constant": false,
      "inputs": [
        {
          "internalType": "uint256",
          "name": "_vaultId",
          "type": "uint256"
        },
        {
          "internalType": "address",
          "name": "_vaultAddress",
          "type": "address"
        }
      ],
      "name": "registerVault",
      "outputs": [],
      "payable": false,
      "stateMutability": "nonpayable",
      "type": "function"
    },
    {
      "constant": true,
      "inputs": [],
      "name": "nextDepositBlock",
      "outputs": [
        {
          "internalType": "uint256",
          "name": "",
          "type": "uint256"
        }
      ],
      "payable": false,
      "stateMutability": "view",
      "type": "function"
    },
    {
      "constant": true,
      "inputs": [
        {
          "internalType": "uint256",
          "name": "_txType",
          "type": "uint256"
        }
      ],
      "name": "protocols",
      "outputs": [
        {
          "internalType": "uint8",
          "name": "",
          "type": "uint8"
        }
      ],
      "payable": false,
      "stateMutability": "view",
      "type": "function"
    },
    {
      "constant": true,
      "inputs": [
        {
          "internalType": "uint256",
          "name": "_vaultId",
          "type": "uint256"
        }
      ],
      "name": "vaults",
      "outputs": [
        {
          "internalType": "address",
          "name": "",
          "type": "address"
        }
      ],
      "payable": false,
      "stateMutability": "view",
      "type": "function"
    },
    {
      "constant": true,
      "inputs": [
        {
          "internalType": "bytes32[]",
          "name": "_outputIds",
          "type": "bytes32[]"
        }
      ],
      "name": "isAnyOutputsSpent",
      "outputs": [
        {
          "internalType": "bool",
          "name": "",
          "type": "bool"
        }
      ],
      "payable": false,
      "stateMutability": "view",
      "type": "function"
    },
    {
      "constant": false,
      "inputs": [
        {
          "internalType": "uint256",
          "name": "vaultId",
          "type": "uint256"
        },
        {
          "internalType": "address",
          "name": "token",
          "type": "address"
        },
        {
          "internalType": "uint64",
          "name": "exitableAt",
          "type": "uint64"
        },
        {
          "components": [
            {
              "internalType": "uint256",
              "name": "value",
              "type": "uint256"
            }
          ],
          "internalType": "struct TxPosLib.TxPos",
          "name": "txPos",
          "type": "tuple"
        },
        {
          "internalType": "uint160",
          "name": "exitId",
          "type": "uint160"
        },
        {
          "internalType": "contract IExitProcessor",
          "name": "exitProcessor",
          "type": "address"
        }
      ],
      "name": "enqueue",
      "outputs": [
        {
          "internalType": "uint256",
          "name": "",
          "type": "uint256"
        }
      ],
      "payable": false,
      "stateMutability": "nonpayable",
      "type": "function"
    },
    {
      "constant": false,
      "inputs": [],
      "name": "activateChildChain",
      "outputs": [],
      "payable": false,
      "stateMutability": "nonpayable",
      "type": "function"
    },
    {
      "constant": true,
      "inputs": [
        {
          "internalType": "address",
          "name": "_exitGame",
          "type": "address"
        }
      ],
      "name": "exitGameToTxType",
      "outputs": [
        {
          "internalType": "uint256",
          "name": "",
          "type": "uint256"
        }
      ],
      "payable": false,
      "stateMutability": "view",
      "type": "function"
    },
    {
      "constant": true,
      "inputs": [],
      "name": "CHILD_BLOCK_INTERVAL",
      "outputs": [
        {
          "internalType": "uint256",
          "name": "",
          "type": "uint256"
        }
      ],
      "payable": false,
      "stateMutability": "view",
      "type": "function"
    },
    {
      "constant": true,
      "inputs": [],
      "name": "nextDeposit",
      "outputs": [
        {
          "internalType": "uint256",
          "name": "",
          "type": "uint256"
        }
      ],
      "payable": false,
      "stateMutability": "view",
      "type": "function"
    },
    {
      "constant": true,
      "inputs": [
        {
          "internalType": "bytes32",
          "name": "",
          "type": "bytes32"
        }
      ],
      "name": "isOutputSpent",
      "outputs": [
        {
          "internalType": "bool",
          "name": "",
          "type": "bool"
        }
      ],
      "payable": false,
      "stateMutability": "view",
      "type": "function"
    },
    {
      "constant": true,
      "inputs": [
        {
          "internalType": "uint256",
          "name": "_txType",
          "type": "uint256"
        }
      ],
      "name": "exitGames",
      "outputs": [
        {
          "internalType": "address",
          "name": "",
          "type": "address"
        }
      ],
      "payable": false,
      "stateMutability": "view",
      "type": "function"
    },
    {
      "constant": false,
      "inputs": [
        {
          "internalType": "bytes32",
          "name": "_blockRoot",
          "type": "bytes32"
        }
      ],
      "name": "submitBlock",
      "outputs": [],
      "payable": false,
      "stateMutability": "nonpayable",
      "type": "function"
    },
    {
      "constant": false,
      "inputs": [
        {
          "internalType": "bytes32",
          "name": "_blockRoot",
          "type": "bytes32"
        }
      ],
      "name": "submitDepositBlock",
      "outputs": [
        {
          "internalType": "uint256",
          "name": "",
          "type": "uint256"
        }
      ],
      "payable": false,
      "stateMutability": "nonpayable",
      "type": "function"
    },
    {
      "constant": true,
      "inputs": [],
      "name": "authority",
      "outputs": [
        {
          "internalType": "address",
          "name": "",
          "type": "address"
        }
      ],
      "payable": false,
      "stateMutability": "view",
      "type": "function"
    },
    {
      "constant": true,
      "inputs": [
        {
          "internalType": "uint256",
          "name": "",
          "type": "uint256"
        }
      ],
      "name": "delegations",
      "outputs": [
        {
          "internalType": "contract IExitProcessor",
          "name": "",
          "type": "address"
        }
      ],
      "payable": false,
      "stateMutability": "view",
      "type": "function"
    },
    {
      "constant": true,
      "inputs": [
        {
          "internalType": "uint256",
          "name": "vaultId",
          "type": "uint256"
        },
        {
          "internalType": "address",
          "name": "token",
          "type": "address"
        }
      ],
      "name": "hasExitQueue",
      "outputs": [
        {
          "internalType": "bool",
          "name": "",
          "type": "bool"
        }
      ],
      "payable": false,
      "stateMutability": "view",
      "type": "function"
    },
    {
      "constant": false,
      "inputs": [
        {
          "internalType": "bytes32",
          "name": "_outputId",
          "type": "bytes32"
        }
      ],
      "name": "flagOutputSpent",
      "outputs": [],
      "payable": false,
      "stateMutability": "nonpayable",
      "type": "function"
    },
    {
      "constant": true,
      "inputs": [],
      "name": "minExitPeriod",
      "outputs": [
        {
          "internalType": "uint256",
          "name": "",
          "type": "uint256"
        }
      ],
      "payable": false,
      "stateMutability": "view",
      "type": "function"
    },
    {
      "constant": false,
      "inputs": [
        {
          "internalType": "uint256",
          "name": "vaultId",
          "type": "uint256"
        },
        {
          "internalType": "address",
          "name": "token",
          "type": "address"
        },
        {
          "internalType": "uint160",
          "name": "topExitId",
          "type": "uint160"
        },
        {
          "internalType": "uint256",
          "name": "maxExitsToProcess",
          "type": "uint256"
        }
      ],
      "name": "processExits",
      "outputs": [],
      "payable": false,
      "stateMutability": "nonpayable",
      "type": "function"
    },
    {
      "constant": true,
      "inputs": [
        {
          "internalType": "address",
          "name": "_vaultAddress",
          "type": "address"
        }
      ],
      "name": "vaultToId",
      "outputs": [
        {
          "internalType": "uint256",
          "name": "",
          "type": "uint256"
        }
      ],
      "payable": false,
      "stateMutability": "view",
      "type": "function"
    },
    {
      "constant": true,
      "inputs": [
        {
          "internalType": "uint256",
          "name": "",
          "type": "uint256"
        }
      ],
      "name": "blocks",
      "outputs": [
        {
          "internalType": "bytes32",
          "name": "root",
          "type": "bytes32"
        },
        {
          "internalType": "uint256",
          "name": "timestamp",
          "type": "uint256"
        }
      ],
      "payable": false,
      "stateMutability": "view",
      "type": "function"
    },
    {
      "constant": false,
      "inputs": [
        {
          "internalType": "uint256",
          "name": "_txType",
          "type": "uint256"
        },
        {
          "internalType": "address",
          "name": "_contract",
          "type": "address"
        },
        {
          "internalType": "uint8",
          "name": "_protocol",
          "type": "uint8"
        }
      ],
      "name": "registerExitGame",
      "outputs": [],
      "payable": false,
      "stateMutability": "nonpayable",
      "type": "function"
    },
    {
      "constant": false,
      "inputs": [],
      "name": "activateNonReentrant",
      "outputs": [],
      "payable": false,
      "stateMutability": "nonpayable",
      "type": "function"
    },
    {
      "inputs": [
        {
          "internalType": "uint256",
          "name": "_minExitPeriod",
          "type": "uint256"
        },
        {
          "internalType": "uint256",
          "name": "_initialImmuneVaults",
          "type": "uint256"
        },
        {
          "internalType": "uint256",
          "name": "_initialImmuneExitGames",
          "type": "uint256"
        },
        {
          "internalType": "address",
          "name": "_authority",
          "type": "address"
        },
        {
          "internalType": "address",
          "name": "_maintainer",
          "type": "address"
        }
      ],
      "payable": false,
      "stateMutability": "nonpayable",
      "type": "constructor"
    },
    {
      "anonymous": false,
      "inputs": [
        {
          "indexed": false,
          "internalType": "uint256",
          "name": "blockNumber",
          "type": "uint256"
        }
      ],
      "name": "BlockSubmitted",
      "type": "event"
    },
    {
      "anonymous": false,
      "inputs": [
        {
          "indexed": false,
          "internalType": "address",
          "name": "authority",
          "type": "address"
        }
      ],
      "name": "ChildChainActivated",
      "type": "event"
    },
    {
      "anonymous": false,
      "inputs": [
        {
          "indexed": false,
          "internalType": "uint256",
          "name": "vaultId",
          "type": "uint256"
        },
        {
          "indexed": false,
          "internalType": "address",
          "name": "token",
          "type": "address"
        }
      ],
      "name": "ExitQueueAdded",
      "type": "event"
    },
    {
      "anonymous": false,
      "inputs": [
        {
          "indexed": false,
          "internalType": "uint256",
          "name": "processedNum",
          "type": "uint256"
        },
        {
          "indexed": false,
          "internalType": "uint256",
          "name": "vaultId",
          "type": "uint256"
        },
        {
          "indexed": false,
          "internalType": "address",
          "name": "token",
          "type": "address"
        }
      ],
      "name": "ProcessedExitsNum",
      "type": "event"
    },
    {
      "anonymous": false,
      "inputs": [
        {
          "indexed": true,
          "internalType": "uint160",
          "name": "exitId",
          "type": "uint160"
        },
        {
          "indexed": false,
          "internalType": "uint256",
          "name": "priority",
          "type": "uint256"
        }
      ],
      "name": "ExitQueued",
      "type": "event"
    },
    {
      "anonymous": false,
      "inputs": [
        {
          "indexed": false,
          "internalType": "uint256",
          "name": "txType",
          "type": "uint256"
        },
        {
          "indexed": false,
          "internalType": "address",
          "name": "exitGameAddress",
          "type": "address"
        },
        {
          "indexed": false,
          "internalType": "uint8",
          "name": "protocol",
          "type": "uint8"
        }
      ],
      "name": "ExitGameRegistered",
      "type": "event"
    },
    {
      "anonymous": false,
      "inputs": [
        {
          "indexed": false,
          "internalType": "uint256",
          "name": "vaultId",
          "type": "uint256"
        },
        {
          "indexed": false,
          "internalType": "address",
          "name": "vaultAddress",
          "type": "address"
        }
      ],
      "name": "VaultRegistered",
      "type": "event"
    },
    {
      "constant": true,
      "inputs": [],
      "name": "getMaintainer",
      "outputs": [
        {
          "internalType": "address",
          "name": "",
          "type": "address"
        }
      ],
      "payable": false,
      "stateMutability": "view",
      "type": "function"
    }
  ],
  "bytecode": "0x6080604052600e805460ff191690553480156200001b57600080fd5b506040516200338b3803806200338b8339810160408190526200003e91620000d8565b600285026003908155600494909455928402600955600a91909155600e8054610100600160a81b0319166101006001600160a01b03938416021790556103e8600f81905560105560016011556012805460ff19169055601492909255601580546001600160a01b0319169290911691909117905562000192565b8051620000c5816200016d565b92915050565b8051620000c58162000187565b600080600080600060a08688031215620000f157600080fd5b6000620000ff8888620000cb565b95505060206200011288828901620000cb565b94505060406200012588828901620000cb565b93505060606200013888828901620000b8565b92505060806200014b88828901620000b8565b9150509295509295909350565b60006001600160a01b038216620000c5565b90565b620001788162000158565b81146200018457600080fd5b50565b62000178816200016a565b6131e980620001a26000396000f3fe60806040523480156200001157600080fd5b5060043610620002385760003560e01c8063a239e5a21162000135578063c4336c1c11620000bd578063d9aa4b241162000087578063d9aa4b24146200049f578063dfb494f014620004b6578063f25b3f9914620004cd578063f2e208e714620004f4578063ff27b189146200050b5762000238565b8063c4336c1c1462000450578063c77b1ed61462000467578063d3329542146200047e578063d4a2b4ef14620004955762000238565b8063af07976411620000ff578063af0797641462000401578063baa476941462000418578063be5ac698146200042f578063bf7e214f14620004465762000238565b8063a239e5a214620003bf578063a831fa0714620003d6578063a8cabcd514620003e0578063ab84a94b14620003ea5762000238565b80634e0f743611620001c55780638c396220116200018f5780638c396220146200034a5780638c64ea4a14620003705780638e7e389014620003875780639524a123146200039e578063a11dcc3414620003b55762000238565b80634e0f743614620003085780635a102dae14620003125780636a51fd6314620003295780638701fc5d14620003405762000238565b806342383d4a116200020757806342383d4a14620002b557806345f2093514620002ce5780634b0a72bc14620002e55780634ca8714f14620002fe5762000238565b80630e71ee02146200023d578063296d5427146200025f5780633701b5ca146200028557806338a9e0bc14620002ab575b600080fd5b6200024762000515565b6040516200025691906200245c565b60405180910390f35b620002766200027036600462001a8b565b6200051e565b604051620002569190620026b7565b6200029c6200029636600462001a28565b620005c3565b6040516200025691906200248b565b62000276620005de565b620002cc620002c6366004620019e2565b620005e4565b005b620002cc620002df36600462001a8b565b620006db565b620002ef620007d0565b6040516200025691906200244c565b62000276620007df565b620002cc620007e5565b6200024762000323366004620019c1565b62000860565b620002cc6200033a36600462001a8b565b6200089d565b6200027662000a03565b620003616200035b36600462001a28565b62000a11565b60405162000256919062002724565b620002ef6200038136600462001a28565b62000a26565b6200024762000398366004620019e2565b62000a41565b62000276620003af36600462001b34565b62000aa5565b620002cc62000c54565b62000276620003d0366004620019c1565b62000d0a565b6200027662000d25565b6200027662000d2b565b62000247620003fb36600462001a28565b62000d31565b620002ef6200041236600462001a28565b62000d46565b620002cc6200042936600462001a28565b62000d61565b620002766200044036600462001a28565b62000e2f565b620002ef62000f2c565b6200029c6200046136600462001a28565b62000f40565b620002476200047836600462001a8b565b62000f5b565b620002cc6200048f36600462001a28565b62000f77565b6200027662001014565b620002cc620004b036600462001aca565b6200101a565b62000276620004c7366004620019c1565b620014d3565b620004e4620004de36600462001a28565b620014ee565b604051620002569291906200246c565b620002cc6200050536600462001bc8565b62001507565b620002cc620016c0565b60125460ff1681565b6000806200052d848462001757565b6000818152600c602090815260409182902054825163d6362e9760e01b815292519394506001600160a01b03169263d6362e97926004808201939291829003018186803b1580156200057e57600080fd5b505afa15801562000593573d6000803e3d6000fd5b505050506040513d601f19601f82011682018060405250620005b9919081019062001a6a565b9150505b92915050565b600c602052600090815260409020546001600160a01b031681565b600f5481565b336000908152600660205260409020546200061c5760405162461bcd60e51b815260040162000613906200252b565b60405180910390fd5b6200062f60083363ffffffff6200178c16565b156200064f5760405162461bcd60e51b8152600401620006139062002507565b60005b81811015620006d65760008383838181106200066a57fe5b905060200201351415620006925760405162461bcd60e51b815260040162000613906200253d565b6001600d6000858585818110620006a557fe5b60209081029290920135835250810191909152604001600020805460ff191691151591909117905560010162000652565b505050565b81620006fb5760405162461bcd60e51b815260040162000613906200266f565b600062000709838362001757565b90506200071681620017aa565b15620007365760405162461bcd60e51b815260040162000613906200249b565b6040516200074490620018bb565b604051809103906000f08015801562000761573d6000803e3d6000fd5b506000828152600c60205260409081902080546001600160a01b0319166001600160a01b039390931692909217909155517f0a925273fd754a41a580f8214815d5ae8a37367f561b3bd9d91a96730a418a1790620007c39085908590620026c7565b60405180910390a1505050565b6015546001600160a01b031690565b60105481565b33600090815260066020526040902054620008145760405162461bcd60e51b815260040162000613906200252b565b6200082760083363ffffffff6200178c16565b15620008475760405162461bcd60e51b8152600401620006139062002507565b600e5460ff166200085457fe5b600e805460ff19169055565b6001600160a01b03811660009081526006602052604081205415801590620005bd57506200089660088363ffffffff6200178c16565b1592915050565b620008a7620007d0565b336001600160a01b03821614620008d25760405162461bcd60e51b81526004016200061390620025a9565b82620008f25760405162461bcd60e51b8152600401620006139062002573565b6001600160a01b0382166200091b5760405162461bcd60e51b815260040162000613906200254f565b6000838152602081905260409020546001600160a01b031615620009535760405162461bcd60e51b815260040162000613906200264b565b6001600160a01b038216600090815260016020526040902054156200098c5760405162461bcd60e51b8152600401620006139062002615565b60008381526020818152604080832080546001600160a01b0319166001600160a01b038716908117909155835260019091529020839055620009d0600283620017c7565b7f7051aac27f9b76ec8f37bd5796f2dcf402bd840a1c45c952a6eeb0e11bde09968383604051620007c3929190620026c7565b601154600f54601054030190565b60009081526007602052604090205460ff1690565b6000908152602081905260409020546001600160a01b031690565b6000805b8281101562000a9b57600d600085858481811062000a5f57fe5b602090810292909201358352508101919091526040016000205460ff1615156001141562000a92576001915050620005bd565b60010162000a45565b5060009392505050565b3360009081526006602052604081205462000ad45760405162461bcd60e51b815260040162000613906200252b565b62000ae760083363ffffffff6200178c16565b1562000b075760405162461bcd60e51b8152600401620006139062002507565b600062000b15888862001757565b905062000b2281620017aa565b62000b415760405162461bcd60e51b81526004016200061390620024f5565b6000818152600c60205260408120546001600160a01b03169062000b778862000b70368a90038a018a62001a49565b886200186d565b6040516390b5561d60e01b81529091506001600160a01b038316906390b5561d9062000ba8908490600401620026b7565b600060405180830381600087803b15801562000bc357600080fd5b505af115801562000bd8573d6000803e3d6000fd5b5050506000828152600b60205260409081902080546001600160a01b0319166001600160a01b0389811691909117909155905190881691507fe15a4f223f922b625f5fdd941101a23fa0c097e522233d47a7cbea2167e927019062000c3f908490620026b7565b60405180910390a29998505050505050505050565b600e5461010090046001600160a01b031633811462000c875760405162461bcd60e51b81526004016200061390620025a9565b60125460ff161562000cad5760405162461bcd60e51b81526004016200061390620025bb565b60128054600160ff19909116179055600e546040517fb8421a1acb5f1e701a4f11ecaad76fa438b3947e8dfd6960b6086130e68e0aed9162000cff916101009091046001600160a01b0316906200244c565b60405180910390a150565b6001600160a01b031660009081526006602052604090205490565b6103e881565b60115481565b600d6020526000908152604090205460ff1681565b6000908152600560205260409020546001600160a01b031690565b600e5461010090046001600160a01b031633811462000d945760405162461bcd60e51b81526004016200061390620025a9565b60125460ff16151560011462000dbe5760405162461bcd60e51b81526004016200061390620024e3565b60108054604080518082018252858152426020808301918252600085815260139091528390209151825551600191820155600f5484540190935560119290925590517f5a978f4723b249ccf79cd7a658a8601ce1ff8b89fc770251a6be35216351ce3290620007c3908390620026b7565b3360009081526001602052604081205462000e5e5760405162461bcd60e51b81526004016200061390620025cd565b62000e7160023363ffffffff6200178c16565b1562000e915760405162461bcd60e51b815260040162000613906200265d565b60125460ff16151560011462000ebb5760405162461bcd60e51b81526004016200061390620024e3565b600f546011541062000ee15760405162461bcd60e51b8152600401620006139062002639565b600062000eed62000a03565b60408051808201825294855242602080870191825260008481526013909152919091209451855551600194850155601180549094019093555090919050565b600e5461010090046001600160a01b031681565b600b602052600090815260409020546001600160a01b031681565b60008062000f6a848462001757565b9050620005b981620017aa565b3360009081526006602052604090205462000fa65760405162461bcd60e51b815260040162000613906200252b565b62000fb960083363ffffffff6200178c16565b1562000fd95760405162461bcd60e51b8152600401620006139062002507565b8062000ff95760405162461bcd60e51b815260040162000613906200253d565b6000908152600d60205260409020805460ff19166001179055565b60145481565b600e5460ff1615620010405760405162461bcd60e51b81526004016200061390620025df565b600e805460ff1916600117905560006200105b858562001757565b90506200106881620017aa565b620010875760405162461bcd60e51b8152600401620006139062002603565b6000818152600c6020908152604080832054815163bda1504b60e01b815291516001600160a01b039091169392849263bda1504b9260048083019392829003018186803b158015620010d857600080fd5b505afa158015620010ed573d6000803e3d6000fd5b505050506040513d601f19601f8201168201806040525062001113919081019062001a6a565b11620011335760405162461bcd60e51b8152600401620006139062002627565b6000816001600160a01b031663d6362e976040518163ffffffff1660e01b815260040160206040518083038186803b1580156200116f57600080fd5b505afa15801562001184573d6000803e3d6000fd5b505050506040513d601f19601f82011682018060405250620011aa919081019062001a6a565b90506000620011b98262001898565b90506001600160a01b0386161580620011e35750856001600160a01b0316816001600160a01b0316145b620012025760405162461bcd60e51b8152600401620006139062002561565b6000828152600b60205260408120546001600160a01b0316905b86811080156200123f57504262001233856200189b565b67ffffffffffffffff16105b1562001471576000848152600b6020908152604080832080546001600160a01b03191690558051632c1d5dab60e21b815290516001600160a01b0389169363b07576ac93600480850194919392918390030190829087803b158015620012a457600080fd5b505af1158015620012b9573d6000803e3d6000fd5b505050506040513d601f19601f82011682018060405250620012df919081019062001a6a565b50604051636849635160e01b81526001909101906001600160a01b03831690636849635190620013189086908e908e9060040162002681565b600060405180830381600087803b1580156200133357600080fd5b505af115801562001348573d6000803e3d6000fd5b50505050846001600160a01b031663bda1504b6040518163ffffffff1660e01b815260040160206040518083038186803b1580156200138657600080fd5b505afa1580156200139b573d6000803e3d6000fd5b505050506040513d601f19601f82011682018060405250620013c1919081019062001a6a565b620013cc5762001471565b846001600160a01b031663d6362e976040518163ffffffff1660e01b815260040160206040518083038186803b1580156200140657600080fd5b505afa1580156200141b573d6000803e3d6000fd5b505050506040513d601f19601f8201168201806040525062001441919081019062001a6a565b93506200144e8462001898565b6000858152600b60205260409020549093506001600160a01b031691506200121c565b7f7e35599fe450e626673ce6c37179ef9820aed16f76c1b350618ef7a612d13005818b8b604051620014a69392919062002714565b60405180910390a15050600e5460ff169350620014c39250505057fe5b5050600e805460ff191690555050565b6001600160a01b031660009081526001602052604090205490565b6013602052600090815260409020805460019091015482565b62001511620007d0565b336001600160a01b038216146200153c5760405162461bcd60e51b81526004016200061390620025a9565b836200155c5760405162461bcd60e51b8152600401620006139062002585565b6001600160a01b038316620015855760405162461bcd60e51b81526004016200061390620024d1565b6000848152600560205260409020546001600160a01b031615620015bd5760405162461bcd60e51b81526004016200061390620025f1565b6001600160a01b03831660009081526006602052604090205415620015f65760405162461bcd60e51b81526004016200061390620024ad565b6200160182620018a1565b620016205760405162461bcd60e51b81526004016200061390620024bf565b600084815260056020908152604080832080546001600160a01b0319166001600160a01b03881690811790915583526006825280832087905586835260079091529020805460ff191660ff84161790556200167d600884620017c7565b7f0ceb02f7474c01f5959171cead2f5fb2a44d9c16fe480725a2110b601b19db82848484604051620016b293929190620026e6565b60405180910390a150505050565b33600090815260066020526040902054620016ef5760405162461bcd60e51b815260040162000613906200252b565b6200170260083363ffffffff6200178c16565b15620017225760405162461bcd60e51b8152600401620006139062002507565b600e5460ff1615620017485760405162461bcd60e51b81526004016200061390620025df565b600e805460ff19166001179055565b600082826040516020016200176e92919062002422565b60405160208183030381529060405280519060200120905092915050565b6001600160a01b031660009081526020919091526040902054421090565b6000908152600c60205260409020546001600160a01b0316151590565b6001600160a01b038116620017f05760405162461bcd60e51b8152600401620006139062002597565b6001600160a01b03811660009081526020839052604090205415620018295760405162461bcd60e51b8152600401620006139062002519565b60028201546200185c5760018201546001600160a01b038216600090815260208490526040902042909101905562001869565b6002820180546000190190555b5050565b81516001600160d61b031960d685901b1660a09190911b176001600160a01b038216175b9392505050565b90565b60d61c90565b600060ff821660011480620005bd57505060ff1660021490565b61099e806200280983390190565b8035620005bd81620027b7565b60008083601f840112620018e957600080fd5b50813567ffffffffffffffff8111156200190257600080fd5b6020830191508360208202830111156200191b57600080fd5b9250929050565b8035620005bd81620027d1565b8035620005bd81620027dc565b6000602082840312156200194f57600080fd5b50919050565b6000602082840312156200196857600080fd5b62001974602062002734565b9050600062001984848462001922565b82525092915050565b8035620005bd81620027e7565b8051620005bd81620027d1565b8035620005bd81620027f2565b8035620005bd81620027fd565b600060208284031215620019d457600080fd5b6000620005b98484620018c9565b60008060208385031215620019f657600080fd5b823567ffffffffffffffff81111562001a0e57600080fd5b62001a1c85828601620018d6565b92509250509250929050565b60006020828403121562001a3b57600080fd5b6000620005b9848462001922565b60006020828403121562001a5c57600080fd5b6000620005b9848462001955565b60006020828403121562001a7d57600080fd5b6000620005b984846200199a565b6000806040838503121562001a9f57600080fd5b600062001aad858562001922565b925050602062001ac085828601620018c9565b9150509250929050565b6000806000806080858703121562001ae157600080fd5b600062001aef878762001922565b945050602062001b0287828801620018c9565b935050604062001b15878288016200198d565b925050606062001b288782880162001922565b91505092959194509250565b60008060008060008060c0878903121562001b4e57600080fd5b600062001b5c898962001922565b965050602062001b6f89828a01620018c9565b955050604062001b8289828a01620019a7565b945050606062001b9589828a016200193c565b935050608062001ba889828a016200198d565b92505060a062001bbb89828a016200192f565b9150509295509295509295565b60008060006060848603121562001bde57600080fd5b600062001bec868662001922565b935050602062001bff86828701620018c9565b925050604062001c1286828701620019b4565b9150509250925092565b62001c278162002765565b82525050565b62001c2762001c3c8262002765565b620027a3565b62001c278162002772565b62001c278162001898565b62001c278162002777565b600062001c726011836200275c565b70457869742071756575652065786973747360781b815260200192915050565b600062001ca1602c836200275c565b7f54686520657869742067616d6520636f6e747261637420697320616c7265616481526b1e481c9959da5cdd195c995960a21b602082015260400192915050565b600062001cf16016836200275c565b75496e76616c69642070726f746f636f6c2076616c756560501b815260200192915050565b600062001d256033836200275c565b7f53686f756c64206e6f74207265676973746572207769746820616e20656d70748152727920657869742067616d65206164647265737360681b602082015260400192915050565b600062001d7c603b836200275c565b7f4368696c6420636861696e20686173206e6f74206265656e206163746976617481527f656420627920617574686f726974792061646472657373207965740000000000602082015260400192915050565b600062001ddd6050836200275c565b7f54686520717565756520666f722074686520287661756c7449642c20746f6b6581527f6e292070616972206973206e6f742079657420616464656420746f207468652060208201526f506c61736d61206672616d65776f726b60801b604082015260600192915050565b600062001e576017836200275c565b7f4578697447616d652069732071756172616e74696e6564000000000000000000815260200192915050565b600062001e926023836200275c565b7f54686520636f6e747261637420697320616c72656164792071756172616e74698152621b995960ea1b602082015260400192915050565b600062001ed96034836200275c565b7f5468652063616c6c206973206e6f742066726f6d2061207265676973746572658152731908195e1a5d0819d85b594818dbdb9d1c9858dd60621b602082015260400192915050565b600062001f316023836200275c565b7f53686f756c64206e6f7420666c6167207769746820656d707479206f757470758152621d125960ea1b602082015260400192915050565b600062001f78602a836200275c565b7f53686f756c64206e6f7420726567697374657220616e20656d707479207661758152696c74206164647265737360b01b602082015260400192915050565b600062001fc6603a836200275c565b7f546f702065786974204944206f6620746865207175657565206973206469666681527f6572656e7420746f20746865206f6e6520737065636966696564000000000000602082015260400192915050565b6000620020276023836200275c565b7f53686f756c64206e6f742072656769737465722077697468207661756c74204981526204420360ec1b602082015260400192915050565b60006200206e6022836200275c565b7f53686f756c64206e6f7420726567697374657220776974682074782074797065815261020360f41b602082015260400192915050565b6000620020b46026836200275c565b7f416e20656d70747920616464726573732063616e6e6f742062652071756172618152651b9d1a5b995960d21b602082015260400192915050565b6000620020fe601e836200275c565b7f43616c6c6572206164647265737320697320756e617574686f72697a65640000815260200192915050565b600062002139601d836200275c565b7f4368696c6420636861696e20616c726561647920616374697661746564000000815260200192915050565b6000620021746027836200275c565b7f5468652063616c6c206973206e6f742066726f6d20612072656769737465726581526619081d985d5b1d60ca1b602082015260400192915050565b6000620021bf600e836200275c565b6d1499595b9d1c985b9d0818d85b1b60921b815260200192915050565b6000620021eb6021836200275c565b7f546865207478207479706520697320616c7265616479207265676973746572658152601960fa1b602082015260400192915050565b6000620022306032836200275c565b7f54686520746f6b656e206973206e6f742079657420616464656420746f2074688152716520506c61736d61206672616d65776f726b60701b602082015260400192915050565b6000620022866028836200275c565b7f546865207661756c7420636f6e747261637420697320616c726561647920726581526719da5cdd195c995960c21b602082015260400192915050565b6000620022d26013836200275c565b724578697420717565756520697320656d70747960681b815260200192915050565b6000620023036033836200275c565b7f4578636565646564206c696d6974206f66206465706f736974732070657220638152721a1a5b1908189b1bd8dac81a5b9d195c9d985b606a1b602082015260400192915050565b60006200235a6022836200275c565b7f546865207661756c7420494420697320616c7265616479207265676973746572815261195960f21b602082015260400192915050565b6000620023a06014836200275c565b7315985d5b1d081a5cc81c5d585c985b9d1a5b995960621b815260200192915050565b6000620023d26016836200275c565b7505661756c74204944206d757374206e6f7420626520360541b815260200192915050565b62001c278162002784565b62001c27620024118262001898565b62001898565b62001c27816200279d565b600062002430828562002402565b60208201915062002442828462001c2d565b5060140192915050565b60208101620005bd828462001c1c565b60208101620005bd828462001c42565b604081016200247c828562001c4d565b62001891602083018462001c4d565b60208101620005bd828462001c58565b60208082528101620005bd8162001c63565b60208082528101620005bd8162001c92565b60208082528101620005bd8162001ce2565b60208082528101620005bd8162001d16565b60208082528101620005bd8162001d6d565b60208082528101620005bd8162001dce565b60208082528101620005bd8162001e48565b60208082528101620005bd8162001e83565b60208082528101620005bd8162001eca565b60208082528101620005bd8162001f22565b60208082528101620005bd8162001f69565b60208082528101620005bd8162001fb7565b60208082528101620005bd8162002018565b60208082528101620005bd816200205f565b60208082528101620005bd81620020a5565b60208082528101620005bd81620020ef565b60208082528101620005bd816200212a565b60208082528101620005bd8162002165565b60208082528101620005bd81620021b0565b60208082528101620005bd81620021dc565b60208082528101620005bd8162002221565b60208082528101620005bd8162002277565b60208082528101620005bd81620022c3565b60208082528101620005bd81620022f4565b60208082528101620005bd816200234b565b60208082528101620005bd8162002391565b60208082528101620005bd81620023c3565b60608101620026918286620023f7565b620026a0602083018562001c4d565b620026af604083018462001c1c565b949350505050565b60208101620005bd828462001c4d565b60408101620026d7828562001c4d565b62001891602083018462001c1c565b60608101620026f6828662001c4d565b62002705602083018562001c1c565b620026af604083018462002417565b6060810162002691828662001c4d565b60208101620005bd828462002417565b60405181810167ffffffffffffffff811182821017156200275457600080fd5b604052919050565b90815260200190565b6000620005bd8262002784565b151590565b6000620005bd8262002765565b6001600160a01b031690565b67ffffffffffffffff1690565b60ff1690565b6000620005bd826000620005bd8260601b90565b620027c28162002765565b8114620027ce57600080fd5b50565b620027c28162001898565b620027c28162002777565b620027c28162002784565b620027c28162002790565b620027c2816200279d56fe608060405234801561001057600080fd5b506040805160208101909152600080825261002c916001610049565b506000600155600280546001600160a01b031916331790556100b6565b828054828255906000526020600020908101928215610089579160200282015b82811115610089578251829060ff16905591602001919060010190610069565b50610095929150610099565b5090565b6100b391905b80821115610095576000815560010161009f565b90565b6108d9806100c56000396000f3fe608060405234801561001057600080fd5b506004361061007d5760003560e01c8063bda1504b1161005b578063bda1504b14610113578063d6362e971461011b578063e10d29ee14610123578063e9de55531461012b5761007d565b8063446b2f881461008257806390b5561d146100da578063b07576ac146100f9575b600080fd5b61008a61014f565b60408051602080825283518183015283519192839290830191858101910280838360005b838110156100c65781810151838201526020016100ae565b505050509050019250505060405180910390f35b6100f7600480360360208110156100f057600080fd5b50356101aa565b005b610101610263565b60408051918252519081900360200190f35b6101016103c5565b6101016103cb565b610101610432565b610133610438565b604080516001600160a01b039092168252519081900360200190f35b60606000800180548060200260200160405190810160405280929190818152602001828054801561019f57602002820191906000526020600020905b81548152602001906001019080831161018b575b505050505090505b90565b6002546001600160a01b031633811461020a576040805162461bcd60e51b815260206004820152601e60248201527f43616c6c6572206164647265737320697320756e617574686f72697a65640000604482015290519081900360640190fd5b60008054600181810183559180527f290decd9548b62a8d60345a988386fc84ba6bc95484008f6362f93160ef3e56301839055805461024e9163ffffffff61044716565b600181905561025f906000906104aa565b5050565b6002546000906001600160a01b03163381146102c6576040805162461bcd60e51b815260206004820152601e60248201527f43616c6c6572206164647265737320697320756e617574686f72697a65640000604482015290519081900360640190fd5b60015461030b576040805162461bcd60e51b815260206004820152600e60248201526d517565756520697320656d70747960901b604482015290519081900360640190fd5b60008060000160018154811061031d57fe5b6000918252602082200154600154825491935090811061033957fe5b90600052602060002001546000800160018154811061035457fe5b60009182526020822001919091556001548154811061036f57fe5b60009182526020822001556001805461038d9163ffffffff61058016565b600190815561039e906000906105dd565b6000546103b290600163ffffffff61058016565b6103bd600082610840565b5091505b5090565b60015490565b600154600090610413576040805162461bcd60e51b815260206004820152600e60248201526d517565756520697320656d70747960901b604482015290519081900360640190fd5b60008054600190811061042257fe5b9060005260206000200154905090565b60015481565b6002546001600160a01b031681565b6000828201838110156104a1576040805162461bcd60e51b815260206004820152601b60248201527f536166654d6174683a206164646974696f6e206f766572666c6f770000000000604482015290519081900360640190fd5b90505b92915050565b8154819081906000908590839081106104bf57fe5b906000526020600020015490505b846104df84600263ffffffff6106b416565b815481106104e957fe5b9060005260206000200154811015610555578461050d84600263ffffffff6106b416565b8154811061051757fe5b906000526020600020015485600001848154811061053157fe5b60009182526020909120015561054e83600263ffffffff6106b416565b92506104cd565b818314610579578085600001848154811061056c57fe5b6000918252602090912001555b5050505050565b6000828211156105d7576040805162461bcd60e51b815260206004820152601e60248201527f536166654d6174683a207375627472616374696f6e206f766572666c6f770000604482015290519081900360640190fd5b50900390565b8154819081906000908590839081106105f257fe5b90600052602060002001549050600061060b868561071e565b90505b8560010154811115801561063a575085600001818154811061062c57fe5b906000526020600020015482115b156106885785600001818154811061064e57fe5b906000526020600020015486600001858154811061066857fe5b600091825260209091200155925082610681868261071e565b905061060e565b8284146106ac578186600001858154811061069f57fe5b6000918252602090912001555b505050505050565b600080821161070a576040805162461bcd60e51b815260206004820152601a60248201527f536166654d6174683a206469766973696f6e206279207a65726f000000000000604482015290519081900360640190fd5b600082848161071557fe5b04949350505050565b6001808301546000916107489061073c85600263ffffffff6107e716565b9063ffffffff61044716565b11156107665761075f82600263ffffffff6107e716565b90506104a4565b8261077d600161073c85600263ffffffff6107e716565b8154811061078757fe5b600091825260209091200154836107a584600263ffffffff6107e716565b815481106107af57fe5b906000526020600020015410156107d15761075f82600263ffffffff6107e716565b61075f600161073c84600263ffffffff6107e716565b6000826107f6575060006104a4565b8282028284828161080357fe5b04146104a15760405162461bcd60e51b81526004018080602001828103825260218152602001806108846021913960400191505060405180910390fd5b81548183558181111561086457600083815260209020610864918101908301610869565b505050565b6101a791905b808211156103c1576000815560010161086f56fe536166654d6174683a206d756c7469706c69636174696f6e206f766572666c6f77a265627a7a72315820c6d093e3cb861c2f3d7e0da0c41de597c3612f1688360db1a528767863989fe064736f6c634300050b0032a365627a7a723158207b443500a3f48a405c1637f0430be06722bf8850f3cb95e56138b5a61c8133d26c6578706572696d656e74616cf564736f6c634300050b0040",
  "source": "pragma solidity 0.5.11;\npragma experimental ABIEncoderV2;\n\nimport \"./BlockController.sol\";\nimport \"./ExitGameController.sol\";\nimport \"./registries/VaultRegistry.sol\";\nimport \"./registries/ExitGameRegistry.sol\";\n\ncontract PlasmaFramework is VaultRegistry, ExitGameRegistry, ExitGameController, BlockController {\n    uint256 public constant CHILD_BLOCK_INTERVAL = 1000;\n\n    /**\n     * The minimum finalization period is the Plasma guarantee that all exits are safe provided the user takes action within the specified time period\n     * When the child chain is rogue, user should start their exit and challenge any invalid exit within this period\n     * An exit can be processed/finalized after minimum two finalization periods from its inclusion position, unless it is an exit for a deposit,\n     * which would use one finalization period, instead of two\n     *\n     * For the Abstract Layer Design, OmiseGO also uses some multitude of this period to update its framework\n     * See also ExitGameRegistry.sol, VaultRegistry.sol, and Vault.sol for more information on the update waiting time (the quarantined period)\n     *\n     * MVP: https://ethresear.ch/t/minimal-viable-plasma/426\n     * MoreVP: https://github.com/omisego/elixir-omg/blob/master/docs/morevp.md#timeline\n     * Special period for deposit: https://git.io/JecCV\n     */\n    uint256 public minExitPeriod;\n    address private maintainer;\n\n    constructor(\n        uint256 _minExitPeriod,\n        uint256 _initialImmuneVaults,\n        uint256 _initialImmuneExitGames,\n        address _authority,\n        address _maintainer\n    )\n        public\n        BlockController(CHILD_BLOCK_INTERVAL, _minExitPeriod, _initialImmuneVaults, _authority)\n        ExitGameController(_minExitPeriod, _initialImmuneExitGames)\n    {\n        minExitPeriod = _minExitPeriod;\n        maintainer = _maintainer;\n    }\n\n    function getMaintainer() public view returns (address) {\n        return maintainer;\n    }\n}\n",
  "sourcePath": "/Users/nocholas/plasma-contracts/plasma_framework/contracts/src/framework/PlasmaFramework.sol",
  "compiler": {
    "name": "solc",
    "version": "0.5.11+commit.c082d0b4.Emscripten.clang"
  },
  "schemaVersion": "3.0.16",
  "updatedAt": "2019-11-20T03:26:32.301Z",
  "devdoc": {
    "methods": {
      "activateChildChain()": {
        "details": "This is a preserved action for authority account to start its nonce with 1.     Child chain rely ethereum nonce to protect re-org: https://git.io/JecDG     see discussion: https://git.io/JenaT, https://git.io/JecDO"
      },
      "activateNonReentrant()": {
        "details": "Accessible only from non quarantined exit games, uses a mutex"
      },
      "addExitQueue(uint256,address)": {
        "details": "The queue is created as a new contract instance",
        "params": {
          "token": "Address of the token",
          "vaultId": "ID of the vault"
        }
      },
      "batchFlagOutputsSpent(bytes32[])": {
        "params": {
          "_outputIds": "Output IDs to flag"
        }
      },
      "deactivateNonReentrant()": {
        "details": "Accessible only from non quarantined exit games, uses a mutex"
      },
      "enqueue(uint256,address,uint64,(uint256),uint160,address)": {
        "details": "emits ExitQueued event, which can be used to back trace the priority inside the queueCaller of this function should add \"pragma experimental ABIEncoderV2;\" on top of file",
        "params": {
          "exitId": "ID used by the exit processor contract to determine how to process the exit",
          "exitProcessor": "The exit processor contract, called during \"processExits\"",
          "exitableAt": "The earliest time a specified exit can be processed",
          "token": "Token for the exit",
          "txPos": "Transaction position for the exit priority. For SE it should be the exit tx, for IFE it should be the youngest input tx position.",
          "vaultId": "Vault ID of the vault that stores exiting funds"
        },
        "return": "A unique priority number computed for the exit"
      },
      "flagOutputSpent(bytes32)": {
        "params": {
          "_outputId": "The output ID to flag as spent"
        }
      },
      "hasExitQueue(uint256,address)": {
        "params": {
          "token": "Address of the token",
          "vaultId": "ID of the vault that handles the token"
        },
        "return": "bool Defines whether the queue for a token was created"
      },
      "isAnyOutputsSpent(bytes32[])": {
        "params": {
          "_outputIds": "Output IDs to check"
        }
      },
      "isExitGameSafeToUse(address)": {
        "details": "Exposes information about exit games quarantine",
        "params": {
          "_contract": "Address of the exit game contract"
        },
        "return": "boolean Whether the contract is safe to use and is not under quarantine"
      },
      "processExits(uint256,address,uint160,uint256)": {
        "details": "Emits ProcessedExitsNum event",
        "params": {
          "maxExitsToProcess": "Maximum number of exits to process",
          "token": "The token type to process",
          "topExitId": "Unique identifier for prioritizing the first exit to process. Set to zero to skip this check.",
          "vaultId": "Vault ID of the vault that stores exiting funds"
        },
        "return": "Total number of processed exits"
      },
      "registerExitGame(uint256,address,uint8)": {
        "details": "Emits ExitGameRegistered event to notify clients",
        "params": {
          "_contract": "Address of the exit game contract",
          "_protocol": "The transaction protocol, either 1 for MVP or 2 for MoreVP",
          "_txType": "The tx type where the exit game wants to register"
        }
      },
      "registerVault(uint256,address)": {
        "details": "emits VaultRegistered event to notify clients",
        "params": {
          "_vaultAddress": "Address of the vault contract",
          "_vaultId": "The ID for the vault contract to register"
        }
      },
      "submitBlock(bytes32)": {
        "details": "emit BlockSubmitted eventBlock number jumps 'childBlockInterval' per submissionSee discussion in https://github.com/omisego/plasma-contracts/issues/233",
        "params": {
          "_blockRoot": "Merkle root of the Plasma block"
        }
      },
      "submitDepositBlock(bytes32)": {
        "details": "Block number adds 1 per submission; it's possible to have at most 'childBlockInterval' deposit blocks between two child chain blocks",
        "params": {
          "_blockRoot": "Merkle root of the Plasma block"
        },
        "return": "The deposit block number"
      }
    }
  },
  "userdoc": {
    "methods": {
      "activateChildChain()": {
        "notice": "Activates the child chain so that child chain can start to submit child blocks to root chainCan only be called once by the authority.Sets isChildChainActivated to true and emits the ChildChainActivated event."
      },
      "activateNonReentrant()": {
        "notice": "Activates non reentrancy mode        Guards against reentering into publicly accessible code that modifies state related to exits"
      },
      "addExitQueue(uint256,address)": {
        "notice": "Adds queue to the Plasma framework"
      },
      "batchFlagOutputsSpent(bytes32[])": {
        "notice": "Batch flags already spent outputs"
      },
      "deactivateNonReentrant()": {
        "notice": "Deactivates non reentrancy mode"
      },
      "enqueue(uint256,address,uint64,(uint256),uint160,address)": {
        "notice": "Enqueue exits from exit game contracts is a function that places the exit into the        priority queue to enforce the priority of exit during 'processExits'"
      },
      "exitGameToTxType(address)": {
        "notice": "Public getter for retrieving tx type with exit game address"
      },
      "exitGames(uint256)": {
        "notice": "Public getter for retrieving exit game address with tx type"
      },
      "flagOutputSpent(bytes32)": {
        "notice": "Flags a single output as spent"
      },
      "hasExitQueue(uint256,address)": {
        "notice": "Checks if the queue for a specified token was created"
      },
      "isAnyOutputsSpent(bytes32[])": {
        "notice": "Checks whether any of the output with the given outputIds is already spent"
      },
      "isExitGameSafeToUse(address)": {
        "notice": "Checks whether the contract is safe to use and is not under quarantine"
      },
      "processExits(uint256,address,uint160,uint256)": {
        "notice": "Processes any exits that have completed the challenge period. Exits are processed according to the exit priority."
      },
      "protocols(uint256)": {
        "notice": "Public getter for retrieving protocol with tx type"
      },
      "registerExitGame(uint256,address,uint8)": {
        "notice": "Registers an exit game within the PlasmaFramework. Only the maintainer can call the function."
      },
      "registerVault(uint256,address)": {
        "notice": "Register a vault within the PlasmaFramework. Only a maintainer can make the call."
      },
      "submitBlock(bytes32)": {
        "notice": "Allows the authority to submit the Merkle root of a Plasma block"
      },
      "submitDepositBlock(bytes32)": {
        "notice": "Submits a block for deposit"
      },
      "vaultToId(address)": {
        "notice": "Public getter for retrieving vault ID with vault address"
      },
      "vaults(uint256)": {
        "notice": "Public getter for retrieving vault address with vault ID"
      }
    }
  }
}