{
  "contractName": "PlasmaFramework",
  "abi": [
    {
      "constant": true,
      "inputs": [],
      "name": "isChildChainActivated",
      "outputs": [
        {
          "internalType": "bool",
          "name": "",
          "type": "bool"
        }
      ],
      "payable": false,
      "stateMutability": "view",
      "type": "function"
    },
    {
      "constant": true,
      "inputs": [
        {
          "internalType": "uint256",
          "name": "vaultId",
          "type": "uint256"
        },
        {
          "internalType": "address",
          "name": "token",
          "type": "address"
        }
      ],
      "name": "getNextExit",
      "outputs": [
        {
          "internalType": "uint256",
          "name": "",
          "type": "uint256"
        }
      ],
      "payable": false,
      "stateMutability": "view",
      "type": "function"
    },
    {
      "constant": true,
      "inputs": [
        {
          "internalType": "bytes32",
          "name": "",
          "type": "bytes32"
        }
      ],
      "name": "exitsQueues",
      "outputs": [
        {
          "internalType": "contract PriorityQueue",
          "name": "",
          "type": "address"
        }
      ],
      "payable": false,
      "stateMutability": "view",
      "type": "function"
    },
    {
      "constant": true,
      "inputs": [],
      "name": "childBlockInterval",
      "outputs": [
        {
          "internalType": "uint256",
          "name": "",
          "type": "uint256"
        }
      ],
      "payable": false,
      "stateMutability": "view",
      "type": "function"
    },
    {
      "constant": false,
      "inputs": [
        {
          "internalType": "bytes32[]",
          "name": "_outputIds",
          "type": "bytes32[]"
        }
      ],
      "name": "batchFlagOutputsSpent",
      "outputs": [],
      "payable": false,
      "stateMutability": "nonpayable",
      "type": "function"
    },
    {
      "constant": false,
      "inputs": [
        {
          "internalType": "uint256",
          "name": "vaultId",
          "type": "uint256"
        },
        {
          "internalType": "address",
          "name": "token",
          "type": "address"
        }
      ],
      "name": "addExitQueue",
      "outputs": [],
      "payable": false,
      "stateMutability": "nonpayable",
      "type": "function"
    },
    {
      "constant": true,
      "inputs": [],
      "name": "nextChildBlock",
      "outputs": [
        {
          "internalType": "uint256",
          "name": "",
          "type": "uint256"
        }
      ],
      "payable": false,
      "stateMutability": "view",
      "type": "function"
    },
    {
      "constant": false,
      "inputs": [],
      "name": "deactivateNonReentrant",
      "outputs": [],
      "payable": false,
      "stateMutability": "nonpayable",
      "type": "function"
    },
    {
      "constant": true,
      "inputs": [
        {
          "internalType": "address",
          "name": "_contract",
          "type": "address"
        }
      ],
      "name": "isExitGameSafeToUse",
      "outputs": [
        {
          "internalType": "bool",
          "name": "",
          "type": "bool"
        }
      ],
      "payable": false,
      "stateMutability": "view",
      "type": "function"
    },
    {
      "constant": false,
      "inputs": [
        {
          "internalType": "uint256",
          "name": "_vaultId",
          "type": "uint256"
        },
        {
          "internalType": "address",
          "name": "_vaultAddress",
          "type": "address"
        }
      ],
      "name": "registerVault",
      "outputs": [],
      "payable": false,
      "stateMutability": "nonpayable",
      "type": "function"
    },
    {
      "constant": true,
      "inputs": [],
      "name": "nextDepositBlock",
      "outputs": [
        {
          "internalType": "uint256",
          "name": "",
          "type": "uint256"
        }
      ],
      "payable": false,
      "stateMutability": "view",
      "type": "function"
    },
    {
      "constant": false,
      "inputs": [
        {
          "internalType": "uint256",
          "name": "vaultId",
          "type": "uint256"
        },
        {
          "internalType": "address",
          "name": "token",
          "type": "address"
        },
        {
          "internalType": "uint64",
          "name": "exitableAt",
          "type": "uint64"
        },
        {
          "components": [
            {
              "internalType": "uint256",
              "name": "blockNum",
              "type": "uint256"
            },
            {
              "internalType": "uint256",
              "name": "txIndex",
              "type": "uint256"
            },
            {
              "internalType": "uint16",
              "name": "outputIndex",
              "type": "uint16"
            }
          ],
          "internalType": "struct PosLib.Position",
          "name": "txPos",
          "type": "tuple"
        },
        {
          "internalType": "uint160",
          "name": "exitId",
          "type": "uint160"
        },
        {
          "internalType": "contract IExitProcessor",
          "name": "exitProcessor",
          "type": "address"
        }
      ],
      "name": "enqueue",
      "outputs": [
        {
          "internalType": "uint256",
          "name": "",
          "type": "uint256"
        }
      ],
      "payable": false,
      "stateMutability": "nonpayable",
      "type": "function"
    },
    {
      "constant": true,
      "inputs": [
        {
          "internalType": "uint256",
          "name": "_txType",
          "type": "uint256"
        }
      ],
      "name": "protocols",
      "outputs": [
        {
          "internalType": "uint8",
          "name": "",
          "type": "uint8"
        }
      ],
      "payable": false,
      "stateMutability": "view",
      "type": "function"
    },
    {
      "constant": true,
      "inputs": [
        {
          "internalType": "uint256",
          "name": "_vaultId",
          "type": "uint256"
        }
      ],
      "name": "vaults",
      "outputs": [
        {
          "internalType": "address",
          "name": "",
          "type": "address"
        }
      ],
      "payable": false,
      "stateMutability": "view",
      "type": "function"
    },
    {
      "constant": true,
      "inputs": [
        {
          "internalType": "bytes32[]",
          "name": "_outputIds",
          "type": "bytes32[]"
        }
      ],
      "name": "isAnyOutputsSpent",
      "outputs": [
        {
          "internalType": "bool",
          "name": "",
          "type": "bool"
        }
      ],
      "payable": false,
      "stateMutability": "view",
      "type": "function"
    },
    {
      "constant": false,
      "inputs": [],
      "name": "activateChildChain",
      "outputs": [],
      "payable": false,
      "stateMutability": "nonpayable",
      "type": "function"
    },
    {
      "constant": true,
      "inputs": [
        {
          "internalType": "address",
          "name": "_exitGame",
          "type": "address"
        }
      ],
      "name": "exitGameToTxType",
      "outputs": [
        {
          "internalType": "uint256",
          "name": "",
          "type": "uint256"
        }
      ],
      "payable": false,
      "stateMutability": "view",
      "type": "function"
    },
    {
      "constant": true,
      "inputs": [],
      "name": "CHILD_BLOCK_INTERVAL",
      "outputs": [
        {
          "internalType": "uint256",
          "name": "",
          "type": "uint256"
        }
      ],
      "payable": false,
      "stateMutability": "view",
      "type": "function"
    },
    {
      "constant": true,
      "inputs": [],
      "name": "nextDeposit",
      "outputs": [
        {
          "internalType": "uint256",
          "name": "",
          "type": "uint256"
        }
      ],
      "payable": false,
      "stateMutability": "view",
      "type": "function"
    },
    {
      "constant": true,
      "inputs": [
        {
          "internalType": "bytes32",
          "name": "",
          "type": "bytes32"
        }
      ],
      "name": "isOutputSpent",
      "outputs": [
        {
          "internalType": "bool",
          "name": "",
          "type": "bool"
        }
      ],
      "payable": false,
      "stateMutability": "view",
      "type": "function"
    },
    {
      "constant": true,
      "inputs": [
        {
          "internalType": "uint256",
          "name": "_txType",
          "type": "uint256"
        }
      ],
      "name": "exitGames",
      "outputs": [
        {
          "internalType": "address",
          "name": "",
          "type": "address"
        }
      ],
      "payable": false,
      "stateMutability": "view",
      "type": "function"
    },
    {
      "constant": false,
      "inputs": [
        {
          "internalType": "bytes32",
          "name": "_blockRoot",
          "type": "bytes32"
        }
      ],
      "name": "submitBlock",
      "outputs": [],
      "payable": false,
      "stateMutability": "nonpayable",
      "type": "function"
    },
    {
      "constant": false,
      "inputs": [
        {
          "internalType": "bytes32",
          "name": "_blockRoot",
          "type": "bytes32"
        }
      ],
      "name": "submitDepositBlock",
      "outputs": [
        {
          "internalType": "uint256",
          "name": "",
          "type": "uint256"
        }
      ],
      "payable": false,
      "stateMutability": "nonpayable",
      "type": "function"
    },
    {
      "constant": true,
      "inputs": [],
      "name": "authority",
      "outputs": [
        {
          "internalType": "address",
          "name": "",
          "type": "address"
        }
      ],
      "payable": false,
      "stateMutability": "view",
      "type": "function"
    },
    {
      "constant": true,
      "inputs": [
        {
          "internalType": "uint256",
          "name": "",
          "type": "uint256"
        }
      ],
      "name": "delegations",
      "outputs": [
        {
          "internalType": "contract IExitProcessor",
          "name": "",
          "type": "address"
        }
      ],
      "payable": false,
      "stateMutability": "view",
      "type": "function"
    },
    {
      "constant": true,
      "inputs": [
        {
          "internalType": "uint256",
          "name": "vaultId",
          "type": "uint256"
        },
        {
          "internalType": "address",
          "name": "token",
          "type": "address"
        }
      ],
      "name": "hasExitQueue",
      "outputs": [
        {
          "internalType": "bool",
          "name": "",
          "type": "bool"
        }
      ],
      "payable": false,
      "stateMutability": "view",
      "type": "function"
    },
    {
      "constant": false,
      "inputs": [
        {
          "internalType": "bytes32",
          "name": "_outputId",
          "type": "bytes32"
        }
      ],
      "name": "flagOutputSpent",
      "outputs": [],
      "payable": false,
      "stateMutability": "nonpayable",
      "type": "function"
    },
    {
      "constant": true,
      "inputs": [],
      "name": "minExitPeriod",
      "outputs": [
        {
          "internalType": "uint256",
          "name": "",
          "type": "uint256"
        }
      ],
      "payable": false,
      "stateMutability": "view",
      "type": "function"
    },
    {
      "constant": false,
      "inputs": [
        {
          "internalType": "uint256",
          "name": "vaultId",
          "type": "uint256"
        },
        {
          "internalType": "address",
          "name": "token",
          "type": "address"
        },
        {
          "internalType": "uint160",
          "name": "topExitId",
          "type": "uint160"
        },
        {
          "internalType": "uint256",
          "name": "maxExitsToProcess",
          "type": "uint256"
        }
      ],
      "name": "processExits",
      "outputs": [],
      "payable": false,
      "stateMutability": "nonpayable",
      "type": "function"
    },
    {
      "constant": true,
      "inputs": [
        {
          "internalType": "address",
          "name": "_vaultAddress",
          "type": "address"
        }
      ],
      "name": "vaultToId",
      "outputs": [
        {
          "internalType": "uint256",
          "name": "",
          "type": "uint256"
        }
      ],
      "payable": false,
      "stateMutability": "view",
      "type": "function"
    },
    {
      "constant": true,
      "inputs": [
        {
          "internalType": "uint256",
          "name": "blockNum",
          "type": "uint256"
        }
      ],
      "name": "isDeposit",
      "outputs": [
        {
          "internalType": "bool",
          "name": "",
          "type": "bool"
        }
      ],
      "payable": false,
      "stateMutability": "view",
      "type": "function"
    },
    {
      "constant": true,
      "inputs": [
        {
          "internalType": "uint256",
          "name": "",
          "type": "uint256"
        }
      ],
      "name": "blocks",
      "outputs": [
        {
          "internalType": "bytes32",
          "name": "root",
          "type": "bytes32"
        },
        {
          "internalType": "uint256",
          "name": "timestamp",
          "type": "uint256"
        }
      ],
      "payable": false,
      "stateMutability": "view",
      "type": "function"
    },
    {
      "constant": false,
      "inputs": [
        {
          "internalType": "uint256",
          "name": "_txType",
          "type": "uint256"
        },
        {
          "internalType": "address",
          "name": "_contract",
          "type": "address"
        },
        {
          "internalType": "uint8",
          "name": "_protocol",
          "type": "uint8"
        }
      ],
      "name": "registerExitGame",
      "outputs": [],
      "payable": false,
      "stateMutability": "nonpayable",
      "type": "function"
    },
    {
      "constant": false,
      "inputs": [],
      "name": "activateNonReentrant",
      "outputs": [],
      "payable": false,
      "stateMutability": "nonpayable",
      "type": "function"
    },
    {
      "inputs": [
        {
          "internalType": "uint256",
          "name": "_minExitPeriod",
          "type": "uint256"
        },
        {
          "internalType": "uint256",
          "name": "_initialImmuneVaults",
          "type": "uint256"
        },
        {
          "internalType": "uint256",
          "name": "_initialImmuneExitGames",
          "type": "uint256"
        },
        {
          "internalType": "address",
          "name": "_authority",
          "type": "address"
        },
        {
          "internalType": "address",
          "name": "_maintainer",
          "type": "address"
        }
      ],
      "payable": false,
      "stateMutability": "nonpayable",
      "type": "constructor"
    },
    {
      "anonymous": false,
      "inputs": [
        {
          "indexed": false,
          "internalType": "uint256",
          "name": "blockNumber",
          "type": "uint256"
        }
      ],
      "name": "BlockSubmitted",
      "type": "event"
    },
    {
      "anonymous": false,
      "inputs": [
        {
          "indexed": false,
          "internalType": "address",
          "name": "authority",
          "type": "address"
        }
      ],
      "name": "ChildChainActivated",
      "type": "event"
    },
    {
      "anonymous": false,
      "inputs": [
        {
          "indexed": false,
          "internalType": "uint256",
          "name": "vaultId",
          "type": "uint256"
        },
        {
          "indexed": false,
          "internalType": "address",
          "name": "token",
          "type": "address"
        }
      ],
      "name": "ExitQueueAdded",
      "type": "event"
    },
    {
      "anonymous": false,
      "inputs": [
        {
          "indexed": false,
          "internalType": "uint256",
          "name": "processedNum",
          "type": "uint256"
        },
        {
          "indexed": false,
          "internalType": "uint256",
          "name": "vaultId",
          "type": "uint256"
        },
        {
          "indexed": false,
          "internalType": "address",
          "name": "token",
          "type": "address"
        }
      ],
      "name": "ProcessedExitsNum",
      "type": "event"
    },
    {
      "anonymous": false,
      "inputs": [
        {
          "indexed": true,
          "internalType": "uint160",
          "name": "exitId",
          "type": "uint160"
        },
        {
          "indexed": false,
          "internalType": "uint256",
          "name": "priority",
          "type": "uint256"
        }
      ],
      "name": "ExitQueued",
      "type": "event"
    },
    {
      "anonymous": false,
      "inputs": [
        {
          "indexed": false,
          "internalType": "uint256",
          "name": "txType",
          "type": "uint256"
        },
        {
          "indexed": false,
          "internalType": "address",
          "name": "exitGameAddress",
          "type": "address"
        },
        {
          "indexed": false,
          "internalType": "uint8",
          "name": "protocol",
          "type": "uint8"
        }
      ],
      "name": "ExitGameRegistered",
      "type": "event"
    },
    {
      "anonymous": false,
      "inputs": [
        {
          "indexed": false,
          "internalType": "uint256",
          "name": "vaultId",
          "type": "uint256"
        },
        {
          "indexed": false,
          "internalType": "address",
          "name": "vaultAddress",
          "type": "address"
        }
      ],
      "name": "VaultRegistered",
      "type": "event"
    },
    {
      "constant": true,
      "inputs": [],
      "name": "getMaintainer",
      "outputs": [
        {
          "internalType": "address",
          "name": "",
          "type": "address"
        }
      ],
      "payable": false,
      "stateMutability": "view",
      "type": "function"
    }
  ],
  "bytecode": "0x6080604052600e805460ff191690553480156200001b57600080fd5b5060405162003694380380620036948339810160408190526200003e91620000d5565b600285026003556004938455928402600955600a91909155600e8054610100600160a81b0319166101006001600160a01b03938416021790556103e8600f81905560105560016011556012805460ff19169055601492909255601580546001600160a01b031916929091169190911790556200018f565b8051620000c2816200016a565b92915050565b8051620000c28162000184565b600080600080600060a08688031215620000ee57600080fd5b6000620000fc8888620000c8565b95505060206200010f88828901620000c8565b94505060406200012288828901620000c8565b93505060606200013588828901620000b5565b92505060806200014888828901620000b5565b9150509295509295909350565b60006001600160a01b038216620000c2565b90565b620001758162000155565b81146200018157600080fd5b50565b620001758162000167565b6134f5806200019f6000396000f3fe60806040523480156200001157600080fd5b5060043610620002445760003560e01c8063a239e5a21162000141578063c77b1ed611620000bd578063dfb494f01162000087578063dfb494f014620004c2578063ebde2ec914620004d9578063f25b3f9914620004f0578063f2e208e71462000517578063ff27b189146200052e5762000244565b8063c77b1ed61462000473578063d3329542146200048a578063d4a2b4ef14620004a1578063d9aa4b2414620004ab5762000244565b8063af079764116200010b578063af079764146200040d578063baa476941462000424578063be5ac698146200043b578063bf7e214f1462000452578063c4336c1c146200045c5762000244565b8063a239e5a214620003cb578063a831fa0714620003e2578063a8cabcd514620003ec578063ab84a94b14620003f65762000244565b80634e0f743611620001d15780638bbee16a116200019b5780638bbee16a14620003565780638c396220146200036d5780638c64ea4a14620003935780638e7e389014620003aa578063a11dcc3414620003c15762000244565b80634e0f743614620003145780635a102dae146200031e5780636a51fd6314620003355780638701fc5d146200034c5762000244565b806342383d4a116200021357806342383d4a14620002c157806345f2093514620002da5780634b0a72bc14620002f15780634ca8714f146200030a5762000244565b80630e71ee021462000249578063296d5427146200026b5780633701b5ca146200029157806338a9e0bc14620002b7575b600080fd5b6200025362000538565b6040516200026291906200270e565b60405180910390f35b620002826200027c36600462001c6f565b62000541565b604051620002629190620029b1565b620002a8620002a236600462001c0c565b620005e6565b6040516200026291906200273d565b6200028262000601565b620002d8620002d236600462001bc6565b62000607565b005b620002d8620002eb36600462001c6f565b620006fe565b620002fb620007f3565b604051620002629190620026fe565b6200028262000802565b620002d862000808565b620002536200032f36600462001ba5565b62000883565b620002d86200034636600462001c6f565b620008c0565b6200028262000a27565b620002826200036736600462001d18565b62000a35565b620003846200037e36600462001c0c565b62000be4565b60405162000262919062002a1e565b620002fb620003a436600462001c0c565b62000bf9565b62000253620003bb36600462001bc6565b62000c14565b620002d862000c78565b62000282620003dc36600462001ba5565b62000d2e565b6200028262000d49565b6200028262000d4f565b620002536200040736600462001c0c565b62000d55565b620002fb6200041e36600462001c0c565b62000d6a565b620002d86200043536600462001c0c565b62000d85565b620002826200044c36600462001c0c565b62000e53565b620002fb62000f50565b620002a86200046d36600462001c0c565b62000f64565b620002536200048436600462001c6f565b62000f7f565b620002d86200049b36600462001c0c565b62000f9b565b6200028262001038565b620002d8620004bc36600462001cae565b6200103e565b62000282620004d336600462001ba5565b620014f7565b62000253620004ea36600462001c0c565b62001512565b620005076200050136600462001c0c565b62001558565b604051620002629291906200271e565b620002d86200052836600462001dad565b62001571565b620002d86200172b565b60125460ff1681565b600080620005508484620017c2565b6000818152600c602090815260409182902054825163d6362e9760e01b815292519394506001600160a01b03169263d6362e97926004808201939291829003018186803b158015620005a157600080fd5b505afa158015620005b6573d6000803e3d6000fd5b505050506040513d601f19601f82011682018060405250620005dc919081019062001c4e565b9150505b92915050565b600c602052600090815260409020546001600160a01b031681565b600f5481565b336000908152600660205260409020546200063f5760405162461bcd60e51b8152600401620006369062002813565b60405180910390fd5b6200065260083363ffffffff620017f716565b15620006725760405162461bcd60e51b81526004016200063690620027dd565b60005b81811015620006f95760008383838181106200068d57fe5b905060200201351415620006b55760405162461bcd60e51b8152600401620006369062002825565b6001600d6000858585818110620006c857fe5b60209081029290920135835250810191909152604001600020805460ff191691151591909117905560010162000675565b505050565b816200071e5760405162461bcd60e51b8152600401620006369062002969565b60006200072c8383620017c2565b9050620007398162001815565b15620007595760405162461bcd60e51b815260040162000636906200274d565b604051620007679062001a66565b604051809103906000f08015801562000784573d6000803e3d6000fd5b506000828152600c60205260409081902080546001600160a01b0319166001600160a01b039390931692909217909155517f0a925273fd754a41a580f8214815d5ae8a37367f561b3bd9d91a96730a418a1790620007e69085908590620029c1565b60405180910390a1505050565b6015546001600160a01b031690565b60105481565b33600090815260066020526040902054620008375760405162461bcd60e51b8152600401620006369062002813565b6200084a60083363ffffffff620017f716565b156200086a5760405162461bcd60e51b81526004016200063690620027dd565b600e5460ff166200087757fe5b600e805460ff19169055565b6001600160a01b03811660009081526006602052604081205415801590620005e05750620008b960088363ffffffff620017f716565b1592915050565b620008ca620007f3565b336001600160a01b03821614620008f55760405162461bcd60e51b8152600401620006369062002891565b82620009155760405162461bcd60e51b815260040162000636906200285b565b620009208262001832565b6200093f5760405162461bcd60e51b81526004016200063690620028fd565b6000838152602081905260409020546001600160a01b031615620009775760405162461bcd60e51b8152600401620006369062002945565b6001600160a01b03821660009081526001602052604090205415620009b05760405162461bcd60e51b815260040162000636906200290f565b60008381526020818152604080832080546001600160a01b0319166001600160a01b038716908117909155835260019091529020839055620009f460028362001838565b7f7051aac27f9b76ec8f37bd5796f2dcf402bd840a1c45c952a6eeb0e11bde09968383604051620007e6929190620029c1565b601154600f54601054030190565b3360009081526006602052604081205462000a645760405162461bcd60e51b8152600401620006369062002813565b62000a7760083363ffffffff620017f716565b1562000a975760405162461bcd60e51b81526004016200063690620027dd565b600062000aa58888620017c2565b905062000ab28162001815565b62000ad15760405162461bcd60e51b81526004016200063690620027cb565b6000818152600c60205260408120546001600160a01b03169062000b078862000b00368a90038a018a62001c2d565b88620018de565b6040516390b5561d60e01b81529091506001600160a01b038316906390b5561d9062000b38908490600401620029b1565b600060405180830381600087803b15801562000b5357600080fd5b505af115801562000b68573d6000803e3d6000fd5b5050506000828152600b60205260409081902080546001600160a01b0319166001600160a01b0389811691909117909155905190881691507fe15a4f223f922b625f5fdd941101a23fa0c097e522233d47a7cbea2167e927019062000bcf908490620029b1565b60405180910390a29998505050505050505050565b60009081526007602052604090205460ff1690565b6000908152602081905260409020546001600160a01b031690565b6000805b8281101562000c6e57600d600085858481811062000c3257fe5b602090810292909201358352508101919091526040016000205460ff1615156001141562000c65576001915050620005e0565b60010162000c18565b5060009392505050565b600e5461010090046001600160a01b031633811462000cab5760405162461bcd60e51b8152600401620006369062002891565b60125460ff161562000cd15760405162461bcd60e51b81526004016200063690620028a3565b60128054600160ff19909116179055600e546040517fb8421a1acb5f1e701a4f11ecaad76fa438b3947e8dfd6960b6086130e68e0aed9162000d23916101009091046001600160a01b031690620026fe565b60405180910390a150565b6001600160a01b031660009081526006602052604090205490565b6103e881565b60115481565b600d6020526000908152604090205460ff1681565b6000908152600560205260409020546001600160a01b031690565b600e5461010090046001600160a01b031633811462000db85760405162461bcd60e51b8152600401620006369062002891565b60125460ff16151560011462000de25760405162461bcd60e51b81526004016200063690620027b9565b60108054604080518082018252858152426020808301918252600085815260139091528390209151825551600191820155600f5484540190935560119290925590517f5a978f4723b249ccf79cd7a658a8601ce1ff8b89fc770251a6be35216351ce3290620007e6908390620029b1565b3360009081526001602052604081205462000e825760405162461bcd60e51b81526004016200063690620028b5565b62000e9560023363ffffffff620017f716565b1562000eb55760405162461bcd60e51b8152600401620006369062002957565b60125460ff16151560011462000edf5760405162461bcd60e51b81526004016200063690620027b9565b600f546011541062000f055760405162461bcd60e51b8152600401620006369062002933565b600062000f1162000a27565b60408051808201825294855242602080870191825260008481526013909152919091209451855551600194850155601180549094019093555090919050565b600e5461010090046001600160a01b031681565b600b602052600090815260409020546001600160a01b031681565b60008062000f8e8484620017c2565b9050620005dc8162001815565b3360009081526006602052604090205462000fca5760405162461bcd60e51b8152600401620006369062002813565b62000fdd60083363ffffffff620017f716565b1562000ffd5760405162461bcd60e51b81526004016200063690620027dd565b806200101d5760405162461bcd60e51b8152600401620006369062002825565b6000908152600d60205260409020805460ff19166001179055565b60145481565b600e5460ff1615620010645760405162461bcd60e51b81526004016200063690620028c7565b600e805460ff1916600117905560006200107f8585620017c2565b90506200108c8162001815565b620010ab5760405162461bcd60e51b81526004016200063690620028eb565b6000818152600c6020908152604080832054815163bda1504b60e01b815291516001600160a01b039091169392849263bda1504b9260048083019392829003018186803b158015620010fc57600080fd5b505afa15801562001111573d6000803e3d6000fd5b505050506040513d601f19601f8201168201806040525062001137919081019062001c4e565b11620011575760405162461bcd60e51b8152600401620006369062002921565b6000816001600160a01b031663d6362e976040518163ffffffff1660e01b815260040160206040518083038186803b1580156200119357600080fd5b505afa158015620011a8573d6000803e3d6000fd5b505050506040513d601f19601f82011682018060405250620011ce919081019062001c4e565b90506000620011dd8262001914565b90506001600160a01b0386161580620012075750856001600160a01b0316816001600160a01b0316145b620012265760405162461bcd60e51b8152600401620006369062002849565b6000828152600b60205260408120546001600160a01b0316905b868110801562001263575042620012578562001917565b67ffffffffffffffff16105b1562001495576000848152600b6020908152604080832080546001600160a01b03191690558051632c1d5dab60e21b815290516001600160a01b0389169363b07576ac93600480850194919392918390030190829087803b158015620012c857600080fd5b505af1158015620012dd573d6000803e3d6000fd5b505050506040513d601f19601f8201168201806040525062001303919081019062001c4e565b50604051636849635160e01b81526001909101906001600160a01b038316906368496351906200133c9086908e908e906004016200297b565b600060405180830381600087803b1580156200135757600080fd5b505af11580156200136c573d6000803e3d6000fd5b50505050846001600160a01b031663bda1504b6040518163ffffffff1660e01b815260040160206040518083038186803b158015620013aa57600080fd5b505afa158015620013bf573d6000803e3d6000fd5b505050506040513d601f19601f82011682018060405250620013e5919081019062001c4e565b620013f05762001495565b846001600160a01b031663d6362e976040518163ffffffff1660e01b815260040160206040518083038186803b1580156200142a57600080fd5b505afa1580156200143f573d6000803e3d6000fd5b505050506040513d601f19601f8201168201806040525062001465919081019062001c4e565b9350620014728462001914565b6000858152600b60205260409020549093506001600160a01b0316915062001240565b7f7e35599fe450e626673ce6c37179ef9820aed16f76c1b350618ef7a612d13005818b8b604051620014ca9392919062002a0e565b60405180910390a15050600e5460ff169350620014e79250505057fe5b5050600e805460ff191690555050565b6001600160a01b031660009081526001602052604090205490565b600081815260136020526040812060010154620015435760405162461bcd60e51b8152600401620006369062002771565b600f5482816200154f57fe5b06151592915050565b6013602052600090815260409020805460019091015482565b6200157b620007f3565b336001600160a01b03821614620015a65760405162461bcd60e51b8152600401620006369062002891565b83620015c65760405162461bcd60e51b815260040162000636906200286d565b620015d18362001832565b620015f05760405162461bcd60e51b81526004016200063690620028fd565b6000848152600560205260409020546001600160a01b031615620016285760405162461bcd60e51b81526004016200063690620028d9565b6001600160a01b03831660009081526006602052604090205415620016615760405162461bcd60e51b8152600401620006369062002783565b6200166c826200191d565b6200168b5760405162461bcd60e51b8152600401620006369062002795565b600084815260056020908152604080832080546001600160a01b0319166001600160a01b03881690811790915583526006825280832087905586835260079091529020805460ff191660ff8416179055620016e860088462001838565b7f0ceb02f7474c01f5959171cead2f5fb2a44d9c16fe480725a2110b601b19db828484846040516200171d93929190620029e0565b60405180910390a150505050565b336000908152600660205260409020546200175a5760405162461bcd60e51b8152600401620006369062002813565b6200176d60083363ffffffff620017f716565b156200178d5760405162461bcd60e51b81526004016200063690620027dd565b600e5460ff1615620017b35760405162461bcd60e51b81526004016200063690620028c7565b600e805460ff19166001179055565b60008282604051602001620017d9929190620026d4565b60405160208183030381529060405280519060200120905092915050565b6001600160a01b031660009081526020919091526040902054421090565b6000908152600c60205260409020546001600160a01b0316151590565b3b151590565b6001600160a01b038116620018615760405162461bcd60e51b815260040162000636906200287f565b6001600160a01b038116600090815260208390526040902054156200189a5760405162461bcd60e51b81526004016200063690620027ef565b6002820154620018cd5760018201546001600160a01b0382166000908152602084905260409020429091019055620018da565b6002820180546000190190555b5050565b6000816001600160a01b031660a0620018f78562001937565b901b60d68667ffffffffffffffff16901b171790505b9392505050565b90565b60d61c90565b600060ff821660011480620005e057505060ff1660021490565b6000612710620019478362001956565b816200194f57fe5b0492915050565b6000612710826040015161ffff1610620019845760405162461bcd60e51b8152600401620006369062002801565b6020820151620186a011620019ad5760405162461bcd60e51b815260040162000636906200275f565b620005e0826040015161ffff16620019f1620019d96127108660200151620019fe90919063ffffffff16565b8551620019f190633b9aca0063ffffffff620019fe16565b9063ffffffff62001a3e16565b60008262001a0f57506000620005e0565b8282028284828162001a1d57fe5b04146200190d5760405162461bcd60e51b8152600401620006369062002837565b6000828201838110156200190d5760405162461bcd60e51b81526004016200063690620027a7565b61099e8062002b1583390190565b8035620005e08162002ab8565b60008083601f84011262001a9457600080fd5b50813567ffffffffffffffff81111562001aad57600080fd5b60208301915083602082028301111562001ac657600080fd5b9250929050565b8035620005e08162002ad2565b8035620005e08162002add565b60006060828403121562001afa57600080fd5b50919050565b60006060828403121562001b1357600080fd5b62001b1f606062002a2e565b9050600062001b2f848462001acd565b825250602062001b428484830162001acd565b602083015250604062001b588482850162001b64565b60408301525092915050565b8035620005e08162002ae8565b8035620005e08162002af3565b8051620005e08162002ad2565b8035620005e08162002afe565b8035620005e08162002b09565b60006020828403121562001bb857600080fd5b6000620005dc848462001a74565b6000806020838503121562001bda57600080fd5b823567ffffffffffffffff81111562001bf257600080fd5b62001c008582860162001a81565b92509250509250929050565b60006020828403121562001c1f57600080fd5b6000620005dc848462001acd565b60006060828403121562001c4057600080fd5b6000620005dc848462001b00565b60006020828403121562001c6157600080fd5b6000620005dc848462001b7e565b6000806040838503121562001c8357600080fd5b600062001c91858562001acd565b925050602062001ca48582860162001a74565b9150509250929050565b6000806000806080858703121562001cc557600080fd5b600062001cd3878762001acd565b945050602062001ce68782880162001a74565b935050604062001cf98782880162001b71565b925050606062001d0c8782880162001acd565b91505092959194509250565b600080600080600080610100878903121562001d3357600080fd5b600062001d41898962001acd565b965050602062001d5489828a0162001a74565b955050604062001d6789828a0162001b8b565b945050606062001d7a89828a0162001ae7565b93505060c062001d8d89828a0162001b71565b92505060e062001da089828a0162001ada565b9150509295509295509295565b60008060006060848603121562001dc357600080fd5b600062001dd1868662001acd565b935050602062001de48682870162001a74565b925050604062001df78682870162001b98565b9150509250925092565b62001e0c8162002a5f565b82525050565b62001e0c62001e218262002a5f565b62002aa4565b62001e0c8162002a6c565b62001e0c8162001914565b62001e0c8162002a71565b600062001e5760118362002a56565b70457869742071756575652065786973747360781b815260200192915050565b600062001e8660198362002a56565b7f496e76616c6964207472616e73616374696f6e20696e64657800000000000000815260200192915050565b600062001ec160148362002a56565b73109b1bd8dac8191bd95cc81b9bdd08195e1a5cdd60621b815260200192915050565b600062001ef3602c8362002a56565b7f54686520657869742067616d6520636f6e747261637420697320616c7265616481526b1e481c9959da5cdd195c995960a21b602082015260400192915050565b600062001f4360168362002a56565b75496e76616c69642070726f746f636f6c2076616c756560501b815260200192915050565b600062001f77601b8362002a56565b7f536166654d6174683a206164646974696f6e206f766572666c6f770000000000815260200192915050565b600062001fb2603b8362002a56565b7f4368696c6420636861696e20686173206e6f74206265656e206163746976617481527f656420627920617574686f726974792061646472657373207965740000000000602082015260400192915050565b60006200201360508362002a56565b7f54686520717565756520666f722074686520287661756c7449642c20746f6b6581527f6e292070616972206973206e6f742079657420616464656420746f207468652060208201526f506c61736d61206672616d65776f726b60801b604082015260600192915050565b60006200208d60178362002a56565b7f4578697447616d652069732071756172616e74696e6564000000000000000000815260200192915050565b6000620020c860238362002a56565b7f54686520636f6e747261637420697320616c72656164792071756172616e74698152621b995960ea1b602082015260400192915050565b60006200210f60148362002a56565b73092dcecc2d8d2c840deeae8e0eae840d2dcc8caf60631b815260200192915050565b60006200214160348362002a56565b7f5468652063616c6c206973206e6f742066726f6d2061207265676973746572658152731908195e1a5d0819d85b594818dbdb9d1c9858dd60621b602082015260400192915050565b60006200219960238362002a56565b7f53686f756c64206e6f7420666c6167207769746820656d707479206f757470758152621d125960ea1b602082015260400192915050565b6000620021e060218362002a56565b7f536166654d6174683a206d756c7469706c69636174696f6e206f766572666c6f8152607760f81b602082015260400192915050565b600062002225603a8362002a56565b7f546f702065786974204944206f6620746865207175657565206973206469666681527f6572656e7420746f20746865206f6e6520737065636966696564000000000000602082015260400192915050565b60006200228660238362002a56565b7f53686f756c64206e6f742072656769737465722077697468207661756c74204981526204420360ec1b602082015260400192915050565b6000620022cd60228362002a56565b7f53686f756c64206e6f7420726567697374657220776974682074782074797065815261020360f41b602082015260400192915050565b60006200231360268362002a56565b7f416e20656d70747920616464726573732063616e6e6f742062652071756172618152651b9d1a5b995960d21b602082015260400192915050565b60006200235d601e8362002a56565b7f43616c6c6572206164647265737320697320756e617574686f72697a65640000815260200192915050565b600062002398601d8362002a56565b7f4368696c6420636861696e20616c726561647920616374697661746564000000815260200192915050565b6000620023d360278362002a56565b7f5468652063616c6c206973206e6f742066726f6d20612072656769737465726581526619081d985d5b1d60ca1b602082015260400192915050565b60006200241e600e8362002a56565b6d1499595b9d1c985b9d0818d85b1b60921b815260200192915050565b60006200244a60218362002a56565b7f546865207478207479706520697320616c7265616479207265676973746572658152601960fa1b602082015260400192915050565b60006200248f60328362002a56565b7f54686520746f6b656e206973206e6f742079657420616464656420746f2074688152716520506c61736d61206672616d65776f726b60701b602082015260400192915050565b6000620024e5602f8362002a56565b7f53686f756c64206e6f7420726567697374657220776974682061206e6f6e2d6381526e6f6e7472616374206164647265737360881b602082015260400192915050565b60006200253860288362002a56565b7f546865207661756c7420636f6e747261637420697320616c726561647920726581526719da5cdd195c995960c21b602082015260400192915050565b60006200258460138362002a56565b724578697420717565756520697320656d70747960681b815260200192915050565b6000620025b560338362002a56565b7f4578636565646564206c696d6974206f66206465706f736974732070657220638152721a1a5b1908189b1bd8dac81a5b9d195c9d985b606a1b602082015260400192915050565b60006200260c60228362002a56565b7f546865207661756c7420494420697320616c7265616479207265676973746572815261195960f21b602082015260400192915050565b60006200265260148362002a56565b7315985d5b1d081a5cc81c5d585c985b9d1a5b995960621b815260200192915050565b60006200268460168362002a56565b7505661756c74204944206d757374206e6f7420626520360541b815260200192915050565b62001e0c8162002a85565b62001e0c620026c38262001914565b62001914565b62001e0c8162002a9e565b6000620026e28285620026b4565b602082019150620026f4828462001e12565b5060140192915050565b60208101620005e0828462001e01565b60208101620005e0828462001e27565b604081016200272e828562001e32565b6200190d602083018462001e32565b60208101620005e0828462001e3d565b60208082528101620005e08162001e48565b60208082528101620005e08162001e77565b60208082528101620005e08162001eb2565b60208082528101620005e08162001ee4565b60208082528101620005e08162001f34565b60208082528101620005e08162001f68565b60208082528101620005e08162001fa3565b60208082528101620005e08162002004565b60208082528101620005e0816200207e565b60208082528101620005e081620020b9565b60208082528101620005e08162002100565b60208082528101620005e08162002132565b60208082528101620005e0816200218a565b60208082528101620005e081620021d1565b60208082528101620005e08162002216565b60208082528101620005e08162002277565b60208082528101620005e081620022be565b60208082528101620005e08162002304565b60208082528101620005e0816200234e565b60208082528101620005e08162002389565b60208082528101620005e081620023c4565b60208082528101620005e0816200240f565b60208082528101620005e0816200243b565b60208082528101620005e08162002480565b60208082528101620005e081620024d6565b60208082528101620005e08162002529565b60208082528101620005e08162002575565b60208082528101620005e081620025a6565b60208082528101620005e081620025fd565b60208082528101620005e08162002643565b60208082528101620005e08162002675565b606081016200298b8286620026a9565b6200299a602083018562001e32565b620029a9604083018462001e01565b949350505050565b60208101620005e0828462001e32565b60408101620029d1828562001e32565b6200190d602083018462001e01565b60608101620029f0828662001e32565b620029ff602083018562001e01565b620029a96040830184620026c9565b606081016200298b828662001e32565b60208101620005e08284620026c9565b60405181810167ffffffffffffffff8111828210171562002a4e57600080fd5b604052919050565b90815260200190565b6000620005e08262002a85565b151590565b6000620005e08262002a5f565b61ffff1690565b6001600160a01b031690565b67ffffffffffffffff1690565b60ff1690565b6000620005e0826000620005e08260601b90565b62002ac38162002a5f565b811462002acf57600080fd5b50565b62002ac38162001914565b62002ac38162002a71565b62002ac38162002a7e565b62002ac38162002a85565b62002ac38162002a91565b62002ac38162002a9e56fe608060405234801561001057600080fd5b506040805160208101909152600080825261002c916001610049565b506000600155600280546001600160a01b031916331790556100b6565b828054828255906000526020600020908101928215610089579160200282015b82811115610089578251829060ff16905591602001919060010190610069565b50610095929150610099565b5090565b6100b391905b80821115610095576000815560010161009f565b90565b6108d9806100c56000396000f3fe608060405234801561001057600080fd5b506004361061007d5760003560e01c8063bda1504b1161005b578063bda1504b14610113578063d6362e971461011b578063e10d29ee14610123578063e9de55531461012b5761007d565b8063446b2f881461008257806390b5561d146100da578063b07576ac146100f9575b600080fd5b61008a61014f565b60408051602080825283518183015283519192839290830191858101910280838360005b838110156100c65781810151838201526020016100ae565b505050509050019250505060405180910390f35b6100f7600480360360208110156100f057600080fd5b50356101aa565b005b610101610263565b60408051918252519081900360200190f35b6101016103c5565b6101016103cb565b610101610432565b610133610438565b604080516001600160a01b039092168252519081900360200190f35b60606000800180548060200260200160405190810160405280929190818152602001828054801561019f57602002820191906000526020600020905b81548152602001906001019080831161018b575b505050505090505b90565b6002546001600160a01b031633811461020a576040805162461bcd60e51b815260206004820152601e60248201527f43616c6c6572206164647265737320697320756e617574686f72697a65640000604482015290519081900360640190fd5b60008054600181810183559180527f290decd9548b62a8d60345a988386fc84ba6bc95484008f6362f93160ef3e56301839055805461024e9163ffffffff61044716565b600181905561025f906000906104aa565b5050565b6002546000906001600160a01b03163381146102c6576040805162461bcd60e51b815260206004820152601e60248201527f43616c6c6572206164647265737320697320756e617574686f72697a65640000604482015290519081900360640190fd5b60015461030b576040805162461bcd60e51b815260206004820152600e60248201526d517565756520697320656d70747960901b604482015290519081900360640190fd5b60008060000160018154811061031d57fe5b6000918252602082200154600154825491935090811061033957fe5b90600052602060002001546000800160018154811061035457fe5b60009182526020822001919091556001548154811061036f57fe5b60009182526020822001556001805461038d9163ffffffff61058016565b600190815561039e906000906105dd565b6000546103b290600163ffffffff61058016565b6103bd600082610840565b5091505b5090565b60015490565b600154600090610413576040805162461bcd60e51b815260206004820152600e60248201526d517565756520697320656d70747960901b604482015290519081900360640190fd5b60008054600190811061042257fe5b9060005260206000200154905090565b60015481565b6002546001600160a01b031681565b6000828201838110156104a1576040805162461bcd60e51b815260206004820152601b60248201527f536166654d6174683a206164646974696f6e206f766572666c6f770000000000604482015290519081900360640190fd5b90505b92915050565b8154819081906000908590839081106104bf57fe5b906000526020600020015490505b846104df84600263ffffffff6106b416565b815481106104e957fe5b9060005260206000200154811015610555578461050d84600263ffffffff6106b416565b8154811061051757fe5b906000526020600020015485600001848154811061053157fe5b60009182526020909120015561054e83600263ffffffff6106b416565b92506104cd565b818314610579578085600001848154811061056c57fe5b6000918252602090912001555b5050505050565b6000828211156105d7576040805162461bcd60e51b815260206004820152601e60248201527f536166654d6174683a207375627472616374696f6e206f766572666c6f770000604482015290519081900360640190fd5b50900390565b8154819081906000908590839081106105f257fe5b90600052602060002001549050600061060b868561071e565b90505b8560010154811115801561063a575085600001818154811061062c57fe5b906000526020600020015482115b156106885785600001818154811061064e57fe5b906000526020600020015486600001858154811061066857fe5b600091825260209091200155925082610681868261071e565b905061060e565b8284146106ac578186600001858154811061069f57fe5b6000918252602090912001555b505050505050565b600080821161070a576040805162461bcd60e51b815260206004820152601a60248201527f536166654d6174683a206469766973696f6e206279207a65726f000000000000604482015290519081900360640190fd5b600082848161071557fe5b04949350505050565b6001808301546000916107489061073c85600263ffffffff6107e716565b9063ffffffff61044716565b11156107665761075f82600263ffffffff6107e716565b90506104a4565b8261077d600161073c85600263ffffffff6107e716565b8154811061078757fe5b600091825260209091200154836107a584600263ffffffff6107e716565b815481106107af57fe5b906000526020600020015410156107d15761075f82600263ffffffff6107e716565b61075f600161073c84600263ffffffff6107e716565b6000826107f6575060006104a4565b8282028284828161080357fe5b04146104a15760405162461bcd60e51b81526004018080602001828103825260218152602001806108846021913960400191505060405180910390fd5b81548183558181111561086457600083815260209020610864918101908301610869565b505050565b6101a791905b808211156103c1576000815560010161086f56fe536166654d6174683a206d756c7469706c69636174696f6e206f766572666c6f77a265627a7a72315820c6d093e3cb861c2f3d7e0da0c41de597c3612f1688360db1a528767863989fe064736f6c634300050b0032a365627a7a72315820773e397fa1800cc99819fca640b976da8d0e7e403920cfae715c87782278cbab6c6578706572696d656e74616cf564736f6c634300050b0040",
  "source": "pragma solidity 0.5.11;\npragma experimental ABIEncoderV2;\n\nimport \"./BlockController.sol\";\nimport \"./ExitGameController.sol\";\nimport \"./registries/VaultRegistry.sol\";\nimport \"./registries/ExitGameRegistry.sol\";\n\ncontract PlasmaFramework is VaultRegistry, ExitGameRegistry, ExitGameController, BlockController {\n    uint256 public constant CHILD_BLOCK_INTERVAL = 1000;\n\n    /**\n     * The minimum finalization period is the Plasma guarantee that all exits are safe provided the user takes action within the specified time period\n     * When the child chain is rogue, user should start their exit and challenge any invalid exit within this period\n     * An exit can be processed/finalized after minimum two finalization periods from its inclusion position, unless it is an exit for a deposit,\n     * which would use one finalization period, instead of two\n     *\n     * For the Abstract Layer Design, OmiseGO also uses some multitude of this period to update its framework\n     * See also ExitGameRegistry.sol, VaultRegistry.sol, and Vault.sol for more information on the update waiting time (the quarantined period)\n     *\n     * MVP: https://ethresear.ch/t/minimal-viable-plasma/426\n     * MoreVP: https://github.com/omisego/elixir-omg/blob/master/docs/morevp.md#timeline\n     * Special period for deposit: https://git.io/JecCV\n     */\n    uint256 public minExitPeriod;\n    address private maintainer;\n\n    constructor(\n        uint256 _minExitPeriod,\n        uint256 _initialImmuneVaults,\n        uint256 _initialImmuneExitGames,\n        address _authority,\n        address _maintainer\n    )\n        public\n        BlockController(CHILD_BLOCK_INTERVAL, _minExitPeriod, _initialImmuneVaults, _authority)\n        ExitGameController(_minExitPeriod, _initialImmuneExitGames)\n    {\n        minExitPeriod = _minExitPeriod;\n        maintainer = _maintainer;\n    }\n\n    function getMaintainer() public view returns (address) {\n        return maintainer;\n    }\n}\n",
  "sourcePath": "/Users/nocholas/plasma-contracts/plasma_framework/contracts/src/framework/PlasmaFramework.sol",
  "compiler": {
    "name": "solc",
    "version": "0.5.11+commit.c082d0b4.Emscripten.clang"
  },
  "schemaVersion": "3.0.16",
  "updatedAt": "2019-12-19T10:42:01.603Z",
  "devdoc": {
    "methods": {
      "activateChildChain()": {
        "details": "This is a preserved action for authority account to start its nonce with 1.     Child chain rely ethereum nonce to protect re-org: https://git.io/JecDG     see discussion: https://git.io/JenaT, https://git.io/JecDO"
      },
      "activateNonReentrant()": {
        "details": "Accessible only from non quarantined exit games, uses a mutex"
      },
      "addExitQueue(uint256,address)": {
        "details": "The queue is created as a new contract instance",
        "params": {
          "token": "Address of the token",
          "vaultId": "ID of the vault"
        }
      },
      "batchFlagOutputsSpent(bytes32[])": {
        "params": {
          "_outputIds": "Output IDs to flag"
        }
      },
      "deactivateNonReentrant()": {
        "details": "Accessible only from non quarantined exit games, uses a mutex"
      },
      "enqueue(uint256,address,uint64,(uint256,uint256,uint16),uint160,address)": {
        "details": "emits ExitQueued event, which can be used to back trace the priority inside the queueCaller of this function should add \"pragma experimental ABIEncoderV2;\" on top of file",
        "params": {
          "exitId": "ID used by the exit processor contract to determine how to process the exit",
          "exitProcessor": "The exit processor contract, called during \"processExits\"",
          "exitableAt": "The earliest time a specified exit can be processed",
          "token": "Token for the exit",
          "txPos": "Transaction position for the exit priority. For SE it should be the exit tx, for IFE it should be the youngest input tx position.",
          "vaultId": "Vault ID of the vault that stores exiting funds"
        },
        "return": "A unique priority number computed for the exit"
      },
      "flagOutputSpent(bytes32)": {
        "params": {
          "_outputId": "The output ID to flag as spent"
        }
      },
      "hasExitQueue(uint256,address)": {
        "params": {
          "token": "Address of the token",
          "vaultId": "ID of the vault that handles the token"
        },
        "return": "bool Defines whether the queue for a token was created"
      },
      "isAnyOutputsSpent(bytes32[])": {
        "params": {
          "_outputIds": "Output IDs to check"
        }
      },
      "isExitGameSafeToUse(address)": {
        "details": "Exposes information about exit games quarantine",
        "params": {
          "_contract": "Address of the exit game contract"
        },
        "return": "boolean Whether the contract is safe to use and is not under quarantine"
      },
      "processExits(uint256,address,uint160,uint256)": {
        "details": "Emits ProcessedExitsNum event",
        "params": {
          "maxExitsToProcess": "Maximum number of exits to process",
          "token": "The token type to process",
          "topExitId": "Unique identifier for prioritizing the first exit to process. Set to zero to skip this check.",
          "vaultId": "Vault ID of the vault that stores exiting funds"
        },
        "return": "Total number of processed exits"
      },
      "registerExitGame(uint256,address,uint8)": {
        "details": "Emits ExitGameRegistered event to notify clients",
        "params": {
          "_contract": "Address of the exit game contract",
          "_protocol": "The transaction protocol, either 1 for MVP or 2 for MoreVP",
          "_txType": "The tx type where the exit game wants to register"
        }
      },
      "registerVault(uint256,address)": {
        "details": "emits VaultRegistered event to notify clients",
        "params": {
          "_vaultAddress": "Address of the vault contract",
          "_vaultId": "The ID for the vault contract to register"
        }
      },
      "submitBlock(bytes32)": {
        "details": "emit BlockSubmitted eventBlock number jumps 'childBlockInterval' per submissionSee discussion in https://github.com/omisego/plasma-contracts/issues/233",
        "params": {
          "_blockRoot": "Merkle root of the Plasma block"
        }
      },
      "submitDepositBlock(bytes32)": {
        "details": "Block number adds 1 per submission; it's possible to have at most 'childBlockInterval' deposit blocks between two child chain blocks",
        "params": {
          "_blockRoot": "Merkle root of the Plasma block"
        },
        "return": "The deposit block number"
      }
    }
  },
  "userdoc": {
    "methods": {
      "activateChildChain()": {
        "notice": "Activates the child chain so that child chain can start to submit child blocks to root chainCan only be called once by the authority.Sets isChildChainActivated to true and emits the ChildChainActivated event."
      },
      "activateNonReentrant()": {
        "notice": "Activates non reentrancy mode        Guards against reentering into publicly accessible code that modifies state related to exits"
      },
      "addExitQueue(uint256,address)": {
        "notice": "Adds queue to the Plasma framework"
      },
      "batchFlagOutputsSpent(bytes32[])": {
        "notice": "Batch flags already spent outputs"
      },
      "deactivateNonReentrant()": {
        "notice": "Deactivates non reentrancy mode"
      },
      "enqueue(uint256,address,uint64,(uint256,uint256,uint16),uint160,address)": {
        "notice": "Enqueue exits from exit game contracts is a function that places the exit into the        priority queue to enforce the priority of exit during 'processExits'"
      },
      "exitGameToTxType(address)": {
        "notice": "Public getter for retrieving tx type with exit game address"
      },
      "exitGames(uint256)": {
        "notice": "Public getter for retrieving exit game address with tx type"
      },
      "flagOutputSpent(bytes32)": {
        "notice": "Flags a single output as spent"
      },
      "hasExitQueue(uint256,address)": {
        "notice": "Checks if the queue for a specified token was created"
      },
      "isAnyOutputsSpent(bytes32[])": {
        "notice": "Checks whether any of the output with the given outputIds is already spent"
      },
      "isExitGameSafeToUse(address)": {
        "notice": "Checks whether the contract is safe to use and is not under quarantine"
      },
      "processExits(uint256,address,uint160,uint256)": {
        "notice": "Processes any exits that have completed the challenge period. Exits are processed according to the exit priority."
      },
      "protocols(uint256)": {
        "notice": "Public getter for retrieving protocol with tx type"
      },
      "registerExitGame(uint256,address,uint8)": {
        "notice": "Registers an exit game within the PlasmaFramework. Only the maintainer can call the function."
      },
      "registerVault(uint256,address)": {
        "notice": "Register a vault within the PlasmaFramework. Only a maintainer can make the call."
      },
      "submitBlock(bytes32)": {
        "notice": "Allows the authority to submit the Merkle root of a Plasma block"
      },
      "submitDepositBlock(bytes32)": {
        "notice": "Submits a block for deposit"
      },
      "vaultToId(address)": {
        "notice": "Public getter for retrieving vault ID with vault address"
      },
      "vaults(uint256)": {
        "notice": "Public getter for retrieving vault address with vault ID"
      }
    }
  }
}