{
  "contractName": "PlasmaFramework",
  "abi": [
    {
      "constant": true,
      "inputs": [],
      "name": "isChildChainActivated",
      "outputs": [
        {
          "internalType": "bool",
          "name": "",
          "type": "bool"
        }
      ],
      "payable": false,
      "stateMutability": "view",
      "type": "function"
    },
    {
      "constant": false,
      "inputs": [
        {
          "internalType": "bytes32[]",
          "name": "outputIds",
          "type": "bytes32[]"
        },
        {
          "internalType": "uint168",
          "name": "exitId",
          "type": "uint168"
        }
      ],
      "name": "batchFlagOutputsFinalized",
      "outputs": [],
      "payable": false,
      "stateMutability": "nonpayable",
      "type": "function"
    },
    {
      "constant": false,
      "inputs": [
        {
          "internalType": "bytes32",
          "name": "outputId",
          "type": "bytes32"
        },
        {
          "internalType": "uint168",
          "name": "exitId",
          "type": "uint168"
        }
      ],
      "name": "flagOutputFinalized",
      "outputs": [],
      "payable": false,
      "stateMutability": "nonpayable",
      "type": "function"
    },
    {
      "constant": true,
      "inputs": [
        {
          "internalType": "uint256",
          "name": "vaultId",
          "type": "uint256"
        },
        {
          "internalType": "address",
          "name": "token",
          "type": "address"
        }
      ],
      "name": "getNextExit",
      "outputs": [
        {
          "internalType": "uint256",
          "name": "",
          "type": "uint256"
        }
      ],
      "payable": false,
      "stateMutability": "view",
      "type": "function"
    },
    {
      "constant": false,
      "inputs": [
        {
          "internalType": "uint256",
          "name": "vaultId",
          "type": "uint256"
        },
        {
          "internalType": "address",
          "name": "token",
          "type": "address"
        },
        {
          "internalType": "uint168",
          "name": "topExitId",
          "type": "uint168"
        },
        {
          "internalType": "uint256",
          "name": "maxExitsToProcess",
          "type": "uint256"
        }
      ],
      "name": "processExits",
      "outputs": [],
      "payable": false,
      "stateMutability": "nonpayable",
      "type": "function"
    },
    {
      "constant": true,
      "inputs": [
        {
          "internalType": "bytes32",
          "name": "",
          "type": "bytes32"
        }
      ],
      "name": "exitsQueues",
      "outputs": [
        {
          "internalType": "contract PriorityQueue",
          "name": "",
          "type": "address"
        }
      ],
      "payable": false,
      "stateMutability": "view",
      "type": "function"
    },
    {
      "constant": false,
      "inputs": [
        {
          "internalType": "uint256",
          "name": "vaultId",
          "type": "uint256"
        },
        {
          "internalType": "address",
          "name": "token",
          "type": "address"
        },
        {
          "internalType": "uint32",
          "name": "exitableAt",
          "type": "uint32"
        },
        {
          "components": [
            {
              "internalType": "uint64",
              "name": "blockNum",
              "type": "uint64"
            },
            {
              "internalType": "uint16",
              "name": "txIndex",
              "type": "uint16"
            },
            {
              "internalType": "uint16",
              "name": "outputIndex",
              "type": "uint16"
            }
          ],
          "internalType": "struct PosLib.Position",
          "name": "txPos",
          "type": "tuple"
        },
        {
          "internalType": "uint168",
          "name": "exitId",
          "type": "uint168"
        },
        {
          "internalType": "contract IExitProcessor",
          "name": "exitProcessor",
          "type": "address"
        }
      ],
      "name": "enqueue",
      "outputs": [
        {
          "internalType": "uint256",
          "name": "",
          "type": "uint256"
        }
      ],
      "payable": false,
      "stateMutability": "nonpayable",
      "type": "function"
    },
    {
      "constant": true,
      "inputs": [],
      "name": "childBlockInterval",
      "outputs": [
        {
          "internalType": "uint256",
          "name": "",
          "type": "uint256"
        }
      ],
      "payable": false,
      "stateMutability": "view",
      "type": "function"
    },
    {
      "constant": false,
      "inputs": [
        {
          "internalType": "uint256",
          "name": "vaultId",
          "type": "uint256"
        },
        {
          "internalType": "address",
          "name": "token",
          "type": "address"
        }
      ],
      "name": "addExitQueue",
      "outputs": [],
      "payable": false,
      "stateMutability": "nonpayable",
      "type": "function"
    },
    {
      "constant": true,
      "inputs": [],
      "name": "nextChildBlock",
      "outputs": [
        {
          "internalType": "uint256",
          "name": "",
          "type": "uint256"
        }
      ],
      "payable": false,
      "stateMutability": "view",
      "type": "function"
    },
    {
      "constant": false,
      "inputs": [],
      "name": "deactivateNonReentrant",
      "outputs": [],
      "payable": false,
      "stateMutability": "nonpayable",
      "type": "function"
    },
    {
      "constant": true,
      "inputs": [],
      "name": "version",
      "outputs": [
        {
          "internalType": "string",
          "name": "",
          "type": "string"
        }
      ],
      "payable": false,
      "stateMutability": "view",
      "type": "function"
    },
    {
      "constant": true,
      "inputs": [
        {
          "internalType": "address",
          "name": "_contract",
          "type": "address"
        }
      ],
      "name": "isExitGameSafeToUse",
      "outputs": [
        {
          "internalType": "bool",
          "name": "",
          "type": "bool"
        }
      ],
      "payable": false,
      "stateMutability": "view",
      "type": "function"
    },
    {
      "constant": false,
      "inputs": [
        {
          "internalType": "uint256",
          "name": "_vaultId",
          "type": "uint256"
        },
        {
          "internalType": "address",
          "name": "_vaultAddress",
          "type": "address"
        }
      ],
      "name": "registerVault",
      "outputs": [],
      "payable": false,
      "stateMutability": "nonpayable",
      "type": "function"
    },
    {
      "constant": true,
      "inputs": [
        {
          "internalType": "bytes32",
          "name": "",
          "type": "bytes32"
        }
      ],
      "name": "outputsFinalizations",
      "outputs": [
        {
          "internalType": "uint168",
          "name": "",
          "type": "uint168"
        }
      ],
      "payable": false,
      "stateMutability": "view",
      "type": "function"
    },
    {
      "constant": true,
      "inputs": [],
      "name": "nextDepositBlock",
      "outputs": [
        {
          "internalType": "uint256",
          "name": "",
          "type": "uint256"
        }
      ],
      "payable": false,
      "stateMutability": "view",
      "type": "function"
    },
    {
      "constant": true,
      "inputs": [
        {
          "internalType": "uint256",
          "name": "_txType",
          "type": "uint256"
        }
      ],
      "name": "protocols",
      "outputs": [
        {
          "internalType": "uint8",
          "name": "",
          "type": "uint8"
        }
      ],
      "payable": false,
      "stateMutability": "view",
      "type": "function"
    },
    {
      "constant": true,
      "inputs": [
        {
          "internalType": "uint256",
          "name": "_vaultId",
          "type": "uint256"
        }
      ],
      "name": "vaults",
      "outputs": [
        {
          "internalType": "address",
          "name": "",
          "type": "address"
        }
      ],
      "payable": false,
      "stateMutability": "view",
      "type": "function"
    },
    {
      "constant": true,
      "inputs": [
        {
          "internalType": "bytes32",
          "name": "outputId",
          "type": "bytes32"
        }
      ],
      "name": "isOutputFinalized",
      "outputs": [
        {
          "internalType": "bool",
          "name": "",
          "type": "bool"
        }
      ],
      "payable": false,
      "stateMutability": "view",
      "type": "function"
    },
    {
      "constant": false,
      "inputs": [],
      "name": "activateChildChain",
      "outputs": [],
      "payable": false,
      "stateMutability": "nonpayable",
      "type": "function"
    },
    {
      "constant": true,
      "inputs": [
        {
          "internalType": "bytes32[]",
          "name": "_outputIds",
          "type": "bytes32[]"
        },
        {
          "internalType": "uint168",
          "name": "exitId",
          "type": "uint168"
        }
      ],
      "name": "isAnyInputFinalizedByOtherExit",
      "outputs": [
        {
          "internalType": "bool",
          "name": "",
          "type": "bool"
        }
      ],
      "payable": false,
      "stateMutability": "view",
      "type": "function"
    },
    {
      "constant": true,
      "inputs": [
        {
          "internalType": "address",
          "name": "_exitGame",
          "type": "address"
        }
      ],
      "name": "exitGameToTxType",
      "outputs": [
        {
          "internalType": "uint256",
          "name": "",
          "type": "uint256"
        }
      ],
      "payable": false,
      "stateMutability": "view",
      "type": "function"
    },
    {
      "constant": true,
      "inputs": [],
      "name": "CHILD_BLOCK_INTERVAL",
      "outputs": [
        {
          "internalType": "uint256",
          "name": "",
          "type": "uint256"
        }
      ],
      "payable": false,
      "stateMutability": "view",
      "type": "function"
    },
    {
      "constant": true,
      "inputs": [],
      "name": "nextDeposit",
      "outputs": [
        {
          "internalType": "uint256",
          "name": "",
          "type": "uint256"
        }
      ],
      "payable": false,
      "stateMutability": "view",
      "type": "function"
    },
    {
      "constant": true,
      "inputs": [
        {
          "internalType": "uint256",
          "name": "_txType",
          "type": "uint256"
        }
      ],
      "name": "exitGames",
      "outputs": [
        {
          "internalType": "address",
          "name": "",
          "type": "address"
        }
      ],
      "payable": false,
      "stateMutability": "view",
      "type": "function"
    },
    {
      "constant": false,
      "inputs": [
        {
          "internalType": "bytes32",
          "name": "_blockRoot",
          "type": "bytes32"
        }
      ],
      "name": "submitBlock",
      "outputs": [],
      "payable": false,
      "stateMutability": "nonpayable",
      "type": "function"
    },
    {
      "constant": false,
      "inputs": [
        {
          "internalType": "bytes32",
          "name": "_blockRoot",
          "type": "bytes32"
        }
      ],
      "name": "submitDepositBlock",
      "outputs": [
        {
          "internalType": "uint256",
          "name": "",
          "type": "uint256"
        }
      ],
      "payable": false,
      "stateMutability": "nonpayable",
      "type": "function"
    },
    {
      "constant": true,
      "inputs": [],
      "name": "authority",
      "outputs": [
        {
          "internalType": "address",
          "name": "",
          "type": "address"
        }
      ],
      "payable": false,
      "stateMutability": "view",
      "type": "function"
    },
    {
      "constant": true,
      "inputs": [
        {
          "internalType": "uint256",
          "name": "vaultId",
          "type": "uint256"
        },
        {
          "internalType": "address",
          "name": "token",
          "type": "address"
        }
      ],
      "name": "hasExitQueue",
      "outputs": [
        {
          "internalType": "bool",
          "name": "",
          "type": "bool"
        }
      ],
      "payable": false,
      "stateMutability": "view",
      "type": "function"
    },
    {
      "constant": true,
      "inputs": [
        {
          "internalType": "bytes32",
          "name": "",
          "type": "bytes32"
        }
      ],
      "name": "delegations",
      "outputs": [
        {
          "internalType": "contract IExitProcessor",
          "name": "",
          "type": "address"
        }
      ],
      "payable": false,
      "stateMutability": "view",
      "type": "function"
    },
    {
      "constant": true,
      "inputs": [],
      "name": "minExitPeriod",
      "outputs": [
        {
          "internalType": "uint256",
          "name": "",
          "type": "uint256"
        }
      ],
      "payable": false,
      "stateMutability": "view",
      "type": "function"
    },
    {
      "constant": true,
      "inputs": [
        {
          "internalType": "address",
          "name": "_vaultAddress",
          "type": "address"
        }
      ],
      "name": "vaultToId",
      "outputs": [
        {
          "internalType": "uint256",
          "name": "",
          "type": "uint256"
        }
      ],
      "payable": false,
      "stateMutability": "view",
      "type": "function"
    },
    {
      "constant": true,
      "inputs": [
        {
          "internalType": "uint256",
          "name": "blockNum",
          "type": "uint256"
        }
      ],
      "name": "isDeposit",
      "outputs": [
        {
          "internalType": "bool",
          "name": "",
          "type": "bool"
        }
      ],
      "payable": false,
      "stateMutability": "view",
      "type": "function"
    },
    {
      "constant": true,
      "inputs": [
        {
          "internalType": "uint256",
          "name": "",
          "type": "uint256"
        }
      ],
      "name": "blocks",
      "outputs": [
        {
          "internalType": "bytes32",
          "name": "root",
          "type": "bytes32"
        },
        {
          "internalType": "uint256",
          "name": "timestamp",
          "type": "uint256"
        }
      ],
      "payable": false,
      "stateMutability": "view",
      "type": "function"
    },
    {
      "constant": false,
      "inputs": [
        {
          "internalType": "uint256",
          "name": "_txType",
          "type": "uint256"
        },
        {
          "internalType": "address",
          "name": "_contract",
          "type": "address"
        },
        {
          "internalType": "uint8",
          "name": "_protocol",
          "type": "uint8"
        }
      ],
      "name": "registerExitGame",
      "outputs": [],
      "payable": false,
      "stateMutability": "nonpayable",
      "type": "function"
    },
    {
      "constant": false,
      "inputs": [],
      "name": "activateNonReentrant",
      "outputs": [],
      "payable": false,
      "stateMutability": "nonpayable",
      "type": "function"
    },
    {
      "inputs": [
        {
          "internalType": "uint256",
          "name": "_minExitPeriod",
          "type": "uint256"
        },
        {
          "internalType": "uint256",
          "name": "_initialImmuneVaults",
          "type": "uint256"
        },
        {
          "internalType": "uint256",
          "name": "_initialImmuneExitGames",
          "type": "uint256"
        },
        {
          "internalType": "address",
          "name": "_authority",
          "type": "address"
        },
        {
          "internalType": "address",
          "name": "_maintainer",
          "type": "address"
        }
      ],
      "payable": false,
      "stateMutability": "nonpayable",
      "type": "constructor"
    },
    {
      "anonymous": false,
      "inputs": [
        {
          "indexed": false,
          "internalType": "uint256",
          "name": "blknum",
          "type": "uint256"
        }
      ],
      "name": "BlockSubmitted",
      "type": "event"
    },
    {
      "anonymous": false,
      "inputs": [
        {
          "indexed": false,
          "internalType": "address",
          "name": "authority",
          "type": "address"
        }
      ],
      "name": "ChildChainActivated",
      "type": "event"
    },
    {
      "anonymous": false,
      "inputs": [
        {
          "indexed": false,
          "internalType": "uint256",
          "name": "vaultId",
          "type": "uint256"
        },
        {
          "indexed": false,
          "internalType": "address",
          "name": "token",
          "type": "address"
        }
      ],
      "name": "ExitQueueAdded",
      "type": "event"
    },
    {
      "anonymous": false,
      "inputs": [
        {
          "indexed": false,
          "internalType": "uint256",
          "name": "processedNum",
          "type": "uint256"
        },
        {
          "indexed": false,
          "internalType": "uint256",
          "name": "vaultId",
          "type": "uint256"
        },
        {
          "indexed": false,
          "internalType": "address",
          "name": "token",
          "type": "address"
        }
      ],
      "name": "ProcessedExitsNum",
      "type": "event"
    },
    {
      "anonymous": false,
      "inputs": [
        {
          "indexed": true,
          "internalType": "uint168",
          "name": "exitId",
          "type": "uint168"
        },
        {
          "indexed": false,
          "internalType": "uint256",
          "name": "priority",
          "type": "uint256"
        }
      ],
      "name": "ExitQueued",
      "type": "event"
    },
    {
      "anonymous": false,
      "inputs": [
        {
          "indexed": false,
          "internalType": "uint256",
          "name": "txType",
          "type": "uint256"
        },
        {
          "indexed": false,
          "internalType": "address",
          "name": "exitGameAddress",
          "type": "address"
        },
        {
          "indexed": false,
          "internalType": "uint8",
          "name": "protocol",
          "type": "uint8"
        }
      ],
      "name": "ExitGameRegistered",
      "type": "event"
    },
    {
      "anonymous": false,
      "inputs": [
        {
          "indexed": false,
          "internalType": "uint256",
          "name": "vaultId",
          "type": "uint256"
        },
        {
          "indexed": false,
          "internalType": "address",
          "name": "vaultAddress",
          "type": "address"
        }
      ],
      "name": "VaultRegistered",
      "type": "event"
    },
    {
      "constant": true,
      "inputs": [],
      "name": "getMaintainer",
      "outputs": [
        {
          "internalType": "address",
          "name": "",
          "type": "address"
        }
      ],
      "payable": false,
      "stateMutability": "view",
      "type": "function"
    },
    {
      "constant": true,
      "inputs": [],
      "name": "getVersion",
      "outputs": [
        {
          "internalType": "string",
          "name": "",
          "type": "string"
        }
      ],
      "payable": false,
      "stateMutability": "view",
      "type": "function"
    },
    {
      "constant": false,
      "inputs": [
        {
          "internalType": "string",
          "name": "_version",
          "type": "string"
        }
      ],
      "name": "setVersion",
      "outputs": [],
      "payable": false,
      "stateMutability": "nonpayable",
      "type": "function"
    }
  ],
  "bytecode": "0x6080604052600e805460ff191690553480156200001b57600080fd5b5060405162003bff38038062003bff8339810160408190526200003e91620000d5565b600285026003556004938455928402600955600a91909155600e8054610100600160a81b0319166101006001600160a01b03938416021790556103e8600f81905560105560016011556012805460ff19169055601492909255601580546001600160a01b031916929091169190911790556200018f565b8051620000c2816200016a565b92915050565b8051620000c28162000184565b600080600080600060a08688031215620000ee57600080fd5b6000620000fc8888620000c8565b95505060206200010f88828901620000c8565b94505060406200012288828901620000c8565b93505060606200013588828901620000b5565b92505060806200014888828901620000b5565b9150509295509295909350565b60006001600160a01b038216620000c2565b90565b620001758162000155565b81146200018157600080fd5b50565b620001758162000167565b613a60806200019f6000396000f3fe60806040523480156200001157600080fd5b5060043610620002745760003560e01c80638c3962201162000159578063be5ac69811620000c9578063dfb494f01162000087578063dfb494f01462000552578063ebde2ec91462000569578063f25b3f991462000580578063f2e208e714620005a7578063ff27b18914620005be5762000274565b8063be5ac69814620004f9578063bf7e214f1462000510578063c77b1ed6146200051a578063cf049cad1462000531578063d4a2b4ef14620005485762000274565b8063a239e5a21162000117578063a239e5a214620004a0578063a831fa0714620004b7578063a8cabcd514620004c1578063af07976414620004cb578063baa4769414620004e25762000274565b80638c396220146200042b5780638c64ea4a14620004515780638e29be311462000468578063a11dcc34146200047f578063a137381214620004895762000274565b806345f2093511620001f55780635a102dae11620001b35780635a102dae14620003b65780636a51fd6314620003cd57806377672b5e14620003e4578063788bc78c146200040a5780638701fc5d14620004215762000274565b806345f2093514620003685780634b0a72bc146200037f5780634ca8714f14620003985780634e0f743614620003a257806354fd4d5014620003ac5762000274565b8063296d54271162000243578063296d542714620002e45780632deef456146200030a5780633701b5ca1462000321578063383b3a19146200034757806338a9e0bc146200035e5762000274565b80630d8e6e2c14620002795780630e71ee02146200029b57806317a5677a14620002b457806320defd8114620002cd575b600080fd5b62000283620005c8565b60405162000292919062002c0f565b60405180910390f35b620002a562000663565b60405162000292919062002bd0565b620002cb620002c536600462001fd2565b6200066c565b005b620002cb620002de3660046200204e565b620007ae565b620002fb620002f536600462002108565b62000879565b60405162000292919062002e84565b620002cb6200031b3660046200213d565b6200091e565b62000338620003323660046200202d565b62000df7565b60405162000292919062002bff565b620002fb62000358366004620021a7565b62000e12565b620002fb6200100d565b620002cb6200037936600462002108565b62001013565b6200038962001108565b60405162000292919062002bc0565b620002fb62001117565b620002cb6200111d565b6200028362001198565b620002a5620003c736600462001fb1565b6200122a565b620002cb620003de36600462002108565b62001267565b620003fb620003f53660046200202d565b620013ce565b60405162000292919062002e3e565b620002cb6200041b3660046200208d565b620013e9565b620002fb62001438565b620004426200043c3660046200202d565b62001446565b60405162000292919062002ef1565b62000389620004623660046200202d565b6200145b565b620002a5620004793660046200202d565b62001476565b620002cb62001493565b620002a56200049a36600462001fd2565b62001549565b620002fb620004b136600462001fb1565b620015d9565b620002fb620015f4565b620002fb620015fa565b62000389620004dc3660046200202d565b62001600565b620002cb620004f33660046200202d565b6200161b565b620002fb6200050a3660046200202d565b620016e9565b62000389620017e6565b620002a56200052b36600462002108565b620017fa565b62000338620005423660046200202d565b62001816565b620002fb62001831565b620002fb6200056336600462001fb1565b62001837565b620002a56200057a3660046200202d565b62001852565b62000597620005913660046200202d565b62001898565b6040516200029292919062002be0565b620002cb620005b83660046200223c565b620018b1565b620002cb62001a6b565b60168054604080516020601f6002600019610100600188161502019095169490940493840181900481028201810190925282815260609390929091830182828015620006585780601f106200062c5761010080835404028352916020019162000658565b820191906000526020600020905b8154815290600101906020018083116200063a57829003601f168201915b505050505090505b90565b60125460ff1681565b33600090815260066020526040902054620006a45760405162461bcd60e51b81526004016200069b9062002cd6565b60405180910390fd5b620006b760083363ffffffff62001b0216565b15620006d75760405162461bcd60e51b81526004016200069b9062002ca0565b60005b82811015620007a8576000848483818110620006f257fe5b9050602002013514156200071a5760405162461bcd60e51b81526004016200069b9062002ce8565b600d60008585848181106200072b57fe5b60209081029290920135835250810191909152604001600020546001600160a81b03166200079f5781600d60008686858181106200076557fe5b90506020020135815260200190815260200160002060006101000a8154816001600160a81b0302191690836001600160a81b031602179055505b600101620006da565b50505050565b33600090815260066020526040902054620007dd5760405162461bcd60e51b81526004016200069b9062002cd6565b620007f060083363ffffffff62001b0216565b15620008105760405162461bcd60e51b81526004016200069b9062002ca0565b81620008305760405162461bcd60e51b81526004016200069b9062002ce8565b6000828152600d60205260409020546001600160a81b031662000875576000828152600d6020526040902080546001600160a81b0319166001600160a81b0383161790555b5050565b60008062000888848462001b20565b6000818152600c602090815260409182902054825163d6362e9760e01b815292519394506001600160a01b03169263d6362e97926004808201939291829003018186803b158015620008d957600080fd5b505afa158015620008ee573d6000803e3d6000fd5b505050506040513d601f19601f82011682018060405250620009149190810190620020e7565b9150505b92915050565b600e5460ff1615620009445760405162461bcd60e51b81526004016200069b9062002d78565b600e805460ff1916600117905560006200095f858562001b20565b90506200096c8162001b55565b6200098b5760405162461bcd60e51b81526004016200069b9062002dae565b6000818152600c6020908152604080832054815163bda1504b60e01b815291516001600160a01b039091169392849263bda1504b9260048083019392829003018186803b158015620009dc57600080fd5b505afa158015620009f1573d6000803e3d6000fd5b505050506040513d601f19601f8201168201806040525062000a179190810190620020e7565b1162000a375760405162461bcd60e51b81526004016200069b9062002de4565b6000816001600160a01b031663d6362e976040518163ffffffff1660e01b815260040160206040518083038186803b15801562000a7357600080fd5b505afa15801562000a88573d6000803e3d6000fd5b505050506040513d601f19601f8201168201806040525062000aae9190810190620020e7565b9050600062000abd8262000660565b90506001600160a81b038616158062000ae75750856001600160a81b0316816001600160a81b0316145b62000b065760405162461bcd60e51b81526004016200069b9062002cfa565b600062000b15838a8a62001b72565b6000818152600b60205260408120549192506001600160a01b03909116905b878110801562000b5357504262000b4b8662001baa565b63ffffffff16105b1562000d94576000838152600b6020908152604080832080546001600160a01b03191690558051632c1d5dab60e21b815290516001600160a01b038a169363b07576ac93600480850194919392918390030190829087803b15801562000bb857600080fd5b505af115801562000bcd573d6000803e3d6000fd5b505050506040513d601f19601f8201168201806040525062000bf39190810190620020e7565b506040516333b95e5560e01b81526001909101906001600160a01b038316906333b95e559062000c2c9087908f908f9060040162002e4e565b600060405180830381600087803b15801562000c4757600080fd5b505af115801562000c5c573d6000803e3d6000fd5b50505050856001600160a01b031663bda1504b6040518163ffffffff1660e01b815260040160206040518083038186803b15801562000c9a57600080fd5b505afa15801562000caf573d6000803e3d6000fd5b505050506040513d601f19601f8201168201806040525062000cd59190810190620020e7565b62000ce05762000d94565b856001600160a01b031663d6362e976040518163ffffffff1660e01b815260040160206040518083038186803b15801562000d1a57600080fd5b505afa15801562000d2f573d6000803e3d6000fd5b505050506040513d601f19601f8201168201806040525062000d559190810190620020e7565b945062000d64858c8c62001b72565b925062000d718562000660565b6000848152600b60205260409020549094506001600160a01b0316915062000b34565b7f7e35599fe450e626673ce6c37179ef9820aed16f76c1b350618ef7a612d13005818c8c60405162000dc99392919062002ee1565b60405180910390a15050600e5460ff16945062000de7935050505057fe5b5050600e805460ff191690555050565b600c602052600090815260409020546001600160a01b031681565b3360009081526006602052604081205462000e415760405162461bcd60e51b81526004016200069b9062002cd6565b62000e5460083363ffffffff62001b0216565b1562000e745760405162461bcd60e51b81526004016200069b9062002ca0565b600062000e82888862001b20565b905062000e8f8162001b55565b62000eae5760405162461bcd60e51b81526004016200069b9062002c8e565b6000818152600c60205260408120546001600160a01b03169062000ee48862000edd368a90038a018a620020c6565b8862001bb0565b6040516390b5561d60e01b81529091506001600160a01b038316906390b5561d9062000f1590849060040162002e84565b600060405180830381600087803b15801562000f3057600080fd5b505af115801562000f45573d6000803e3d6000fd5b50505050600062000f58828c8c62001b72565b6000818152600b60205260409020549091506001600160a01b03161562000f935760405162461bcd60e51b81526004016200069b9062002c7c565b6000818152600b60205260409081902080546001600160a01b0319166001600160a01b038916179055516001600160a81b038816907fff8bed3fbf0c1a01d8a5fbac133a08b72f688d495d836354820c1ecc41cc76b89062000ff790859062002e84565b60405180910390a2509998505050505050505050565b600f5481565b81620010335760405162461bcd60e51b81526004016200069b9062002e2c565b600062001041838362001b20565b90506200104e8162001b55565b156200106e5760405162461bcd60e51b81526004016200069b9062002c22565b6040516200107c9062001d67565b604051809103906000f08015801562001099573d6000803e3d6000fd5b506000828152600c60205260409081902080546001600160a01b0319166001600160a01b039390931692909217909155517f0a925273fd754a41a580f8214815d5ae8a37367f561b3bd9d91a96730a418a1790620010fb908590859062002e94565b60405180910390a1505050565b6015546001600160a01b031690565b60105481565b336000908152600660205260409020546200114c5760405162461bcd60e51b81526004016200069b9062002cd6565b6200115f60083363ffffffff62001b0216565b156200117f5760405162461bcd60e51b81526004016200069b9062002ca0565b600e5460ff166200118c57fe5b600e805460ff19169055565b6016805460408051602060026001851615610100026000190190941693909304601f81018490048402820184019092528181529291830182828015620012225780601f10620011f65761010080835404028352916020019162001222565b820191906000526020600020905b8154815290600101906020018083116200120457829003601f168201915b505050505081565b6001600160a01b038116600090815260066020526040812054158015906200091857506200126060088363ffffffff62001b0216565b1592915050565b6200127162001108565b336001600160a01b038216146200129c5760405162461bcd60e51b81526004016200069b9062002d42565b82620012bc5760405162461bcd60e51b81526004016200069b9062002d0c565b620012c78262001bee565b620012e65760405162461bcd60e51b81526004016200069b9062002dc0565b6000838152602081905260409020546001600160a01b0316156200131e5760405162461bcd60e51b81526004016200069b9062002e08565b6001600160a01b03821660009081526001602052604090205415620013575760405162461bcd60e51b81526004016200069b9062002dd2565b60008381526020818152604080832080546001600160a01b0319166001600160a01b0387169081179091558352600190915290208390556200139b60028362001bf4565b7f7051aac27f9b76ec8f37bd5796f2dcf402bd840a1c45c952a6eeb0e11bde09968383604051620010fb92919062002e94565b600d602052600090815260409020546001600160a81b031681565b620013f362001108565b336001600160a01b038216146200141e5760405162461bcd60e51b81526004016200069b9062002d42565b81516200143390601690602085019062001d75565b505050565b601154600f54601054030190565b60009081526007602052604090205460ff1690565b6000908152602081905260409020546001600160a01b031690565b6000908152600d60205260409020546001600160a81b0316151590565b600e5461010090046001600160a01b0316338114620014c65760405162461bcd60e51b81526004016200069b9062002d42565b60125460ff1615620014ec5760405162461bcd60e51b81526004016200069b9062002d54565b60128054600160ff19909116179055600e546040517fb8421a1acb5f1e701a4f11ecaad76fa438b3947e8dfd6960b6086130e68e0aed916200153e916101009091046001600160a01b03169062002bc0565b60405180910390a150565b6000805b83811015620015cc576000600d60008787858181106200156957fe5b60209081029290920135835250810191909152604001600020546001600160a81b031690508015801590620015b05750836001600160a81b0316816001600160a81b031614155b15620015c257600192505050620015d2565b506001016200154d565b50600090505b9392505050565b6001600160a01b031660009081526006602052604090205490565b6103e881565b60115481565b6000908152600560205260409020546001600160a01b031690565b600e5461010090046001600160a01b03163381146200164e5760405162461bcd60e51b81526004016200069b9062002d42565b60125460ff161515600114620016785760405162461bcd60e51b81526004016200069b9062002c6a565b60108054604080518082018252858152426020808301918252600085815260139091528390209151825551600191820155600f5484540190935560119290925590517f5a978f4723b249ccf79cd7a658a8601ce1ff8b89fc770251a6be35216351ce3290620010fb90839062002e84565b33600090815260016020526040812054620017185760405162461bcd60e51b81526004016200069b9062002d66565b6200172b60023363ffffffff62001b0216565b156200174b5760405162461bcd60e51b81526004016200069b9062002e1a565b60125460ff161515600114620017755760405162461bcd60e51b81526004016200069b9062002c6a565b600f54601154106200179b5760405162461bcd60e51b81526004016200069b9062002df6565b6000620017a762001438565b60408051808201825294855242602080870191825260008481526013909152919091209451855551600194850155601180549094019093555090919050565b600e5461010090046001600160a01b031681565b60008062001809848462001b20565b9050620009148162001b55565b600b602052600090815260409020546001600160a01b031681565b60145481565b6001600160a01b031660009081526001602052604090205490565b600081815260136020526040812060010154620018835760405162461bcd60e51b81526004016200069b9062002c34565b600f5482816200188f57fe5b06151592915050565b6013602052600090815260409020805460019091015482565b620018bb62001108565b336001600160a01b03821614620018e65760405162461bcd60e51b81526004016200069b9062002d42565b83620019065760405162461bcd60e51b81526004016200069b9062002d1e565b620019118362001bee565b620019305760405162461bcd60e51b81526004016200069b9062002dc0565b6000848152600560205260409020546001600160a01b031615620019685760405162461bcd60e51b81526004016200069b9062002d8a565b6001600160a01b03831660009081526006602052604090205415620019a15760405162461bcd60e51b81526004016200069b9062002c46565b620019ac8262001c97565b620019cb5760405162461bcd60e51b81526004016200069b9062002c58565b600084815260056020908152604080832080546001600160a01b0319166001600160a01b03881690811790915583526006825280832087905586835260079091529020805460ff191660ff841617905562001a2860088462001bf4565b7f0ceb02f7474c01f5959171cead2f5fb2a44d9c16fe480725a2110b601b19db8284848460405162001a5d9392919062002eb3565b60405180910390a150505050565b3360009081526006602052604090205462001a9a5760405162461bcd60e51b81526004016200069b9062002cd6565b62001aad60083363ffffffff62001b0216565b1562001acd5760405162461bcd60e51b81526004016200069b9062002ca0565b600e5460ff161562001af35760405162461bcd60e51b81526004016200069b9062002d78565b600e805460ff19166001179055565b6001600160a01b031660009081526020919091526040902054421090565b6000828260405160200162001b3792919062002b59565b60405160208183030381529060405280519060200120905092915050565b6000908152600c60205260409020546001600160a01b0316151590565b600083838360405160200162001b8b9392919062002b83565b6040516020818303038152906040528051906020012090509392505050565b60e01c90565b6000816001600160a81b031660a862001bc98562001cb1565b66ffffffffffffff16901b6020610100038663ffffffff16901b171790509392505050565b3b151590565b6001600160a01b03811662001c1d5760405162461bcd60e51b81526004016200069b9062002d30565b6001600160a01b0381166000908152602083905260409020541562001c565760405162461bcd60e51b81526004016200069b9062002cb2565b600282015462001c895760018201546001600160a01b038216600090815260208490526040902042909101905562000875565b506002018054600019019055565b600060ff8216600114806200091857505060ff1660021490565b600061271062001cc18362001cd0565b8162001cc957fe5b0492915050565b6000600161271003826040015161ffff16111562001d025760405162461bcd60e51b81526004016200069b9062002cc4565b815164a7c5ac471a67ffffffffffffffff909116111562001d375760405162461bcd60e51b81526004016200069b9062002d9c565b5060408101516020820151825167ffffffffffffffff16633b9aca000261ffff9182166127100201911601919050565b61099e806200308083390190565b828054600181600116156101000203166002900490600052602060002090601f016020900481019282601f1062001db857805160ff191683800117855562001de8565b8280016001018555821562001de8579182015b8281111562001de857825182559160200191906001019062001dcb565b5062001df692915062001dfa565b5090565b6200066091905b8082111562001df6576000815560010162001e01565b8035620009188162003018565b60008083601f84011262001e3757600080fd5b50813567ffffffffffffffff81111562001e5057600080fd5b60208301915083602082028301111562001e6957600080fd5b9250929050565b8035620009188162003032565b803562000918816200303d565b600082601f83011262001e9c57600080fd5b813562001eb362001ead8262002f29565b62002f01565b9150808252602083016020830185838301111562001ed057600080fd5b62001edd83828462002fb9565b50505092915050565b60006060828403121562001ef957600080fd5b50919050565b60006060828403121562001f1257600080fd5b62001f1e606062002f01565b9050600062001f2e848462001f97565b825250602062001f418484830162001f63565b602083015250604062001f578482850162001f63565b60408301525092915050565b8035620009188162003048565b8035620009188162003053565b8051620009188162003032565b803562000918816200305e565b8035620009188162003069565b8035620009188162003074565b60006020828403121562001fc457600080fd5b600062000914848462001e17565b60008060006040848603121562001fe857600080fd5b833567ffffffffffffffff8111156200200057600080fd5b6200200e8682870162001e24565b93509350506020620020238682870162001f70565b9150509250925092565b6000602082840312156200204057600080fd5b600062000914848462001e70565b600080604083850312156200206257600080fd5b600062002070858562001e70565b9250506020620020838582860162001f70565b9150509250929050565b600060208284031215620020a057600080fd5b813567ffffffffffffffff811115620020b857600080fd5b620009148482850162001e8a565b600060608284031215620020d957600080fd5b600062000914848462001eff565b600060208284031215620020fa57600080fd5b600062000914848462001f7d565b600080604083850312156200211c57600080fd5b60006200212a858562001e70565b9250506020620020838582860162001e17565b600080600080608085870312156200215457600080fd5b600062002162878762001e70565b9450506020620021758782880162001e17565b9350506040620021888782880162001f70565b92505060606200219b8782880162001e70565b91505092959194509250565b6000806000806000806101008789031215620021c257600080fd5b6000620021d0898962001e70565b9650506020620021e389828a0162001e17565b9550506040620021f689828a0162001f8a565b94505060606200220989828a0162001ee6565b93505060c06200221c89828a0162001f70565b92505060e06200222f89828a0162001e7d565b9150509295509295509295565b6000806000606084860312156200225257600080fd5b600062002260868662001e70565b9350506020620022738682870162001e17565b9250506040620020238682870162001fa4565b620022918162002f5f565b82525050565b62002291620022a68262002f5f565b62002ff4565b620022918162002f6c565b620022918162000660565b620022918162002f71565b6000620022da8262002f52565b620022e6818562002f56565b9350620022f881856020860162002fc5565b620023038162003008565b9093019392505050565b60006200231c60118362002f56565b70457869742071756575652065786973747360781b815260200192915050565b60006200234b60148362002f56565b73109b1bd8dac8191bd95cc81b9bdd08195e1a5cdd60621b815260200192915050565b60006200237d602c8362002f56565b7f54686520657869742067616d6520636f6e747261637420697320616c7265616481526b1e481c9959da5cdd195c995960a21b602082015260400192915050565b6000620023cd60168362002f56565b75496e76616c69642070726f746f636f6c2076616c756560501b815260200192915050565b600062002401603b8362002f56565b7f4368696c6420636861696e20686173206e6f74206265656e206163746976617481527f656420627920617574686f726974792061646472657373207965740000000000602082015260400192915050565b60006200246260258362002f56565b7f5468652073616d65207072696f7269747920697320616c726561647920656e718152641d595d595960da1b602082015260400192915050565b6000620024ab60508362002f56565b7f54686520717565756520666f722074686520287661756c7449642c20746f6b6581527f6e292070616972206973206e6f742079657420616464656420746f207468652060208201526f506c61736d61206672616d65776f726b60801b604082015260600192915050565b60006200252560178362002f56565b7f4578697447616d652069732071756172616e74696e6564000000000000000000815260200192915050565b60006200256060238362002f56565b7f54686520636f6e747261637420697320616c72656164792071756172616e74698152621b995960ea1b602082015260400192915050565b6000620025a760148362002f56565b73092dcecc2d8d2c840deeae8e0eae840d2dcc8caf60631b815260200192915050565b6000620025d960348362002f56565b7f5468652063616c6c206973206e6f742066726f6d2061207265676973746572658152731908195e1a5d0819d85b594818dbdb9d1c9858dd60621b602082015260400192915050565b60006200263160238362002f56565b7f53686f756c64206e6f7420666c6167207769746820656d707479206f757470758152621d125960ea1b602082015260400192915050565b600062002678603a8362002f56565b7f546f702065786974204944206f6620746865207175657565206973206469666681527f6572656e7420746f20746865206f6e6520737065636966696564000000000000602082015260400192915050565b6000620026d960238362002f56565b7f53686f756c64206e6f742072656769737465722077697468207661756c74204981526204420360ec1b602082015260400192915050565b60006200272060228362002f56565b7f53686f756c64206e6f7420726567697374657220776974682074782074797065815261020360f41b602082015260400192915050565b60006200276660268362002f56565b7f416e20656d70747920616464726573732063616e6e6f742062652071756172618152651b9d1a5b995960d21b602082015260400192915050565b6000620027b0601e8362002f56565b7f43616c6c6572206164647265737320697320756e617574686f72697a65640000815260200192915050565b6000620027eb601d8362002f56565b7f4368696c6420636861696e20616c726561647920616374697661746564000000815260200192915050565b60006200282660278362002f56565b7f5468652063616c6c206973206e6f742066726f6d20612072656769737465726581526619081d985d5b1d60ca1b602082015260400192915050565b600062002871600e8362002f56565b6d1499595b9d1c985b9d0818d85b1b60921b815260200192915050565b60006200289d60218362002f56565b7f546865207478207479706520697320616c7265616479207265676973746572658152601960fa1b602082015260400192915050565b6000620028e260148362002f56565b7324b73b30b634b210313637b1b590373ab6b132b960611b815260200192915050565b60006200291460328362002f56565b7f54686520746f6b656e206973206e6f742079657420616464656420746f2074688152716520506c61736d61206672616d65776f726b60701b602082015260400192915050565b60006200296a602f8362002f56565b7f53686f756c64206e6f7420726567697374657220776974682061206e6f6e2d6381526e6f6e7472616374206164647265737360881b602082015260400192915050565b6000620029bd60288362002f56565b7f546865207661756c7420636f6e747261637420697320616c726561647920726581526719da5cdd195c995960c21b602082015260400192915050565b600062002a0960138362002f56565b724578697420717565756520697320656d70747960681b815260200192915050565b600062002a3a60338362002f56565b7f4578636565646564206c696d6974206f66206465706f736974732070657220638152721a1a5b1908189b1bd8dac81a5b9d195c9d985b606a1b602082015260400192915050565b600062002a9160228362002f56565b7f546865207661756c7420494420697320616c7265616479207265676973746572815261195960f21b602082015260400192915050565b600062002ad760148362002f56565b7315985d5b1d081a5cc81c5d585c985b9d1a5b995960621b815260200192915050565b600062002b0960168362002f56565b7505661756c74204944206d757374206e6f7420626520360541b815260200192915050565b620022918162002f91565b6200229162002b488262000660565b62000660565b620022918162002fb3565b600062002b67828562002b39565b60208201915062002b79828462002297565b5060140192915050565b600062002b91828662002b39565b60208201915062002ba3828562002b39565b60208201915062002bb5828462002297565b506014019392505050565b6020810162000918828462002286565b60208101620009188284620022ac565b6040810162002bf08285620022b7565b620015d26020830184620022b7565b60208101620009188284620022c2565b60208082528101620015d28184620022cd565b6020808252810162000918816200230d565b6020808252810162000918816200233c565b6020808252810162000918816200236e565b602080825281016200091881620023be565b602080825281016200091881620023f2565b60208082528101620009188162002453565b6020808252810162000918816200249c565b60208082528101620009188162002516565b60208082528101620009188162002551565b60208082528101620009188162002598565b602080825281016200091881620025ca565b60208082528101620009188162002622565b60208082528101620009188162002669565b602080825281016200091881620026ca565b60208082528101620009188162002711565b60208082528101620009188162002757565b602080825281016200091881620027a1565b602080825281016200091881620027dc565b60208082528101620009188162002817565b60208082528101620009188162002862565b6020808252810162000918816200288e565b602080825281016200091881620028d3565b60208082528101620009188162002905565b6020808252810162000918816200295b565b602080825281016200091881620029ae565b602080825281016200091881620029fa565b60208082528101620009188162002a2b565b60208082528101620009188162002a82565b60208082528101620009188162002ac8565b60208082528101620009188162002afa565b6020810162000918828462002b2e565b6060810162002e5e828662002b2e565b62002e6d6020830185620022b7565b62002e7c604083018462002286565b949350505050565b60208101620009188284620022b7565b6040810162002ea48285620022b7565b620015d2602083018462002286565b6060810162002ec38286620022b7565b62002ed2602083018562002286565b62002e7c604083018462002b4e565b6060810162002e5e8286620022b7565b6020810162000918828462002b4e565b60405181810167ffffffffffffffff8111828210171562002f2157600080fd5b604052919050565b600067ffffffffffffffff82111562002f4157600080fd5b506020601f91909101601f19160190565b5190565b90815260200190565b6000620009188262002f85565b151590565b6000620009188262002f5f565b61ffff1690565b6001600160a01b031690565b6001600160a81b031690565b63ffffffff1690565b67ffffffffffffffff1690565b60ff1690565b82818337506000910152565b60005b8381101562002fe257818101518382015260200162002fc8565b83811115620007a85750506000910152565b600062000918826000620009188262003012565b601f01601f191690565b60601b90565b620030238162002f5f565b81146200302f57600080fd5b50565b620030238162000660565b620030238162002f71565b620030238162002f7e565b620030238162002f91565b620030238162002f9d565b620030238162002fa6565b620030238162002fb356fe608060405234801561001057600080fd5b506040805160208101909152600080825261002c916001610049565b506000600155600280546001600160a01b031916331790556100b6565b828054828255906000526020600020908101928215610089579160200282015b82811115610089578251829060ff16905591602001919060010190610069565b50610095929150610099565b5090565b6100b391905b80821115610095576000815560010161009f565b90565b6108d9806100c56000396000f3fe608060405234801561001057600080fd5b506004361061007d5760003560e01c8063bda1504b1161005b578063bda1504b14610113578063d6362e971461011b578063e10d29ee14610123578063e9de55531461012b5761007d565b8063446b2f881461008257806390b5561d146100da578063b07576ac146100f9575b600080fd5b61008a61014f565b60408051602080825283518183015283519192839290830191858101910280838360005b838110156100c65781810151838201526020016100ae565b505050509050019250505060405180910390f35b6100f7600480360360208110156100f057600080fd5b50356101aa565b005b610101610263565b60408051918252519081900360200190f35b6101016103c5565b6101016103cb565b610101610432565b610133610438565b604080516001600160a01b039092168252519081900360200190f35b60606000800180548060200260200160405190810160405280929190818152602001828054801561019f57602002820191906000526020600020905b81548152602001906001019080831161018b575b505050505090505b90565b6002546001600160a01b031633811461020a576040805162461bcd60e51b815260206004820152601e60248201527f43616c6c6572206164647265737320697320756e617574686f72697a65640000604482015290519081900360640190fd5b60008054600181810183559180527f290decd9548b62a8d60345a988386fc84ba6bc95484008f6362f93160ef3e56301839055805461024e9163ffffffff61044716565b600181905561025f906000906104aa565b5050565b6002546000906001600160a01b03163381146102c6576040805162461bcd60e51b815260206004820152601e60248201527f43616c6c6572206164647265737320697320756e617574686f72697a65640000604482015290519081900360640190fd5b60015461030b576040805162461bcd60e51b815260206004820152600e60248201526d517565756520697320656d70747960901b604482015290519081900360640190fd5b60008060000160018154811061031d57fe5b6000918252602082200154600154825491935090811061033957fe5b90600052602060002001546000800160018154811061035457fe5b60009182526020822001919091556001548154811061036f57fe5b60009182526020822001556001805461038d9163ffffffff61058016565b600190815561039e906000906105dd565b6000546103b290600163ffffffff61058016565b6103bd600082610840565b5091505b5090565b60015490565b600154600090610413576040805162461bcd60e51b815260206004820152600e60248201526d517565756520697320656d70747960901b604482015290519081900360640190fd5b60008054600190811061042257fe5b9060005260206000200154905090565b60015481565b6002546001600160a01b031681565b6000828201838110156104a1576040805162461bcd60e51b815260206004820152601b60248201527f536166654d6174683a206164646974696f6e206f766572666c6f770000000000604482015290519081900360640190fd5b90505b92915050565b8154819081906000908590839081106104bf57fe5b906000526020600020015490505b846104df84600263ffffffff6106b416565b815481106104e957fe5b9060005260206000200154811015610555578461050d84600263ffffffff6106b416565b8154811061051757fe5b906000526020600020015485600001848154811061053157fe5b60009182526020909120015561054e83600263ffffffff6106b416565b92506104cd565b818314610579578085600001848154811061056c57fe5b6000918252602090912001555b5050505050565b6000828211156105d7576040805162461bcd60e51b815260206004820152601e60248201527f536166654d6174683a207375627472616374696f6e206f766572666c6f770000604482015290519081900360640190fd5b50900390565b8154819081906000908590839081106105f257fe5b90600052602060002001549050600061060b868561071e565b90505b8560010154811115801561063a575085600001818154811061062c57fe5b906000526020600020015482115b156106885785600001818154811061064e57fe5b906000526020600020015486600001858154811061066857fe5b600091825260209091200155925082610681868261071e565b905061060e565b8284146106ac578186600001858154811061069f57fe5b6000918252602090912001555b505050505050565b600080821161070a576040805162461bcd60e51b815260206004820152601a60248201527f536166654d6174683a206469766973696f6e206279207a65726f000000000000604482015290519081900360640190fd5b600082848161071557fe5b04949350505050565b6001808301546000916107489061073c85600263ffffffff6107e716565b9063ffffffff61044716565b11156107665761075f82600263ffffffff6107e716565b90506104a4565b8261077d600161073c85600263ffffffff6107e716565b8154811061078757fe5b600091825260209091200154836107a584600263ffffffff6107e716565b815481106107af57fe5b906000526020600020015410156107d15761075f82600263ffffffff6107e716565b61075f600161073c84600263ffffffff6107e716565b6000826107f6575060006104a4565b8282028284828161080357fe5b04146104a15760405162461bcd60e51b81526004018080602001828103825260218152602001806108846021913960400191505060405180910390fd5b81548183558181111561086457600083815260209020610864918101908301610869565b505050565b6101a791905b808211156103c1576000815560010161086f56fe536166654d6174683a206d756c7469706c69636174696f6e206f766572666c6f77a265627a7a7231582057e671a01aafc0fd93a3ddf5be2b296b3ef79a58902a6630da3c2dd33fb9a8bd64736f6c634300050b0032a365627a7a723158200b3b924d3339c62ec51df03f551391cf8a6e8a70327a23b9346c9a896babdda96c6578706572696d656e74616cf564736f6c634300050b0040",
  "source": "pragma solidity 0.5.11;\npragma experimental ABIEncoderV2;\n\nimport \"./BlockController.sol\";\nimport \"./ExitGameController.sol\";\nimport \"./registries/VaultRegistry.sol\";\nimport \"./registries/ExitGameRegistry.sol\";\n\ncontract PlasmaFramework is VaultRegistry, ExitGameRegistry, ExitGameController, BlockController {\n    uint256 public constant CHILD_BLOCK_INTERVAL = 1000;\n\n    /**\n     * The minimum finalization period is the Plasma guarantee that all exits are safe provided the user takes action within the specified time period\n     * When the child chain is rogue, user should start their exit and challenge any invalid exit within this period\n     * An exit can be processed/finalized after minimum two finalization periods from its inclusion position, unless it is an exit for a deposit,\n     * which would use one finalization period, instead of two\n     *\n     * For the Abstract Layer Design, OmiseGO also uses some multitude of this period to update its framework\n     * See also ExitGameRegistry.sol, VaultRegistry.sol, and Vault.sol for more information on the update waiting time (the quarantined period)\n     *\n     * MVP: https://ethresear.ch/t/minimal-viable-plasma/426\n     * MoreVP: https://github.com/omisego/elixir-omg/blob/master/docs/morevp.md#timeline\n     * Special period for deposit: https://git.io/JecCV\n     */\n    uint256 public minExitPeriod;\n    address private maintainer;\n    string public version;\n\n    constructor(\n        uint256 _minExitPeriod,\n        uint256 _initialImmuneVaults,\n        uint256 _initialImmuneExitGames,\n        address _authority,\n        address _maintainer\n    )\n        public\n        BlockController(CHILD_BLOCK_INTERVAL, _minExitPeriod, _initialImmuneVaults, _authority)\n        ExitGameController(_minExitPeriod, _initialImmuneExitGames)\n    {\n        minExitPeriod = _minExitPeriod;\n        maintainer = _maintainer;\n    }\n\n    function getMaintainer() public view returns (address) {\n        return maintainer;\n    }\n\n    /**\n     * @notice Gets the semantic version of the current deployed contracts\n    */\n    function getVersion() external view returns (string memory) {\n        return version;\n    }\n    \n    /**\n     * @notice Sets the semantic version of the current deployed contracts\n     * @param _version is semver string\n     */\n    function setVersion(string memory _version) public onlyFrom(getMaintainer()) {\n        version = _version;\n    }\n}",
  "sourcePath": "/Users/souradeep/Downloads/Work/plasma-contracts/plasma_framework/contracts/src/framework/PlasmaFramework.sol",
  "compiler": {
    "name": "solc",
    "version": "0.5.11+commit.c082d0b4.Emscripten.clang"
  },
  "schemaVersion": "3.2.0",
  "updatedAt": "2020-06-22T07:55:50.083Z",
  "devdoc": {
    "methods": {
      "activateChildChain()": {
        "details": "This is a preserved action for authority account to start its nonce with 1.     Child chain rely ethereum nonce to protect re-org: https://git.io/JecDG     see discussion: https://git.io/JenaT, https://git.io/JecDO"
      },
      "activateNonReentrant()": {
        "details": "Accessible only from non quarantined exit games, uses a mutex"
      },
      "addExitQueue(uint256,address)": {
        "details": "The queue is created as a new contract instance",
        "params": {
          "token": "Address of the token",
          "vaultId": "ID of the vault"
        }
      },
      "batchFlagOutputsFinalized(bytes32[],uint168)": {
        "params": {
          "outputIds": "Output IDs to flag"
        }
      },
      "deactivateNonReentrant()": {
        "details": "Accessible only from non quarantined exit games, uses a mutex"
      },
      "enqueue(uint256,address,uint32,(uint64,uint16,uint16),uint168,address)": {
        "details": "emits ExitQueued event, which can be used to back trace the priority inside the queueCaller of this function should add \"pragma experimental ABIEncoderV2;\" on top of filePriority (exitableAt, txPos, exitId) must be unique per queue. Do not enqueue when the same priority is already in the queue.",
        "params": {
          "exitId": "ID used by the exit processor contract to determine how to process the exit",
          "exitProcessor": "The exit processor contract, called during \"processExits\"",
          "exitableAt": "The earliest time a specified exit can be processed",
          "token": "Token for the exit",
          "txPos": "Transaction position for the exit priority. For SE it should be the exit tx, for IFE it should be the youngest input tx position.",
          "vaultId": "Vault ID of the vault that stores exiting funds"
        },
        "return": "A unique priority number computed for the exit"
      },
      "flagOutputFinalized(bytes32,uint168)": {
        "params": {
          "outputId": "The output ID to flag as spent"
        }
      },
      "hasExitQueue(uint256,address)": {
        "params": {
          "token": "Address of the token",
          "vaultId": "ID of the vault that handles the token"
        },
        "return": "bool Defines whether the queue for a token was created"
      },
      "isAnyInputFinalizedByOtherExit(bytes32[],uint168)": {
        "params": {
          "_outputIds": "Output IDs to check"
        }
      },
      "isExitGameSafeToUse(address)": {
        "details": "Exposes information about exit games quarantine",
        "params": {
          "_contract": "Address of the exit game contract"
        },
        "return": "boolean Whether the contract is safe to use and is not under quarantine"
      },
      "isOutputFinalized(bytes32)": {
        "params": {
          "outputId": "Output ID to check"
        }
      },
      "processExits(uint256,address,uint168,uint256)": {
        "details": "Emits ProcessedExitsNum event",
        "params": {
          "maxExitsToProcess": "Maximum number of exits to process",
          "token": "The token type to process",
          "topExitId": "Unique identifier for prioritizing the first exit to process. Set to zero to skip this check.",
          "vaultId": "Vault ID of the vault that stores exiting funds"
        },
        "return": "Total number of processed exits"
      },
      "registerExitGame(uint256,address,uint8)": {
        "details": "Emits ExitGameRegistered event to notify clients",
        "params": {
          "_contract": "Address of the exit game contract",
          "_protocol": "The transaction protocol, either 1 for MVP or 2 for MoreVP",
          "_txType": "The tx type where the exit game wants to register"
        }
      },
      "registerVault(uint256,address)": {
        "details": "emits VaultRegistered event to notify clients",
        "params": {
          "_vaultAddress": "Address of the vault contract",
          "_vaultId": "The ID for the vault contract to register"
        }
      },
      "setVersion(string)": {
        "params": {
          "_version": "is semver string"
        }
      },
      "submitBlock(bytes32)": {
        "details": "emit BlockSubmitted eventBlock number jumps 'childBlockInterval' per submissionSee discussion in https://github.com/omisego/plasma-contracts/issues/233",
        "params": {
          "_blockRoot": "Merkle root of the Plasma block"
        }
      },
      "submitDepositBlock(bytes32)": {
        "details": "Block number adds 1 per submission; it's possible to have at most 'childBlockInterval' deposit blocks between two child chain blocks",
        "params": {
          "_blockRoot": "Merkle root of the Plasma block"
        },
        "return": "The deposit block number"
      }
    }
  },
  "userdoc": {
    "methods": {
      "activateChildChain()": {
        "notice": "Activates the child chain so that child chain can start to submit child blocks to root chainCan only be called once by the authority.Sets isChildChainActivated to true and emits the ChildChainActivated event."
      },
      "activateNonReentrant()": {
        "notice": "Activates non reentrancy mode        Guards against reentering into publicly accessible code that modifies state related to exits"
      },
      "addExitQueue(uint256,address)": {
        "notice": "Adds queue to the Plasma framework"
      },
      "batchFlagOutputsFinalized(bytes32[],uint168)": {
        "notice": "Batch flags already spent outputs (only not already spent)"
      },
      "deactivateNonReentrant()": {
        "notice": "Deactivates non reentrancy mode"
      },
      "enqueue(uint256,address,uint32,(uint64,uint16,uint16),uint168,address)": {
        "notice": "Enqueue exits from exit game contracts is a function that places the exit into the        priority queue to enforce the priority of exit during 'processExits'"
      },
      "exitGameToTxType(address)": {
        "notice": "Public getter for retrieving tx type with exit game address"
      },
      "exitGames(uint256)": {
        "notice": "Public getter for retrieving exit game address with tx type"
      },
      "flagOutputFinalized(bytes32,uint168)": {
        "notice": "Flags a single output as spent if it is not flagged already"
      },
      "getVersion()": {
        "notice": "Gets the semantic version of the current deployed contracts"
      },
      "hasExitQueue(uint256,address)": {
        "notice": "Checks if the queue for a specified token was created"
      },
      "isAnyInputFinalizedByOtherExit(bytes32[],uint168)": {
        "notice": "Checks whether any of the output with the given outputIds is already spent"
      },
      "isExitGameSafeToUse(address)": {
        "notice": "Checks whether the contract is safe to use and is not under quarantine"
      },
      "isOutputFinalized(bytes32)": {
        "notice": "Checks whether output with a given outputId is finalized"
      },
      "processExits(uint256,address,uint168,uint256)": {
        "notice": "Processes any exits that have completed the challenge period. Exits are processed according to the exit priority."
      },
      "protocols(uint256)": {
        "notice": "Public getter for retrieving protocol with tx type"
      },
      "registerExitGame(uint256,address,uint8)": {
        "notice": "Registers an exit game within the PlasmaFramework. Only the maintainer can call the function."
      },
      "registerVault(uint256,address)": {
        "notice": "Register a vault within the PlasmaFramework. Only a maintainer can make the call."
      },
      "setVersion(string)": {
        "notice": "Sets the semantic version of the current deployed contracts"
      },
      "submitBlock(bytes32)": {
        "notice": "Allows the authority to submit the Merkle root of a Plasma block"
      },
      "submitDepositBlock(bytes32)": {
        "notice": "Submits a block for deposit"
      },
      "vaultToId(address)": {
        "notice": "Public getter for retrieving vault ID with vault address"
      },
      "vaults(uint256)": {
        "notice": "Public getter for retrieving vault address with vault ID"
      }
    }
  }
}