{
  "contractName": "PlasmaFramework",
  "abi": [
    {
      "constant": true,
      "inputs": [],
      "name": "isChildChainActivated",
      "outputs": [
        {
          "internalType": "bool",
          "name": "",
          "type": "bool"
        }
      ],
      "payable": false,
      "stateMutability": "view",
      "type": "function"
    },
    {
      "constant": true,
      "inputs": [
        {
          "internalType": "uint256",
          "name": "vaultId",
          "type": "uint256"
        },
        {
          "internalType": "address",
          "name": "token",
          "type": "address"
        }
      ],
      "name": "getNextExit",
      "outputs": [
        {
          "internalType": "uint256",
          "name": "",
          "type": "uint256"
        }
      ],
      "payable": false,
      "stateMutability": "view",
      "type": "function"
    },
    {
      "constant": true,
      "inputs": [
        {
          "internalType": "bytes32",
          "name": "",
          "type": "bytes32"
        }
      ],
      "name": "exitsQueues",
      "outputs": [
        {
          "internalType": "contract PriorityQueue",
          "name": "",
          "type": "address"
        }
      ],
      "payable": false,
      "stateMutability": "view",
      "type": "function"
    },
    {
      "constant": true,
      "inputs": [],
      "name": "childBlockInterval",
      "outputs": [
        {
          "internalType": "uint256",
          "name": "",
          "type": "uint256"
        }
      ],
      "payable": false,
      "stateMutability": "view",
      "type": "function"
    },
    {
      "constant": false,
      "inputs": [
        {
          "internalType": "bytes32[]",
          "name": "_outputIds",
          "type": "bytes32[]"
        }
      ],
      "name": "batchFlagOutputsSpent",
      "outputs": [],
      "payable": false,
      "stateMutability": "nonpayable",
      "type": "function"
    },
    {
      "constant": false,
      "inputs": [
        {
          "internalType": "uint256",
          "name": "vaultId",
          "type": "uint256"
        },
        {
          "internalType": "address",
          "name": "token",
          "type": "address"
        }
      ],
      "name": "addExitQueue",
      "outputs": [],
      "payable": false,
      "stateMutability": "nonpayable",
      "type": "function"
    },
    {
      "constant": true,
      "inputs": [],
      "name": "nextChildBlock",
      "outputs": [
        {
          "internalType": "uint256",
          "name": "",
          "type": "uint256"
        }
      ],
      "payable": false,
      "stateMutability": "view",
      "type": "function"
    },
    {
      "constant": true,
      "inputs": [
        {
          "internalType": "address",
          "name": "_contract",
          "type": "address"
        }
      ],
      "name": "isExitGameSafeToUse",
      "outputs": [
        {
          "internalType": "bool",
          "name": "",
          "type": "bool"
        }
      ],
      "payable": false,
      "stateMutability": "view",
      "type": "function"
    },
    {
      "constant": false,
      "inputs": [
        {
          "internalType": "uint256",
          "name": "_vaultId",
          "type": "uint256"
        },
        {
          "internalType": "address",
          "name": "_vaultAddress",
          "type": "address"
        }
      ],
      "name": "registerVault",
      "outputs": [],
      "payable": false,
      "stateMutability": "nonpayable",
      "type": "function"
    },
    {
      "constant": false,
      "inputs": [
        {
          "internalType": "address",
          "name": "newAuthority",
          "type": "address"
        }
      ],
      "name": "setAuthority",
      "outputs": [],
      "payable": false,
      "stateMutability": "nonpayable",
      "type": "function"
    },
    {
      "constant": true,
      "inputs": [],
      "name": "nextDepositBlock",
      "outputs": [
        {
          "internalType": "uint256",
          "name": "",
          "type": "uint256"
        }
      ],
      "payable": false,
      "stateMutability": "view",
      "type": "function"
    },
    {
      "constant": true,
      "inputs": [
        {
          "internalType": "uint256",
          "name": "_txType",
          "type": "uint256"
        }
      ],
      "name": "protocols",
      "outputs": [
        {
          "internalType": "uint8",
          "name": "",
          "type": "uint8"
        }
      ],
      "payable": false,
      "stateMutability": "view",
      "type": "function"
    },
    {
      "constant": true,
      "inputs": [
        {
          "internalType": "uint256",
          "name": "_vaultId",
          "type": "uint256"
        }
      ],
      "name": "vaults",
      "outputs": [
        {
          "internalType": "address",
          "name": "",
          "type": "address"
        }
      ],
      "payable": false,
      "stateMutability": "view",
      "type": "function"
    },
    {
      "constant": true,
      "inputs": [
        {
          "internalType": "bytes32[]",
          "name": "_outputIds",
          "type": "bytes32[]"
        }
      ],
      "name": "isAnyOutputsSpent",
      "outputs": [
        {
          "internalType": "bool",
          "name": "",
          "type": "bool"
        }
      ],
      "payable": false,
      "stateMutability": "view",
      "type": "function"
    },
    {
      "constant": false,
      "inputs": [
        {
          "internalType": "uint256",
          "name": "vaultId",
          "type": "uint256"
        },
        {
          "internalType": "address",
          "name": "token",
          "type": "address"
        },
        {
          "internalType": "uint64",
          "name": "exitableAt",
          "type": "uint64"
        },
        {
          "components": [
            {
              "internalType": "uint256",
              "name": "value",
              "type": "uint256"
            }
          ],
          "internalType": "struct TxPosLib.TxPos",
          "name": "txPos",
          "type": "tuple"
        },
        {
          "internalType": "uint160",
          "name": "exitId",
          "type": "uint160"
        },
        {
          "internalType": "contract IExitProcessor",
          "name": "exitProcessor",
          "type": "address"
        }
      ],
      "name": "enqueue",
      "outputs": [
        {
          "internalType": "uint256",
          "name": "",
          "type": "uint256"
        }
      ],
      "payable": false,
      "stateMutability": "nonpayable",
      "type": "function"
    },
    {
      "constant": false,
      "inputs": [],
      "name": "activateChildChain",
      "outputs": [],
      "payable": false,
      "stateMutability": "nonpayable",
      "type": "function"
    },
    {
      "constant": true,
      "inputs": [
        {
          "internalType": "address",
          "name": "_exitGame",
          "type": "address"
        }
      ],
      "name": "exitGameToTxType",
      "outputs": [
        {
          "internalType": "uint256",
          "name": "",
          "type": "uint256"
        }
      ],
      "payable": false,
      "stateMutability": "view",
      "type": "function"
    },
    {
      "constant": true,
      "inputs": [],
      "name": "CHILD_BLOCK_INTERVAL",
      "outputs": [
        {
          "internalType": "uint256",
          "name": "",
          "type": "uint256"
        }
      ],
      "payable": false,
      "stateMutability": "view",
      "type": "function"
    },
    {
      "constant": true,
      "inputs": [],
      "name": "nextDeposit",
      "outputs": [
        {
          "internalType": "uint256",
          "name": "",
          "type": "uint256"
        }
      ],
      "payable": false,
      "stateMutability": "view",
      "type": "function"
    },
    {
      "constant": true,
      "inputs": [
        {
          "internalType": "bytes32",
          "name": "",
          "type": "bytes32"
        }
      ],
      "name": "isOutputSpent",
      "outputs": [
        {
          "internalType": "bool",
          "name": "",
          "type": "bool"
        }
      ],
      "payable": false,
      "stateMutability": "view",
      "type": "function"
    },
    {
      "constant": true,
      "inputs": [
        {
          "internalType": "uint256",
          "name": "_txType",
          "type": "uint256"
        }
      ],
      "name": "exitGames",
      "outputs": [
        {
          "internalType": "address",
          "name": "",
          "type": "address"
        }
      ],
      "payable": false,
      "stateMutability": "view",
      "type": "function"
    },
    {
      "constant": false,
      "inputs": [
        {
          "internalType": "bytes32",
          "name": "_blockRoot",
          "type": "bytes32"
        }
      ],
      "name": "submitBlock",
      "outputs": [],
      "payable": false,
      "stateMutability": "nonpayable",
      "type": "function"
    },
    {
      "constant": false,
      "inputs": [
        {
          "internalType": "bytes32",
          "name": "_blockRoot",
          "type": "bytes32"
        }
      ],
      "name": "submitDepositBlock",
      "outputs": [
        {
          "internalType": "uint256",
          "name": "",
          "type": "uint256"
        }
      ],
      "payable": false,
      "stateMutability": "nonpayable",
      "type": "function"
    },
    {
      "constant": true,
      "inputs": [],
      "name": "authority",
      "outputs": [
        {
          "internalType": "address",
          "name": "",
          "type": "address"
        }
      ],
      "payable": false,
      "stateMutability": "view",
      "type": "function"
    },
    {
      "constant": true,
      "inputs": [
        {
          "internalType": "uint256",
          "name": "",
          "type": "uint256"
        }
      ],
      "name": "delegations",
      "outputs": [
        {
          "internalType": "contract IExitProcessor",
          "name": "",
          "type": "address"
        }
      ],
      "payable": false,
      "stateMutability": "view",
      "type": "function"
    },
    {
      "constant": true,
      "inputs": [
        {
          "internalType": "uint256",
          "name": "vaultId",
          "type": "uint256"
        },
        {
          "internalType": "address",
          "name": "token",
          "type": "address"
        }
      ],
      "name": "hasExitQueue",
      "outputs": [
        {
          "internalType": "bool",
          "name": "",
          "type": "bool"
        }
      ],
      "payable": false,
      "stateMutability": "view",
      "type": "function"
    },
    {
      "constant": false,
      "inputs": [
        {
          "internalType": "bytes32",
          "name": "_outputId",
          "type": "bytes32"
        }
      ],
      "name": "flagOutputSpent",
      "outputs": [],
      "payable": false,
      "stateMutability": "nonpayable",
      "type": "function"
    },
    {
      "constant": true,
      "inputs": [],
      "name": "minExitPeriod",
      "outputs": [
        {
          "internalType": "uint256",
          "name": "",
          "type": "uint256"
        }
      ],
      "payable": false,
      "stateMutability": "view",
      "type": "function"
    },
    {
      "constant": false,
      "inputs": [
        {
          "internalType": "uint256",
          "name": "vaultId",
          "type": "uint256"
        },
        {
          "internalType": "address",
          "name": "token",
          "type": "address"
        },
        {
          "internalType": "uint160",
          "name": "topExitId",
          "type": "uint160"
        },
        {
          "internalType": "uint256",
          "name": "maxExitsToProcess",
          "type": "uint256"
        }
      ],
      "name": "processExits",
      "outputs": [],
      "payable": false,
      "stateMutability": "nonpayable",
      "type": "function"
    },
    {
      "constant": true,
      "inputs": [
        {
          "internalType": "address",
          "name": "_vaultAddress",
          "type": "address"
        }
      ],
      "name": "vaultToId",
      "outputs": [
        {
          "internalType": "uint256",
          "name": "",
          "type": "uint256"
        }
      ],
      "payable": false,
      "stateMutability": "view",
      "type": "function"
    },
    {
      "constant": true,
      "inputs": [
        {
          "internalType": "uint256",
          "name": "",
          "type": "uint256"
        }
      ],
      "name": "blocks",
      "outputs": [
        {
          "internalType": "bytes32",
          "name": "root",
          "type": "bytes32"
        },
        {
          "internalType": "uint256",
          "name": "timestamp",
          "type": "uint256"
        }
      ],
      "payable": false,
      "stateMutability": "view",
      "type": "function"
    },
    {
      "constant": false,
      "inputs": [
        {
          "internalType": "uint256",
          "name": "_txType",
          "type": "uint256"
        },
        {
          "internalType": "address",
          "name": "_contract",
          "type": "address"
        },
        {
          "internalType": "uint8",
          "name": "_protocol",
          "type": "uint8"
        }
      ],
      "name": "registerExitGame",
      "outputs": [],
      "payable": false,
      "stateMutability": "nonpayable",
      "type": "function"
    },
    {
      "inputs": [
        {
          "internalType": "uint256",
          "name": "_minExitPeriod",
          "type": "uint256"
        },
        {
          "internalType": "uint256",
          "name": "_initialImmuneVaults",
          "type": "uint256"
        },
        {
          "internalType": "uint256",
          "name": "_initialImmuneExitGames",
          "type": "uint256"
        },
        {
          "internalType": "address",
          "name": "_authority",
          "type": "address"
        },
        {
          "internalType": "address",
          "name": "_maintainer",
          "type": "address"
        }
      ],
      "payable": false,
      "stateMutability": "nonpayable",
      "type": "constructor"
    },
    {
      "anonymous": false,
      "inputs": [
        {
          "indexed": false,
          "internalType": "uint256",
          "name": "blockNumber",
          "type": "uint256"
        }
      ],
      "name": "BlockSubmitted",
      "type": "event"
    },
    {
      "anonymous": false,
      "inputs": [
        {
          "indexed": false,
          "internalType": "address",
          "name": "authority",
          "type": "address"
        }
      ],
      "name": "ChildChainActivated",
      "type": "event"
    },
    {
      "anonymous": false,
      "inputs": [
        {
          "indexed": false,
          "internalType": "uint256",
          "name": "vaultId",
          "type": "uint256"
        },
        {
          "indexed": false,
          "internalType": "address",
          "name": "token",
          "type": "address"
        }
      ],
      "name": "ExitQueueAdded",
      "type": "event"
    },
    {
      "anonymous": false,
      "inputs": [
        {
          "indexed": false,
          "internalType": "uint256",
          "name": "processedNum",
          "type": "uint256"
        },
        {
          "indexed": false,
          "internalType": "uint256",
          "name": "vaultId",
          "type": "uint256"
        },
        {
          "indexed": false,
          "internalType": "address",
          "name": "token",
          "type": "address"
        }
      ],
      "name": "ProcessedExitsNum",
      "type": "event"
    },
    {
      "anonymous": false,
      "inputs": [
        {
          "indexed": true,
          "internalType": "uint160",
          "name": "exitId",
          "type": "uint160"
        },
        {
          "indexed": false,
          "internalType": "uint256",
          "name": "priority",
          "type": "uint256"
        }
      ],
      "name": "ExitQueued",
      "type": "event"
    },
    {
      "anonymous": false,
      "inputs": [
        {
          "indexed": false,
          "internalType": "uint256",
          "name": "txType",
          "type": "uint256"
        },
        {
          "indexed": false,
          "internalType": "address",
          "name": "exitGameAddress",
          "type": "address"
        },
        {
          "indexed": false,
          "internalType": "uint8",
          "name": "protocol",
          "type": "uint8"
        }
      ],
      "name": "ExitGameRegistered",
      "type": "event"
    },
    {
      "anonymous": false,
      "inputs": [
        {
          "indexed": false,
          "internalType": "uint256",
          "name": "vaultId",
          "type": "uint256"
        },
        {
          "indexed": false,
          "internalType": "address",
          "name": "vaultAddress",
          "type": "address"
        }
      ],
      "name": "VaultRegistered",
      "type": "event"
    },
    {
      "constant": true,
      "inputs": [],
      "name": "getMaintainer",
      "outputs": [
        {
          "internalType": "address",
          "name": "",
          "type": "address"
        }
      ],
      "payable": false,
      "stateMutability": "view",
      "type": "function"
    }
  ],
  "bytecode": "0x60806040523480156200001157600080fd5b50604051620031b1380380620031b18339810160408190526200003491620000bc565b6003858155600494909455928402600955600a91909155600e80546001600160a01b03199081166001600160a01b03938416179091556103e8600f81905560105560016011556012805460ff1916905560149390935560158054909316911617905562000176565b8051620000a98162000151565b92915050565b8051620000a9816200016b565b600080600080600060a08688031215620000d557600080fd5b6000620000e38888620000af565b9550506020620000f688828901620000af565b94505060406200010988828901620000af565b93505060606200011c888289016200009c565b92505060806200012f888289016200009c565b9150509295509295909350565b60006001600160a01b038216620000a9565b90565b6200015c816200013c565b81146200016857600080fd5b50565b6200015c816200014e565b61302b80620001866000396000f3fe60806040523480156200001157600080fd5b50600436106200022c5760003560e01c8063a11dcc341162000135578063bf7e214f11620000bd578063d4a2b4ef1162000087578063d4a2b4ef1462000496578063d9aa4b2414620004a0578063dfb494f014620004b7578063f25b3f9914620004ce578063f2e208e714620004f5576200022c565b8063bf7e214f1462000447578063c4336c1c1462000451578063c77b1ed61462000468578063d3329542146200047f576200022c565b8063ab84a94b11620000ff578063ab84a94b14620003eb578063af0797641462000402578063baa476941462000419578063be5ac6981462000430576200022c565b8063a11dcc3414620003b6578063a239e5a214620003c0578063a831fa0714620003d7578063a8cabcd514620003e1576200022c565b80635a102dae11620001b95780638c39622011620001835780638c396220146200034b5780638c64ea4a14620003715780638e7e389014620003885780639524a123146200039f576200022c565b80635a102dae14620002fc5780636a51fd6314620003135780637a9e5e4b146200032a5780638701fc5d1462000341576200022c565b806342383d4a11620001fb57806342383d4a14620002a957806345f2093514620002c25780634b0a72bc14620002d95780634ca8714f14620002f2576200022c565b80630e71ee021462000231578063296d542714620002535780633701b5ca146200027957806338a9e0bc146200029f575b600080fd5b6200023b6200050c565b6040516200024a919062002398565b60405180910390f35b6200026a6200026436600462001989565b62000515565b6040516200024a9190620025f3565b620002906200028a36600462001926565b620005ba565b6040516200024a9190620023c7565b6200026a620005d5565b620002c0620002ba366004620018e0565b620005db565b005b620002c0620002d336600462001989565b620006d2565b620002e3620007c7565b6040516200024a919062002388565b6200026a620007d6565b6200023b6200030d366004620018bf565b620007dc565b620002c06200032436600462001989565b62000819565b620002c06200033b366004620018bf565b6200097f565b6200026a620009f9565b620003626200035c36600462001926565b62000a07565b6040516200024a919062002660565b620002e36200038236600462001926565b62000a1c565b6200023b62000399366004620018e0565b62000a37565b6200026a620003b036600462001a32565b62000a9b565b620002c062000c4a565b6200026a620003d1366004620018bf565b62000cf5565b6200026a62000d10565b6200026a62000d16565b6200023b620003fc36600462001926565b62000d1c565b620002e36200041336600462001926565b62000d31565b620002c06200042a36600462001926565b62000d4c565b6200026a6200044136600462001926565b62000e15565b620002e362000f12565b620002906200046236600462001926565b62000f21565b6200023b6200047936600462001989565b62000f3c565b620002c06200049036600462001926565b62000f58565b6200026a62000ff5565b620002c0620004b1366004620019c8565b62000ffb565b6200026a620004c8366004620018bf565b62001468565b620004e5620004df36600462001926565b62001483565b6040516200024a929190620023a8565b620002c06200050636600462001ac6565b6200149c565b60125460ff1681565b60008062000524848462001655565b6000818152600c602090815260409182902054825163d6362e9760e01b815292519394506001600160a01b03169263d6362e97926004808201939291829003018186803b1580156200057557600080fd5b505afa1580156200058a573d6000803e3d6000fd5b505050506040513d601f19601f82011682018060405250620005b0919081019062001968565b9150505b92915050565b600c602052600090815260409020546001600160a01b031681565b600f5481565b33600090815260066020526040902054620006135760405162461bcd60e51b81526004016200060a906200251b565b60405180910390fd5b6200062660083363ffffffff6200168a16565b15620006465760405162461bcd60e51b81526004016200060a9062002575565b60005b81811015620006cd5760008383838181106200066157fe5b905060200201351415620006895760405162461bcd60e51b81526004016200060a90620024c1565b6001600d60008585858181106200069c57fe5b60209081029290920135835250810191909152604001600020805460ff191691151591909117905560010162000649565b505050565b81620006f25760405162461bcd60e51b81526004016200060a906200253f565b600062000700838362001655565b90506200070d81620016a8565b156200072d5760405162461bcd60e51b81526004016200060a906200240d565b6040516200073b90620017b9565b604051809103906000f08015801562000758573d6000803e3d6000fd5b506000828152600c60205260409081902080546001600160a01b0319166001600160a01b039390931692909217909155517f0a925273fd754a41a580f8214815d5ae8a37367f561b3bd9d91a96730a418a1790620007ba908590859062002603565b60405180910390a1505050565b6015546001600160a01b031690565b60105481565b6001600160a01b03811660009081526006602052604081205415801590620005b457506200081260088363ffffffff6200168a16565b1592915050565b62000823620007c7565b336001600160a01b038216146200084e5760405162461bcd60e51b81526004016200060a90620024af565b826200086e5760405162461bcd60e51b81526004016200060a9062002509565b6001600160a01b038216620008975760405162461bcd60e51b81526004016200060a9062002431565b6000838152602081905260409020546001600160a01b031615620008cf5760405162461bcd60e51b81526004016200060a9062002479565b6001600160a01b03821660009081526001602052604090205415620009085760405162461bcd60e51b81526004016200060a9062002551565b60008381526020818152604080832080546001600160a01b0319166001600160a01b0387169081179091558352600190915290208390556200094c600283620016c5565b7f7051aac27f9b76ec8f37bd5796f2dcf402bd840a1c45c952a6eeb0e11bde09968383604051620007ba92919062002603565b600e546001600160a01b0316338114620009ad5760405162461bcd60e51b81526004016200060a90620024af565b6001600160a01b038216620009d65760405162461bcd60e51b81526004016200060a9062002455565b50600e80546001600160a01b0319166001600160a01b0392909216919091179055565b601154600f54601054030190565b60009081526007602052604090205460ff1690565b6000908152602081905260409020546001600160a01b031690565b6000805b8281101562000a9157600d600085858481811062000a5557fe5b602090810292909201358352508101919091526040016000205460ff1615156001141562000a88576001915050620005b4565b60010162000a3b565b5060009392505050565b3360009081526006602052604081205462000aca5760405162461bcd60e51b81526004016200060a906200251b565b62000add60083363ffffffff6200168a16565b1562000afd5760405162461bcd60e51b81526004016200060a9062002575565b600062000b0b888862001655565b905062000b1881620016a8565b62000b375760405162461bcd60e51b81526004016200060a90620024e5565b6000818152600c60205260408120546001600160a01b03169062000b6d8862000b66368a90038a018a62001947565b886200176b565b6040516390b5561d60e01b81529091506001600160a01b038316906390b5561d9062000b9e908490600401620025f3565b600060405180830381600087803b15801562000bb957600080fd5b505af115801562000bce573d6000803e3d6000fd5b5050506000828152600b60205260409081902080546001600160a01b0319166001600160a01b0389811691909117909155905190881691507fe15a4f223f922b625f5fdd941101a23fa0c097e522233d47a7cbea2167e927019062000c35908490620025f3565b60405180910390a29998505050505050505050565b600e546001600160a01b031633811462000c785760405162461bcd60e51b81526004016200060a90620024af565b60125460ff161562000c9e5760405162461bcd60e51b81526004016200060a90620023e9565b6012805460ff19166001179055600e546040517fb8421a1acb5f1e701a4f11ecaad76fa438b3947e8dfd6960b6086130e68e0aed9162000cea916001600160a01b039091169062002388565b60405180910390a150565b6001600160a01b031660009081526006602052604090205490565b6103e881565b60115481565b600d6020526000908152604090205460ff1681565b6000908152600560205260409020546001600160a01b031690565b600e546001600160a01b031633811462000d7a5760405162461bcd60e51b81526004016200060a90620024af565b60125460ff16151560011462000da45760405162461bcd60e51b81526004016200060a906200248b565b60108054604080518082018252858152426020808301918252600085815260139091528390209151825551600191820155600f5484540190935560119290925590517f5a978f4723b249ccf79cd7a658a8601ce1ff8b89fc770251a6be35216351ce3290620007ba908390620025f3565b3360009081526001602052604081205462000e445760405162461bcd60e51b81526004016200060a90620024f7565b62000e5760023363ffffffff6200168a16565b1562000e775760405162461bcd60e51b81526004016200060a90620024d3565b60125460ff16151560011462000ea15760405162461bcd60e51b81526004016200060a906200248b565b600f546011541062000ec75760405162461bcd60e51b81526004016200060a90620025ab565b600062000ed3620009f9565b60408051808201825294855242602080870191825260008481526013909152919091209451855551600194850155601180549094019093555090919050565b600e546001600160a01b031681565b600b602052600090815260409020546001600160a01b031681565b60008062000f4b848462001655565b9050620005b081620016a8565b3360009081526006602052604090205462000f875760405162461bcd60e51b81526004016200060a906200251b565b62000f9a60083363ffffffff6200168a16565b1562000fba5760405162461bcd60e51b81526004016200060a9062002575565b8062000fda5760405162461bcd60e51b81526004016200060a90620024c1565b6000908152600d60205260409020805460ff19166001179055565b60145481565b600062001009858562001655565b90506200101681620016a8565b620010355760405162461bcd60e51b81526004016200060a9062002563565b6000818152600c6020908152604080832054815163bda1504b60e01b815291516001600160a01b039091169392849263bda1504b9260048083019392829003018186803b1580156200108657600080fd5b505afa1580156200109b573d6000803e3d6000fd5b505050506040513d601f19601f82011682018060405250620010c1919081019062001968565b11620010e15760405162461bcd60e51b81526004016200060a9062002587565b6000816001600160a01b031663d6362e976040518163ffffffff1660e01b815260040160206040518083038186803b1580156200111d57600080fd5b505afa15801562001132573d6000803e3d6000fd5b505050506040513d601f19601f8201168201806040525062001158919081019062001968565b90506000620011678262001796565b90506001600160a01b0386161580620011915750856001600160a01b0316816001600160a01b0316145b620011b05760405162461bcd60e51b81526004016200060a9062002467565b6000828152600b60205260408120546001600160a01b0316905b8681108015620011ed575042620011e18562001799565b67ffffffffffffffff16105b156200141f576000848152600b6020908152604080832080546001600160a01b03191690558051632c1d5dab60e21b815290516001600160a01b0389169363b07576ac93600480850194919392918390030190829087803b1580156200125257600080fd5b505af115801562001267573d6000803e3d6000fd5b505050506040513d601f19601f820116820180604052506200128d919081019062001968565b50604051636849635160e01b81526001909101906001600160a01b03831690636849635190620012c69086908e908e90600401620025bd565b600060405180830381600087803b158015620012e157600080fd5b505af1158015620012f6573d6000803e3d6000fd5b50505050846001600160a01b031663bda1504b6040518163ffffffff1660e01b815260040160206040518083038186803b1580156200133457600080fd5b505afa15801562001349573d6000803e3d6000fd5b505050506040513d601f19601f820116820180604052506200136f919081019062001968565b6200137a576200141f565b846001600160a01b031663d6362e976040518163ffffffff1660e01b815260040160206040518083038186803b158015620013b457600080fd5b505afa158015620013c9573d6000803e3d6000fd5b505050506040513d601f19601f82011682018060405250620013ef919081019062001968565b9350620013fc8462001796565b6000858152600b60205260409020549093506001600160a01b03169150620011ca565b7f7e35599fe450e626673ce6c37179ef9820aed16f76c1b350618ef7a612d13005818b8b604051620014549392919062002650565b60405180910390a150505050505050505050565b6001600160a01b031660009081526001602052604090205490565b6013602052600090815260409020805460019091015482565b620014a6620007c7565b336001600160a01b03821614620014d15760405162461bcd60e51b81526004016200060a90620024af565b83620014f15760405162461bcd60e51b81526004016200060a9062002599565b6001600160a01b0383166200151a5760405162461bcd60e51b81526004016200060a90620023d7565b6000848152600560205260409020546001600160a01b031615620015525760405162461bcd60e51b81526004016200060a906200252d565b6001600160a01b038316600090815260066020526040902054156200158b5760405162461bcd60e51b81526004016200060a906200241f565b62001596826200179f565b620015b55760405162461bcd60e51b81526004016200060a9062002443565b600084815260056020908152604080832080546001600160a01b0319166001600160a01b03881690811790915583526006825280832087905586835260079091529020805460ff191660ff841617905562001612600884620016c5565b7f0ceb02f7474c01f5959171cead2f5fb2a44d9c16fe480725a2110b601b19db82848484604051620016479392919062002622565b60405180910390a150505050565b600082826040516020016200166c9291906200235e565b60405160208183030381529060405280519060200120905092915050565b6001600160a01b031660009081526020919091526040902054421090565b6000908152600c60205260409020546001600160a01b0316151590565b6001600160a01b038116620016ee5760405162461bcd60e51b81526004016200060a90620023fb565b6001600160a01b03811660009081526020839052604090205415620017275760405162461bcd60e51b81526004016200060a906200249d565b60028201546200175a5760018201546001600160a01b038216600090815260208490526040902042909101905562001767565b6002820180546000190190555b5050565b81516001600160d61b031960d685901b1660a09190911b176001600160a01b038216175b9392505050565b90565b60d61c90565b600060ff821660011480620005b457505060ff1660021490565b6108a4806200274583390190565b8035620005b481620026f3565b60008083601f840112620017e757600080fd5b50813567ffffffffffffffff8111156200180057600080fd5b6020830191508360208202830111156200181957600080fd5b9250929050565b8035620005b4816200270d565b8035620005b48162002718565b6000602082840312156200184d57600080fd5b50919050565b6000602082840312156200186657600080fd5b62001872602062002670565b9050600062001882848462001820565b82525092915050565b8035620005b48162002723565b8051620005b4816200270d565b8035620005b4816200272e565b8035620005b48162002739565b600060208284031215620018d257600080fd5b6000620005b08484620017c7565b60008060208385031215620018f457600080fd5b823567ffffffffffffffff8111156200190c57600080fd5b6200191a85828601620017d4565b92509250509250929050565b6000602082840312156200193957600080fd5b6000620005b0848462001820565b6000602082840312156200195a57600080fd5b6000620005b0848462001853565b6000602082840312156200197b57600080fd5b6000620005b0848462001898565b600080604083850312156200199d57600080fd5b6000620019ab858562001820565b9250506020620019be85828601620017c7565b9150509250929050565b60008060008060808587031215620019df57600080fd5b6000620019ed878762001820565b945050602062001a0087828801620017c7565b935050604062001a13878288016200188b565b925050606062001a268782880162001820565b91505092959194509250565b60008060008060008060c0878903121562001a4c57600080fd5b600062001a5a898962001820565b965050602062001a6d89828a01620017c7565b955050604062001a8089828a01620018a5565b945050606062001a9389828a016200183a565b935050608062001aa689828a016200188b565b92505060a062001ab989828a016200182d565b9150509295509295509295565b60008060006060848603121562001adc57600080fd5b600062001aea868662001820565b935050602062001afd86828701620017c7565b925050604062001b1086828701620018b2565b9150509250925092565b62001b2581620026a1565b82525050565b62001b2562001b3a82620026a1565b620026df565b62001b2581620026ae565b62001b258162001796565b62001b2581620026b3565b600062001b7060338362002698565b7f73686f756c64206e6f74207265676973746572207769746820616e20656d70748152727920657869742067616d65206164647265737360681b602082015260400192915050565b600062001bc760268362002698565b7f4368696c6420636861696e2063616e206f6e6c7920626520616374697661746581526564206f6e636560d01b602082015260400192915050565b600062001c1160238362002698565b7f43616e206e6f742071756172616e74696e6520616e20656d707479206164647281526265737360e81b602082015260400192915050565b600062001c5860118362002698565b70457869742071756575652065786973747360781b815260200192915050565b600062001c87602c8362002698565b7f54686520657869742067616d6520636f6e747261637420697320616c7265616481526b1e481c9959da5cdd195c995960a21b602082015260400192915050565b600062001cd7602a8362002698565b7f73686f756c64206e6f7420726567697374657220616e20656d707479207661758152696c74206164647265737360b01b602082015260400192915050565b600062001d2560168362002698565b75496e76616c69642070726f746f636f6c2076616c756560501b815260200192915050565b600062001d5960218362002698565b7f417574686f726974792063616e6e6f74206265207a65726f2d616464726573738152601760f91b602082015260400192915050565b600062001d9e603d8362002698565b7f546f702065786974206964206f6620746865207175657565206973206e6f742081527f7468652073616d652061732074686520737065636966696564206f6e65000000602082015260400192915050565b600062001dff60228362002698565b7f546865207661756c7420696420697320616c7265616479207265676973746572815261195960f21b602082015260400192915050565b600062001e45603b8362002698565b7f4368696c6420636861696e20686173206e6f74206265656e206163746976617481527f656420627920617574686f726974792061646472657373207965740000000000602082015260400192915050565b600062001ea660238362002698565b7f54686520636f6e747261637420697320616c72656164792071756172616e74698152621b995960ea1b602082015260400192915050565b600062001eed60238362002698565b7f4e6f74206265696e672063616c6c65642062792065787065637465642063616c8152623632b960e91b602082015260400192915050565b600062001f3460238362002698565b7f53686f756c64206e6f7420666c6167207769746820656d707479206f757470758152621d125960ea1b602082015260400192915050565b600062001f7b60158362002698565b742b30bab63a1034b99038bab0b930b73a34b732b21760591b815260200192915050565b600062001fae60568362002698565b7f54686520717565756520666f722074686520287661756c7449642c20746f6b6581527f6e29207061697220686173206e6f74206265656e20616464656420746f20746860208201527519481c1b185cdb5848199c985b595ddbdc9ac81e595d60521b604082015260600192915050565b60006200202e60258362002698565b7f4e6f74206265696e672063616c6c65642062792072656769737465726564207681526461756c747360d81b602082015260400192915050565b60006200207760238362002698565b7f73686f756c64206e6f742072656769737465722077697468207661756c74206981526206420360ec1b602082015260400192915050565b6000620020be60318362002698565b7f4e6f74206265696e672063616c6c6564206279207265676973746572656420658152701e1a5d0819d85b594818dbdb9d1c9858dd607a1b602082015260400192915050565b60006200211360218362002698565b7f546865207478207479706520697320616c7265616479207265676973746572658152601960fa1b602082015260400192915050565b60006200215860168362002698565b7505661756c74206964206d757374206e6f7420626520360541b815260200192915050565b60006200218c60288362002698565b7f546865207661756c7420636f6e747261637420697320616c726561647920726581526719da5cdd195c995960c21b602082015260400192915050565b6000620021d860398362002698565b7f5375636820746f6b656e20686173206e6f74206265656e20616464656420746f81527f2074686520706c61736d61206672616d65776f726b2079657400000000000000602082015260400192915050565b60006200223960188362002698565b7f4578697447616d652069732071756172616e74696e65642e0000000000000000815260200192915050565b60006200227460138362002698565b724578697420717565756520697320656d70747960681b815260200192915050565b6000620022a560228362002698565b7f73686f756c64206e6f7420726567697374657220776974682074782074797065815261020360f41b602082015260400192915050565b6000620022eb60338362002698565b7f4578636565646564206c696d6974206f66206465706f736974732070657220638152721a1a5b1908189b1bd8dac81a5b9d195c9d985b606a1b602082015260400192915050565b62001b2581620026c0565b62001b256200234d8262001796565b62001796565b62001b2581620026d9565b60006200236c82856200233e565b6020820191506200237e828462001b2b565b5060140192915050565b60208101620005b4828462001b1a565b60208101620005b4828462001b40565b60408101620023b8828562001b4b565b6200178f602083018462001b4b565b60208101620005b4828462001b56565b60208082528101620005b48162001b61565b60208082528101620005b48162001bb8565b60208082528101620005b48162001c02565b60208082528101620005b48162001c49565b60208082528101620005b48162001c78565b60208082528101620005b48162001cc8565b60208082528101620005b48162001d16565b60208082528101620005b48162001d4a565b60208082528101620005b48162001d8f565b60208082528101620005b48162001df0565b60208082528101620005b48162001e36565b60208082528101620005b48162001e97565b60208082528101620005b48162001ede565b60208082528101620005b48162001f25565b60208082528101620005b48162001f6c565b60208082528101620005b48162001f9f565b60208082528101620005b4816200201f565b60208082528101620005b48162002068565b60208082528101620005b481620020af565b60208082528101620005b48162002104565b60208082528101620005b48162002149565b60208082528101620005b4816200217d565b60208082528101620005b481620021c9565b60208082528101620005b4816200222a565b60208082528101620005b48162002265565b60208082528101620005b48162002296565b60208082528101620005b481620022dc565b60608101620025cd828662002333565b620025dc602083018562001b4b565b620025eb604083018462001b1a565b949350505050565b60208101620005b4828462001b4b565b6040810162002613828562001b4b565b6200178f602083018462001b1a565b6060810162002632828662001b4b565b62002641602083018562001b1a565b620025eb604083018462002353565b60608101620025cd828662001b4b565b60208101620005b4828462002353565b60405181810167ffffffffffffffff811182821017156200269057600080fd5b604052919050565b90815260200190565b6000620005b482620026c0565b151590565b6000620005b482620026a1565b6001600160a01b031690565b67ffffffffffffffff1690565b60ff1690565b6000620005b4826000620005b48260601b90565b620026fe81620026a1565b81146200270a57600080fd5b50565b620026fe8162001796565b620026fe81620026b3565b620026fe81620026c0565b620026fe81620026cc565b620026fe81620026d956fe608060405234801561001057600080fd5b506040805160208101909152600080825261002c916001610049565b506000600155600280546001600160a01b031916331790556100b6565b828054828255906000526020600020908101928215610089579160200282015b82811115610089578251829060ff16905591602001919060010190610069565b50610095929150610099565b5090565b6100b391905b80821115610095576000815560010161009f565b90565b6107df806100c56000396000f3fe608060405234801561001057600080fd5b50600436106100575760003560e01c8063446b2f881461005c57806390b5561d146100b4578063b07576ac146100d3578063bda1504b146100ed578063d6362e97146100f5575b600080fd5b6100646100fd565b60408051602080825283518183015283519192839290830191858101910280838360005b838110156100a0578181015183820152602001610088565b505050509050019250505060405180910390f35b6100d1600480360360208110156100ca57600080fd5b5035610158565b005b6100db6101fb565b60408051918252519081900360200190f35b6100db610302565b6100db610308565b60606000800180548060200260200160405190810160405280929190818152602001828054801561014d57602002820191906000526020600020905b815481526020019060010190808311610139575b505050505090505b90565b6002546001600160a01b03163381146101a25760405162461bcd60e51b81526004018080602001828103825260238152602001806107676023913960400191505060405180910390fd5b60008054600181810183559180527f290decd9548b62a8d60345a988386fc84ba6bc95484008f6362f93160ef3e5630183905580546101e69163ffffffff61032a16565b60018190556101f79060009061038d565b5050565b6002546000906001600160a01b03163381146102485760405162461bcd60e51b81526004018080602001828103825260238152602001806107676023913960400191505060405180910390fd5b60008060000160018154811061025a57fe5b6000918252602082200154600154825491935090811061027657fe5b90600052602060002001546000800160018154811061029157fe5b6000918252602082200191909155600154815481106102ac57fe5b6000918252602082200155600180546102ca9163ffffffff61046316565b60019081556102db906000906104c0565b6000546102ef90600163ffffffff61046316565b6102fa600082610723565b5091505b5090565b60015490565b60008060000160018154811061031a57fe5b9060005260206000200154905090565b600082820183811015610384576040805162461bcd60e51b815260206004820152601b60248201527f536166654d6174683a206164646974696f6e206f766572666c6f770000000000604482015290519081900360640190fd5b90505b92915050565b8154819081906000908590839081106103a257fe5b906000526020600020015490505b846103c284600263ffffffff61059716565b815481106103cc57fe5b906000526020600020015481101561043857846103f084600263ffffffff61059716565b815481106103fa57fe5b906000526020600020015485600001848154811061041457fe5b60009182526020909120015561043183600263ffffffff61059716565b92506103b0565b81831461045c578085600001848154811061044f57fe5b6000918252602090912001555b5050505050565b6000828211156104ba576040805162461bcd60e51b815260206004820152601e60248201527f536166654d6174683a207375627472616374696f6e206f766572666c6f770000604482015290519081900360640190fd5b50900390565b8154819081906000908590839081106104d557fe5b9060005260206000200154905060006104ee8685610601565b90505b8560010154811115801561051d575085600001818154811061050f57fe5b906000526020600020015482115b1561056b5785600001818154811061053157fe5b906000526020600020015486600001858154811061054b57fe5b6000918252602090912001559250826105648682610601565b90506104f1565b82841461058f578186600001858154811061058257fe5b6000918252602090912001555b505050505050565b60008082116105ed576040805162461bcd60e51b815260206004820152601a60248201527f536166654d6174683a206469766973696f6e206279207a65726f000000000000604482015290519081900360640190fd5b60008284816105f857fe5b04949350505050565b60018083015460009161062b9061061f85600263ffffffff6106ca16565b9063ffffffff61032a16565b11156106495761064282600263ffffffff6106ca16565b9050610387565b82610660600161061f85600263ffffffff6106ca16565b8154811061066a57fe5b6000918252602090912001548361068884600263ffffffff6106ca16565b8154811061069257fe5b906000526020600020015410156106b45761064282600263ffffffff6106ca16565b610642600161061f84600263ffffffff6106ca16565b6000826106d957506000610387565b828202828482816106e657fe5b04146103845760405162461bcd60e51b815260040180806020018281038252602181526020018061078a6021913960400191505060405180910390fd5b8154818355818111156107475760008381526020902061074791810190830161074c565b505050565b61015591905b808211156102fe576000815560010161075256fe4e6f74206265696e672063616c6c65642062792065787065637465642063616c6c6572536166654d6174683a206d756c7469706c69636174696f6e206f766572666c6f77a265627a7a7231582043100466ea809a26000e38b2284fca7a8f241bb893ed799d11ef89bf0486f6df64736f6c634300050b0032a365627a7a72315820de8bc0698f42f263e66ef6a85f6ad7591e3a8e405cbd295ff1e23e550ad86a176c6578706572696d656e74616cf564736f6c634300050b0040",
  "source": "pragma solidity 0.5.11;\npragma experimental ABIEncoderV2;\n\nimport \"./BlockController.sol\";\nimport \"./ExitGameController.sol\";\nimport \"./registries/VaultRegistry.sol\";\nimport \"./registries/ExitGameRegistry.sol\";\n\ncontract PlasmaFramework is VaultRegistry, ExitGameRegistry, ExitGameController, BlockController {\n    uint256 public constant CHILD_BLOCK_INTERVAL = 1000;\n\n    /**\n     * The minimum finalization period. This is the Plasma promise that all exits would be safe if user take action within the period of this time.\n     * When the child chain is rogue, user should start their exit within this period. Also, user should challenge any invalid exit within this period.\n     * An exit can be processed/finalized after 2 mininum finlization period from its inclusion position unless it is a exit for deposit\n     * which would be using 1 period instead of 2.\n     *\n     * For the Abstract Layer Design, we also uses some multitude of this period to make update to our framework.\n     * See ExitGameRegistry.sol, VaultRegistry.sol and Vault.sol for more details on the update waiting time (quarantined period).\n     *\n     * MVP: https://ethresear.ch/t/minimal-viable-plasma/426\n     * MoreVP: https://github.com/omisego/elixir-omg/blob/master/docs/morevp.md#timeline\n     * Special period for deposit: https://git.io/JecCV\n     */\n    uint256 public minExitPeriod;\n    address private maintainer;\n\n    constructor(\n        uint256 _minExitPeriod,\n        uint256 _initialImmuneVaults,\n        uint256 _initialImmuneExitGames,\n        address _authority,\n        address _maintainer\n    )\n        public\n        BlockController(CHILD_BLOCK_INTERVAL, _minExitPeriod, _initialImmuneVaults, _authority)\n        ExitGameController(_minExitPeriod, _initialImmuneExitGames)\n    {\n        minExitPeriod = _minExitPeriod;\n        maintainer = _maintainer;\n    }\n\n    function getMaintainer() public view returns (address) {\n        return maintainer;\n    }\n}\n",
  "sourcePath": "/Users/nocholas/plasma-contracts/plasma_framework/contracts/src/framework/PlasmaFramework.sol",
  "compiler": {
    "name": "solc",
    "version": "0.5.11+commit.c082d0b4.Emscripten.clang"
  },
  "schemaVersion": "3.0.16",
  "updatedAt": "2019-10-18T06:53:15.973Z",
  "devdoc": {
    "methods": {
      "activateChildChain()": {
        "details": "This is a preserved action for authority account to start its nonce with 1.     Child chain rely ethereum nonce to protect re-org: https://git.io/JecDG     see discussion: https://git.io/JenaT, https://git.io/JecDO"
      },
      "addExitQueue(uint256,address)": {
        "details": "the queue is created as a new contract instance.",
        "params": {
          "token": "Address of the token.",
          "vaultId": "Id of the vault"
        }
      },
      "batchFlagOutputsSpent(bytes32[])": {
        "params": {
          "_outputIds": "Output ids to be flagged"
        }
      },
      "enqueue(uint256,address,uint64,(uint256),uint160,address)": {
        "details": "emits ExitQueued event. The event can be used to back trace the priority inside the queue.Caller of this function should add \"pragma experimental ABIEncoderV2;\" on top of file",
        "params": {
          "exitId": "Id for the exit processor contract to understand how to process such exit",
          "exitProcessor": "The exit processor contract that would be called during \"processExits\"",
          "exitableAt": "The earliest time that such exit can be processed",
          "token": "Token for the exit",
          "txPos": "Transaction position for the exit priority. For SE it should be the exit tx, for IFE it should be the youngest input tx position.",
          "vaultId": "Vault id of the vault that stores exiting funds"
        },
        "return": "a unique priority number computed for the exit"
      },
      "flagOutputSpent(bytes32)": {
        "params": {
          "_outputId": "The output id to be flagged as spent"
        }
      },
      "hasExitQueue(uint256,address)": {
        "params": {
          "token": "Address of the token.",
          "vaultId": "Id of the vault that handles the token"
        },
        "return": "bool represents whether the queue for a token was created."
      },
      "isAnyOutputsSpent(bytes32[])": {
        "params": {
          "_outputIds": "Output ids to be checked."
        }
      },
      "isExitGameSafeToUse(address)": {
        "details": "Exposes information about exit games quarantine",
        "params": {
          "_contract": "address of the exit game contract"
        },
        "return": "boolean whether the contract is safe to use and is not under quarantine."
      },
      "processExits(uint256,address,uint160,uint256)": {
        "details": "emits ProcessedExitsNum event.",
        "params": {
          "maxExitsToProcess": "maximal number of exits to process.",
          "token": "token type to process.",
          "topExitId": "unique priority of the first exit that should be processed. Set to zero to skip the check.",
          "vaultId": "vault id of the vault that stores exiting funds."
        },
        "return": "total number of processed exits"
      },
      "registerExitGame(uint256,address,uint8)": {
        "details": "emits ExitGameRegistered event to notify clients",
        "params": {
          "_contract": "address of the exit game contract.",
          "_protocol": "protocol of the transaction, 1 for MVP and 2 for MoreVP.",
          "_txType": "tx type that the exit game want to register to."
        }
      },
      "registerVault(uint256,address)": {
        "details": "emits VaultRegistered event to notify clients",
        "params": {
          "_vaultAddress": "address of the vault contract.",
          "_vaultId": "the id for the vault contract to register."
        }
      },
      "setAuthority(address)": {
        "params": {
          "newAuthority": "address of new authority, cannot be blank."
        }
      },
      "submitBlock(bytes32)": {
        "details": "emit BlockSubmitted eventBlock number jumps 'childBlockInterval' per submission.see discussion in https://github.com/omisego/plasma-contracts/issues/233",
        "params": {
          "_blockRoot": "Merkle root of the plasma block."
        }
      },
      "submitDepositBlock(bytes32)": {
        "details": "Block number adds 1 per submission, could have at most 'childBlockInterval' deposit blocks between two child chain blocks.",
        "params": {
          "_blockRoot": "Merkle root of the plasma block."
        },
        "return": "the deposit block number"
      }
    }
  },
  "userdoc": {
    "methods": {
      "activateChildChain()": {
        "notice": "Activates the child chain so that child chain can start to submit child blocks to root chainCan only be called once by the authority.Sets isChildChainActivated to true and emits the ChildChainActivated event."
      },
      "addExitQueue(uint256,address)": {
        "notice": "Adds queue to the plasma framework."
      },
      "batchFlagOutputsSpent(bytes32[])": {
        "notice": "Batch flags outputs that are spent"
      },
      "enqueue(uint256,address,uint64,(uint256),uint160,address)": {
        "notice": "Enqueue exits from exit game contracts. This 'enqueue' function puts the exit into the        priority queue to enforce the priority of exit during 'processExits'."
      },
      "exitGameToTxType(address)": {
        "notice": "public getter for getting tx type with exit game address"
      },
      "exitGames(uint256)": {
        "notice": "public getter for getting exit game address with tx type"
      },
      "flagOutputSpent(bytes32)": {
        "notice": "Flags a single output as spent"
      },
      "hasExitQueue(uint256,address)": {
        "notice": "Checks if queue for particular token was created."
      },
      "isAnyOutputsSpent(bytes32[])": {
        "notice": "Checks if any of the output with the given outputIds is spent already."
      },
      "isExitGameSafeToUse(address)": {
        "notice": "Checks whether the contract is safe to use and is not under quarantine"
      },
      "processExits(uint256,address,uint160,uint256)": {
        "notice": "Processes any exits that have completed the challenge period. Exits would be processed according to the exit priority."
      },
      "protocols(uint256)": {
        "notice": "public getter for getting protocol with tx type"
      },
      "registerExitGame(uint256,address,uint8)": {
        "notice": "Register an exit game within the PlasmaFramework. The function can only be called by the maintainer."
      },
      "registerVault(uint256,address)": {
        "notice": "Register a vault within the PlasmaFramework. This can only be called by the maintainer."
      },
      "setAuthority(address)": {
        "notice": "Allows the operator to set a new authority address. This allows to implement mechanical re-org protection mechanism, explained in https://github.com/omisego/plasma-contracts/issues/118"
      },
      "submitBlock(bytes32)": {
        "notice": "Allows the authority to submit the Merkle root of a plasma block."
      },
      "submitDepositBlock(bytes32)": {
        "notice": "Submits a block for deposit."
      },
      "vaultToId(address)": {
        "notice": "public getter for getting vault id with vault address"
      },
      "vaults(uint256)": {
        "notice": "public getter for getting vault address with vault id"
      }
    }
  }
}